{
	"data": {
		"bytecode": {
			"linkReferences": {
				"remix_accounts.sol": {
					"TestsAccounts": [
						{
							"length": 20,
							"start": 8070
						},
						{
							"length": 20,
							"start": 8251
						},
						{
							"length": 20,
							"start": 8433
						},
						{
							"length": 20,
							"start": 8615
						},
						{
							"length": 20,
							"start": 8797
						}
					]
				},
				"remix_tests.sol": {
					"Assert": [
						{
							"length": 20,
							"start": 2683
						},
						{
							"length": 20,
							"start": 2837
						},
						{
							"length": 20,
							"start": 3010
						},
						{
							"length": 20,
							"start": 3136
						},
						{
							"length": 20,
							"start": 4317
						},
						{
							"length": 20,
							"start": 4471
						},
						{
							"length": 20,
							"start": 4644
						},
						{
							"length": 20,
							"start": 4770
						},
						{
							"length": 20,
							"start": 5852
						},
						{
							"length": 20,
							"start": 6229
						},
						{
							"length": 20,
							"start": 6383
						},
						{
							"length": 20,
							"start": 6556
						},
						{
							"length": 20,
							"start": 6682
						},
						{
							"length": 20,
							"start": 7733
						},
						{
							"length": 20,
							"start": 7863
						},
						{
							"length": 20,
							"start": 8981
						},
						{
							"length": 20,
							"start": 9111
						},
						{
							"length": 20,
							"start": 9491
						},
						{
							"length": 20,
							"start": 9634
						},
						{
							"length": 20,
							"start": 9929
						},
						{
							"length": 20,
							"start": 10083
						},
						{
							"length": 20,
							"start": 10256
						},
						{
							"length": 20,
							"start": 10382
						},
						{
							"length": 20,
							"start": 10508
						},
						{
							"length": 20,
							"start": 10691
						},
						{
							"length": 20,
							"start": 10876
						},
						{
							"length": 20,
							"start": 11019
						},
						{
							"length": 20,
							"start": 11236
						},
						{
							"length": 20,
							"start": 11453
						},
						{
							"length": 20,
							"start": 11670
						},
						{
							"length": 20,
							"start": 12043
						},
						{
							"length": 20,
							"start": 12331
						},
						{
							"length": 20,
							"start": 12485
						},
						{
							"length": 20,
							"start": 12658
						},
						{
							"length": 20,
							"start": 12784
						},
						{
							"length": 20,
							"start": 12910
						},
						{
							"length": 20,
							"start": 13309
						},
						{
							"length": 20,
							"start": 13463
						},
						{
							"length": 20,
							"start": 13636
						},
						{
							"length": 20,
							"start": 13762
						},
						{
							"length": 20,
							"start": 14523
						},
						{
							"length": 20,
							"start": 14677
						},
						{
							"length": 20,
							"start": 14850
						},
						{
							"length": 20,
							"start": 14976
						},
						{
							"length": 20,
							"start": 15102
						},
						{
							"length": 20,
							"start": 15246
						}
					]
				}
			},
			"object": "60806040525f6002555f6003555f60045560405180602001604052805f8152506006908161002d919061030d565b505f60095f6101000a81548160ff0219169083151502179055506001600c5f6101000a81548160ff02191690831515021790555034801561006c575f80fd5b5060643360055f6101000a81548173ffffffffffffffffffffffffffffffffffffffff021916908373ffffffffffffffffffffffffffffffffffffffff1602179055505f81036100bb57606490505b80436100c79190610409565b600b819055505061043c565b5f81519050919050565b7f4e487b71000000000000000000000000000000000000000000000000000000005f52604160045260245ffd5b7f4e487b71000000000000000000000000000000000000000000000000000000005f52602260045260245ffd5b5f600282049050600182168061014e57607f821691505b6020821081036101615761016061010a565b5b50919050565b5f819050815f5260205f209050919050565b5f6020601f8301049050919050565b5f82821b905092915050565b5f600883026101c37fffffffffffffffffffffffffffffffffffffffffffffffffffffffffffffffff82610188565b6101cd8683610188565b95508019841693508086168417925050509392505050565b5f819050919050565b5f819050919050565b5f61021161020c610207846101e5565b6101ee565b6101e5565b9050919050565b5f819050919050565b61022a836101f7565b61023e61023682610218565b848454610194565b825550505050565b5f90565b610252610246565b61025d818484610221565b505050565b5b81811015610280576102755f8261024a565b600181019050610263565b5050565b601f8211156102c55761029681610167565b61029f84610179565b810160208510156102ae578190505b6102c26102ba85610179565b830182610262565b50505b505050565b5f82821c905092915050565b5f6102e55f19846008026102ca565b1980831691505092915050565b5f6102fd83836102d6565b9150826002028217905092915050565b610316826100d3565b67ffffffffffffffff81111561032f5761032e6100dd565b5b6103398254610137565b610344828285610284565b5f60209050601f831160018114610375575f8415610363578287015190505b61036d85826102f2565b8655506103d4565b601f19841661038386610167565b5f5b828110156103aa57848901518255600182019150602085019450602081019050610385565b868310156103c757848901516103c3601f8916826102d6565b8355505b6001600288020188555050505b505050505050565b7f4e487b71000000000000000000000000000000000000000000000000000000005f52601160045260245ffd5b5f610413826101e5565b915061041e836101e5565b9250828201905080821115610436576104356103dc565b5b92915050565b615a35806104495f395ff3fe608060405234801561000f575f80fd5b5060043610610230575f3560e01c8063848455891161012e578063ad5461d8116100b6578063c1c16efc1161007a578063c1c16efc1461052a578063ca1a555c14610548578063eb4439fb14610552578063f6d416bc1461055c578063fc8d013b1461056657610230565b8063ad5461d8146104be578063b2897e2e146104ee578063b798867f146104f8578063b8341dfd14610516578063babeb68b1461052057610230565b806394746c81116100fd57806394746c8114610478578063954ffe971461048257806396400bff1461048c578063a3bef4d714610496578063a73fb659146104b457610230565b8063848455891461045057806385629b661461045a578063894ba83314610464578063914206991461046e57610230565b80635952ccb8116101bc5780636d77bd3e116101805780636d77bd3e146103e45780636e17462f1461041457806376da76481461041e578063788d3851146104285780637fea0d4b1461044657610230565b80635952ccb81461033d5780635df813301461035b57806365985a951461038c57806366063df41461039657806367e404ce146103c657610230565b806322f3e2d41161020357806322f3e2d4146102a95780633b9f708d146102c757806347098f36146102f7578063481c6a75146103155780634a6a149b1461033357610230565b8063103439cd14610234578063124258c61461023e5780631692cc921461026e5780631ddabf7a14610278575b5f80fd5b61023c610570565b005b610258600480360381019061025391906139f6565b610873565b6040516102659190613a3b565b60405180910390f35b610276610c11565b005b610292600480360381019061028d9190613aae565b610ee1565b6040516102a0929190613b49565b60405180910390f35b6102b1610f93565b6040516102be9190613a3b565b60405180910390f35b6102e160048036038101906102dc9190613ca3565b610fa5565b6040516102ee9190613d0c565b60405180910390f35b6102ff611266565b60405161030c9190613d0c565b60405180910390f35b61031d61126c565b60405161032a9190613d34565b60405180910390f35b61033b611291565b005b610345611316565b6040516103529190613d0c565b60405180910390f35b610375600480360381019061037091906139f6565b61131c565b604051610383929190613d4d565b60405180910390f35b61039461136a565b005b6103b060048036038101906103ab91906139f6565b61164d565b6040516103bd9190613a3b565b60405180910390f35b6103ce611773565b6040516103db9190613d34565b60405180910390f35b6103fe60048036038101906103f99190613d74565b611799565b60405161040b9190613d0c565b60405180910390f35b61041c6119ea565b005b610426611a6c565b005b610430611b29565b60405161043d9190613a3b565b60405180910390f35b61044e611b3b565b005b610458611eca565b005b610462611f4c565b005b61046c611fc9565b005b6104766120c8565b005b6104806121e1565b005b61048a6124c1565b005b610494612631565b005b61049e6126ba565b6040516104ab9190613d0c565b60405180910390f35b6104bc6126c0565b005b6104d860048036038101906104d391906139f6565b612a26565b6040516104e59190613dbb565b60405180910390f35b6104f6612ac0565b005b610500612b3a565b60405161050d9190613d0c565b60405180910390f35b61051e612b40565b005b610528612e23565b005b610532612ea5565b60405161053f9190613dbb565b60405180910390f35b610550612f31565b005b61055a613201565b005b6105646133d0565b005b61056e6136b3565b005b3073ffffffffffffffffffffffffffffffffffffffff16633b9f708d60115f9054906101000a900473ffffffffffffffffffffffffffffffffffffffff166040518263ffffffff1660e01b81526004016105ca9190613e25565b6020604051808303815f875af192505050801561060557506040513d601f19601f820116820180604052508101906106029190613e65565b60015b6107f557610611613e9c565b806308c379a0036106ad5750610625613ebb565b806106305750610747565b73__$acbfb1c35000d78352310b16a054a6b106$__63e8c2cb16826040518263ffffffff1660e01b8152600401610667919061404c565b602060405180830381865af4158015610682573d5f803e3d5ffd5b505050506040513d601f19601f820116820180604052508101906106a691906140bc565b50506107f0565b634e487b7103610747576106bf6140e7565b906106ca5750610747565b73__$acbfb1c35000d78352310b16a054a6b106$__6339df137f5f6040518263ffffffff1660e01b81526004016107019190614184565b602060405180830381865af415801561071c573d5f803e3d5ffd5b505050506040513d601f19601f8201168201806040525081019061074091906140bc565b50506107f0565b3d805f8114610771576040519150601f19603f3d011682016040523d82523d5f602084013e610776565b606091505b5073__$acbfb1c35000d78352310b16a054a6b106$__6339df137f5f6040518263ffffffff1660e01b81526004016107ae91906141fa565b602060405180830381865af41580156107c9573d5f803e3d5ffd5b505050506040513d601f19601f820116820180604052508101906107ed91906140bc565b50505b610871565b73__$acbfb1c35000d78352310b16a054a6b106$__63561015e28260056040518363ffffffff1660e01b815260040161082f9291906142c1565b602060405180830381865af415801561084a573d5f803e3d5ffd5b505050506040513d601f19601f8201168201806040525081019061086e91906140bc565b50505b565b5f6001151560095f9054906101000a900460ff161515146108c9576040517f08c379a00000000000000000000000000000000000000000000000000000000081526004016108c09061436b565b60405180910390fd5b60011515600c5f9054906101000a900460ff1615151461091e576040517f08c379a0000000000000000000000000000000000000000000000000000000008152600401610915906143d3565b60405180910390fd5b5f9050600b544310610933576109326137cc565b5b5f60015f3373ffffffffffffffffffffffffffffffffffffffff1673ffffffffffffffffffffffffffffffffffffffff1681526020019081526020015f205f01805461097e9061441e565b9050036109c0576040517f08c379a00000000000000000000000000000000000000000000000000000000081526004016109b790614498565b60405180910390fd5b5f805f8481526020019081526020015f2080546109dc9061441e565b905003610a1e576040517f08c379a0000000000000000000000000000000000000000000000000000000008152600401610a1590614500565b60405180910390fd5b60015f3373ffffffffffffffffffffffffffffffffffffffff1673ffffffffffffffffffffffffffffffffffffffff1681526020019081526020015f206001015f9054906101000a900460ff1615610aab576040517f08c379a0000000000000000000000000000000000000000000000000000000008152600401610aa290614568565b60405180910390fd5b600190506001805f3373ffffffffffffffffffffffffffffffffffffffff1673ffffffffffffffffffffffffffffffffffffffff1681526020019081526020015f206001015f6101000a81548160ff02191690831515021790555060045f815480929190610b18906145b3565b9190505550610b25613969565b33815f019073ffffffffffffffffffffffffffffffffffffffff16908173ffffffffffffffffffffffffffffffffffffffff168152505082816020018181525050600781908060018154018082558091505060019003905f5260205f2090600202015f909190919091505f820151815f015f6101000a81548173ffffffffffffffffffffffffffffffffffffffff021916908373ffffffffffffffffffffffffffffffffffffffff16021790555060208201518160010155505060016002600354610bf09190614627565b610bfa9190614657565b60045410610c0b57610c0a6137cc565b5b50919050565b3073ffffffffffffffffffffffffffffffffffffffff1663894ba8336040518163ffffffff1660e01b81526004015f604051808303815f87803b158015610c56575f80fd5b505af1925050508015610c67575060015b610e5757610c73613e9c565b806308c379a003610d0f5750610c87613ebb565b80610c925750610da9565b73__$acbfb1c35000d78352310b16a054a6b106$__63e8c2cb16826040518263ffffffff1660e01b8152600401610cc9919061404c565b602060405180830381865af4158015610ce4573d5f803e3d5ffd5b505050506040513d601f19601f82011682018060405250810190610d0891906140bc565b5050610e52565b634e487b7103610da957610d216140e7565b90610d2c5750610da9565b73__$acbfb1c35000d78352310b16a054a6b106$__6339df137f5f6040518263ffffffff1660e01b8152600401610d639190614184565b602060405180830381865af4158015610d7e573d5f803e3d5ffd5b505050506040513d601f19601f82011682018060405250810190610da291906140bc565b5050610e52565b3d805f8114610dd3576040519150601f19603f3d011682016040523d82523d5f602084013e610dd8565b606091505b5073__$acbfb1c35000d78352310b16a054a6b106$__6339df137f5f6040518263ffffffff1660e01b8152600401610e1091906141fa565b602060405180830381865af4158015610e2b573d5f803e3d5ffd5b505050506040513d601f19601f82011682018060405250810190610e4f91906140bc565b50505b610edf565b73__$acbfb1c35000d78352310b16a054a6b106$__6344781a00600c5f9054906101000a900460ff165f6040518363ffffffff1660e01b8152600401610e9e92919061468a565b602060405180830381865af4158015610eb9573d5f803e3d5ffd5b505050506040513d601f19601f82011682018060405250810190610edd91906140bc565b505b565b6001602052805f5260405f205f91509050805f018054610f009061441e565b80601f0160208091040260200160405190810160405280929190818152602001828054610f2c9061441e565b8015610f775780601f10610f4e57610100808354040283529160200191610f77565b820191905f5260205f20905b815481529060010190602001808311610f5a57829003601f168201915b505050505090806001015f9054906101000a900460ff16905082565b600c5f9054906101000a900460ff1681565b5f60055f9054906101000a900473ffffffffffffffffffffffffffffffffffffffff1673ffffffffffffffffffffffffffffffffffffffff163373ffffffffffffffffffffffffffffffffffffffff1614611035576040517f08c379a000000000000000000000000000000000000000000000000000000000815260040161102c906146e6565b60405180910390fd5b5f151560095f9054906101000a900460ff16151514611089576040517f08c379a000000000000000000000000000000000000000000000000000000000815260040161108090614774565b60405180910390fd5b600b5443106110cd576040517f08c379a00000000000000000000000000000000000000000000000000000000081526004016110c4906147dc565b60405180910390fd5b60011515600c5f9054906101000a900460ff16151514611122576040517f08c379a0000000000000000000000000000000000000000000000000000000008152600401611119906143d3565b60405180910390fd5b5f60015f8573ffffffffffffffffffffffffffffffffffffffff1673ffffffffffffffffffffffffffffffffffffffff1681526020019081526020015f205f01805461116d9061441e565b9050146111af576040517f08c379a00000000000000000000000000000000000000000000000000000000081526004016111a690614844565b60405180910390fd5b60035f8154809291906111c1906145b3565b91905055506111ce613997565b82815f01819052505f8160200190151590811515815250508060015f8673ffffffffffffffffffffffffffffffffffffffff1673ffffffffffffffffffffffffffffffffffffffff1681526020019081526020015f205f820151815f01908161123791906149f6565b506020820151816001015f6101000a81548160ff02191690831515021790555090505060035491505092915050565b60035481565b60055f9054906101000a900473ffffffffffffffffffffffffffffffffffffffff1681565b73__$acbfb1c35000d78352310b16a054a6b106$__63767392b36112b5606461164d565b60016040518363ffffffff1660e01b81526004016112d4929190614b0f565b602060405180830381865af41580156112ef573d5f803e3d5ffd5b505050506040513d601f19601f8201168201806040525081019061131391906140bc565b50565b600b5481565b6007818154811061132b575f80fd5b905f5260205f2090600202015f91509050805f015f9054906101000a900473ffffffffffffffffffffffffffffffffffffffff16908060010154905082565b3073ffffffffffffffffffffffffffffffffffffffff166366063df460646040518263ffffffff1660e01b81526004016113a49190614b82565b6020604051808303815f875af19250505080156113df57506040513d601f19601f820116820180604052508101906113dc91906140bc565b60015b6115cf576113eb613e9c565b806308c379a00361148757506113ff613ebb565b8061140a5750611521565b73__$acbfb1c35000d78352310b16a054a6b106$__63e8c2cb16826040518263ffffffff1660e01b8152600401611441919061404c565b602060405180830381865af415801561145c573d5f803e3d5ffd5b505050506040513d601f19601f8201168201806040525081019061148091906140bc565b50506115ca565b634e487b7103611521576114996140e7565b906114a45750611521565b73__$acbfb1c35000d78352310b16a054a6b106$__6339df137f5f6040518263ffffffff1660e01b81526004016114db9190614184565b602060405180830381865af41580156114f6573d5f803e3d5ffd5b505050506040513d601f19601f8201168201806040525081019061151a91906140bc565b50506115ca565b3d805f811461154b576040519150601f19603f3d011682016040523d82523d5f602084013e611550565b606091505b5073__$acbfb1c35000d78352310b16a054a6b106$__6339df137f5f6040518263ffffffff1660e01b815260040161158891906141fa565b602060405180830381865af41580156115a3573d5f803e3d5ffd5b505050506040513d601f19601f820116820180604052508101906115c791906140bc565b50505b61164b565b73__$acbfb1c35000d78352310b16a054a6b106$__6344781a008260016040518363ffffffff1660e01b815260040161160992919061468a565b602060405180830381865af4158015611624573d5f803e3d5ffd5b505050506040513d601f19601f8201168201806040525081019061164891906140bc565b50505b565b5f60055f9054906101000a900473ffffffffffffffffffffffffffffffffffffffff1673ffffffffffffffffffffffffffffffffffffffff163373ffffffffffffffffffffffffffffffffffffffff16146116dd576040517f08c379a00000000000000000000000000000000000000000000000000000000081526004016116d4906146e6565b60405180910390fd5b60011515600c5f9054906101000a900460ff16151514611732576040517f08c379a0000000000000000000000000000000000000000000000000000000008152600401611729906143d3565b60405180910390fd5b5f905081436117419190614657565b600b81905550600b54431161176a575f60095f6101000a81548160ff0219169083151502179055505b60019050919050565b600c60019054906101000a900473ffffffffffffffffffffffffffffffffffffffff1681565b5f60055f9054906101000a900473ffffffffffffffffffffffffffffffffffffffff1673ffffffffffffffffffffffffffffffffffffffff163373ffffffffffffffffffffffffffffffffffffffff1614611829576040517f08c379a0000000000000000000000000000000000000000000000000000000008152600401611820906146e6565b60405180910390fd5b5f151560095f9054906101000a900460ff1615151461187d576040517f08c379a000000000000000000000000000000000000000000000000000000000815260040161187490614774565b60405180910390fd5b600b5443106118c1576040517f08c379a00000000000000000000000000000000000000000000000000000000081526004016118b8906147dc565b60405180910390fd5b60011515600c5f9054906101000a900460ff16151514611916576040517f08c379a000000000000000000000000000000000000000000000000000000000815260040161190d906143d3565b60405180910390fd5b5f82805190602001209050600a5f8281526020019081526020015f205f9054906101000a900460ff161561197f576040517f08c379a000000000000000000000000000000000000000000000000000000000815260040161197690614be5565b60405180910390fd5b60025f815480929190611991906145b3565b9190505550825f8060025481526020019081526020015f2090816119b591906149f6565b506001600a5f8381526020019081526020015f205f6101000a81548160ff021916908315150217905550600254915050919050565b73__$acbfb1c35000d78352310b16a054a6b106$__6339df137f611a0e6002610873565b6040518263ffffffff1660e01b8152600401611a2a9190614c4d565b602060405180830381865af4158015611a45573d5f803e3d5ffd5b505050506040513d601f19601f82011682018060405250810190611a6991906140bc565b50565b73__$acbfb1c35000d78352310b16a054a6b106$__63bfba5dd660055f9054906101000a900473ffffffffffffffffffffffffffffffffffffffff16600d5f9054906101000a900473ffffffffffffffffffffffffffffffffffffffff166040518363ffffffff1660e01b8152600401611ae7929190614cd2565b602060405180830381865af4158015611b02573d5f803e3d5ffd5b505050506040513d601f19601f82011682018060405250810190611b2691906140bc565b50565b60095f9054906101000a900460ff1681565b73__$1068a87eb54ed04c4e435de35b2ebf536f$__63ce88b1455f6040518263ffffffff1660e01b8152600401611b729190614d45565b602060405180830381865af4158015611b8d573d5f803e3d5ffd5b505050506040513d601f19601f82011682018060405250810190611bb19190614d72565b600d5f6101000a81548173ffffffffffffffffffffffffffffffffffffffff021916908373ffffffffffffffffffffffffffffffffffffffff16021790555073__$1068a87eb54ed04c4e435de35b2ebf536f$__63ce88b14560016040518263ffffffff1660e01b8152600401611c289190614dd6565b602060405180830381865af4158015611c43573d5f803e3d5ffd5b505050506040513d601f19601f82011682018060405250810190611c679190614d72565b600e5f6101000a81548173ffffffffffffffffffffffffffffffffffffffff021916908373ffffffffffffffffffffffffffffffffffffffff16021790555073__$1068a87eb54ed04c4e435de35b2ebf536f$__63ce88b14560026040518263ffffffff1660e01b8152600401611cde9190614e28565b602060405180830381865af4158015611cf9573d5f803e3d5ffd5b505050506040513d601f19601f82011682018060405250810190611d1d9190614d72565b600f5f6101000a81548173ffffffffffffffffffffffffffffffffffffffff021916908373ffffffffffffffffffffffffffffffffffffffff16021790555073__$1068a87eb54ed04c4e435de35b2ebf536f$__63ce88b14560036040518263ffffffff1660e01b8152600401611d949190614e7a565b602060405180830381865af4158015611daf573d5f803e3d5ffd5b505050506040513d601f19601f82011682018060405250810190611dd39190614d72565b60105f6101000a81548173ffffffffffffffffffffffffffffffffffffffff021916908373ffffffffffffffffffffffffffffffffffffffff16021790555073__$1068a87eb54ed04c4e435de35b2ebf536f$__63ce88b14560046040518263ffffffff1660e01b8152600401611e4a9190614ecc565b602060405180830381865af4158015611e65573d5f803e3d5ffd5b505050506040513d601f19601f82011682018060405250810190611e899190614d72565b60115f6101000a81548173ffffffffffffffffffffffffffffffffffffffff021916908373ffffffffffffffffffffffffffffffffffffffff160217905550565b73__$acbfb1c35000d78352310b16a054a6b106$__6339df137f611eee6002610873565b6040518263ffffffff1660e01b8152600401611f0a9190614c4d565b602060405180830381865af4158015611f25573d5f803e3d5ffd5b505050506040513d601f19601f82011682018060405250810190611f4991906140bc565b50565b73__$acbfb1c35000d78352310b16a054a6b106$__63a079f1a3600b54436040518363ffffffff1660e01b8152600401611f87929190614f55565b602060405180830381865af4158015611fa2573d5f803e3d5ffd5b505050506040513d601f19601f82011682018060405250810190611fc691906140bc565b50565b60055f9054906101000a900473ffffffffffffffffffffffffffffffffffffffff1673ffffffffffffffffffffffffffffffffffffffff163373ffffffffffffffffffffffffffffffffffffffff1614612058576040517f08c379a000000000000000000000000000000000000000000000000000000000815260040161204f906146e6565b60405180910390fd5b60011515600c5f9054906101000a900460ff161515146120ad576040517f08c379a00000000000000000000000000000000000000000000000000000000081526004016120a4906143d3565b60405180910390fd5b5f600c5f6101000a81548160ff021916908315150217905550565b73__$acbfb1c35000d78352310b16a054a6b106$__63767392b360095f9054906101000a900460ff165f6040518363ffffffff1660e01b815260040161210f929190614fff565b602060405180830381865af415801561212a573d5f803e3d5ffd5b505050506040513d601f19601f8201168201806040525081019061214e91906140bc565b50612157613201565b73__$acbfb1c35000d78352310b16a054a6b106$__63767392b360095f9054906101000a900460ff1660016040518363ffffffff1660e01b815260040161219f929190615083565b602060405180830381865af41580156121ba573d5f803e3d5ffd5b505050506040513d601f19601f820116820180604052508101906121de91906140bc565b50565b3073ffffffffffffffffffffffffffffffffffffffff16636d77bd3e6040518163ffffffff1660e01b815260040161221890615107565b6020604051808303815f875af192505050801561225357506040513d601f19601f820116820180604052508101906122509190613e65565b60015b6124435761225f613e9c565b806308c379a0036122fb5750612273613ebb565b8061227e5750612395565b73__$acbfb1c35000d78352310b16a054a6b106$__63e8c2cb16826040518263ffffffff1660e01b81526004016122b5919061404c565b602060405180830381865af41580156122d0573d5f803e3d5ffd5b505050506040513d601f19601f820116820180604052508101906122f491906140bc565b505061243e565b634e487b71036123955761230d6140e7565b906123185750612395565b73__$acbfb1c35000d78352310b16a054a6b106$__6339df137f5f6040518263ffffffff1660e01b815260040161234f9190614184565b602060405180830381865af415801561236a573d5f803e3d5ffd5b505050506040513d601f19601f8201168201806040525081019061238e91906140bc565b505061243e565b3d805f81146123bf576040519150601f19603f3d011682016040523d82523d5f602084013e6123c4565b606091505b5073__$acbfb1c35000d78352310b16a054a6b106$__6339df137f5f6040518263ffffffff1660e01b81526004016123fc91906141fa565b602060405180830381865af4158015612417573d5f803e3d5ffd5b505050506040513d601f19601f8201168201806040525081019061243b91906140bc565b50505b6124bf565b73__$acbfb1c35000d78352310b16a054a6b106$__63561015e28260036040518363ffffffff1660e01b815260040161247d929190615125565b602060405180830381865af4158015612498573d5f803e3d5ffd5b505050506040513d601f19601f820116820180604052508101906124bc91906140bc565b50505b565b73__$acbfb1c35000d78352310b16a054a6b106$__63abcd79606125196040518060400160405280600e81526020017f436f757274796172642043616665000000000000000000000000000000000000815250611799565b60016040518363ffffffff1660e01b81526004016125389291906151a9565b602060405180830381865af4158015612553573d5f803e3d5ffd5b505050506040513d601f19601f8201168201806040525081019061257791906140bc565b5073__$acbfb1c35000d78352310b16a054a6b106$__63abcd79606125d06040518060400160405280600881526020017f556e692043616665000000000000000000000000000000000000000000000000815250611799565b60026040518363ffffffff1660e01b81526004016125ef92919061522d565b602060405180830381865af415801561260a573d5f803e3d5ffd5b505050506040513d601f19601f8201168201806040525081019061262e91906140bc565b50565b73__$acbfb1c35000d78352310b16a054a6b106$__63767392b360095f9054906101000a900460ff165f6040518363ffffffff1660e01b81526004016126789291906152b1565b602060405180830381865af4158015612693573d5f803e3d5ffd5b505050506040513d601f19601f820116820180604052508101906126b791906140bc565b50565b60045481565b73__$acbfb1c35000d78352310b16a054a6b106$__63abcd796061273a600d5f9054906101000a900473ffffffffffffffffffffffffffffffffffffffff166040518060400160405280600581526020017f416c696365000000000000000000000000000000000000000000000000000000815250610fa5565b60016040518363ffffffff1660e01b81526004016127599291906151a9565b602060405180830381865af4158015612774573d5f803e3d5ffd5b505050506040513d601f19601f8201168201806040525081019061279891906140bc565b5073__$acbfb1c35000d78352310b16a054a6b106$__63abcd7960612813600e5f9054906101000a900473ffffffffffffffffffffffffffffffffffffffff166040518060400160405280600381526020017f426f620000000000000000000000000000000000000000000000000000000000815250610fa5565b60026040518363ffffffff1660e01b815260040161283292919061522d565b602060405180830381865af415801561284d573d5f803e3d5ffd5b505050506040513d601f19601f8201168201806040525081019061287191906140bc565b5073__$acbfb1c35000d78352310b16a054a6b106$__63abcd79606128ec600f5f9054906101000a900473ffffffffffffffffffffffffffffffffffffffff166040518060400160405280600781526020017f436861726c696500000000000000000000000000000000000000000000000000815250610fa5565b60036040518363ffffffff1660e01b815260040161290b929190615335565b602060405180830381865af4158015612926573d5f803e3d5ffd5b505050506040513d601f19601f8201168201806040525081019061294a91906140bc565b5073__$acbfb1c35000d78352310b16a054a6b106$__63abcd79606129c560105f9054906101000a900473ffffffffffffffffffffffffffffffffffffffff166040518060400160405280600381526020017f4576650000000000000000000000000000000000000000000000000000000000815250610fa5565b60046040518363ffffffff1660e01b81526004016129e49291906153b9565b602060405180830381865af41580156129ff573d5f803e3d5ffd5b505050506040513d601f19601f82011682018060405250810190612a2391906140bc565b50565b5f602052805f5260405f205f915090508054612a419061441e565b80601f0160208091040260200160405190810160405280929190818152602001828054612a6d9061441e565b8015612ab85780601f10612a8f57610100808354040283529160200191612ab8565b820191905f5260205f20905b815481529060010190602001808311612a9b57829003601f168201915b505050505081565b73__$acbfb1c35000d78352310b16a054a6b106$__63e8c2cb1660066040518263ffffffff1660e01b8152600401612af8919061552e565b602060405180830381865af4158015612b13573d5f803e3d5ffd5b505050506040513d601f19601f82011682018060405250810190612b3791906140bc565b50565b60025481565b3073ffffffffffffffffffffffffffffffffffffffff1663124258c660016040518263ffffffff1660e01b8152600401612b7a9190615583565b6020604051808303815f875af1925050508015612bb557506040513d601f19601f82011682018060405250810190612bb291906140bc565b60015b612da557612bc1613e9c565b806308c379a003612c5d5750612bd5613ebb565b80612be05750612cf7565b73__$acbfb1c35000d78352310b16a054a6b106$__63e8c2cb16826040518263ffffffff1660e01b8152600401612c1791906155be565b602060405180830381865af4158015612c32573d5f803e3d5ffd5b505050506040513d601f19601f82011682018060405250810190612c5691906140bc565b5050612da0565b634e487b7103612cf757612c6f6140e7565b90612c7a5750612cf7565b73__$acbfb1c35000d78352310b16a054a6b106$__6339df137f5f6040518263ffffffff1660e01b8152600401612cb19190614184565b602060405180830381865af4158015612ccc573d5f803e3d5ffd5b505050506040513d601f19601f82011682018060405250810190612cf091906140bc565b5050612da0565b3d805f8114612d21576040519150601f19603f3d011682016040523d82523d5f602084013e612d26565b606091505b5073__$acbfb1c35000d78352310b16a054a6b106$__6339df137f5f6040518263ffffffff1660e01b8152600401612d5e919061564e565b602060405180830381865af4158015612d79573d5f803e3d5ffd5b505050506040513d601f19601f82011682018060405250810190612d9d91906140bc565b50505b612e21565b73__$acbfb1c35000d78352310b16a054a6b106$__6344781a008260016040518363ffffffff1660e01b8152600401612ddf92919061468a565b602060405180830381865af4158015612dfa573d5f803e3d5ffd5b505050506040513d601f19601f82011682018060405250810190612e1e91906140bc565b50505b565b73__$acbfb1c35000d78352310b16a054a6b106$__6339df137f612e476001610873565b6040518263ffffffff1660e01b8152600401612e639190614c4d565b602060405180830381865af4158015612e7e573d5f803e3d5ffd5b505050506040513d601f19601f82011682018060405250810190612ea291906140bc565b50565b60068054612eb29061441e565b80601f0160208091040260200160405190810160405280929190818152602001828054612ede9061441e565b8015612f295780601f10612f0057610100808354040283529160200191612f29565b820191905f5260205f20905b815481529060010190602001808311612f0c57829003601f168201915b505050505081565b3073ffffffffffffffffffffffffffffffffffffffff1663eb4439fb6040518163ffffffff1660e01b81526004015f604051808303815f87803b158015612f76575f80fd5b505af1925050508015612f87575060015b61317757612f93613e9c565b806308c379a00361302f5750612fa7613ebb565b80612fb257506130c9565b73__$acbfb1c35000d78352310b16a054a6b106$__63e8c2cb16826040518263ffffffff1660e01b8152600401612fe9919061404c565b602060405180830381865af4158015613004573d5f803e3d5ffd5b505050506040513d601f19601f8201168201806040525081019061302891906140bc565b5050613172565b634e487b71036130c9576130416140e7565b9061304c57506130c9565b73__$acbfb1c35000d78352310b16a054a6b106$__6339df137f5f6040518263ffffffff1660e01b81526004016130839190614184565b602060405180830381865af415801561309e573d5f803e3d5ffd5b505050506040513d601f19601f820116820180604052508101906130c291906140bc565b5050613172565b3d805f81146130f3576040519150601f19603f3d011682016040523d82523d5f602084013e6130f8565b606091505b5073__$acbfb1c35000d78352310b16a054a6b106$__6339df137f5f6040518263ffffffff1660e01b8152600401613130919061564e565b602060405180830381865af415801561314b573d5f803e3d5ffd5b505050506040513d601f19601f8201168201806040525081019061316f91906140bc565b50505b6131ff565b73__$acbfb1c35000d78352310b16a054a6b106$__6344781a0060095f9054906101000a900460ff165f6040518363ffffffff1660e01b81526004016131be92919061468a565b602060405180830381865af41580156131d9573d5f803e3d5ffd5b505050506040513d601f19601f820116820180604052508101906131fd91906140bc565b505b565b60055f9054906101000a900473ffffffffffffffffffffffffffffffffffffffff1673ffffffffffffffffffffffffffffffffffffffff163373ffffffffffffffffffffffffffffffffffffffff1614613290576040517f08c379a0000000000000000000000000000000000000000000000000000000008152600401613287906146e6565b60405180910390fd5b60011515600c5f9054906101000a900460ff161515146132e5576040517f08c379a00000000000000000000000000000000000000000000000000000000081526004016132dc906143d3565b60405180910390fd5b60028054101561332a576040517f08c379a0000000000000000000000000000000000000000000000000000000008152600401613321906156ea565b60405180910390fd5b60026003541015613370576040517f08c379a000000000000000000000000000000000000000000000000000000000815260040161336790615778565b60405180910390fd5b600b5443106133b4576040517f08c379a00000000000000000000000000000000000000000000000000000000081526004016133ab90615806565b60405180910390fd5b600160095f6101000a81548160ff021916908315150217905550565b3073ffffffffffffffffffffffffffffffffffffffff1663124258c660016040518263ffffffff1660e01b815260040161340a9190615583565b6020604051808303815f875af192505050801561344557506040513d601f19601f8201168201806040525081019061344291906140bc565b60015b61363557613451613e9c565b806308c379a0036134ed5750613465613ebb565b806134705750613587565b73__$acbfb1c35000d78352310b16a054a6b106$__63e8c2cb16826040518263ffffffff1660e01b81526004016134a79190615846565b602060405180830381865af41580156134c2573d5f803e3d5ffd5b505050506040513d601f19601f820116820180604052508101906134e691906140bc565b5050613630565b634e487b7103613587576134ff6140e7565b9061350a5750613587565b73__$acbfb1c35000d78352310b16a054a6b106$__6339df137f5f6040518263ffffffff1660e01b81526004016135419190614184565b602060405180830381865af415801561355c573d5f803e3d5ffd5b505050506040513d601f19601f8201168201806040525081019061358091906140bc565b5050613630565b3d805f81146135b1576040519150601f19603f3d011682016040523d82523d5f602084013e6135b6565b606091505b5073__$acbfb1c35000d78352310b16a054a6b106$__6339df137f5f6040518263ffffffff1660e01b81526004016135ee919061564e565b602060405180830381865af4158015613609573d5f803e3d5ffd5b505050506040513d601f19601f8201168201806040525081019061362d91906140bc565b50505b6136b1565b73__$acbfb1c35000d78352310b16a054a6b106$__6344781a008260016040518363ffffffff1660e01b815260040161366f92919061468a565b602060405180830381865af415801561368a573d5f803e3d5ffd5b505050506040513d601f19601f820116820180604052508101906136ae91906140bc565b50505b565b73__$acbfb1c35000d78352310b16a054a6b106$__63767392b3600c5f9054906101000a900460ff1660016040518363ffffffff1660e01b81526004016136fb92919061588c565b602060405180830381865af4158015613716573d5f803e3d5ffd5b505050506040513d601f19601f8201168201806040525081019061373a91906140bc565b50613743611fc9565b73__$acbfb1c35000d78352310b16a054a6b106$__63767392b3600c5f9054906101000a900460ff165f6040518363ffffffff1660e01b815260040161378a92919061588c565b602060405180830381865af41580156137a5573d5f803e3d5ffd5b505050506040513d601f19601f820116820180604052508101906137c991906140bc565b50565b60011515600c5f9054906101000a900460ff16151514613821576040517f08c379a0000000000000000000000000000000000000000000000000000000008152600401613818906143d3565b60405180910390fd5b5f805f5b60045481101561392c575f600190505f60085f6007858154811061384c5761384b6158c6565b5b905f5260205f2090600202016001015481526020019081526020015f205411156138b35760085f60078481548110613887576138866158c6565b5b905f5260205f2090600202016001015481526020019081526020015f2054816138b09190614657565b90505b8060085f600785815481106138cb576138ca6158c6565b5b905f5260205f2090600202016001015481526020019081526020015f20819055508381111561391e578093506007828154811061390b5761390a6158c6565b5b905f5260205f2090600202016001015492505b508080600101915050613825565b505f808281526020019081526020015f206006908161394b919061591a565b505f60095f6101000a81548160ff0219169083151502179055505050565b60405180604001604052805f73ffffffffffffffffffffffffffffffffffffffff1681526020015f81525090565b6040518060400160405280606081526020015f151581525090565b5f604051905090565b5f80fd5b5f80fd5b5f819050919050565b6139d5816139c3565b81146139df575f80fd5b50565b5f813590506139f0816139cc565b92915050565b5f60208284031215613a0b57613a0a6139bb565b5b5f613a18848285016139e2565b91505092915050565b5f8115159050919050565b613a3581613a21565b82525050565b5f602082019050613a4e5f830184613a2c565b92915050565b5f73ffffffffffffffffffffffffffffffffffffffff82169050919050565b5f613a7d82613a54565b9050919050565b613a8d81613a73565b8114613a97575f80fd5b50565b5f81359050613aa881613a84565b92915050565b5f60208284031215613ac357613ac26139bb565b5b5f613ad084828501613a9a565b91505092915050565b5f81519050919050565b5f82825260208201905092915050565b8281835e5f83830152505050565b5f601f19601f8301169050919050565b5f613b1b82613ad9565b613b258185613ae3565b9350613b35818560208601613af3565b613b3e81613b01565b840191505092915050565b5f6040820190508181035f830152613b618185613b11565b9050613b706020830184613a2c565b9392505050565b5f80fd5b5f80fd5b7f4e487b71000000000000000000000000000000000000000000000000000000005f52604160045260245ffd5b613bb582613b01565b810181811067ffffffffffffffff82111715613bd457613bd3613b7f565b5b80604052505050565b5f613be66139b2565b9050613bf28282613bac565b919050565b5f67ffffffffffffffff821115613c1157613c10613b7f565b5b613c1a82613b01565b9050602081019050919050565b828183375f83830152505050565b5f613c47613c4284613bf7565b613bdd565b905082815260208101848484011115613c6357613c62613b7b565b5b613c6e848285613c27565b509392505050565b5f82601f830112613c8a57613c89613b77565b5b8135613c9a848260208601613c35565b91505092915050565b5f8060408385031215613cb957613cb86139bb565b5b5f613cc685828601613a9a565b925050602083013567ffffffffffffffff811115613ce757613ce66139bf565b5b613cf385828601613c76565b9150509250929050565b613d06816139c3565b82525050565b5f602082019050613d1f5f830184613cfd565b92915050565b613d2e81613a73565b82525050565b5f602082019050613d475f830184613d25565b92915050565b5f604082019050613d605f830185613d25565b613d6d6020830184613cfd565b9392505050565b5f60208284031215613d8957613d886139bb565b5b5f82013567ffffffffffffffff811115613da657613da56139bf565b5b613db284828501613c76565b91505092915050565b5f6020820190508181035f830152613dd38184613b11565b905092915050565b7f44616e69656c73000000000000000000000000000000000000000000000000005f82015250565b5f613e0f600783613ae3565b9150613e1a82613ddb565b602082019050919050565b5f604082019050613e385f830184613d25565b8181036020830152613e4981613e03565b905092915050565b5f81519050613e5f816139cc565b92915050565b5f60208284031215613e7a57613e796139bb565b5b5f613e8784828501613e51565b91505092915050565b5f8160e01c9050919050565b5f60033d1115613eb85760045f803e613eb55f51613e90565b90505b90565b5f60443d10613f4757613ecc6139b2565b60043d036004823e80513d602482011167ffffffffffffffff82111715613ef4575050613f47565b808201805167ffffffffffffffff811115613f125750505050613f47565b80602083010160043d038501811115613f2f575050505050613f47565b613f3e82602001850186613bac565b82955050505050505b90565b5f82825260208201905092915050565b5f613f6482613ad9565b613f6e8185613f4a565b9350613f7e818560208601613af3565b613f8781613b01565b840191505092915050565b7f43616e206f6e6c7920626520657865637574656420627920746865206d616e615f8201527f6765720000000000000000000000000000000000000000000000000000000000602082015250565b5f613fec602383613f4a565b9150613ff782613f92565b604082019050919050565b7f4661696c6564207769746820756e657870656374656420726561736f6e0000005f82015250565b5f614036601d83613f4a565b915061404182614002565b602082019050919050565b5f6060820190508181035f8301526140648184613f5a565b9050818103602083015261407781613fe0565b9050818103604083015261408a8161402a565b905092915050565b61409b81613a21565b81146140a5575f80fd5b50565b5f815190506140b681614092565b92915050565b5f602082840312156140d1576140d06139bb565b5b5f6140de848285016140a8565b91505092915050565b5f8060233d111561410157602060045f3e600191505f5190505b9091565b61410e81613a21565b82525050565b7f4661696c656420756e65787065637465642077697468206572726f7220636f645f8201527f6500000000000000000000000000000000000000000000000000000000000000602082015250565b5f61416e602183613f4a565b915061417982614114565b604082019050919050565b5f6040820190506141975f830184614105565b81810360208301526141a881614162565b905092915050565b7f4661696c656420756e65787065637465640000000000000000000000000000005f82015250565b5f6141e4601183613f4a565b91506141ef826141b0565b602082019050919050565b5f60408201905061420d5f830184614105565b818103602083015261421e816141d8565b905092915050565b61422f816139c3565b82525050565b5f819050919050565b5f819050919050565b5f61426161425c61425784614235565b61423e565b6139c3565b9050919050565b61427181614247565b82525050565b7f4d6574686f6420657865637574696f6e20646964206e6f74206661696c0000005f82015250565b5f6142ab601d83613f4a565b91506142b682614277565b602082019050919050565b5f6060820190506142d45f830185614226565b6142e16020830184614268565b81810360408301526142f28161429f565b90509392505050565b7f43616e20766f7465206f6e6c79207768696c6520766f74696e67206973206f705f8201527f656e000000000000000000000000000000000000000000000000000000000000602082015250565b5f614355602283613ae3565b9150614360826142fb565b604082019050919050565b5f6020820190508181035f83015261438281614349565b9050919050565b7f4f6e6c79207768656e20636f6e747261637420697320616374697665000000005f82015250565b5f6143bd601c83613ae3565b91506143c882614389565b602082019050919050565b5f6020820190508181035f8301526143ea816143b1565b9050919050565b7f4e487b71000000000000000000000000000000000000000000000000000000005f52602260045260245ffd5b5f600282049050600182168061443557607f821691505b602082108103614448576144476143f1565b5b50919050565b7f467269656e6420646f6573206e6f7420657869737400000000000000000000005f82015250565b5f614482601583613ae3565b915061448d8261444e565b602082019050919050565b5f6020820190508181035f8301526144af81614476565b9050919050565b7f52657374617572616e7420766f74656420646f6573206e6f74206578697374005f82015250565b5f6144ea601f83613ae3565b91506144f5826144b6565b602082019050919050565b5f6020820190508181035f830152614517816144de565b9050919050565b7f467269656e642068617320766f74656420616c726561647900000000000000005f82015250565b5f614552601883613ae3565b915061455d8261451e565b602082019050919050565b5f6020820190508181035f83015261457f81614546565b9050919050565b7f4e487b71000000000000000000000000000000000000000000000000000000005f52601160045260245ffd5b5f6145bd826139c3565b91507fffffffffffffffffffffffffffffffffffffffffffffffffffffffffffffffff82036145ef576145ee614586565b5b600182019050919050565b7f4e487b71000000000000000000000000000000000000000000000000000000005f52601260045260245ffd5b5f614631826139c3565b915061463c836139c3565b92508261464c5761464b6145fa565b5b828204905092915050565b5f614661826139c3565b915061466c836139c3565b925082820190508082111561468457614683614586565b5b92915050565b5f60608201905061469d5f830185614105565b6146aa6020830184614105565b81810360408301526146bb8161429f565b90509392505050565b5f6146d0602383613ae3565b91506146db82613f92565b604082019050919050565b5f6020820190508181035f8301526146fd816146c4565b9050919050565b7f43616e2061646420667269656e6473206f722072657374617572616e7473206f5f8201527f6e6c79207768656e20766f74696e672069732064697361626c65640000000000602082015250565b5f61475e603b83613ae3565b915061476982614704565b604082019050919050565b5f6020820190508181035f83015261478b81614752565b9050919050565b7f54696d656f7574207265616368656400000000000000000000000000000000005f82015250565b5f6147c6600f83613ae3565b91506147d182614792565b602082019050919050565b5f6020820190508181035f8301526147f3816147ba565b9050919050565b7f467269656e6420616c72656164792065786973747300000000000000000000005f82015250565b5f61482e601583613ae3565b9150614839826147fa565b602082019050919050565b5f6020820190508181035f83015261485b81614822565b9050919050565b5f819050815f5260205f209050919050565b5f6020601f8301049050919050565b5f82821b905092915050565b5f600883026148be7fffffffffffffffffffffffffffffffffffffffffffffffffffffffffffffffff82614883565b6148c88683614883565b95508019841693508086168417925050509392505050565b5f6148fa6148f56148f0846139c3565b61423e565b6139c3565b9050919050565b5f819050919050565b614913836148e0565b61492761491f82614901565b84845461488f565b825550505050565b5f90565b61493b61492f565b61494681848461490a565b505050565b5b818110156149695761495e5f82614933565b60018101905061494c565b5050565b601f8211156149ae5761497f81614862565b61498884614874565b81016020851015614997578190505b6149ab6149a385614874565b83018261494b565b50505b505050565b5f82821c905092915050565b5f6149ce5f19846008026149b3565b1980831691505092915050565b5f6149e683836149bf565b9150826002028217905092915050565b6149ff82613ad9565b67ffffffffffffffff811115614a1857614a17613b7f565b5b614a22825461441e565b614a2d82828561496d565b5f60209050601f831160018114614a5e575f8415614a4c578287015190505b614a5685826149db565b865550614abd565b601f198416614a6c86614862565b5f5b82811015614a9357848901518255600182019150602085019450602081019050614a6e565b86831015614ab05784890151614aac601f8916826149bf565b8355505b6001600288020188555050505b505050505050565b7f53686f756c6420626520657175616c20746f20747275650000000000000000005f82015250565b5f614af9601783613f4a565b9150614b0482614ac5565b602082019050919050565b5f606082019050614b225f830185614105565b614b2f6020830184614105565b8181036040830152614b4081614aed565b90509392505050565b5f819050919050565b5f614b6c614b67614b6284614b49565b61423e565b6139c3565b9050919050565b614b7c81614b52565b82525050565b5f602082019050614b955f830184614b73565b92915050565b7f52657374617572616e7420616c726561647920657869737473000000000000005f82015250565b5f614bcf601983613ae3565b9150614bda82614b9b565b602082019050919050565b5f6020820190508181035f830152614bfc81614bc3565b9050919050565b7f566f74696e6720726573756c742073686f756c642062652074727565000000005f82015250565b5f614c37601c83613f4a565b9150614c4282614c03565b602082019050919050565b5f604082019050614c605f830184614105565b8181036020830152614c7181614c2b565b905092915050565b614c8281613a73565b82525050565b7f4d616e616765722073686f756c642062652061636330000000000000000000005f82015250565b5f614cbc601683613f4a565b9150614cc782614c88565b602082019050919050565b5f606082019050614ce55f830185614c79565b614cf26020830184614c79565b8181036040830152614d0381614cb0565b90509392505050565b5f819050919050565b5f614d2f614d2a614d2584614d0c565b61423e565b6139c3565b9050919050565b614d3f81614d15565b82525050565b5f602082019050614d585f830184614d36565b92915050565b5f81519050614d6c81613a84565b92915050565b5f60208284031215614d8757614d866139bb565b5b5f614d9484828501614d5e565b91505092915050565b5f819050919050565b5f614dc0614dbb614db684614d9d565b61423e565b6139c3565b9050919050565b614dd081614da6565b82525050565b5f602082019050614de95f830184614dc7565b92915050565b5f819050919050565b5f614e12614e0d614e0884614def565b61423e565b6139c3565b9050919050565b614e2281614df8565b82525050565b5f602082019050614e3b5f830184614e19565b92915050565b5f819050919050565b5f614e64614e5f614e5a84614e41565b61423e565b6139c3565b9050919050565b614e7481614e4a565b82525050565b5f602082019050614e8d5f830184614e6b565b92915050565b5f819050919050565b5f614eb6614eb1614eac84614e93565b61423e565b6139c3565b9050919050565b614ec681614e9c565b82525050565b5f602082019050614edf5f830184614ebd565b92915050565b7f54696d656f757420626c6f636b206e756d6265722073686f756c6420626520735f8201527f6574000000000000000000000000000000000000000000000000000000000000602082015250565b5f614f3f602283613f4a565b9150614f4a82614ee5565b604082019050919050565b5f606082019050614f685f830185614226565b614f756020830184614226565b8181036040830152614f8681614f33565b90509392505050565b7f566f74696e672073686f756c6420696e697469616c6c7920626520636c6f73655f8201527f6400000000000000000000000000000000000000000000000000000000000000602082015250565b5f614fe9602183613f4a565b9150614ff482614f8f565b604082019050919050565b5f6060820190506150125f830185614105565b61501f6020830184614105565b818103604083015261503081614fdd565b90509392505050565b7f566f74696e672073686f756c64206265206f70656e00000000000000000000005f82015250565b5f61506d601583613f4a565b915061507882615039565b602082019050919050565b5f6060820190506150965f830185614105565b6150a36020830184614105565b81810360408301526150b481615061565b90509392505050565b7f41746f6d696320436166650000000000000000000000000000000000000000005f82015250565b5f6150f1600b83613ae3565b91506150fc826150bd565b602082019050919050565b5f6020820190508181035f83015261511e816150e5565b9050919050565b5f6060820190506151385f830185614226565b6151456020830184614e6b565b81810360408301526151568161429f565b90509392505050565b7f53686f756c6420626520657175616c20746f20310000000000000000000000005f82015250565b5f615193601483613f4a565b915061519e8261515f565b602082019050919050565b5f6060820190506151bc5f830185614226565b6151c96020830184614dc7565b81810360408301526151da81615187565b90509392505050565b7f53686f756c6420626520657175616c20746f20320000000000000000000000005f82015250565b5f615217601483613f4a565b9150615222826151e3565b602082019050919050565b5f6060820190506152405f830185614226565b61524d6020830184614e19565b818103604083015261525e8161520b565b90509392505050565b7f566f74696e672073686f756c6420626520636c6f7365640000000000000000005f82015250565b5f61529b601783613f4a565b91506152a682615267565b602082019050919050565b5f6060820190506152c45f830185614105565b6152d16020830184614105565b81810360408301526152e28161528f565b90509392505050565b7f53686f756c6420626520657175616c20746f20330000000000000000000000005f82015250565b5f61531f601483613f4a565b915061532a826152eb565b602082019050919050565b5f6060820190506153485f830185614226565b6153556020830184614e6b565b818103604083015261536681615313565b90509392505050565b7f53686f756c6420626520657175616c20746f20340000000000000000000000005f82015250565b5f6153a3601483613f4a565b91506153ae8261536f565b602082019050919050565b5f6060820190506153cc5f830185614226565b6153d96020830184614ebd565b81810360408301526153ea81615397565b90509392505050565b5f81546153ff8161441e565b6154098186613f4a565b9450600182165f811461542357600181146154395761546b565b60ff19831686528115156020028601935061546b565b61544285614862565b5f5b8381101561546357815481890152600182019150602081019050615444565b808801955050505b50505092915050565b7f556e6920436166650000000000000000000000000000000000000000000000005f82015250565b5f6154a8600883613f4a565b91506154b382615474565b602082019050919050565b7f53656c65637465642072657374617572616e742073686f756c6420626520556e5f8201527f6920436166650000000000000000000000000000000000000000000000000000602082015250565b5f615518602683613f4a565b9150615523826154be565b604082019050919050565b5f6060820190508181035f83015261554681846153f3565b905081810360208301526155598161549c565b9050818103604083015261556c8161550c565b905092915050565b61557d81614da6565b82525050565b5f6020820190506155965f830184615574565b92915050565b5f6155a8601583613f4a565b91506155b38261444e565b602082019050919050565b5f6060820190508181035f8301526155d68184613f5a565b905081810360208301526155e98161559c565b905081810360408301526155fc8161402a565b905092915050565b7f4661696c656420756e65787065637465646c79000000000000000000000000005f82015250565b5f615638601383613f4a565b915061564382615604565b602082019050919050565b5f6040820190506156615f830184614105565b81810360208301526156728161562c565b905092915050565b7f43616e20766f7465206f6e6c79207768656e20746865726520617265206174205f8201527f6c6561737420322072657374617572616e747300000000000000000000000000602082015250565b5f6156d4603383613ae3565b91506156df8261567a565b604082019050919050565b5f6020820190508181035f830152615701816156c8565b9050919050565b7f43616e20766f7465206f6e6c79207768656e20746865726520617265206174205f8201527f6c65617374203220667269656e64730000000000000000000000000000000000602082015250565b5f615762602f83613ae3565b915061576d82615708565b604082019050919050565b5f6020820190508181035f83015261578f81615756565b9050919050565b7f54696d656f7574207265616368656420616e6420766f74696e6720697320636c5f8201527f6f73656400000000000000000000000000000000000000000000000000000000602082015250565b5f6157f0602483613ae3565b91506157fb82615796565b604082019050919050565b5f6020820190508181035f83015261581d816157e4565b9050919050565b5f615830602283613f4a565b915061583b826142fb565b604082019050919050565b5f6060820190508181035f83015261585e8184613f5a565b9050818103602083015261587181615824565b905081810360408301526158848161402a565b905092915050565b5f60608201905061589f5f830185614105565b6158ac6020830184614105565b81810360408301526158bd81615187565b90509392505050565b7f4e487b71000000000000000000000000000000000000000000000000000000005f52603260045260245ffd5b5f815490506159018161441e565b9050919050565b5f819050815f5260205f209050919050565b8181036159285750506159fd565b615931826158f3565b67ffffffffffffffff81111561594a57615949613b7f565b5b615954825461441e565b61595f82828561496d565b5f601f83116001811461598c575f841561597a578287015490505b61598485826149db565b8655506159f6565b601f19841661599a87615908565b96506159a586614862565b5f5b828110156159cc578489015482556001820191506001850194506020810190506159a7565b868310156159e957848901546159e5601f8916826149bf565b8355505b6001600288020188555050505b5050505050505b56fea2646970667358221220132d37e8ef8200ee30e2132e13f92e814d3a1b375f978aba5e49e1cb63411c9d64736f6c634300081a0033",
			"opcodes": "PUSH1 0x80 PUSH1 0x40 MSTORE PUSH0 PUSH1 0x2 SSTORE PUSH0 PUSH1 0x3 SSTORE PUSH0 PUSH1 0x4 SSTORE PUSH1 0x40 MLOAD DUP1 PUSH1 0x20 ADD PUSH1 0x40 MSTORE DUP1 PUSH0 DUP2 MSTORE POP PUSH1 0x6 SWAP1 DUP2 PUSH2 0x2D SWAP2 SWAP1 PUSH2 0x30D JUMP JUMPDEST POP PUSH0 PUSH1 0x9 PUSH0 PUSH2 0x100 EXP DUP2 SLOAD DUP2 PUSH1 0xFF MUL NOT AND SWAP1 DUP4 ISZERO ISZERO MUL OR SWAP1 SSTORE POP PUSH1 0x1 PUSH1 0xC PUSH0 PUSH2 0x100 EXP DUP2 SLOAD DUP2 PUSH1 0xFF MUL NOT AND SWAP1 DUP4 ISZERO ISZERO MUL OR SWAP1 SSTORE POP CALLVALUE DUP1 ISZERO PUSH2 0x6C JUMPI PUSH0 DUP1 REVERT JUMPDEST POP PUSH1 0x64 CALLER PUSH1 0x5 PUSH0 PUSH2 0x100 EXP DUP2 SLOAD DUP2 PUSH20 0xFFFFFFFFFFFFFFFFFFFFFFFFFFFFFFFFFFFFFFFF MUL NOT AND SWAP1 DUP4 PUSH20 0xFFFFFFFFFFFFFFFFFFFFFFFFFFFFFFFFFFFFFFFF AND MUL OR SWAP1 SSTORE POP PUSH0 DUP2 SUB PUSH2 0xBB JUMPI PUSH1 0x64 SWAP1 POP JUMPDEST DUP1 NUMBER PUSH2 0xC7 SWAP2 SWAP1 PUSH2 0x409 JUMP JUMPDEST PUSH1 0xB DUP2 SWAP1 SSTORE POP POP PUSH2 0x43C JUMP JUMPDEST PUSH0 DUP2 MLOAD SWAP1 POP SWAP2 SWAP1 POP JUMP JUMPDEST PUSH32 0x4E487B7100000000000000000000000000000000000000000000000000000000 PUSH0 MSTORE PUSH1 0x41 PUSH1 0x4 MSTORE PUSH1 0x24 PUSH0 REVERT JUMPDEST PUSH32 0x4E487B7100000000000000000000000000000000000000000000000000000000 PUSH0 MSTORE PUSH1 0x22 PUSH1 0x4 MSTORE PUSH1 0x24 PUSH0 REVERT JUMPDEST PUSH0 PUSH1 0x2 DUP3 DIV SWAP1 POP PUSH1 0x1 DUP3 AND DUP1 PUSH2 0x14E JUMPI PUSH1 0x7F DUP3 AND SWAP2 POP JUMPDEST PUSH1 0x20 DUP3 LT DUP2 SUB PUSH2 0x161 JUMPI PUSH2 0x160 PUSH2 0x10A JUMP JUMPDEST JUMPDEST POP SWAP2 SWAP1 POP JUMP JUMPDEST PUSH0 DUP2 SWAP1 POP DUP2 PUSH0 MSTORE PUSH1 0x20 PUSH0 KECCAK256 SWAP1 POP SWAP2 SWAP1 POP JUMP JUMPDEST PUSH0 PUSH1 0x20 PUSH1 0x1F DUP4 ADD DIV SWAP1 POP SWAP2 SWAP1 POP JUMP JUMPDEST PUSH0 DUP3 DUP3 SHL SWAP1 POP SWAP3 SWAP2 POP POP JUMP JUMPDEST PUSH0 PUSH1 0x8 DUP4 MUL PUSH2 0x1C3 PUSH32 0xFFFFFFFFFFFFFFFFFFFFFFFFFFFFFFFFFFFFFFFFFFFFFFFFFFFFFFFFFFFFFFFF DUP3 PUSH2 0x188 JUMP JUMPDEST PUSH2 0x1CD DUP7 DUP4 PUSH2 0x188 JUMP JUMPDEST SWAP6 POP DUP1 NOT DUP5 AND SWAP4 POP DUP1 DUP7 AND DUP5 OR SWAP3 POP POP POP SWAP4 SWAP3 POP POP POP JUMP JUMPDEST PUSH0 DUP2 SWAP1 POP SWAP2 SWAP1 POP JUMP JUMPDEST PUSH0 DUP2 SWAP1 POP SWAP2 SWAP1 POP JUMP JUMPDEST PUSH0 PUSH2 0x211 PUSH2 0x20C PUSH2 0x207 DUP5 PUSH2 0x1E5 JUMP JUMPDEST PUSH2 0x1EE JUMP JUMPDEST PUSH2 0x1E5 JUMP JUMPDEST SWAP1 POP SWAP2 SWAP1 POP JUMP JUMPDEST PUSH0 DUP2 SWAP1 POP SWAP2 SWAP1 POP JUMP JUMPDEST PUSH2 0x22A DUP4 PUSH2 0x1F7 JUMP JUMPDEST PUSH2 0x23E PUSH2 0x236 DUP3 PUSH2 0x218 JUMP JUMPDEST DUP5 DUP5 SLOAD PUSH2 0x194 JUMP JUMPDEST DUP3 SSTORE POP POP POP POP JUMP JUMPDEST PUSH0 SWAP1 JUMP JUMPDEST PUSH2 0x252 PUSH2 0x246 JUMP JUMPDEST PUSH2 0x25D DUP2 DUP5 DUP5 PUSH2 0x221 JUMP JUMPDEST POP POP POP JUMP JUMPDEST JUMPDEST DUP2 DUP2 LT ISZERO PUSH2 0x280 JUMPI PUSH2 0x275 PUSH0 DUP3 PUSH2 0x24A JUMP JUMPDEST PUSH1 0x1 DUP2 ADD SWAP1 POP PUSH2 0x263 JUMP JUMPDEST POP POP JUMP JUMPDEST PUSH1 0x1F DUP3 GT ISZERO PUSH2 0x2C5 JUMPI PUSH2 0x296 DUP2 PUSH2 0x167 JUMP JUMPDEST PUSH2 0x29F DUP5 PUSH2 0x179 JUMP JUMPDEST DUP2 ADD PUSH1 0x20 DUP6 LT ISZERO PUSH2 0x2AE JUMPI DUP2 SWAP1 POP JUMPDEST PUSH2 0x2C2 PUSH2 0x2BA DUP6 PUSH2 0x179 JUMP JUMPDEST DUP4 ADD DUP3 PUSH2 0x262 JUMP JUMPDEST POP POP JUMPDEST POP POP POP JUMP JUMPDEST PUSH0 DUP3 DUP3 SHR SWAP1 POP SWAP3 SWAP2 POP POP JUMP JUMPDEST PUSH0 PUSH2 0x2E5 PUSH0 NOT DUP5 PUSH1 0x8 MUL PUSH2 0x2CA JUMP JUMPDEST NOT DUP1 DUP4 AND SWAP2 POP POP SWAP3 SWAP2 POP POP JUMP JUMPDEST PUSH0 PUSH2 0x2FD DUP4 DUP4 PUSH2 0x2D6 JUMP JUMPDEST SWAP2 POP DUP3 PUSH1 0x2 MUL DUP3 OR SWAP1 POP SWAP3 SWAP2 POP POP JUMP JUMPDEST PUSH2 0x316 DUP3 PUSH2 0xD3 JUMP JUMPDEST PUSH8 0xFFFFFFFFFFFFFFFF DUP2 GT ISZERO PUSH2 0x32F JUMPI PUSH2 0x32E PUSH2 0xDD JUMP JUMPDEST JUMPDEST PUSH2 0x339 DUP3 SLOAD PUSH2 0x137 JUMP JUMPDEST PUSH2 0x344 DUP3 DUP3 DUP6 PUSH2 0x284 JUMP JUMPDEST PUSH0 PUSH1 0x20 SWAP1 POP PUSH1 0x1F DUP4 GT PUSH1 0x1 DUP2 EQ PUSH2 0x375 JUMPI PUSH0 DUP5 ISZERO PUSH2 0x363 JUMPI DUP3 DUP8 ADD MLOAD SWAP1 POP JUMPDEST PUSH2 0x36D DUP6 DUP3 PUSH2 0x2F2 JUMP JUMPDEST DUP7 SSTORE POP PUSH2 0x3D4 JUMP JUMPDEST PUSH1 0x1F NOT DUP5 AND PUSH2 0x383 DUP7 PUSH2 0x167 JUMP JUMPDEST PUSH0 JUMPDEST DUP3 DUP2 LT ISZERO PUSH2 0x3AA JUMPI DUP5 DUP10 ADD MLOAD DUP3 SSTORE PUSH1 0x1 DUP3 ADD SWAP2 POP PUSH1 0x20 DUP6 ADD SWAP5 POP PUSH1 0x20 DUP2 ADD SWAP1 POP PUSH2 0x385 JUMP JUMPDEST DUP7 DUP4 LT ISZERO PUSH2 0x3C7 JUMPI DUP5 DUP10 ADD MLOAD PUSH2 0x3C3 PUSH1 0x1F DUP10 AND DUP3 PUSH2 0x2D6 JUMP JUMPDEST DUP4 SSTORE POP JUMPDEST PUSH1 0x1 PUSH1 0x2 DUP9 MUL ADD DUP9 SSTORE POP POP POP JUMPDEST POP POP POP POP POP POP JUMP JUMPDEST PUSH32 0x4E487B7100000000000000000000000000000000000000000000000000000000 PUSH0 MSTORE PUSH1 0x11 PUSH1 0x4 MSTORE PUSH1 0x24 PUSH0 REVERT JUMPDEST PUSH0 PUSH2 0x413 DUP3 PUSH2 0x1E5 JUMP JUMPDEST SWAP2 POP PUSH2 0x41E DUP4 PUSH2 0x1E5 JUMP JUMPDEST SWAP3 POP DUP3 DUP3 ADD SWAP1 POP DUP1 DUP3 GT ISZERO PUSH2 0x436 JUMPI PUSH2 0x435 PUSH2 0x3DC JUMP JUMPDEST JUMPDEST SWAP3 SWAP2 POP POP JUMP JUMPDEST PUSH2 0x5A35 DUP1 PUSH2 0x449 PUSH0 CODECOPY PUSH0 RETURN INVALID PUSH1 0x80 PUSH1 0x40 MSTORE CALLVALUE DUP1 ISZERO PUSH2 0xF JUMPI PUSH0 DUP1 REVERT JUMPDEST POP PUSH1 0x4 CALLDATASIZE LT PUSH2 0x230 JUMPI PUSH0 CALLDATALOAD PUSH1 0xE0 SHR DUP1 PUSH4 0x84845589 GT PUSH2 0x12E JUMPI DUP1 PUSH4 0xAD5461D8 GT PUSH2 0xB6 JUMPI DUP1 PUSH4 0xC1C16EFC GT PUSH2 0x7A JUMPI DUP1 PUSH4 0xC1C16EFC EQ PUSH2 0x52A JUMPI DUP1 PUSH4 0xCA1A555C EQ PUSH2 0x548 JUMPI DUP1 PUSH4 0xEB4439FB EQ PUSH2 0x552 JUMPI DUP1 PUSH4 0xF6D416BC EQ PUSH2 0x55C JUMPI DUP1 PUSH4 0xFC8D013B EQ PUSH2 0x566 JUMPI PUSH2 0x230 JUMP JUMPDEST DUP1 PUSH4 0xAD5461D8 EQ PUSH2 0x4BE JUMPI DUP1 PUSH4 0xB2897E2E EQ PUSH2 0x4EE JUMPI DUP1 PUSH4 0xB798867F EQ PUSH2 0x4F8 JUMPI DUP1 PUSH4 0xB8341DFD EQ PUSH2 0x516 JUMPI DUP1 PUSH4 0xBABEB68B EQ PUSH2 0x520 JUMPI PUSH2 0x230 JUMP JUMPDEST DUP1 PUSH4 0x94746C81 GT PUSH2 0xFD JUMPI DUP1 PUSH4 0x94746C81 EQ PUSH2 0x478 JUMPI DUP1 PUSH4 0x954FFE97 EQ PUSH2 0x482 JUMPI DUP1 PUSH4 0x96400BFF EQ PUSH2 0x48C JUMPI DUP1 PUSH4 0xA3BEF4D7 EQ PUSH2 0x496 JUMPI DUP1 PUSH4 0xA73FB659 EQ PUSH2 0x4B4 JUMPI PUSH2 0x230 JUMP JUMPDEST DUP1 PUSH4 0x84845589 EQ PUSH2 0x450 JUMPI DUP1 PUSH4 0x85629B66 EQ PUSH2 0x45A JUMPI DUP1 PUSH4 0x894BA833 EQ PUSH2 0x464 JUMPI DUP1 PUSH4 0x91420699 EQ PUSH2 0x46E JUMPI PUSH2 0x230 JUMP JUMPDEST DUP1 PUSH4 0x5952CCB8 GT PUSH2 0x1BC JUMPI DUP1 PUSH4 0x6D77BD3E GT PUSH2 0x180 JUMPI DUP1 PUSH4 0x6D77BD3E EQ PUSH2 0x3E4 JUMPI DUP1 PUSH4 0x6E17462F EQ PUSH2 0x414 JUMPI DUP1 PUSH4 0x76DA7648 EQ PUSH2 0x41E JUMPI DUP1 PUSH4 0x788D3851 EQ PUSH2 0x428 JUMPI DUP1 PUSH4 0x7FEA0D4B EQ PUSH2 0x446 JUMPI PUSH2 0x230 JUMP JUMPDEST DUP1 PUSH4 0x5952CCB8 EQ PUSH2 0x33D JUMPI DUP1 PUSH4 0x5DF81330 EQ PUSH2 0x35B JUMPI DUP1 PUSH4 0x65985A95 EQ PUSH2 0x38C JUMPI DUP1 PUSH4 0x66063DF4 EQ PUSH2 0x396 JUMPI DUP1 PUSH4 0x67E404CE EQ PUSH2 0x3C6 JUMPI PUSH2 0x230 JUMP JUMPDEST DUP1 PUSH4 0x22F3E2D4 GT PUSH2 0x203 JUMPI DUP1 PUSH4 0x22F3E2D4 EQ PUSH2 0x2A9 JUMPI DUP1 PUSH4 0x3B9F708D EQ PUSH2 0x2C7 JUMPI DUP1 PUSH4 0x47098F36 EQ PUSH2 0x2F7 JUMPI DUP1 PUSH4 0x481C6A75 EQ PUSH2 0x315 JUMPI DUP1 PUSH4 0x4A6A149B EQ PUSH2 0x333 JUMPI PUSH2 0x230 JUMP JUMPDEST DUP1 PUSH4 0x103439CD EQ PUSH2 0x234 JUMPI DUP1 PUSH4 0x124258C6 EQ PUSH2 0x23E JUMPI DUP1 PUSH4 0x1692CC92 EQ PUSH2 0x26E JUMPI DUP1 PUSH4 0x1DDABF7A EQ PUSH2 0x278 JUMPI JUMPDEST PUSH0 DUP1 REVERT JUMPDEST PUSH2 0x23C PUSH2 0x570 JUMP JUMPDEST STOP JUMPDEST PUSH2 0x258 PUSH1 0x4 DUP1 CALLDATASIZE SUB DUP2 ADD SWAP1 PUSH2 0x253 SWAP2 SWAP1 PUSH2 0x39F6 JUMP JUMPDEST PUSH2 0x873 JUMP JUMPDEST PUSH1 0x40 MLOAD PUSH2 0x265 SWAP2 SWAP1 PUSH2 0x3A3B JUMP JUMPDEST PUSH1 0x40 MLOAD DUP1 SWAP2 SUB SWAP1 RETURN JUMPDEST PUSH2 0x276 PUSH2 0xC11 JUMP JUMPDEST STOP JUMPDEST PUSH2 0x292 PUSH1 0x4 DUP1 CALLDATASIZE SUB DUP2 ADD SWAP1 PUSH2 0x28D SWAP2 SWAP1 PUSH2 0x3AAE JUMP JUMPDEST PUSH2 0xEE1 JUMP JUMPDEST PUSH1 0x40 MLOAD PUSH2 0x2A0 SWAP3 SWAP2 SWAP1 PUSH2 0x3B49 JUMP JUMPDEST PUSH1 0x40 MLOAD DUP1 SWAP2 SUB SWAP1 RETURN JUMPDEST PUSH2 0x2B1 PUSH2 0xF93 JUMP JUMPDEST PUSH1 0x40 MLOAD PUSH2 0x2BE SWAP2 SWAP1 PUSH2 0x3A3B JUMP JUMPDEST PUSH1 0x40 MLOAD DUP1 SWAP2 SUB SWAP1 RETURN JUMPDEST PUSH2 0x2E1 PUSH1 0x4 DUP1 CALLDATASIZE SUB DUP2 ADD SWAP1 PUSH2 0x2DC SWAP2 SWAP1 PUSH2 0x3CA3 JUMP JUMPDEST PUSH2 0xFA5 JUMP JUMPDEST PUSH1 0x40 MLOAD PUSH2 0x2EE SWAP2 SWAP1 PUSH2 0x3D0C JUMP JUMPDEST PUSH1 0x40 MLOAD DUP1 SWAP2 SUB SWAP1 RETURN JUMPDEST PUSH2 0x2FF PUSH2 0x1266 JUMP JUMPDEST PUSH1 0x40 MLOAD PUSH2 0x30C SWAP2 SWAP1 PUSH2 0x3D0C JUMP JUMPDEST PUSH1 0x40 MLOAD DUP1 SWAP2 SUB SWAP1 RETURN JUMPDEST PUSH2 0x31D PUSH2 0x126C JUMP JUMPDEST PUSH1 0x40 MLOAD PUSH2 0x32A SWAP2 SWAP1 PUSH2 0x3D34 JUMP JUMPDEST PUSH1 0x40 MLOAD DUP1 SWAP2 SUB SWAP1 RETURN JUMPDEST PUSH2 0x33B PUSH2 0x1291 JUMP JUMPDEST STOP JUMPDEST PUSH2 0x345 PUSH2 0x1316 JUMP JUMPDEST PUSH1 0x40 MLOAD PUSH2 0x352 SWAP2 SWAP1 PUSH2 0x3D0C JUMP JUMPDEST PUSH1 0x40 MLOAD DUP1 SWAP2 SUB SWAP1 RETURN JUMPDEST PUSH2 0x375 PUSH1 0x4 DUP1 CALLDATASIZE SUB DUP2 ADD SWAP1 PUSH2 0x370 SWAP2 SWAP1 PUSH2 0x39F6 JUMP JUMPDEST PUSH2 0x131C JUMP JUMPDEST PUSH1 0x40 MLOAD PUSH2 0x383 SWAP3 SWAP2 SWAP1 PUSH2 0x3D4D JUMP JUMPDEST PUSH1 0x40 MLOAD DUP1 SWAP2 SUB SWAP1 RETURN JUMPDEST PUSH2 0x394 PUSH2 0x136A JUMP JUMPDEST STOP JUMPDEST PUSH2 0x3B0 PUSH1 0x4 DUP1 CALLDATASIZE SUB DUP2 ADD SWAP1 PUSH2 0x3AB SWAP2 SWAP1 PUSH2 0x39F6 JUMP JUMPDEST PUSH2 0x164D JUMP JUMPDEST PUSH1 0x40 MLOAD PUSH2 0x3BD SWAP2 SWAP1 PUSH2 0x3A3B JUMP JUMPDEST PUSH1 0x40 MLOAD DUP1 SWAP2 SUB SWAP1 RETURN JUMPDEST PUSH2 0x3CE PUSH2 0x1773 JUMP JUMPDEST PUSH1 0x40 MLOAD PUSH2 0x3DB SWAP2 SWAP1 PUSH2 0x3D34 JUMP JUMPDEST PUSH1 0x40 MLOAD DUP1 SWAP2 SUB SWAP1 RETURN JUMPDEST PUSH2 0x3FE PUSH1 0x4 DUP1 CALLDATASIZE SUB DUP2 ADD SWAP1 PUSH2 0x3F9 SWAP2 SWAP1 PUSH2 0x3D74 JUMP JUMPDEST PUSH2 0x1799 JUMP JUMPDEST PUSH1 0x40 MLOAD PUSH2 0x40B SWAP2 SWAP1 PUSH2 0x3D0C JUMP JUMPDEST PUSH1 0x40 MLOAD DUP1 SWAP2 SUB SWAP1 RETURN JUMPDEST PUSH2 0x41C PUSH2 0x19EA JUMP JUMPDEST STOP JUMPDEST PUSH2 0x426 PUSH2 0x1A6C JUMP JUMPDEST STOP JUMPDEST PUSH2 0x430 PUSH2 0x1B29 JUMP JUMPDEST PUSH1 0x40 MLOAD PUSH2 0x43D SWAP2 SWAP1 PUSH2 0x3A3B JUMP JUMPDEST PUSH1 0x40 MLOAD DUP1 SWAP2 SUB SWAP1 RETURN JUMPDEST PUSH2 0x44E PUSH2 0x1B3B JUMP JUMPDEST STOP JUMPDEST PUSH2 0x458 PUSH2 0x1ECA JUMP JUMPDEST STOP JUMPDEST PUSH2 0x462 PUSH2 0x1F4C JUMP JUMPDEST STOP JUMPDEST PUSH2 0x46C PUSH2 0x1FC9 JUMP JUMPDEST STOP JUMPDEST PUSH2 0x476 PUSH2 0x20C8 JUMP JUMPDEST STOP JUMPDEST PUSH2 0x480 PUSH2 0x21E1 JUMP JUMPDEST STOP JUMPDEST PUSH2 0x48A PUSH2 0x24C1 JUMP JUMPDEST STOP JUMPDEST PUSH2 0x494 PUSH2 0x2631 JUMP JUMPDEST STOP JUMPDEST PUSH2 0x49E PUSH2 0x26BA JUMP JUMPDEST PUSH1 0x40 MLOAD PUSH2 0x4AB SWAP2 SWAP1 PUSH2 0x3D0C JUMP JUMPDEST PUSH1 0x40 MLOAD DUP1 SWAP2 SUB SWAP1 RETURN JUMPDEST PUSH2 0x4BC PUSH2 0x26C0 JUMP JUMPDEST STOP JUMPDEST PUSH2 0x4D8 PUSH1 0x4 DUP1 CALLDATASIZE SUB DUP2 ADD SWAP1 PUSH2 0x4D3 SWAP2 SWAP1 PUSH2 0x39F6 JUMP JUMPDEST PUSH2 0x2A26 JUMP JUMPDEST PUSH1 0x40 MLOAD PUSH2 0x4E5 SWAP2 SWAP1 PUSH2 0x3DBB JUMP JUMPDEST PUSH1 0x40 MLOAD DUP1 SWAP2 SUB SWAP1 RETURN JUMPDEST PUSH2 0x4F6 PUSH2 0x2AC0 JUMP JUMPDEST STOP JUMPDEST PUSH2 0x500 PUSH2 0x2B3A JUMP JUMPDEST PUSH1 0x40 MLOAD PUSH2 0x50D SWAP2 SWAP1 PUSH2 0x3D0C JUMP JUMPDEST PUSH1 0x40 MLOAD DUP1 SWAP2 SUB SWAP1 RETURN JUMPDEST PUSH2 0x51E PUSH2 0x2B40 JUMP JUMPDEST STOP JUMPDEST PUSH2 0x528 PUSH2 0x2E23 JUMP JUMPDEST STOP JUMPDEST PUSH2 0x532 PUSH2 0x2EA5 JUMP JUMPDEST PUSH1 0x40 MLOAD PUSH2 0x53F SWAP2 SWAP1 PUSH2 0x3DBB JUMP JUMPDEST PUSH1 0x40 MLOAD DUP1 SWAP2 SUB SWAP1 RETURN JUMPDEST PUSH2 0x550 PUSH2 0x2F31 JUMP JUMPDEST STOP JUMPDEST PUSH2 0x55A PUSH2 0x3201 JUMP JUMPDEST STOP JUMPDEST PUSH2 0x564 PUSH2 0x33D0 JUMP JUMPDEST STOP JUMPDEST PUSH2 0x56E PUSH2 0x36B3 JUMP JUMPDEST STOP JUMPDEST ADDRESS PUSH20 0xFFFFFFFFFFFFFFFFFFFFFFFFFFFFFFFFFFFFFFFF AND PUSH4 0x3B9F708D PUSH1 0x11 PUSH0 SWAP1 SLOAD SWAP1 PUSH2 0x100 EXP SWAP1 DIV PUSH20 0xFFFFFFFFFFFFFFFFFFFFFFFFFFFFFFFFFFFFFFFF AND PUSH1 0x40 MLOAD DUP3 PUSH4 0xFFFFFFFF AND PUSH1 0xE0 SHL DUP2 MSTORE PUSH1 0x4 ADD PUSH2 0x5CA SWAP2 SWAP1 PUSH2 0x3E25 JUMP JUMPDEST PUSH1 0x20 PUSH1 0x40 MLOAD DUP1 DUP4 SUB DUP2 PUSH0 DUP8 GAS CALL SWAP3 POP POP POP DUP1 ISZERO PUSH2 0x605 JUMPI POP PUSH1 0x40 MLOAD RETURNDATASIZE PUSH1 0x1F NOT PUSH1 0x1F DUP3 ADD AND DUP3 ADD DUP1 PUSH1 0x40 MSTORE POP DUP2 ADD SWAP1 PUSH2 0x602 SWAP2 SWAP1 PUSH2 0x3E65 JUMP JUMPDEST PUSH1 0x1 JUMPDEST PUSH2 0x7F5 JUMPI PUSH2 0x611 PUSH2 0x3E9C JUMP JUMPDEST DUP1 PUSH4 0x8C379A0 SUB PUSH2 0x6AD JUMPI POP PUSH2 0x625 PUSH2 0x3EBB JUMP JUMPDEST DUP1 PUSH2 0x630 JUMPI POP PUSH2 0x747 JUMP JUMPDEST PUSH20 0x0 PUSH4 0xE8C2CB16 DUP3 PUSH1 0x40 MLOAD DUP3 PUSH4 0xFFFFFFFF AND PUSH1 0xE0 SHL DUP2 MSTORE PUSH1 0x4 ADD PUSH2 0x667 SWAP2 SWAP1 PUSH2 0x404C JUMP JUMPDEST PUSH1 0x20 PUSH1 0x40 MLOAD DUP1 DUP4 SUB DUP2 DUP7 GAS DELEGATECALL ISZERO DUP1 ISZERO PUSH2 0x682 JUMPI RETURNDATASIZE PUSH0 DUP1 RETURNDATACOPY RETURNDATASIZE PUSH0 REVERT JUMPDEST POP POP POP POP PUSH1 0x40 MLOAD RETURNDATASIZE PUSH1 0x1F NOT PUSH1 0x1F DUP3 ADD AND DUP3 ADD DUP1 PUSH1 0x40 MSTORE POP DUP2 ADD SWAP1 PUSH2 0x6A6 SWAP2 SWAP1 PUSH2 0x40BC JUMP JUMPDEST POP POP PUSH2 0x7F0 JUMP JUMPDEST PUSH4 0x4E487B71 SUB PUSH2 0x747 JUMPI PUSH2 0x6BF PUSH2 0x40E7 JUMP JUMPDEST SWAP1 PUSH2 0x6CA JUMPI POP PUSH2 0x747 JUMP JUMPDEST PUSH20 0x0 PUSH4 0x39DF137F PUSH0 PUSH1 0x40 MLOAD DUP3 PUSH4 0xFFFFFFFF AND PUSH1 0xE0 SHL DUP2 MSTORE PUSH1 0x4 ADD PUSH2 0x701 SWAP2 SWAP1 PUSH2 0x4184 JUMP JUMPDEST PUSH1 0x20 PUSH1 0x40 MLOAD DUP1 DUP4 SUB DUP2 DUP7 GAS DELEGATECALL ISZERO DUP1 ISZERO PUSH2 0x71C JUMPI RETURNDATASIZE PUSH0 DUP1 RETURNDATACOPY RETURNDATASIZE PUSH0 REVERT JUMPDEST POP POP POP POP PUSH1 0x40 MLOAD RETURNDATASIZE PUSH1 0x1F NOT PUSH1 0x1F DUP3 ADD AND DUP3 ADD DUP1 PUSH1 0x40 MSTORE POP DUP2 ADD SWAP1 PUSH2 0x740 SWAP2 SWAP1 PUSH2 0x40BC JUMP JUMPDEST POP POP PUSH2 0x7F0 JUMP JUMPDEST RETURNDATASIZE DUP1 PUSH0 DUP2 EQ PUSH2 0x771 JUMPI PUSH1 0x40 MLOAD SWAP2 POP PUSH1 0x1F NOT PUSH1 0x3F RETURNDATASIZE ADD AND DUP3 ADD PUSH1 0x40 MSTORE RETURNDATASIZE DUP3 MSTORE RETURNDATASIZE PUSH0 PUSH1 0x20 DUP5 ADD RETURNDATACOPY PUSH2 0x776 JUMP JUMPDEST PUSH1 0x60 SWAP2 POP JUMPDEST POP PUSH20 0x0 PUSH4 0x39DF137F PUSH0 PUSH1 0x40 MLOAD DUP3 PUSH4 0xFFFFFFFF AND PUSH1 0xE0 SHL DUP2 MSTORE PUSH1 0x4 ADD PUSH2 0x7AE SWAP2 SWAP1 PUSH2 0x41FA JUMP JUMPDEST PUSH1 0x20 PUSH1 0x40 MLOAD DUP1 DUP4 SUB DUP2 DUP7 GAS DELEGATECALL ISZERO DUP1 ISZERO PUSH2 0x7C9 JUMPI RETURNDATASIZE PUSH0 DUP1 RETURNDATACOPY RETURNDATASIZE PUSH0 REVERT JUMPDEST POP POP POP POP PUSH1 0x40 MLOAD RETURNDATASIZE PUSH1 0x1F NOT PUSH1 0x1F DUP3 ADD AND DUP3 ADD DUP1 PUSH1 0x40 MSTORE POP DUP2 ADD SWAP1 PUSH2 0x7ED SWAP2 SWAP1 PUSH2 0x40BC JUMP JUMPDEST POP POP JUMPDEST PUSH2 0x871 JUMP JUMPDEST PUSH20 0x0 PUSH4 0x561015E2 DUP3 PUSH1 0x5 PUSH1 0x40 MLOAD DUP4 PUSH4 0xFFFFFFFF AND PUSH1 0xE0 SHL DUP2 MSTORE PUSH1 0x4 ADD PUSH2 0x82F SWAP3 SWAP2 SWAP1 PUSH2 0x42C1 JUMP JUMPDEST PUSH1 0x20 PUSH1 0x40 MLOAD DUP1 DUP4 SUB DUP2 DUP7 GAS DELEGATECALL ISZERO DUP1 ISZERO PUSH2 0x84A JUMPI RETURNDATASIZE PUSH0 DUP1 RETURNDATACOPY RETURNDATASIZE PUSH0 REVERT JUMPDEST POP POP POP POP PUSH1 0x40 MLOAD RETURNDATASIZE PUSH1 0x1F NOT PUSH1 0x1F DUP3 ADD AND DUP3 ADD DUP1 PUSH1 0x40 MSTORE POP DUP2 ADD SWAP1 PUSH2 0x86E SWAP2 SWAP1 PUSH2 0x40BC JUMP JUMPDEST POP POP JUMPDEST JUMP JUMPDEST PUSH0 PUSH1 0x1 ISZERO ISZERO PUSH1 0x9 PUSH0 SWAP1 SLOAD SWAP1 PUSH2 0x100 EXP SWAP1 DIV PUSH1 0xFF AND ISZERO ISZERO EQ PUSH2 0x8C9 JUMPI PUSH1 0x40 MLOAD PUSH32 0x8C379A000000000000000000000000000000000000000000000000000000000 DUP2 MSTORE PUSH1 0x4 ADD PUSH2 0x8C0 SWAP1 PUSH2 0x436B JUMP JUMPDEST PUSH1 0x40 MLOAD DUP1 SWAP2 SUB SWAP1 REVERT JUMPDEST PUSH1 0x1 ISZERO ISZERO PUSH1 0xC PUSH0 SWAP1 SLOAD SWAP1 PUSH2 0x100 EXP SWAP1 DIV PUSH1 0xFF AND ISZERO ISZERO EQ PUSH2 0x91E JUMPI PUSH1 0x40 MLOAD PUSH32 0x8C379A000000000000000000000000000000000000000000000000000000000 DUP2 MSTORE PUSH1 0x4 ADD PUSH2 0x915 SWAP1 PUSH2 0x43D3 JUMP JUMPDEST PUSH1 0x40 MLOAD DUP1 SWAP2 SUB SWAP1 REVERT JUMPDEST PUSH0 SWAP1 POP PUSH1 0xB SLOAD NUMBER LT PUSH2 0x933 JUMPI PUSH2 0x932 PUSH2 0x37CC JUMP JUMPDEST JUMPDEST PUSH0 PUSH1 0x1 PUSH0 CALLER PUSH20 0xFFFFFFFFFFFFFFFFFFFFFFFFFFFFFFFFFFFFFFFF AND PUSH20 0xFFFFFFFFFFFFFFFFFFFFFFFFFFFFFFFFFFFFFFFF AND DUP2 MSTORE PUSH1 0x20 ADD SWAP1 DUP2 MSTORE PUSH1 0x20 ADD PUSH0 KECCAK256 PUSH0 ADD DUP1 SLOAD PUSH2 0x97E SWAP1 PUSH2 0x441E JUMP JUMPDEST SWAP1 POP SUB PUSH2 0x9C0 JUMPI PUSH1 0x40 MLOAD PUSH32 0x8C379A000000000000000000000000000000000000000000000000000000000 DUP2 MSTORE PUSH1 0x4 ADD PUSH2 0x9B7 SWAP1 PUSH2 0x4498 JUMP JUMPDEST PUSH1 0x40 MLOAD DUP1 SWAP2 SUB SWAP1 REVERT JUMPDEST PUSH0 DUP1 PUSH0 DUP5 DUP2 MSTORE PUSH1 0x20 ADD SWAP1 DUP2 MSTORE PUSH1 0x20 ADD PUSH0 KECCAK256 DUP1 SLOAD PUSH2 0x9DC SWAP1 PUSH2 0x441E JUMP JUMPDEST SWAP1 POP SUB PUSH2 0xA1E JUMPI PUSH1 0x40 MLOAD PUSH32 0x8C379A000000000000000000000000000000000000000000000000000000000 DUP2 MSTORE PUSH1 0x4 ADD PUSH2 0xA15 SWAP1 PUSH2 0x4500 JUMP JUMPDEST PUSH1 0x40 MLOAD DUP1 SWAP2 SUB SWAP1 REVERT JUMPDEST PUSH1 0x1 PUSH0 CALLER PUSH20 0xFFFFFFFFFFFFFFFFFFFFFFFFFFFFFFFFFFFFFFFF AND PUSH20 0xFFFFFFFFFFFFFFFFFFFFFFFFFFFFFFFFFFFFFFFF AND DUP2 MSTORE PUSH1 0x20 ADD SWAP1 DUP2 MSTORE PUSH1 0x20 ADD PUSH0 KECCAK256 PUSH1 0x1 ADD PUSH0 SWAP1 SLOAD SWAP1 PUSH2 0x100 EXP SWAP1 DIV PUSH1 0xFF AND ISZERO PUSH2 0xAAB JUMPI PUSH1 0x40 MLOAD PUSH32 0x8C379A000000000000000000000000000000000000000000000000000000000 DUP2 MSTORE PUSH1 0x4 ADD PUSH2 0xAA2 SWAP1 PUSH2 0x4568 JUMP JUMPDEST PUSH1 0x40 MLOAD DUP1 SWAP2 SUB SWAP1 REVERT JUMPDEST PUSH1 0x1 SWAP1 POP PUSH1 0x1 DUP1 PUSH0 CALLER PUSH20 0xFFFFFFFFFFFFFFFFFFFFFFFFFFFFFFFFFFFFFFFF AND PUSH20 0xFFFFFFFFFFFFFFFFFFFFFFFFFFFFFFFFFFFFFFFF AND DUP2 MSTORE PUSH1 0x20 ADD SWAP1 DUP2 MSTORE PUSH1 0x20 ADD PUSH0 KECCAK256 PUSH1 0x1 ADD PUSH0 PUSH2 0x100 EXP DUP2 SLOAD DUP2 PUSH1 0xFF MUL NOT AND SWAP1 DUP4 ISZERO ISZERO MUL OR SWAP1 SSTORE POP PUSH1 0x4 PUSH0 DUP2 SLOAD DUP1 SWAP3 SWAP2 SWAP1 PUSH2 0xB18 SWAP1 PUSH2 0x45B3 JUMP JUMPDEST SWAP2 SWAP1 POP SSTORE POP PUSH2 0xB25 PUSH2 0x3969 JUMP JUMPDEST CALLER DUP2 PUSH0 ADD SWAP1 PUSH20 0xFFFFFFFFFFFFFFFFFFFFFFFFFFFFFFFFFFFFFFFF AND SWAP1 DUP2 PUSH20 0xFFFFFFFFFFFFFFFFFFFFFFFFFFFFFFFFFFFFFFFF AND DUP2 MSTORE POP POP DUP3 DUP2 PUSH1 0x20 ADD DUP2 DUP2 MSTORE POP POP PUSH1 0x7 DUP2 SWAP1 DUP1 PUSH1 0x1 DUP2 SLOAD ADD DUP1 DUP3 SSTORE DUP1 SWAP2 POP POP PUSH1 0x1 SWAP1 SUB SWAP1 PUSH0 MSTORE PUSH1 0x20 PUSH0 KECCAK256 SWAP1 PUSH1 0x2 MUL ADD PUSH0 SWAP1 SWAP2 SWAP1 SWAP2 SWAP1 SWAP2 POP PUSH0 DUP3 ADD MLOAD DUP2 PUSH0 ADD PUSH0 PUSH2 0x100 EXP DUP2 SLOAD DUP2 PUSH20 0xFFFFFFFFFFFFFFFFFFFFFFFFFFFFFFFFFFFFFFFF MUL NOT AND SWAP1 DUP4 PUSH20 0xFFFFFFFFFFFFFFFFFFFFFFFFFFFFFFFFFFFFFFFF AND MUL OR SWAP1 SSTORE POP PUSH1 0x20 DUP3 ADD MLOAD DUP2 PUSH1 0x1 ADD SSTORE POP POP PUSH1 0x1 PUSH1 0x2 PUSH1 0x3 SLOAD PUSH2 0xBF0 SWAP2 SWAP1 PUSH2 0x4627 JUMP JUMPDEST PUSH2 0xBFA SWAP2 SWAP1 PUSH2 0x4657 JUMP JUMPDEST PUSH1 0x4 SLOAD LT PUSH2 0xC0B JUMPI PUSH2 0xC0A PUSH2 0x37CC JUMP JUMPDEST JUMPDEST POP SWAP2 SWAP1 POP JUMP JUMPDEST ADDRESS PUSH20 0xFFFFFFFFFFFFFFFFFFFFFFFFFFFFFFFFFFFFFFFF AND PUSH4 0x894BA833 PUSH1 0x40 MLOAD DUP2 PUSH4 0xFFFFFFFF AND PUSH1 0xE0 SHL DUP2 MSTORE PUSH1 0x4 ADD PUSH0 PUSH1 0x40 MLOAD DUP1 DUP4 SUB DUP2 PUSH0 DUP8 DUP1 EXTCODESIZE ISZERO DUP1 ISZERO PUSH2 0xC56 JUMPI PUSH0 DUP1 REVERT JUMPDEST POP GAS CALL SWAP3 POP POP POP DUP1 ISZERO PUSH2 0xC67 JUMPI POP PUSH1 0x1 JUMPDEST PUSH2 0xE57 JUMPI PUSH2 0xC73 PUSH2 0x3E9C JUMP JUMPDEST DUP1 PUSH4 0x8C379A0 SUB PUSH2 0xD0F JUMPI POP PUSH2 0xC87 PUSH2 0x3EBB JUMP JUMPDEST DUP1 PUSH2 0xC92 JUMPI POP PUSH2 0xDA9 JUMP JUMPDEST PUSH20 0x0 PUSH4 0xE8C2CB16 DUP3 PUSH1 0x40 MLOAD DUP3 PUSH4 0xFFFFFFFF AND PUSH1 0xE0 SHL DUP2 MSTORE PUSH1 0x4 ADD PUSH2 0xCC9 SWAP2 SWAP1 PUSH2 0x404C JUMP JUMPDEST PUSH1 0x20 PUSH1 0x40 MLOAD DUP1 DUP4 SUB DUP2 DUP7 GAS DELEGATECALL ISZERO DUP1 ISZERO PUSH2 0xCE4 JUMPI RETURNDATASIZE PUSH0 DUP1 RETURNDATACOPY RETURNDATASIZE PUSH0 REVERT JUMPDEST POP POP POP POP PUSH1 0x40 MLOAD RETURNDATASIZE PUSH1 0x1F NOT PUSH1 0x1F DUP3 ADD AND DUP3 ADD DUP1 PUSH1 0x40 MSTORE POP DUP2 ADD SWAP1 PUSH2 0xD08 SWAP2 SWAP1 PUSH2 0x40BC JUMP JUMPDEST POP POP PUSH2 0xE52 JUMP JUMPDEST PUSH4 0x4E487B71 SUB PUSH2 0xDA9 JUMPI PUSH2 0xD21 PUSH2 0x40E7 JUMP JUMPDEST SWAP1 PUSH2 0xD2C JUMPI POP PUSH2 0xDA9 JUMP JUMPDEST PUSH20 0x0 PUSH4 0x39DF137F PUSH0 PUSH1 0x40 MLOAD DUP3 PUSH4 0xFFFFFFFF AND PUSH1 0xE0 SHL DUP2 MSTORE PUSH1 0x4 ADD PUSH2 0xD63 SWAP2 SWAP1 PUSH2 0x4184 JUMP JUMPDEST PUSH1 0x20 PUSH1 0x40 MLOAD DUP1 DUP4 SUB DUP2 DUP7 GAS DELEGATECALL ISZERO DUP1 ISZERO PUSH2 0xD7E JUMPI RETURNDATASIZE PUSH0 DUP1 RETURNDATACOPY RETURNDATASIZE PUSH0 REVERT JUMPDEST POP POP POP POP PUSH1 0x40 MLOAD RETURNDATASIZE PUSH1 0x1F NOT PUSH1 0x1F DUP3 ADD AND DUP3 ADD DUP1 PUSH1 0x40 MSTORE POP DUP2 ADD SWAP1 PUSH2 0xDA2 SWAP2 SWAP1 PUSH2 0x40BC JUMP JUMPDEST POP POP PUSH2 0xE52 JUMP JUMPDEST RETURNDATASIZE DUP1 PUSH0 DUP2 EQ PUSH2 0xDD3 JUMPI PUSH1 0x40 MLOAD SWAP2 POP PUSH1 0x1F NOT PUSH1 0x3F RETURNDATASIZE ADD AND DUP3 ADD PUSH1 0x40 MSTORE RETURNDATASIZE DUP3 MSTORE RETURNDATASIZE PUSH0 PUSH1 0x20 DUP5 ADD RETURNDATACOPY PUSH2 0xDD8 JUMP JUMPDEST PUSH1 0x60 SWAP2 POP JUMPDEST POP PUSH20 0x0 PUSH4 0x39DF137F PUSH0 PUSH1 0x40 MLOAD DUP3 PUSH4 0xFFFFFFFF AND PUSH1 0xE0 SHL DUP2 MSTORE PUSH1 0x4 ADD PUSH2 0xE10 SWAP2 SWAP1 PUSH2 0x41FA JUMP JUMPDEST PUSH1 0x20 PUSH1 0x40 MLOAD DUP1 DUP4 SUB DUP2 DUP7 GAS DELEGATECALL ISZERO DUP1 ISZERO PUSH2 0xE2B JUMPI RETURNDATASIZE PUSH0 DUP1 RETURNDATACOPY RETURNDATASIZE PUSH0 REVERT JUMPDEST POP POP POP POP PUSH1 0x40 MLOAD RETURNDATASIZE PUSH1 0x1F NOT PUSH1 0x1F DUP3 ADD AND DUP3 ADD DUP1 PUSH1 0x40 MSTORE POP DUP2 ADD SWAP1 PUSH2 0xE4F SWAP2 SWAP1 PUSH2 0x40BC JUMP JUMPDEST POP POP JUMPDEST PUSH2 0xEDF JUMP JUMPDEST PUSH20 0x0 PUSH4 0x44781A00 PUSH1 0xC PUSH0 SWAP1 SLOAD SWAP1 PUSH2 0x100 EXP SWAP1 DIV PUSH1 0xFF AND PUSH0 PUSH1 0x40 MLOAD DUP4 PUSH4 0xFFFFFFFF AND PUSH1 0xE0 SHL DUP2 MSTORE PUSH1 0x4 ADD PUSH2 0xE9E SWAP3 SWAP2 SWAP1 PUSH2 0x468A JUMP JUMPDEST PUSH1 0x20 PUSH1 0x40 MLOAD DUP1 DUP4 SUB DUP2 DUP7 GAS DELEGATECALL ISZERO DUP1 ISZERO PUSH2 0xEB9 JUMPI RETURNDATASIZE PUSH0 DUP1 RETURNDATACOPY RETURNDATASIZE PUSH0 REVERT JUMPDEST POP POP POP POP PUSH1 0x40 MLOAD RETURNDATASIZE PUSH1 0x1F NOT PUSH1 0x1F DUP3 ADD AND DUP3 ADD DUP1 PUSH1 0x40 MSTORE POP DUP2 ADD SWAP1 PUSH2 0xEDD SWAP2 SWAP1 PUSH2 0x40BC JUMP JUMPDEST POP JUMPDEST JUMP JUMPDEST PUSH1 0x1 PUSH1 0x20 MSTORE DUP1 PUSH0 MSTORE PUSH1 0x40 PUSH0 KECCAK256 PUSH0 SWAP2 POP SWAP1 POP DUP1 PUSH0 ADD DUP1 SLOAD PUSH2 0xF00 SWAP1 PUSH2 0x441E JUMP JUMPDEST DUP1 PUSH1 0x1F ADD PUSH1 0x20 DUP1 SWAP2 DIV MUL PUSH1 0x20 ADD PUSH1 0x40 MLOAD SWAP1 DUP2 ADD PUSH1 0x40 MSTORE DUP1 SWAP3 SWAP2 SWAP1 DUP2 DUP2 MSTORE PUSH1 0x20 ADD DUP3 DUP1 SLOAD PUSH2 0xF2C SWAP1 PUSH2 0x441E JUMP JUMPDEST DUP1 ISZERO PUSH2 0xF77 JUMPI DUP1 PUSH1 0x1F LT PUSH2 0xF4E JUMPI PUSH2 0x100 DUP1 DUP4 SLOAD DIV MUL DUP4 MSTORE SWAP2 PUSH1 0x20 ADD SWAP2 PUSH2 0xF77 JUMP JUMPDEST DUP3 ADD SWAP2 SWAP1 PUSH0 MSTORE PUSH1 0x20 PUSH0 KECCAK256 SWAP1 JUMPDEST DUP2 SLOAD DUP2 MSTORE SWAP1 PUSH1 0x1 ADD SWAP1 PUSH1 0x20 ADD DUP1 DUP4 GT PUSH2 0xF5A JUMPI DUP3 SWAP1 SUB PUSH1 0x1F AND DUP3 ADD SWAP2 JUMPDEST POP POP POP POP POP SWAP1 DUP1 PUSH1 0x1 ADD PUSH0 SWAP1 SLOAD SWAP1 PUSH2 0x100 EXP SWAP1 DIV PUSH1 0xFF AND SWAP1 POP DUP3 JUMP JUMPDEST PUSH1 0xC PUSH0 SWAP1 SLOAD SWAP1 PUSH2 0x100 EXP SWAP1 DIV PUSH1 0xFF AND DUP2 JUMP JUMPDEST PUSH0 PUSH1 0x5 PUSH0 SWAP1 SLOAD SWAP1 PUSH2 0x100 EXP SWAP1 DIV PUSH20 0xFFFFFFFFFFFFFFFFFFFFFFFFFFFFFFFFFFFFFFFF AND PUSH20 0xFFFFFFFFFFFFFFFFFFFFFFFFFFFFFFFFFFFFFFFF AND CALLER PUSH20 0xFFFFFFFFFFFFFFFFFFFFFFFFFFFFFFFFFFFFFFFF AND EQ PUSH2 0x1035 JUMPI PUSH1 0x40 MLOAD PUSH32 0x8C379A000000000000000000000000000000000000000000000000000000000 DUP2 MSTORE PUSH1 0x4 ADD PUSH2 0x102C SWAP1 PUSH2 0x46E6 JUMP JUMPDEST PUSH1 0x40 MLOAD DUP1 SWAP2 SUB SWAP1 REVERT JUMPDEST PUSH0 ISZERO ISZERO PUSH1 0x9 PUSH0 SWAP1 SLOAD SWAP1 PUSH2 0x100 EXP SWAP1 DIV PUSH1 0xFF AND ISZERO ISZERO EQ PUSH2 0x1089 JUMPI PUSH1 0x40 MLOAD PUSH32 0x8C379A000000000000000000000000000000000000000000000000000000000 DUP2 MSTORE PUSH1 0x4 ADD PUSH2 0x1080 SWAP1 PUSH2 0x4774 JUMP JUMPDEST PUSH1 0x40 MLOAD DUP1 SWAP2 SUB SWAP1 REVERT JUMPDEST PUSH1 0xB SLOAD NUMBER LT PUSH2 0x10CD JUMPI PUSH1 0x40 MLOAD PUSH32 0x8C379A000000000000000000000000000000000000000000000000000000000 DUP2 MSTORE PUSH1 0x4 ADD PUSH2 0x10C4 SWAP1 PUSH2 0x47DC JUMP JUMPDEST PUSH1 0x40 MLOAD DUP1 SWAP2 SUB SWAP1 REVERT JUMPDEST PUSH1 0x1 ISZERO ISZERO PUSH1 0xC PUSH0 SWAP1 SLOAD SWAP1 PUSH2 0x100 EXP SWAP1 DIV PUSH1 0xFF AND ISZERO ISZERO EQ PUSH2 0x1122 JUMPI PUSH1 0x40 MLOAD PUSH32 0x8C379A000000000000000000000000000000000000000000000000000000000 DUP2 MSTORE PUSH1 0x4 ADD PUSH2 0x1119 SWAP1 PUSH2 0x43D3 JUMP JUMPDEST PUSH1 0x40 MLOAD DUP1 SWAP2 SUB SWAP1 REVERT JUMPDEST PUSH0 PUSH1 0x1 PUSH0 DUP6 PUSH20 0xFFFFFFFFFFFFFFFFFFFFFFFFFFFFFFFFFFFFFFFF AND PUSH20 0xFFFFFFFFFFFFFFFFFFFFFFFFFFFFFFFFFFFFFFFF AND DUP2 MSTORE PUSH1 0x20 ADD SWAP1 DUP2 MSTORE PUSH1 0x20 ADD PUSH0 KECCAK256 PUSH0 ADD DUP1 SLOAD PUSH2 0x116D SWAP1 PUSH2 0x441E JUMP JUMPDEST SWAP1 POP EQ PUSH2 0x11AF JUMPI PUSH1 0x40 MLOAD PUSH32 0x8C379A000000000000000000000000000000000000000000000000000000000 DUP2 MSTORE PUSH1 0x4 ADD PUSH2 0x11A6 SWAP1 PUSH2 0x4844 JUMP JUMPDEST PUSH1 0x40 MLOAD DUP1 SWAP2 SUB SWAP1 REVERT JUMPDEST PUSH1 0x3 PUSH0 DUP2 SLOAD DUP1 SWAP3 SWAP2 SWAP1 PUSH2 0x11C1 SWAP1 PUSH2 0x45B3 JUMP JUMPDEST SWAP2 SWAP1 POP SSTORE POP PUSH2 0x11CE PUSH2 0x3997 JUMP JUMPDEST DUP3 DUP2 PUSH0 ADD DUP2 SWAP1 MSTORE POP PUSH0 DUP2 PUSH1 0x20 ADD SWAP1 ISZERO ISZERO SWAP1 DUP2 ISZERO ISZERO DUP2 MSTORE POP POP DUP1 PUSH1 0x1 PUSH0 DUP7 PUSH20 0xFFFFFFFFFFFFFFFFFFFFFFFFFFFFFFFFFFFFFFFF AND PUSH20 0xFFFFFFFFFFFFFFFFFFFFFFFFFFFFFFFFFFFFFFFF AND DUP2 MSTORE PUSH1 0x20 ADD SWAP1 DUP2 MSTORE PUSH1 0x20 ADD PUSH0 KECCAK256 PUSH0 DUP3 ADD MLOAD DUP2 PUSH0 ADD SWAP1 DUP2 PUSH2 0x1237 SWAP2 SWAP1 PUSH2 0x49F6 JUMP JUMPDEST POP PUSH1 0x20 DUP3 ADD MLOAD DUP2 PUSH1 0x1 ADD PUSH0 PUSH2 0x100 EXP DUP2 SLOAD DUP2 PUSH1 0xFF MUL NOT AND SWAP1 DUP4 ISZERO ISZERO MUL OR SWAP1 SSTORE POP SWAP1 POP POP PUSH1 0x3 SLOAD SWAP2 POP POP SWAP3 SWAP2 POP POP JUMP JUMPDEST PUSH1 0x3 SLOAD DUP2 JUMP JUMPDEST PUSH1 0x5 PUSH0 SWAP1 SLOAD SWAP1 PUSH2 0x100 EXP SWAP1 DIV PUSH20 0xFFFFFFFFFFFFFFFFFFFFFFFFFFFFFFFFFFFFFFFF AND DUP2 JUMP JUMPDEST PUSH20 0x0 PUSH4 0x767392B3 PUSH2 0x12B5 PUSH1 0x64 PUSH2 0x164D JUMP JUMPDEST PUSH1 0x1 PUSH1 0x40 MLOAD DUP4 PUSH4 0xFFFFFFFF AND PUSH1 0xE0 SHL DUP2 MSTORE PUSH1 0x4 ADD PUSH2 0x12D4 SWAP3 SWAP2 SWAP1 PUSH2 0x4B0F JUMP JUMPDEST PUSH1 0x20 PUSH1 0x40 MLOAD DUP1 DUP4 SUB DUP2 DUP7 GAS DELEGATECALL ISZERO DUP1 ISZERO PUSH2 0x12EF JUMPI RETURNDATASIZE PUSH0 DUP1 RETURNDATACOPY RETURNDATASIZE PUSH0 REVERT JUMPDEST POP POP POP POP PUSH1 0x40 MLOAD RETURNDATASIZE PUSH1 0x1F NOT PUSH1 0x1F DUP3 ADD AND DUP3 ADD DUP1 PUSH1 0x40 MSTORE POP DUP2 ADD SWAP1 PUSH2 0x1313 SWAP2 SWAP1 PUSH2 0x40BC JUMP JUMPDEST POP JUMP JUMPDEST PUSH1 0xB SLOAD DUP2 JUMP JUMPDEST PUSH1 0x7 DUP2 DUP2 SLOAD DUP2 LT PUSH2 0x132B JUMPI PUSH0 DUP1 REVERT JUMPDEST SWAP1 PUSH0 MSTORE PUSH1 0x20 PUSH0 KECCAK256 SWAP1 PUSH1 0x2 MUL ADD PUSH0 SWAP2 POP SWAP1 POP DUP1 PUSH0 ADD PUSH0 SWAP1 SLOAD SWAP1 PUSH2 0x100 EXP SWAP1 DIV PUSH20 0xFFFFFFFFFFFFFFFFFFFFFFFFFFFFFFFFFFFFFFFF AND SWAP1 DUP1 PUSH1 0x1 ADD SLOAD SWAP1 POP DUP3 JUMP JUMPDEST ADDRESS PUSH20 0xFFFFFFFFFFFFFFFFFFFFFFFFFFFFFFFFFFFFFFFF AND PUSH4 0x66063DF4 PUSH1 0x64 PUSH1 0x40 MLOAD DUP3 PUSH4 0xFFFFFFFF AND PUSH1 0xE0 SHL DUP2 MSTORE PUSH1 0x4 ADD PUSH2 0x13A4 SWAP2 SWAP1 PUSH2 0x4B82 JUMP JUMPDEST PUSH1 0x20 PUSH1 0x40 MLOAD DUP1 DUP4 SUB DUP2 PUSH0 DUP8 GAS CALL SWAP3 POP POP POP DUP1 ISZERO PUSH2 0x13DF JUMPI POP PUSH1 0x40 MLOAD RETURNDATASIZE PUSH1 0x1F NOT PUSH1 0x1F DUP3 ADD AND DUP3 ADD DUP1 PUSH1 0x40 MSTORE POP DUP2 ADD SWAP1 PUSH2 0x13DC SWAP2 SWAP1 PUSH2 0x40BC JUMP JUMPDEST PUSH1 0x1 JUMPDEST PUSH2 0x15CF JUMPI PUSH2 0x13EB PUSH2 0x3E9C JUMP JUMPDEST DUP1 PUSH4 0x8C379A0 SUB PUSH2 0x1487 JUMPI POP PUSH2 0x13FF PUSH2 0x3EBB JUMP JUMPDEST DUP1 PUSH2 0x140A JUMPI POP PUSH2 0x1521 JUMP JUMPDEST PUSH20 0x0 PUSH4 0xE8C2CB16 DUP3 PUSH1 0x40 MLOAD DUP3 PUSH4 0xFFFFFFFF AND PUSH1 0xE0 SHL DUP2 MSTORE PUSH1 0x4 ADD PUSH2 0x1441 SWAP2 SWAP1 PUSH2 0x404C JUMP JUMPDEST PUSH1 0x20 PUSH1 0x40 MLOAD DUP1 DUP4 SUB DUP2 DUP7 GAS DELEGATECALL ISZERO DUP1 ISZERO PUSH2 0x145C JUMPI RETURNDATASIZE PUSH0 DUP1 RETURNDATACOPY RETURNDATASIZE PUSH0 REVERT JUMPDEST POP POP POP POP PUSH1 0x40 MLOAD RETURNDATASIZE PUSH1 0x1F NOT PUSH1 0x1F DUP3 ADD AND DUP3 ADD DUP1 PUSH1 0x40 MSTORE POP DUP2 ADD SWAP1 PUSH2 0x1480 SWAP2 SWAP1 PUSH2 0x40BC JUMP JUMPDEST POP POP PUSH2 0x15CA JUMP JUMPDEST PUSH4 0x4E487B71 SUB PUSH2 0x1521 JUMPI PUSH2 0x1499 PUSH2 0x40E7 JUMP JUMPDEST SWAP1 PUSH2 0x14A4 JUMPI POP PUSH2 0x1521 JUMP JUMPDEST PUSH20 0x0 PUSH4 0x39DF137F PUSH0 PUSH1 0x40 MLOAD DUP3 PUSH4 0xFFFFFFFF AND PUSH1 0xE0 SHL DUP2 MSTORE PUSH1 0x4 ADD PUSH2 0x14DB SWAP2 SWAP1 PUSH2 0x4184 JUMP JUMPDEST PUSH1 0x20 PUSH1 0x40 MLOAD DUP1 DUP4 SUB DUP2 DUP7 GAS DELEGATECALL ISZERO DUP1 ISZERO PUSH2 0x14F6 JUMPI RETURNDATASIZE PUSH0 DUP1 RETURNDATACOPY RETURNDATASIZE PUSH0 REVERT JUMPDEST POP POP POP POP PUSH1 0x40 MLOAD RETURNDATASIZE PUSH1 0x1F NOT PUSH1 0x1F DUP3 ADD AND DUP3 ADD DUP1 PUSH1 0x40 MSTORE POP DUP2 ADD SWAP1 PUSH2 0x151A SWAP2 SWAP1 PUSH2 0x40BC JUMP JUMPDEST POP POP PUSH2 0x15CA JUMP JUMPDEST RETURNDATASIZE DUP1 PUSH0 DUP2 EQ PUSH2 0x154B JUMPI PUSH1 0x40 MLOAD SWAP2 POP PUSH1 0x1F NOT PUSH1 0x3F RETURNDATASIZE ADD AND DUP3 ADD PUSH1 0x40 MSTORE RETURNDATASIZE DUP3 MSTORE RETURNDATASIZE PUSH0 PUSH1 0x20 DUP5 ADD RETURNDATACOPY PUSH2 0x1550 JUMP JUMPDEST PUSH1 0x60 SWAP2 POP JUMPDEST POP PUSH20 0x0 PUSH4 0x39DF137F PUSH0 PUSH1 0x40 MLOAD DUP3 PUSH4 0xFFFFFFFF AND PUSH1 0xE0 SHL DUP2 MSTORE PUSH1 0x4 ADD PUSH2 0x1588 SWAP2 SWAP1 PUSH2 0x41FA JUMP JUMPDEST PUSH1 0x20 PUSH1 0x40 MLOAD DUP1 DUP4 SUB DUP2 DUP7 GAS DELEGATECALL ISZERO DUP1 ISZERO PUSH2 0x15A3 JUMPI RETURNDATASIZE PUSH0 DUP1 RETURNDATACOPY RETURNDATASIZE PUSH0 REVERT JUMPDEST POP POP POP POP PUSH1 0x40 MLOAD RETURNDATASIZE PUSH1 0x1F NOT PUSH1 0x1F DUP3 ADD AND DUP3 ADD DUP1 PUSH1 0x40 MSTORE POP DUP2 ADD SWAP1 PUSH2 0x15C7 SWAP2 SWAP1 PUSH2 0x40BC JUMP JUMPDEST POP POP JUMPDEST PUSH2 0x164B JUMP JUMPDEST PUSH20 0x0 PUSH4 0x44781A00 DUP3 PUSH1 0x1 PUSH1 0x40 MLOAD DUP4 PUSH4 0xFFFFFFFF AND PUSH1 0xE0 SHL DUP2 MSTORE PUSH1 0x4 ADD PUSH2 0x1609 SWAP3 SWAP2 SWAP1 PUSH2 0x468A JUMP JUMPDEST PUSH1 0x20 PUSH1 0x40 MLOAD DUP1 DUP4 SUB DUP2 DUP7 GAS DELEGATECALL ISZERO DUP1 ISZERO PUSH2 0x1624 JUMPI RETURNDATASIZE PUSH0 DUP1 RETURNDATACOPY RETURNDATASIZE PUSH0 REVERT JUMPDEST POP POP POP POP PUSH1 0x40 MLOAD RETURNDATASIZE PUSH1 0x1F NOT PUSH1 0x1F DUP3 ADD AND DUP3 ADD DUP1 PUSH1 0x40 MSTORE POP DUP2 ADD SWAP1 PUSH2 0x1648 SWAP2 SWAP1 PUSH2 0x40BC JUMP JUMPDEST POP POP JUMPDEST JUMP JUMPDEST PUSH0 PUSH1 0x5 PUSH0 SWAP1 SLOAD SWAP1 PUSH2 0x100 EXP SWAP1 DIV PUSH20 0xFFFFFFFFFFFFFFFFFFFFFFFFFFFFFFFFFFFFFFFF AND PUSH20 0xFFFFFFFFFFFFFFFFFFFFFFFFFFFFFFFFFFFFFFFF AND CALLER PUSH20 0xFFFFFFFFFFFFFFFFFFFFFFFFFFFFFFFFFFFFFFFF AND EQ PUSH2 0x16DD JUMPI PUSH1 0x40 MLOAD PUSH32 0x8C379A000000000000000000000000000000000000000000000000000000000 DUP2 MSTORE PUSH1 0x4 ADD PUSH2 0x16D4 SWAP1 PUSH2 0x46E6 JUMP JUMPDEST PUSH1 0x40 MLOAD DUP1 SWAP2 SUB SWAP1 REVERT JUMPDEST PUSH1 0x1 ISZERO ISZERO PUSH1 0xC PUSH0 SWAP1 SLOAD SWAP1 PUSH2 0x100 EXP SWAP1 DIV PUSH1 0xFF AND ISZERO ISZERO EQ PUSH2 0x1732 JUMPI PUSH1 0x40 MLOAD PUSH32 0x8C379A000000000000000000000000000000000000000000000000000000000 DUP2 MSTORE PUSH1 0x4 ADD PUSH2 0x1729 SWAP1 PUSH2 0x43D3 JUMP JUMPDEST PUSH1 0x40 MLOAD DUP1 SWAP2 SUB SWAP1 REVERT JUMPDEST PUSH0 SWAP1 POP DUP2 NUMBER PUSH2 0x1741 SWAP2 SWAP1 PUSH2 0x4657 JUMP JUMPDEST PUSH1 0xB DUP2 SWAP1 SSTORE POP PUSH1 0xB SLOAD NUMBER GT PUSH2 0x176A JUMPI PUSH0 PUSH1 0x9 PUSH0 PUSH2 0x100 EXP DUP2 SLOAD DUP2 PUSH1 0xFF MUL NOT AND SWAP1 DUP4 ISZERO ISZERO MUL OR SWAP1 SSTORE POP JUMPDEST PUSH1 0x1 SWAP1 POP SWAP2 SWAP1 POP JUMP JUMPDEST PUSH1 0xC PUSH1 0x1 SWAP1 SLOAD SWAP1 PUSH2 0x100 EXP SWAP1 DIV PUSH20 0xFFFFFFFFFFFFFFFFFFFFFFFFFFFFFFFFFFFFFFFF AND DUP2 JUMP JUMPDEST PUSH0 PUSH1 0x5 PUSH0 SWAP1 SLOAD SWAP1 PUSH2 0x100 EXP SWAP1 DIV PUSH20 0xFFFFFFFFFFFFFFFFFFFFFFFFFFFFFFFFFFFFFFFF AND PUSH20 0xFFFFFFFFFFFFFFFFFFFFFFFFFFFFFFFFFFFFFFFF AND CALLER PUSH20 0xFFFFFFFFFFFFFFFFFFFFFFFFFFFFFFFFFFFFFFFF AND EQ PUSH2 0x1829 JUMPI PUSH1 0x40 MLOAD PUSH32 0x8C379A000000000000000000000000000000000000000000000000000000000 DUP2 MSTORE PUSH1 0x4 ADD PUSH2 0x1820 SWAP1 PUSH2 0x46E6 JUMP JUMPDEST PUSH1 0x40 MLOAD DUP1 SWAP2 SUB SWAP1 REVERT JUMPDEST PUSH0 ISZERO ISZERO PUSH1 0x9 PUSH0 SWAP1 SLOAD SWAP1 PUSH2 0x100 EXP SWAP1 DIV PUSH1 0xFF AND ISZERO ISZERO EQ PUSH2 0x187D JUMPI PUSH1 0x40 MLOAD PUSH32 0x8C379A000000000000000000000000000000000000000000000000000000000 DUP2 MSTORE PUSH1 0x4 ADD PUSH2 0x1874 SWAP1 PUSH2 0x4774 JUMP JUMPDEST PUSH1 0x40 MLOAD DUP1 SWAP2 SUB SWAP1 REVERT JUMPDEST PUSH1 0xB SLOAD NUMBER LT PUSH2 0x18C1 JUMPI PUSH1 0x40 MLOAD PUSH32 0x8C379A000000000000000000000000000000000000000000000000000000000 DUP2 MSTORE PUSH1 0x4 ADD PUSH2 0x18B8 SWAP1 PUSH2 0x47DC JUMP JUMPDEST PUSH1 0x40 MLOAD DUP1 SWAP2 SUB SWAP1 REVERT JUMPDEST PUSH1 0x1 ISZERO ISZERO PUSH1 0xC PUSH0 SWAP1 SLOAD SWAP1 PUSH2 0x100 EXP SWAP1 DIV PUSH1 0xFF AND ISZERO ISZERO EQ PUSH2 0x1916 JUMPI PUSH1 0x40 MLOAD PUSH32 0x8C379A000000000000000000000000000000000000000000000000000000000 DUP2 MSTORE PUSH1 0x4 ADD PUSH2 0x190D SWAP1 PUSH2 0x43D3 JUMP JUMPDEST PUSH1 0x40 MLOAD DUP1 SWAP2 SUB SWAP1 REVERT JUMPDEST PUSH0 DUP3 DUP1 MLOAD SWAP1 PUSH1 0x20 ADD KECCAK256 SWAP1 POP PUSH1 0xA PUSH0 DUP3 DUP2 MSTORE PUSH1 0x20 ADD SWAP1 DUP2 MSTORE PUSH1 0x20 ADD PUSH0 KECCAK256 PUSH0 SWAP1 SLOAD SWAP1 PUSH2 0x100 EXP SWAP1 DIV PUSH1 0xFF AND ISZERO PUSH2 0x197F JUMPI PUSH1 0x40 MLOAD PUSH32 0x8C379A000000000000000000000000000000000000000000000000000000000 DUP2 MSTORE PUSH1 0x4 ADD PUSH2 0x1976 SWAP1 PUSH2 0x4BE5 JUMP JUMPDEST PUSH1 0x40 MLOAD DUP1 SWAP2 SUB SWAP1 REVERT JUMPDEST PUSH1 0x2 PUSH0 DUP2 SLOAD DUP1 SWAP3 SWAP2 SWAP1 PUSH2 0x1991 SWAP1 PUSH2 0x45B3 JUMP JUMPDEST SWAP2 SWAP1 POP SSTORE POP DUP3 PUSH0 DUP1 PUSH1 0x2 SLOAD DUP2 MSTORE PUSH1 0x20 ADD SWAP1 DUP2 MSTORE PUSH1 0x20 ADD PUSH0 KECCAK256 SWAP1 DUP2 PUSH2 0x19B5 SWAP2 SWAP1 PUSH2 0x49F6 JUMP JUMPDEST POP PUSH1 0x1 PUSH1 0xA PUSH0 DUP4 DUP2 MSTORE PUSH1 0x20 ADD SWAP1 DUP2 MSTORE PUSH1 0x20 ADD PUSH0 KECCAK256 PUSH0 PUSH2 0x100 EXP DUP2 SLOAD DUP2 PUSH1 0xFF MUL NOT AND SWAP1 DUP4 ISZERO ISZERO MUL OR SWAP1 SSTORE POP PUSH1 0x2 SLOAD SWAP2 POP POP SWAP2 SWAP1 POP JUMP JUMPDEST PUSH20 0x0 PUSH4 0x39DF137F PUSH2 0x1A0E PUSH1 0x2 PUSH2 0x873 JUMP JUMPDEST PUSH1 0x40 MLOAD DUP3 PUSH4 0xFFFFFFFF AND PUSH1 0xE0 SHL DUP2 MSTORE PUSH1 0x4 ADD PUSH2 0x1A2A SWAP2 SWAP1 PUSH2 0x4C4D JUMP JUMPDEST PUSH1 0x20 PUSH1 0x40 MLOAD DUP1 DUP4 SUB DUP2 DUP7 GAS DELEGATECALL ISZERO DUP1 ISZERO PUSH2 0x1A45 JUMPI RETURNDATASIZE PUSH0 DUP1 RETURNDATACOPY RETURNDATASIZE PUSH0 REVERT JUMPDEST POP POP POP POP PUSH1 0x40 MLOAD RETURNDATASIZE PUSH1 0x1F NOT PUSH1 0x1F DUP3 ADD AND DUP3 ADD DUP1 PUSH1 0x40 MSTORE POP DUP2 ADD SWAP1 PUSH2 0x1A69 SWAP2 SWAP1 PUSH2 0x40BC JUMP JUMPDEST POP JUMP JUMPDEST PUSH20 0x0 PUSH4 0xBFBA5DD6 PUSH1 0x5 PUSH0 SWAP1 SLOAD SWAP1 PUSH2 0x100 EXP SWAP1 DIV PUSH20 0xFFFFFFFFFFFFFFFFFFFFFFFFFFFFFFFFFFFFFFFF AND PUSH1 0xD PUSH0 SWAP1 SLOAD SWAP1 PUSH2 0x100 EXP SWAP1 DIV PUSH20 0xFFFFFFFFFFFFFFFFFFFFFFFFFFFFFFFFFFFFFFFF AND PUSH1 0x40 MLOAD DUP4 PUSH4 0xFFFFFFFF AND PUSH1 0xE0 SHL DUP2 MSTORE PUSH1 0x4 ADD PUSH2 0x1AE7 SWAP3 SWAP2 SWAP1 PUSH2 0x4CD2 JUMP JUMPDEST PUSH1 0x20 PUSH1 0x40 MLOAD DUP1 DUP4 SUB DUP2 DUP7 GAS DELEGATECALL ISZERO DUP1 ISZERO PUSH2 0x1B02 JUMPI RETURNDATASIZE PUSH0 DUP1 RETURNDATACOPY RETURNDATASIZE PUSH0 REVERT JUMPDEST POP POP POP POP PUSH1 0x40 MLOAD RETURNDATASIZE PUSH1 0x1F NOT PUSH1 0x1F DUP3 ADD AND DUP3 ADD DUP1 PUSH1 0x40 MSTORE POP DUP2 ADD SWAP1 PUSH2 0x1B26 SWAP2 SWAP1 PUSH2 0x40BC JUMP JUMPDEST POP JUMP JUMPDEST PUSH1 0x9 PUSH0 SWAP1 SLOAD SWAP1 PUSH2 0x100 EXP SWAP1 DIV PUSH1 0xFF AND DUP2 JUMP JUMPDEST PUSH20 0x0 PUSH4 0xCE88B145 PUSH0 PUSH1 0x40 MLOAD DUP3 PUSH4 0xFFFFFFFF AND PUSH1 0xE0 SHL DUP2 MSTORE PUSH1 0x4 ADD PUSH2 0x1B72 SWAP2 SWAP1 PUSH2 0x4D45 JUMP JUMPDEST PUSH1 0x20 PUSH1 0x40 MLOAD DUP1 DUP4 SUB DUP2 DUP7 GAS DELEGATECALL ISZERO DUP1 ISZERO PUSH2 0x1B8D JUMPI RETURNDATASIZE PUSH0 DUP1 RETURNDATACOPY RETURNDATASIZE PUSH0 REVERT JUMPDEST POP POP POP POP PUSH1 0x40 MLOAD RETURNDATASIZE PUSH1 0x1F NOT PUSH1 0x1F DUP3 ADD AND DUP3 ADD DUP1 PUSH1 0x40 MSTORE POP DUP2 ADD SWAP1 PUSH2 0x1BB1 SWAP2 SWAP1 PUSH2 0x4D72 JUMP JUMPDEST PUSH1 0xD PUSH0 PUSH2 0x100 EXP DUP2 SLOAD DUP2 PUSH20 0xFFFFFFFFFFFFFFFFFFFFFFFFFFFFFFFFFFFFFFFF MUL NOT AND SWAP1 DUP4 PUSH20 0xFFFFFFFFFFFFFFFFFFFFFFFFFFFFFFFFFFFFFFFF AND MUL OR SWAP1 SSTORE POP PUSH20 0x0 PUSH4 0xCE88B145 PUSH1 0x1 PUSH1 0x40 MLOAD DUP3 PUSH4 0xFFFFFFFF AND PUSH1 0xE0 SHL DUP2 MSTORE PUSH1 0x4 ADD PUSH2 0x1C28 SWAP2 SWAP1 PUSH2 0x4DD6 JUMP JUMPDEST PUSH1 0x20 PUSH1 0x40 MLOAD DUP1 DUP4 SUB DUP2 DUP7 GAS DELEGATECALL ISZERO DUP1 ISZERO PUSH2 0x1C43 JUMPI RETURNDATASIZE PUSH0 DUP1 RETURNDATACOPY RETURNDATASIZE PUSH0 REVERT JUMPDEST POP POP POP POP PUSH1 0x40 MLOAD RETURNDATASIZE PUSH1 0x1F NOT PUSH1 0x1F DUP3 ADD AND DUP3 ADD DUP1 PUSH1 0x40 MSTORE POP DUP2 ADD SWAP1 PUSH2 0x1C67 SWAP2 SWAP1 PUSH2 0x4D72 JUMP JUMPDEST PUSH1 0xE PUSH0 PUSH2 0x100 EXP DUP2 SLOAD DUP2 PUSH20 0xFFFFFFFFFFFFFFFFFFFFFFFFFFFFFFFFFFFFFFFF MUL NOT AND SWAP1 DUP4 PUSH20 0xFFFFFFFFFFFFFFFFFFFFFFFFFFFFFFFFFFFFFFFF AND MUL OR SWAP1 SSTORE POP PUSH20 0x0 PUSH4 0xCE88B145 PUSH1 0x2 PUSH1 0x40 MLOAD DUP3 PUSH4 0xFFFFFFFF AND PUSH1 0xE0 SHL DUP2 MSTORE PUSH1 0x4 ADD PUSH2 0x1CDE SWAP2 SWAP1 PUSH2 0x4E28 JUMP JUMPDEST PUSH1 0x20 PUSH1 0x40 MLOAD DUP1 DUP4 SUB DUP2 DUP7 GAS DELEGATECALL ISZERO DUP1 ISZERO PUSH2 0x1CF9 JUMPI RETURNDATASIZE PUSH0 DUP1 RETURNDATACOPY RETURNDATASIZE PUSH0 REVERT JUMPDEST POP POP POP POP PUSH1 0x40 MLOAD RETURNDATASIZE PUSH1 0x1F NOT PUSH1 0x1F DUP3 ADD AND DUP3 ADD DUP1 PUSH1 0x40 MSTORE POP DUP2 ADD SWAP1 PUSH2 0x1D1D SWAP2 SWAP1 PUSH2 0x4D72 JUMP JUMPDEST PUSH1 0xF PUSH0 PUSH2 0x100 EXP DUP2 SLOAD DUP2 PUSH20 0xFFFFFFFFFFFFFFFFFFFFFFFFFFFFFFFFFFFFFFFF MUL NOT AND SWAP1 DUP4 PUSH20 0xFFFFFFFFFFFFFFFFFFFFFFFFFFFFFFFFFFFFFFFF AND MUL OR SWAP1 SSTORE POP PUSH20 0x0 PUSH4 0xCE88B145 PUSH1 0x3 PUSH1 0x40 MLOAD DUP3 PUSH4 0xFFFFFFFF AND PUSH1 0xE0 SHL DUP2 MSTORE PUSH1 0x4 ADD PUSH2 0x1D94 SWAP2 SWAP1 PUSH2 0x4E7A JUMP JUMPDEST PUSH1 0x20 PUSH1 0x40 MLOAD DUP1 DUP4 SUB DUP2 DUP7 GAS DELEGATECALL ISZERO DUP1 ISZERO PUSH2 0x1DAF JUMPI RETURNDATASIZE PUSH0 DUP1 RETURNDATACOPY RETURNDATASIZE PUSH0 REVERT JUMPDEST POP POP POP POP PUSH1 0x40 MLOAD RETURNDATASIZE PUSH1 0x1F NOT PUSH1 0x1F DUP3 ADD AND DUP3 ADD DUP1 PUSH1 0x40 MSTORE POP DUP2 ADD SWAP1 PUSH2 0x1DD3 SWAP2 SWAP1 PUSH2 0x4D72 JUMP JUMPDEST PUSH1 0x10 PUSH0 PUSH2 0x100 EXP DUP2 SLOAD DUP2 PUSH20 0xFFFFFFFFFFFFFFFFFFFFFFFFFFFFFFFFFFFFFFFF MUL NOT AND SWAP1 DUP4 PUSH20 0xFFFFFFFFFFFFFFFFFFFFFFFFFFFFFFFFFFFFFFFF AND MUL OR SWAP1 SSTORE POP PUSH20 0x0 PUSH4 0xCE88B145 PUSH1 0x4 PUSH1 0x40 MLOAD DUP3 PUSH4 0xFFFFFFFF AND PUSH1 0xE0 SHL DUP2 MSTORE PUSH1 0x4 ADD PUSH2 0x1E4A SWAP2 SWAP1 PUSH2 0x4ECC JUMP JUMPDEST PUSH1 0x20 PUSH1 0x40 MLOAD DUP1 DUP4 SUB DUP2 DUP7 GAS DELEGATECALL ISZERO DUP1 ISZERO PUSH2 0x1E65 JUMPI RETURNDATASIZE PUSH0 DUP1 RETURNDATACOPY RETURNDATASIZE PUSH0 REVERT JUMPDEST POP POP POP POP PUSH1 0x40 MLOAD RETURNDATASIZE PUSH1 0x1F NOT PUSH1 0x1F DUP3 ADD AND DUP3 ADD DUP1 PUSH1 0x40 MSTORE POP DUP2 ADD SWAP1 PUSH2 0x1E89 SWAP2 SWAP1 PUSH2 0x4D72 JUMP JUMPDEST PUSH1 0x11 PUSH0 PUSH2 0x100 EXP DUP2 SLOAD DUP2 PUSH20 0xFFFFFFFFFFFFFFFFFFFFFFFFFFFFFFFFFFFFFFFF MUL NOT AND SWAP1 DUP4 PUSH20 0xFFFFFFFFFFFFFFFFFFFFFFFFFFFFFFFFFFFFFFFF AND MUL OR SWAP1 SSTORE POP JUMP JUMPDEST PUSH20 0x0 PUSH4 0x39DF137F PUSH2 0x1EEE PUSH1 0x2 PUSH2 0x873 JUMP JUMPDEST PUSH1 0x40 MLOAD DUP3 PUSH4 0xFFFFFFFF AND PUSH1 0xE0 SHL DUP2 MSTORE PUSH1 0x4 ADD PUSH2 0x1F0A SWAP2 SWAP1 PUSH2 0x4C4D JUMP JUMPDEST PUSH1 0x20 PUSH1 0x40 MLOAD DUP1 DUP4 SUB DUP2 DUP7 GAS DELEGATECALL ISZERO DUP1 ISZERO PUSH2 0x1F25 JUMPI RETURNDATASIZE PUSH0 DUP1 RETURNDATACOPY RETURNDATASIZE PUSH0 REVERT JUMPDEST POP POP POP POP PUSH1 0x40 MLOAD RETURNDATASIZE PUSH1 0x1F NOT PUSH1 0x1F DUP3 ADD AND DUP3 ADD DUP1 PUSH1 0x40 MSTORE POP DUP2 ADD SWAP1 PUSH2 0x1F49 SWAP2 SWAP1 PUSH2 0x40BC JUMP JUMPDEST POP JUMP JUMPDEST PUSH20 0x0 PUSH4 0xA079F1A3 PUSH1 0xB SLOAD NUMBER PUSH1 0x40 MLOAD DUP4 PUSH4 0xFFFFFFFF AND PUSH1 0xE0 SHL DUP2 MSTORE PUSH1 0x4 ADD PUSH2 0x1F87 SWAP3 SWAP2 SWAP1 PUSH2 0x4F55 JUMP JUMPDEST PUSH1 0x20 PUSH1 0x40 MLOAD DUP1 DUP4 SUB DUP2 DUP7 GAS DELEGATECALL ISZERO DUP1 ISZERO PUSH2 0x1FA2 JUMPI RETURNDATASIZE PUSH0 DUP1 RETURNDATACOPY RETURNDATASIZE PUSH0 REVERT JUMPDEST POP POP POP POP PUSH1 0x40 MLOAD RETURNDATASIZE PUSH1 0x1F NOT PUSH1 0x1F DUP3 ADD AND DUP3 ADD DUP1 PUSH1 0x40 MSTORE POP DUP2 ADD SWAP1 PUSH2 0x1FC6 SWAP2 SWAP1 PUSH2 0x40BC JUMP JUMPDEST POP JUMP JUMPDEST PUSH1 0x5 PUSH0 SWAP1 SLOAD SWAP1 PUSH2 0x100 EXP SWAP1 DIV PUSH20 0xFFFFFFFFFFFFFFFFFFFFFFFFFFFFFFFFFFFFFFFF AND PUSH20 0xFFFFFFFFFFFFFFFFFFFFFFFFFFFFFFFFFFFFFFFF AND CALLER PUSH20 0xFFFFFFFFFFFFFFFFFFFFFFFFFFFFFFFFFFFFFFFF AND EQ PUSH2 0x2058 JUMPI PUSH1 0x40 MLOAD PUSH32 0x8C379A000000000000000000000000000000000000000000000000000000000 DUP2 MSTORE PUSH1 0x4 ADD PUSH2 0x204F SWAP1 PUSH2 0x46E6 JUMP JUMPDEST PUSH1 0x40 MLOAD DUP1 SWAP2 SUB SWAP1 REVERT JUMPDEST PUSH1 0x1 ISZERO ISZERO PUSH1 0xC PUSH0 SWAP1 SLOAD SWAP1 PUSH2 0x100 EXP SWAP1 DIV PUSH1 0xFF AND ISZERO ISZERO EQ PUSH2 0x20AD JUMPI PUSH1 0x40 MLOAD PUSH32 0x8C379A000000000000000000000000000000000000000000000000000000000 DUP2 MSTORE PUSH1 0x4 ADD PUSH2 0x20A4 SWAP1 PUSH2 0x43D3 JUMP JUMPDEST PUSH1 0x40 MLOAD DUP1 SWAP2 SUB SWAP1 REVERT JUMPDEST PUSH0 PUSH1 0xC PUSH0 PUSH2 0x100 EXP DUP2 SLOAD DUP2 PUSH1 0xFF MUL NOT AND SWAP1 DUP4 ISZERO ISZERO MUL OR SWAP1 SSTORE POP JUMP JUMPDEST PUSH20 0x0 PUSH4 0x767392B3 PUSH1 0x9 PUSH0 SWAP1 SLOAD SWAP1 PUSH2 0x100 EXP SWAP1 DIV PUSH1 0xFF AND PUSH0 PUSH1 0x40 MLOAD DUP4 PUSH4 0xFFFFFFFF AND PUSH1 0xE0 SHL DUP2 MSTORE PUSH1 0x4 ADD PUSH2 0x210F SWAP3 SWAP2 SWAP1 PUSH2 0x4FFF JUMP JUMPDEST PUSH1 0x20 PUSH1 0x40 MLOAD DUP1 DUP4 SUB DUP2 DUP7 GAS DELEGATECALL ISZERO DUP1 ISZERO PUSH2 0x212A JUMPI RETURNDATASIZE PUSH0 DUP1 RETURNDATACOPY RETURNDATASIZE PUSH0 REVERT JUMPDEST POP POP POP POP PUSH1 0x40 MLOAD RETURNDATASIZE PUSH1 0x1F NOT PUSH1 0x1F DUP3 ADD AND DUP3 ADD DUP1 PUSH1 0x40 MSTORE POP DUP2 ADD SWAP1 PUSH2 0x214E SWAP2 SWAP1 PUSH2 0x40BC JUMP JUMPDEST POP PUSH2 0x2157 PUSH2 0x3201 JUMP JUMPDEST PUSH20 0x0 PUSH4 0x767392B3 PUSH1 0x9 PUSH0 SWAP1 SLOAD SWAP1 PUSH2 0x100 EXP SWAP1 DIV PUSH1 0xFF AND PUSH1 0x1 PUSH1 0x40 MLOAD DUP4 PUSH4 0xFFFFFFFF AND PUSH1 0xE0 SHL DUP2 MSTORE PUSH1 0x4 ADD PUSH2 0x219F SWAP3 SWAP2 SWAP1 PUSH2 0x5083 JUMP JUMPDEST PUSH1 0x20 PUSH1 0x40 MLOAD DUP1 DUP4 SUB DUP2 DUP7 GAS DELEGATECALL ISZERO DUP1 ISZERO PUSH2 0x21BA JUMPI RETURNDATASIZE PUSH0 DUP1 RETURNDATACOPY RETURNDATASIZE PUSH0 REVERT JUMPDEST POP POP POP POP PUSH1 0x40 MLOAD RETURNDATASIZE PUSH1 0x1F NOT PUSH1 0x1F DUP3 ADD AND DUP3 ADD DUP1 PUSH1 0x40 MSTORE POP DUP2 ADD SWAP1 PUSH2 0x21DE SWAP2 SWAP1 PUSH2 0x40BC JUMP JUMPDEST POP JUMP JUMPDEST ADDRESS PUSH20 0xFFFFFFFFFFFFFFFFFFFFFFFFFFFFFFFFFFFFFFFF AND PUSH4 0x6D77BD3E PUSH1 0x40 MLOAD DUP2 PUSH4 0xFFFFFFFF AND PUSH1 0xE0 SHL DUP2 MSTORE PUSH1 0x4 ADD PUSH2 0x2218 SWAP1 PUSH2 0x5107 JUMP JUMPDEST PUSH1 0x20 PUSH1 0x40 MLOAD DUP1 DUP4 SUB DUP2 PUSH0 DUP8 GAS CALL SWAP3 POP POP POP DUP1 ISZERO PUSH2 0x2253 JUMPI POP PUSH1 0x40 MLOAD RETURNDATASIZE PUSH1 0x1F NOT PUSH1 0x1F DUP3 ADD AND DUP3 ADD DUP1 PUSH1 0x40 MSTORE POP DUP2 ADD SWAP1 PUSH2 0x2250 SWAP2 SWAP1 PUSH2 0x3E65 JUMP JUMPDEST PUSH1 0x1 JUMPDEST PUSH2 0x2443 JUMPI PUSH2 0x225F PUSH2 0x3E9C JUMP JUMPDEST DUP1 PUSH4 0x8C379A0 SUB PUSH2 0x22FB JUMPI POP PUSH2 0x2273 PUSH2 0x3EBB JUMP JUMPDEST DUP1 PUSH2 0x227E JUMPI POP PUSH2 0x2395 JUMP JUMPDEST PUSH20 0x0 PUSH4 0xE8C2CB16 DUP3 PUSH1 0x40 MLOAD DUP3 PUSH4 0xFFFFFFFF AND PUSH1 0xE0 SHL DUP2 MSTORE PUSH1 0x4 ADD PUSH2 0x22B5 SWAP2 SWAP1 PUSH2 0x404C JUMP JUMPDEST PUSH1 0x20 PUSH1 0x40 MLOAD DUP1 DUP4 SUB DUP2 DUP7 GAS DELEGATECALL ISZERO DUP1 ISZERO PUSH2 0x22D0 JUMPI RETURNDATASIZE PUSH0 DUP1 RETURNDATACOPY RETURNDATASIZE PUSH0 REVERT JUMPDEST POP POP POP POP PUSH1 0x40 MLOAD RETURNDATASIZE PUSH1 0x1F NOT PUSH1 0x1F DUP3 ADD AND DUP3 ADD DUP1 PUSH1 0x40 MSTORE POP DUP2 ADD SWAP1 PUSH2 0x22F4 SWAP2 SWAP1 PUSH2 0x40BC JUMP JUMPDEST POP POP PUSH2 0x243E JUMP JUMPDEST PUSH4 0x4E487B71 SUB PUSH2 0x2395 JUMPI PUSH2 0x230D PUSH2 0x40E7 JUMP JUMPDEST SWAP1 PUSH2 0x2318 JUMPI POP PUSH2 0x2395 JUMP JUMPDEST PUSH20 0x0 PUSH4 0x39DF137F PUSH0 PUSH1 0x40 MLOAD DUP3 PUSH4 0xFFFFFFFF AND PUSH1 0xE0 SHL DUP2 MSTORE PUSH1 0x4 ADD PUSH2 0x234F SWAP2 SWAP1 PUSH2 0x4184 JUMP JUMPDEST PUSH1 0x20 PUSH1 0x40 MLOAD DUP1 DUP4 SUB DUP2 DUP7 GAS DELEGATECALL ISZERO DUP1 ISZERO PUSH2 0x236A JUMPI RETURNDATASIZE PUSH0 DUP1 RETURNDATACOPY RETURNDATASIZE PUSH0 REVERT JUMPDEST POP POP POP POP PUSH1 0x40 MLOAD RETURNDATASIZE PUSH1 0x1F NOT PUSH1 0x1F DUP3 ADD AND DUP3 ADD DUP1 PUSH1 0x40 MSTORE POP DUP2 ADD SWAP1 PUSH2 0x238E SWAP2 SWAP1 PUSH2 0x40BC JUMP JUMPDEST POP POP PUSH2 0x243E JUMP JUMPDEST RETURNDATASIZE DUP1 PUSH0 DUP2 EQ PUSH2 0x23BF JUMPI PUSH1 0x40 MLOAD SWAP2 POP PUSH1 0x1F NOT PUSH1 0x3F RETURNDATASIZE ADD AND DUP3 ADD PUSH1 0x40 MSTORE RETURNDATASIZE DUP3 MSTORE RETURNDATASIZE PUSH0 PUSH1 0x20 DUP5 ADD RETURNDATACOPY PUSH2 0x23C4 JUMP JUMPDEST PUSH1 0x60 SWAP2 POP JUMPDEST POP PUSH20 0x0 PUSH4 0x39DF137F PUSH0 PUSH1 0x40 MLOAD DUP3 PUSH4 0xFFFFFFFF AND PUSH1 0xE0 SHL DUP2 MSTORE PUSH1 0x4 ADD PUSH2 0x23FC SWAP2 SWAP1 PUSH2 0x41FA JUMP JUMPDEST PUSH1 0x20 PUSH1 0x40 MLOAD DUP1 DUP4 SUB DUP2 DUP7 GAS DELEGATECALL ISZERO DUP1 ISZERO PUSH2 0x2417 JUMPI RETURNDATASIZE PUSH0 DUP1 RETURNDATACOPY RETURNDATASIZE PUSH0 REVERT JUMPDEST POP POP POP POP PUSH1 0x40 MLOAD RETURNDATASIZE PUSH1 0x1F NOT PUSH1 0x1F DUP3 ADD AND DUP3 ADD DUP1 PUSH1 0x40 MSTORE POP DUP2 ADD SWAP1 PUSH2 0x243B SWAP2 SWAP1 PUSH2 0x40BC JUMP JUMPDEST POP POP JUMPDEST PUSH2 0x24BF JUMP JUMPDEST PUSH20 0x0 PUSH4 0x561015E2 DUP3 PUSH1 0x3 PUSH1 0x40 MLOAD DUP4 PUSH4 0xFFFFFFFF AND PUSH1 0xE0 SHL DUP2 MSTORE PUSH1 0x4 ADD PUSH2 0x247D SWAP3 SWAP2 SWAP1 PUSH2 0x5125 JUMP JUMPDEST PUSH1 0x20 PUSH1 0x40 MLOAD DUP1 DUP4 SUB DUP2 DUP7 GAS DELEGATECALL ISZERO DUP1 ISZERO PUSH2 0x2498 JUMPI RETURNDATASIZE PUSH0 DUP1 RETURNDATACOPY RETURNDATASIZE PUSH0 REVERT JUMPDEST POP POP POP POP PUSH1 0x40 MLOAD RETURNDATASIZE PUSH1 0x1F NOT PUSH1 0x1F DUP3 ADD AND DUP3 ADD DUP1 PUSH1 0x40 MSTORE POP DUP2 ADD SWAP1 PUSH2 0x24BC SWAP2 SWAP1 PUSH2 0x40BC JUMP JUMPDEST POP POP JUMPDEST JUMP JUMPDEST PUSH20 0x0 PUSH4 0xABCD7960 PUSH2 0x2519 PUSH1 0x40 MLOAD DUP1 PUSH1 0x40 ADD PUSH1 0x40 MSTORE DUP1 PUSH1 0xE DUP2 MSTORE PUSH1 0x20 ADD PUSH32 0x436F757274796172642043616665000000000000000000000000000000000000 DUP2 MSTORE POP PUSH2 0x1799 JUMP JUMPDEST PUSH1 0x1 PUSH1 0x40 MLOAD DUP4 PUSH4 0xFFFFFFFF AND PUSH1 0xE0 SHL DUP2 MSTORE PUSH1 0x4 ADD PUSH2 0x2538 SWAP3 SWAP2 SWAP1 PUSH2 0x51A9 JUMP JUMPDEST PUSH1 0x20 PUSH1 0x40 MLOAD DUP1 DUP4 SUB DUP2 DUP7 GAS DELEGATECALL ISZERO DUP1 ISZERO PUSH2 0x2553 JUMPI RETURNDATASIZE PUSH0 DUP1 RETURNDATACOPY RETURNDATASIZE PUSH0 REVERT JUMPDEST POP POP POP POP PUSH1 0x40 MLOAD RETURNDATASIZE PUSH1 0x1F NOT PUSH1 0x1F DUP3 ADD AND DUP3 ADD DUP1 PUSH1 0x40 MSTORE POP DUP2 ADD SWAP1 PUSH2 0x2577 SWAP2 SWAP1 PUSH2 0x40BC JUMP JUMPDEST POP PUSH20 0x0 PUSH4 0xABCD7960 PUSH2 0x25D0 PUSH1 0x40 MLOAD DUP1 PUSH1 0x40 ADD PUSH1 0x40 MSTORE DUP1 PUSH1 0x8 DUP2 MSTORE PUSH1 0x20 ADD PUSH32 0x556E692043616665000000000000000000000000000000000000000000000000 DUP2 MSTORE POP PUSH2 0x1799 JUMP JUMPDEST PUSH1 0x2 PUSH1 0x40 MLOAD DUP4 PUSH4 0xFFFFFFFF AND PUSH1 0xE0 SHL DUP2 MSTORE PUSH1 0x4 ADD PUSH2 0x25EF SWAP3 SWAP2 SWAP1 PUSH2 0x522D JUMP JUMPDEST PUSH1 0x20 PUSH1 0x40 MLOAD DUP1 DUP4 SUB DUP2 DUP7 GAS DELEGATECALL ISZERO DUP1 ISZERO PUSH2 0x260A JUMPI RETURNDATASIZE PUSH0 DUP1 RETURNDATACOPY RETURNDATASIZE PUSH0 REVERT JUMPDEST POP POP POP POP PUSH1 0x40 MLOAD RETURNDATASIZE PUSH1 0x1F NOT PUSH1 0x1F DUP3 ADD AND DUP3 ADD DUP1 PUSH1 0x40 MSTORE POP DUP2 ADD SWAP1 PUSH2 0x262E SWAP2 SWAP1 PUSH2 0x40BC JUMP JUMPDEST POP JUMP JUMPDEST PUSH20 0x0 PUSH4 0x767392B3 PUSH1 0x9 PUSH0 SWAP1 SLOAD SWAP1 PUSH2 0x100 EXP SWAP1 DIV PUSH1 0xFF AND PUSH0 PUSH1 0x40 MLOAD DUP4 PUSH4 0xFFFFFFFF AND PUSH1 0xE0 SHL DUP2 MSTORE PUSH1 0x4 ADD PUSH2 0x2678 SWAP3 SWAP2 SWAP1 PUSH2 0x52B1 JUMP JUMPDEST PUSH1 0x20 PUSH1 0x40 MLOAD DUP1 DUP4 SUB DUP2 DUP7 GAS DELEGATECALL ISZERO DUP1 ISZERO PUSH2 0x2693 JUMPI RETURNDATASIZE PUSH0 DUP1 RETURNDATACOPY RETURNDATASIZE PUSH0 REVERT JUMPDEST POP POP POP POP PUSH1 0x40 MLOAD RETURNDATASIZE PUSH1 0x1F NOT PUSH1 0x1F DUP3 ADD AND DUP3 ADD DUP1 PUSH1 0x40 MSTORE POP DUP2 ADD SWAP1 PUSH2 0x26B7 SWAP2 SWAP1 PUSH2 0x40BC JUMP JUMPDEST POP JUMP JUMPDEST PUSH1 0x4 SLOAD DUP2 JUMP JUMPDEST PUSH20 0x0 PUSH4 0xABCD7960 PUSH2 0x273A PUSH1 0xD PUSH0 SWAP1 SLOAD SWAP1 PUSH2 0x100 EXP SWAP1 DIV PUSH20 0xFFFFFFFFFFFFFFFFFFFFFFFFFFFFFFFFFFFFFFFF AND PUSH1 0x40 MLOAD DUP1 PUSH1 0x40 ADD PUSH1 0x40 MSTORE DUP1 PUSH1 0x5 DUP2 MSTORE PUSH1 0x20 ADD PUSH32 0x416C696365000000000000000000000000000000000000000000000000000000 DUP2 MSTORE POP PUSH2 0xFA5 JUMP JUMPDEST PUSH1 0x1 PUSH1 0x40 MLOAD DUP4 PUSH4 0xFFFFFFFF AND PUSH1 0xE0 SHL DUP2 MSTORE PUSH1 0x4 ADD PUSH2 0x2759 SWAP3 SWAP2 SWAP1 PUSH2 0x51A9 JUMP JUMPDEST PUSH1 0x20 PUSH1 0x40 MLOAD DUP1 DUP4 SUB DUP2 DUP7 GAS DELEGATECALL ISZERO DUP1 ISZERO PUSH2 0x2774 JUMPI RETURNDATASIZE PUSH0 DUP1 RETURNDATACOPY RETURNDATASIZE PUSH0 REVERT JUMPDEST POP POP POP POP PUSH1 0x40 MLOAD RETURNDATASIZE PUSH1 0x1F NOT PUSH1 0x1F DUP3 ADD AND DUP3 ADD DUP1 PUSH1 0x40 MSTORE POP DUP2 ADD SWAP1 PUSH2 0x2798 SWAP2 SWAP1 PUSH2 0x40BC JUMP JUMPDEST POP PUSH20 0x0 PUSH4 0xABCD7960 PUSH2 0x2813 PUSH1 0xE PUSH0 SWAP1 SLOAD SWAP1 PUSH2 0x100 EXP SWAP1 DIV PUSH20 0xFFFFFFFFFFFFFFFFFFFFFFFFFFFFFFFFFFFFFFFF AND PUSH1 0x40 MLOAD DUP1 PUSH1 0x40 ADD PUSH1 0x40 MSTORE DUP1 PUSH1 0x3 DUP2 MSTORE PUSH1 0x20 ADD PUSH32 0x426F620000000000000000000000000000000000000000000000000000000000 DUP2 MSTORE POP PUSH2 0xFA5 JUMP JUMPDEST PUSH1 0x2 PUSH1 0x40 MLOAD DUP4 PUSH4 0xFFFFFFFF AND PUSH1 0xE0 SHL DUP2 MSTORE PUSH1 0x4 ADD PUSH2 0x2832 SWAP3 SWAP2 SWAP1 PUSH2 0x522D JUMP JUMPDEST PUSH1 0x20 PUSH1 0x40 MLOAD DUP1 DUP4 SUB DUP2 DUP7 GAS DELEGATECALL ISZERO DUP1 ISZERO PUSH2 0x284D JUMPI RETURNDATASIZE PUSH0 DUP1 RETURNDATACOPY RETURNDATASIZE PUSH0 REVERT JUMPDEST POP POP POP POP PUSH1 0x40 MLOAD RETURNDATASIZE PUSH1 0x1F NOT PUSH1 0x1F DUP3 ADD AND DUP3 ADD DUP1 PUSH1 0x40 MSTORE POP DUP2 ADD SWAP1 PUSH2 0x2871 SWAP2 SWAP1 PUSH2 0x40BC JUMP JUMPDEST POP PUSH20 0x0 PUSH4 0xABCD7960 PUSH2 0x28EC PUSH1 0xF PUSH0 SWAP1 SLOAD SWAP1 PUSH2 0x100 EXP SWAP1 DIV PUSH20 0xFFFFFFFFFFFFFFFFFFFFFFFFFFFFFFFFFFFFFFFF AND PUSH1 0x40 MLOAD DUP1 PUSH1 0x40 ADD PUSH1 0x40 MSTORE DUP1 PUSH1 0x7 DUP2 MSTORE PUSH1 0x20 ADD PUSH32 0x436861726C696500000000000000000000000000000000000000000000000000 DUP2 MSTORE POP PUSH2 0xFA5 JUMP JUMPDEST PUSH1 0x3 PUSH1 0x40 MLOAD DUP4 PUSH4 0xFFFFFFFF AND PUSH1 0xE0 SHL DUP2 MSTORE PUSH1 0x4 ADD PUSH2 0x290B SWAP3 SWAP2 SWAP1 PUSH2 0x5335 JUMP JUMPDEST PUSH1 0x20 PUSH1 0x40 MLOAD DUP1 DUP4 SUB DUP2 DUP7 GAS DELEGATECALL ISZERO DUP1 ISZERO PUSH2 0x2926 JUMPI RETURNDATASIZE PUSH0 DUP1 RETURNDATACOPY RETURNDATASIZE PUSH0 REVERT JUMPDEST POP POP POP POP PUSH1 0x40 MLOAD RETURNDATASIZE PUSH1 0x1F NOT PUSH1 0x1F DUP3 ADD AND DUP3 ADD DUP1 PUSH1 0x40 MSTORE POP DUP2 ADD SWAP1 PUSH2 0x294A SWAP2 SWAP1 PUSH2 0x40BC JUMP JUMPDEST POP PUSH20 0x0 PUSH4 0xABCD7960 PUSH2 0x29C5 PUSH1 0x10 PUSH0 SWAP1 SLOAD SWAP1 PUSH2 0x100 EXP SWAP1 DIV PUSH20 0xFFFFFFFFFFFFFFFFFFFFFFFFFFFFFFFFFFFFFFFF AND PUSH1 0x40 MLOAD DUP1 PUSH1 0x40 ADD PUSH1 0x40 MSTORE DUP1 PUSH1 0x3 DUP2 MSTORE PUSH1 0x20 ADD PUSH32 0x4576650000000000000000000000000000000000000000000000000000000000 DUP2 MSTORE POP PUSH2 0xFA5 JUMP JUMPDEST PUSH1 0x4 PUSH1 0x40 MLOAD DUP4 PUSH4 0xFFFFFFFF AND PUSH1 0xE0 SHL DUP2 MSTORE PUSH1 0x4 ADD PUSH2 0x29E4 SWAP3 SWAP2 SWAP1 PUSH2 0x53B9 JUMP JUMPDEST PUSH1 0x20 PUSH1 0x40 MLOAD DUP1 DUP4 SUB DUP2 DUP7 GAS DELEGATECALL ISZERO DUP1 ISZERO PUSH2 0x29FF JUMPI RETURNDATASIZE PUSH0 DUP1 RETURNDATACOPY RETURNDATASIZE PUSH0 REVERT JUMPDEST POP POP POP POP PUSH1 0x40 MLOAD RETURNDATASIZE PUSH1 0x1F NOT PUSH1 0x1F DUP3 ADD AND DUP3 ADD DUP1 PUSH1 0x40 MSTORE POP DUP2 ADD SWAP1 PUSH2 0x2A23 SWAP2 SWAP1 PUSH2 0x40BC JUMP JUMPDEST POP JUMP JUMPDEST PUSH0 PUSH1 0x20 MSTORE DUP1 PUSH0 MSTORE PUSH1 0x40 PUSH0 KECCAK256 PUSH0 SWAP2 POP SWAP1 POP DUP1 SLOAD PUSH2 0x2A41 SWAP1 PUSH2 0x441E JUMP JUMPDEST DUP1 PUSH1 0x1F ADD PUSH1 0x20 DUP1 SWAP2 DIV MUL PUSH1 0x20 ADD PUSH1 0x40 MLOAD SWAP1 DUP2 ADD PUSH1 0x40 MSTORE DUP1 SWAP3 SWAP2 SWAP1 DUP2 DUP2 MSTORE PUSH1 0x20 ADD DUP3 DUP1 SLOAD PUSH2 0x2A6D SWAP1 PUSH2 0x441E JUMP JUMPDEST DUP1 ISZERO PUSH2 0x2AB8 JUMPI DUP1 PUSH1 0x1F LT PUSH2 0x2A8F JUMPI PUSH2 0x100 DUP1 DUP4 SLOAD DIV MUL DUP4 MSTORE SWAP2 PUSH1 0x20 ADD SWAP2 PUSH2 0x2AB8 JUMP JUMPDEST DUP3 ADD SWAP2 SWAP1 PUSH0 MSTORE PUSH1 0x20 PUSH0 KECCAK256 SWAP1 JUMPDEST DUP2 SLOAD DUP2 MSTORE SWAP1 PUSH1 0x1 ADD SWAP1 PUSH1 0x20 ADD DUP1 DUP4 GT PUSH2 0x2A9B JUMPI DUP3 SWAP1 SUB PUSH1 0x1F AND DUP3 ADD SWAP2 JUMPDEST POP POP POP POP POP DUP2 JUMP JUMPDEST PUSH20 0x0 PUSH4 0xE8C2CB16 PUSH1 0x6 PUSH1 0x40 MLOAD DUP3 PUSH4 0xFFFFFFFF AND PUSH1 0xE0 SHL DUP2 MSTORE PUSH1 0x4 ADD PUSH2 0x2AF8 SWAP2 SWAP1 PUSH2 0x552E JUMP JUMPDEST PUSH1 0x20 PUSH1 0x40 MLOAD DUP1 DUP4 SUB DUP2 DUP7 GAS DELEGATECALL ISZERO DUP1 ISZERO PUSH2 0x2B13 JUMPI RETURNDATASIZE PUSH0 DUP1 RETURNDATACOPY RETURNDATASIZE PUSH0 REVERT JUMPDEST POP POP POP POP PUSH1 0x40 MLOAD RETURNDATASIZE PUSH1 0x1F NOT PUSH1 0x1F DUP3 ADD AND DUP3 ADD DUP1 PUSH1 0x40 MSTORE POP DUP2 ADD SWAP1 PUSH2 0x2B37 SWAP2 SWAP1 PUSH2 0x40BC JUMP JUMPDEST POP JUMP JUMPDEST PUSH1 0x2 SLOAD DUP2 JUMP JUMPDEST ADDRESS PUSH20 0xFFFFFFFFFFFFFFFFFFFFFFFFFFFFFFFFFFFFFFFF AND PUSH4 0x124258C6 PUSH1 0x1 PUSH1 0x40 MLOAD DUP3 PUSH4 0xFFFFFFFF AND PUSH1 0xE0 SHL DUP2 MSTORE PUSH1 0x4 ADD PUSH2 0x2B7A SWAP2 SWAP1 PUSH2 0x5583 JUMP JUMPDEST PUSH1 0x20 PUSH1 0x40 MLOAD DUP1 DUP4 SUB DUP2 PUSH0 DUP8 GAS CALL SWAP3 POP POP POP DUP1 ISZERO PUSH2 0x2BB5 JUMPI POP PUSH1 0x40 MLOAD RETURNDATASIZE PUSH1 0x1F NOT PUSH1 0x1F DUP3 ADD AND DUP3 ADD DUP1 PUSH1 0x40 MSTORE POP DUP2 ADD SWAP1 PUSH2 0x2BB2 SWAP2 SWAP1 PUSH2 0x40BC JUMP JUMPDEST PUSH1 0x1 JUMPDEST PUSH2 0x2DA5 JUMPI PUSH2 0x2BC1 PUSH2 0x3E9C JUMP JUMPDEST DUP1 PUSH4 0x8C379A0 SUB PUSH2 0x2C5D JUMPI POP PUSH2 0x2BD5 PUSH2 0x3EBB JUMP JUMPDEST DUP1 PUSH2 0x2BE0 JUMPI POP PUSH2 0x2CF7 JUMP JUMPDEST PUSH20 0x0 PUSH4 0xE8C2CB16 DUP3 PUSH1 0x40 MLOAD DUP3 PUSH4 0xFFFFFFFF AND PUSH1 0xE0 SHL DUP2 MSTORE PUSH1 0x4 ADD PUSH2 0x2C17 SWAP2 SWAP1 PUSH2 0x55BE JUMP JUMPDEST PUSH1 0x20 PUSH1 0x40 MLOAD DUP1 DUP4 SUB DUP2 DUP7 GAS DELEGATECALL ISZERO DUP1 ISZERO PUSH2 0x2C32 JUMPI RETURNDATASIZE PUSH0 DUP1 RETURNDATACOPY RETURNDATASIZE PUSH0 REVERT JUMPDEST POP POP POP POP PUSH1 0x40 MLOAD RETURNDATASIZE PUSH1 0x1F NOT PUSH1 0x1F DUP3 ADD AND DUP3 ADD DUP1 PUSH1 0x40 MSTORE POP DUP2 ADD SWAP1 PUSH2 0x2C56 SWAP2 SWAP1 PUSH2 0x40BC JUMP JUMPDEST POP POP PUSH2 0x2DA0 JUMP JUMPDEST PUSH4 0x4E487B71 SUB PUSH2 0x2CF7 JUMPI PUSH2 0x2C6F PUSH2 0x40E7 JUMP JUMPDEST SWAP1 PUSH2 0x2C7A JUMPI POP PUSH2 0x2CF7 JUMP JUMPDEST PUSH20 0x0 PUSH4 0x39DF137F PUSH0 PUSH1 0x40 MLOAD DUP3 PUSH4 0xFFFFFFFF AND PUSH1 0xE0 SHL DUP2 MSTORE PUSH1 0x4 ADD PUSH2 0x2CB1 SWAP2 SWAP1 PUSH2 0x4184 JUMP JUMPDEST PUSH1 0x20 PUSH1 0x40 MLOAD DUP1 DUP4 SUB DUP2 DUP7 GAS DELEGATECALL ISZERO DUP1 ISZERO PUSH2 0x2CCC JUMPI RETURNDATASIZE PUSH0 DUP1 RETURNDATACOPY RETURNDATASIZE PUSH0 REVERT JUMPDEST POP POP POP POP PUSH1 0x40 MLOAD RETURNDATASIZE PUSH1 0x1F NOT PUSH1 0x1F DUP3 ADD AND DUP3 ADD DUP1 PUSH1 0x40 MSTORE POP DUP2 ADD SWAP1 PUSH2 0x2CF0 SWAP2 SWAP1 PUSH2 0x40BC JUMP JUMPDEST POP POP PUSH2 0x2DA0 JUMP JUMPDEST RETURNDATASIZE DUP1 PUSH0 DUP2 EQ PUSH2 0x2D21 JUMPI PUSH1 0x40 MLOAD SWAP2 POP PUSH1 0x1F NOT PUSH1 0x3F RETURNDATASIZE ADD AND DUP3 ADD PUSH1 0x40 MSTORE RETURNDATASIZE DUP3 MSTORE RETURNDATASIZE PUSH0 PUSH1 0x20 DUP5 ADD RETURNDATACOPY PUSH2 0x2D26 JUMP JUMPDEST PUSH1 0x60 SWAP2 POP JUMPDEST POP PUSH20 0x0 PUSH4 0x39DF137F PUSH0 PUSH1 0x40 MLOAD DUP3 PUSH4 0xFFFFFFFF AND PUSH1 0xE0 SHL DUP2 MSTORE PUSH1 0x4 ADD PUSH2 0x2D5E SWAP2 SWAP1 PUSH2 0x564E JUMP JUMPDEST PUSH1 0x20 PUSH1 0x40 MLOAD DUP1 DUP4 SUB DUP2 DUP7 GAS DELEGATECALL ISZERO DUP1 ISZERO PUSH2 0x2D79 JUMPI RETURNDATASIZE PUSH0 DUP1 RETURNDATACOPY RETURNDATASIZE PUSH0 REVERT JUMPDEST POP POP POP POP PUSH1 0x40 MLOAD RETURNDATASIZE PUSH1 0x1F NOT PUSH1 0x1F DUP3 ADD AND DUP3 ADD DUP1 PUSH1 0x40 MSTORE POP DUP2 ADD SWAP1 PUSH2 0x2D9D SWAP2 SWAP1 PUSH2 0x40BC JUMP JUMPDEST POP POP JUMPDEST PUSH2 0x2E21 JUMP JUMPDEST PUSH20 0x0 PUSH4 0x44781A00 DUP3 PUSH1 0x1 PUSH1 0x40 MLOAD DUP4 PUSH4 0xFFFFFFFF AND PUSH1 0xE0 SHL DUP2 MSTORE PUSH1 0x4 ADD PUSH2 0x2DDF SWAP3 SWAP2 SWAP1 PUSH2 0x468A JUMP JUMPDEST PUSH1 0x20 PUSH1 0x40 MLOAD DUP1 DUP4 SUB DUP2 DUP7 GAS DELEGATECALL ISZERO DUP1 ISZERO PUSH2 0x2DFA JUMPI RETURNDATASIZE PUSH0 DUP1 RETURNDATACOPY RETURNDATASIZE PUSH0 REVERT JUMPDEST POP POP POP POP PUSH1 0x40 MLOAD RETURNDATASIZE PUSH1 0x1F NOT PUSH1 0x1F DUP3 ADD AND DUP3 ADD DUP1 PUSH1 0x40 MSTORE POP DUP2 ADD SWAP1 PUSH2 0x2E1E SWAP2 SWAP1 PUSH2 0x40BC JUMP JUMPDEST POP POP JUMPDEST JUMP JUMPDEST PUSH20 0x0 PUSH4 0x39DF137F PUSH2 0x2E47 PUSH1 0x1 PUSH2 0x873 JUMP JUMPDEST PUSH1 0x40 MLOAD DUP3 PUSH4 0xFFFFFFFF AND PUSH1 0xE0 SHL DUP2 MSTORE PUSH1 0x4 ADD PUSH2 0x2E63 SWAP2 SWAP1 PUSH2 0x4C4D JUMP JUMPDEST PUSH1 0x20 PUSH1 0x40 MLOAD DUP1 DUP4 SUB DUP2 DUP7 GAS DELEGATECALL ISZERO DUP1 ISZERO PUSH2 0x2E7E JUMPI RETURNDATASIZE PUSH0 DUP1 RETURNDATACOPY RETURNDATASIZE PUSH0 REVERT JUMPDEST POP POP POP POP PUSH1 0x40 MLOAD RETURNDATASIZE PUSH1 0x1F NOT PUSH1 0x1F DUP3 ADD AND DUP3 ADD DUP1 PUSH1 0x40 MSTORE POP DUP2 ADD SWAP1 PUSH2 0x2EA2 SWAP2 SWAP1 PUSH2 0x40BC JUMP JUMPDEST POP JUMP JUMPDEST PUSH1 0x6 DUP1 SLOAD PUSH2 0x2EB2 SWAP1 PUSH2 0x441E JUMP JUMPDEST DUP1 PUSH1 0x1F ADD PUSH1 0x20 DUP1 SWAP2 DIV MUL PUSH1 0x20 ADD PUSH1 0x40 MLOAD SWAP1 DUP2 ADD PUSH1 0x40 MSTORE DUP1 SWAP3 SWAP2 SWAP1 DUP2 DUP2 MSTORE PUSH1 0x20 ADD DUP3 DUP1 SLOAD PUSH2 0x2EDE SWAP1 PUSH2 0x441E JUMP JUMPDEST DUP1 ISZERO PUSH2 0x2F29 JUMPI DUP1 PUSH1 0x1F LT PUSH2 0x2F00 JUMPI PUSH2 0x100 DUP1 DUP4 SLOAD DIV MUL DUP4 MSTORE SWAP2 PUSH1 0x20 ADD SWAP2 PUSH2 0x2F29 JUMP JUMPDEST DUP3 ADD SWAP2 SWAP1 PUSH0 MSTORE PUSH1 0x20 PUSH0 KECCAK256 SWAP1 JUMPDEST DUP2 SLOAD DUP2 MSTORE SWAP1 PUSH1 0x1 ADD SWAP1 PUSH1 0x20 ADD DUP1 DUP4 GT PUSH2 0x2F0C JUMPI DUP3 SWAP1 SUB PUSH1 0x1F AND DUP3 ADD SWAP2 JUMPDEST POP POP POP POP POP DUP2 JUMP JUMPDEST ADDRESS PUSH20 0xFFFFFFFFFFFFFFFFFFFFFFFFFFFFFFFFFFFFFFFF AND PUSH4 0xEB4439FB PUSH1 0x40 MLOAD DUP2 PUSH4 0xFFFFFFFF AND PUSH1 0xE0 SHL DUP2 MSTORE PUSH1 0x4 ADD PUSH0 PUSH1 0x40 MLOAD DUP1 DUP4 SUB DUP2 PUSH0 DUP8 DUP1 EXTCODESIZE ISZERO DUP1 ISZERO PUSH2 0x2F76 JUMPI PUSH0 DUP1 REVERT JUMPDEST POP GAS CALL SWAP3 POP POP POP DUP1 ISZERO PUSH2 0x2F87 JUMPI POP PUSH1 0x1 JUMPDEST PUSH2 0x3177 JUMPI PUSH2 0x2F93 PUSH2 0x3E9C JUMP JUMPDEST DUP1 PUSH4 0x8C379A0 SUB PUSH2 0x302F JUMPI POP PUSH2 0x2FA7 PUSH2 0x3EBB JUMP JUMPDEST DUP1 PUSH2 0x2FB2 JUMPI POP PUSH2 0x30C9 JUMP JUMPDEST PUSH20 0x0 PUSH4 0xE8C2CB16 DUP3 PUSH1 0x40 MLOAD DUP3 PUSH4 0xFFFFFFFF AND PUSH1 0xE0 SHL DUP2 MSTORE PUSH1 0x4 ADD PUSH2 0x2FE9 SWAP2 SWAP1 PUSH2 0x404C JUMP JUMPDEST PUSH1 0x20 PUSH1 0x40 MLOAD DUP1 DUP4 SUB DUP2 DUP7 GAS DELEGATECALL ISZERO DUP1 ISZERO PUSH2 0x3004 JUMPI RETURNDATASIZE PUSH0 DUP1 RETURNDATACOPY RETURNDATASIZE PUSH0 REVERT JUMPDEST POP POP POP POP PUSH1 0x40 MLOAD RETURNDATASIZE PUSH1 0x1F NOT PUSH1 0x1F DUP3 ADD AND DUP3 ADD DUP1 PUSH1 0x40 MSTORE POP DUP2 ADD SWAP1 PUSH2 0x3028 SWAP2 SWAP1 PUSH2 0x40BC JUMP JUMPDEST POP POP PUSH2 0x3172 JUMP JUMPDEST PUSH4 0x4E487B71 SUB PUSH2 0x30C9 JUMPI PUSH2 0x3041 PUSH2 0x40E7 JUMP JUMPDEST SWAP1 PUSH2 0x304C JUMPI POP PUSH2 0x30C9 JUMP JUMPDEST PUSH20 0x0 PUSH4 0x39DF137F PUSH0 PUSH1 0x40 MLOAD DUP3 PUSH4 0xFFFFFFFF AND PUSH1 0xE0 SHL DUP2 MSTORE PUSH1 0x4 ADD PUSH2 0x3083 SWAP2 SWAP1 PUSH2 0x4184 JUMP JUMPDEST PUSH1 0x20 PUSH1 0x40 MLOAD DUP1 DUP4 SUB DUP2 DUP7 GAS DELEGATECALL ISZERO DUP1 ISZERO PUSH2 0x309E JUMPI RETURNDATASIZE PUSH0 DUP1 RETURNDATACOPY RETURNDATASIZE PUSH0 REVERT JUMPDEST POP POP POP POP PUSH1 0x40 MLOAD RETURNDATASIZE PUSH1 0x1F NOT PUSH1 0x1F DUP3 ADD AND DUP3 ADD DUP1 PUSH1 0x40 MSTORE POP DUP2 ADD SWAP1 PUSH2 0x30C2 SWAP2 SWAP1 PUSH2 0x40BC JUMP JUMPDEST POP POP PUSH2 0x3172 JUMP JUMPDEST RETURNDATASIZE DUP1 PUSH0 DUP2 EQ PUSH2 0x30F3 JUMPI PUSH1 0x40 MLOAD SWAP2 POP PUSH1 0x1F NOT PUSH1 0x3F RETURNDATASIZE ADD AND DUP3 ADD PUSH1 0x40 MSTORE RETURNDATASIZE DUP3 MSTORE RETURNDATASIZE PUSH0 PUSH1 0x20 DUP5 ADD RETURNDATACOPY PUSH2 0x30F8 JUMP JUMPDEST PUSH1 0x60 SWAP2 POP JUMPDEST POP PUSH20 0x0 PUSH4 0x39DF137F PUSH0 PUSH1 0x40 MLOAD DUP3 PUSH4 0xFFFFFFFF AND PUSH1 0xE0 SHL DUP2 MSTORE PUSH1 0x4 ADD PUSH2 0x3130 SWAP2 SWAP1 PUSH2 0x564E JUMP JUMPDEST PUSH1 0x20 PUSH1 0x40 MLOAD DUP1 DUP4 SUB DUP2 DUP7 GAS DELEGATECALL ISZERO DUP1 ISZERO PUSH2 0x314B JUMPI RETURNDATASIZE PUSH0 DUP1 RETURNDATACOPY RETURNDATASIZE PUSH0 REVERT JUMPDEST POP POP POP POP PUSH1 0x40 MLOAD RETURNDATASIZE PUSH1 0x1F NOT PUSH1 0x1F DUP3 ADD AND DUP3 ADD DUP1 PUSH1 0x40 MSTORE POP DUP2 ADD SWAP1 PUSH2 0x316F SWAP2 SWAP1 PUSH2 0x40BC JUMP JUMPDEST POP POP JUMPDEST PUSH2 0x31FF JUMP JUMPDEST PUSH20 0x0 PUSH4 0x44781A00 PUSH1 0x9 PUSH0 SWAP1 SLOAD SWAP1 PUSH2 0x100 EXP SWAP1 DIV PUSH1 0xFF AND PUSH0 PUSH1 0x40 MLOAD DUP4 PUSH4 0xFFFFFFFF AND PUSH1 0xE0 SHL DUP2 MSTORE PUSH1 0x4 ADD PUSH2 0x31BE SWAP3 SWAP2 SWAP1 PUSH2 0x468A JUMP JUMPDEST PUSH1 0x20 PUSH1 0x40 MLOAD DUP1 DUP4 SUB DUP2 DUP7 GAS DELEGATECALL ISZERO DUP1 ISZERO PUSH2 0x31D9 JUMPI RETURNDATASIZE PUSH0 DUP1 RETURNDATACOPY RETURNDATASIZE PUSH0 REVERT JUMPDEST POP POP POP POP PUSH1 0x40 MLOAD RETURNDATASIZE PUSH1 0x1F NOT PUSH1 0x1F DUP3 ADD AND DUP3 ADD DUP1 PUSH1 0x40 MSTORE POP DUP2 ADD SWAP1 PUSH2 0x31FD SWAP2 SWAP1 PUSH2 0x40BC JUMP JUMPDEST POP JUMPDEST JUMP JUMPDEST PUSH1 0x5 PUSH0 SWAP1 SLOAD SWAP1 PUSH2 0x100 EXP SWAP1 DIV PUSH20 0xFFFFFFFFFFFFFFFFFFFFFFFFFFFFFFFFFFFFFFFF AND PUSH20 0xFFFFFFFFFFFFFFFFFFFFFFFFFFFFFFFFFFFFFFFF AND CALLER PUSH20 0xFFFFFFFFFFFFFFFFFFFFFFFFFFFFFFFFFFFFFFFF AND EQ PUSH2 0x3290 JUMPI PUSH1 0x40 MLOAD PUSH32 0x8C379A000000000000000000000000000000000000000000000000000000000 DUP2 MSTORE PUSH1 0x4 ADD PUSH2 0x3287 SWAP1 PUSH2 0x46E6 JUMP JUMPDEST PUSH1 0x40 MLOAD DUP1 SWAP2 SUB SWAP1 REVERT JUMPDEST PUSH1 0x1 ISZERO ISZERO PUSH1 0xC PUSH0 SWAP1 SLOAD SWAP1 PUSH2 0x100 EXP SWAP1 DIV PUSH1 0xFF AND ISZERO ISZERO EQ PUSH2 0x32E5 JUMPI PUSH1 0x40 MLOAD PUSH32 0x8C379A000000000000000000000000000000000000000000000000000000000 DUP2 MSTORE PUSH1 0x4 ADD PUSH2 0x32DC SWAP1 PUSH2 0x43D3 JUMP JUMPDEST PUSH1 0x40 MLOAD DUP1 SWAP2 SUB SWAP1 REVERT JUMPDEST PUSH1 0x2 DUP1 SLOAD LT ISZERO PUSH2 0x332A JUMPI PUSH1 0x40 MLOAD PUSH32 0x8C379A000000000000000000000000000000000000000000000000000000000 DUP2 MSTORE PUSH1 0x4 ADD PUSH2 0x3321 SWAP1 PUSH2 0x56EA JUMP JUMPDEST PUSH1 0x40 MLOAD DUP1 SWAP2 SUB SWAP1 REVERT JUMPDEST PUSH1 0x2 PUSH1 0x3 SLOAD LT ISZERO PUSH2 0x3370 JUMPI PUSH1 0x40 MLOAD PUSH32 0x8C379A000000000000000000000000000000000000000000000000000000000 DUP2 MSTORE PUSH1 0x4 ADD PUSH2 0x3367 SWAP1 PUSH2 0x5778 JUMP JUMPDEST PUSH1 0x40 MLOAD DUP1 SWAP2 SUB SWAP1 REVERT JUMPDEST PUSH1 0xB SLOAD NUMBER LT PUSH2 0x33B4 JUMPI PUSH1 0x40 MLOAD PUSH32 0x8C379A000000000000000000000000000000000000000000000000000000000 DUP2 MSTORE PUSH1 0x4 ADD PUSH2 0x33AB SWAP1 PUSH2 0x5806 JUMP JUMPDEST PUSH1 0x40 MLOAD DUP1 SWAP2 SUB SWAP1 REVERT JUMPDEST PUSH1 0x1 PUSH1 0x9 PUSH0 PUSH2 0x100 EXP DUP2 SLOAD DUP2 PUSH1 0xFF MUL NOT AND SWAP1 DUP4 ISZERO ISZERO MUL OR SWAP1 SSTORE POP JUMP JUMPDEST ADDRESS PUSH20 0xFFFFFFFFFFFFFFFFFFFFFFFFFFFFFFFFFFFFFFFF AND PUSH4 0x124258C6 PUSH1 0x1 PUSH1 0x40 MLOAD DUP3 PUSH4 0xFFFFFFFF AND PUSH1 0xE0 SHL DUP2 MSTORE PUSH1 0x4 ADD PUSH2 0x340A SWAP2 SWAP1 PUSH2 0x5583 JUMP JUMPDEST PUSH1 0x20 PUSH1 0x40 MLOAD DUP1 DUP4 SUB DUP2 PUSH0 DUP8 GAS CALL SWAP3 POP POP POP DUP1 ISZERO PUSH2 0x3445 JUMPI POP PUSH1 0x40 MLOAD RETURNDATASIZE PUSH1 0x1F NOT PUSH1 0x1F DUP3 ADD AND DUP3 ADD DUP1 PUSH1 0x40 MSTORE POP DUP2 ADD SWAP1 PUSH2 0x3442 SWAP2 SWAP1 PUSH2 0x40BC JUMP JUMPDEST PUSH1 0x1 JUMPDEST PUSH2 0x3635 JUMPI PUSH2 0x3451 PUSH2 0x3E9C JUMP JUMPDEST DUP1 PUSH4 0x8C379A0 SUB PUSH2 0x34ED JUMPI POP PUSH2 0x3465 PUSH2 0x3EBB JUMP JUMPDEST DUP1 PUSH2 0x3470 JUMPI POP PUSH2 0x3587 JUMP JUMPDEST PUSH20 0x0 PUSH4 0xE8C2CB16 DUP3 PUSH1 0x40 MLOAD DUP3 PUSH4 0xFFFFFFFF AND PUSH1 0xE0 SHL DUP2 MSTORE PUSH1 0x4 ADD PUSH2 0x34A7 SWAP2 SWAP1 PUSH2 0x5846 JUMP JUMPDEST PUSH1 0x20 PUSH1 0x40 MLOAD DUP1 DUP4 SUB DUP2 DUP7 GAS DELEGATECALL ISZERO DUP1 ISZERO PUSH2 0x34C2 JUMPI RETURNDATASIZE PUSH0 DUP1 RETURNDATACOPY RETURNDATASIZE PUSH0 REVERT JUMPDEST POP POP POP POP PUSH1 0x40 MLOAD RETURNDATASIZE PUSH1 0x1F NOT PUSH1 0x1F DUP3 ADD AND DUP3 ADD DUP1 PUSH1 0x40 MSTORE POP DUP2 ADD SWAP1 PUSH2 0x34E6 SWAP2 SWAP1 PUSH2 0x40BC JUMP JUMPDEST POP POP PUSH2 0x3630 JUMP JUMPDEST PUSH4 0x4E487B71 SUB PUSH2 0x3587 JUMPI PUSH2 0x34FF PUSH2 0x40E7 JUMP JUMPDEST SWAP1 PUSH2 0x350A JUMPI POP PUSH2 0x3587 JUMP JUMPDEST PUSH20 0x0 PUSH4 0x39DF137F PUSH0 PUSH1 0x40 MLOAD DUP3 PUSH4 0xFFFFFFFF AND PUSH1 0xE0 SHL DUP2 MSTORE PUSH1 0x4 ADD PUSH2 0x3541 SWAP2 SWAP1 PUSH2 0x4184 JUMP JUMPDEST PUSH1 0x20 PUSH1 0x40 MLOAD DUP1 DUP4 SUB DUP2 DUP7 GAS DELEGATECALL ISZERO DUP1 ISZERO PUSH2 0x355C JUMPI RETURNDATASIZE PUSH0 DUP1 RETURNDATACOPY RETURNDATASIZE PUSH0 REVERT JUMPDEST POP POP POP POP PUSH1 0x40 MLOAD RETURNDATASIZE PUSH1 0x1F NOT PUSH1 0x1F DUP3 ADD AND DUP3 ADD DUP1 PUSH1 0x40 MSTORE POP DUP2 ADD SWAP1 PUSH2 0x3580 SWAP2 SWAP1 PUSH2 0x40BC JUMP JUMPDEST POP POP PUSH2 0x3630 JUMP JUMPDEST RETURNDATASIZE DUP1 PUSH0 DUP2 EQ PUSH2 0x35B1 JUMPI PUSH1 0x40 MLOAD SWAP2 POP PUSH1 0x1F NOT PUSH1 0x3F RETURNDATASIZE ADD AND DUP3 ADD PUSH1 0x40 MSTORE RETURNDATASIZE DUP3 MSTORE RETURNDATASIZE PUSH0 PUSH1 0x20 DUP5 ADD RETURNDATACOPY PUSH2 0x35B6 JUMP JUMPDEST PUSH1 0x60 SWAP2 POP JUMPDEST POP PUSH20 0x0 PUSH4 0x39DF137F PUSH0 PUSH1 0x40 MLOAD DUP3 PUSH4 0xFFFFFFFF AND PUSH1 0xE0 SHL DUP2 MSTORE PUSH1 0x4 ADD PUSH2 0x35EE SWAP2 SWAP1 PUSH2 0x564E JUMP JUMPDEST PUSH1 0x20 PUSH1 0x40 MLOAD DUP1 DUP4 SUB DUP2 DUP7 GAS DELEGATECALL ISZERO DUP1 ISZERO PUSH2 0x3609 JUMPI RETURNDATASIZE PUSH0 DUP1 RETURNDATACOPY RETURNDATASIZE PUSH0 REVERT JUMPDEST POP POP POP POP PUSH1 0x40 MLOAD RETURNDATASIZE PUSH1 0x1F NOT PUSH1 0x1F DUP3 ADD AND DUP3 ADD DUP1 PUSH1 0x40 MSTORE POP DUP2 ADD SWAP1 PUSH2 0x362D SWAP2 SWAP1 PUSH2 0x40BC JUMP JUMPDEST POP POP JUMPDEST PUSH2 0x36B1 JUMP JUMPDEST PUSH20 0x0 PUSH4 0x44781A00 DUP3 PUSH1 0x1 PUSH1 0x40 MLOAD DUP4 PUSH4 0xFFFFFFFF AND PUSH1 0xE0 SHL DUP2 MSTORE PUSH1 0x4 ADD PUSH2 0x366F SWAP3 SWAP2 SWAP1 PUSH2 0x468A JUMP JUMPDEST PUSH1 0x20 PUSH1 0x40 MLOAD DUP1 DUP4 SUB DUP2 DUP7 GAS DELEGATECALL ISZERO DUP1 ISZERO PUSH2 0x368A JUMPI RETURNDATASIZE PUSH0 DUP1 RETURNDATACOPY RETURNDATASIZE PUSH0 REVERT JUMPDEST POP POP POP POP PUSH1 0x40 MLOAD RETURNDATASIZE PUSH1 0x1F NOT PUSH1 0x1F DUP3 ADD AND DUP3 ADD DUP1 PUSH1 0x40 MSTORE POP DUP2 ADD SWAP1 PUSH2 0x36AE SWAP2 SWAP1 PUSH2 0x40BC JUMP JUMPDEST POP POP JUMPDEST JUMP JUMPDEST PUSH20 0x0 PUSH4 0x767392B3 PUSH1 0xC PUSH0 SWAP1 SLOAD SWAP1 PUSH2 0x100 EXP SWAP1 DIV PUSH1 0xFF AND PUSH1 0x1 PUSH1 0x40 MLOAD DUP4 PUSH4 0xFFFFFFFF AND PUSH1 0xE0 SHL DUP2 MSTORE PUSH1 0x4 ADD PUSH2 0x36FB SWAP3 SWAP2 SWAP1 PUSH2 0x588C JUMP JUMPDEST PUSH1 0x20 PUSH1 0x40 MLOAD DUP1 DUP4 SUB DUP2 DUP7 GAS DELEGATECALL ISZERO DUP1 ISZERO PUSH2 0x3716 JUMPI RETURNDATASIZE PUSH0 DUP1 RETURNDATACOPY RETURNDATASIZE PUSH0 REVERT JUMPDEST POP POP POP POP PUSH1 0x40 MLOAD RETURNDATASIZE PUSH1 0x1F NOT PUSH1 0x1F DUP3 ADD AND DUP3 ADD DUP1 PUSH1 0x40 MSTORE POP DUP2 ADD SWAP1 PUSH2 0x373A SWAP2 SWAP1 PUSH2 0x40BC JUMP JUMPDEST POP PUSH2 0x3743 PUSH2 0x1FC9 JUMP JUMPDEST PUSH20 0x0 PUSH4 0x767392B3 PUSH1 0xC PUSH0 SWAP1 SLOAD SWAP1 PUSH2 0x100 EXP SWAP1 DIV PUSH1 0xFF AND PUSH0 PUSH1 0x40 MLOAD DUP4 PUSH4 0xFFFFFFFF AND PUSH1 0xE0 SHL DUP2 MSTORE PUSH1 0x4 ADD PUSH2 0x378A SWAP3 SWAP2 SWAP1 PUSH2 0x588C JUMP JUMPDEST PUSH1 0x20 PUSH1 0x40 MLOAD DUP1 DUP4 SUB DUP2 DUP7 GAS DELEGATECALL ISZERO DUP1 ISZERO PUSH2 0x37A5 JUMPI RETURNDATASIZE PUSH0 DUP1 RETURNDATACOPY RETURNDATASIZE PUSH0 REVERT JUMPDEST POP POP POP POP PUSH1 0x40 MLOAD RETURNDATASIZE PUSH1 0x1F NOT PUSH1 0x1F DUP3 ADD AND DUP3 ADD DUP1 PUSH1 0x40 MSTORE POP DUP2 ADD SWAP1 PUSH2 0x37C9 SWAP2 SWAP1 PUSH2 0x40BC JUMP JUMPDEST POP JUMP JUMPDEST PUSH1 0x1 ISZERO ISZERO PUSH1 0xC PUSH0 SWAP1 SLOAD SWAP1 PUSH2 0x100 EXP SWAP1 DIV PUSH1 0xFF AND ISZERO ISZERO EQ PUSH2 0x3821 JUMPI PUSH1 0x40 MLOAD PUSH32 0x8C379A000000000000000000000000000000000000000000000000000000000 DUP2 MSTORE PUSH1 0x4 ADD PUSH2 0x3818 SWAP1 PUSH2 0x43D3 JUMP JUMPDEST PUSH1 0x40 MLOAD DUP1 SWAP2 SUB SWAP1 REVERT JUMPDEST PUSH0 DUP1 PUSH0 JUMPDEST PUSH1 0x4 SLOAD DUP2 LT ISZERO PUSH2 0x392C JUMPI PUSH0 PUSH1 0x1 SWAP1 POP PUSH0 PUSH1 0x8 PUSH0 PUSH1 0x7 DUP6 DUP2 SLOAD DUP2 LT PUSH2 0x384C JUMPI PUSH2 0x384B PUSH2 0x58C6 JUMP JUMPDEST JUMPDEST SWAP1 PUSH0 MSTORE PUSH1 0x20 PUSH0 KECCAK256 SWAP1 PUSH1 0x2 MUL ADD PUSH1 0x1 ADD SLOAD DUP2 MSTORE PUSH1 0x20 ADD SWAP1 DUP2 MSTORE PUSH1 0x20 ADD PUSH0 KECCAK256 SLOAD GT ISZERO PUSH2 0x38B3 JUMPI PUSH1 0x8 PUSH0 PUSH1 0x7 DUP5 DUP2 SLOAD DUP2 LT PUSH2 0x3887 JUMPI PUSH2 0x3886 PUSH2 0x58C6 JUMP JUMPDEST JUMPDEST SWAP1 PUSH0 MSTORE PUSH1 0x20 PUSH0 KECCAK256 SWAP1 PUSH1 0x2 MUL ADD PUSH1 0x1 ADD SLOAD DUP2 MSTORE PUSH1 0x20 ADD SWAP1 DUP2 MSTORE PUSH1 0x20 ADD PUSH0 KECCAK256 SLOAD DUP2 PUSH2 0x38B0 SWAP2 SWAP1 PUSH2 0x4657 JUMP JUMPDEST SWAP1 POP JUMPDEST DUP1 PUSH1 0x8 PUSH0 PUSH1 0x7 DUP6 DUP2 SLOAD DUP2 LT PUSH2 0x38CB JUMPI PUSH2 0x38CA PUSH2 0x58C6 JUMP JUMPDEST JUMPDEST SWAP1 PUSH0 MSTORE PUSH1 0x20 PUSH0 KECCAK256 SWAP1 PUSH1 0x2 MUL ADD PUSH1 0x1 ADD SLOAD DUP2 MSTORE PUSH1 0x20 ADD SWAP1 DUP2 MSTORE PUSH1 0x20 ADD PUSH0 KECCAK256 DUP2 SWAP1 SSTORE POP DUP4 DUP2 GT ISZERO PUSH2 0x391E JUMPI DUP1 SWAP4 POP PUSH1 0x7 DUP3 DUP2 SLOAD DUP2 LT PUSH2 0x390B JUMPI PUSH2 0x390A PUSH2 0x58C6 JUMP JUMPDEST JUMPDEST SWAP1 PUSH0 MSTORE PUSH1 0x20 PUSH0 KECCAK256 SWAP1 PUSH1 0x2 MUL ADD PUSH1 0x1 ADD SLOAD SWAP3 POP JUMPDEST POP DUP1 DUP1 PUSH1 0x1 ADD SWAP2 POP POP PUSH2 0x3825 JUMP JUMPDEST POP PUSH0 DUP1 DUP3 DUP2 MSTORE PUSH1 0x20 ADD SWAP1 DUP2 MSTORE PUSH1 0x20 ADD PUSH0 KECCAK256 PUSH1 0x6 SWAP1 DUP2 PUSH2 0x394B SWAP2 SWAP1 PUSH2 0x591A JUMP JUMPDEST POP PUSH0 PUSH1 0x9 PUSH0 PUSH2 0x100 EXP DUP2 SLOAD DUP2 PUSH1 0xFF MUL NOT AND SWAP1 DUP4 ISZERO ISZERO MUL OR SWAP1 SSTORE POP POP POP JUMP JUMPDEST PUSH1 0x40 MLOAD DUP1 PUSH1 0x40 ADD PUSH1 0x40 MSTORE DUP1 PUSH0 PUSH20 0xFFFFFFFFFFFFFFFFFFFFFFFFFFFFFFFFFFFFFFFF AND DUP2 MSTORE PUSH1 0x20 ADD PUSH0 DUP2 MSTORE POP SWAP1 JUMP JUMPDEST PUSH1 0x40 MLOAD DUP1 PUSH1 0x40 ADD PUSH1 0x40 MSTORE DUP1 PUSH1 0x60 DUP2 MSTORE PUSH1 0x20 ADD PUSH0 ISZERO ISZERO DUP2 MSTORE POP SWAP1 JUMP JUMPDEST PUSH0 PUSH1 0x40 MLOAD SWAP1 POP SWAP1 JUMP JUMPDEST PUSH0 DUP1 REVERT JUMPDEST PUSH0 DUP1 REVERT JUMPDEST PUSH0 DUP2 SWAP1 POP SWAP2 SWAP1 POP JUMP JUMPDEST PUSH2 0x39D5 DUP2 PUSH2 0x39C3 JUMP JUMPDEST DUP2 EQ PUSH2 0x39DF JUMPI PUSH0 DUP1 REVERT JUMPDEST POP JUMP JUMPDEST PUSH0 DUP2 CALLDATALOAD SWAP1 POP PUSH2 0x39F0 DUP2 PUSH2 0x39CC JUMP JUMPDEST SWAP3 SWAP2 POP POP JUMP JUMPDEST PUSH0 PUSH1 0x20 DUP3 DUP5 SUB SLT ISZERO PUSH2 0x3A0B JUMPI PUSH2 0x3A0A PUSH2 0x39BB JUMP JUMPDEST JUMPDEST PUSH0 PUSH2 0x3A18 DUP5 DUP3 DUP6 ADD PUSH2 0x39E2 JUMP JUMPDEST SWAP2 POP POP SWAP3 SWAP2 POP POP JUMP JUMPDEST PUSH0 DUP2 ISZERO ISZERO SWAP1 POP SWAP2 SWAP1 POP JUMP JUMPDEST PUSH2 0x3A35 DUP2 PUSH2 0x3A21 JUMP JUMPDEST DUP3 MSTORE POP POP JUMP JUMPDEST PUSH0 PUSH1 0x20 DUP3 ADD SWAP1 POP PUSH2 0x3A4E PUSH0 DUP4 ADD DUP5 PUSH2 0x3A2C JUMP JUMPDEST SWAP3 SWAP2 POP POP JUMP JUMPDEST PUSH0 PUSH20 0xFFFFFFFFFFFFFFFFFFFFFFFFFFFFFFFFFFFFFFFF DUP3 AND SWAP1 POP SWAP2 SWAP1 POP JUMP JUMPDEST PUSH0 PUSH2 0x3A7D DUP3 PUSH2 0x3A54 JUMP JUMPDEST SWAP1 POP SWAP2 SWAP1 POP JUMP JUMPDEST PUSH2 0x3A8D DUP2 PUSH2 0x3A73 JUMP JUMPDEST DUP2 EQ PUSH2 0x3A97 JUMPI PUSH0 DUP1 REVERT JUMPDEST POP JUMP JUMPDEST PUSH0 DUP2 CALLDATALOAD SWAP1 POP PUSH2 0x3AA8 DUP2 PUSH2 0x3A84 JUMP JUMPDEST SWAP3 SWAP2 POP POP JUMP JUMPDEST PUSH0 PUSH1 0x20 DUP3 DUP5 SUB SLT ISZERO PUSH2 0x3AC3 JUMPI PUSH2 0x3AC2 PUSH2 0x39BB JUMP JUMPDEST JUMPDEST PUSH0 PUSH2 0x3AD0 DUP5 DUP3 DUP6 ADD PUSH2 0x3A9A JUMP JUMPDEST SWAP2 POP POP SWAP3 SWAP2 POP POP JUMP JUMPDEST PUSH0 DUP2 MLOAD SWAP1 POP SWAP2 SWAP1 POP JUMP JUMPDEST PUSH0 DUP3 DUP3 MSTORE PUSH1 0x20 DUP3 ADD SWAP1 POP SWAP3 SWAP2 POP POP JUMP JUMPDEST DUP3 DUP2 DUP4 MCOPY PUSH0 DUP4 DUP4 ADD MSTORE POP POP POP JUMP JUMPDEST PUSH0 PUSH1 0x1F NOT PUSH1 0x1F DUP4 ADD AND SWAP1 POP SWAP2 SWAP1 POP JUMP JUMPDEST PUSH0 PUSH2 0x3B1B DUP3 PUSH2 0x3AD9 JUMP JUMPDEST PUSH2 0x3B25 DUP2 DUP6 PUSH2 0x3AE3 JUMP JUMPDEST SWAP4 POP PUSH2 0x3B35 DUP2 DUP6 PUSH1 0x20 DUP7 ADD PUSH2 0x3AF3 JUMP JUMPDEST PUSH2 0x3B3E DUP2 PUSH2 0x3B01 JUMP JUMPDEST DUP5 ADD SWAP2 POP POP SWAP3 SWAP2 POP POP JUMP JUMPDEST PUSH0 PUSH1 0x40 DUP3 ADD SWAP1 POP DUP2 DUP2 SUB PUSH0 DUP4 ADD MSTORE PUSH2 0x3B61 DUP2 DUP6 PUSH2 0x3B11 JUMP JUMPDEST SWAP1 POP PUSH2 0x3B70 PUSH1 0x20 DUP4 ADD DUP5 PUSH2 0x3A2C JUMP JUMPDEST SWAP4 SWAP3 POP POP POP JUMP JUMPDEST PUSH0 DUP1 REVERT JUMPDEST PUSH0 DUP1 REVERT JUMPDEST PUSH32 0x4E487B7100000000000000000000000000000000000000000000000000000000 PUSH0 MSTORE PUSH1 0x41 PUSH1 0x4 MSTORE PUSH1 0x24 PUSH0 REVERT JUMPDEST PUSH2 0x3BB5 DUP3 PUSH2 0x3B01 JUMP JUMPDEST DUP2 ADD DUP2 DUP2 LT PUSH8 0xFFFFFFFFFFFFFFFF DUP3 GT OR ISZERO PUSH2 0x3BD4 JUMPI PUSH2 0x3BD3 PUSH2 0x3B7F JUMP JUMPDEST JUMPDEST DUP1 PUSH1 0x40 MSTORE POP POP POP JUMP JUMPDEST PUSH0 PUSH2 0x3BE6 PUSH2 0x39B2 JUMP JUMPDEST SWAP1 POP PUSH2 0x3BF2 DUP3 DUP3 PUSH2 0x3BAC JUMP JUMPDEST SWAP2 SWAP1 POP JUMP JUMPDEST PUSH0 PUSH8 0xFFFFFFFFFFFFFFFF DUP3 GT ISZERO PUSH2 0x3C11 JUMPI PUSH2 0x3C10 PUSH2 0x3B7F JUMP JUMPDEST JUMPDEST PUSH2 0x3C1A DUP3 PUSH2 0x3B01 JUMP JUMPDEST SWAP1 POP PUSH1 0x20 DUP2 ADD SWAP1 POP SWAP2 SWAP1 POP JUMP JUMPDEST DUP3 DUP2 DUP4 CALLDATACOPY PUSH0 DUP4 DUP4 ADD MSTORE POP POP POP JUMP JUMPDEST PUSH0 PUSH2 0x3C47 PUSH2 0x3C42 DUP5 PUSH2 0x3BF7 JUMP JUMPDEST PUSH2 0x3BDD JUMP JUMPDEST SWAP1 POP DUP3 DUP2 MSTORE PUSH1 0x20 DUP2 ADD DUP5 DUP5 DUP5 ADD GT ISZERO PUSH2 0x3C63 JUMPI PUSH2 0x3C62 PUSH2 0x3B7B JUMP JUMPDEST JUMPDEST PUSH2 0x3C6E DUP5 DUP3 DUP6 PUSH2 0x3C27 JUMP JUMPDEST POP SWAP4 SWAP3 POP POP POP JUMP JUMPDEST PUSH0 DUP3 PUSH1 0x1F DUP4 ADD SLT PUSH2 0x3C8A JUMPI PUSH2 0x3C89 PUSH2 0x3B77 JUMP JUMPDEST JUMPDEST DUP2 CALLDATALOAD PUSH2 0x3C9A DUP5 DUP3 PUSH1 0x20 DUP7 ADD PUSH2 0x3C35 JUMP JUMPDEST SWAP2 POP POP SWAP3 SWAP2 POP POP JUMP JUMPDEST PUSH0 DUP1 PUSH1 0x40 DUP4 DUP6 SUB SLT ISZERO PUSH2 0x3CB9 JUMPI PUSH2 0x3CB8 PUSH2 0x39BB JUMP JUMPDEST JUMPDEST PUSH0 PUSH2 0x3CC6 DUP6 DUP3 DUP7 ADD PUSH2 0x3A9A JUMP JUMPDEST SWAP3 POP POP PUSH1 0x20 DUP4 ADD CALLDATALOAD PUSH8 0xFFFFFFFFFFFFFFFF DUP2 GT ISZERO PUSH2 0x3CE7 JUMPI PUSH2 0x3CE6 PUSH2 0x39BF JUMP JUMPDEST JUMPDEST PUSH2 0x3CF3 DUP6 DUP3 DUP7 ADD PUSH2 0x3C76 JUMP JUMPDEST SWAP2 POP POP SWAP3 POP SWAP3 SWAP1 POP JUMP JUMPDEST PUSH2 0x3D06 DUP2 PUSH2 0x39C3 JUMP JUMPDEST DUP3 MSTORE POP POP JUMP JUMPDEST PUSH0 PUSH1 0x20 DUP3 ADD SWAP1 POP PUSH2 0x3D1F PUSH0 DUP4 ADD DUP5 PUSH2 0x3CFD JUMP JUMPDEST SWAP3 SWAP2 POP POP JUMP JUMPDEST PUSH2 0x3D2E DUP2 PUSH2 0x3A73 JUMP JUMPDEST DUP3 MSTORE POP POP JUMP JUMPDEST PUSH0 PUSH1 0x20 DUP3 ADD SWAP1 POP PUSH2 0x3D47 PUSH0 DUP4 ADD DUP5 PUSH2 0x3D25 JUMP JUMPDEST SWAP3 SWAP2 POP POP JUMP JUMPDEST PUSH0 PUSH1 0x40 DUP3 ADD SWAP1 POP PUSH2 0x3D60 PUSH0 DUP4 ADD DUP6 PUSH2 0x3D25 JUMP JUMPDEST PUSH2 0x3D6D PUSH1 0x20 DUP4 ADD DUP5 PUSH2 0x3CFD JUMP JUMPDEST SWAP4 SWAP3 POP POP POP JUMP JUMPDEST PUSH0 PUSH1 0x20 DUP3 DUP5 SUB SLT ISZERO PUSH2 0x3D89 JUMPI PUSH2 0x3D88 PUSH2 0x39BB JUMP JUMPDEST JUMPDEST PUSH0 DUP3 ADD CALLDATALOAD PUSH8 0xFFFFFFFFFFFFFFFF DUP2 GT ISZERO PUSH2 0x3DA6 JUMPI PUSH2 0x3DA5 PUSH2 0x39BF JUMP JUMPDEST JUMPDEST PUSH2 0x3DB2 DUP5 DUP3 DUP6 ADD PUSH2 0x3C76 JUMP JUMPDEST SWAP2 POP POP SWAP3 SWAP2 POP POP JUMP JUMPDEST PUSH0 PUSH1 0x20 DUP3 ADD SWAP1 POP DUP2 DUP2 SUB PUSH0 DUP4 ADD MSTORE PUSH2 0x3DD3 DUP2 DUP5 PUSH2 0x3B11 JUMP JUMPDEST SWAP1 POP SWAP3 SWAP2 POP POP JUMP JUMPDEST PUSH32 0x44616E69656C7300000000000000000000000000000000000000000000000000 PUSH0 DUP3 ADD MSTORE POP JUMP JUMPDEST PUSH0 PUSH2 0x3E0F PUSH1 0x7 DUP4 PUSH2 0x3AE3 JUMP JUMPDEST SWAP2 POP PUSH2 0x3E1A DUP3 PUSH2 0x3DDB JUMP JUMPDEST PUSH1 0x20 DUP3 ADD SWAP1 POP SWAP2 SWAP1 POP JUMP JUMPDEST PUSH0 PUSH1 0x40 DUP3 ADD SWAP1 POP PUSH2 0x3E38 PUSH0 DUP4 ADD DUP5 PUSH2 0x3D25 JUMP JUMPDEST DUP2 DUP2 SUB PUSH1 0x20 DUP4 ADD MSTORE PUSH2 0x3E49 DUP2 PUSH2 0x3E03 JUMP JUMPDEST SWAP1 POP SWAP3 SWAP2 POP POP JUMP JUMPDEST PUSH0 DUP2 MLOAD SWAP1 POP PUSH2 0x3E5F DUP2 PUSH2 0x39CC JUMP JUMPDEST SWAP3 SWAP2 POP POP JUMP JUMPDEST PUSH0 PUSH1 0x20 DUP3 DUP5 SUB SLT ISZERO PUSH2 0x3E7A JUMPI PUSH2 0x3E79 PUSH2 0x39BB JUMP JUMPDEST JUMPDEST PUSH0 PUSH2 0x3E87 DUP5 DUP3 DUP6 ADD PUSH2 0x3E51 JUMP JUMPDEST SWAP2 POP POP SWAP3 SWAP2 POP POP JUMP JUMPDEST PUSH0 DUP2 PUSH1 0xE0 SHR SWAP1 POP SWAP2 SWAP1 POP JUMP JUMPDEST PUSH0 PUSH1 0x3 RETURNDATASIZE GT ISZERO PUSH2 0x3EB8 JUMPI PUSH1 0x4 PUSH0 DUP1 RETURNDATACOPY PUSH2 0x3EB5 PUSH0 MLOAD PUSH2 0x3E90 JUMP JUMPDEST SWAP1 POP JUMPDEST SWAP1 JUMP JUMPDEST PUSH0 PUSH1 0x44 RETURNDATASIZE LT PUSH2 0x3F47 JUMPI PUSH2 0x3ECC PUSH2 0x39B2 JUMP JUMPDEST PUSH1 0x4 RETURNDATASIZE SUB PUSH1 0x4 DUP3 RETURNDATACOPY DUP1 MLOAD RETURNDATASIZE PUSH1 0x24 DUP3 ADD GT PUSH8 0xFFFFFFFFFFFFFFFF DUP3 GT OR ISZERO PUSH2 0x3EF4 JUMPI POP POP PUSH2 0x3F47 JUMP JUMPDEST DUP1 DUP3 ADD DUP1 MLOAD PUSH8 0xFFFFFFFFFFFFFFFF DUP2 GT ISZERO PUSH2 0x3F12 JUMPI POP POP POP POP PUSH2 0x3F47 JUMP JUMPDEST DUP1 PUSH1 0x20 DUP4 ADD ADD PUSH1 0x4 RETURNDATASIZE SUB DUP6 ADD DUP2 GT ISZERO PUSH2 0x3F2F JUMPI POP POP POP POP POP PUSH2 0x3F47 JUMP JUMPDEST PUSH2 0x3F3E DUP3 PUSH1 0x20 ADD DUP6 ADD DUP7 PUSH2 0x3BAC JUMP JUMPDEST DUP3 SWAP6 POP POP POP POP POP POP JUMPDEST SWAP1 JUMP JUMPDEST PUSH0 DUP3 DUP3 MSTORE PUSH1 0x20 DUP3 ADD SWAP1 POP SWAP3 SWAP2 POP POP JUMP JUMPDEST PUSH0 PUSH2 0x3F64 DUP3 PUSH2 0x3AD9 JUMP JUMPDEST PUSH2 0x3F6E DUP2 DUP6 PUSH2 0x3F4A JUMP JUMPDEST SWAP4 POP PUSH2 0x3F7E DUP2 DUP6 PUSH1 0x20 DUP7 ADD PUSH2 0x3AF3 JUMP JUMPDEST PUSH2 0x3F87 DUP2 PUSH2 0x3B01 JUMP JUMPDEST DUP5 ADD SWAP2 POP POP SWAP3 SWAP2 POP POP JUMP JUMPDEST PUSH32 0x43616E206F6E6C7920626520657865637574656420627920746865206D616E61 PUSH0 DUP3 ADD MSTORE PUSH32 0x6765720000000000000000000000000000000000000000000000000000000000 PUSH1 0x20 DUP3 ADD MSTORE POP JUMP JUMPDEST PUSH0 PUSH2 0x3FEC PUSH1 0x23 DUP4 PUSH2 0x3F4A JUMP JUMPDEST SWAP2 POP PUSH2 0x3FF7 DUP3 PUSH2 0x3F92 JUMP JUMPDEST PUSH1 0x40 DUP3 ADD SWAP1 POP SWAP2 SWAP1 POP JUMP JUMPDEST PUSH32 0x4661696C6564207769746820756E657870656374656420726561736F6E000000 PUSH0 DUP3 ADD MSTORE POP JUMP JUMPDEST PUSH0 PUSH2 0x4036 PUSH1 0x1D DUP4 PUSH2 0x3F4A JUMP JUMPDEST SWAP2 POP PUSH2 0x4041 DUP3 PUSH2 0x4002 JUMP JUMPDEST PUSH1 0x20 DUP3 ADD SWAP1 POP SWAP2 SWAP1 POP JUMP JUMPDEST PUSH0 PUSH1 0x60 DUP3 ADD SWAP1 POP DUP2 DUP2 SUB PUSH0 DUP4 ADD MSTORE PUSH2 0x4064 DUP2 DUP5 PUSH2 0x3F5A JUMP JUMPDEST SWAP1 POP DUP2 DUP2 SUB PUSH1 0x20 DUP4 ADD MSTORE PUSH2 0x4077 DUP2 PUSH2 0x3FE0 JUMP JUMPDEST SWAP1 POP DUP2 DUP2 SUB PUSH1 0x40 DUP4 ADD MSTORE PUSH2 0x408A DUP2 PUSH2 0x402A JUMP JUMPDEST SWAP1 POP SWAP3 SWAP2 POP POP JUMP JUMPDEST PUSH2 0x409B DUP2 PUSH2 0x3A21 JUMP JUMPDEST DUP2 EQ PUSH2 0x40A5 JUMPI PUSH0 DUP1 REVERT JUMPDEST POP JUMP JUMPDEST PUSH0 DUP2 MLOAD SWAP1 POP PUSH2 0x40B6 DUP2 PUSH2 0x4092 JUMP JUMPDEST SWAP3 SWAP2 POP POP JUMP JUMPDEST PUSH0 PUSH1 0x20 DUP3 DUP5 SUB SLT ISZERO PUSH2 0x40D1 JUMPI PUSH2 0x40D0 PUSH2 0x39BB JUMP JUMPDEST JUMPDEST PUSH0 PUSH2 0x40DE DUP5 DUP3 DUP6 ADD PUSH2 0x40A8 JUMP JUMPDEST SWAP2 POP POP SWAP3 SWAP2 POP POP JUMP JUMPDEST PUSH0 DUP1 PUSH1 0x23 RETURNDATASIZE GT ISZERO PUSH2 0x4101 JUMPI PUSH1 0x20 PUSH1 0x4 PUSH0 RETURNDATACOPY PUSH1 0x1 SWAP2 POP PUSH0 MLOAD SWAP1 POP JUMPDEST SWAP1 SWAP2 JUMP JUMPDEST PUSH2 0x410E DUP2 PUSH2 0x3A21 JUMP JUMPDEST DUP3 MSTORE POP POP JUMP JUMPDEST PUSH32 0x4661696C656420756E65787065637465642077697468206572726F7220636F64 PUSH0 DUP3 ADD MSTORE PUSH32 0x6500000000000000000000000000000000000000000000000000000000000000 PUSH1 0x20 DUP3 ADD MSTORE POP JUMP JUMPDEST PUSH0 PUSH2 0x416E PUSH1 0x21 DUP4 PUSH2 0x3F4A JUMP JUMPDEST SWAP2 POP PUSH2 0x4179 DUP3 PUSH2 0x4114 JUMP JUMPDEST PUSH1 0x40 DUP3 ADD SWAP1 POP SWAP2 SWAP1 POP JUMP JUMPDEST PUSH0 PUSH1 0x40 DUP3 ADD SWAP1 POP PUSH2 0x4197 PUSH0 DUP4 ADD DUP5 PUSH2 0x4105 JUMP JUMPDEST DUP2 DUP2 SUB PUSH1 0x20 DUP4 ADD MSTORE PUSH2 0x41A8 DUP2 PUSH2 0x4162 JUMP JUMPDEST SWAP1 POP SWAP3 SWAP2 POP POP JUMP JUMPDEST PUSH32 0x4661696C656420756E6578706563746564000000000000000000000000000000 PUSH0 DUP3 ADD MSTORE POP JUMP JUMPDEST PUSH0 PUSH2 0x41E4 PUSH1 0x11 DUP4 PUSH2 0x3F4A JUMP JUMPDEST SWAP2 POP PUSH2 0x41EF DUP3 PUSH2 0x41B0 JUMP JUMPDEST PUSH1 0x20 DUP3 ADD SWAP1 POP SWAP2 SWAP1 POP JUMP JUMPDEST PUSH0 PUSH1 0x40 DUP3 ADD SWAP1 POP PUSH2 0x420D PUSH0 DUP4 ADD DUP5 PUSH2 0x4105 JUMP JUMPDEST DUP2 DUP2 SUB PUSH1 0x20 DUP4 ADD MSTORE PUSH2 0x421E DUP2 PUSH2 0x41D8 JUMP JUMPDEST SWAP1 POP SWAP3 SWAP2 POP POP JUMP JUMPDEST PUSH2 0x422F DUP2 PUSH2 0x39C3 JUMP JUMPDEST DUP3 MSTORE POP POP JUMP JUMPDEST PUSH0 DUP2 SWAP1 POP SWAP2 SWAP1 POP JUMP JUMPDEST PUSH0 DUP2 SWAP1 POP SWAP2 SWAP1 POP JUMP JUMPDEST PUSH0 PUSH2 0x4261 PUSH2 0x425C PUSH2 0x4257 DUP5 PUSH2 0x4235 JUMP JUMPDEST PUSH2 0x423E JUMP JUMPDEST PUSH2 0x39C3 JUMP JUMPDEST SWAP1 POP SWAP2 SWAP1 POP JUMP JUMPDEST PUSH2 0x4271 DUP2 PUSH2 0x4247 JUMP JUMPDEST DUP3 MSTORE POP POP JUMP JUMPDEST PUSH32 0x4D6574686F6420657865637574696F6E20646964206E6F74206661696C000000 PUSH0 DUP3 ADD MSTORE POP JUMP JUMPDEST PUSH0 PUSH2 0x42AB PUSH1 0x1D DUP4 PUSH2 0x3F4A JUMP JUMPDEST SWAP2 POP PUSH2 0x42B6 DUP3 PUSH2 0x4277 JUMP JUMPDEST PUSH1 0x20 DUP3 ADD SWAP1 POP SWAP2 SWAP1 POP JUMP JUMPDEST PUSH0 PUSH1 0x60 DUP3 ADD SWAP1 POP PUSH2 0x42D4 PUSH0 DUP4 ADD DUP6 PUSH2 0x4226 JUMP JUMPDEST PUSH2 0x42E1 PUSH1 0x20 DUP4 ADD DUP5 PUSH2 0x4268 JUMP JUMPDEST DUP2 DUP2 SUB PUSH1 0x40 DUP4 ADD MSTORE PUSH2 0x42F2 DUP2 PUSH2 0x429F JUMP JUMPDEST SWAP1 POP SWAP4 SWAP3 POP POP POP JUMP JUMPDEST PUSH32 0x43616E20766F7465206F6E6C79207768696C6520766F74696E67206973206F70 PUSH0 DUP3 ADD MSTORE PUSH32 0x656E000000000000000000000000000000000000000000000000000000000000 PUSH1 0x20 DUP3 ADD MSTORE POP JUMP JUMPDEST PUSH0 PUSH2 0x4355 PUSH1 0x22 DUP4 PUSH2 0x3AE3 JUMP JUMPDEST SWAP2 POP PUSH2 0x4360 DUP3 PUSH2 0x42FB JUMP JUMPDEST PUSH1 0x40 DUP3 ADD SWAP1 POP SWAP2 SWAP1 POP JUMP JUMPDEST PUSH0 PUSH1 0x20 DUP3 ADD SWAP1 POP DUP2 DUP2 SUB PUSH0 DUP4 ADD MSTORE PUSH2 0x4382 DUP2 PUSH2 0x4349 JUMP JUMPDEST SWAP1 POP SWAP2 SWAP1 POP JUMP JUMPDEST PUSH32 0x4F6E6C79207768656E20636F6E74726163742069732061637469766500000000 PUSH0 DUP3 ADD MSTORE POP JUMP JUMPDEST PUSH0 PUSH2 0x43BD PUSH1 0x1C DUP4 PUSH2 0x3AE3 JUMP JUMPDEST SWAP2 POP PUSH2 0x43C8 DUP3 PUSH2 0x4389 JUMP JUMPDEST PUSH1 0x20 DUP3 ADD SWAP1 POP SWAP2 SWAP1 POP JUMP JUMPDEST PUSH0 PUSH1 0x20 DUP3 ADD SWAP1 POP DUP2 DUP2 SUB PUSH0 DUP4 ADD MSTORE PUSH2 0x43EA DUP2 PUSH2 0x43B1 JUMP JUMPDEST SWAP1 POP SWAP2 SWAP1 POP JUMP JUMPDEST PUSH32 0x4E487B7100000000000000000000000000000000000000000000000000000000 PUSH0 MSTORE PUSH1 0x22 PUSH1 0x4 MSTORE PUSH1 0x24 PUSH0 REVERT JUMPDEST PUSH0 PUSH1 0x2 DUP3 DIV SWAP1 POP PUSH1 0x1 DUP3 AND DUP1 PUSH2 0x4435 JUMPI PUSH1 0x7F DUP3 AND SWAP2 POP JUMPDEST PUSH1 0x20 DUP3 LT DUP2 SUB PUSH2 0x4448 JUMPI PUSH2 0x4447 PUSH2 0x43F1 JUMP JUMPDEST JUMPDEST POP SWAP2 SWAP1 POP JUMP JUMPDEST PUSH32 0x467269656E6420646F6573206E6F742065786973740000000000000000000000 PUSH0 DUP3 ADD MSTORE POP JUMP JUMPDEST PUSH0 PUSH2 0x4482 PUSH1 0x15 DUP4 PUSH2 0x3AE3 JUMP JUMPDEST SWAP2 POP PUSH2 0x448D DUP3 PUSH2 0x444E JUMP JUMPDEST PUSH1 0x20 DUP3 ADD SWAP1 POP SWAP2 SWAP1 POP JUMP JUMPDEST PUSH0 PUSH1 0x20 DUP3 ADD SWAP1 POP DUP2 DUP2 SUB PUSH0 DUP4 ADD MSTORE PUSH2 0x44AF DUP2 PUSH2 0x4476 JUMP JUMPDEST SWAP1 POP SWAP2 SWAP1 POP JUMP JUMPDEST PUSH32 0x52657374617572616E7420766F74656420646F6573206E6F7420657869737400 PUSH0 DUP3 ADD MSTORE POP JUMP JUMPDEST PUSH0 PUSH2 0x44EA PUSH1 0x1F DUP4 PUSH2 0x3AE3 JUMP JUMPDEST SWAP2 POP PUSH2 0x44F5 DUP3 PUSH2 0x44B6 JUMP JUMPDEST PUSH1 0x20 DUP3 ADD SWAP1 POP SWAP2 SWAP1 POP JUMP JUMPDEST PUSH0 PUSH1 0x20 DUP3 ADD SWAP1 POP DUP2 DUP2 SUB PUSH0 DUP4 ADD MSTORE PUSH2 0x4517 DUP2 PUSH2 0x44DE JUMP JUMPDEST SWAP1 POP SWAP2 SWAP1 POP JUMP JUMPDEST PUSH32 0x467269656E642068617320766F74656420616C72656164790000000000000000 PUSH0 DUP3 ADD MSTORE POP JUMP JUMPDEST PUSH0 PUSH2 0x4552 PUSH1 0x18 DUP4 PUSH2 0x3AE3 JUMP JUMPDEST SWAP2 POP PUSH2 0x455D DUP3 PUSH2 0x451E JUMP JUMPDEST PUSH1 0x20 DUP3 ADD SWAP1 POP SWAP2 SWAP1 POP JUMP JUMPDEST PUSH0 PUSH1 0x20 DUP3 ADD SWAP1 POP DUP2 DUP2 SUB PUSH0 DUP4 ADD MSTORE PUSH2 0x457F DUP2 PUSH2 0x4546 JUMP JUMPDEST SWAP1 POP SWAP2 SWAP1 POP JUMP JUMPDEST PUSH32 0x4E487B7100000000000000000000000000000000000000000000000000000000 PUSH0 MSTORE PUSH1 0x11 PUSH1 0x4 MSTORE PUSH1 0x24 PUSH0 REVERT JUMPDEST PUSH0 PUSH2 0x45BD DUP3 PUSH2 0x39C3 JUMP JUMPDEST SWAP2 POP PUSH32 0xFFFFFFFFFFFFFFFFFFFFFFFFFFFFFFFFFFFFFFFFFFFFFFFFFFFFFFFFFFFFFFFF DUP3 SUB PUSH2 0x45EF JUMPI PUSH2 0x45EE PUSH2 0x4586 JUMP JUMPDEST JUMPDEST PUSH1 0x1 DUP3 ADD SWAP1 POP SWAP2 SWAP1 POP JUMP JUMPDEST PUSH32 0x4E487B7100000000000000000000000000000000000000000000000000000000 PUSH0 MSTORE PUSH1 0x12 PUSH1 0x4 MSTORE PUSH1 0x24 PUSH0 REVERT JUMPDEST PUSH0 PUSH2 0x4631 DUP3 PUSH2 0x39C3 JUMP JUMPDEST SWAP2 POP PUSH2 0x463C DUP4 PUSH2 0x39C3 JUMP JUMPDEST SWAP3 POP DUP3 PUSH2 0x464C JUMPI PUSH2 0x464B PUSH2 0x45FA JUMP JUMPDEST JUMPDEST DUP3 DUP3 DIV SWAP1 POP SWAP3 SWAP2 POP POP JUMP JUMPDEST PUSH0 PUSH2 0x4661 DUP3 PUSH2 0x39C3 JUMP JUMPDEST SWAP2 POP PUSH2 0x466C DUP4 PUSH2 0x39C3 JUMP JUMPDEST SWAP3 POP DUP3 DUP3 ADD SWAP1 POP DUP1 DUP3 GT ISZERO PUSH2 0x4684 JUMPI PUSH2 0x4683 PUSH2 0x4586 JUMP JUMPDEST JUMPDEST SWAP3 SWAP2 POP POP JUMP JUMPDEST PUSH0 PUSH1 0x60 DUP3 ADD SWAP1 POP PUSH2 0x469D PUSH0 DUP4 ADD DUP6 PUSH2 0x4105 JUMP JUMPDEST PUSH2 0x46AA PUSH1 0x20 DUP4 ADD DUP5 PUSH2 0x4105 JUMP JUMPDEST DUP2 DUP2 SUB PUSH1 0x40 DUP4 ADD MSTORE PUSH2 0x46BB DUP2 PUSH2 0x429F JUMP JUMPDEST SWAP1 POP SWAP4 SWAP3 POP POP POP JUMP JUMPDEST PUSH0 PUSH2 0x46D0 PUSH1 0x23 DUP4 PUSH2 0x3AE3 JUMP JUMPDEST SWAP2 POP PUSH2 0x46DB DUP3 PUSH2 0x3F92 JUMP JUMPDEST PUSH1 0x40 DUP3 ADD SWAP1 POP SWAP2 SWAP1 POP JUMP JUMPDEST PUSH0 PUSH1 0x20 DUP3 ADD SWAP1 POP DUP2 DUP2 SUB PUSH0 DUP4 ADD MSTORE PUSH2 0x46FD DUP2 PUSH2 0x46C4 JUMP JUMPDEST SWAP1 POP SWAP2 SWAP1 POP JUMP JUMPDEST PUSH32 0x43616E2061646420667269656E6473206F722072657374617572616E7473206F PUSH0 DUP3 ADD MSTORE PUSH32 0x6E6C79207768656E20766F74696E672069732064697361626C65640000000000 PUSH1 0x20 DUP3 ADD MSTORE POP JUMP JUMPDEST PUSH0 PUSH2 0x475E PUSH1 0x3B DUP4 PUSH2 0x3AE3 JUMP JUMPDEST SWAP2 POP PUSH2 0x4769 DUP3 PUSH2 0x4704 JUMP JUMPDEST PUSH1 0x40 DUP3 ADD SWAP1 POP SWAP2 SWAP1 POP JUMP JUMPDEST PUSH0 PUSH1 0x20 DUP3 ADD SWAP1 POP DUP2 DUP2 SUB PUSH0 DUP4 ADD MSTORE PUSH2 0x478B DUP2 PUSH2 0x4752 JUMP JUMPDEST SWAP1 POP SWAP2 SWAP1 POP JUMP JUMPDEST PUSH32 0x54696D656F757420726561636865640000000000000000000000000000000000 PUSH0 DUP3 ADD MSTORE POP JUMP JUMPDEST PUSH0 PUSH2 0x47C6 PUSH1 0xF DUP4 PUSH2 0x3AE3 JUMP JUMPDEST SWAP2 POP PUSH2 0x47D1 DUP3 PUSH2 0x4792 JUMP JUMPDEST PUSH1 0x20 DUP3 ADD SWAP1 POP SWAP2 SWAP1 POP JUMP JUMPDEST PUSH0 PUSH1 0x20 DUP3 ADD SWAP1 POP DUP2 DUP2 SUB PUSH0 DUP4 ADD MSTORE PUSH2 0x47F3 DUP2 PUSH2 0x47BA JUMP JUMPDEST SWAP1 POP SWAP2 SWAP1 POP JUMP JUMPDEST PUSH32 0x467269656E6420616C7265616479206578697374730000000000000000000000 PUSH0 DUP3 ADD MSTORE POP JUMP JUMPDEST PUSH0 PUSH2 0x482E PUSH1 0x15 DUP4 PUSH2 0x3AE3 JUMP JUMPDEST SWAP2 POP PUSH2 0x4839 DUP3 PUSH2 0x47FA JUMP JUMPDEST PUSH1 0x20 DUP3 ADD SWAP1 POP SWAP2 SWAP1 POP JUMP JUMPDEST PUSH0 PUSH1 0x20 DUP3 ADD SWAP1 POP DUP2 DUP2 SUB PUSH0 DUP4 ADD MSTORE PUSH2 0x485B DUP2 PUSH2 0x4822 JUMP JUMPDEST SWAP1 POP SWAP2 SWAP1 POP JUMP JUMPDEST PUSH0 DUP2 SWAP1 POP DUP2 PUSH0 MSTORE PUSH1 0x20 PUSH0 KECCAK256 SWAP1 POP SWAP2 SWAP1 POP JUMP JUMPDEST PUSH0 PUSH1 0x20 PUSH1 0x1F DUP4 ADD DIV SWAP1 POP SWAP2 SWAP1 POP JUMP JUMPDEST PUSH0 DUP3 DUP3 SHL SWAP1 POP SWAP3 SWAP2 POP POP JUMP JUMPDEST PUSH0 PUSH1 0x8 DUP4 MUL PUSH2 0x48BE PUSH32 0xFFFFFFFFFFFFFFFFFFFFFFFFFFFFFFFFFFFFFFFFFFFFFFFFFFFFFFFFFFFFFFFF DUP3 PUSH2 0x4883 JUMP JUMPDEST PUSH2 0x48C8 DUP7 DUP4 PUSH2 0x4883 JUMP JUMPDEST SWAP6 POP DUP1 NOT DUP5 AND SWAP4 POP DUP1 DUP7 AND DUP5 OR SWAP3 POP POP POP SWAP4 SWAP3 POP POP POP JUMP JUMPDEST PUSH0 PUSH2 0x48FA PUSH2 0x48F5 PUSH2 0x48F0 DUP5 PUSH2 0x39C3 JUMP JUMPDEST PUSH2 0x423E JUMP JUMPDEST PUSH2 0x39C3 JUMP JUMPDEST SWAP1 POP SWAP2 SWAP1 POP JUMP JUMPDEST PUSH0 DUP2 SWAP1 POP SWAP2 SWAP1 POP JUMP JUMPDEST PUSH2 0x4913 DUP4 PUSH2 0x48E0 JUMP JUMPDEST PUSH2 0x4927 PUSH2 0x491F DUP3 PUSH2 0x4901 JUMP JUMPDEST DUP5 DUP5 SLOAD PUSH2 0x488F JUMP JUMPDEST DUP3 SSTORE POP POP POP POP JUMP JUMPDEST PUSH0 SWAP1 JUMP JUMPDEST PUSH2 0x493B PUSH2 0x492F JUMP JUMPDEST PUSH2 0x4946 DUP2 DUP5 DUP5 PUSH2 0x490A JUMP JUMPDEST POP POP POP JUMP JUMPDEST JUMPDEST DUP2 DUP2 LT ISZERO PUSH2 0x4969 JUMPI PUSH2 0x495E PUSH0 DUP3 PUSH2 0x4933 JUMP JUMPDEST PUSH1 0x1 DUP2 ADD SWAP1 POP PUSH2 0x494C JUMP JUMPDEST POP POP JUMP JUMPDEST PUSH1 0x1F DUP3 GT ISZERO PUSH2 0x49AE JUMPI PUSH2 0x497F DUP2 PUSH2 0x4862 JUMP JUMPDEST PUSH2 0x4988 DUP5 PUSH2 0x4874 JUMP JUMPDEST DUP2 ADD PUSH1 0x20 DUP6 LT ISZERO PUSH2 0x4997 JUMPI DUP2 SWAP1 POP JUMPDEST PUSH2 0x49AB PUSH2 0x49A3 DUP6 PUSH2 0x4874 JUMP JUMPDEST DUP4 ADD DUP3 PUSH2 0x494B JUMP JUMPDEST POP POP JUMPDEST POP POP POP JUMP JUMPDEST PUSH0 DUP3 DUP3 SHR SWAP1 POP SWAP3 SWAP2 POP POP JUMP JUMPDEST PUSH0 PUSH2 0x49CE PUSH0 NOT DUP5 PUSH1 0x8 MUL PUSH2 0x49B3 JUMP JUMPDEST NOT DUP1 DUP4 AND SWAP2 POP POP SWAP3 SWAP2 POP POP JUMP JUMPDEST PUSH0 PUSH2 0x49E6 DUP4 DUP4 PUSH2 0x49BF JUMP JUMPDEST SWAP2 POP DUP3 PUSH1 0x2 MUL DUP3 OR SWAP1 POP SWAP3 SWAP2 POP POP JUMP JUMPDEST PUSH2 0x49FF DUP3 PUSH2 0x3AD9 JUMP JUMPDEST PUSH8 0xFFFFFFFFFFFFFFFF DUP2 GT ISZERO PUSH2 0x4A18 JUMPI PUSH2 0x4A17 PUSH2 0x3B7F JUMP JUMPDEST JUMPDEST PUSH2 0x4A22 DUP3 SLOAD PUSH2 0x441E JUMP JUMPDEST PUSH2 0x4A2D DUP3 DUP3 DUP6 PUSH2 0x496D JUMP JUMPDEST PUSH0 PUSH1 0x20 SWAP1 POP PUSH1 0x1F DUP4 GT PUSH1 0x1 DUP2 EQ PUSH2 0x4A5E JUMPI PUSH0 DUP5 ISZERO PUSH2 0x4A4C JUMPI DUP3 DUP8 ADD MLOAD SWAP1 POP JUMPDEST PUSH2 0x4A56 DUP6 DUP3 PUSH2 0x49DB JUMP JUMPDEST DUP7 SSTORE POP PUSH2 0x4ABD JUMP JUMPDEST PUSH1 0x1F NOT DUP5 AND PUSH2 0x4A6C DUP7 PUSH2 0x4862 JUMP JUMPDEST PUSH0 JUMPDEST DUP3 DUP2 LT ISZERO PUSH2 0x4A93 JUMPI DUP5 DUP10 ADD MLOAD DUP3 SSTORE PUSH1 0x1 DUP3 ADD SWAP2 POP PUSH1 0x20 DUP6 ADD SWAP5 POP PUSH1 0x20 DUP2 ADD SWAP1 POP PUSH2 0x4A6E JUMP JUMPDEST DUP7 DUP4 LT ISZERO PUSH2 0x4AB0 JUMPI DUP5 DUP10 ADD MLOAD PUSH2 0x4AAC PUSH1 0x1F DUP10 AND DUP3 PUSH2 0x49BF JUMP JUMPDEST DUP4 SSTORE POP JUMPDEST PUSH1 0x1 PUSH1 0x2 DUP9 MUL ADD DUP9 SSTORE POP POP POP JUMPDEST POP POP POP POP POP POP JUMP JUMPDEST PUSH32 0x53686F756C6420626520657175616C20746F2074727565000000000000000000 PUSH0 DUP3 ADD MSTORE POP JUMP JUMPDEST PUSH0 PUSH2 0x4AF9 PUSH1 0x17 DUP4 PUSH2 0x3F4A JUMP JUMPDEST SWAP2 POP PUSH2 0x4B04 DUP3 PUSH2 0x4AC5 JUMP JUMPDEST PUSH1 0x20 DUP3 ADD SWAP1 POP SWAP2 SWAP1 POP JUMP JUMPDEST PUSH0 PUSH1 0x60 DUP3 ADD SWAP1 POP PUSH2 0x4B22 PUSH0 DUP4 ADD DUP6 PUSH2 0x4105 JUMP JUMPDEST PUSH2 0x4B2F PUSH1 0x20 DUP4 ADD DUP5 PUSH2 0x4105 JUMP JUMPDEST DUP2 DUP2 SUB PUSH1 0x40 DUP4 ADD MSTORE PUSH2 0x4B40 DUP2 PUSH2 0x4AED JUMP JUMPDEST SWAP1 POP SWAP4 SWAP3 POP POP POP JUMP JUMPDEST PUSH0 DUP2 SWAP1 POP SWAP2 SWAP1 POP JUMP JUMPDEST PUSH0 PUSH2 0x4B6C PUSH2 0x4B67 PUSH2 0x4B62 DUP5 PUSH2 0x4B49 JUMP JUMPDEST PUSH2 0x423E JUMP JUMPDEST PUSH2 0x39C3 JUMP JUMPDEST SWAP1 POP SWAP2 SWAP1 POP JUMP JUMPDEST PUSH2 0x4B7C DUP2 PUSH2 0x4B52 JUMP JUMPDEST DUP3 MSTORE POP POP JUMP JUMPDEST PUSH0 PUSH1 0x20 DUP3 ADD SWAP1 POP PUSH2 0x4B95 PUSH0 DUP4 ADD DUP5 PUSH2 0x4B73 JUMP JUMPDEST SWAP3 SWAP2 POP POP JUMP JUMPDEST PUSH32 0x52657374617572616E7420616C72656164792065786973747300000000000000 PUSH0 DUP3 ADD MSTORE POP JUMP JUMPDEST PUSH0 PUSH2 0x4BCF PUSH1 0x19 DUP4 PUSH2 0x3AE3 JUMP JUMPDEST SWAP2 POP PUSH2 0x4BDA DUP3 PUSH2 0x4B9B JUMP JUMPDEST PUSH1 0x20 DUP3 ADD SWAP1 POP SWAP2 SWAP1 POP JUMP JUMPDEST PUSH0 PUSH1 0x20 DUP3 ADD SWAP1 POP DUP2 DUP2 SUB PUSH0 DUP4 ADD MSTORE PUSH2 0x4BFC DUP2 PUSH2 0x4BC3 JUMP JUMPDEST SWAP1 POP SWAP2 SWAP1 POP JUMP JUMPDEST PUSH32 0x566F74696E6720726573756C742073686F756C64206265207472756500000000 PUSH0 DUP3 ADD MSTORE POP JUMP JUMPDEST PUSH0 PUSH2 0x4C37 PUSH1 0x1C DUP4 PUSH2 0x3F4A JUMP JUMPDEST SWAP2 POP PUSH2 0x4C42 DUP3 PUSH2 0x4C03 JUMP JUMPDEST PUSH1 0x20 DUP3 ADD SWAP1 POP SWAP2 SWAP1 POP JUMP JUMPDEST PUSH0 PUSH1 0x40 DUP3 ADD SWAP1 POP PUSH2 0x4C60 PUSH0 DUP4 ADD DUP5 PUSH2 0x4105 JUMP JUMPDEST DUP2 DUP2 SUB PUSH1 0x20 DUP4 ADD MSTORE PUSH2 0x4C71 DUP2 PUSH2 0x4C2B JUMP JUMPDEST SWAP1 POP SWAP3 SWAP2 POP POP JUMP JUMPDEST PUSH2 0x4C82 DUP2 PUSH2 0x3A73 JUMP JUMPDEST DUP3 MSTORE POP POP JUMP JUMPDEST PUSH32 0x4D616E616765722073686F756C64206265206163633000000000000000000000 PUSH0 DUP3 ADD MSTORE POP JUMP JUMPDEST PUSH0 PUSH2 0x4CBC PUSH1 0x16 DUP4 PUSH2 0x3F4A JUMP JUMPDEST SWAP2 POP PUSH2 0x4CC7 DUP3 PUSH2 0x4C88 JUMP JUMPDEST PUSH1 0x20 DUP3 ADD SWAP1 POP SWAP2 SWAP1 POP JUMP JUMPDEST PUSH0 PUSH1 0x60 DUP3 ADD SWAP1 POP PUSH2 0x4CE5 PUSH0 DUP4 ADD DUP6 PUSH2 0x4C79 JUMP JUMPDEST PUSH2 0x4CF2 PUSH1 0x20 DUP4 ADD DUP5 PUSH2 0x4C79 JUMP JUMPDEST DUP2 DUP2 SUB PUSH1 0x40 DUP4 ADD MSTORE PUSH2 0x4D03 DUP2 PUSH2 0x4CB0 JUMP JUMPDEST SWAP1 POP SWAP4 SWAP3 POP POP POP JUMP JUMPDEST PUSH0 DUP2 SWAP1 POP SWAP2 SWAP1 POP JUMP JUMPDEST PUSH0 PUSH2 0x4D2F PUSH2 0x4D2A PUSH2 0x4D25 DUP5 PUSH2 0x4D0C JUMP JUMPDEST PUSH2 0x423E JUMP JUMPDEST PUSH2 0x39C3 JUMP JUMPDEST SWAP1 POP SWAP2 SWAP1 POP JUMP JUMPDEST PUSH2 0x4D3F DUP2 PUSH2 0x4D15 JUMP JUMPDEST DUP3 MSTORE POP POP JUMP JUMPDEST PUSH0 PUSH1 0x20 DUP3 ADD SWAP1 POP PUSH2 0x4D58 PUSH0 DUP4 ADD DUP5 PUSH2 0x4D36 JUMP JUMPDEST SWAP3 SWAP2 POP POP JUMP JUMPDEST PUSH0 DUP2 MLOAD SWAP1 POP PUSH2 0x4D6C DUP2 PUSH2 0x3A84 JUMP JUMPDEST SWAP3 SWAP2 POP POP JUMP JUMPDEST PUSH0 PUSH1 0x20 DUP3 DUP5 SUB SLT ISZERO PUSH2 0x4D87 JUMPI PUSH2 0x4D86 PUSH2 0x39BB JUMP JUMPDEST JUMPDEST PUSH0 PUSH2 0x4D94 DUP5 DUP3 DUP6 ADD PUSH2 0x4D5E JUMP JUMPDEST SWAP2 POP POP SWAP3 SWAP2 POP POP JUMP JUMPDEST PUSH0 DUP2 SWAP1 POP SWAP2 SWAP1 POP JUMP JUMPDEST PUSH0 PUSH2 0x4DC0 PUSH2 0x4DBB PUSH2 0x4DB6 DUP5 PUSH2 0x4D9D JUMP JUMPDEST PUSH2 0x423E JUMP JUMPDEST PUSH2 0x39C3 JUMP JUMPDEST SWAP1 POP SWAP2 SWAP1 POP JUMP JUMPDEST PUSH2 0x4DD0 DUP2 PUSH2 0x4DA6 JUMP JUMPDEST DUP3 MSTORE POP POP JUMP JUMPDEST PUSH0 PUSH1 0x20 DUP3 ADD SWAP1 POP PUSH2 0x4DE9 PUSH0 DUP4 ADD DUP5 PUSH2 0x4DC7 JUMP JUMPDEST SWAP3 SWAP2 POP POP JUMP JUMPDEST PUSH0 DUP2 SWAP1 POP SWAP2 SWAP1 POP JUMP JUMPDEST PUSH0 PUSH2 0x4E12 PUSH2 0x4E0D PUSH2 0x4E08 DUP5 PUSH2 0x4DEF JUMP JUMPDEST PUSH2 0x423E JUMP JUMPDEST PUSH2 0x39C3 JUMP JUMPDEST SWAP1 POP SWAP2 SWAP1 POP JUMP JUMPDEST PUSH2 0x4E22 DUP2 PUSH2 0x4DF8 JUMP JUMPDEST DUP3 MSTORE POP POP JUMP JUMPDEST PUSH0 PUSH1 0x20 DUP3 ADD SWAP1 POP PUSH2 0x4E3B PUSH0 DUP4 ADD DUP5 PUSH2 0x4E19 JUMP JUMPDEST SWAP3 SWAP2 POP POP JUMP JUMPDEST PUSH0 DUP2 SWAP1 POP SWAP2 SWAP1 POP JUMP JUMPDEST PUSH0 PUSH2 0x4E64 PUSH2 0x4E5F PUSH2 0x4E5A DUP5 PUSH2 0x4E41 JUMP JUMPDEST PUSH2 0x423E JUMP JUMPDEST PUSH2 0x39C3 JUMP JUMPDEST SWAP1 POP SWAP2 SWAP1 POP JUMP JUMPDEST PUSH2 0x4E74 DUP2 PUSH2 0x4E4A JUMP JUMPDEST DUP3 MSTORE POP POP JUMP JUMPDEST PUSH0 PUSH1 0x20 DUP3 ADD SWAP1 POP PUSH2 0x4E8D PUSH0 DUP4 ADD DUP5 PUSH2 0x4E6B JUMP JUMPDEST SWAP3 SWAP2 POP POP JUMP JUMPDEST PUSH0 DUP2 SWAP1 POP SWAP2 SWAP1 POP JUMP JUMPDEST PUSH0 PUSH2 0x4EB6 PUSH2 0x4EB1 PUSH2 0x4EAC DUP5 PUSH2 0x4E93 JUMP JUMPDEST PUSH2 0x423E JUMP JUMPDEST PUSH2 0x39C3 JUMP JUMPDEST SWAP1 POP SWAP2 SWAP1 POP JUMP JUMPDEST PUSH2 0x4EC6 DUP2 PUSH2 0x4E9C JUMP JUMPDEST DUP3 MSTORE POP POP JUMP JUMPDEST PUSH0 PUSH1 0x20 DUP3 ADD SWAP1 POP PUSH2 0x4EDF PUSH0 DUP4 ADD DUP5 PUSH2 0x4EBD JUMP JUMPDEST SWAP3 SWAP2 POP POP JUMP JUMPDEST PUSH32 0x54696D656F757420626C6F636B206E756D6265722073686F756C642062652073 PUSH0 DUP3 ADD MSTORE PUSH32 0x6574000000000000000000000000000000000000000000000000000000000000 PUSH1 0x20 DUP3 ADD MSTORE POP JUMP JUMPDEST PUSH0 PUSH2 0x4F3F PUSH1 0x22 DUP4 PUSH2 0x3F4A JUMP JUMPDEST SWAP2 POP PUSH2 0x4F4A DUP3 PUSH2 0x4EE5 JUMP JUMPDEST PUSH1 0x40 DUP3 ADD SWAP1 POP SWAP2 SWAP1 POP JUMP JUMPDEST PUSH0 PUSH1 0x60 DUP3 ADD SWAP1 POP PUSH2 0x4F68 PUSH0 DUP4 ADD DUP6 PUSH2 0x4226 JUMP JUMPDEST PUSH2 0x4F75 PUSH1 0x20 DUP4 ADD DUP5 PUSH2 0x4226 JUMP JUMPDEST DUP2 DUP2 SUB PUSH1 0x40 DUP4 ADD MSTORE PUSH2 0x4F86 DUP2 PUSH2 0x4F33 JUMP JUMPDEST SWAP1 POP SWAP4 SWAP3 POP POP POP JUMP JUMPDEST PUSH32 0x566F74696E672073686F756C6420696E697469616C6C7920626520636C6F7365 PUSH0 DUP3 ADD MSTORE PUSH32 0x6400000000000000000000000000000000000000000000000000000000000000 PUSH1 0x20 DUP3 ADD MSTORE POP JUMP JUMPDEST PUSH0 PUSH2 0x4FE9 PUSH1 0x21 DUP4 PUSH2 0x3F4A JUMP JUMPDEST SWAP2 POP PUSH2 0x4FF4 DUP3 PUSH2 0x4F8F JUMP JUMPDEST PUSH1 0x40 DUP3 ADD SWAP1 POP SWAP2 SWAP1 POP JUMP JUMPDEST PUSH0 PUSH1 0x60 DUP3 ADD SWAP1 POP PUSH2 0x5012 PUSH0 DUP4 ADD DUP6 PUSH2 0x4105 JUMP JUMPDEST PUSH2 0x501F PUSH1 0x20 DUP4 ADD DUP5 PUSH2 0x4105 JUMP JUMPDEST DUP2 DUP2 SUB PUSH1 0x40 DUP4 ADD MSTORE PUSH2 0x5030 DUP2 PUSH2 0x4FDD JUMP JUMPDEST SWAP1 POP SWAP4 SWAP3 POP POP POP JUMP JUMPDEST PUSH32 0x566F74696E672073686F756C64206265206F70656E0000000000000000000000 PUSH0 DUP3 ADD MSTORE POP JUMP JUMPDEST PUSH0 PUSH2 0x506D PUSH1 0x15 DUP4 PUSH2 0x3F4A JUMP JUMPDEST SWAP2 POP PUSH2 0x5078 DUP3 PUSH2 0x5039 JUMP JUMPDEST PUSH1 0x20 DUP3 ADD SWAP1 POP SWAP2 SWAP1 POP JUMP JUMPDEST PUSH0 PUSH1 0x60 DUP3 ADD SWAP1 POP PUSH2 0x5096 PUSH0 DUP4 ADD DUP6 PUSH2 0x4105 JUMP JUMPDEST PUSH2 0x50A3 PUSH1 0x20 DUP4 ADD DUP5 PUSH2 0x4105 JUMP JUMPDEST DUP2 DUP2 SUB PUSH1 0x40 DUP4 ADD MSTORE PUSH2 0x50B4 DUP2 PUSH2 0x5061 JUMP JUMPDEST SWAP1 POP SWAP4 SWAP3 POP POP POP JUMP JUMPDEST PUSH32 0x41746F6D69632043616665000000000000000000000000000000000000000000 PUSH0 DUP3 ADD MSTORE POP JUMP JUMPDEST PUSH0 PUSH2 0x50F1 PUSH1 0xB DUP4 PUSH2 0x3AE3 JUMP JUMPDEST SWAP2 POP PUSH2 0x50FC DUP3 PUSH2 0x50BD JUMP JUMPDEST PUSH1 0x20 DUP3 ADD SWAP1 POP SWAP2 SWAP1 POP JUMP JUMPDEST PUSH0 PUSH1 0x20 DUP3 ADD SWAP1 POP DUP2 DUP2 SUB PUSH0 DUP4 ADD MSTORE PUSH2 0x511E DUP2 PUSH2 0x50E5 JUMP JUMPDEST SWAP1 POP SWAP2 SWAP1 POP JUMP JUMPDEST PUSH0 PUSH1 0x60 DUP3 ADD SWAP1 POP PUSH2 0x5138 PUSH0 DUP4 ADD DUP6 PUSH2 0x4226 JUMP JUMPDEST PUSH2 0x5145 PUSH1 0x20 DUP4 ADD DUP5 PUSH2 0x4E6B JUMP JUMPDEST DUP2 DUP2 SUB PUSH1 0x40 DUP4 ADD MSTORE PUSH2 0x5156 DUP2 PUSH2 0x429F JUMP JUMPDEST SWAP1 POP SWAP4 SWAP3 POP POP POP JUMP JUMPDEST PUSH32 0x53686F756C6420626520657175616C20746F2031000000000000000000000000 PUSH0 DUP3 ADD MSTORE POP JUMP JUMPDEST PUSH0 PUSH2 0x5193 PUSH1 0x14 DUP4 PUSH2 0x3F4A JUMP JUMPDEST SWAP2 POP PUSH2 0x519E DUP3 PUSH2 0x515F JUMP JUMPDEST PUSH1 0x20 DUP3 ADD SWAP1 POP SWAP2 SWAP1 POP JUMP JUMPDEST PUSH0 PUSH1 0x60 DUP3 ADD SWAP1 POP PUSH2 0x51BC PUSH0 DUP4 ADD DUP6 PUSH2 0x4226 JUMP JUMPDEST PUSH2 0x51C9 PUSH1 0x20 DUP4 ADD DUP5 PUSH2 0x4DC7 JUMP JUMPDEST DUP2 DUP2 SUB PUSH1 0x40 DUP4 ADD MSTORE PUSH2 0x51DA DUP2 PUSH2 0x5187 JUMP JUMPDEST SWAP1 POP SWAP4 SWAP3 POP POP POP JUMP JUMPDEST PUSH32 0x53686F756C6420626520657175616C20746F2032000000000000000000000000 PUSH0 DUP3 ADD MSTORE POP JUMP JUMPDEST PUSH0 PUSH2 0x5217 PUSH1 0x14 DUP4 PUSH2 0x3F4A JUMP JUMPDEST SWAP2 POP PUSH2 0x5222 DUP3 PUSH2 0x51E3 JUMP JUMPDEST PUSH1 0x20 DUP3 ADD SWAP1 POP SWAP2 SWAP1 POP JUMP JUMPDEST PUSH0 PUSH1 0x60 DUP3 ADD SWAP1 POP PUSH2 0x5240 PUSH0 DUP4 ADD DUP6 PUSH2 0x4226 JUMP JUMPDEST PUSH2 0x524D PUSH1 0x20 DUP4 ADD DUP5 PUSH2 0x4E19 JUMP JUMPDEST DUP2 DUP2 SUB PUSH1 0x40 DUP4 ADD MSTORE PUSH2 0x525E DUP2 PUSH2 0x520B JUMP JUMPDEST SWAP1 POP SWAP4 SWAP3 POP POP POP JUMP JUMPDEST PUSH32 0x566F74696E672073686F756C6420626520636C6F736564000000000000000000 PUSH0 DUP3 ADD MSTORE POP JUMP JUMPDEST PUSH0 PUSH2 0x529B PUSH1 0x17 DUP4 PUSH2 0x3F4A JUMP JUMPDEST SWAP2 POP PUSH2 0x52A6 DUP3 PUSH2 0x5267 JUMP JUMPDEST PUSH1 0x20 DUP3 ADD SWAP1 POP SWAP2 SWAP1 POP JUMP JUMPDEST PUSH0 PUSH1 0x60 DUP3 ADD SWAP1 POP PUSH2 0x52C4 PUSH0 DUP4 ADD DUP6 PUSH2 0x4105 JUMP JUMPDEST PUSH2 0x52D1 PUSH1 0x20 DUP4 ADD DUP5 PUSH2 0x4105 JUMP JUMPDEST DUP2 DUP2 SUB PUSH1 0x40 DUP4 ADD MSTORE PUSH2 0x52E2 DUP2 PUSH2 0x528F JUMP JUMPDEST SWAP1 POP SWAP4 SWAP3 POP POP POP JUMP JUMPDEST PUSH32 0x53686F756C6420626520657175616C20746F2033000000000000000000000000 PUSH0 DUP3 ADD MSTORE POP JUMP JUMPDEST PUSH0 PUSH2 0x531F PUSH1 0x14 DUP4 PUSH2 0x3F4A JUMP JUMPDEST SWAP2 POP PUSH2 0x532A DUP3 PUSH2 0x52EB JUMP JUMPDEST PUSH1 0x20 DUP3 ADD SWAP1 POP SWAP2 SWAP1 POP JUMP JUMPDEST PUSH0 PUSH1 0x60 DUP3 ADD SWAP1 POP PUSH2 0x5348 PUSH0 DUP4 ADD DUP6 PUSH2 0x4226 JUMP JUMPDEST PUSH2 0x5355 PUSH1 0x20 DUP4 ADD DUP5 PUSH2 0x4E6B JUMP JUMPDEST DUP2 DUP2 SUB PUSH1 0x40 DUP4 ADD MSTORE PUSH2 0x5366 DUP2 PUSH2 0x5313 JUMP JUMPDEST SWAP1 POP SWAP4 SWAP3 POP POP POP JUMP JUMPDEST PUSH32 0x53686F756C6420626520657175616C20746F2034000000000000000000000000 PUSH0 DUP3 ADD MSTORE POP JUMP JUMPDEST PUSH0 PUSH2 0x53A3 PUSH1 0x14 DUP4 PUSH2 0x3F4A JUMP JUMPDEST SWAP2 POP PUSH2 0x53AE DUP3 PUSH2 0x536F JUMP JUMPDEST PUSH1 0x20 DUP3 ADD SWAP1 POP SWAP2 SWAP1 POP JUMP JUMPDEST PUSH0 PUSH1 0x60 DUP3 ADD SWAP1 POP PUSH2 0x53CC PUSH0 DUP4 ADD DUP6 PUSH2 0x4226 JUMP JUMPDEST PUSH2 0x53D9 PUSH1 0x20 DUP4 ADD DUP5 PUSH2 0x4EBD JUMP JUMPDEST DUP2 DUP2 SUB PUSH1 0x40 DUP4 ADD MSTORE PUSH2 0x53EA DUP2 PUSH2 0x5397 JUMP JUMPDEST SWAP1 POP SWAP4 SWAP3 POP POP POP JUMP JUMPDEST PUSH0 DUP2 SLOAD PUSH2 0x53FF DUP2 PUSH2 0x441E JUMP JUMPDEST PUSH2 0x5409 DUP2 DUP7 PUSH2 0x3F4A JUMP JUMPDEST SWAP5 POP PUSH1 0x1 DUP3 AND PUSH0 DUP2 EQ PUSH2 0x5423 JUMPI PUSH1 0x1 DUP2 EQ PUSH2 0x5439 JUMPI PUSH2 0x546B JUMP JUMPDEST PUSH1 0xFF NOT DUP4 AND DUP7 MSTORE DUP2 ISZERO ISZERO PUSH1 0x20 MUL DUP7 ADD SWAP4 POP PUSH2 0x546B JUMP JUMPDEST PUSH2 0x5442 DUP6 PUSH2 0x4862 JUMP JUMPDEST PUSH0 JUMPDEST DUP4 DUP2 LT ISZERO PUSH2 0x5463 JUMPI DUP2 SLOAD DUP2 DUP10 ADD MSTORE PUSH1 0x1 DUP3 ADD SWAP2 POP PUSH1 0x20 DUP2 ADD SWAP1 POP PUSH2 0x5444 JUMP JUMPDEST DUP1 DUP9 ADD SWAP6 POP POP POP JUMPDEST POP POP POP SWAP3 SWAP2 POP POP JUMP JUMPDEST PUSH32 0x556E692043616665000000000000000000000000000000000000000000000000 PUSH0 DUP3 ADD MSTORE POP JUMP JUMPDEST PUSH0 PUSH2 0x54A8 PUSH1 0x8 DUP4 PUSH2 0x3F4A JUMP JUMPDEST SWAP2 POP PUSH2 0x54B3 DUP3 PUSH2 0x5474 JUMP JUMPDEST PUSH1 0x20 DUP3 ADD SWAP1 POP SWAP2 SWAP1 POP JUMP JUMPDEST PUSH32 0x53656C65637465642072657374617572616E742073686F756C6420626520556E PUSH0 DUP3 ADD MSTORE PUSH32 0x6920436166650000000000000000000000000000000000000000000000000000 PUSH1 0x20 DUP3 ADD MSTORE POP JUMP JUMPDEST PUSH0 PUSH2 0x5518 PUSH1 0x26 DUP4 PUSH2 0x3F4A JUMP JUMPDEST SWAP2 POP PUSH2 0x5523 DUP3 PUSH2 0x54BE JUMP JUMPDEST PUSH1 0x40 DUP3 ADD SWAP1 POP SWAP2 SWAP1 POP JUMP JUMPDEST PUSH0 PUSH1 0x60 DUP3 ADD SWAP1 POP DUP2 DUP2 SUB PUSH0 DUP4 ADD MSTORE PUSH2 0x5546 DUP2 DUP5 PUSH2 0x53F3 JUMP JUMPDEST SWAP1 POP DUP2 DUP2 SUB PUSH1 0x20 DUP4 ADD MSTORE PUSH2 0x5559 DUP2 PUSH2 0x549C JUMP JUMPDEST SWAP1 POP DUP2 DUP2 SUB PUSH1 0x40 DUP4 ADD MSTORE PUSH2 0x556C DUP2 PUSH2 0x550C JUMP JUMPDEST SWAP1 POP SWAP3 SWAP2 POP POP JUMP JUMPDEST PUSH2 0x557D DUP2 PUSH2 0x4DA6 JUMP JUMPDEST DUP3 MSTORE POP POP JUMP JUMPDEST PUSH0 PUSH1 0x20 DUP3 ADD SWAP1 POP PUSH2 0x5596 PUSH0 DUP4 ADD DUP5 PUSH2 0x5574 JUMP JUMPDEST SWAP3 SWAP2 POP POP JUMP JUMPDEST PUSH0 PUSH2 0x55A8 PUSH1 0x15 DUP4 PUSH2 0x3F4A JUMP JUMPDEST SWAP2 POP PUSH2 0x55B3 DUP3 PUSH2 0x444E JUMP JUMPDEST PUSH1 0x20 DUP3 ADD SWAP1 POP SWAP2 SWAP1 POP JUMP JUMPDEST PUSH0 PUSH1 0x60 DUP3 ADD SWAP1 POP DUP2 DUP2 SUB PUSH0 DUP4 ADD MSTORE PUSH2 0x55D6 DUP2 DUP5 PUSH2 0x3F5A JUMP JUMPDEST SWAP1 POP DUP2 DUP2 SUB PUSH1 0x20 DUP4 ADD MSTORE PUSH2 0x55E9 DUP2 PUSH2 0x559C JUMP JUMPDEST SWAP1 POP DUP2 DUP2 SUB PUSH1 0x40 DUP4 ADD MSTORE PUSH2 0x55FC DUP2 PUSH2 0x402A JUMP JUMPDEST SWAP1 POP SWAP3 SWAP2 POP POP JUMP JUMPDEST PUSH32 0x4661696C656420756E65787065637465646C7900000000000000000000000000 PUSH0 DUP3 ADD MSTORE POP JUMP JUMPDEST PUSH0 PUSH2 0x5638 PUSH1 0x13 DUP4 PUSH2 0x3F4A JUMP JUMPDEST SWAP2 POP PUSH2 0x5643 DUP3 PUSH2 0x5604 JUMP JUMPDEST PUSH1 0x20 DUP3 ADD SWAP1 POP SWAP2 SWAP1 POP JUMP JUMPDEST PUSH0 PUSH1 0x40 DUP3 ADD SWAP1 POP PUSH2 0x5661 PUSH0 DUP4 ADD DUP5 PUSH2 0x4105 JUMP JUMPDEST DUP2 DUP2 SUB PUSH1 0x20 DUP4 ADD MSTORE PUSH2 0x5672 DUP2 PUSH2 0x562C JUMP JUMPDEST SWAP1 POP SWAP3 SWAP2 POP POP JUMP JUMPDEST PUSH32 0x43616E20766F7465206F6E6C79207768656E2074686572652061726520617420 PUSH0 DUP3 ADD MSTORE PUSH32 0x6C6561737420322072657374617572616E747300000000000000000000000000 PUSH1 0x20 DUP3 ADD MSTORE POP JUMP JUMPDEST PUSH0 PUSH2 0x56D4 PUSH1 0x33 DUP4 PUSH2 0x3AE3 JUMP JUMPDEST SWAP2 POP PUSH2 0x56DF DUP3 PUSH2 0x567A JUMP JUMPDEST PUSH1 0x40 DUP3 ADD SWAP1 POP SWAP2 SWAP1 POP JUMP JUMPDEST PUSH0 PUSH1 0x20 DUP3 ADD SWAP1 POP DUP2 DUP2 SUB PUSH0 DUP4 ADD MSTORE PUSH2 0x5701 DUP2 PUSH2 0x56C8 JUMP JUMPDEST SWAP1 POP SWAP2 SWAP1 POP JUMP JUMPDEST PUSH32 0x43616E20766F7465206F6E6C79207768656E2074686572652061726520617420 PUSH0 DUP3 ADD MSTORE PUSH32 0x6C65617374203220667269656E64730000000000000000000000000000000000 PUSH1 0x20 DUP3 ADD MSTORE POP JUMP JUMPDEST PUSH0 PUSH2 0x5762 PUSH1 0x2F DUP4 PUSH2 0x3AE3 JUMP JUMPDEST SWAP2 POP PUSH2 0x576D DUP3 PUSH2 0x5708 JUMP JUMPDEST PUSH1 0x40 DUP3 ADD SWAP1 POP SWAP2 SWAP1 POP JUMP JUMPDEST PUSH0 PUSH1 0x20 DUP3 ADD SWAP1 POP DUP2 DUP2 SUB PUSH0 DUP4 ADD MSTORE PUSH2 0x578F DUP2 PUSH2 0x5756 JUMP JUMPDEST SWAP1 POP SWAP2 SWAP1 POP JUMP JUMPDEST PUSH32 0x54696D656F7574207265616368656420616E6420766F74696E6720697320636C PUSH0 DUP3 ADD MSTORE PUSH32 0x6F73656400000000000000000000000000000000000000000000000000000000 PUSH1 0x20 DUP3 ADD MSTORE POP JUMP JUMPDEST PUSH0 PUSH2 0x57F0 PUSH1 0x24 DUP4 PUSH2 0x3AE3 JUMP JUMPDEST SWAP2 POP PUSH2 0x57FB DUP3 PUSH2 0x5796 JUMP JUMPDEST PUSH1 0x40 DUP3 ADD SWAP1 POP SWAP2 SWAP1 POP JUMP JUMPDEST PUSH0 PUSH1 0x20 DUP3 ADD SWAP1 POP DUP2 DUP2 SUB PUSH0 DUP4 ADD MSTORE PUSH2 0x581D DUP2 PUSH2 0x57E4 JUMP JUMPDEST SWAP1 POP SWAP2 SWAP1 POP JUMP JUMPDEST PUSH0 PUSH2 0x5830 PUSH1 0x22 DUP4 PUSH2 0x3F4A JUMP JUMPDEST SWAP2 POP PUSH2 0x583B DUP3 PUSH2 0x42FB JUMP JUMPDEST PUSH1 0x40 DUP3 ADD SWAP1 POP SWAP2 SWAP1 POP JUMP JUMPDEST PUSH0 PUSH1 0x60 DUP3 ADD SWAP1 POP DUP2 DUP2 SUB PUSH0 DUP4 ADD MSTORE PUSH2 0x585E DUP2 DUP5 PUSH2 0x3F5A JUMP JUMPDEST SWAP1 POP DUP2 DUP2 SUB PUSH1 0x20 DUP4 ADD MSTORE PUSH2 0x5871 DUP2 PUSH2 0x5824 JUMP JUMPDEST SWAP1 POP DUP2 DUP2 SUB PUSH1 0x40 DUP4 ADD MSTORE PUSH2 0x5884 DUP2 PUSH2 0x402A JUMP JUMPDEST SWAP1 POP SWAP3 SWAP2 POP POP JUMP JUMPDEST PUSH0 PUSH1 0x60 DUP3 ADD SWAP1 POP PUSH2 0x589F PUSH0 DUP4 ADD DUP6 PUSH2 0x4105 JUMP JUMPDEST PUSH2 0x58AC PUSH1 0x20 DUP4 ADD DUP5 PUSH2 0x4105 JUMP JUMPDEST DUP2 DUP2 SUB PUSH1 0x40 DUP4 ADD MSTORE PUSH2 0x58BD DUP2 PUSH2 0x5187 JUMP JUMPDEST SWAP1 POP SWAP4 SWAP3 POP POP POP JUMP JUMPDEST PUSH32 0x4E487B7100000000000000000000000000000000000000000000000000000000 PUSH0 MSTORE PUSH1 0x32 PUSH1 0x4 MSTORE PUSH1 0x24 PUSH0 REVERT JUMPDEST PUSH0 DUP2 SLOAD SWAP1 POP PUSH2 0x5901 DUP2 PUSH2 0x441E JUMP JUMPDEST SWAP1 POP SWAP2 SWAP1 POP JUMP JUMPDEST PUSH0 DUP2 SWAP1 POP DUP2 PUSH0 MSTORE PUSH1 0x20 PUSH0 KECCAK256 SWAP1 POP SWAP2 SWAP1 POP JUMP JUMPDEST DUP2 DUP2 SUB PUSH2 0x5928 JUMPI POP POP PUSH2 0x59FD JUMP JUMPDEST PUSH2 0x5931 DUP3 PUSH2 0x58F3 JUMP JUMPDEST PUSH8 0xFFFFFFFFFFFFFFFF DUP2 GT ISZERO PUSH2 0x594A JUMPI PUSH2 0x5949 PUSH2 0x3B7F JUMP JUMPDEST JUMPDEST PUSH2 0x5954 DUP3 SLOAD PUSH2 0x441E JUMP JUMPDEST PUSH2 0x595F DUP3 DUP3 DUP6 PUSH2 0x496D JUMP JUMPDEST PUSH0 PUSH1 0x1F DUP4 GT PUSH1 0x1 DUP2 EQ PUSH2 0x598C JUMPI PUSH0 DUP5 ISZERO PUSH2 0x597A JUMPI DUP3 DUP8 ADD SLOAD SWAP1 POP JUMPDEST PUSH2 0x5984 DUP6 DUP3 PUSH2 0x49DB JUMP JUMPDEST DUP7 SSTORE POP PUSH2 0x59F6 JUMP JUMPDEST PUSH1 0x1F NOT DUP5 AND PUSH2 0x599A DUP8 PUSH2 0x5908 JUMP JUMPDEST SWAP7 POP PUSH2 0x59A5 DUP7 PUSH2 0x4862 JUMP JUMPDEST PUSH0 JUMPDEST DUP3 DUP2 LT ISZERO PUSH2 0x59CC JUMPI DUP5 DUP10 ADD SLOAD DUP3 SSTORE PUSH1 0x1 DUP3 ADD SWAP2 POP PUSH1 0x1 DUP6 ADD SWAP5 POP PUSH1 0x20 DUP2 ADD SWAP1 POP PUSH2 0x59A7 JUMP JUMPDEST DUP7 DUP4 LT ISZERO PUSH2 0x59E9 JUMPI DUP5 DUP10 ADD SLOAD PUSH2 0x59E5 PUSH1 0x1F DUP10 AND DUP3 PUSH2 0x49BF JUMP JUMPDEST DUP4 SSTORE POP JUMPDEST PUSH1 0x1 PUSH1 0x2 DUP9 MUL ADD DUP9 SSTORE POP POP POP JUMPDEST POP POP POP POP POP POP JUMPDEST JUMP INVALID LOG2 PUSH5 0x6970667358 0x22 SLT KECCAK256 SGT 0x2D CALLDATACOPY 0xE8 0xEF DUP3 STOP 0xEE ADDRESS 0xE2 SGT 0x2E SGT 0xF9 0x2E DUP2 0x4D GASPRICE SHL CALLDATACOPY PUSH0 SWAP8 DUP11 0xBA MCOPY BLOBHASH 0xE1 0xCB PUSH4 0x411C9D64 PUSH20 0x6F6C634300081A00330000000000000000000000 "
		},
		"gasEstimates": {
			"creation": {
				"codeDepositCost": "4618600",
				"executionCost": "infinite",
				"totalCost": "infinite"
			},
			"external": {
				"addFriend(address,string)": "infinite",
				"addRestaurant(string)": "infinite",
				"beforeAll()": "infinite",
				"disableContract()": "28837",
				"doVote(uint256)": "infinite",
				"enableVoting()": "35210",
				"friends(address)": "infinite",
				"isActive()": "2512",
				"manager()": "2620",
				"numFriends()": "2515",
				"numRestaurants()": "2514",
				"numVotes()": "2536",
				"restaurants(uint256)": "infinite",
				"sender()": "2693",
				"setTimeoutDuration(uint256)": "infinite",
				"testAddFriend()": "infinite",
				"testAddFriendFailure()": "infinite",
				"testAddRestaurant()": "infinite",
				"testAddRestaurantFailure()": "infinite",
				"testDisableContract()": "infinite",
				"testDisableContractFailure()": "infinite",
				"testDoVote()": "infinite",
				"testDoVote2()": "infinite",
				"testDoVote3()": "infinite",
				"testDoVoteAfterVotingClosedFailure()": "infinite",
				"testDoVoteAsUnexistedFriendFailure()": "infinite",
				"testEnableVoting()": "infinite",
				"testEnableVotingFailure()": "infinite",
				"testManager()": "infinite",
				"testSetTimeoutDurationFailure()": "infinite",
				"testTimeoutBlockNumber()": "infinite",
				"testVoteOpenAfterVotingClosed()": "infinite",
				"testVotedRestaurant()": "infinite",
				"testsetTimeoutDuration()": "infinite",
				"timeoutBlockNumber()": "2471",
				"voteOpen()": "2577",
				"votedRestaurant()": "infinite",
				"votes(uint256)": "infinite"
			}
		},
		"methodIdentifiers": {
			"addFriend(address,string)": "3b9f708d",
			"addRestaurant(string)": "6d77bd3e",
			"beforeAll()": "7fea0d4b",
			"disableContract()": "894ba833",
			"doVote(uint256)": "124258c6",
			"enableVoting()": "eb4439fb",
			"friends(address)": "1ddabf7a",
			"isActive()": "22f3e2d4",
			"manager()": "481c6a75",
			"numFriends()": "47098f36",
			"numRestaurants()": "b798867f",
			"numVotes()": "a3bef4d7",
			"restaurants(uint256)": "ad5461d8",
			"sender()": "67e404ce",
			"setTimeoutDuration(uint256)": "66063df4",
			"testAddFriend()": "a73fb659",
			"testAddFriendFailure()": "103439cd",
			"testAddRestaurant()": "954ffe97",
			"testAddRestaurantFailure()": "94746c81",
			"testDisableContract()": "fc8d013b",
			"testDisableContractFailure()": "1692cc92",
			"testDoVote()": "84845589",
			"testDoVote2()": "babeb68b",
			"testDoVote3()": "6e17462f",
			"testDoVoteAfterVotingClosedFailure()": "f6d416bc",
			"testDoVoteAsUnexistedFriendFailure()": "b8341dfd",
			"testEnableVoting()": "91420699",
			"testEnableVotingFailure()": "ca1a555c",
			"testManager()": "76da7648",
			"testSetTimeoutDurationFailure()": "65985a95",
			"testTimeoutBlockNumber()": "85629b66",
			"testVoteOpenAfterVotingClosed()": "96400bff",
			"testVotedRestaurant()": "b2897e2e",
			"testsetTimeoutDuration()": "4a6a149b",
			"timeoutBlockNumber()": "5952ccb8",
			"voteOpen()": "788d3851",
			"votedRestaurant()": "c1c16efc",
			"votes(uint256)": "5df81330"
		}
	},
	"abi": [
		{
			"inputs": [
				{
					"internalType": "address",
					"name": "friendAddress",
					"type": "address"
				},
				{
					"internalType": "string",
					"name": "name",
					"type": "string"
				}
			],
			"name": "addFriend",
			"outputs": [
				{
					"internalType": "uint256",
					"name": "",
					"type": "uint256"
				}
			],
			"stateMutability": "nonpayable",
			"type": "function"
		},
		{
			"inputs": [
				{
					"internalType": "string",
					"name": "name",
					"type": "string"
				}
			],
			"name": "addRestaurant",
			"outputs": [
				{
					"internalType": "uint256",
					"name": "",
					"type": "uint256"
				}
			],
			"stateMutability": "nonpayable",
			"type": "function"
		},
		{
			"inputs": [],
			"name": "beforeAll",
			"outputs": [],
			"stateMutability": "nonpayable",
			"type": "function"
		},
		{
			"inputs": [],
			"name": "disableContract",
			"outputs": [],
			"stateMutability": "nonpayable",
			"type": "function"
		},
		{
			"inputs": [
				{
					"internalType": "uint256",
					"name": "restaurant",
					"type": "uint256"
				}
			],
			"name": "doVote",
			"outputs": [
				{
					"internalType": "bool",
					"name": "validVote",
					"type": "bool"
				}
			],
			"stateMutability": "nonpayable",
			"type": "function"
		},
		{
			"inputs": [],
			"name": "enableVoting",
			"outputs": [],
			"stateMutability": "nonpayable",
			"type": "function"
		},
		{
			"inputs": [
				{
					"internalType": "address",
					"name": "",
					"type": "address"
				}
			],
			"name": "friends",
			"outputs": [
				{
					"internalType": "string",
					"name": "name",
					"type": "string"
				},
				{
					"internalType": "bool",
					"name": "voted",
					"type": "bool"
				}
			],
			"stateMutability": "view",
			"type": "function"
		},
		{
			"inputs": [],
			"name": "isActive",
			"outputs": [
				{
					"internalType": "bool",
					"name": "",
					"type": "bool"
				}
			],
			"stateMutability": "view",
			"type": "function"
		},
		{
			"inputs": [],
			"name": "manager",
			"outputs": [
				{
					"internalType": "address",
					"name": "",
					"type": "address"
				}
			],
			"stateMutability": "view",
			"type": "function"
		},
		{
			"inputs": [],
			"name": "numFriends",
			"outputs": [
				{
					"internalType": "uint256",
					"name": "",
					"type": "uint256"
				}
			],
			"stateMutability": "view",
			"type": "function"
		},
		{
			"inputs": [],
			"name": "numRestaurants",
			"outputs": [
				{
					"internalType": "uint256",
					"name": "",
					"type": "uint256"
				}
			],
			"stateMutability": "view",
			"type": "function"
		},
		{
			"inputs": [],
			"name": "numVotes",
			"outputs": [
				{
					"internalType": "uint256",
					"name": "",
					"type": "uint256"
				}
			],
			"stateMutability": "view",
			"type": "function"
		},
		{
			"inputs": [
				{
					"internalType": "uint256",
					"name": "",
					"type": "uint256"
				}
			],
			"name": "restaurants",
			"outputs": [
				{
					"internalType": "string",
					"name": "",
					"type": "string"
				}
			],
			"stateMutability": "view",
			"type": "function"
		},
		{
			"inputs": [],
			"name": "sender",
			"outputs": [
				{
					"internalType": "address",
					"name": "",
					"type": "address"
				}
			],
			"stateMutability": "view",
			"type": "function"
		},
		{
			"inputs": [
				{
					"internalType": "uint256",
					"name": "timeoutDuration",
					"type": "uint256"
				}
			],
			"name": "setTimeoutDuration",
			"outputs": [
				{
					"internalType": "bool",
					"name": "status",
					"type": "bool"
				}
			],
			"stateMutability": "nonpayable",
			"type": "function"
		},
		{
			"inputs": [],
			"name": "testAddFriend",
			"outputs": [],
			"stateMutability": "nonpayable",
			"type": "function"
		},
		{
			"inputs": [],
			"name": "testAddFriendFailure",
			"outputs": [],
			"stateMutability": "nonpayable",
			"type": "function"
		},
		{
			"inputs": [],
			"name": "testAddRestaurant",
			"outputs": [],
			"stateMutability": "nonpayable",
			"type": "function"
		},
		{
			"inputs": [],
			"name": "testAddRestaurantFailure",
			"outputs": [],
			"stateMutability": "nonpayable",
			"type": "function"
		},
		{
			"inputs": [],
			"name": "testDisableContract",
			"outputs": [],
			"stateMutability": "nonpayable",
			"type": "function"
		},
		{
			"inputs": [],
			"name": "testDisableContractFailure",
			"outputs": [],
			"stateMutability": "nonpayable",
			"type": "function"
		},
		{
			"inputs": [],
			"name": "testDoVote",
			"outputs": [],
			"stateMutability": "nonpayable",
			"type": "function"
		},
		{
			"inputs": [],
			"name": "testDoVote2",
			"outputs": [],
			"stateMutability": "nonpayable",
			"type": "function"
		},
		{
			"inputs": [],
			"name": "testDoVote3",
			"outputs": [],
			"stateMutability": "nonpayable",
			"type": "function"
		},
		{
			"inputs": [],
			"name": "testDoVoteAfterVotingClosedFailure",
			"outputs": [],
			"stateMutability": "nonpayable",
			"type": "function"
		},
		{
			"inputs": [],
			"name": "testDoVoteAsUnexistedFriendFailure",
			"outputs": [],
			"stateMutability": "nonpayable",
			"type": "function"
		},
		{
			"inputs": [],
			"name": "testEnableVoting",
			"outputs": [],
			"stateMutability": "nonpayable",
			"type": "function"
		},
		{
			"inputs": [],
			"name": "testEnableVotingFailure",
			"outputs": [],
			"stateMutability": "nonpayable",
			"type": "function"
		},
		{
			"inputs": [],
			"name": "testManager",
			"outputs": [],
			"stateMutability": "nonpayable",
			"type": "function"
		},
		{
			"inputs": [],
			"name": "testSetTimeoutDurationFailure",
			"outputs": [],
			"stateMutability": "nonpayable",
			"type": "function"
		},
		{
			"inputs": [],
			"name": "testTimeoutBlockNumber",
			"outputs": [],
			"stateMutability": "nonpayable",
			"type": "function"
		},
		{
			"inputs": [],
			"name": "testVoteOpenAfterVotingClosed",
			"outputs": [],
			"stateMutability": "nonpayable",
			"type": "function"
		},
		{
			"inputs": [],
			"name": "testVotedRestaurant",
			"outputs": [],
			"stateMutability": "nonpayable",
			"type": "function"
		},
		{
			"inputs": [],
			"name": "testsetTimeoutDuration",
			"outputs": [],
			"stateMutability": "nonpayable",
			"type": "function"
		},
		{
			"inputs": [],
			"name": "timeoutBlockNumber",
			"outputs": [
				{
					"internalType": "uint256",
					"name": "",
					"type": "uint256"
				}
			],
			"stateMutability": "view",
			"type": "function"
		},
		{
			"inputs": [],
			"name": "voteOpen",
			"outputs": [
				{
					"internalType": "bool",
					"name": "",
					"type": "bool"
				}
			],
			"stateMutability": "view",
			"type": "function"
		},
		{
			"inputs": [],
			"name": "votedRestaurant",
			"outputs": [
				{
					"internalType": "string",
					"name": "",
					"type": "string"
				}
			],
			"stateMutability": "view",
			"type": "function"
		},
		{
			"inputs": [
				{
					"internalType": "uint256",
					"name": "",
					"type": "uint256"
				}
			],
			"name": "votes",
			"outputs": [
				{
					"internalType": "address",
					"name": "voterAddress",
					"type": "address"
				},
				{
					"internalType": "uint256",
					"name": "restaurant",
					"type": "uint256"
				}
			],
			"stateMutability": "view",
			"type": "function"
		}
	]
}