{
	"data": {
		"bytecode": {
			"linkReferences": {
				"remix_accounts.sol": {
					"TestsAccounts": [
						{
							"length": 20,
							"start": 8008
						},
						{
							"length": 20,
							"start": 8189
						},
						{
							"length": 20,
							"start": 8371
						},
						{
							"length": 20,
							"start": 8553
						},
						{
							"length": 20,
							"start": 8735
						}
					]
				},
				"remix_tests.sol": {
					"Assert": [
						{
							"length": 20,
							"start": 2470
						},
						{
							"length": 20,
							"start": 2799
						},
						{
							"length": 20,
							"start": 2953
						},
						{
							"length": 20,
							"start": 3126
						},
						{
							"length": 20,
							"start": 3252
						},
						{
							"length": 20,
							"start": 4433
						},
						{
							"length": 20,
							"start": 4587
						},
						{
							"length": 20,
							"start": 4760
						},
						{
							"length": 20,
							"start": 4886
						},
						{
							"length": 20,
							"start": 5380
						},
						{
							"length": 20,
							"start": 5534
						},
						{
							"length": 20,
							"start": 5707
						},
						{
							"length": 20,
							"start": 5833
						},
						{
							"length": 20,
							"start": 7671
						},
						{
							"length": 20,
							"start": 7801
						},
						{
							"length": 20,
							"start": 8919
						},
						{
							"length": 20,
							"start": 9049
						},
						{
							"length": 20,
							"start": 9429
						},
						{
							"length": 20,
							"start": 9572
						},
						{
							"length": 20,
							"start": 9867
						},
						{
							"length": 20,
							"start": 10021
						},
						{
							"length": 20,
							"start": 10194
						},
						{
							"length": 20,
							"start": 10320
						},
						{
							"length": 20,
							"start": 10446
						},
						{
							"length": 20,
							"start": 10629
						},
						{
							"length": 20,
							"start": 10820
						},
						{
							"length": 20,
							"start": 11037
						},
						{
							"length": 20,
							"start": 11254
						},
						{
							"length": 20,
							"start": 11471
						},
						{
							"length": 20,
							"start": 11844
						},
						{
							"length": 20,
							"start": 11972
						},
						{
							"length": 20,
							"start": 12371
						},
						{
							"length": 20,
							"start": 12525
						},
						{
							"length": 20,
							"start": 12698
						},
						{
							"length": 20,
							"start": 12824
						},
						{
							"length": 20,
							"start": 13625
						},
						{
							"length": 20,
							"start": 13779
						},
						{
							"length": 20,
							"start": 13952
						},
						{
							"length": 20,
							"start": 14078
						},
						{
							"length": 20,
							"start": 14204
						},
						{
							"length": 20,
							"start": 14348
						}
					]
				}
			},
			"object": "60806040525f6002555f6003555f60045560405180602001604052805f8152506006908161002d919061030d565b505f60095f6101000a81548160ff0219169083151502179055506001600c5f6101000a81548160ff02191690831515021790555034801561006c575f80fd5b5060643360055f6101000a81548173ffffffffffffffffffffffffffffffffffffffff021916908373ffffffffffffffffffffffffffffffffffffffff1602179055505f81036100bb57606490505b80436100c79190610409565b600b819055505061043c565b5f81519050919050565b7f4e487b71000000000000000000000000000000000000000000000000000000005f52604160045260245ffd5b7f4e487b71000000000000000000000000000000000000000000000000000000005f52602260045260245ffd5b5f600282049050600182168061014e57607f821691505b6020821081036101615761016061010a565b5b50919050565b5f819050815f5260205f209050919050565b5f6020601f8301049050919050565b5f82821b905092915050565b5f600883026101c37fffffffffffffffffffffffffffffffffffffffffffffffffffffffffffffffff82610188565b6101cd8683610188565b95508019841693508086168417925050509392505050565b5f819050919050565b5f819050919050565b5f61021161020c610207846101e5565b6101ee565b6101e5565b9050919050565b5f819050919050565b61022a836101f7565b61023e61023682610218565b848454610194565b825550505050565b5f90565b610252610246565b61025d818484610221565b505050565b5b81811015610280576102755f8261024a565b600181019050610263565b5050565b601f8211156102c55761029681610167565b61029f84610179565b810160208510156102ae578190505b6102c26102ba85610179565b830182610262565b50505b505050565b5f82821c905092915050565b5f6102e55f19846008026102ca565b1980831691505092915050565b5f6102fd83836102d6565b9150826002028217905092915050565b610316826100d3565b67ffffffffffffffff81111561032f5761032e6100dd565b5b6103398254610137565b610344828285610284565b5f60209050601f831160018114610375575f8415610363578287015190505b61036d85826102f2565b8655506103d4565b601f19841661038386610167565b5f5b828110156103aa57848901518255600182019150602085019450602081019050610385565b868310156103c757848901516103c3601f8916826102d6565b8355505b6001600288020188555050505b505050505050565b7f4e487b71000000000000000000000000000000000000000000000000000000005f52601160045260245ffd5b5f610413826101e5565b915061041e836101e5565b9250828201905080821115610436576104356103dc565b5b92915050565b6155dd806104495f395ff3fe608060405234801561000f575f80fd5b5060043610610225575f3560e01c80637fea0d4b1161012e578063ad5461d8116100b6578063ca1a555c1161007a578063ca1a555c14610515578063d50095841461051f578063eb4439fb1461053d578063f6d416bc14610547578063fc8d013b1461055157610225565b8063ad5461d814610495578063b2897e2e146104c5578063b798867f146104cf578063babeb68b146104ed578063c1c16efc146104f757610225565b806391420699116100fd578063914206991461044f57806394746c8114610459578063954ffe9714610463578063a3bef4d71461046d578063a73fb6591461048b57610225565b80637fea0d4b14610427578063848455891461043157806385629b661461043b578063894ba8331461044557610225565b8063481c6a75116101b157806367e404ce1161018057806367e404ce146103a75780636d77bd3e146103c55780636e17462f146103f557806376da7648146103ff578063788d38511461040957610225565b8063481c6a751461031e5780635952ccb81461033c5780635df813301461035a57806366063df41461038b57610225565b80631ddabf7a116101f85780631ddabf7a1461027757806322f3e2d4146102a8578063247bbf18146102c65780633b9f708d146102d057806347098f361461030057610225565b80630c59320114610229578063103439cd14610233578063124258c61461023d5780631692cc921461026d575b5f80fd5b61023161055b565b005b61023b6105e4565b005b61025760048036038101906102529190613674565b6108e7565b60405161026491906136b9565b60405180910390f35b610275610c85565b005b610291600480360381019061028c919061372c565b610f55565b60405161029f9291906137c7565b60405180910390f35b6102b0611007565b6040516102bd91906136b9565b60405180910390f35b6102ce611019565b005b6102ea60048036038101906102e59190613921565b6112fc565b6040516102f7919061398a565b60405180910390f35b6103086115bd565b604051610315919061398a565b60405180910390f35b6103266115c3565b60405161033391906139b2565b60405180910390f35b6103446115e8565b604051610351919061398a565b60405180910390f35b610374600480360381019061036f9190613674565b6115ee565b6040516103829291906139cb565b60405180910390f35b6103a560048036038101906103a09190613674565b61163c565b005b6103af611735565b6040516103bc91906139b2565b60405180910390f35b6103df60048036038101906103da91906139f2565b61175b565b6040516103ec919061398a565b60405180910390f35b6103fd6119ac565b005b610407611a2e565b005b610411611aeb565b60405161041e91906136b9565b60405180910390f35b61042f611afd565b005b610439611e8c565b005b610443611f0e565b005b61044d611f8b565b005b61045761208a565b005b6104616121a3565b005b61046b612483565b005b6104756125f3565b604051610482919061398a565b60405180910390f35b6104936125f9565b005b6104af60048036038101906104aa9190613674565b61295f565b6040516104bc9190613a39565b60405180910390f35b6104cd6129f9565b005b6104d7612a73565b6040516104e4919061398a565b60405180910390f35b6104f5612a79565b005b6104ff612afb565b60405161050c9190613a39565b60405180910390f35b61051d612b87565b005b610527612e57565b60405161053491906139b2565b60405180910390f35b610545612e7f565b005b61054f61304e565b005b610559613331565b005b73__$acbfb1c35000d78352310b16a054a6b106$__63767392b360095f9054906101000a900460ff165f6040518363ffffffff1660e01b81526004016105a2929190613ac2565b602060405180830381865af41580156105bd573d5f803e3d5ffd5b505050506040513d601f19601f820116820180604052508101906105e19190613b26565b50565b3073ffffffffffffffffffffffffffffffffffffffff16633b9f708d60115f9054906101000a900473ffffffffffffffffffffffffffffffffffffffff166040518263ffffffff1660e01b815260040161063e9190613b9b565b6020604051808303815f875af192505050801561067957506040513d601f19601f820116820180604052508101906106769190613bdb565b60015b61086957610685613c12565b806308c379a0036107215750610699613c31565b806106a457506107bb565b73__$acbfb1c35000d78352310b16a054a6b106$__63e8c2cb16826040518263ffffffff1660e01b81526004016106db9190613db2565b602060405180830381865af41580156106f6573d5f803e3d5ffd5b505050506040513d601f19601f8201168201806040525081019061071a9190613b26565b5050610864565b634e487b71036107bb57610733613df8565b9061073e57506107bb565b73__$acbfb1c35000d78352310b16a054a6b106$__6339df137f5f6040518263ffffffff1660e01b81526004016107759190613e86565b602060405180830381865af4158015610790573d5f803e3d5ffd5b505050506040513d601f19601f820116820180604052508101906107b49190613b26565b5050610864565b3d805f81146107e5576040519150601f19603f3d011682016040523d82523d5f602084013e6107ea565b606091505b5073__$acbfb1c35000d78352310b16a054a6b106$__6339df137f5f6040518263ffffffff1660e01b81526004016108229190613efc565b602060405180830381865af415801561083d573d5f803e3d5ffd5b505050506040513d601f19601f820116820180604052508101906108619190613b26565b50505b6108e5565b73__$acbfb1c35000d78352310b16a054a6b106$__63561015e28260056040518363ffffffff1660e01b81526004016108a3929190613fc3565b602060405180830381865af41580156108be573d5f803e3d5ffd5b505050506040513d601f19601f820116820180604052508101906108e29190613b26565b50505b565b5f6001151560095f9054906101000a900460ff1615151461093d576040517f08c379a00000000000000000000000000000000000000000000000000000000081526004016109349061406d565b60405180910390fd5b60011515600c5f9054906101000a900460ff16151514610992576040517f08c379a0000000000000000000000000000000000000000000000000000000008152600401610989906140d5565b60405180910390fd5b5f90505f60015f3373ffffffffffffffffffffffffffffffffffffffff1673ffffffffffffffffffffffffffffffffffffffff1681526020019081526020015f205f0180546109e090614120565b905003610a22576040517f08c379a0000000000000000000000000000000000000000000000000000000008152600401610a199061419a565b60405180910390fd5b5f805f8481526020019081526020015f208054610a3e90614120565b905003610a80576040517f08c379a0000000000000000000000000000000000000000000000000000000008152600401610a7790614202565b60405180910390fd5b60015f3373ffffffffffffffffffffffffffffffffffffffff1673ffffffffffffffffffffffffffffffffffffffff1681526020019081526020015f206001015f9054906101000a900460ff1615610b0d576040517f08c379a0000000000000000000000000000000000000000000000000000000008152600401610b049061426a565b60405180910390fd5b600b544310610b1f57610b1e61344a565b5b600190506001805f3373ffffffffffffffffffffffffffffffffffffffff1673ffffffffffffffffffffffffffffffffffffffff1681526020019081526020015f206001015f6101000a81548160ff02191690831515021790555060045f815480929190610b8c906142b5565b9190505550610b996135e7565b33815f019073ffffffffffffffffffffffffffffffffffffffff16908173ffffffffffffffffffffffffffffffffffffffff168152505082816020018181525050600781908060018154018082558091505060019003905f5260205f2090600202015f909190919091505f820151815f015f6101000a81548173ffffffffffffffffffffffffffffffffffffffff021916908373ffffffffffffffffffffffffffffffffffffffff16021790555060208201518160010155505060016002600354610c649190614329565b610c6e9190614359565b60045410610c7f57610c7e61344a565b5b50919050565b3073ffffffffffffffffffffffffffffffffffffffff1663894ba8336040518163ffffffff1660e01b81526004015f604051808303815f87803b158015610cca575f80fd5b505af1925050508015610cdb575060015b610ecb57610ce7613c12565b806308c379a003610d835750610cfb613c31565b80610d065750610e1d565b73__$acbfb1c35000d78352310b16a054a6b106$__63e8c2cb16826040518263ffffffff1660e01b8152600401610d3d9190613db2565b602060405180830381865af4158015610d58573d5f803e3d5ffd5b505050506040513d601f19601f82011682018060405250810190610d7c9190613b26565b5050610ec6565b634e487b7103610e1d57610d95613df8565b90610da05750610e1d565b73__$acbfb1c35000d78352310b16a054a6b106$__6339df137f5f6040518263ffffffff1660e01b8152600401610dd79190613e86565b602060405180830381865af4158015610df2573d5f803e3d5ffd5b505050506040513d601f19601f82011682018060405250810190610e169190613b26565b5050610ec6565b3d805f8114610e47576040519150601f19603f3d011682016040523d82523d5f602084013e610e4c565b606091505b5073__$acbfb1c35000d78352310b16a054a6b106$__6339df137f5f6040518263ffffffff1660e01b8152600401610e849190613efc565b602060405180830381865af4158015610e9f573d5f803e3d5ffd5b505050506040513d601f19601f82011682018060405250810190610ec39190613b26565b50505b610f53565b73__$acbfb1c35000d78352310b16a054a6b106$__6344781a00600c5f9054906101000a900460ff165f6040518363ffffffff1660e01b8152600401610f1292919061438c565b602060405180830381865af4158015610f2d573d5f803e3d5ffd5b505050506040513d601f19601f82011682018060405250810190610f519190613b26565b505b565b6001602052805f5260405f205f91509050805f018054610f7490614120565b80601f0160208091040260200160405190810160405280929190818152602001828054610fa090614120565b8015610feb5780601f10610fc257610100808354040283529160200191610feb565b820191905f5260205f20905b815481529060010190602001808311610fce57829003601f168201915b505050505090806001015f9054906101000a900460ff16905082565b600c5f9054906101000a900460ff1681565b3073ffffffffffffffffffffffffffffffffffffffff1663124258c660016040518263ffffffff1660e01b815260040161105391906143ff565b6020604051808303815f875af192505050801561108e57506040513d601f19601f8201168201806040525081019061108b9190613b26565b60015b61127e5761109a613c12565b806308c379a00361113657506110ae613c31565b806110b957506111d0565b73__$acbfb1c35000d78352310b16a054a6b106$__63e8c2cb16826040518263ffffffff1660e01b81526004016110f0919061443a565b602060405180830381865af415801561110b573d5f803e3d5ffd5b505050506040513d601f19601f8201168201806040525081019061112f9190613b26565b5050611279565b634e487b71036111d057611148613df8565b9061115357506111d0565b73__$acbfb1c35000d78352310b16a054a6b106$__6339df137f5f6040518263ffffffff1660e01b815260040161118a9190613e86565b602060405180830381865af41580156111a5573d5f803e3d5ffd5b505050506040513d601f19601f820116820180604052508101906111c99190613b26565b5050611279565b3d805f81146111fa576040519150601f19603f3d011682016040523d82523d5f602084013e6111ff565b606091505b5073__$acbfb1c35000d78352310b16a054a6b106$__6339df137f5f6040518263ffffffff1660e01b815260040161123791906144ca565b602060405180830381865af4158015611252573d5f803e3d5ffd5b505050506040513d601f19601f820116820180604052508101906112769190613b26565b50505b6112fa565b73__$acbfb1c35000d78352310b16a054a6b106$__63767392b38260016040518363ffffffff1660e01b81526004016112b892919061438c565b602060405180830381865af41580156112d3573d5f803e3d5ffd5b505050506040513d601f19601f820116820180604052508101906112f79190613b26565b50505b565b5f60055f9054906101000a900473ffffffffffffffffffffffffffffffffffffffff1673ffffffffffffffffffffffffffffffffffffffff163373ffffffffffffffffffffffffffffffffffffffff161461138c576040517f08c379a000000000000000000000000000000000000000000000000000000000815260040161138390614518565b60405180910390fd5b5f151560095f9054906101000a900460ff161515146113e0576040517f08c379a00000000000000000000000000000000000000000000000000000000081526004016113d7906145a6565b60405180910390fd5b600b544310611424576040517f08c379a000000000000000000000000000000000000000000000000000000000815260040161141b9061460e565b60405180910390fd5b60011515600c5f9054906101000a900460ff16151514611479576040517f08c379a0000000000000000000000000000000000000000000000000000000008152600401611470906140d5565b60405180910390fd5b5f60015f8573ffffffffffffffffffffffffffffffffffffffff1673ffffffffffffffffffffffffffffffffffffffff1681526020019081526020015f205f0180546114c490614120565b905014611506576040517f08c379a00000000000000000000000000000000000000000000000000000000081526004016114fd90614676565b60405180910390fd5b60035f815480929190611518906142b5565b9190505550611525613615565b82815f01819052505f8160200190151590811515815250508060015f8673ffffffffffffffffffffffffffffffffffffffff1673ffffffffffffffffffffffffffffffffffffffff1681526020019081526020015f205f820151815f01908161158e9190614828565b506020820151816001015f6101000a81548160ff02191690831515021790555090505060035491505092915050565b60035481565b60055f9054906101000a900473ffffffffffffffffffffffffffffffffffffffff1681565b600b5481565b600781815481106115fd575f80fd5b905f5260205f2090600202015f91509050805f015f9054906101000a900473ffffffffffffffffffffffffffffffffffffffff16908060010154905082565b60055f9054906101000a900473ffffffffffffffffffffffffffffffffffffffff1673ffffffffffffffffffffffffffffffffffffffff163373ffffffffffffffffffffffffffffffffffffffff16146116cb576040517f08c379a00000000000000000000000000000000000000000000000000000000081526004016116c290614518565b60405180910390fd5b60011515600c5f9054906101000a900460ff16151514611720576040517f08c379a0000000000000000000000000000000000000000000000000000000008152600401611717906140d5565b60405180910390fd5b804361172c9190614359565b600b8190555050565b600c60019054906101000a900473ffffffffffffffffffffffffffffffffffffffff1681565b5f60055f9054906101000a900473ffffffffffffffffffffffffffffffffffffffff1673ffffffffffffffffffffffffffffffffffffffff163373ffffffffffffffffffffffffffffffffffffffff16146117eb576040517f08c379a00000000000000000000000000000000000000000000000000000000081526004016117e290614518565b60405180910390fd5b5f151560095f9054906101000a900460ff1615151461183f576040517f08c379a0000000000000000000000000000000000000000000000000000000008152600401611836906145a6565b60405180910390fd5b600b544310611883576040517f08c379a000000000000000000000000000000000000000000000000000000000815260040161187a9061460e565b60405180910390fd5b60011515600c5f9054906101000a900460ff161515146118d8576040517f08c379a00000000000000000000000000000000000000000000000000000000081526004016118cf906140d5565b60405180910390fd5b5f82805190602001209050600a5f8281526020019081526020015f205f9054906101000a900460ff1615611941576040517f08c379a000000000000000000000000000000000000000000000000000000000815260040161193890614941565b60405180910390fd5b60025f815480929190611953906142b5565b9190505550825f8060025481526020019081526020015f2090816119779190614828565b506001600a5f8381526020019081526020015f205f6101000a81548160ff021916908315150217905550600254915050919050565b73__$acbfb1c35000d78352310b16a054a6b106$__6339df137f6119d060026108e7565b6040518263ffffffff1660e01b81526004016119ec91906149a9565b602060405180830381865af4158015611a07573d5f803e3d5ffd5b505050506040513d601f19601f82011682018060405250810190611a2b9190613b26565b50565b73__$acbfb1c35000d78352310b16a054a6b106$__63bfba5dd660055f9054906101000a900473ffffffffffffffffffffffffffffffffffffffff16600d5f9054906101000a900473ffffffffffffffffffffffffffffffffffffffff166040518363ffffffff1660e01b8152600401611aa9929190614a2e565b602060405180830381865af4158015611ac4573d5f803e3d5ffd5b505050506040513d601f19601f82011682018060405250810190611ae89190613b26565b50565b60095f9054906101000a900460ff1681565b73__$1068a87eb54ed04c4e435de35b2ebf536f$__63ce88b1455f6040518263ffffffff1660e01b8152600401611b349190614aa1565b602060405180830381865af4158015611b4f573d5f803e3d5ffd5b505050506040513d601f19601f82011682018060405250810190611b739190614ace565b600d5f6101000a81548173ffffffffffffffffffffffffffffffffffffffff021916908373ffffffffffffffffffffffffffffffffffffffff16021790555073__$1068a87eb54ed04c4e435de35b2ebf536f$__63ce88b14560016040518263ffffffff1660e01b8152600401611bea9190614b08565b602060405180830381865af4158015611c05573d5f803e3d5ffd5b505050506040513d601f19601f82011682018060405250810190611c299190614ace565b600e5f6101000a81548173ffffffffffffffffffffffffffffffffffffffff021916908373ffffffffffffffffffffffffffffffffffffffff16021790555073__$1068a87eb54ed04c4e435de35b2ebf536f$__63ce88b14560026040518263ffffffff1660e01b8152600401611ca09190614b5a565b602060405180830381865af4158015611cbb573d5f803e3d5ffd5b505050506040513d601f19601f82011682018060405250810190611cdf9190614ace565b600f5f6101000a81548173ffffffffffffffffffffffffffffffffffffffff021916908373ffffffffffffffffffffffffffffffffffffffff16021790555073__$1068a87eb54ed04c4e435de35b2ebf536f$__63ce88b14560036040518263ffffffff1660e01b8152600401611d569190614bac565b602060405180830381865af4158015611d71573d5f803e3d5ffd5b505050506040513d601f19601f82011682018060405250810190611d959190614ace565b60105f6101000a81548173ffffffffffffffffffffffffffffffffffffffff021916908373ffffffffffffffffffffffffffffffffffffffff16021790555073__$1068a87eb54ed04c4e435de35b2ebf536f$__63ce88b14560046040518263ffffffff1660e01b8152600401611e0c9190614bfe565b602060405180830381865af4158015611e27573d5f803e3d5ffd5b505050506040513d601f19601f82011682018060405250810190611e4b9190614ace565b60115f6101000a81548173ffffffffffffffffffffffffffffffffffffffff021916908373ffffffffffffffffffffffffffffffffffffffff160217905550565b73__$acbfb1c35000d78352310b16a054a6b106$__6339df137f611eb060026108e7565b6040518263ffffffff1660e01b8152600401611ecc91906149a9565b602060405180830381865af4158015611ee7573d5f803e3d5ffd5b505050506040513d601f19601f82011682018060405250810190611f0b9190613b26565b50565b73__$acbfb1c35000d78352310b16a054a6b106$__63a079f1a3600b54436040518363ffffffff1660e01b8152600401611f49929190614c87565b602060405180830381865af4158015611f64573d5f803e3d5ffd5b505050506040513d601f19601f82011682018060405250810190611f889190613b26565b50565b60055f9054906101000a900473ffffffffffffffffffffffffffffffffffffffff1673ffffffffffffffffffffffffffffffffffffffff163373ffffffffffffffffffffffffffffffffffffffff161461201a576040517f08c379a000000000000000000000000000000000000000000000000000000000815260040161201190614518565b60405180910390fd5b60011515600c5f9054906101000a900460ff1615151461206f576040517f08c379a0000000000000000000000000000000000000000000000000000000008152600401612066906140d5565b60405180910390fd5b5f600c5f6101000a81548160ff021916908315150217905550565b73__$acbfb1c35000d78352310b16a054a6b106$__63767392b360095f9054906101000a900460ff165f6040518363ffffffff1660e01b81526004016120d1929190614d31565b602060405180830381865af41580156120ec573d5f803e3d5ffd5b505050506040513d601f19601f820116820180604052508101906121109190613b26565b50612119612e7f565b73__$acbfb1c35000d78352310b16a054a6b106$__63767392b360095f9054906101000a900460ff1660016040518363ffffffff1660e01b8152600401612161929190614db5565b602060405180830381865af415801561217c573d5f803e3d5ffd5b505050506040513d601f19601f820116820180604052508101906121a09190613b26565b50565b3073ffffffffffffffffffffffffffffffffffffffff16636d77bd3e6040518163ffffffff1660e01b81526004016121da90614e39565b6020604051808303815f875af192505050801561221557506040513d601f19601f820116820180604052508101906122129190613bdb565b60015b61240557612221613c12565b806308c379a0036122bd5750612235613c31565b806122405750612357565b73__$acbfb1c35000d78352310b16a054a6b106$__63e8c2cb16826040518263ffffffff1660e01b81526004016122779190613db2565b602060405180830381865af4158015612292573d5f803e3d5ffd5b505050506040513d601f19601f820116820180604052508101906122b69190613b26565b5050612400565b634e487b7103612357576122cf613df8565b906122da5750612357565b73__$acbfb1c35000d78352310b16a054a6b106$__6339df137f5f6040518263ffffffff1660e01b81526004016123119190613e86565b602060405180830381865af415801561232c573d5f803e3d5ffd5b505050506040513d601f19601f820116820180604052508101906123509190613b26565b5050612400565b3d805f8114612381576040519150601f19603f3d011682016040523d82523d5f602084013e612386565b606091505b5073__$acbfb1c35000d78352310b16a054a6b106$__6339df137f5f6040518263ffffffff1660e01b81526004016123be9190613efc565b602060405180830381865af41580156123d9573d5f803e3d5ffd5b505050506040513d601f19601f820116820180604052508101906123fd9190613b26565b50505b612481565b73__$acbfb1c35000d78352310b16a054a6b106$__63561015e28260036040518363ffffffff1660e01b815260040161243f929190614e57565b602060405180830381865af415801561245a573d5f803e3d5ffd5b505050506040513d601f19601f8201168201806040525081019061247e9190613b26565b50505b565b73__$acbfb1c35000d78352310b16a054a6b106$__63abcd79606124db6040518060400160405280600e81526020017f436f75727479617264204361666500000000000000000000000000000000000081525061175b565b60016040518363ffffffff1660e01b81526004016124fa929190614edb565b602060405180830381865af4158015612515573d5f803e3d5ffd5b505050506040513d601f19601f820116820180604052508101906125399190613b26565b5073__$acbfb1c35000d78352310b16a054a6b106$__63abcd79606125926040518060400160405280600881526020017f556e69204361666500000000000000000000000000000000000000000000000081525061175b565b60026040518363ffffffff1660e01b81526004016125b1929190614f5f565b602060405180830381865af41580156125cc573d5f803e3d5ffd5b505050506040513d601f19601f820116820180604052508101906125f09190613b26565b50565b60045481565b73__$acbfb1c35000d78352310b16a054a6b106$__63abcd7960612673600d5f9054906101000a900473ffffffffffffffffffffffffffffffffffffffff166040518060400160405280600581526020017f416c6963650000000000000000000000000000000000000000000000000000008152506112fc565b60016040518363ffffffff1660e01b8152600401612692929190614edb565b602060405180830381865af41580156126ad573d5f803e3d5ffd5b505050506040513d601f19601f820116820180604052508101906126d19190613b26565b5073__$acbfb1c35000d78352310b16a054a6b106$__63abcd796061274c600e5f9054906101000a900473ffffffffffffffffffffffffffffffffffffffff166040518060400160405280600381526020017f426f6200000000000000000000000000000000000000000000000000000000008152506112fc565b60026040518363ffffffff1660e01b815260040161276b929190614f5f565b602060405180830381865af4158015612786573d5f803e3d5ffd5b505050506040513d601f19601f820116820180604052508101906127aa9190613b26565b5073__$acbfb1c35000d78352310b16a054a6b106$__63abcd7960612825600f5f9054906101000a900473ffffffffffffffffffffffffffffffffffffffff166040518060400160405280600781526020017f436861726c6965000000000000000000000000000000000000000000000000008152506112fc565b60036040518363ffffffff1660e01b8152600401612844929190614fe3565b602060405180830381865af415801561285f573d5f803e3d5ffd5b505050506040513d601f19601f820116820180604052508101906128839190613b26565b5073__$acbfb1c35000d78352310b16a054a6b106$__63abcd79606128fe60105f9054906101000a900473ffffffffffffffffffffffffffffffffffffffff166040518060400160405280600381526020017f45766500000000000000000000000000000000000000000000000000000000008152506112fc565b60046040518363ffffffff1660e01b815260040161291d929190615067565b602060405180830381865af4158015612938573d5f803e3d5ffd5b505050506040513d601f19601f8201168201806040525081019061295c9190613b26565b50565b5f602052805f5260405f205f91509050805461297a90614120565b80601f01602080910402602001604051908101604052809291908181526020018280546129a690614120565b80156129f15780601f106129c8576101008083540402835291602001916129f1565b820191905f5260205f20905b8154815290600101906020018083116129d457829003601f168201915b505050505081565b73__$acbfb1c35000d78352310b16a054a6b106$__63e8c2cb1660066040518263ffffffff1660e01b8152600401612a3191906151dc565b602060405180830381865af4158015612a4c573d5f803e3d5ffd5b505050506040513d601f19601f82011682018060405250810190612a709190613b26565b50565b60025481565b73__$acbfb1c35000d78352310b16a054a6b106$__6339df137f612a9d60016108e7565b6040518263ffffffff1660e01b8152600401612ab991906149a9565b602060405180830381865af4158015612ad4573d5f803e3d5ffd5b505050506040513d601f19601f82011682018060405250810190612af89190613b26565b50565b60068054612b0890614120565b80601f0160208091040260200160405190810160405280929190818152602001828054612b3490614120565b8015612b7f5780601f10612b5657610100808354040283529160200191612b7f565b820191905f5260205f20905b815481529060010190602001808311612b6257829003601f168201915b505050505081565b3073ffffffffffffffffffffffffffffffffffffffff1663eb4439fb6040518163ffffffff1660e01b81526004015f604051808303815f87803b158015612bcc575f80fd5b505af1925050508015612bdd575060015b612dcd57612be9613c12565b806308c379a003612c855750612bfd613c31565b80612c085750612d1f565b73__$acbfb1c35000d78352310b16a054a6b106$__63e8c2cb16826040518263ffffffff1660e01b8152600401612c3f9190613db2565b602060405180830381865af4158015612c5a573d5f803e3d5ffd5b505050506040513d601f19601f82011682018060405250810190612c7e9190613b26565b5050612dc8565b634e487b7103612d1f57612c97613df8565b90612ca25750612d1f565b73__$acbfb1c35000d78352310b16a054a6b106$__6339df137f5f6040518263ffffffff1660e01b8152600401612cd99190613e86565b602060405180830381865af4158015612cf4573d5f803e3d5ffd5b505050506040513d601f19601f82011682018060405250810190612d189190613b26565b5050612dc8565b3d805f8114612d49576040519150601f19603f3d011682016040523d82523d5f602084013e612d4e565b606091505b5073__$acbfb1c35000d78352310b16a054a6b106$__6339df137f5f6040518263ffffffff1660e01b8152600401612d8691906144ca565b602060405180830381865af4158015612da1573d5f803e3d5ffd5b505050506040513d601f19601f82011682018060405250810190612dc59190613b26565b50505b612e55565b73__$acbfb1c35000d78352310b16a054a6b106$__63767392b360095f9054906101000a900460ff165f6040518363ffffffff1660e01b8152600401612e1492919061438c565b602060405180830381865af4158015612e2f573d5f803e3d5ffd5b505050506040513d601f19601f82011682018060405250810190612e539190613b26565b505b565b5f60055f9054906101000a900473ffffffffffffffffffffffffffffffffffffffff16905090565b60055f9054906101000a900473ffffffffffffffffffffffffffffffffffffffff1673ffffffffffffffffffffffffffffffffffffffff163373ffffffffffffffffffffffffffffffffffffffff1614612f0e576040517f08c379a0000000000000000000000000000000000000000000000000000000008152600401612f0590614518565b60405180910390fd5b60011515600c5f9054906101000a900460ff16151514612f63576040517f08c379a0000000000000000000000000000000000000000000000000000000008152600401612f5a906140d5565b60405180910390fd5b600280541015612fa8576040517f08c379a0000000000000000000000000000000000000000000000000000000008152600401612f9f90615292565b60405180910390fd5b60026003541015612fee576040517f08c379a0000000000000000000000000000000000000000000000000000000008152600401612fe590615320565b60405180910390fd5b600b544310613032576040517f08c379a0000000000000000000000000000000000000000000000000000000008152600401613029906153ae565b60405180910390fd5b600160095f6101000a81548160ff021916908315150217905550565b3073ffffffffffffffffffffffffffffffffffffffff1663124258c660016040518263ffffffff1660e01b815260040161308891906143ff565b6020604051808303815f875af19250505080156130c357506040513d601f19601f820116820180604052508101906130c09190613b26565b60015b6132b3576130cf613c12565b806308c379a00361316b57506130e3613c31565b806130ee5750613205565b73__$acbfb1c35000d78352310b16a054a6b106$__63e8c2cb16826040518263ffffffff1660e01b815260040161312591906153ee565b602060405180830381865af4158015613140573d5f803e3d5ffd5b505050506040513d601f19601f820116820180604052508101906131649190613b26565b50506132ae565b634e487b71036132055761317d613df8565b906131885750613205565b73__$acbfb1c35000d78352310b16a054a6b106$__6339df137f5f6040518263ffffffff1660e01b81526004016131bf9190613e86565b602060405180830381865af41580156131da573d5f803e3d5ffd5b505050506040513d601f19601f820116820180604052508101906131fe9190613b26565b50506132ae565b3d805f811461322f576040519150601f19603f3d011682016040523d82523d5f602084013e613234565b606091505b5073__$acbfb1c35000d78352310b16a054a6b106$__6339df137f5f6040518263ffffffff1660e01b815260040161326c91906144ca565b602060405180830381865af4158015613287573d5f803e3d5ffd5b505050506040513d601f19601f820116820180604052508101906132ab9190613b26565b50505b61332f565b73__$acbfb1c35000d78352310b16a054a6b106$__63767392b38260016040518363ffffffff1660e01b81526004016132ed92919061438c565b602060405180830381865af4158015613308573d5f803e3d5ffd5b505050506040513d601f19601f8201168201806040525081019061332c9190613b26565b50505b565b73__$acbfb1c35000d78352310b16a054a6b106$__63767392b3600c5f9054906101000a900460ff1660016040518363ffffffff1660e01b8152600401613379929190615434565b602060405180830381865af4158015613394573d5f803e3d5ffd5b505050506040513d601f19601f820116820180604052508101906133b89190613b26565b506133c1611f8b565b73__$acbfb1c35000d78352310b16a054a6b106$__63767392b3600c5f9054906101000a900460ff165f6040518363ffffffff1660e01b8152600401613408929190615434565b602060405180830381865af4158015613423573d5f803e3d5ffd5b505050506040513d601f19601f820116820180604052508101906134479190613b26565b50565b60011515600c5f9054906101000a900460ff1615151461349f576040517f08c379a0000000000000000000000000000000000000000000000000000000008152600401613496906140d5565b60405180910390fd5b5f805f5b6004548110156135aa575f600190505f60085f600785815481106134ca576134c961546e565b5b905f5260205f2090600202016001015481526020019081526020015f205411156135315760085f600784815481106135055761350461546e565b5b905f5260205f2090600202016001015481526020019081526020015f20548161352e9190614359565b90505b8060085f600785815481106135495761354861546e565b5b905f5260205f2090600202016001015481526020019081526020015f20819055508381111561359c57809350600782815481106135895761358861546e565b5b905f5260205f2090600202016001015492505b5080806001019150506134a3565b505f808281526020019081526020015f20600690816135c991906154c2565b505f60095f6101000a81548160ff0219169083151502179055505050565b60405180604001604052805f73ffffffffffffffffffffffffffffffffffffffff1681526020015f81525090565b6040518060400160405280606081526020015f151581525090565b5f604051905090565b5f80fd5b5f80fd5b5f819050919050565b61365381613641565b811461365d575f80fd5b50565b5f8135905061366e8161364a565b92915050565b5f6020828403121561368957613688613639565b5b5f61369684828501613660565b91505092915050565b5f8115159050919050565b6136b38161369f565b82525050565b5f6020820190506136cc5f8301846136aa565b92915050565b5f73ffffffffffffffffffffffffffffffffffffffff82169050919050565b5f6136fb826136d2565b9050919050565b61370b816136f1565b8114613715575f80fd5b50565b5f8135905061372681613702565b92915050565b5f6020828403121561374157613740613639565b5b5f61374e84828501613718565b91505092915050565b5f81519050919050565b5f82825260208201905092915050565b8281835e5f83830152505050565b5f601f19601f8301169050919050565b5f61379982613757565b6137a38185613761565b93506137b3818560208601613771565b6137bc8161377f565b840191505092915050565b5f6040820190508181035f8301526137df818561378f565b90506137ee60208301846136aa565b9392505050565b5f80fd5b5f80fd5b7f4e487b71000000000000000000000000000000000000000000000000000000005f52604160045260245ffd5b6138338261377f565b810181811067ffffffffffffffff82111715613852576138516137fd565b5b80604052505050565b5f613864613630565b9050613870828261382a565b919050565b5f67ffffffffffffffff82111561388f5761388e6137fd565b5b6138988261377f565b9050602081019050919050565b828183375f83830152505050565b5f6138c56138c084613875565b61385b565b9050828152602081018484840111156138e1576138e06137f9565b5b6138ec8482856138a5565b509392505050565b5f82601f830112613908576139076137f5565b5b81356139188482602086016138b3565b91505092915050565b5f806040838503121561393757613936613639565b5b5f61394485828601613718565b925050602083013567ffffffffffffffff8111156139655761396461363d565b5b613971858286016138f4565b9150509250929050565b61398481613641565b82525050565b5f60208201905061399d5f83018461397b565b92915050565b6139ac816136f1565b82525050565b5f6020820190506139c55f8301846139a3565b92915050565b5f6040820190506139de5f8301856139a3565b6139eb602083018461397b565b9392505050565b5f60208284031215613a0757613a06613639565b5b5f82013567ffffffffffffffff811115613a2457613a2361363d565b5b613a30848285016138f4565b91505092915050565b5f6020820190508181035f830152613a51818461378f565b905092915050565b613a628161369f565b82525050565b5f82825260208201905092915050565b7f566f74696e672073686f756c6420626520636c6f7365640000000000000000005f82015250565b5f613aac601783613a68565b9150613ab782613a78565b602082019050919050565b5f606082019050613ad55f830185613a59565b613ae26020830184613a59565b8181036040830152613af381613aa0565b90509392505050565b613b058161369f565b8114613b0f575f80fd5b50565b5f81519050613b2081613afc565b92915050565b5f60208284031215613b3b57613b3a613639565b5b5f613b4884828501613b12565b91505092915050565b7f44616e69656c73000000000000000000000000000000000000000000000000005f82015250565b5f613b85600783613761565b9150613b9082613b51565b602082019050919050565b5f604082019050613bae5f8301846139a3565b8181036020830152613bbf81613b79565b905092915050565b5f81519050613bd58161364a565b92915050565b5f60208284031215613bf057613bef613639565b5b5f613bfd84828501613bc7565b91505092915050565b5f8160e01c9050919050565b5f60033d1115613c2e5760045f803e613c2b5f51613c06565b90505b90565b5f60443d10613cbd57613c42613630565b60043d036004823e80513d602482011167ffffffffffffffff82111715613c6a575050613cbd565b808201805167ffffffffffffffff811115613c885750505050613cbd565b80602083010160043d038501811115613ca5575050505050613cbd565b613cb48260200185018661382a565b82955050505050505b90565b5f613cca82613757565b613cd48185613a68565b9350613ce4818560208601613771565b613ced8161377f565b840191505092915050565b7f43616e206f6e6c7920626520657865637574656420627920746865206d616e615f8201527f6765720000000000000000000000000000000000000000000000000000000000602082015250565b5f613d52602383613a68565b9150613d5d82613cf8565b604082019050919050565b7f4661696c6564207769746820756e657870656374656420726561736f6e0000005f82015250565b5f613d9c601d83613a68565b9150613da782613d68565b602082019050919050565b5f6060820190508181035f830152613dca8184613cc0565b90508181036020830152613ddd81613d46565b90508181036040830152613df081613d90565b905092915050565b5f8060233d1115613e1257602060045f3e600191505f5190505b9091565b7f4661696c656420756e65787065637465642077697468206572726f7220636f645f8201527f6500000000000000000000000000000000000000000000000000000000000000602082015250565b5f613e70602183613a68565b9150613e7b82613e16565b604082019050919050565b5f604082019050613e995f830184613a59565b8181036020830152613eaa81613e64565b905092915050565b7f4661696c656420756e65787065637465640000000000000000000000000000005f82015250565b5f613ee6601183613a68565b9150613ef182613eb2565b602082019050919050565b5f604082019050613f0f5f830184613a59565b8181036020830152613f2081613eda565b905092915050565b613f3181613641565b82525050565b5f819050919050565b5f819050919050565b5f613f63613f5e613f5984613f37565b613f40565b613641565b9050919050565b613f7381613f49565b82525050565b7f4d6574686f6420657865637574696f6e20646964206e6f74206661696c0000005f82015250565b5f613fad601d83613a68565b9150613fb882613f79565b602082019050919050565b5f606082019050613fd65f830185613f28565b613fe36020830184613f6a565b8181036040830152613ff481613fa1565b90509392505050565b7f43616e20766f7465206f6e6c79207768696c6520766f74696e67206973206f705f8201527f656e000000000000000000000000000000000000000000000000000000000000602082015250565b5f614057602283613761565b915061406282613ffd565b604082019050919050565b5f6020820190508181035f8301526140848161404b565b9050919050565b7f4f6e6c79207768656e20636f6e747261637420697320616374697665000000005f82015250565b5f6140bf601c83613761565b91506140ca8261408b565b602082019050919050565b5f6020820190508181035f8301526140ec816140b3565b9050919050565b7f4e487b71000000000000000000000000000000000000000000000000000000005f52602260045260245ffd5b5f600282049050600182168061413757607f821691505b60208210810361414a576141496140f3565b5b50919050565b7f467269656e6420646f6573206e6f7420657869737400000000000000000000005f82015250565b5f614184601583613761565b915061418f82614150565b602082019050919050565b5f6020820190508181035f8301526141b181614178565b9050919050565b7f52657374617572616e7420766f74656420646f6573206e6f74206578697374005f82015250565b5f6141ec601f83613761565b91506141f7826141b8565b602082019050919050565b5f6020820190508181035f830152614219816141e0565b9050919050565b7f467269656e642068617320766f74656420616c726561647900000000000000005f82015250565b5f614254601883613761565b915061425f82614220565b602082019050919050565b5f6020820190508181035f83015261428181614248565b9050919050565b7f4e487b71000000000000000000000000000000000000000000000000000000005f52601160045260245ffd5b5f6142bf82613641565b91507fffffffffffffffffffffffffffffffffffffffffffffffffffffffffffffffff82036142f1576142f0614288565b5b600182019050919050565b7f4e487b71000000000000000000000000000000000000000000000000000000005f52601260045260245ffd5b5f61433382613641565b915061433e83613641565b92508261434e5761434d6142fc565b5b828204905092915050565b5f61436382613641565b915061436e83613641565b925082820190508082111561438657614385614288565b5b92915050565b5f60608201905061439f5f830185613a59565b6143ac6020830184613a59565b81810360408301526143bd81613fa1565b90509392505050565b5f819050919050565b5f6143e96143e46143df846143c6565b613f40565b613641565b9050919050565b6143f9816143cf565b82525050565b5f6020820190506144125f8301846143f0565b92915050565b5f614424601583613a68565b915061442f82614150565b602082019050919050565b5f6060820190508181035f8301526144528184613cc0565b9050818103602083015261446581614418565b9050818103604083015261447881613d90565b905092915050565b7f4661696c656420756e65787065637465646c79000000000000000000000000005f82015250565b5f6144b4601383613a68565b91506144bf82614480565b602082019050919050565b5f6040820190506144dd5f830184613a59565b81810360208301526144ee816144a8565b905092915050565b5f614502602383613761565b915061450d82613cf8565b604082019050919050565b5f6020820190508181035f83015261452f816144f6565b9050919050565b7f43616e2061646420667269656e6473206f722072657374617572616e7473206f5f8201527f6e6c79207768656e20766f74696e672069732064697361626c65640000000000602082015250565b5f614590603b83613761565b915061459b82614536565b604082019050919050565b5f6020820190508181035f8301526145bd81614584565b9050919050565b7f54696d656f7574207265616368656400000000000000000000000000000000005f82015250565b5f6145f8600f83613761565b9150614603826145c4565b602082019050919050565b5f6020820190508181035f830152614625816145ec565b9050919050565b7f467269656e6420616c72656164792065786973747300000000000000000000005f82015250565b5f614660601583613761565b915061466b8261462c565b602082019050919050565b5f6020820190508181035f83015261468d81614654565b9050919050565b5f819050815f5260205f209050919050565b5f6020601f8301049050919050565b5f82821b905092915050565b5f600883026146f07fffffffffffffffffffffffffffffffffffffffffffffffffffffffffffffffff826146b5565b6146fa86836146b5565b95508019841693508086168417925050509392505050565b5f61472c61472761472284613641565b613f40565b613641565b9050919050565b5f819050919050565b61474583614712565b61475961475182614733565b8484546146c1565b825550505050565b5f90565b61476d614761565b61477881848461473c565b505050565b5b8181101561479b576147905f82614765565b60018101905061477e565b5050565b601f8211156147e0576147b181614694565b6147ba846146a6565b810160208510156147c9578190505b6147dd6147d5856146a6565b83018261477d565b50505b505050565b5f82821c905092915050565b5f6148005f19846008026147e5565b1980831691505092915050565b5f61481883836147f1565b9150826002028217905092915050565b61483182613757565b67ffffffffffffffff81111561484a576148496137fd565b5b6148548254614120565b61485f82828561479f565b5f60209050601f831160018114614890575f841561487e578287015190505b614888858261480d565b8655506148ef565b601f19841661489e86614694565b5f5b828110156148c5578489015182556001820191506020850194506020810190506148a0565b868310156148e257848901516148de601f8916826147f1565b8355505b6001600288020188555050505b505050505050565b7f52657374617572616e7420616c726561647920657869737473000000000000005f82015250565b5f61492b601983613761565b9150614936826148f7565b602082019050919050565b5f6020820190508181035f8301526149588161491f565b9050919050565b7f566f74696e6720726573756c742073686f756c642062652074727565000000005f82015250565b5f614993601c83613a68565b915061499e8261495f565b602082019050919050565b5f6040820190506149bc5f830184613a59565b81810360208301526149cd81614987565b905092915050565b6149de816136f1565b82525050565b7f4d616e616765722073686f756c642062652061636330000000000000000000005f82015250565b5f614a18601683613a68565b9150614a23826149e4565b602082019050919050565b5f606082019050614a415f8301856149d5565b614a4e60208301846149d5565b8181036040830152614a5f81614a0c565b90509392505050565b5f819050919050565b5f614a8b614a86614a8184614a68565b613f40565b613641565b9050919050565b614a9b81614a71565b82525050565b5f602082019050614ab45f830184614a92565b92915050565b5f81519050614ac881613702565b92915050565b5f60208284031215614ae357614ae2613639565b5b5f614af084828501614aba565b91505092915050565b614b02816143cf565b82525050565b5f602082019050614b1b5f830184614af9565b92915050565b5f819050919050565b5f614b44614b3f614b3a84614b21565b613f40565b613641565b9050919050565b614b5481614b2a565b82525050565b5f602082019050614b6d5f830184614b4b565b92915050565b5f819050919050565b5f614b96614b91614b8c84614b73565b613f40565b613641565b9050919050565b614ba681614b7c565b82525050565b5f602082019050614bbf5f830184614b9d565b92915050565b5f819050919050565b5f614be8614be3614bde84614bc5565b613f40565b613641565b9050919050565b614bf881614bce565b82525050565b5f602082019050614c115f830184614bef565b92915050565b7f54696d656f757420626c6f636b206e756d6265722073686f756c6420626520735f8201527f6574000000000000000000000000000000000000000000000000000000000000602082015250565b5f614c71602283613a68565b9150614c7c82614c17565b604082019050919050565b5f606082019050614c9a5f830185613f28565b614ca76020830184613f28565b8181036040830152614cb881614c65565b90509392505050565b7f566f74696e672073686f756c6420696e697469616c6c7920626520636c6f73655f8201527f6400000000000000000000000000000000000000000000000000000000000000602082015250565b5f614d1b602183613a68565b9150614d2682614cc1565b604082019050919050565b5f606082019050614d445f830185613a59565b614d516020830184613a59565b8181036040830152614d6281614d0f565b90509392505050565b7f566f74696e672073686f756c64206265206f70656e00000000000000000000005f82015250565b5f614d9f601583613a68565b9150614daa82614d6b565b602082019050919050565b5f606082019050614dc85f830185613a59565b614dd56020830184613a59565b8181036040830152614de681614d93565b90509392505050565b7f41746f6d696320436166650000000000000000000000000000000000000000005f82015250565b5f614e23600b83613761565b9150614e2e82614def565b602082019050919050565b5f6020820190508181035f830152614e5081614e17565b9050919050565b5f606082019050614e6a5f830185613f28565b614e776020830184614b9d565b8181036040830152614e8881613fa1565b90509392505050565b7f53686f756c6420626520657175616c20746f20310000000000000000000000005f82015250565b5f614ec5601483613a68565b9150614ed082614e91565b602082019050919050565b5f606082019050614eee5f830185613f28565b614efb6020830184614af9565b8181036040830152614f0c81614eb9565b90509392505050565b7f53686f756c6420626520657175616c20746f20320000000000000000000000005f82015250565b5f614f49601483613a68565b9150614f5482614f15565b602082019050919050565b5f606082019050614f725f830185613f28565b614f7f6020830184614b4b565b8181036040830152614f9081614f3d565b90509392505050565b7f53686f756c6420626520657175616c20746f20330000000000000000000000005f82015250565b5f614fcd601483613a68565b9150614fd882614f99565b602082019050919050565b5f606082019050614ff65f830185613f28565b6150036020830184614b9d565b818103604083015261501481614fc1565b90509392505050565b7f53686f756c6420626520657175616c20746f20340000000000000000000000005f82015250565b5f615051601483613a68565b915061505c8261501d565b602082019050919050565b5f60608201905061507a5f830185613f28565b6150876020830184614bef565b818103604083015261509881615045565b90509392505050565b5f81546150ad81614120565b6150b78186613a68565b9450600182165f81146150d157600181146150e757615119565b60ff198316865281151560200286019350615119565b6150f085614694565b5f5b83811015615111578154818901526001820191506020810190506150f2565b808801955050505b50505092915050565b7f556e6920436166650000000000000000000000000000000000000000000000005f82015250565b5f615156600883613a68565b915061516182615122565b602082019050919050565b7f53656c65637465642072657374617572616e742073686f756c6420626520556e5f8201527f6920436166650000000000000000000000000000000000000000000000000000602082015250565b5f6151c6602683613a68565b91506151d18261516c565b604082019050919050565b5f6060820190508181035f8301526151f481846150a1565b905081810360208301526152078161514a565b9050818103604083015261521a816151ba565b905092915050565b7f43616e20766f7465206f6e6c79207768656e20746865726520617265206174205f8201527f6c6561737420322072657374617572616e747300000000000000000000000000602082015250565b5f61527c603383613761565b915061528782615222565b604082019050919050565b5f6020820190508181035f8301526152a981615270565b9050919050565b7f43616e20766f7465206f6e6c79207768656e20746865726520617265206174205f8201527f6c65617374203220667269656e64730000000000000000000000000000000000602082015250565b5f61530a602f83613761565b9150615315826152b0565b604082019050919050565b5f6020820190508181035f830152615337816152fe565b9050919050565b7f54696d656f7574207265616368656420616e6420766f74696e6720697320636c5f8201527f6f73656400000000000000000000000000000000000000000000000000000000602082015250565b5f615398602483613761565b91506153a38261533e565b604082019050919050565b5f6020820190508181035f8301526153c58161538c565b9050919050565b5f6153d8602283613a68565b91506153e382613ffd565b604082019050919050565b5f6060820190508181035f8301526154068184613cc0565b90508181036020830152615419816153cc565b9050818103604083015261542c81613d90565b905092915050565b5f6060820190506154475f830185613a59565b6154546020830184613a59565b818103604083015261546581614eb9565b90509392505050565b7f4e487b71000000000000000000000000000000000000000000000000000000005f52603260045260245ffd5b5f815490506154a981614120565b9050919050565b5f819050815f5260205f209050919050565b8181036154d05750506155a5565b6154d98261549b565b67ffffffffffffffff8111156154f2576154f16137fd565b5b6154fc8254614120565b61550782828561479f565b5f601f831160018114615534575f8415615522578287015490505b61552c858261480d565b86555061559e565b601f198416615542876154b0565b965061554d86614694565b5f5b828110156155745784890154825560018201915060018501945060208101905061554f565b86831015615591578489015461558d601f8916826147f1565b8355505b6001600288020188555050505b5050505050505b56fea2646970667358221220a8db4a6b88a81480b65080a5d6cce6c753a9eea92a363fec3b389ea2f688180e64736f6c634300081a0033",
			"opcodes": "PUSH1 0x80 PUSH1 0x40 MSTORE PUSH0 PUSH1 0x2 SSTORE PUSH0 PUSH1 0x3 SSTORE PUSH0 PUSH1 0x4 SSTORE PUSH1 0x40 MLOAD DUP1 PUSH1 0x20 ADD PUSH1 0x40 MSTORE DUP1 PUSH0 DUP2 MSTORE POP PUSH1 0x6 SWAP1 DUP2 PUSH2 0x2D SWAP2 SWAP1 PUSH2 0x30D JUMP JUMPDEST POP PUSH0 PUSH1 0x9 PUSH0 PUSH2 0x100 EXP DUP2 SLOAD DUP2 PUSH1 0xFF MUL NOT AND SWAP1 DUP4 ISZERO ISZERO MUL OR SWAP1 SSTORE POP PUSH1 0x1 PUSH1 0xC PUSH0 PUSH2 0x100 EXP DUP2 SLOAD DUP2 PUSH1 0xFF MUL NOT AND SWAP1 DUP4 ISZERO ISZERO MUL OR SWAP1 SSTORE POP CALLVALUE DUP1 ISZERO PUSH2 0x6C JUMPI PUSH0 DUP1 REVERT JUMPDEST POP PUSH1 0x64 CALLER PUSH1 0x5 PUSH0 PUSH2 0x100 EXP DUP2 SLOAD DUP2 PUSH20 0xFFFFFFFFFFFFFFFFFFFFFFFFFFFFFFFFFFFFFFFF MUL NOT AND SWAP1 DUP4 PUSH20 0xFFFFFFFFFFFFFFFFFFFFFFFFFFFFFFFFFFFFFFFF AND MUL OR SWAP1 SSTORE POP PUSH0 DUP2 SUB PUSH2 0xBB JUMPI PUSH1 0x64 SWAP1 POP JUMPDEST DUP1 NUMBER PUSH2 0xC7 SWAP2 SWAP1 PUSH2 0x409 JUMP JUMPDEST PUSH1 0xB DUP2 SWAP1 SSTORE POP POP PUSH2 0x43C JUMP JUMPDEST PUSH0 DUP2 MLOAD SWAP1 POP SWAP2 SWAP1 POP JUMP JUMPDEST PUSH32 0x4E487B7100000000000000000000000000000000000000000000000000000000 PUSH0 MSTORE PUSH1 0x41 PUSH1 0x4 MSTORE PUSH1 0x24 PUSH0 REVERT JUMPDEST PUSH32 0x4E487B7100000000000000000000000000000000000000000000000000000000 PUSH0 MSTORE PUSH1 0x22 PUSH1 0x4 MSTORE PUSH1 0x24 PUSH0 REVERT JUMPDEST PUSH0 PUSH1 0x2 DUP3 DIV SWAP1 POP PUSH1 0x1 DUP3 AND DUP1 PUSH2 0x14E JUMPI PUSH1 0x7F DUP3 AND SWAP2 POP JUMPDEST PUSH1 0x20 DUP3 LT DUP2 SUB PUSH2 0x161 JUMPI PUSH2 0x160 PUSH2 0x10A JUMP JUMPDEST JUMPDEST POP SWAP2 SWAP1 POP JUMP JUMPDEST PUSH0 DUP2 SWAP1 POP DUP2 PUSH0 MSTORE PUSH1 0x20 PUSH0 KECCAK256 SWAP1 POP SWAP2 SWAP1 POP JUMP JUMPDEST PUSH0 PUSH1 0x20 PUSH1 0x1F DUP4 ADD DIV SWAP1 POP SWAP2 SWAP1 POP JUMP JUMPDEST PUSH0 DUP3 DUP3 SHL SWAP1 POP SWAP3 SWAP2 POP POP JUMP JUMPDEST PUSH0 PUSH1 0x8 DUP4 MUL PUSH2 0x1C3 PUSH32 0xFFFFFFFFFFFFFFFFFFFFFFFFFFFFFFFFFFFFFFFFFFFFFFFFFFFFFFFFFFFFFFFF DUP3 PUSH2 0x188 JUMP JUMPDEST PUSH2 0x1CD DUP7 DUP4 PUSH2 0x188 JUMP JUMPDEST SWAP6 POP DUP1 NOT DUP5 AND SWAP4 POP DUP1 DUP7 AND DUP5 OR SWAP3 POP POP POP SWAP4 SWAP3 POP POP POP JUMP JUMPDEST PUSH0 DUP2 SWAP1 POP SWAP2 SWAP1 POP JUMP JUMPDEST PUSH0 DUP2 SWAP1 POP SWAP2 SWAP1 POP JUMP JUMPDEST PUSH0 PUSH2 0x211 PUSH2 0x20C PUSH2 0x207 DUP5 PUSH2 0x1E5 JUMP JUMPDEST PUSH2 0x1EE JUMP JUMPDEST PUSH2 0x1E5 JUMP JUMPDEST SWAP1 POP SWAP2 SWAP1 POP JUMP JUMPDEST PUSH0 DUP2 SWAP1 POP SWAP2 SWAP1 POP JUMP JUMPDEST PUSH2 0x22A DUP4 PUSH2 0x1F7 JUMP JUMPDEST PUSH2 0x23E PUSH2 0x236 DUP3 PUSH2 0x218 JUMP JUMPDEST DUP5 DUP5 SLOAD PUSH2 0x194 JUMP JUMPDEST DUP3 SSTORE POP POP POP POP JUMP JUMPDEST PUSH0 SWAP1 JUMP JUMPDEST PUSH2 0x252 PUSH2 0x246 JUMP JUMPDEST PUSH2 0x25D DUP2 DUP5 DUP5 PUSH2 0x221 JUMP JUMPDEST POP POP POP JUMP JUMPDEST JUMPDEST DUP2 DUP2 LT ISZERO PUSH2 0x280 JUMPI PUSH2 0x275 PUSH0 DUP3 PUSH2 0x24A JUMP JUMPDEST PUSH1 0x1 DUP2 ADD SWAP1 POP PUSH2 0x263 JUMP JUMPDEST POP POP JUMP JUMPDEST PUSH1 0x1F DUP3 GT ISZERO PUSH2 0x2C5 JUMPI PUSH2 0x296 DUP2 PUSH2 0x167 JUMP JUMPDEST PUSH2 0x29F DUP5 PUSH2 0x179 JUMP JUMPDEST DUP2 ADD PUSH1 0x20 DUP6 LT ISZERO PUSH2 0x2AE JUMPI DUP2 SWAP1 POP JUMPDEST PUSH2 0x2C2 PUSH2 0x2BA DUP6 PUSH2 0x179 JUMP JUMPDEST DUP4 ADD DUP3 PUSH2 0x262 JUMP JUMPDEST POP POP JUMPDEST POP POP POP JUMP JUMPDEST PUSH0 DUP3 DUP3 SHR SWAP1 POP SWAP3 SWAP2 POP POP JUMP JUMPDEST PUSH0 PUSH2 0x2E5 PUSH0 NOT DUP5 PUSH1 0x8 MUL PUSH2 0x2CA JUMP JUMPDEST NOT DUP1 DUP4 AND SWAP2 POP POP SWAP3 SWAP2 POP POP JUMP JUMPDEST PUSH0 PUSH2 0x2FD DUP4 DUP4 PUSH2 0x2D6 JUMP JUMPDEST SWAP2 POP DUP3 PUSH1 0x2 MUL DUP3 OR SWAP1 POP SWAP3 SWAP2 POP POP JUMP JUMPDEST PUSH2 0x316 DUP3 PUSH2 0xD3 JUMP JUMPDEST PUSH8 0xFFFFFFFFFFFFFFFF DUP2 GT ISZERO PUSH2 0x32F JUMPI PUSH2 0x32E PUSH2 0xDD JUMP JUMPDEST JUMPDEST PUSH2 0x339 DUP3 SLOAD PUSH2 0x137 JUMP JUMPDEST PUSH2 0x344 DUP3 DUP3 DUP6 PUSH2 0x284 JUMP JUMPDEST PUSH0 PUSH1 0x20 SWAP1 POP PUSH1 0x1F DUP4 GT PUSH1 0x1 DUP2 EQ PUSH2 0x375 JUMPI PUSH0 DUP5 ISZERO PUSH2 0x363 JUMPI DUP3 DUP8 ADD MLOAD SWAP1 POP JUMPDEST PUSH2 0x36D DUP6 DUP3 PUSH2 0x2F2 JUMP JUMPDEST DUP7 SSTORE POP PUSH2 0x3D4 JUMP JUMPDEST PUSH1 0x1F NOT DUP5 AND PUSH2 0x383 DUP7 PUSH2 0x167 JUMP JUMPDEST PUSH0 JUMPDEST DUP3 DUP2 LT ISZERO PUSH2 0x3AA JUMPI DUP5 DUP10 ADD MLOAD DUP3 SSTORE PUSH1 0x1 DUP3 ADD SWAP2 POP PUSH1 0x20 DUP6 ADD SWAP5 POP PUSH1 0x20 DUP2 ADD SWAP1 POP PUSH2 0x385 JUMP JUMPDEST DUP7 DUP4 LT ISZERO PUSH2 0x3C7 JUMPI DUP5 DUP10 ADD MLOAD PUSH2 0x3C3 PUSH1 0x1F DUP10 AND DUP3 PUSH2 0x2D6 JUMP JUMPDEST DUP4 SSTORE POP JUMPDEST PUSH1 0x1 PUSH1 0x2 DUP9 MUL ADD DUP9 SSTORE POP POP POP JUMPDEST POP POP POP POP POP POP JUMP JUMPDEST PUSH32 0x4E487B7100000000000000000000000000000000000000000000000000000000 PUSH0 MSTORE PUSH1 0x11 PUSH1 0x4 MSTORE PUSH1 0x24 PUSH0 REVERT JUMPDEST PUSH0 PUSH2 0x413 DUP3 PUSH2 0x1E5 JUMP JUMPDEST SWAP2 POP PUSH2 0x41E DUP4 PUSH2 0x1E5 JUMP JUMPDEST SWAP3 POP DUP3 DUP3 ADD SWAP1 POP DUP1 DUP3 GT ISZERO PUSH2 0x436 JUMPI PUSH2 0x435 PUSH2 0x3DC JUMP JUMPDEST JUMPDEST SWAP3 SWAP2 POP POP JUMP JUMPDEST PUSH2 0x55DD DUP1 PUSH2 0x449 PUSH0 CODECOPY PUSH0 RETURN INVALID PUSH1 0x80 PUSH1 0x40 MSTORE CALLVALUE DUP1 ISZERO PUSH2 0xF JUMPI PUSH0 DUP1 REVERT JUMPDEST POP PUSH1 0x4 CALLDATASIZE LT PUSH2 0x225 JUMPI PUSH0 CALLDATALOAD PUSH1 0xE0 SHR DUP1 PUSH4 0x7FEA0D4B GT PUSH2 0x12E JUMPI DUP1 PUSH4 0xAD5461D8 GT PUSH2 0xB6 JUMPI DUP1 PUSH4 0xCA1A555C GT PUSH2 0x7A JUMPI DUP1 PUSH4 0xCA1A555C EQ PUSH2 0x515 JUMPI DUP1 PUSH4 0xD5009584 EQ PUSH2 0x51F JUMPI DUP1 PUSH4 0xEB4439FB EQ PUSH2 0x53D JUMPI DUP1 PUSH4 0xF6D416BC EQ PUSH2 0x547 JUMPI DUP1 PUSH4 0xFC8D013B EQ PUSH2 0x551 JUMPI PUSH2 0x225 JUMP JUMPDEST DUP1 PUSH4 0xAD5461D8 EQ PUSH2 0x495 JUMPI DUP1 PUSH4 0xB2897E2E EQ PUSH2 0x4C5 JUMPI DUP1 PUSH4 0xB798867F EQ PUSH2 0x4CF JUMPI DUP1 PUSH4 0xBABEB68B EQ PUSH2 0x4ED JUMPI DUP1 PUSH4 0xC1C16EFC EQ PUSH2 0x4F7 JUMPI PUSH2 0x225 JUMP JUMPDEST DUP1 PUSH4 0x91420699 GT PUSH2 0xFD JUMPI DUP1 PUSH4 0x91420699 EQ PUSH2 0x44F JUMPI DUP1 PUSH4 0x94746C81 EQ PUSH2 0x459 JUMPI DUP1 PUSH4 0x954FFE97 EQ PUSH2 0x463 JUMPI DUP1 PUSH4 0xA3BEF4D7 EQ PUSH2 0x46D JUMPI DUP1 PUSH4 0xA73FB659 EQ PUSH2 0x48B JUMPI PUSH2 0x225 JUMP JUMPDEST DUP1 PUSH4 0x7FEA0D4B EQ PUSH2 0x427 JUMPI DUP1 PUSH4 0x84845589 EQ PUSH2 0x431 JUMPI DUP1 PUSH4 0x85629B66 EQ PUSH2 0x43B JUMPI DUP1 PUSH4 0x894BA833 EQ PUSH2 0x445 JUMPI PUSH2 0x225 JUMP JUMPDEST DUP1 PUSH4 0x481C6A75 GT PUSH2 0x1B1 JUMPI DUP1 PUSH4 0x67E404CE GT PUSH2 0x180 JUMPI DUP1 PUSH4 0x67E404CE EQ PUSH2 0x3A7 JUMPI DUP1 PUSH4 0x6D77BD3E EQ PUSH2 0x3C5 JUMPI DUP1 PUSH4 0x6E17462F EQ PUSH2 0x3F5 JUMPI DUP1 PUSH4 0x76DA7648 EQ PUSH2 0x3FF JUMPI DUP1 PUSH4 0x788D3851 EQ PUSH2 0x409 JUMPI PUSH2 0x225 JUMP JUMPDEST DUP1 PUSH4 0x481C6A75 EQ PUSH2 0x31E JUMPI DUP1 PUSH4 0x5952CCB8 EQ PUSH2 0x33C JUMPI DUP1 PUSH4 0x5DF81330 EQ PUSH2 0x35A JUMPI DUP1 PUSH4 0x66063DF4 EQ PUSH2 0x38B JUMPI PUSH2 0x225 JUMP JUMPDEST DUP1 PUSH4 0x1DDABF7A GT PUSH2 0x1F8 JUMPI DUP1 PUSH4 0x1DDABF7A EQ PUSH2 0x277 JUMPI DUP1 PUSH4 0x22F3E2D4 EQ PUSH2 0x2A8 JUMPI DUP1 PUSH4 0x247BBF18 EQ PUSH2 0x2C6 JUMPI DUP1 PUSH4 0x3B9F708D EQ PUSH2 0x2D0 JUMPI DUP1 PUSH4 0x47098F36 EQ PUSH2 0x300 JUMPI PUSH2 0x225 JUMP JUMPDEST DUP1 PUSH4 0xC593201 EQ PUSH2 0x229 JUMPI DUP1 PUSH4 0x103439CD EQ PUSH2 0x233 JUMPI DUP1 PUSH4 0x124258C6 EQ PUSH2 0x23D JUMPI DUP1 PUSH4 0x1692CC92 EQ PUSH2 0x26D JUMPI JUMPDEST PUSH0 DUP1 REVERT JUMPDEST PUSH2 0x231 PUSH2 0x55B JUMP JUMPDEST STOP JUMPDEST PUSH2 0x23B PUSH2 0x5E4 JUMP JUMPDEST STOP JUMPDEST PUSH2 0x257 PUSH1 0x4 DUP1 CALLDATASIZE SUB DUP2 ADD SWAP1 PUSH2 0x252 SWAP2 SWAP1 PUSH2 0x3674 JUMP JUMPDEST PUSH2 0x8E7 JUMP JUMPDEST PUSH1 0x40 MLOAD PUSH2 0x264 SWAP2 SWAP1 PUSH2 0x36B9 JUMP JUMPDEST PUSH1 0x40 MLOAD DUP1 SWAP2 SUB SWAP1 RETURN JUMPDEST PUSH2 0x275 PUSH2 0xC85 JUMP JUMPDEST STOP JUMPDEST PUSH2 0x291 PUSH1 0x4 DUP1 CALLDATASIZE SUB DUP2 ADD SWAP1 PUSH2 0x28C SWAP2 SWAP1 PUSH2 0x372C JUMP JUMPDEST PUSH2 0xF55 JUMP JUMPDEST PUSH1 0x40 MLOAD PUSH2 0x29F SWAP3 SWAP2 SWAP1 PUSH2 0x37C7 JUMP JUMPDEST PUSH1 0x40 MLOAD DUP1 SWAP2 SUB SWAP1 RETURN JUMPDEST PUSH2 0x2B0 PUSH2 0x1007 JUMP JUMPDEST PUSH1 0x40 MLOAD PUSH2 0x2BD SWAP2 SWAP1 PUSH2 0x36B9 JUMP JUMPDEST PUSH1 0x40 MLOAD DUP1 SWAP2 SUB SWAP1 RETURN JUMPDEST PUSH2 0x2CE PUSH2 0x1019 JUMP JUMPDEST STOP JUMPDEST PUSH2 0x2EA PUSH1 0x4 DUP1 CALLDATASIZE SUB DUP2 ADD SWAP1 PUSH2 0x2E5 SWAP2 SWAP1 PUSH2 0x3921 JUMP JUMPDEST PUSH2 0x12FC JUMP JUMPDEST PUSH1 0x40 MLOAD PUSH2 0x2F7 SWAP2 SWAP1 PUSH2 0x398A JUMP JUMPDEST PUSH1 0x40 MLOAD DUP1 SWAP2 SUB SWAP1 RETURN JUMPDEST PUSH2 0x308 PUSH2 0x15BD JUMP JUMPDEST PUSH1 0x40 MLOAD PUSH2 0x315 SWAP2 SWAP1 PUSH2 0x398A JUMP JUMPDEST PUSH1 0x40 MLOAD DUP1 SWAP2 SUB SWAP1 RETURN JUMPDEST PUSH2 0x326 PUSH2 0x15C3 JUMP JUMPDEST PUSH1 0x40 MLOAD PUSH2 0x333 SWAP2 SWAP1 PUSH2 0x39B2 JUMP JUMPDEST PUSH1 0x40 MLOAD DUP1 SWAP2 SUB SWAP1 RETURN JUMPDEST PUSH2 0x344 PUSH2 0x15E8 JUMP JUMPDEST PUSH1 0x40 MLOAD PUSH2 0x351 SWAP2 SWAP1 PUSH2 0x398A JUMP JUMPDEST PUSH1 0x40 MLOAD DUP1 SWAP2 SUB SWAP1 RETURN JUMPDEST PUSH2 0x374 PUSH1 0x4 DUP1 CALLDATASIZE SUB DUP2 ADD SWAP1 PUSH2 0x36F SWAP2 SWAP1 PUSH2 0x3674 JUMP JUMPDEST PUSH2 0x15EE JUMP JUMPDEST PUSH1 0x40 MLOAD PUSH2 0x382 SWAP3 SWAP2 SWAP1 PUSH2 0x39CB JUMP JUMPDEST PUSH1 0x40 MLOAD DUP1 SWAP2 SUB SWAP1 RETURN JUMPDEST PUSH2 0x3A5 PUSH1 0x4 DUP1 CALLDATASIZE SUB DUP2 ADD SWAP1 PUSH2 0x3A0 SWAP2 SWAP1 PUSH2 0x3674 JUMP JUMPDEST PUSH2 0x163C JUMP JUMPDEST STOP JUMPDEST PUSH2 0x3AF PUSH2 0x1735 JUMP JUMPDEST PUSH1 0x40 MLOAD PUSH2 0x3BC SWAP2 SWAP1 PUSH2 0x39B2 JUMP JUMPDEST PUSH1 0x40 MLOAD DUP1 SWAP2 SUB SWAP1 RETURN JUMPDEST PUSH2 0x3DF PUSH1 0x4 DUP1 CALLDATASIZE SUB DUP2 ADD SWAP1 PUSH2 0x3DA SWAP2 SWAP1 PUSH2 0x39F2 JUMP JUMPDEST PUSH2 0x175B JUMP JUMPDEST PUSH1 0x40 MLOAD PUSH2 0x3EC SWAP2 SWAP1 PUSH2 0x398A JUMP JUMPDEST PUSH1 0x40 MLOAD DUP1 SWAP2 SUB SWAP1 RETURN JUMPDEST PUSH2 0x3FD PUSH2 0x19AC JUMP JUMPDEST STOP JUMPDEST PUSH2 0x407 PUSH2 0x1A2E JUMP JUMPDEST STOP JUMPDEST PUSH2 0x411 PUSH2 0x1AEB JUMP JUMPDEST PUSH1 0x40 MLOAD PUSH2 0x41E SWAP2 SWAP1 PUSH2 0x36B9 JUMP JUMPDEST PUSH1 0x40 MLOAD DUP1 SWAP2 SUB SWAP1 RETURN JUMPDEST PUSH2 0x42F PUSH2 0x1AFD JUMP JUMPDEST STOP JUMPDEST PUSH2 0x439 PUSH2 0x1E8C JUMP JUMPDEST STOP JUMPDEST PUSH2 0x443 PUSH2 0x1F0E JUMP JUMPDEST STOP JUMPDEST PUSH2 0x44D PUSH2 0x1F8B JUMP JUMPDEST STOP JUMPDEST PUSH2 0x457 PUSH2 0x208A JUMP JUMPDEST STOP JUMPDEST PUSH2 0x461 PUSH2 0x21A3 JUMP JUMPDEST STOP JUMPDEST PUSH2 0x46B PUSH2 0x2483 JUMP JUMPDEST STOP JUMPDEST PUSH2 0x475 PUSH2 0x25F3 JUMP JUMPDEST PUSH1 0x40 MLOAD PUSH2 0x482 SWAP2 SWAP1 PUSH2 0x398A JUMP JUMPDEST PUSH1 0x40 MLOAD DUP1 SWAP2 SUB SWAP1 RETURN JUMPDEST PUSH2 0x493 PUSH2 0x25F9 JUMP JUMPDEST STOP JUMPDEST PUSH2 0x4AF PUSH1 0x4 DUP1 CALLDATASIZE SUB DUP2 ADD SWAP1 PUSH2 0x4AA SWAP2 SWAP1 PUSH2 0x3674 JUMP JUMPDEST PUSH2 0x295F JUMP JUMPDEST PUSH1 0x40 MLOAD PUSH2 0x4BC SWAP2 SWAP1 PUSH2 0x3A39 JUMP JUMPDEST PUSH1 0x40 MLOAD DUP1 SWAP2 SUB SWAP1 RETURN JUMPDEST PUSH2 0x4CD PUSH2 0x29F9 JUMP JUMPDEST STOP JUMPDEST PUSH2 0x4D7 PUSH2 0x2A73 JUMP JUMPDEST PUSH1 0x40 MLOAD PUSH2 0x4E4 SWAP2 SWAP1 PUSH2 0x398A JUMP JUMPDEST PUSH1 0x40 MLOAD DUP1 SWAP2 SUB SWAP1 RETURN JUMPDEST PUSH2 0x4F5 PUSH2 0x2A79 JUMP JUMPDEST STOP JUMPDEST PUSH2 0x4FF PUSH2 0x2AFB JUMP JUMPDEST PUSH1 0x40 MLOAD PUSH2 0x50C SWAP2 SWAP1 PUSH2 0x3A39 JUMP JUMPDEST PUSH1 0x40 MLOAD DUP1 SWAP2 SUB SWAP1 RETURN JUMPDEST PUSH2 0x51D PUSH2 0x2B87 JUMP JUMPDEST STOP JUMPDEST PUSH2 0x527 PUSH2 0x2E57 JUMP JUMPDEST PUSH1 0x40 MLOAD PUSH2 0x534 SWAP2 SWAP1 PUSH2 0x39B2 JUMP JUMPDEST PUSH1 0x40 MLOAD DUP1 SWAP2 SUB SWAP1 RETURN JUMPDEST PUSH2 0x545 PUSH2 0x2E7F JUMP JUMPDEST STOP JUMPDEST PUSH2 0x54F PUSH2 0x304E JUMP JUMPDEST STOP JUMPDEST PUSH2 0x559 PUSH2 0x3331 JUMP JUMPDEST STOP JUMPDEST PUSH20 0x0 PUSH4 0x767392B3 PUSH1 0x9 PUSH0 SWAP1 SLOAD SWAP1 PUSH2 0x100 EXP SWAP1 DIV PUSH1 0xFF AND PUSH0 PUSH1 0x40 MLOAD DUP4 PUSH4 0xFFFFFFFF AND PUSH1 0xE0 SHL DUP2 MSTORE PUSH1 0x4 ADD PUSH2 0x5A2 SWAP3 SWAP2 SWAP1 PUSH2 0x3AC2 JUMP JUMPDEST PUSH1 0x20 PUSH1 0x40 MLOAD DUP1 DUP4 SUB DUP2 DUP7 GAS DELEGATECALL ISZERO DUP1 ISZERO PUSH2 0x5BD JUMPI RETURNDATASIZE PUSH0 DUP1 RETURNDATACOPY RETURNDATASIZE PUSH0 REVERT JUMPDEST POP POP POP POP PUSH1 0x40 MLOAD RETURNDATASIZE PUSH1 0x1F NOT PUSH1 0x1F DUP3 ADD AND DUP3 ADD DUP1 PUSH1 0x40 MSTORE POP DUP2 ADD SWAP1 PUSH2 0x5E1 SWAP2 SWAP1 PUSH2 0x3B26 JUMP JUMPDEST POP JUMP JUMPDEST ADDRESS PUSH20 0xFFFFFFFFFFFFFFFFFFFFFFFFFFFFFFFFFFFFFFFF AND PUSH4 0x3B9F708D PUSH1 0x11 PUSH0 SWAP1 SLOAD SWAP1 PUSH2 0x100 EXP SWAP1 DIV PUSH20 0xFFFFFFFFFFFFFFFFFFFFFFFFFFFFFFFFFFFFFFFF AND PUSH1 0x40 MLOAD DUP3 PUSH4 0xFFFFFFFF AND PUSH1 0xE0 SHL DUP2 MSTORE PUSH1 0x4 ADD PUSH2 0x63E SWAP2 SWAP1 PUSH2 0x3B9B JUMP JUMPDEST PUSH1 0x20 PUSH1 0x40 MLOAD DUP1 DUP4 SUB DUP2 PUSH0 DUP8 GAS CALL SWAP3 POP POP POP DUP1 ISZERO PUSH2 0x679 JUMPI POP PUSH1 0x40 MLOAD RETURNDATASIZE PUSH1 0x1F NOT PUSH1 0x1F DUP3 ADD AND DUP3 ADD DUP1 PUSH1 0x40 MSTORE POP DUP2 ADD SWAP1 PUSH2 0x676 SWAP2 SWAP1 PUSH2 0x3BDB JUMP JUMPDEST PUSH1 0x1 JUMPDEST PUSH2 0x869 JUMPI PUSH2 0x685 PUSH2 0x3C12 JUMP JUMPDEST DUP1 PUSH4 0x8C379A0 SUB PUSH2 0x721 JUMPI POP PUSH2 0x699 PUSH2 0x3C31 JUMP JUMPDEST DUP1 PUSH2 0x6A4 JUMPI POP PUSH2 0x7BB JUMP JUMPDEST PUSH20 0x0 PUSH4 0xE8C2CB16 DUP3 PUSH1 0x40 MLOAD DUP3 PUSH4 0xFFFFFFFF AND PUSH1 0xE0 SHL DUP2 MSTORE PUSH1 0x4 ADD PUSH2 0x6DB SWAP2 SWAP1 PUSH2 0x3DB2 JUMP JUMPDEST PUSH1 0x20 PUSH1 0x40 MLOAD DUP1 DUP4 SUB DUP2 DUP7 GAS DELEGATECALL ISZERO DUP1 ISZERO PUSH2 0x6F6 JUMPI RETURNDATASIZE PUSH0 DUP1 RETURNDATACOPY RETURNDATASIZE PUSH0 REVERT JUMPDEST POP POP POP POP PUSH1 0x40 MLOAD RETURNDATASIZE PUSH1 0x1F NOT PUSH1 0x1F DUP3 ADD AND DUP3 ADD DUP1 PUSH1 0x40 MSTORE POP DUP2 ADD SWAP1 PUSH2 0x71A SWAP2 SWAP1 PUSH2 0x3B26 JUMP JUMPDEST POP POP PUSH2 0x864 JUMP JUMPDEST PUSH4 0x4E487B71 SUB PUSH2 0x7BB JUMPI PUSH2 0x733 PUSH2 0x3DF8 JUMP JUMPDEST SWAP1 PUSH2 0x73E JUMPI POP PUSH2 0x7BB JUMP JUMPDEST PUSH20 0x0 PUSH4 0x39DF137F PUSH0 PUSH1 0x40 MLOAD DUP3 PUSH4 0xFFFFFFFF AND PUSH1 0xE0 SHL DUP2 MSTORE PUSH1 0x4 ADD PUSH2 0x775 SWAP2 SWAP1 PUSH2 0x3E86 JUMP JUMPDEST PUSH1 0x20 PUSH1 0x40 MLOAD DUP1 DUP4 SUB DUP2 DUP7 GAS DELEGATECALL ISZERO DUP1 ISZERO PUSH2 0x790 JUMPI RETURNDATASIZE PUSH0 DUP1 RETURNDATACOPY RETURNDATASIZE PUSH0 REVERT JUMPDEST POP POP POP POP PUSH1 0x40 MLOAD RETURNDATASIZE PUSH1 0x1F NOT PUSH1 0x1F DUP3 ADD AND DUP3 ADD DUP1 PUSH1 0x40 MSTORE POP DUP2 ADD SWAP1 PUSH2 0x7B4 SWAP2 SWAP1 PUSH2 0x3B26 JUMP JUMPDEST POP POP PUSH2 0x864 JUMP JUMPDEST RETURNDATASIZE DUP1 PUSH0 DUP2 EQ PUSH2 0x7E5 JUMPI PUSH1 0x40 MLOAD SWAP2 POP PUSH1 0x1F NOT PUSH1 0x3F RETURNDATASIZE ADD AND DUP3 ADD PUSH1 0x40 MSTORE RETURNDATASIZE DUP3 MSTORE RETURNDATASIZE PUSH0 PUSH1 0x20 DUP5 ADD RETURNDATACOPY PUSH2 0x7EA JUMP JUMPDEST PUSH1 0x60 SWAP2 POP JUMPDEST POP PUSH20 0x0 PUSH4 0x39DF137F PUSH0 PUSH1 0x40 MLOAD DUP3 PUSH4 0xFFFFFFFF AND PUSH1 0xE0 SHL DUP2 MSTORE PUSH1 0x4 ADD PUSH2 0x822 SWAP2 SWAP1 PUSH2 0x3EFC JUMP JUMPDEST PUSH1 0x20 PUSH1 0x40 MLOAD DUP1 DUP4 SUB DUP2 DUP7 GAS DELEGATECALL ISZERO DUP1 ISZERO PUSH2 0x83D JUMPI RETURNDATASIZE PUSH0 DUP1 RETURNDATACOPY RETURNDATASIZE PUSH0 REVERT JUMPDEST POP POP POP POP PUSH1 0x40 MLOAD RETURNDATASIZE PUSH1 0x1F NOT PUSH1 0x1F DUP3 ADD AND DUP3 ADD DUP1 PUSH1 0x40 MSTORE POP DUP2 ADD SWAP1 PUSH2 0x861 SWAP2 SWAP1 PUSH2 0x3B26 JUMP JUMPDEST POP POP JUMPDEST PUSH2 0x8E5 JUMP JUMPDEST PUSH20 0x0 PUSH4 0x561015E2 DUP3 PUSH1 0x5 PUSH1 0x40 MLOAD DUP4 PUSH4 0xFFFFFFFF AND PUSH1 0xE0 SHL DUP2 MSTORE PUSH1 0x4 ADD PUSH2 0x8A3 SWAP3 SWAP2 SWAP1 PUSH2 0x3FC3 JUMP JUMPDEST PUSH1 0x20 PUSH1 0x40 MLOAD DUP1 DUP4 SUB DUP2 DUP7 GAS DELEGATECALL ISZERO DUP1 ISZERO PUSH2 0x8BE JUMPI RETURNDATASIZE PUSH0 DUP1 RETURNDATACOPY RETURNDATASIZE PUSH0 REVERT JUMPDEST POP POP POP POP PUSH1 0x40 MLOAD RETURNDATASIZE PUSH1 0x1F NOT PUSH1 0x1F DUP3 ADD AND DUP3 ADD DUP1 PUSH1 0x40 MSTORE POP DUP2 ADD SWAP1 PUSH2 0x8E2 SWAP2 SWAP1 PUSH2 0x3B26 JUMP JUMPDEST POP POP JUMPDEST JUMP JUMPDEST PUSH0 PUSH1 0x1 ISZERO ISZERO PUSH1 0x9 PUSH0 SWAP1 SLOAD SWAP1 PUSH2 0x100 EXP SWAP1 DIV PUSH1 0xFF AND ISZERO ISZERO EQ PUSH2 0x93D JUMPI PUSH1 0x40 MLOAD PUSH32 0x8C379A000000000000000000000000000000000000000000000000000000000 DUP2 MSTORE PUSH1 0x4 ADD PUSH2 0x934 SWAP1 PUSH2 0x406D JUMP JUMPDEST PUSH1 0x40 MLOAD DUP1 SWAP2 SUB SWAP1 REVERT JUMPDEST PUSH1 0x1 ISZERO ISZERO PUSH1 0xC PUSH0 SWAP1 SLOAD SWAP1 PUSH2 0x100 EXP SWAP1 DIV PUSH1 0xFF AND ISZERO ISZERO EQ PUSH2 0x992 JUMPI PUSH1 0x40 MLOAD PUSH32 0x8C379A000000000000000000000000000000000000000000000000000000000 DUP2 MSTORE PUSH1 0x4 ADD PUSH2 0x989 SWAP1 PUSH2 0x40D5 JUMP JUMPDEST PUSH1 0x40 MLOAD DUP1 SWAP2 SUB SWAP1 REVERT JUMPDEST PUSH0 SWAP1 POP PUSH0 PUSH1 0x1 PUSH0 CALLER PUSH20 0xFFFFFFFFFFFFFFFFFFFFFFFFFFFFFFFFFFFFFFFF AND PUSH20 0xFFFFFFFFFFFFFFFFFFFFFFFFFFFFFFFFFFFFFFFF AND DUP2 MSTORE PUSH1 0x20 ADD SWAP1 DUP2 MSTORE PUSH1 0x20 ADD PUSH0 KECCAK256 PUSH0 ADD DUP1 SLOAD PUSH2 0x9E0 SWAP1 PUSH2 0x4120 JUMP JUMPDEST SWAP1 POP SUB PUSH2 0xA22 JUMPI PUSH1 0x40 MLOAD PUSH32 0x8C379A000000000000000000000000000000000000000000000000000000000 DUP2 MSTORE PUSH1 0x4 ADD PUSH2 0xA19 SWAP1 PUSH2 0x419A JUMP JUMPDEST PUSH1 0x40 MLOAD DUP1 SWAP2 SUB SWAP1 REVERT JUMPDEST PUSH0 DUP1 PUSH0 DUP5 DUP2 MSTORE PUSH1 0x20 ADD SWAP1 DUP2 MSTORE PUSH1 0x20 ADD PUSH0 KECCAK256 DUP1 SLOAD PUSH2 0xA3E SWAP1 PUSH2 0x4120 JUMP JUMPDEST SWAP1 POP SUB PUSH2 0xA80 JUMPI PUSH1 0x40 MLOAD PUSH32 0x8C379A000000000000000000000000000000000000000000000000000000000 DUP2 MSTORE PUSH1 0x4 ADD PUSH2 0xA77 SWAP1 PUSH2 0x4202 JUMP JUMPDEST PUSH1 0x40 MLOAD DUP1 SWAP2 SUB SWAP1 REVERT JUMPDEST PUSH1 0x1 PUSH0 CALLER PUSH20 0xFFFFFFFFFFFFFFFFFFFFFFFFFFFFFFFFFFFFFFFF AND PUSH20 0xFFFFFFFFFFFFFFFFFFFFFFFFFFFFFFFFFFFFFFFF AND DUP2 MSTORE PUSH1 0x20 ADD SWAP1 DUP2 MSTORE PUSH1 0x20 ADD PUSH0 KECCAK256 PUSH1 0x1 ADD PUSH0 SWAP1 SLOAD SWAP1 PUSH2 0x100 EXP SWAP1 DIV PUSH1 0xFF AND ISZERO PUSH2 0xB0D JUMPI PUSH1 0x40 MLOAD PUSH32 0x8C379A000000000000000000000000000000000000000000000000000000000 DUP2 MSTORE PUSH1 0x4 ADD PUSH2 0xB04 SWAP1 PUSH2 0x426A JUMP JUMPDEST PUSH1 0x40 MLOAD DUP1 SWAP2 SUB SWAP1 REVERT JUMPDEST PUSH1 0xB SLOAD NUMBER LT PUSH2 0xB1F JUMPI PUSH2 0xB1E PUSH2 0x344A JUMP JUMPDEST JUMPDEST PUSH1 0x1 SWAP1 POP PUSH1 0x1 DUP1 PUSH0 CALLER PUSH20 0xFFFFFFFFFFFFFFFFFFFFFFFFFFFFFFFFFFFFFFFF AND PUSH20 0xFFFFFFFFFFFFFFFFFFFFFFFFFFFFFFFFFFFFFFFF AND DUP2 MSTORE PUSH1 0x20 ADD SWAP1 DUP2 MSTORE PUSH1 0x20 ADD PUSH0 KECCAK256 PUSH1 0x1 ADD PUSH0 PUSH2 0x100 EXP DUP2 SLOAD DUP2 PUSH1 0xFF MUL NOT AND SWAP1 DUP4 ISZERO ISZERO MUL OR SWAP1 SSTORE POP PUSH1 0x4 PUSH0 DUP2 SLOAD DUP1 SWAP3 SWAP2 SWAP1 PUSH2 0xB8C SWAP1 PUSH2 0x42B5 JUMP JUMPDEST SWAP2 SWAP1 POP SSTORE POP PUSH2 0xB99 PUSH2 0x35E7 JUMP JUMPDEST CALLER DUP2 PUSH0 ADD SWAP1 PUSH20 0xFFFFFFFFFFFFFFFFFFFFFFFFFFFFFFFFFFFFFFFF AND SWAP1 DUP2 PUSH20 0xFFFFFFFFFFFFFFFFFFFFFFFFFFFFFFFFFFFFFFFF AND DUP2 MSTORE POP POP DUP3 DUP2 PUSH1 0x20 ADD DUP2 DUP2 MSTORE POP POP PUSH1 0x7 DUP2 SWAP1 DUP1 PUSH1 0x1 DUP2 SLOAD ADD DUP1 DUP3 SSTORE DUP1 SWAP2 POP POP PUSH1 0x1 SWAP1 SUB SWAP1 PUSH0 MSTORE PUSH1 0x20 PUSH0 KECCAK256 SWAP1 PUSH1 0x2 MUL ADD PUSH0 SWAP1 SWAP2 SWAP1 SWAP2 SWAP1 SWAP2 POP PUSH0 DUP3 ADD MLOAD DUP2 PUSH0 ADD PUSH0 PUSH2 0x100 EXP DUP2 SLOAD DUP2 PUSH20 0xFFFFFFFFFFFFFFFFFFFFFFFFFFFFFFFFFFFFFFFF MUL NOT AND SWAP1 DUP4 PUSH20 0xFFFFFFFFFFFFFFFFFFFFFFFFFFFFFFFFFFFFFFFF AND MUL OR SWAP1 SSTORE POP PUSH1 0x20 DUP3 ADD MLOAD DUP2 PUSH1 0x1 ADD SSTORE POP POP PUSH1 0x1 PUSH1 0x2 PUSH1 0x3 SLOAD PUSH2 0xC64 SWAP2 SWAP1 PUSH2 0x4329 JUMP JUMPDEST PUSH2 0xC6E SWAP2 SWAP1 PUSH2 0x4359 JUMP JUMPDEST PUSH1 0x4 SLOAD LT PUSH2 0xC7F JUMPI PUSH2 0xC7E PUSH2 0x344A JUMP JUMPDEST JUMPDEST POP SWAP2 SWAP1 POP JUMP JUMPDEST ADDRESS PUSH20 0xFFFFFFFFFFFFFFFFFFFFFFFFFFFFFFFFFFFFFFFF AND PUSH4 0x894BA833 PUSH1 0x40 MLOAD DUP2 PUSH4 0xFFFFFFFF AND PUSH1 0xE0 SHL DUP2 MSTORE PUSH1 0x4 ADD PUSH0 PUSH1 0x40 MLOAD DUP1 DUP4 SUB DUP2 PUSH0 DUP8 DUP1 EXTCODESIZE ISZERO DUP1 ISZERO PUSH2 0xCCA JUMPI PUSH0 DUP1 REVERT JUMPDEST POP GAS CALL SWAP3 POP POP POP DUP1 ISZERO PUSH2 0xCDB JUMPI POP PUSH1 0x1 JUMPDEST PUSH2 0xECB JUMPI PUSH2 0xCE7 PUSH2 0x3C12 JUMP JUMPDEST DUP1 PUSH4 0x8C379A0 SUB PUSH2 0xD83 JUMPI POP PUSH2 0xCFB PUSH2 0x3C31 JUMP JUMPDEST DUP1 PUSH2 0xD06 JUMPI POP PUSH2 0xE1D JUMP JUMPDEST PUSH20 0x0 PUSH4 0xE8C2CB16 DUP3 PUSH1 0x40 MLOAD DUP3 PUSH4 0xFFFFFFFF AND PUSH1 0xE0 SHL DUP2 MSTORE PUSH1 0x4 ADD PUSH2 0xD3D SWAP2 SWAP1 PUSH2 0x3DB2 JUMP JUMPDEST PUSH1 0x20 PUSH1 0x40 MLOAD DUP1 DUP4 SUB DUP2 DUP7 GAS DELEGATECALL ISZERO DUP1 ISZERO PUSH2 0xD58 JUMPI RETURNDATASIZE PUSH0 DUP1 RETURNDATACOPY RETURNDATASIZE PUSH0 REVERT JUMPDEST POP POP POP POP PUSH1 0x40 MLOAD RETURNDATASIZE PUSH1 0x1F NOT PUSH1 0x1F DUP3 ADD AND DUP3 ADD DUP1 PUSH1 0x40 MSTORE POP DUP2 ADD SWAP1 PUSH2 0xD7C SWAP2 SWAP1 PUSH2 0x3B26 JUMP JUMPDEST POP POP PUSH2 0xEC6 JUMP JUMPDEST PUSH4 0x4E487B71 SUB PUSH2 0xE1D JUMPI PUSH2 0xD95 PUSH2 0x3DF8 JUMP JUMPDEST SWAP1 PUSH2 0xDA0 JUMPI POP PUSH2 0xE1D JUMP JUMPDEST PUSH20 0x0 PUSH4 0x39DF137F PUSH0 PUSH1 0x40 MLOAD DUP3 PUSH4 0xFFFFFFFF AND PUSH1 0xE0 SHL DUP2 MSTORE PUSH1 0x4 ADD PUSH2 0xDD7 SWAP2 SWAP1 PUSH2 0x3E86 JUMP JUMPDEST PUSH1 0x20 PUSH1 0x40 MLOAD DUP1 DUP4 SUB DUP2 DUP7 GAS DELEGATECALL ISZERO DUP1 ISZERO PUSH2 0xDF2 JUMPI RETURNDATASIZE PUSH0 DUP1 RETURNDATACOPY RETURNDATASIZE PUSH0 REVERT JUMPDEST POP POP POP POP PUSH1 0x40 MLOAD RETURNDATASIZE PUSH1 0x1F NOT PUSH1 0x1F DUP3 ADD AND DUP3 ADD DUP1 PUSH1 0x40 MSTORE POP DUP2 ADD SWAP1 PUSH2 0xE16 SWAP2 SWAP1 PUSH2 0x3B26 JUMP JUMPDEST POP POP PUSH2 0xEC6 JUMP JUMPDEST RETURNDATASIZE DUP1 PUSH0 DUP2 EQ PUSH2 0xE47 JUMPI PUSH1 0x40 MLOAD SWAP2 POP PUSH1 0x1F NOT PUSH1 0x3F RETURNDATASIZE ADD AND DUP3 ADD PUSH1 0x40 MSTORE RETURNDATASIZE DUP3 MSTORE RETURNDATASIZE PUSH0 PUSH1 0x20 DUP5 ADD RETURNDATACOPY PUSH2 0xE4C JUMP JUMPDEST PUSH1 0x60 SWAP2 POP JUMPDEST POP PUSH20 0x0 PUSH4 0x39DF137F PUSH0 PUSH1 0x40 MLOAD DUP3 PUSH4 0xFFFFFFFF AND PUSH1 0xE0 SHL DUP2 MSTORE PUSH1 0x4 ADD PUSH2 0xE84 SWAP2 SWAP1 PUSH2 0x3EFC JUMP JUMPDEST PUSH1 0x20 PUSH1 0x40 MLOAD DUP1 DUP4 SUB DUP2 DUP7 GAS DELEGATECALL ISZERO DUP1 ISZERO PUSH2 0xE9F JUMPI RETURNDATASIZE PUSH0 DUP1 RETURNDATACOPY RETURNDATASIZE PUSH0 REVERT JUMPDEST POP POP POP POP PUSH1 0x40 MLOAD RETURNDATASIZE PUSH1 0x1F NOT PUSH1 0x1F DUP3 ADD AND DUP3 ADD DUP1 PUSH1 0x40 MSTORE POP DUP2 ADD SWAP1 PUSH2 0xEC3 SWAP2 SWAP1 PUSH2 0x3B26 JUMP JUMPDEST POP POP JUMPDEST PUSH2 0xF53 JUMP JUMPDEST PUSH20 0x0 PUSH4 0x44781A00 PUSH1 0xC PUSH0 SWAP1 SLOAD SWAP1 PUSH2 0x100 EXP SWAP1 DIV PUSH1 0xFF AND PUSH0 PUSH1 0x40 MLOAD DUP4 PUSH4 0xFFFFFFFF AND PUSH1 0xE0 SHL DUP2 MSTORE PUSH1 0x4 ADD PUSH2 0xF12 SWAP3 SWAP2 SWAP1 PUSH2 0x438C JUMP JUMPDEST PUSH1 0x20 PUSH1 0x40 MLOAD DUP1 DUP4 SUB DUP2 DUP7 GAS DELEGATECALL ISZERO DUP1 ISZERO PUSH2 0xF2D JUMPI RETURNDATASIZE PUSH0 DUP1 RETURNDATACOPY RETURNDATASIZE PUSH0 REVERT JUMPDEST POP POP POP POP PUSH1 0x40 MLOAD RETURNDATASIZE PUSH1 0x1F NOT PUSH1 0x1F DUP3 ADD AND DUP3 ADD DUP1 PUSH1 0x40 MSTORE POP DUP2 ADD SWAP1 PUSH2 0xF51 SWAP2 SWAP1 PUSH2 0x3B26 JUMP JUMPDEST POP JUMPDEST JUMP JUMPDEST PUSH1 0x1 PUSH1 0x20 MSTORE DUP1 PUSH0 MSTORE PUSH1 0x40 PUSH0 KECCAK256 PUSH0 SWAP2 POP SWAP1 POP DUP1 PUSH0 ADD DUP1 SLOAD PUSH2 0xF74 SWAP1 PUSH2 0x4120 JUMP JUMPDEST DUP1 PUSH1 0x1F ADD PUSH1 0x20 DUP1 SWAP2 DIV MUL PUSH1 0x20 ADD PUSH1 0x40 MLOAD SWAP1 DUP2 ADD PUSH1 0x40 MSTORE DUP1 SWAP3 SWAP2 SWAP1 DUP2 DUP2 MSTORE PUSH1 0x20 ADD DUP3 DUP1 SLOAD PUSH2 0xFA0 SWAP1 PUSH2 0x4120 JUMP JUMPDEST DUP1 ISZERO PUSH2 0xFEB JUMPI DUP1 PUSH1 0x1F LT PUSH2 0xFC2 JUMPI PUSH2 0x100 DUP1 DUP4 SLOAD DIV MUL DUP4 MSTORE SWAP2 PUSH1 0x20 ADD SWAP2 PUSH2 0xFEB JUMP JUMPDEST DUP3 ADD SWAP2 SWAP1 PUSH0 MSTORE PUSH1 0x20 PUSH0 KECCAK256 SWAP1 JUMPDEST DUP2 SLOAD DUP2 MSTORE SWAP1 PUSH1 0x1 ADD SWAP1 PUSH1 0x20 ADD DUP1 DUP4 GT PUSH2 0xFCE JUMPI DUP3 SWAP1 SUB PUSH1 0x1F AND DUP3 ADD SWAP2 JUMPDEST POP POP POP POP POP SWAP1 DUP1 PUSH1 0x1 ADD PUSH0 SWAP1 SLOAD SWAP1 PUSH2 0x100 EXP SWAP1 DIV PUSH1 0xFF AND SWAP1 POP DUP3 JUMP JUMPDEST PUSH1 0xC PUSH0 SWAP1 SLOAD SWAP1 PUSH2 0x100 EXP SWAP1 DIV PUSH1 0xFF AND DUP2 JUMP JUMPDEST ADDRESS PUSH20 0xFFFFFFFFFFFFFFFFFFFFFFFFFFFFFFFFFFFFFFFF AND PUSH4 0x124258C6 PUSH1 0x1 PUSH1 0x40 MLOAD DUP3 PUSH4 0xFFFFFFFF AND PUSH1 0xE0 SHL DUP2 MSTORE PUSH1 0x4 ADD PUSH2 0x1053 SWAP2 SWAP1 PUSH2 0x43FF JUMP JUMPDEST PUSH1 0x20 PUSH1 0x40 MLOAD DUP1 DUP4 SUB DUP2 PUSH0 DUP8 GAS CALL SWAP3 POP POP POP DUP1 ISZERO PUSH2 0x108E JUMPI POP PUSH1 0x40 MLOAD RETURNDATASIZE PUSH1 0x1F NOT PUSH1 0x1F DUP3 ADD AND DUP3 ADD DUP1 PUSH1 0x40 MSTORE POP DUP2 ADD SWAP1 PUSH2 0x108B SWAP2 SWAP1 PUSH2 0x3B26 JUMP JUMPDEST PUSH1 0x1 JUMPDEST PUSH2 0x127E JUMPI PUSH2 0x109A PUSH2 0x3C12 JUMP JUMPDEST DUP1 PUSH4 0x8C379A0 SUB PUSH2 0x1136 JUMPI POP PUSH2 0x10AE PUSH2 0x3C31 JUMP JUMPDEST DUP1 PUSH2 0x10B9 JUMPI POP PUSH2 0x11D0 JUMP JUMPDEST PUSH20 0x0 PUSH4 0xE8C2CB16 DUP3 PUSH1 0x40 MLOAD DUP3 PUSH4 0xFFFFFFFF AND PUSH1 0xE0 SHL DUP2 MSTORE PUSH1 0x4 ADD PUSH2 0x10F0 SWAP2 SWAP1 PUSH2 0x443A JUMP JUMPDEST PUSH1 0x20 PUSH1 0x40 MLOAD DUP1 DUP4 SUB DUP2 DUP7 GAS DELEGATECALL ISZERO DUP1 ISZERO PUSH2 0x110B JUMPI RETURNDATASIZE PUSH0 DUP1 RETURNDATACOPY RETURNDATASIZE PUSH0 REVERT JUMPDEST POP POP POP POP PUSH1 0x40 MLOAD RETURNDATASIZE PUSH1 0x1F NOT PUSH1 0x1F DUP3 ADD AND DUP3 ADD DUP1 PUSH1 0x40 MSTORE POP DUP2 ADD SWAP1 PUSH2 0x112F SWAP2 SWAP1 PUSH2 0x3B26 JUMP JUMPDEST POP POP PUSH2 0x1279 JUMP JUMPDEST PUSH4 0x4E487B71 SUB PUSH2 0x11D0 JUMPI PUSH2 0x1148 PUSH2 0x3DF8 JUMP JUMPDEST SWAP1 PUSH2 0x1153 JUMPI POP PUSH2 0x11D0 JUMP JUMPDEST PUSH20 0x0 PUSH4 0x39DF137F PUSH0 PUSH1 0x40 MLOAD DUP3 PUSH4 0xFFFFFFFF AND PUSH1 0xE0 SHL DUP2 MSTORE PUSH1 0x4 ADD PUSH2 0x118A SWAP2 SWAP1 PUSH2 0x3E86 JUMP JUMPDEST PUSH1 0x20 PUSH1 0x40 MLOAD DUP1 DUP4 SUB DUP2 DUP7 GAS DELEGATECALL ISZERO DUP1 ISZERO PUSH2 0x11A5 JUMPI RETURNDATASIZE PUSH0 DUP1 RETURNDATACOPY RETURNDATASIZE PUSH0 REVERT JUMPDEST POP POP POP POP PUSH1 0x40 MLOAD RETURNDATASIZE PUSH1 0x1F NOT PUSH1 0x1F DUP3 ADD AND DUP3 ADD DUP1 PUSH1 0x40 MSTORE POP DUP2 ADD SWAP1 PUSH2 0x11C9 SWAP2 SWAP1 PUSH2 0x3B26 JUMP JUMPDEST POP POP PUSH2 0x1279 JUMP JUMPDEST RETURNDATASIZE DUP1 PUSH0 DUP2 EQ PUSH2 0x11FA JUMPI PUSH1 0x40 MLOAD SWAP2 POP PUSH1 0x1F NOT PUSH1 0x3F RETURNDATASIZE ADD AND DUP3 ADD PUSH1 0x40 MSTORE RETURNDATASIZE DUP3 MSTORE RETURNDATASIZE PUSH0 PUSH1 0x20 DUP5 ADD RETURNDATACOPY PUSH2 0x11FF JUMP JUMPDEST PUSH1 0x60 SWAP2 POP JUMPDEST POP PUSH20 0x0 PUSH4 0x39DF137F PUSH0 PUSH1 0x40 MLOAD DUP3 PUSH4 0xFFFFFFFF AND PUSH1 0xE0 SHL DUP2 MSTORE PUSH1 0x4 ADD PUSH2 0x1237 SWAP2 SWAP1 PUSH2 0x44CA JUMP JUMPDEST PUSH1 0x20 PUSH1 0x40 MLOAD DUP1 DUP4 SUB DUP2 DUP7 GAS DELEGATECALL ISZERO DUP1 ISZERO PUSH2 0x1252 JUMPI RETURNDATASIZE PUSH0 DUP1 RETURNDATACOPY RETURNDATASIZE PUSH0 REVERT JUMPDEST POP POP POP POP PUSH1 0x40 MLOAD RETURNDATASIZE PUSH1 0x1F NOT PUSH1 0x1F DUP3 ADD AND DUP3 ADD DUP1 PUSH1 0x40 MSTORE POP DUP2 ADD SWAP1 PUSH2 0x1276 SWAP2 SWAP1 PUSH2 0x3B26 JUMP JUMPDEST POP POP JUMPDEST PUSH2 0x12FA JUMP JUMPDEST PUSH20 0x0 PUSH4 0x767392B3 DUP3 PUSH1 0x1 PUSH1 0x40 MLOAD DUP4 PUSH4 0xFFFFFFFF AND PUSH1 0xE0 SHL DUP2 MSTORE PUSH1 0x4 ADD PUSH2 0x12B8 SWAP3 SWAP2 SWAP1 PUSH2 0x438C JUMP JUMPDEST PUSH1 0x20 PUSH1 0x40 MLOAD DUP1 DUP4 SUB DUP2 DUP7 GAS DELEGATECALL ISZERO DUP1 ISZERO PUSH2 0x12D3 JUMPI RETURNDATASIZE PUSH0 DUP1 RETURNDATACOPY RETURNDATASIZE PUSH0 REVERT JUMPDEST POP POP POP POP PUSH1 0x40 MLOAD RETURNDATASIZE PUSH1 0x1F NOT PUSH1 0x1F DUP3 ADD AND DUP3 ADD DUP1 PUSH1 0x40 MSTORE POP DUP2 ADD SWAP1 PUSH2 0x12F7 SWAP2 SWAP1 PUSH2 0x3B26 JUMP JUMPDEST POP POP JUMPDEST JUMP JUMPDEST PUSH0 PUSH1 0x5 PUSH0 SWAP1 SLOAD SWAP1 PUSH2 0x100 EXP SWAP1 DIV PUSH20 0xFFFFFFFFFFFFFFFFFFFFFFFFFFFFFFFFFFFFFFFF AND PUSH20 0xFFFFFFFFFFFFFFFFFFFFFFFFFFFFFFFFFFFFFFFF AND CALLER PUSH20 0xFFFFFFFFFFFFFFFFFFFFFFFFFFFFFFFFFFFFFFFF AND EQ PUSH2 0x138C JUMPI PUSH1 0x40 MLOAD PUSH32 0x8C379A000000000000000000000000000000000000000000000000000000000 DUP2 MSTORE PUSH1 0x4 ADD PUSH2 0x1383 SWAP1 PUSH2 0x4518 JUMP JUMPDEST PUSH1 0x40 MLOAD DUP1 SWAP2 SUB SWAP1 REVERT JUMPDEST PUSH0 ISZERO ISZERO PUSH1 0x9 PUSH0 SWAP1 SLOAD SWAP1 PUSH2 0x100 EXP SWAP1 DIV PUSH1 0xFF AND ISZERO ISZERO EQ PUSH2 0x13E0 JUMPI PUSH1 0x40 MLOAD PUSH32 0x8C379A000000000000000000000000000000000000000000000000000000000 DUP2 MSTORE PUSH1 0x4 ADD PUSH2 0x13D7 SWAP1 PUSH2 0x45A6 JUMP JUMPDEST PUSH1 0x40 MLOAD DUP1 SWAP2 SUB SWAP1 REVERT JUMPDEST PUSH1 0xB SLOAD NUMBER LT PUSH2 0x1424 JUMPI PUSH1 0x40 MLOAD PUSH32 0x8C379A000000000000000000000000000000000000000000000000000000000 DUP2 MSTORE PUSH1 0x4 ADD PUSH2 0x141B SWAP1 PUSH2 0x460E JUMP JUMPDEST PUSH1 0x40 MLOAD DUP1 SWAP2 SUB SWAP1 REVERT JUMPDEST PUSH1 0x1 ISZERO ISZERO PUSH1 0xC PUSH0 SWAP1 SLOAD SWAP1 PUSH2 0x100 EXP SWAP1 DIV PUSH1 0xFF AND ISZERO ISZERO EQ PUSH2 0x1479 JUMPI PUSH1 0x40 MLOAD PUSH32 0x8C379A000000000000000000000000000000000000000000000000000000000 DUP2 MSTORE PUSH1 0x4 ADD PUSH2 0x1470 SWAP1 PUSH2 0x40D5 JUMP JUMPDEST PUSH1 0x40 MLOAD DUP1 SWAP2 SUB SWAP1 REVERT JUMPDEST PUSH0 PUSH1 0x1 PUSH0 DUP6 PUSH20 0xFFFFFFFFFFFFFFFFFFFFFFFFFFFFFFFFFFFFFFFF AND PUSH20 0xFFFFFFFFFFFFFFFFFFFFFFFFFFFFFFFFFFFFFFFF AND DUP2 MSTORE PUSH1 0x20 ADD SWAP1 DUP2 MSTORE PUSH1 0x20 ADD PUSH0 KECCAK256 PUSH0 ADD DUP1 SLOAD PUSH2 0x14C4 SWAP1 PUSH2 0x4120 JUMP JUMPDEST SWAP1 POP EQ PUSH2 0x1506 JUMPI PUSH1 0x40 MLOAD PUSH32 0x8C379A000000000000000000000000000000000000000000000000000000000 DUP2 MSTORE PUSH1 0x4 ADD PUSH2 0x14FD SWAP1 PUSH2 0x4676 JUMP JUMPDEST PUSH1 0x40 MLOAD DUP1 SWAP2 SUB SWAP1 REVERT JUMPDEST PUSH1 0x3 PUSH0 DUP2 SLOAD DUP1 SWAP3 SWAP2 SWAP1 PUSH2 0x1518 SWAP1 PUSH2 0x42B5 JUMP JUMPDEST SWAP2 SWAP1 POP SSTORE POP PUSH2 0x1525 PUSH2 0x3615 JUMP JUMPDEST DUP3 DUP2 PUSH0 ADD DUP2 SWAP1 MSTORE POP PUSH0 DUP2 PUSH1 0x20 ADD SWAP1 ISZERO ISZERO SWAP1 DUP2 ISZERO ISZERO DUP2 MSTORE POP POP DUP1 PUSH1 0x1 PUSH0 DUP7 PUSH20 0xFFFFFFFFFFFFFFFFFFFFFFFFFFFFFFFFFFFFFFFF AND PUSH20 0xFFFFFFFFFFFFFFFFFFFFFFFFFFFFFFFFFFFFFFFF AND DUP2 MSTORE PUSH1 0x20 ADD SWAP1 DUP2 MSTORE PUSH1 0x20 ADD PUSH0 KECCAK256 PUSH0 DUP3 ADD MLOAD DUP2 PUSH0 ADD SWAP1 DUP2 PUSH2 0x158E SWAP2 SWAP1 PUSH2 0x4828 JUMP JUMPDEST POP PUSH1 0x20 DUP3 ADD MLOAD DUP2 PUSH1 0x1 ADD PUSH0 PUSH2 0x100 EXP DUP2 SLOAD DUP2 PUSH1 0xFF MUL NOT AND SWAP1 DUP4 ISZERO ISZERO MUL OR SWAP1 SSTORE POP SWAP1 POP POP PUSH1 0x3 SLOAD SWAP2 POP POP SWAP3 SWAP2 POP POP JUMP JUMPDEST PUSH1 0x3 SLOAD DUP2 JUMP JUMPDEST PUSH1 0x5 PUSH0 SWAP1 SLOAD SWAP1 PUSH2 0x100 EXP SWAP1 DIV PUSH20 0xFFFFFFFFFFFFFFFFFFFFFFFFFFFFFFFFFFFFFFFF AND DUP2 JUMP JUMPDEST PUSH1 0xB SLOAD DUP2 JUMP JUMPDEST PUSH1 0x7 DUP2 DUP2 SLOAD DUP2 LT PUSH2 0x15FD JUMPI PUSH0 DUP1 REVERT JUMPDEST SWAP1 PUSH0 MSTORE PUSH1 0x20 PUSH0 KECCAK256 SWAP1 PUSH1 0x2 MUL ADD PUSH0 SWAP2 POP SWAP1 POP DUP1 PUSH0 ADD PUSH0 SWAP1 SLOAD SWAP1 PUSH2 0x100 EXP SWAP1 DIV PUSH20 0xFFFFFFFFFFFFFFFFFFFFFFFFFFFFFFFFFFFFFFFF AND SWAP1 DUP1 PUSH1 0x1 ADD SLOAD SWAP1 POP DUP3 JUMP JUMPDEST PUSH1 0x5 PUSH0 SWAP1 SLOAD SWAP1 PUSH2 0x100 EXP SWAP1 DIV PUSH20 0xFFFFFFFFFFFFFFFFFFFFFFFFFFFFFFFFFFFFFFFF AND PUSH20 0xFFFFFFFFFFFFFFFFFFFFFFFFFFFFFFFFFFFFFFFF AND CALLER PUSH20 0xFFFFFFFFFFFFFFFFFFFFFFFFFFFFFFFFFFFFFFFF AND EQ PUSH2 0x16CB JUMPI PUSH1 0x40 MLOAD PUSH32 0x8C379A000000000000000000000000000000000000000000000000000000000 DUP2 MSTORE PUSH1 0x4 ADD PUSH2 0x16C2 SWAP1 PUSH2 0x4518 JUMP JUMPDEST PUSH1 0x40 MLOAD DUP1 SWAP2 SUB SWAP1 REVERT JUMPDEST PUSH1 0x1 ISZERO ISZERO PUSH1 0xC PUSH0 SWAP1 SLOAD SWAP1 PUSH2 0x100 EXP SWAP1 DIV PUSH1 0xFF AND ISZERO ISZERO EQ PUSH2 0x1720 JUMPI PUSH1 0x40 MLOAD PUSH32 0x8C379A000000000000000000000000000000000000000000000000000000000 DUP2 MSTORE PUSH1 0x4 ADD PUSH2 0x1717 SWAP1 PUSH2 0x40D5 JUMP JUMPDEST PUSH1 0x40 MLOAD DUP1 SWAP2 SUB SWAP1 REVERT JUMPDEST DUP1 NUMBER PUSH2 0x172C SWAP2 SWAP1 PUSH2 0x4359 JUMP JUMPDEST PUSH1 0xB DUP2 SWAP1 SSTORE POP POP JUMP JUMPDEST PUSH1 0xC PUSH1 0x1 SWAP1 SLOAD SWAP1 PUSH2 0x100 EXP SWAP1 DIV PUSH20 0xFFFFFFFFFFFFFFFFFFFFFFFFFFFFFFFFFFFFFFFF AND DUP2 JUMP JUMPDEST PUSH0 PUSH1 0x5 PUSH0 SWAP1 SLOAD SWAP1 PUSH2 0x100 EXP SWAP1 DIV PUSH20 0xFFFFFFFFFFFFFFFFFFFFFFFFFFFFFFFFFFFFFFFF AND PUSH20 0xFFFFFFFFFFFFFFFFFFFFFFFFFFFFFFFFFFFFFFFF AND CALLER PUSH20 0xFFFFFFFFFFFFFFFFFFFFFFFFFFFFFFFFFFFFFFFF AND EQ PUSH2 0x17EB JUMPI PUSH1 0x40 MLOAD PUSH32 0x8C379A000000000000000000000000000000000000000000000000000000000 DUP2 MSTORE PUSH1 0x4 ADD PUSH2 0x17E2 SWAP1 PUSH2 0x4518 JUMP JUMPDEST PUSH1 0x40 MLOAD DUP1 SWAP2 SUB SWAP1 REVERT JUMPDEST PUSH0 ISZERO ISZERO PUSH1 0x9 PUSH0 SWAP1 SLOAD SWAP1 PUSH2 0x100 EXP SWAP1 DIV PUSH1 0xFF AND ISZERO ISZERO EQ PUSH2 0x183F JUMPI PUSH1 0x40 MLOAD PUSH32 0x8C379A000000000000000000000000000000000000000000000000000000000 DUP2 MSTORE PUSH1 0x4 ADD PUSH2 0x1836 SWAP1 PUSH2 0x45A6 JUMP JUMPDEST PUSH1 0x40 MLOAD DUP1 SWAP2 SUB SWAP1 REVERT JUMPDEST PUSH1 0xB SLOAD NUMBER LT PUSH2 0x1883 JUMPI PUSH1 0x40 MLOAD PUSH32 0x8C379A000000000000000000000000000000000000000000000000000000000 DUP2 MSTORE PUSH1 0x4 ADD PUSH2 0x187A SWAP1 PUSH2 0x460E JUMP JUMPDEST PUSH1 0x40 MLOAD DUP1 SWAP2 SUB SWAP1 REVERT JUMPDEST PUSH1 0x1 ISZERO ISZERO PUSH1 0xC PUSH0 SWAP1 SLOAD SWAP1 PUSH2 0x100 EXP SWAP1 DIV PUSH1 0xFF AND ISZERO ISZERO EQ PUSH2 0x18D8 JUMPI PUSH1 0x40 MLOAD PUSH32 0x8C379A000000000000000000000000000000000000000000000000000000000 DUP2 MSTORE PUSH1 0x4 ADD PUSH2 0x18CF SWAP1 PUSH2 0x40D5 JUMP JUMPDEST PUSH1 0x40 MLOAD DUP1 SWAP2 SUB SWAP1 REVERT JUMPDEST PUSH0 DUP3 DUP1 MLOAD SWAP1 PUSH1 0x20 ADD KECCAK256 SWAP1 POP PUSH1 0xA PUSH0 DUP3 DUP2 MSTORE PUSH1 0x20 ADD SWAP1 DUP2 MSTORE PUSH1 0x20 ADD PUSH0 KECCAK256 PUSH0 SWAP1 SLOAD SWAP1 PUSH2 0x100 EXP SWAP1 DIV PUSH1 0xFF AND ISZERO PUSH2 0x1941 JUMPI PUSH1 0x40 MLOAD PUSH32 0x8C379A000000000000000000000000000000000000000000000000000000000 DUP2 MSTORE PUSH1 0x4 ADD PUSH2 0x1938 SWAP1 PUSH2 0x4941 JUMP JUMPDEST PUSH1 0x40 MLOAD DUP1 SWAP2 SUB SWAP1 REVERT JUMPDEST PUSH1 0x2 PUSH0 DUP2 SLOAD DUP1 SWAP3 SWAP2 SWAP1 PUSH2 0x1953 SWAP1 PUSH2 0x42B5 JUMP JUMPDEST SWAP2 SWAP1 POP SSTORE POP DUP3 PUSH0 DUP1 PUSH1 0x2 SLOAD DUP2 MSTORE PUSH1 0x20 ADD SWAP1 DUP2 MSTORE PUSH1 0x20 ADD PUSH0 KECCAK256 SWAP1 DUP2 PUSH2 0x1977 SWAP2 SWAP1 PUSH2 0x4828 JUMP JUMPDEST POP PUSH1 0x1 PUSH1 0xA PUSH0 DUP4 DUP2 MSTORE PUSH1 0x20 ADD SWAP1 DUP2 MSTORE PUSH1 0x20 ADD PUSH0 KECCAK256 PUSH0 PUSH2 0x100 EXP DUP2 SLOAD DUP2 PUSH1 0xFF MUL NOT AND SWAP1 DUP4 ISZERO ISZERO MUL OR SWAP1 SSTORE POP PUSH1 0x2 SLOAD SWAP2 POP POP SWAP2 SWAP1 POP JUMP JUMPDEST PUSH20 0x0 PUSH4 0x39DF137F PUSH2 0x19D0 PUSH1 0x2 PUSH2 0x8E7 JUMP JUMPDEST PUSH1 0x40 MLOAD DUP3 PUSH4 0xFFFFFFFF AND PUSH1 0xE0 SHL DUP2 MSTORE PUSH1 0x4 ADD PUSH2 0x19EC SWAP2 SWAP1 PUSH2 0x49A9 JUMP JUMPDEST PUSH1 0x20 PUSH1 0x40 MLOAD DUP1 DUP4 SUB DUP2 DUP7 GAS DELEGATECALL ISZERO DUP1 ISZERO PUSH2 0x1A07 JUMPI RETURNDATASIZE PUSH0 DUP1 RETURNDATACOPY RETURNDATASIZE PUSH0 REVERT JUMPDEST POP POP POP POP PUSH1 0x40 MLOAD RETURNDATASIZE PUSH1 0x1F NOT PUSH1 0x1F DUP3 ADD AND DUP3 ADD DUP1 PUSH1 0x40 MSTORE POP DUP2 ADD SWAP1 PUSH2 0x1A2B SWAP2 SWAP1 PUSH2 0x3B26 JUMP JUMPDEST POP JUMP JUMPDEST PUSH20 0x0 PUSH4 0xBFBA5DD6 PUSH1 0x5 PUSH0 SWAP1 SLOAD SWAP1 PUSH2 0x100 EXP SWAP1 DIV PUSH20 0xFFFFFFFFFFFFFFFFFFFFFFFFFFFFFFFFFFFFFFFF AND PUSH1 0xD PUSH0 SWAP1 SLOAD SWAP1 PUSH2 0x100 EXP SWAP1 DIV PUSH20 0xFFFFFFFFFFFFFFFFFFFFFFFFFFFFFFFFFFFFFFFF AND PUSH1 0x40 MLOAD DUP4 PUSH4 0xFFFFFFFF AND PUSH1 0xE0 SHL DUP2 MSTORE PUSH1 0x4 ADD PUSH2 0x1AA9 SWAP3 SWAP2 SWAP1 PUSH2 0x4A2E JUMP JUMPDEST PUSH1 0x20 PUSH1 0x40 MLOAD DUP1 DUP4 SUB DUP2 DUP7 GAS DELEGATECALL ISZERO DUP1 ISZERO PUSH2 0x1AC4 JUMPI RETURNDATASIZE PUSH0 DUP1 RETURNDATACOPY RETURNDATASIZE PUSH0 REVERT JUMPDEST POP POP POP POP PUSH1 0x40 MLOAD RETURNDATASIZE PUSH1 0x1F NOT PUSH1 0x1F DUP3 ADD AND DUP3 ADD DUP1 PUSH1 0x40 MSTORE POP DUP2 ADD SWAP1 PUSH2 0x1AE8 SWAP2 SWAP1 PUSH2 0x3B26 JUMP JUMPDEST POP JUMP JUMPDEST PUSH1 0x9 PUSH0 SWAP1 SLOAD SWAP1 PUSH2 0x100 EXP SWAP1 DIV PUSH1 0xFF AND DUP2 JUMP JUMPDEST PUSH20 0x0 PUSH4 0xCE88B145 PUSH0 PUSH1 0x40 MLOAD DUP3 PUSH4 0xFFFFFFFF AND PUSH1 0xE0 SHL DUP2 MSTORE PUSH1 0x4 ADD PUSH2 0x1B34 SWAP2 SWAP1 PUSH2 0x4AA1 JUMP JUMPDEST PUSH1 0x20 PUSH1 0x40 MLOAD DUP1 DUP4 SUB DUP2 DUP7 GAS DELEGATECALL ISZERO DUP1 ISZERO PUSH2 0x1B4F JUMPI RETURNDATASIZE PUSH0 DUP1 RETURNDATACOPY RETURNDATASIZE PUSH0 REVERT JUMPDEST POP POP POP POP PUSH1 0x40 MLOAD RETURNDATASIZE PUSH1 0x1F NOT PUSH1 0x1F DUP3 ADD AND DUP3 ADD DUP1 PUSH1 0x40 MSTORE POP DUP2 ADD SWAP1 PUSH2 0x1B73 SWAP2 SWAP1 PUSH2 0x4ACE JUMP JUMPDEST PUSH1 0xD PUSH0 PUSH2 0x100 EXP DUP2 SLOAD DUP2 PUSH20 0xFFFFFFFFFFFFFFFFFFFFFFFFFFFFFFFFFFFFFFFF MUL NOT AND SWAP1 DUP4 PUSH20 0xFFFFFFFFFFFFFFFFFFFFFFFFFFFFFFFFFFFFFFFF AND MUL OR SWAP1 SSTORE POP PUSH20 0x0 PUSH4 0xCE88B145 PUSH1 0x1 PUSH1 0x40 MLOAD DUP3 PUSH4 0xFFFFFFFF AND PUSH1 0xE0 SHL DUP2 MSTORE PUSH1 0x4 ADD PUSH2 0x1BEA SWAP2 SWAP1 PUSH2 0x4B08 JUMP JUMPDEST PUSH1 0x20 PUSH1 0x40 MLOAD DUP1 DUP4 SUB DUP2 DUP7 GAS DELEGATECALL ISZERO DUP1 ISZERO PUSH2 0x1C05 JUMPI RETURNDATASIZE PUSH0 DUP1 RETURNDATACOPY RETURNDATASIZE PUSH0 REVERT JUMPDEST POP POP POP POP PUSH1 0x40 MLOAD RETURNDATASIZE PUSH1 0x1F NOT PUSH1 0x1F DUP3 ADD AND DUP3 ADD DUP1 PUSH1 0x40 MSTORE POP DUP2 ADD SWAP1 PUSH2 0x1C29 SWAP2 SWAP1 PUSH2 0x4ACE JUMP JUMPDEST PUSH1 0xE PUSH0 PUSH2 0x100 EXP DUP2 SLOAD DUP2 PUSH20 0xFFFFFFFFFFFFFFFFFFFFFFFFFFFFFFFFFFFFFFFF MUL NOT AND SWAP1 DUP4 PUSH20 0xFFFFFFFFFFFFFFFFFFFFFFFFFFFFFFFFFFFFFFFF AND MUL OR SWAP1 SSTORE POP PUSH20 0x0 PUSH4 0xCE88B145 PUSH1 0x2 PUSH1 0x40 MLOAD DUP3 PUSH4 0xFFFFFFFF AND PUSH1 0xE0 SHL DUP2 MSTORE PUSH1 0x4 ADD PUSH2 0x1CA0 SWAP2 SWAP1 PUSH2 0x4B5A JUMP JUMPDEST PUSH1 0x20 PUSH1 0x40 MLOAD DUP1 DUP4 SUB DUP2 DUP7 GAS DELEGATECALL ISZERO DUP1 ISZERO PUSH2 0x1CBB JUMPI RETURNDATASIZE PUSH0 DUP1 RETURNDATACOPY RETURNDATASIZE PUSH0 REVERT JUMPDEST POP POP POP POP PUSH1 0x40 MLOAD RETURNDATASIZE PUSH1 0x1F NOT PUSH1 0x1F DUP3 ADD AND DUP3 ADD DUP1 PUSH1 0x40 MSTORE POP DUP2 ADD SWAP1 PUSH2 0x1CDF SWAP2 SWAP1 PUSH2 0x4ACE JUMP JUMPDEST PUSH1 0xF PUSH0 PUSH2 0x100 EXP DUP2 SLOAD DUP2 PUSH20 0xFFFFFFFFFFFFFFFFFFFFFFFFFFFFFFFFFFFFFFFF MUL NOT AND SWAP1 DUP4 PUSH20 0xFFFFFFFFFFFFFFFFFFFFFFFFFFFFFFFFFFFFFFFF AND MUL OR SWAP1 SSTORE POP PUSH20 0x0 PUSH4 0xCE88B145 PUSH1 0x3 PUSH1 0x40 MLOAD DUP3 PUSH4 0xFFFFFFFF AND PUSH1 0xE0 SHL DUP2 MSTORE PUSH1 0x4 ADD PUSH2 0x1D56 SWAP2 SWAP1 PUSH2 0x4BAC JUMP JUMPDEST PUSH1 0x20 PUSH1 0x40 MLOAD DUP1 DUP4 SUB DUP2 DUP7 GAS DELEGATECALL ISZERO DUP1 ISZERO PUSH2 0x1D71 JUMPI RETURNDATASIZE PUSH0 DUP1 RETURNDATACOPY RETURNDATASIZE PUSH0 REVERT JUMPDEST POP POP POP POP PUSH1 0x40 MLOAD RETURNDATASIZE PUSH1 0x1F NOT PUSH1 0x1F DUP3 ADD AND DUP3 ADD DUP1 PUSH1 0x40 MSTORE POP DUP2 ADD SWAP1 PUSH2 0x1D95 SWAP2 SWAP1 PUSH2 0x4ACE JUMP JUMPDEST PUSH1 0x10 PUSH0 PUSH2 0x100 EXP DUP2 SLOAD DUP2 PUSH20 0xFFFFFFFFFFFFFFFFFFFFFFFFFFFFFFFFFFFFFFFF MUL NOT AND SWAP1 DUP4 PUSH20 0xFFFFFFFFFFFFFFFFFFFFFFFFFFFFFFFFFFFFFFFF AND MUL OR SWAP1 SSTORE POP PUSH20 0x0 PUSH4 0xCE88B145 PUSH1 0x4 PUSH1 0x40 MLOAD DUP3 PUSH4 0xFFFFFFFF AND PUSH1 0xE0 SHL DUP2 MSTORE PUSH1 0x4 ADD PUSH2 0x1E0C SWAP2 SWAP1 PUSH2 0x4BFE JUMP JUMPDEST PUSH1 0x20 PUSH1 0x40 MLOAD DUP1 DUP4 SUB DUP2 DUP7 GAS DELEGATECALL ISZERO DUP1 ISZERO PUSH2 0x1E27 JUMPI RETURNDATASIZE PUSH0 DUP1 RETURNDATACOPY RETURNDATASIZE PUSH0 REVERT JUMPDEST POP POP POP POP PUSH1 0x40 MLOAD RETURNDATASIZE PUSH1 0x1F NOT PUSH1 0x1F DUP3 ADD AND DUP3 ADD DUP1 PUSH1 0x40 MSTORE POP DUP2 ADD SWAP1 PUSH2 0x1E4B SWAP2 SWAP1 PUSH2 0x4ACE JUMP JUMPDEST PUSH1 0x11 PUSH0 PUSH2 0x100 EXP DUP2 SLOAD DUP2 PUSH20 0xFFFFFFFFFFFFFFFFFFFFFFFFFFFFFFFFFFFFFFFF MUL NOT AND SWAP1 DUP4 PUSH20 0xFFFFFFFFFFFFFFFFFFFFFFFFFFFFFFFFFFFFFFFF AND MUL OR SWAP1 SSTORE POP JUMP JUMPDEST PUSH20 0x0 PUSH4 0x39DF137F PUSH2 0x1EB0 PUSH1 0x2 PUSH2 0x8E7 JUMP JUMPDEST PUSH1 0x40 MLOAD DUP3 PUSH4 0xFFFFFFFF AND PUSH1 0xE0 SHL DUP2 MSTORE PUSH1 0x4 ADD PUSH2 0x1ECC SWAP2 SWAP1 PUSH2 0x49A9 JUMP JUMPDEST PUSH1 0x20 PUSH1 0x40 MLOAD DUP1 DUP4 SUB DUP2 DUP7 GAS DELEGATECALL ISZERO DUP1 ISZERO PUSH2 0x1EE7 JUMPI RETURNDATASIZE PUSH0 DUP1 RETURNDATACOPY RETURNDATASIZE PUSH0 REVERT JUMPDEST POP POP POP POP PUSH1 0x40 MLOAD RETURNDATASIZE PUSH1 0x1F NOT PUSH1 0x1F DUP3 ADD AND DUP3 ADD DUP1 PUSH1 0x40 MSTORE POP DUP2 ADD SWAP1 PUSH2 0x1F0B SWAP2 SWAP1 PUSH2 0x3B26 JUMP JUMPDEST POP JUMP JUMPDEST PUSH20 0x0 PUSH4 0xA079F1A3 PUSH1 0xB SLOAD NUMBER PUSH1 0x40 MLOAD DUP4 PUSH4 0xFFFFFFFF AND PUSH1 0xE0 SHL DUP2 MSTORE PUSH1 0x4 ADD PUSH2 0x1F49 SWAP3 SWAP2 SWAP1 PUSH2 0x4C87 JUMP JUMPDEST PUSH1 0x20 PUSH1 0x40 MLOAD DUP1 DUP4 SUB DUP2 DUP7 GAS DELEGATECALL ISZERO DUP1 ISZERO PUSH2 0x1F64 JUMPI RETURNDATASIZE PUSH0 DUP1 RETURNDATACOPY RETURNDATASIZE PUSH0 REVERT JUMPDEST POP POP POP POP PUSH1 0x40 MLOAD RETURNDATASIZE PUSH1 0x1F NOT PUSH1 0x1F DUP3 ADD AND DUP3 ADD DUP1 PUSH1 0x40 MSTORE POP DUP2 ADD SWAP1 PUSH2 0x1F88 SWAP2 SWAP1 PUSH2 0x3B26 JUMP JUMPDEST POP JUMP JUMPDEST PUSH1 0x5 PUSH0 SWAP1 SLOAD SWAP1 PUSH2 0x100 EXP SWAP1 DIV PUSH20 0xFFFFFFFFFFFFFFFFFFFFFFFFFFFFFFFFFFFFFFFF AND PUSH20 0xFFFFFFFFFFFFFFFFFFFFFFFFFFFFFFFFFFFFFFFF AND CALLER PUSH20 0xFFFFFFFFFFFFFFFFFFFFFFFFFFFFFFFFFFFFFFFF AND EQ PUSH2 0x201A JUMPI PUSH1 0x40 MLOAD PUSH32 0x8C379A000000000000000000000000000000000000000000000000000000000 DUP2 MSTORE PUSH1 0x4 ADD PUSH2 0x2011 SWAP1 PUSH2 0x4518 JUMP JUMPDEST PUSH1 0x40 MLOAD DUP1 SWAP2 SUB SWAP1 REVERT JUMPDEST PUSH1 0x1 ISZERO ISZERO PUSH1 0xC PUSH0 SWAP1 SLOAD SWAP1 PUSH2 0x100 EXP SWAP1 DIV PUSH1 0xFF AND ISZERO ISZERO EQ PUSH2 0x206F JUMPI PUSH1 0x40 MLOAD PUSH32 0x8C379A000000000000000000000000000000000000000000000000000000000 DUP2 MSTORE PUSH1 0x4 ADD PUSH2 0x2066 SWAP1 PUSH2 0x40D5 JUMP JUMPDEST PUSH1 0x40 MLOAD DUP1 SWAP2 SUB SWAP1 REVERT JUMPDEST PUSH0 PUSH1 0xC PUSH0 PUSH2 0x100 EXP DUP2 SLOAD DUP2 PUSH1 0xFF MUL NOT AND SWAP1 DUP4 ISZERO ISZERO MUL OR SWAP1 SSTORE POP JUMP JUMPDEST PUSH20 0x0 PUSH4 0x767392B3 PUSH1 0x9 PUSH0 SWAP1 SLOAD SWAP1 PUSH2 0x100 EXP SWAP1 DIV PUSH1 0xFF AND PUSH0 PUSH1 0x40 MLOAD DUP4 PUSH4 0xFFFFFFFF AND PUSH1 0xE0 SHL DUP2 MSTORE PUSH1 0x4 ADD PUSH2 0x20D1 SWAP3 SWAP2 SWAP1 PUSH2 0x4D31 JUMP JUMPDEST PUSH1 0x20 PUSH1 0x40 MLOAD DUP1 DUP4 SUB DUP2 DUP7 GAS DELEGATECALL ISZERO DUP1 ISZERO PUSH2 0x20EC JUMPI RETURNDATASIZE PUSH0 DUP1 RETURNDATACOPY RETURNDATASIZE PUSH0 REVERT JUMPDEST POP POP POP POP PUSH1 0x40 MLOAD RETURNDATASIZE PUSH1 0x1F NOT PUSH1 0x1F DUP3 ADD AND DUP3 ADD DUP1 PUSH1 0x40 MSTORE POP DUP2 ADD SWAP1 PUSH2 0x2110 SWAP2 SWAP1 PUSH2 0x3B26 JUMP JUMPDEST POP PUSH2 0x2119 PUSH2 0x2E7F JUMP JUMPDEST PUSH20 0x0 PUSH4 0x767392B3 PUSH1 0x9 PUSH0 SWAP1 SLOAD SWAP1 PUSH2 0x100 EXP SWAP1 DIV PUSH1 0xFF AND PUSH1 0x1 PUSH1 0x40 MLOAD DUP4 PUSH4 0xFFFFFFFF AND PUSH1 0xE0 SHL DUP2 MSTORE PUSH1 0x4 ADD PUSH2 0x2161 SWAP3 SWAP2 SWAP1 PUSH2 0x4DB5 JUMP JUMPDEST PUSH1 0x20 PUSH1 0x40 MLOAD DUP1 DUP4 SUB DUP2 DUP7 GAS DELEGATECALL ISZERO DUP1 ISZERO PUSH2 0x217C JUMPI RETURNDATASIZE PUSH0 DUP1 RETURNDATACOPY RETURNDATASIZE PUSH0 REVERT JUMPDEST POP POP POP POP PUSH1 0x40 MLOAD RETURNDATASIZE PUSH1 0x1F NOT PUSH1 0x1F DUP3 ADD AND DUP3 ADD DUP1 PUSH1 0x40 MSTORE POP DUP2 ADD SWAP1 PUSH2 0x21A0 SWAP2 SWAP1 PUSH2 0x3B26 JUMP JUMPDEST POP JUMP JUMPDEST ADDRESS PUSH20 0xFFFFFFFFFFFFFFFFFFFFFFFFFFFFFFFFFFFFFFFF AND PUSH4 0x6D77BD3E PUSH1 0x40 MLOAD DUP2 PUSH4 0xFFFFFFFF AND PUSH1 0xE0 SHL DUP2 MSTORE PUSH1 0x4 ADD PUSH2 0x21DA SWAP1 PUSH2 0x4E39 JUMP JUMPDEST PUSH1 0x20 PUSH1 0x40 MLOAD DUP1 DUP4 SUB DUP2 PUSH0 DUP8 GAS CALL SWAP3 POP POP POP DUP1 ISZERO PUSH2 0x2215 JUMPI POP PUSH1 0x40 MLOAD RETURNDATASIZE PUSH1 0x1F NOT PUSH1 0x1F DUP3 ADD AND DUP3 ADD DUP1 PUSH1 0x40 MSTORE POP DUP2 ADD SWAP1 PUSH2 0x2212 SWAP2 SWAP1 PUSH2 0x3BDB JUMP JUMPDEST PUSH1 0x1 JUMPDEST PUSH2 0x2405 JUMPI PUSH2 0x2221 PUSH2 0x3C12 JUMP JUMPDEST DUP1 PUSH4 0x8C379A0 SUB PUSH2 0x22BD JUMPI POP PUSH2 0x2235 PUSH2 0x3C31 JUMP JUMPDEST DUP1 PUSH2 0x2240 JUMPI POP PUSH2 0x2357 JUMP JUMPDEST PUSH20 0x0 PUSH4 0xE8C2CB16 DUP3 PUSH1 0x40 MLOAD DUP3 PUSH4 0xFFFFFFFF AND PUSH1 0xE0 SHL DUP2 MSTORE PUSH1 0x4 ADD PUSH2 0x2277 SWAP2 SWAP1 PUSH2 0x3DB2 JUMP JUMPDEST PUSH1 0x20 PUSH1 0x40 MLOAD DUP1 DUP4 SUB DUP2 DUP7 GAS DELEGATECALL ISZERO DUP1 ISZERO PUSH2 0x2292 JUMPI RETURNDATASIZE PUSH0 DUP1 RETURNDATACOPY RETURNDATASIZE PUSH0 REVERT JUMPDEST POP POP POP POP PUSH1 0x40 MLOAD RETURNDATASIZE PUSH1 0x1F NOT PUSH1 0x1F DUP3 ADD AND DUP3 ADD DUP1 PUSH1 0x40 MSTORE POP DUP2 ADD SWAP1 PUSH2 0x22B6 SWAP2 SWAP1 PUSH2 0x3B26 JUMP JUMPDEST POP POP PUSH2 0x2400 JUMP JUMPDEST PUSH4 0x4E487B71 SUB PUSH2 0x2357 JUMPI PUSH2 0x22CF PUSH2 0x3DF8 JUMP JUMPDEST SWAP1 PUSH2 0x22DA JUMPI POP PUSH2 0x2357 JUMP JUMPDEST PUSH20 0x0 PUSH4 0x39DF137F PUSH0 PUSH1 0x40 MLOAD DUP3 PUSH4 0xFFFFFFFF AND PUSH1 0xE0 SHL DUP2 MSTORE PUSH1 0x4 ADD PUSH2 0x2311 SWAP2 SWAP1 PUSH2 0x3E86 JUMP JUMPDEST PUSH1 0x20 PUSH1 0x40 MLOAD DUP1 DUP4 SUB DUP2 DUP7 GAS DELEGATECALL ISZERO DUP1 ISZERO PUSH2 0x232C JUMPI RETURNDATASIZE PUSH0 DUP1 RETURNDATACOPY RETURNDATASIZE PUSH0 REVERT JUMPDEST POP POP POP POP PUSH1 0x40 MLOAD RETURNDATASIZE PUSH1 0x1F NOT PUSH1 0x1F DUP3 ADD AND DUP3 ADD DUP1 PUSH1 0x40 MSTORE POP DUP2 ADD SWAP1 PUSH2 0x2350 SWAP2 SWAP1 PUSH2 0x3B26 JUMP JUMPDEST POP POP PUSH2 0x2400 JUMP JUMPDEST RETURNDATASIZE DUP1 PUSH0 DUP2 EQ PUSH2 0x2381 JUMPI PUSH1 0x40 MLOAD SWAP2 POP PUSH1 0x1F NOT PUSH1 0x3F RETURNDATASIZE ADD AND DUP3 ADD PUSH1 0x40 MSTORE RETURNDATASIZE DUP3 MSTORE RETURNDATASIZE PUSH0 PUSH1 0x20 DUP5 ADD RETURNDATACOPY PUSH2 0x2386 JUMP JUMPDEST PUSH1 0x60 SWAP2 POP JUMPDEST POP PUSH20 0x0 PUSH4 0x39DF137F PUSH0 PUSH1 0x40 MLOAD DUP3 PUSH4 0xFFFFFFFF AND PUSH1 0xE0 SHL DUP2 MSTORE PUSH1 0x4 ADD PUSH2 0x23BE SWAP2 SWAP1 PUSH2 0x3EFC JUMP JUMPDEST PUSH1 0x20 PUSH1 0x40 MLOAD DUP1 DUP4 SUB DUP2 DUP7 GAS DELEGATECALL ISZERO DUP1 ISZERO PUSH2 0x23D9 JUMPI RETURNDATASIZE PUSH0 DUP1 RETURNDATACOPY RETURNDATASIZE PUSH0 REVERT JUMPDEST POP POP POP POP PUSH1 0x40 MLOAD RETURNDATASIZE PUSH1 0x1F NOT PUSH1 0x1F DUP3 ADD AND DUP3 ADD DUP1 PUSH1 0x40 MSTORE POP DUP2 ADD SWAP1 PUSH2 0x23FD SWAP2 SWAP1 PUSH2 0x3B26 JUMP JUMPDEST POP POP JUMPDEST PUSH2 0x2481 JUMP JUMPDEST PUSH20 0x0 PUSH4 0x561015E2 DUP3 PUSH1 0x3 PUSH1 0x40 MLOAD DUP4 PUSH4 0xFFFFFFFF AND PUSH1 0xE0 SHL DUP2 MSTORE PUSH1 0x4 ADD PUSH2 0x243F SWAP3 SWAP2 SWAP1 PUSH2 0x4E57 JUMP JUMPDEST PUSH1 0x20 PUSH1 0x40 MLOAD DUP1 DUP4 SUB DUP2 DUP7 GAS DELEGATECALL ISZERO DUP1 ISZERO PUSH2 0x245A JUMPI RETURNDATASIZE PUSH0 DUP1 RETURNDATACOPY RETURNDATASIZE PUSH0 REVERT JUMPDEST POP POP POP POP PUSH1 0x40 MLOAD RETURNDATASIZE PUSH1 0x1F NOT PUSH1 0x1F DUP3 ADD AND DUP3 ADD DUP1 PUSH1 0x40 MSTORE POP DUP2 ADD SWAP1 PUSH2 0x247E SWAP2 SWAP1 PUSH2 0x3B26 JUMP JUMPDEST POP POP JUMPDEST JUMP JUMPDEST PUSH20 0x0 PUSH4 0xABCD7960 PUSH2 0x24DB PUSH1 0x40 MLOAD DUP1 PUSH1 0x40 ADD PUSH1 0x40 MSTORE DUP1 PUSH1 0xE DUP2 MSTORE PUSH1 0x20 ADD PUSH32 0x436F757274796172642043616665000000000000000000000000000000000000 DUP2 MSTORE POP PUSH2 0x175B JUMP JUMPDEST PUSH1 0x1 PUSH1 0x40 MLOAD DUP4 PUSH4 0xFFFFFFFF AND PUSH1 0xE0 SHL DUP2 MSTORE PUSH1 0x4 ADD PUSH2 0x24FA SWAP3 SWAP2 SWAP1 PUSH2 0x4EDB JUMP JUMPDEST PUSH1 0x20 PUSH1 0x40 MLOAD DUP1 DUP4 SUB DUP2 DUP7 GAS DELEGATECALL ISZERO DUP1 ISZERO PUSH2 0x2515 JUMPI RETURNDATASIZE PUSH0 DUP1 RETURNDATACOPY RETURNDATASIZE PUSH0 REVERT JUMPDEST POP POP POP POP PUSH1 0x40 MLOAD RETURNDATASIZE PUSH1 0x1F NOT PUSH1 0x1F DUP3 ADD AND DUP3 ADD DUP1 PUSH1 0x40 MSTORE POP DUP2 ADD SWAP1 PUSH2 0x2539 SWAP2 SWAP1 PUSH2 0x3B26 JUMP JUMPDEST POP PUSH20 0x0 PUSH4 0xABCD7960 PUSH2 0x2592 PUSH1 0x40 MLOAD DUP1 PUSH1 0x40 ADD PUSH1 0x40 MSTORE DUP1 PUSH1 0x8 DUP2 MSTORE PUSH1 0x20 ADD PUSH32 0x556E692043616665000000000000000000000000000000000000000000000000 DUP2 MSTORE POP PUSH2 0x175B JUMP JUMPDEST PUSH1 0x2 PUSH1 0x40 MLOAD DUP4 PUSH4 0xFFFFFFFF AND PUSH1 0xE0 SHL DUP2 MSTORE PUSH1 0x4 ADD PUSH2 0x25B1 SWAP3 SWAP2 SWAP1 PUSH2 0x4F5F JUMP JUMPDEST PUSH1 0x20 PUSH1 0x40 MLOAD DUP1 DUP4 SUB DUP2 DUP7 GAS DELEGATECALL ISZERO DUP1 ISZERO PUSH2 0x25CC JUMPI RETURNDATASIZE PUSH0 DUP1 RETURNDATACOPY RETURNDATASIZE PUSH0 REVERT JUMPDEST POP POP POP POP PUSH1 0x40 MLOAD RETURNDATASIZE PUSH1 0x1F NOT PUSH1 0x1F DUP3 ADD AND DUP3 ADD DUP1 PUSH1 0x40 MSTORE POP DUP2 ADD SWAP1 PUSH2 0x25F0 SWAP2 SWAP1 PUSH2 0x3B26 JUMP JUMPDEST POP JUMP JUMPDEST PUSH1 0x4 SLOAD DUP2 JUMP JUMPDEST PUSH20 0x0 PUSH4 0xABCD7960 PUSH2 0x2673 PUSH1 0xD PUSH0 SWAP1 SLOAD SWAP1 PUSH2 0x100 EXP SWAP1 DIV PUSH20 0xFFFFFFFFFFFFFFFFFFFFFFFFFFFFFFFFFFFFFFFF AND PUSH1 0x40 MLOAD DUP1 PUSH1 0x40 ADD PUSH1 0x40 MSTORE DUP1 PUSH1 0x5 DUP2 MSTORE PUSH1 0x20 ADD PUSH32 0x416C696365000000000000000000000000000000000000000000000000000000 DUP2 MSTORE POP PUSH2 0x12FC JUMP JUMPDEST PUSH1 0x1 PUSH1 0x40 MLOAD DUP4 PUSH4 0xFFFFFFFF AND PUSH1 0xE0 SHL DUP2 MSTORE PUSH1 0x4 ADD PUSH2 0x2692 SWAP3 SWAP2 SWAP1 PUSH2 0x4EDB JUMP JUMPDEST PUSH1 0x20 PUSH1 0x40 MLOAD DUP1 DUP4 SUB DUP2 DUP7 GAS DELEGATECALL ISZERO DUP1 ISZERO PUSH2 0x26AD JUMPI RETURNDATASIZE PUSH0 DUP1 RETURNDATACOPY RETURNDATASIZE PUSH0 REVERT JUMPDEST POP POP POP POP PUSH1 0x40 MLOAD RETURNDATASIZE PUSH1 0x1F NOT PUSH1 0x1F DUP3 ADD AND DUP3 ADD DUP1 PUSH1 0x40 MSTORE POP DUP2 ADD SWAP1 PUSH2 0x26D1 SWAP2 SWAP1 PUSH2 0x3B26 JUMP JUMPDEST POP PUSH20 0x0 PUSH4 0xABCD7960 PUSH2 0x274C PUSH1 0xE PUSH0 SWAP1 SLOAD SWAP1 PUSH2 0x100 EXP SWAP1 DIV PUSH20 0xFFFFFFFFFFFFFFFFFFFFFFFFFFFFFFFFFFFFFFFF AND PUSH1 0x40 MLOAD DUP1 PUSH1 0x40 ADD PUSH1 0x40 MSTORE DUP1 PUSH1 0x3 DUP2 MSTORE PUSH1 0x20 ADD PUSH32 0x426F620000000000000000000000000000000000000000000000000000000000 DUP2 MSTORE POP PUSH2 0x12FC JUMP JUMPDEST PUSH1 0x2 PUSH1 0x40 MLOAD DUP4 PUSH4 0xFFFFFFFF AND PUSH1 0xE0 SHL DUP2 MSTORE PUSH1 0x4 ADD PUSH2 0x276B SWAP3 SWAP2 SWAP1 PUSH2 0x4F5F JUMP JUMPDEST PUSH1 0x20 PUSH1 0x40 MLOAD DUP1 DUP4 SUB DUP2 DUP7 GAS DELEGATECALL ISZERO DUP1 ISZERO PUSH2 0x2786 JUMPI RETURNDATASIZE PUSH0 DUP1 RETURNDATACOPY RETURNDATASIZE PUSH0 REVERT JUMPDEST POP POP POP POP PUSH1 0x40 MLOAD RETURNDATASIZE PUSH1 0x1F NOT PUSH1 0x1F DUP3 ADD AND DUP3 ADD DUP1 PUSH1 0x40 MSTORE POP DUP2 ADD SWAP1 PUSH2 0x27AA SWAP2 SWAP1 PUSH2 0x3B26 JUMP JUMPDEST POP PUSH20 0x0 PUSH4 0xABCD7960 PUSH2 0x2825 PUSH1 0xF PUSH0 SWAP1 SLOAD SWAP1 PUSH2 0x100 EXP SWAP1 DIV PUSH20 0xFFFFFFFFFFFFFFFFFFFFFFFFFFFFFFFFFFFFFFFF AND PUSH1 0x40 MLOAD DUP1 PUSH1 0x40 ADD PUSH1 0x40 MSTORE DUP1 PUSH1 0x7 DUP2 MSTORE PUSH1 0x20 ADD PUSH32 0x436861726C696500000000000000000000000000000000000000000000000000 DUP2 MSTORE POP PUSH2 0x12FC JUMP JUMPDEST PUSH1 0x3 PUSH1 0x40 MLOAD DUP4 PUSH4 0xFFFFFFFF AND PUSH1 0xE0 SHL DUP2 MSTORE PUSH1 0x4 ADD PUSH2 0x2844 SWAP3 SWAP2 SWAP1 PUSH2 0x4FE3 JUMP JUMPDEST PUSH1 0x20 PUSH1 0x40 MLOAD DUP1 DUP4 SUB DUP2 DUP7 GAS DELEGATECALL ISZERO DUP1 ISZERO PUSH2 0x285F JUMPI RETURNDATASIZE PUSH0 DUP1 RETURNDATACOPY RETURNDATASIZE PUSH0 REVERT JUMPDEST POP POP POP POP PUSH1 0x40 MLOAD RETURNDATASIZE PUSH1 0x1F NOT PUSH1 0x1F DUP3 ADD AND DUP3 ADD DUP1 PUSH1 0x40 MSTORE POP DUP2 ADD SWAP1 PUSH2 0x2883 SWAP2 SWAP1 PUSH2 0x3B26 JUMP JUMPDEST POP PUSH20 0x0 PUSH4 0xABCD7960 PUSH2 0x28FE PUSH1 0x10 PUSH0 SWAP1 SLOAD SWAP1 PUSH2 0x100 EXP SWAP1 DIV PUSH20 0xFFFFFFFFFFFFFFFFFFFFFFFFFFFFFFFFFFFFFFFF AND PUSH1 0x40 MLOAD DUP1 PUSH1 0x40 ADD PUSH1 0x40 MSTORE DUP1 PUSH1 0x3 DUP2 MSTORE PUSH1 0x20 ADD PUSH32 0x4576650000000000000000000000000000000000000000000000000000000000 DUP2 MSTORE POP PUSH2 0x12FC JUMP JUMPDEST PUSH1 0x4 PUSH1 0x40 MLOAD DUP4 PUSH4 0xFFFFFFFF AND PUSH1 0xE0 SHL DUP2 MSTORE PUSH1 0x4 ADD PUSH2 0x291D SWAP3 SWAP2 SWAP1 PUSH2 0x5067 JUMP JUMPDEST PUSH1 0x20 PUSH1 0x40 MLOAD DUP1 DUP4 SUB DUP2 DUP7 GAS DELEGATECALL ISZERO DUP1 ISZERO PUSH2 0x2938 JUMPI RETURNDATASIZE PUSH0 DUP1 RETURNDATACOPY RETURNDATASIZE PUSH0 REVERT JUMPDEST POP POP POP POP PUSH1 0x40 MLOAD RETURNDATASIZE PUSH1 0x1F NOT PUSH1 0x1F DUP3 ADD AND DUP3 ADD DUP1 PUSH1 0x40 MSTORE POP DUP2 ADD SWAP1 PUSH2 0x295C SWAP2 SWAP1 PUSH2 0x3B26 JUMP JUMPDEST POP JUMP JUMPDEST PUSH0 PUSH1 0x20 MSTORE DUP1 PUSH0 MSTORE PUSH1 0x40 PUSH0 KECCAK256 PUSH0 SWAP2 POP SWAP1 POP DUP1 SLOAD PUSH2 0x297A SWAP1 PUSH2 0x4120 JUMP JUMPDEST DUP1 PUSH1 0x1F ADD PUSH1 0x20 DUP1 SWAP2 DIV MUL PUSH1 0x20 ADD PUSH1 0x40 MLOAD SWAP1 DUP2 ADD PUSH1 0x40 MSTORE DUP1 SWAP3 SWAP2 SWAP1 DUP2 DUP2 MSTORE PUSH1 0x20 ADD DUP3 DUP1 SLOAD PUSH2 0x29A6 SWAP1 PUSH2 0x4120 JUMP JUMPDEST DUP1 ISZERO PUSH2 0x29F1 JUMPI DUP1 PUSH1 0x1F LT PUSH2 0x29C8 JUMPI PUSH2 0x100 DUP1 DUP4 SLOAD DIV MUL DUP4 MSTORE SWAP2 PUSH1 0x20 ADD SWAP2 PUSH2 0x29F1 JUMP JUMPDEST DUP3 ADD SWAP2 SWAP1 PUSH0 MSTORE PUSH1 0x20 PUSH0 KECCAK256 SWAP1 JUMPDEST DUP2 SLOAD DUP2 MSTORE SWAP1 PUSH1 0x1 ADD SWAP1 PUSH1 0x20 ADD DUP1 DUP4 GT PUSH2 0x29D4 JUMPI DUP3 SWAP1 SUB PUSH1 0x1F AND DUP3 ADD SWAP2 JUMPDEST POP POP POP POP POP DUP2 JUMP JUMPDEST PUSH20 0x0 PUSH4 0xE8C2CB16 PUSH1 0x6 PUSH1 0x40 MLOAD DUP3 PUSH4 0xFFFFFFFF AND PUSH1 0xE0 SHL DUP2 MSTORE PUSH1 0x4 ADD PUSH2 0x2A31 SWAP2 SWAP1 PUSH2 0x51DC JUMP JUMPDEST PUSH1 0x20 PUSH1 0x40 MLOAD DUP1 DUP4 SUB DUP2 DUP7 GAS DELEGATECALL ISZERO DUP1 ISZERO PUSH2 0x2A4C JUMPI RETURNDATASIZE PUSH0 DUP1 RETURNDATACOPY RETURNDATASIZE PUSH0 REVERT JUMPDEST POP POP POP POP PUSH1 0x40 MLOAD RETURNDATASIZE PUSH1 0x1F NOT PUSH1 0x1F DUP3 ADD AND DUP3 ADD DUP1 PUSH1 0x40 MSTORE POP DUP2 ADD SWAP1 PUSH2 0x2A70 SWAP2 SWAP1 PUSH2 0x3B26 JUMP JUMPDEST POP JUMP JUMPDEST PUSH1 0x2 SLOAD DUP2 JUMP JUMPDEST PUSH20 0x0 PUSH4 0x39DF137F PUSH2 0x2A9D PUSH1 0x1 PUSH2 0x8E7 JUMP JUMPDEST PUSH1 0x40 MLOAD DUP3 PUSH4 0xFFFFFFFF AND PUSH1 0xE0 SHL DUP2 MSTORE PUSH1 0x4 ADD PUSH2 0x2AB9 SWAP2 SWAP1 PUSH2 0x49A9 JUMP JUMPDEST PUSH1 0x20 PUSH1 0x40 MLOAD DUP1 DUP4 SUB DUP2 DUP7 GAS DELEGATECALL ISZERO DUP1 ISZERO PUSH2 0x2AD4 JUMPI RETURNDATASIZE PUSH0 DUP1 RETURNDATACOPY RETURNDATASIZE PUSH0 REVERT JUMPDEST POP POP POP POP PUSH1 0x40 MLOAD RETURNDATASIZE PUSH1 0x1F NOT PUSH1 0x1F DUP3 ADD AND DUP3 ADD DUP1 PUSH1 0x40 MSTORE POP DUP2 ADD SWAP1 PUSH2 0x2AF8 SWAP2 SWAP1 PUSH2 0x3B26 JUMP JUMPDEST POP JUMP JUMPDEST PUSH1 0x6 DUP1 SLOAD PUSH2 0x2B08 SWAP1 PUSH2 0x4120 JUMP JUMPDEST DUP1 PUSH1 0x1F ADD PUSH1 0x20 DUP1 SWAP2 DIV MUL PUSH1 0x20 ADD PUSH1 0x40 MLOAD SWAP1 DUP2 ADD PUSH1 0x40 MSTORE DUP1 SWAP3 SWAP2 SWAP1 DUP2 DUP2 MSTORE PUSH1 0x20 ADD DUP3 DUP1 SLOAD PUSH2 0x2B34 SWAP1 PUSH2 0x4120 JUMP JUMPDEST DUP1 ISZERO PUSH2 0x2B7F JUMPI DUP1 PUSH1 0x1F LT PUSH2 0x2B56 JUMPI PUSH2 0x100 DUP1 DUP4 SLOAD DIV MUL DUP4 MSTORE SWAP2 PUSH1 0x20 ADD SWAP2 PUSH2 0x2B7F JUMP JUMPDEST DUP3 ADD SWAP2 SWAP1 PUSH0 MSTORE PUSH1 0x20 PUSH0 KECCAK256 SWAP1 JUMPDEST DUP2 SLOAD DUP2 MSTORE SWAP1 PUSH1 0x1 ADD SWAP1 PUSH1 0x20 ADD DUP1 DUP4 GT PUSH2 0x2B62 JUMPI DUP3 SWAP1 SUB PUSH1 0x1F AND DUP3 ADD SWAP2 JUMPDEST POP POP POP POP POP DUP2 JUMP JUMPDEST ADDRESS PUSH20 0xFFFFFFFFFFFFFFFFFFFFFFFFFFFFFFFFFFFFFFFF AND PUSH4 0xEB4439FB PUSH1 0x40 MLOAD DUP2 PUSH4 0xFFFFFFFF AND PUSH1 0xE0 SHL DUP2 MSTORE PUSH1 0x4 ADD PUSH0 PUSH1 0x40 MLOAD DUP1 DUP4 SUB DUP2 PUSH0 DUP8 DUP1 EXTCODESIZE ISZERO DUP1 ISZERO PUSH2 0x2BCC JUMPI PUSH0 DUP1 REVERT JUMPDEST POP GAS CALL SWAP3 POP POP POP DUP1 ISZERO PUSH2 0x2BDD JUMPI POP PUSH1 0x1 JUMPDEST PUSH2 0x2DCD JUMPI PUSH2 0x2BE9 PUSH2 0x3C12 JUMP JUMPDEST DUP1 PUSH4 0x8C379A0 SUB PUSH2 0x2C85 JUMPI POP PUSH2 0x2BFD PUSH2 0x3C31 JUMP JUMPDEST DUP1 PUSH2 0x2C08 JUMPI POP PUSH2 0x2D1F JUMP JUMPDEST PUSH20 0x0 PUSH4 0xE8C2CB16 DUP3 PUSH1 0x40 MLOAD DUP3 PUSH4 0xFFFFFFFF AND PUSH1 0xE0 SHL DUP2 MSTORE PUSH1 0x4 ADD PUSH2 0x2C3F SWAP2 SWAP1 PUSH2 0x3DB2 JUMP JUMPDEST PUSH1 0x20 PUSH1 0x40 MLOAD DUP1 DUP4 SUB DUP2 DUP7 GAS DELEGATECALL ISZERO DUP1 ISZERO PUSH2 0x2C5A JUMPI RETURNDATASIZE PUSH0 DUP1 RETURNDATACOPY RETURNDATASIZE PUSH0 REVERT JUMPDEST POP POP POP POP PUSH1 0x40 MLOAD RETURNDATASIZE PUSH1 0x1F NOT PUSH1 0x1F DUP3 ADD AND DUP3 ADD DUP1 PUSH1 0x40 MSTORE POP DUP2 ADD SWAP1 PUSH2 0x2C7E SWAP2 SWAP1 PUSH2 0x3B26 JUMP JUMPDEST POP POP PUSH2 0x2DC8 JUMP JUMPDEST PUSH4 0x4E487B71 SUB PUSH2 0x2D1F JUMPI PUSH2 0x2C97 PUSH2 0x3DF8 JUMP JUMPDEST SWAP1 PUSH2 0x2CA2 JUMPI POP PUSH2 0x2D1F JUMP JUMPDEST PUSH20 0x0 PUSH4 0x39DF137F PUSH0 PUSH1 0x40 MLOAD DUP3 PUSH4 0xFFFFFFFF AND PUSH1 0xE0 SHL DUP2 MSTORE PUSH1 0x4 ADD PUSH2 0x2CD9 SWAP2 SWAP1 PUSH2 0x3E86 JUMP JUMPDEST PUSH1 0x20 PUSH1 0x40 MLOAD DUP1 DUP4 SUB DUP2 DUP7 GAS DELEGATECALL ISZERO DUP1 ISZERO PUSH2 0x2CF4 JUMPI RETURNDATASIZE PUSH0 DUP1 RETURNDATACOPY RETURNDATASIZE PUSH0 REVERT JUMPDEST POP POP POP POP PUSH1 0x40 MLOAD RETURNDATASIZE PUSH1 0x1F NOT PUSH1 0x1F DUP3 ADD AND DUP3 ADD DUP1 PUSH1 0x40 MSTORE POP DUP2 ADD SWAP1 PUSH2 0x2D18 SWAP2 SWAP1 PUSH2 0x3B26 JUMP JUMPDEST POP POP PUSH2 0x2DC8 JUMP JUMPDEST RETURNDATASIZE DUP1 PUSH0 DUP2 EQ PUSH2 0x2D49 JUMPI PUSH1 0x40 MLOAD SWAP2 POP PUSH1 0x1F NOT PUSH1 0x3F RETURNDATASIZE ADD AND DUP3 ADD PUSH1 0x40 MSTORE RETURNDATASIZE DUP3 MSTORE RETURNDATASIZE PUSH0 PUSH1 0x20 DUP5 ADD RETURNDATACOPY PUSH2 0x2D4E JUMP JUMPDEST PUSH1 0x60 SWAP2 POP JUMPDEST POP PUSH20 0x0 PUSH4 0x39DF137F PUSH0 PUSH1 0x40 MLOAD DUP3 PUSH4 0xFFFFFFFF AND PUSH1 0xE0 SHL DUP2 MSTORE PUSH1 0x4 ADD PUSH2 0x2D86 SWAP2 SWAP1 PUSH2 0x44CA JUMP JUMPDEST PUSH1 0x20 PUSH1 0x40 MLOAD DUP1 DUP4 SUB DUP2 DUP7 GAS DELEGATECALL ISZERO DUP1 ISZERO PUSH2 0x2DA1 JUMPI RETURNDATASIZE PUSH0 DUP1 RETURNDATACOPY RETURNDATASIZE PUSH0 REVERT JUMPDEST POP POP POP POP PUSH1 0x40 MLOAD RETURNDATASIZE PUSH1 0x1F NOT PUSH1 0x1F DUP3 ADD AND DUP3 ADD DUP1 PUSH1 0x40 MSTORE POP DUP2 ADD SWAP1 PUSH2 0x2DC5 SWAP2 SWAP1 PUSH2 0x3B26 JUMP JUMPDEST POP POP JUMPDEST PUSH2 0x2E55 JUMP JUMPDEST PUSH20 0x0 PUSH4 0x767392B3 PUSH1 0x9 PUSH0 SWAP1 SLOAD SWAP1 PUSH2 0x100 EXP SWAP1 DIV PUSH1 0xFF AND PUSH0 PUSH1 0x40 MLOAD DUP4 PUSH4 0xFFFFFFFF AND PUSH1 0xE0 SHL DUP2 MSTORE PUSH1 0x4 ADD PUSH2 0x2E14 SWAP3 SWAP2 SWAP1 PUSH2 0x438C JUMP JUMPDEST PUSH1 0x20 PUSH1 0x40 MLOAD DUP1 DUP4 SUB DUP2 DUP7 GAS DELEGATECALL ISZERO DUP1 ISZERO PUSH2 0x2E2F JUMPI RETURNDATASIZE PUSH0 DUP1 RETURNDATACOPY RETURNDATASIZE PUSH0 REVERT JUMPDEST POP POP POP POP PUSH1 0x40 MLOAD RETURNDATASIZE PUSH1 0x1F NOT PUSH1 0x1F DUP3 ADD AND DUP3 ADD DUP1 PUSH1 0x40 MSTORE POP DUP2 ADD SWAP1 PUSH2 0x2E53 SWAP2 SWAP1 PUSH2 0x3B26 JUMP JUMPDEST POP JUMPDEST JUMP JUMPDEST PUSH0 PUSH1 0x5 PUSH0 SWAP1 SLOAD SWAP1 PUSH2 0x100 EXP SWAP1 DIV PUSH20 0xFFFFFFFFFFFFFFFFFFFFFFFFFFFFFFFFFFFFFFFF AND SWAP1 POP SWAP1 JUMP JUMPDEST PUSH1 0x5 PUSH0 SWAP1 SLOAD SWAP1 PUSH2 0x100 EXP SWAP1 DIV PUSH20 0xFFFFFFFFFFFFFFFFFFFFFFFFFFFFFFFFFFFFFFFF AND PUSH20 0xFFFFFFFFFFFFFFFFFFFFFFFFFFFFFFFFFFFFFFFF AND CALLER PUSH20 0xFFFFFFFFFFFFFFFFFFFFFFFFFFFFFFFFFFFFFFFF AND EQ PUSH2 0x2F0E JUMPI PUSH1 0x40 MLOAD PUSH32 0x8C379A000000000000000000000000000000000000000000000000000000000 DUP2 MSTORE PUSH1 0x4 ADD PUSH2 0x2F05 SWAP1 PUSH2 0x4518 JUMP JUMPDEST PUSH1 0x40 MLOAD DUP1 SWAP2 SUB SWAP1 REVERT JUMPDEST PUSH1 0x1 ISZERO ISZERO PUSH1 0xC PUSH0 SWAP1 SLOAD SWAP1 PUSH2 0x100 EXP SWAP1 DIV PUSH1 0xFF AND ISZERO ISZERO EQ PUSH2 0x2F63 JUMPI PUSH1 0x40 MLOAD PUSH32 0x8C379A000000000000000000000000000000000000000000000000000000000 DUP2 MSTORE PUSH1 0x4 ADD PUSH2 0x2F5A SWAP1 PUSH2 0x40D5 JUMP JUMPDEST PUSH1 0x40 MLOAD DUP1 SWAP2 SUB SWAP1 REVERT JUMPDEST PUSH1 0x2 DUP1 SLOAD LT ISZERO PUSH2 0x2FA8 JUMPI PUSH1 0x40 MLOAD PUSH32 0x8C379A000000000000000000000000000000000000000000000000000000000 DUP2 MSTORE PUSH1 0x4 ADD PUSH2 0x2F9F SWAP1 PUSH2 0x5292 JUMP JUMPDEST PUSH1 0x40 MLOAD DUP1 SWAP2 SUB SWAP1 REVERT JUMPDEST PUSH1 0x2 PUSH1 0x3 SLOAD LT ISZERO PUSH2 0x2FEE JUMPI PUSH1 0x40 MLOAD PUSH32 0x8C379A000000000000000000000000000000000000000000000000000000000 DUP2 MSTORE PUSH1 0x4 ADD PUSH2 0x2FE5 SWAP1 PUSH2 0x5320 JUMP JUMPDEST PUSH1 0x40 MLOAD DUP1 SWAP2 SUB SWAP1 REVERT JUMPDEST PUSH1 0xB SLOAD NUMBER LT PUSH2 0x3032 JUMPI PUSH1 0x40 MLOAD PUSH32 0x8C379A000000000000000000000000000000000000000000000000000000000 DUP2 MSTORE PUSH1 0x4 ADD PUSH2 0x3029 SWAP1 PUSH2 0x53AE JUMP JUMPDEST PUSH1 0x40 MLOAD DUP1 SWAP2 SUB SWAP1 REVERT JUMPDEST PUSH1 0x1 PUSH1 0x9 PUSH0 PUSH2 0x100 EXP DUP2 SLOAD DUP2 PUSH1 0xFF MUL NOT AND SWAP1 DUP4 ISZERO ISZERO MUL OR SWAP1 SSTORE POP JUMP JUMPDEST ADDRESS PUSH20 0xFFFFFFFFFFFFFFFFFFFFFFFFFFFFFFFFFFFFFFFF AND PUSH4 0x124258C6 PUSH1 0x1 PUSH1 0x40 MLOAD DUP3 PUSH4 0xFFFFFFFF AND PUSH1 0xE0 SHL DUP2 MSTORE PUSH1 0x4 ADD PUSH2 0x3088 SWAP2 SWAP1 PUSH2 0x43FF JUMP JUMPDEST PUSH1 0x20 PUSH1 0x40 MLOAD DUP1 DUP4 SUB DUP2 PUSH0 DUP8 GAS CALL SWAP3 POP POP POP DUP1 ISZERO PUSH2 0x30C3 JUMPI POP PUSH1 0x40 MLOAD RETURNDATASIZE PUSH1 0x1F NOT PUSH1 0x1F DUP3 ADD AND DUP3 ADD DUP1 PUSH1 0x40 MSTORE POP DUP2 ADD SWAP1 PUSH2 0x30C0 SWAP2 SWAP1 PUSH2 0x3B26 JUMP JUMPDEST PUSH1 0x1 JUMPDEST PUSH2 0x32B3 JUMPI PUSH2 0x30CF PUSH2 0x3C12 JUMP JUMPDEST DUP1 PUSH4 0x8C379A0 SUB PUSH2 0x316B JUMPI POP PUSH2 0x30E3 PUSH2 0x3C31 JUMP JUMPDEST DUP1 PUSH2 0x30EE JUMPI POP PUSH2 0x3205 JUMP JUMPDEST PUSH20 0x0 PUSH4 0xE8C2CB16 DUP3 PUSH1 0x40 MLOAD DUP3 PUSH4 0xFFFFFFFF AND PUSH1 0xE0 SHL DUP2 MSTORE PUSH1 0x4 ADD PUSH2 0x3125 SWAP2 SWAP1 PUSH2 0x53EE JUMP JUMPDEST PUSH1 0x20 PUSH1 0x40 MLOAD DUP1 DUP4 SUB DUP2 DUP7 GAS DELEGATECALL ISZERO DUP1 ISZERO PUSH2 0x3140 JUMPI RETURNDATASIZE PUSH0 DUP1 RETURNDATACOPY RETURNDATASIZE PUSH0 REVERT JUMPDEST POP POP POP POP PUSH1 0x40 MLOAD RETURNDATASIZE PUSH1 0x1F NOT PUSH1 0x1F DUP3 ADD AND DUP3 ADD DUP1 PUSH1 0x40 MSTORE POP DUP2 ADD SWAP1 PUSH2 0x3164 SWAP2 SWAP1 PUSH2 0x3B26 JUMP JUMPDEST POP POP PUSH2 0x32AE JUMP JUMPDEST PUSH4 0x4E487B71 SUB PUSH2 0x3205 JUMPI PUSH2 0x317D PUSH2 0x3DF8 JUMP JUMPDEST SWAP1 PUSH2 0x3188 JUMPI POP PUSH2 0x3205 JUMP JUMPDEST PUSH20 0x0 PUSH4 0x39DF137F PUSH0 PUSH1 0x40 MLOAD DUP3 PUSH4 0xFFFFFFFF AND PUSH1 0xE0 SHL DUP2 MSTORE PUSH1 0x4 ADD PUSH2 0x31BF SWAP2 SWAP1 PUSH2 0x3E86 JUMP JUMPDEST PUSH1 0x20 PUSH1 0x40 MLOAD DUP1 DUP4 SUB DUP2 DUP7 GAS DELEGATECALL ISZERO DUP1 ISZERO PUSH2 0x31DA JUMPI RETURNDATASIZE PUSH0 DUP1 RETURNDATACOPY RETURNDATASIZE PUSH0 REVERT JUMPDEST POP POP POP POP PUSH1 0x40 MLOAD RETURNDATASIZE PUSH1 0x1F NOT PUSH1 0x1F DUP3 ADD AND DUP3 ADD DUP1 PUSH1 0x40 MSTORE POP DUP2 ADD SWAP1 PUSH2 0x31FE SWAP2 SWAP1 PUSH2 0x3B26 JUMP JUMPDEST POP POP PUSH2 0x32AE JUMP JUMPDEST RETURNDATASIZE DUP1 PUSH0 DUP2 EQ PUSH2 0x322F JUMPI PUSH1 0x40 MLOAD SWAP2 POP PUSH1 0x1F NOT PUSH1 0x3F RETURNDATASIZE ADD AND DUP3 ADD PUSH1 0x40 MSTORE RETURNDATASIZE DUP3 MSTORE RETURNDATASIZE PUSH0 PUSH1 0x20 DUP5 ADD RETURNDATACOPY PUSH2 0x3234 JUMP JUMPDEST PUSH1 0x60 SWAP2 POP JUMPDEST POP PUSH20 0x0 PUSH4 0x39DF137F PUSH0 PUSH1 0x40 MLOAD DUP3 PUSH4 0xFFFFFFFF AND PUSH1 0xE0 SHL DUP2 MSTORE PUSH1 0x4 ADD PUSH2 0x326C SWAP2 SWAP1 PUSH2 0x44CA JUMP JUMPDEST PUSH1 0x20 PUSH1 0x40 MLOAD DUP1 DUP4 SUB DUP2 DUP7 GAS DELEGATECALL ISZERO DUP1 ISZERO PUSH2 0x3287 JUMPI RETURNDATASIZE PUSH0 DUP1 RETURNDATACOPY RETURNDATASIZE PUSH0 REVERT JUMPDEST POP POP POP POP PUSH1 0x40 MLOAD RETURNDATASIZE PUSH1 0x1F NOT PUSH1 0x1F DUP3 ADD AND DUP3 ADD DUP1 PUSH1 0x40 MSTORE POP DUP2 ADD SWAP1 PUSH2 0x32AB SWAP2 SWAP1 PUSH2 0x3B26 JUMP JUMPDEST POP POP JUMPDEST PUSH2 0x332F JUMP JUMPDEST PUSH20 0x0 PUSH4 0x767392B3 DUP3 PUSH1 0x1 PUSH1 0x40 MLOAD DUP4 PUSH4 0xFFFFFFFF AND PUSH1 0xE0 SHL DUP2 MSTORE PUSH1 0x4 ADD PUSH2 0x32ED SWAP3 SWAP2 SWAP1 PUSH2 0x438C JUMP JUMPDEST PUSH1 0x20 PUSH1 0x40 MLOAD DUP1 DUP4 SUB DUP2 DUP7 GAS DELEGATECALL ISZERO DUP1 ISZERO PUSH2 0x3308 JUMPI RETURNDATASIZE PUSH0 DUP1 RETURNDATACOPY RETURNDATASIZE PUSH0 REVERT JUMPDEST POP POP POP POP PUSH1 0x40 MLOAD RETURNDATASIZE PUSH1 0x1F NOT PUSH1 0x1F DUP3 ADD AND DUP3 ADD DUP1 PUSH1 0x40 MSTORE POP DUP2 ADD SWAP1 PUSH2 0x332C SWAP2 SWAP1 PUSH2 0x3B26 JUMP JUMPDEST POP POP JUMPDEST JUMP JUMPDEST PUSH20 0x0 PUSH4 0x767392B3 PUSH1 0xC PUSH0 SWAP1 SLOAD SWAP1 PUSH2 0x100 EXP SWAP1 DIV PUSH1 0xFF AND PUSH1 0x1 PUSH1 0x40 MLOAD DUP4 PUSH4 0xFFFFFFFF AND PUSH1 0xE0 SHL DUP2 MSTORE PUSH1 0x4 ADD PUSH2 0x3379 SWAP3 SWAP2 SWAP1 PUSH2 0x5434 JUMP JUMPDEST PUSH1 0x20 PUSH1 0x40 MLOAD DUP1 DUP4 SUB DUP2 DUP7 GAS DELEGATECALL ISZERO DUP1 ISZERO PUSH2 0x3394 JUMPI RETURNDATASIZE PUSH0 DUP1 RETURNDATACOPY RETURNDATASIZE PUSH0 REVERT JUMPDEST POP POP POP POP PUSH1 0x40 MLOAD RETURNDATASIZE PUSH1 0x1F NOT PUSH1 0x1F DUP3 ADD AND DUP3 ADD DUP1 PUSH1 0x40 MSTORE POP DUP2 ADD SWAP1 PUSH2 0x33B8 SWAP2 SWAP1 PUSH2 0x3B26 JUMP JUMPDEST POP PUSH2 0x33C1 PUSH2 0x1F8B JUMP JUMPDEST PUSH20 0x0 PUSH4 0x767392B3 PUSH1 0xC PUSH0 SWAP1 SLOAD SWAP1 PUSH2 0x100 EXP SWAP1 DIV PUSH1 0xFF AND PUSH0 PUSH1 0x40 MLOAD DUP4 PUSH4 0xFFFFFFFF AND PUSH1 0xE0 SHL DUP2 MSTORE PUSH1 0x4 ADD PUSH2 0x3408 SWAP3 SWAP2 SWAP1 PUSH2 0x5434 JUMP JUMPDEST PUSH1 0x20 PUSH1 0x40 MLOAD DUP1 DUP4 SUB DUP2 DUP7 GAS DELEGATECALL ISZERO DUP1 ISZERO PUSH2 0x3423 JUMPI RETURNDATASIZE PUSH0 DUP1 RETURNDATACOPY RETURNDATASIZE PUSH0 REVERT JUMPDEST POP POP POP POP PUSH1 0x40 MLOAD RETURNDATASIZE PUSH1 0x1F NOT PUSH1 0x1F DUP3 ADD AND DUP3 ADD DUP1 PUSH1 0x40 MSTORE POP DUP2 ADD SWAP1 PUSH2 0x3447 SWAP2 SWAP1 PUSH2 0x3B26 JUMP JUMPDEST POP JUMP JUMPDEST PUSH1 0x1 ISZERO ISZERO PUSH1 0xC PUSH0 SWAP1 SLOAD SWAP1 PUSH2 0x100 EXP SWAP1 DIV PUSH1 0xFF AND ISZERO ISZERO EQ PUSH2 0x349F JUMPI PUSH1 0x40 MLOAD PUSH32 0x8C379A000000000000000000000000000000000000000000000000000000000 DUP2 MSTORE PUSH1 0x4 ADD PUSH2 0x3496 SWAP1 PUSH2 0x40D5 JUMP JUMPDEST PUSH1 0x40 MLOAD DUP1 SWAP2 SUB SWAP1 REVERT JUMPDEST PUSH0 DUP1 PUSH0 JUMPDEST PUSH1 0x4 SLOAD DUP2 LT ISZERO PUSH2 0x35AA JUMPI PUSH0 PUSH1 0x1 SWAP1 POP PUSH0 PUSH1 0x8 PUSH0 PUSH1 0x7 DUP6 DUP2 SLOAD DUP2 LT PUSH2 0x34CA JUMPI PUSH2 0x34C9 PUSH2 0x546E JUMP JUMPDEST JUMPDEST SWAP1 PUSH0 MSTORE PUSH1 0x20 PUSH0 KECCAK256 SWAP1 PUSH1 0x2 MUL ADD PUSH1 0x1 ADD SLOAD DUP2 MSTORE PUSH1 0x20 ADD SWAP1 DUP2 MSTORE PUSH1 0x20 ADD PUSH0 KECCAK256 SLOAD GT ISZERO PUSH2 0x3531 JUMPI PUSH1 0x8 PUSH0 PUSH1 0x7 DUP5 DUP2 SLOAD DUP2 LT PUSH2 0x3505 JUMPI PUSH2 0x3504 PUSH2 0x546E JUMP JUMPDEST JUMPDEST SWAP1 PUSH0 MSTORE PUSH1 0x20 PUSH0 KECCAK256 SWAP1 PUSH1 0x2 MUL ADD PUSH1 0x1 ADD SLOAD DUP2 MSTORE PUSH1 0x20 ADD SWAP1 DUP2 MSTORE PUSH1 0x20 ADD PUSH0 KECCAK256 SLOAD DUP2 PUSH2 0x352E SWAP2 SWAP1 PUSH2 0x4359 JUMP JUMPDEST SWAP1 POP JUMPDEST DUP1 PUSH1 0x8 PUSH0 PUSH1 0x7 DUP6 DUP2 SLOAD DUP2 LT PUSH2 0x3549 JUMPI PUSH2 0x3548 PUSH2 0x546E JUMP JUMPDEST JUMPDEST SWAP1 PUSH0 MSTORE PUSH1 0x20 PUSH0 KECCAK256 SWAP1 PUSH1 0x2 MUL ADD PUSH1 0x1 ADD SLOAD DUP2 MSTORE PUSH1 0x20 ADD SWAP1 DUP2 MSTORE PUSH1 0x20 ADD PUSH0 KECCAK256 DUP2 SWAP1 SSTORE POP DUP4 DUP2 GT ISZERO PUSH2 0x359C JUMPI DUP1 SWAP4 POP PUSH1 0x7 DUP3 DUP2 SLOAD DUP2 LT PUSH2 0x3589 JUMPI PUSH2 0x3588 PUSH2 0x546E JUMP JUMPDEST JUMPDEST SWAP1 PUSH0 MSTORE PUSH1 0x20 PUSH0 KECCAK256 SWAP1 PUSH1 0x2 MUL ADD PUSH1 0x1 ADD SLOAD SWAP3 POP JUMPDEST POP DUP1 DUP1 PUSH1 0x1 ADD SWAP2 POP POP PUSH2 0x34A3 JUMP JUMPDEST POP PUSH0 DUP1 DUP3 DUP2 MSTORE PUSH1 0x20 ADD SWAP1 DUP2 MSTORE PUSH1 0x20 ADD PUSH0 KECCAK256 PUSH1 0x6 SWAP1 DUP2 PUSH2 0x35C9 SWAP2 SWAP1 PUSH2 0x54C2 JUMP JUMPDEST POP PUSH0 PUSH1 0x9 PUSH0 PUSH2 0x100 EXP DUP2 SLOAD DUP2 PUSH1 0xFF MUL NOT AND SWAP1 DUP4 ISZERO ISZERO MUL OR SWAP1 SSTORE POP POP POP JUMP JUMPDEST PUSH1 0x40 MLOAD DUP1 PUSH1 0x40 ADD PUSH1 0x40 MSTORE DUP1 PUSH0 PUSH20 0xFFFFFFFFFFFFFFFFFFFFFFFFFFFFFFFFFFFFFFFF AND DUP2 MSTORE PUSH1 0x20 ADD PUSH0 DUP2 MSTORE POP SWAP1 JUMP JUMPDEST PUSH1 0x40 MLOAD DUP1 PUSH1 0x40 ADD PUSH1 0x40 MSTORE DUP1 PUSH1 0x60 DUP2 MSTORE PUSH1 0x20 ADD PUSH0 ISZERO ISZERO DUP2 MSTORE POP SWAP1 JUMP JUMPDEST PUSH0 PUSH1 0x40 MLOAD SWAP1 POP SWAP1 JUMP JUMPDEST PUSH0 DUP1 REVERT JUMPDEST PUSH0 DUP1 REVERT JUMPDEST PUSH0 DUP2 SWAP1 POP SWAP2 SWAP1 POP JUMP JUMPDEST PUSH2 0x3653 DUP2 PUSH2 0x3641 JUMP JUMPDEST DUP2 EQ PUSH2 0x365D JUMPI PUSH0 DUP1 REVERT JUMPDEST POP JUMP JUMPDEST PUSH0 DUP2 CALLDATALOAD SWAP1 POP PUSH2 0x366E DUP2 PUSH2 0x364A JUMP JUMPDEST SWAP3 SWAP2 POP POP JUMP JUMPDEST PUSH0 PUSH1 0x20 DUP3 DUP5 SUB SLT ISZERO PUSH2 0x3689 JUMPI PUSH2 0x3688 PUSH2 0x3639 JUMP JUMPDEST JUMPDEST PUSH0 PUSH2 0x3696 DUP5 DUP3 DUP6 ADD PUSH2 0x3660 JUMP JUMPDEST SWAP2 POP POP SWAP3 SWAP2 POP POP JUMP JUMPDEST PUSH0 DUP2 ISZERO ISZERO SWAP1 POP SWAP2 SWAP1 POP JUMP JUMPDEST PUSH2 0x36B3 DUP2 PUSH2 0x369F JUMP JUMPDEST DUP3 MSTORE POP POP JUMP JUMPDEST PUSH0 PUSH1 0x20 DUP3 ADD SWAP1 POP PUSH2 0x36CC PUSH0 DUP4 ADD DUP5 PUSH2 0x36AA JUMP JUMPDEST SWAP3 SWAP2 POP POP JUMP JUMPDEST PUSH0 PUSH20 0xFFFFFFFFFFFFFFFFFFFFFFFFFFFFFFFFFFFFFFFF DUP3 AND SWAP1 POP SWAP2 SWAP1 POP JUMP JUMPDEST PUSH0 PUSH2 0x36FB DUP3 PUSH2 0x36D2 JUMP JUMPDEST SWAP1 POP SWAP2 SWAP1 POP JUMP JUMPDEST PUSH2 0x370B DUP2 PUSH2 0x36F1 JUMP JUMPDEST DUP2 EQ PUSH2 0x3715 JUMPI PUSH0 DUP1 REVERT JUMPDEST POP JUMP JUMPDEST PUSH0 DUP2 CALLDATALOAD SWAP1 POP PUSH2 0x3726 DUP2 PUSH2 0x3702 JUMP JUMPDEST SWAP3 SWAP2 POP POP JUMP JUMPDEST PUSH0 PUSH1 0x20 DUP3 DUP5 SUB SLT ISZERO PUSH2 0x3741 JUMPI PUSH2 0x3740 PUSH2 0x3639 JUMP JUMPDEST JUMPDEST PUSH0 PUSH2 0x374E DUP5 DUP3 DUP6 ADD PUSH2 0x3718 JUMP JUMPDEST SWAP2 POP POP SWAP3 SWAP2 POP POP JUMP JUMPDEST PUSH0 DUP2 MLOAD SWAP1 POP SWAP2 SWAP1 POP JUMP JUMPDEST PUSH0 DUP3 DUP3 MSTORE PUSH1 0x20 DUP3 ADD SWAP1 POP SWAP3 SWAP2 POP POP JUMP JUMPDEST DUP3 DUP2 DUP4 MCOPY PUSH0 DUP4 DUP4 ADD MSTORE POP POP POP JUMP JUMPDEST PUSH0 PUSH1 0x1F NOT PUSH1 0x1F DUP4 ADD AND SWAP1 POP SWAP2 SWAP1 POP JUMP JUMPDEST PUSH0 PUSH2 0x3799 DUP3 PUSH2 0x3757 JUMP JUMPDEST PUSH2 0x37A3 DUP2 DUP6 PUSH2 0x3761 JUMP JUMPDEST SWAP4 POP PUSH2 0x37B3 DUP2 DUP6 PUSH1 0x20 DUP7 ADD PUSH2 0x3771 JUMP JUMPDEST PUSH2 0x37BC DUP2 PUSH2 0x377F JUMP JUMPDEST DUP5 ADD SWAP2 POP POP SWAP3 SWAP2 POP POP JUMP JUMPDEST PUSH0 PUSH1 0x40 DUP3 ADD SWAP1 POP DUP2 DUP2 SUB PUSH0 DUP4 ADD MSTORE PUSH2 0x37DF DUP2 DUP6 PUSH2 0x378F JUMP JUMPDEST SWAP1 POP PUSH2 0x37EE PUSH1 0x20 DUP4 ADD DUP5 PUSH2 0x36AA JUMP JUMPDEST SWAP4 SWAP3 POP POP POP JUMP JUMPDEST PUSH0 DUP1 REVERT JUMPDEST PUSH0 DUP1 REVERT JUMPDEST PUSH32 0x4E487B7100000000000000000000000000000000000000000000000000000000 PUSH0 MSTORE PUSH1 0x41 PUSH1 0x4 MSTORE PUSH1 0x24 PUSH0 REVERT JUMPDEST PUSH2 0x3833 DUP3 PUSH2 0x377F JUMP JUMPDEST DUP2 ADD DUP2 DUP2 LT PUSH8 0xFFFFFFFFFFFFFFFF DUP3 GT OR ISZERO PUSH2 0x3852 JUMPI PUSH2 0x3851 PUSH2 0x37FD JUMP JUMPDEST JUMPDEST DUP1 PUSH1 0x40 MSTORE POP POP POP JUMP JUMPDEST PUSH0 PUSH2 0x3864 PUSH2 0x3630 JUMP JUMPDEST SWAP1 POP PUSH2 0x3870 DUP3 DUP3 PUSH2 0x382A JUMP JUMPDEST SWAP2 SWAP1 POP JUMP JUMPDEST PUSH0 PUSH8 0xFFFFFFFFFFFFFFFF DUP3 GT ISZERO PUSH2 0x388F JUMPI PUSH2 0x388E PUSH2 0x37FD JUMP JUMPDEST JUMPDEST PUSH2 0x3898 DUP3 PUSH2 0x377F JUMP JUMPDEST SWAP1 POP PUSH1 0x20 DUP2 ADD SWAP1 POP SWAP2 SWAP1 POP JUMP JUMPDEST DUP3 DUP2 DUP4 CALLDATACOPY PUSH0 DUP4 DUP4 ADD MSTORE POP POP POP JUMP JUMPDEST PUSH0 PUSH2 0x38C5 PUSH2 0x38C0 DUP5 PUSH2 0x3875 JUMP JUMPDEST PUSH2 0x385B JUMP JUMPDEST SWAP1 POP DUP3 DUP2 MSTORE PUSH1 0x20 DUP2 ADD DUP5 DUP5 DUP5 ADD GT ISZERO PUSH2 0x38E1 JUMPI PUSH2 0x38E0 PUSH2 0x37F9 JUMP JUMPDEST JUMPDEST PUSH2 0x38EC DUP5 DUP3 DUP6 PUSH2 0x38A5 JUMP JUMPDEST POP SWAP4 SWAP3 POP POP POP JUMP JUMPDEST PUSH0 DUP3 PUSH1 0x1F DUP4 ADD SLT PUSH2 0x3908 JUMPI PUSH2 0x3907 PUSH2 0x37F5 JUMP JUMPDEST JUMPDEST DUP2 CALLDATALOAD PUSH2 0x3918 DUP5 DUP3 PUSH1 0x20 DUP7 ADD PUSH2 0x38B3 JUMP JUMPDEST SWAP2 POP POP SWAP3 SWAP2 POP POP JUMP JUMPDEST PUSH0 DUP1 PUSH1 0x40 DUP4 DUP6 SUB SLT ISZERO PUSH2 0x3937 JUMPI PUSH2 0x3936 PUSH2 0x3639 JUMP JUMPDEST JUMPDEST PUSH0 PUSH2 0x3944 DUP6 DUP3 DUP7 ADD PUSH2 0x3718 JUMP JUMPDEST SWAP3 POP POP PUSH1 0x20 DUP4 ADD CALLDATALOAD PUSH8 0xFFFFFFFFFFFFFFFF DUP2 GT ISZERO PUSH2 0x3965 JUMPI PUSH2 0x3964 PUSH2 0x363D JUMP JUMPDEST JUMPDEST PUSH2 0x3971 DUP6 DUP3 DUP7 ADD PUSH2 0x38F4 JUMP JUMPDEST SWAP2 POP POP SWAP3 POP SWAP3 SWAP1 POP JUMP JUMPDEST PUSH2 0x3984 DUP2 PUSH2 0x3641 JUMP JUMPDEST DUP3 MSTORE POP POP JUMP JUMPDEST PUSH0 PUSH1 0x20 DUP3 ADD SWAP1 POP PUSH2 0x399D PUSH0 DUP4 ADD DUP5 PUSH2 0x397B JUMP JUMPDEST SWAP3 SWAP2 POP POP JUMP JUMPDEST PUSH2 0x39AC DUP2 PUSH2 0x36F1 JUMP JUMPDEST DUP3 MSTORE POP POP JUMP JUMPDEST PUSH0 PUSH1 0x20 DUP3 ADD SWAP1 POP PUSH2 0x39C5 PUSH0 DUP4 ADD DUP5 PUSH2 0x39A3 JUMP JUMPDEST SWAP3 SWAP2 POP POP JUMP JUMPDEST PUSH0 PUSH1 0x40 DUP3 ADD SWAP1 POP PUSH2 0x39DE PUSH0 DUP4 ADD DUP6 PUSH2 0x39A3 JUMP JUMPDEST PUSH2 0x39EB PUSH1 0x20 DUP4 ADD DUP5 PUSH2 0x397B JUMP JUMPDEST SWAP4 SWAP3 POP POP POP JUMP JUMPDEST PUSH0 PUSH1 0x20 DUP3 DUP5 SUB SLT ISZERO PUSH2 0x3A07 JUMPI PUSH2 0x3A06 PUSH2 0x3639 JUMP JUMPDEST JUMPDEST PUSH0 DUP3 ADD CALLDATALOAD PUSH8 0xFFFFFFFFFFFFFFFF DUP2 GT ISZERO PUSH2 0x3A24 JUMPI PUSH2 0x3A23 PUSH2 0x363D JUMP JUMPDEST JUMPDEST PUSH2 0x3A30 DUP5 DUP3 DUP6 ADD PUSH2 0x38F4 JUMP JUMPDEST SWAP2 POP POP SWAP3 SWAP2 POP POP JUMP JUMPDEST PUSH0 PUSH1 0x20 DUP3 ADD SWAP1 POP DUP2 DUP2 SUB PUSH0 DUP4 ADD MSTORE PUSH2 0x3A51 DUP2 DUP5 PUSH2 0x378F JUMP JUMPDEST SWAP1 POP SWAP3 SWAP2 POP POP JUMP JUMPDEST PUSH2 0x3A62 DUP2 PUSH2 0x369F JUMP JUMPDEST DUP3 MSTORE POP POP JUMP JUMPDEST PUSH0 DUP3 DUP3 MSTORE PUSH1 0x20 DUP3 ADD SWAP1 POP SWAP3 SWAP2 POP POP JUMP JUMPDEST PUSH32 0x566F74696E672073686F756C6420626520636C6F736564000000000000000000 PUSH0 DUP3 ADD MSTORE POP JUMP JUMPDEST PUSH0 PUSH2 0x3AAC PUSH1 0x17 DUP4 PUSH2 0x3A68 JUMP JUMPDEST SWAP2 POP PUSH2 0x3AB7 DUP3 PUSH2 0x3A78 JUMP JUMPDEST PUSH1 0x20 DUP3 ADD SWAP1 POP SWAP2 SWAP1 POP JUMP JUMPDEST PUSH0 PUSH1 0x60 DUP3 ADD SWAP1 POP PUSH2 0x3AD5 PUSH0 DUP4 ADD DUP6 PUSH2 0x3A59 JUMP JUMPDEST PUSH2 0x3AE2 PUSH1 0x20 DUP4 ADD DUP5 PUSH2 0x3A59 JUMP JUMPDEST DUP2 DUP2 SUB PUSH1 0x40 DUP4 ADD MSTORE PUSH2 0x3AF3 DUP2 PUSH2 0x3AA0 JUMP JUMPDEST SWAP1 POP SWAP4 SWAP3 POP POP POP JUMP JUMPDEST PUSH2 0x3B05 DUP2 PUSH2 0x369F JUMP JUMPDEST DUP2 EQ PUSH2 0x3B0F JUMPI PUSH0 DUP1 REVERT JUMPDEST POP JUMP JUMPDEST PUSH0 DUP2 MLOAD SWAP1 POP PUSH2 0x3B20 DUP2 PUSH2 0x3AFC JUMP JUMPDEST SWAP3 SWAP2 POP POP JUMP JUMPDEST PUSH0 PUSH1 0x20 DUP3 DUP5 SUB SLT ISZERO PUSH2 0x3B3B JUMPI PUSH2 0x3B3A PUSH2 0x3639 JUMP JUMPDEST JUMPDEST PUSH0 PUSH2 0x3B48 DUP5 DUP3 DUP6 ADD PUSH2 0x3B12 JUMP JUMPDEST SWAP2 POP POP SWAP3 SWAP2 POP POP JUMP JUMPDEST PUSH32 0x44616E69656C7300000000000000000000000000000000000000000000000000 PUSH0 DUP3 ADD MSTORE POP JUMP JUMPDEST PUSH0 PUSH2 0x3B85 PUSH1 0x7 DUP4 PUSH2 0x3761 JUMP JUMPDEST SWAP2 POP PUSH2 0x3B90 DUP3 PUSH2 0x3B51 JUMP JUMPDEST PUSH1 0x20 DUP3 ADD SWAP1 POP SWAP2 SWAP1 POP JUMP JUMPDEST PUSH0 PUSH1 0x40 DUP3 ADD SWAP1 POP PUSH2 0x3BAE PUSH0 DUP4 ADD DUP5 PUSH2 0x39A3 JUMP JUMPDEST DUP2 DUP2 SUB PUSH1 0x20 DUP4 ADD MSTORE PUSH2 0x3BBF DUP2 PUSH2 0x3B79 JUMP JUMPDEST SWAP1 POP SWAP3 SWAP2 POP POP JUMP JUMPDEST PUSH0 DUP2 MLOAD SWAP1 POP PUSH2 0x3BD5 DUP2 PUSH2 0x364A JUMP JUMPDEST SWAP3 SWAP2 POP POP JUMP JUMPDEST PUSH0 PUSH1 0x20 DUP3 DUP5 SUB SLT ISZERO PUSH2 0x3BF0 JUMPI PUSH2 0x3BEF PUSH2 0x3639 JUMP JUMPDEST JUMPDEST PUSH0 PUSH2 0x3BFD DUP5 DUP3 DUP6 ADD PUSH2 0x3BC7 JUMP JUMPDEST SWAP2 POP POP SWAP3 SWAP2 POP POP JUMP JUMPDEST PUSH0 DUP2 PUSH1 0xE0 SHR SWAP1 POP SWAP2 SWAP1 POP JUMP JUMPDEST PUSH0 PUSH1 0x3 RETURNDATASIZE GT ISZERO PUSH2 0x3C2E JUMPI PUSH1 0x4 PUSH0 DUP1 RETURNDATACOPY PUSH2 0x3C2B PUSH0 MLOAD PUSH2 0x3C06 JUMP JUMPDEST SWAP1 POP JUMPDEST SWAP1 JUMP JUMPDEST PUSH0 PUSH1 0x44 RETURNDATASIZE LT PUSH2 0x3CBD JUMPI PUSH2 0x3C42 PUSH2 0x3630 JUMP JUMPDEST PUSH1 0x4 RETURNDATASIZE SUB PUSH1 0x4 DUP3 RETURNDATACOPY DUP1 MLOAD RETURNDATASIZE PUSH1 0x24 DUP3 ADD GT PUSH8 0xFFFFFFFFFFFFFFFF DUP3 GT OR ISZERO PUSH2 0x3C6A JUMPI POP POP PUSH2 0x3CBD JUMP JUMPDEST DUP1 DUP3 ADD DUP1 MLOAD PUSH8 0xFFFFFFFFFFFFFFFF DUP2 GT ISZERO PUSH2 0x3C88 JUMPI POP POP POP POP PUSH2 0x3CBD JUMP JUMPDEST DUP1 PUSH1 0x20 DUP4 ADD ADD PUSH1 0x4 RETURNDATASIZE SUB DUP6 ADD DUP2 GT ISZERO PUSH2 0x3CA5 JUMPI POP POP POP POP POP PUSH2 0x3CBD JUMP JUMPDEST PUSH2 0x3CB4 DUP3 PUSH1 0x20 ADD DUP6 ADD DUP7 PUSH2 0x382A JUMP JUMPDEST DUP3 SWAP6 POP POP POP POP POP POP JUMPDEST SWAP1 JUMP JUMPDEST PUSH0 PUSH2 0x3CCA DUP3 PUSH2 0x3757 JUMP JUMPDEST PUSH2 0x3CD4 DUP2 DUP6 PUSH2 0x3A68 JUMP JUMPDEST SWAP4 POP PUSH2 0x3CE4 DUP2 DUP6 PUSH1 0x20 DUP7 ADD PUSH2 0x3771 JUMP JUMPDEST PUSH2 0x3CED DUP2 PUSH2 0x377F JUMP JUMPDEST DUP5 ADD SWAP2 POP POP SWAP3 SWAP2 POP POP JUMP JUMPDEST PUSH32 0x43616E206F6E6C7920626520657865637574656420627920746865206D616E61 PUSH0 DUP3 ADD MSTORE PUSH32 0x6765720000000000000000000000000000000000000000000000000000000000 PUSH1 0x20 DUP3 ADD MSTORE POP JUMP JUMPDEST PUSH0 PUSH2 0x3D52 PUSH1 0x23 DUP4 PUSH2 0x3A68 JUMP JUMPDEST SWAP2 POP PUSH2 0x3D5D DUP3 PUSH2 0x3CF8 JUMP JUMPDEST PUSH1 0x40 DUP3 ADD SWAP1 POP SWAP2 SWAP1 POP JUMP JUMPDEST PUSH32 0x4661696C6564207769746820756E657870656374656420726561736F6E000000 PUSH0 DUP3 ADD MSTORE POP JUMP JUMPDEST PUSH0 PUSH2 0x3D9C PUSH1 0x1D DUP4 PUSH2 0x3A68 JUMP JUMPDEST SWAP2 POP PUSH2 0x3DA7 DUP3 PUSH2 0x3D68 JUMP JUMPDEST PUSH1 0x20 DUP3 ADD SWAP1 POP SWAP2 SWAP1 POP JUMP JUMPDEST PUSH0 PUSH1 0x60 DUP3 ADD SWAP1 POP DUP2 DUP2 SUB PUSH0 DUP4 ADD MSTORE PUSH2 0x3DCA DUP2 DUP5 PUSH2 0x3CC0 JUMP JUMPDEST SWAP1 POP DUP2 DUP2 SUB PUSH1 0x20 DUP4 ADD MSTORE PUSH2 0x3DDD DUP2 PUSH2 0x3D46 JUMP JUMPDEST SWAP1 POP DUP2 DUP2 SUB PUSH1 0x40 DUP4 ADD MSTORE PUSH2 0x3DF0 DUP2 PUSH2 0x3D90 JUMP JUMPDEST SWAP1 POP SWAP3 SWAP2 POP POP JUMP JUMPDEST PUSH0 DUP1 PUSH1 0x23 RETURNDATASIZE GT ISZERO PUSH2 0x3E12 JUMPI PUSH1 0x20 PUSH1 0x4 PUSH0 RETURNDATACOPY PUSH1 0x1 SWAP2 POP PUSH0 MLOAD SWAP1 POP JUMPDEST SWAP1 SWAP2 JUMP JUMPDEST PUSH32 0x4661696C656420756E65787065637465642077697468206572726F7220636F64 PUSH0 DUP3 ADD MSTORE PUSH32 0x6500000000000000000000000000000000000000000000000000000000000000 PUSH1 0x20 DUP3 ADD MSTORE POP JUMP JUMPDEST PUSH0 PUSH2 0x3E70 PUSH1 0x21 DUP4 PUSH2 0x3A68 JUMP JUMPDEST SWAP2 POP PUSH2 0x3E7B DUP3 PUSH2 0x3E16 JUMP JUMPDEST PUSH1 0x40 DUP3 ADD SWAP1 POP SWAP2 SWAP1 POP JUMP JUMPDEST PUSH0 PUSH1 0x40 DUP3 ADD SWAP1 POP PUSH2 0x3E99 PUSH0 DUP4 ADD DUP5 PUSH2 0x3A59 JUMP JUMPDEST DUP2 DUP2 SUB PUSH1 0x20 DUP4 ADD MSTORE PUSH2 0x3EAA DUP2 PUSH2 0x3E64 JUMP JUMPDEST SWAP1 POP SWAP3 SWAP2 POP POP JUMP JUMPDEST PUSH32 0x4661696C656420756E6578706563746564000000000000000000000000000000 PUSH0 DUP3 ADD MSTORE POP JUMP JUMPDEST PUSH0 PUSH2 0x3EE6 PUSH1 0x11 DUP4 PUSH2 0x3A68 JUMP JUMPDEST SWAP2 POP PUSH2 0x3EF1 DUP3 PUSH2 0x3EB2 JUMP JUMPDEST PUSH1 0x20 DUP3 ADD SWAP1 POP SWAP2 SWAP1 POP JUMP JUMPDEST PUSH0 PUSH1 0x40 DUP3 ADD SWAP1 POP PUSH2 0x3F0F PUSH0 DUP4 ADD DUP5 PUSH2 0x3A59 JUMP JUMPDEST DUP2 DUP2 SUB PUSH1 0x20 DUP4 ADD MSTORE PUSH2 0x3F20 DUP2 PUSH2 0x3EDA JUMP JUMPDEST SWAP1 POP SWAP3 SWAP2 POP POP JUMP JUMPDEST PUSH2 0x3F31 DUP2 PUSH2 0x3641 JUMP JUMPDEST DUP3 MSTORE POP POP JUMP JUMPDEST PUSH0 DUP2 SWAP1 POP SWAP2 SWAP1 POP JUMP JUMPDEST PUSH0 DUP2 SWAP1 POP SWAP2 SWAP1 POP JUMP JUMPDEST PUSH0 PUSH2 0x3F63 PUSH2 0x3F5E PUSH2 0x3F59 DUP5 PUSH2 0x3F37 JUMP JUMPDEST PUSH2 0x3F40 JUMP JUMPDEST PUSH2 0x3641 JUMP JUMPDEST SWAP1 POP SWAP2 SWAP1 POP JUMP JUMPDEST PUSH2 0x3F73 DUP2 PUSH2 0x3F49 JUMP JUMPDEST DUP3 MSTORE POP POP JUMP JUMPDEST PUSH32 0x4D6574686F6420657865637574696F6E20646964206E6F74206661696C000000 PUSH0 DUP3 ADD MSTORE POP JUMP JUMPDEST PUSH0 PUSH2 0x3FAD PUSH1 0x1D DUP4 PUSH2 0x3A68 JUMP JUMPDEST SWAP2 POP PUSH2 0x3FB8 DUP3 PUSH2 0x3F79 JUMP JUMPDEST PUSH1 0x20 DUP3 ADD SWAP1 POP SWAP2 SWAP1 POP JUMP JUMPDEST PUSH0 PUSH1 0x60 DUP3 ADD SWAP1 POP PUSH2 0x3FD6 PUSH0 DUP4 ADD DUP6 PUSH2 0x3F28 JUMP JUMPDEST PUSH2 0x3FE3 PUSH1 0x20 DUP4 ADD DUP5 PUSH2 0x3F6A JUMP JUMPDEST DUP2 DUP2 SUB PUSH1 0x40 DUP4 ADD MSTORE PUSH2 0x3FF4 DUP2 PUSH2 0x3FA1 JUMP JUMPDEST SWAP1 POP SWAP4 SWAP3 POP POP POP JUMP JUMPDEST PUSH32 0x43616E20766F7465206F6E6C79207768696C6520766F74696E67206973206F70 PUSH0 DUP3 ADD MSTORE PUSH32 0x656E000000000000000000000000000000000000000000000000000000000000 PUSH1 0x20 DUP3 ADD MSTORE POP JUMP JUMPDEST PUSH0 PUSH2 0x4057 PUSH1 0x22 DUP4 PUSH2 0x3761 JUMP JUMPDEST SWAP2 POP PUSH2 0x4062 DUP3 PUSH2 0x3FFD JUMP JUMPDEST PUSH1 0x40 DUP3 ADD SWAP1 POP SWAP2 SWAP1 POP JUMP JUMPDEST PUSH0 PUSH1 0x20 DUP3 ADD SWAP1 POP DUP2 DUP2 SUB PUSH0 DUP4 ADD MSTORE PUSH2 0x4084 DUP2 PUSH2 0x404B JUMP JUMPDEST SWAP1 POP SWAP2 SWAP1 POP JUMP JUMPDEST PUSH32 0x4F6E6C79207768656E20636F6E74726163742069732061637469766500000000 PUSH0 DUP3 ADD MSTORE POP JUMP JUMPDEST PUSH0 PUSH2 0x40BF PUSH1 0x1C DUP4 PUSH2 0x3761 JUMP JUMPDEST SWAP2 POP PUSH2 0x40CA DUP3 PUSH2 0x408B JUMP JUMPDEST PUSH1 0x20 DUP3 ADD SWAP1 POP SWAP2 SWAP1 POP JUMP JUMPDEST PUSH0 PUSH1 0x20 DUP3 ADD SWAP1 POP DUP2 DUP2 SUB PUSH0 DUP4 ADD MSTORE PUSH2 0x40EC DUP2 PUSH2 0x40B3 JUMP JUMPDEST SWAP1 POP SWAP2 SWAP1 POP JUMP JUMPDEST PUSH32 0x4E487B7100000000000000000000000000000000000000000000000000000000 PUSH0 MSTORE PUSH1 0x22 PUSH1 0x4 MSTORE PUSH1 0x24 PUSH0 REVERT JUMPDEST PUSH0 PUSH1 0x2 DUP3 DIV SWAP1 POP PUSH1 0x1 DUP3 AND DUP1 PUSH2 0x4137 JUMPI PUSH1 0x7F DUP3 AND SWAP2 POP JUMPDEST PUSH1 0x20 DUP3 LT DUP2 SUB PUSH2 0x414A JUMPI PUSH2 0x4149 PUSH2 0x40F3 JUMP JUMPDEST JUMPDEST POP SWAP2 SWAP1 POP JUMP JUMPDEST PUSH32 0x467269656E6420646F6573206E6F742065786973740000000000000000000000 PUSH0 DUP3 ADD MSTORE POP JUMP JUMPDEST PUSH0 PUSH2 0x4184 PUSH1 0x15 DUP4 PUSH2 0x3761 JUMP JUMPDEST SWAP2 POP PUSH2 0x418F DUP3 PUSH2 0x4150 JUMP JUMPDEST PUSH1 0x20 DUP3 ADD SWAP1 POP SWAP2 SWAP1 POP JUMP JUMPDEST PUSH0 PUSH1 0x20 DUP3 ADD SWAP1 POP DUP2 DUP2 SUB PUSH0 DUP4 ADD MSTORE PUSH2 0x41B1 DUP2 PUSH2 0x4178 JUMP JUMPDEST SWAP1 POP SWAP2 SWAP1 POP JUMP JUMPDEST PUSH32 0x52657374617572616E7420766F74656420646F6573206E6F7420657869737400 PUSH0 DUP3 ADD MSTORE POP JUMP JUMPDEST PUSH0 PUSH2 0x41EC PUSH1 0x1F DUP4 PUSH2 0x3761 JUMP JUMPDEST SWAP2 POP PUSH2 0x41F7 DUP3 PUSH2 0x41B8 JUMP JUMPDEST PUSH1 0x20 DUP3 ADD SWAP1 POP SWAP2 SWAP1 POP JUMP JUMPDEST PUSH0 PUSH1 0x20 DUP3 ADD SWAP1 POP DUP2 DUP2 SUB PUSH0 DUP4 ADD MSTORE PUSH2 0x4219 DUP2 PUSH2 0x41E0 JUMP JUMPDEST SWAP1 POP SWAP2 SWAP1 POP JUMP JUMPDEST PUSH32 0x467269656E642068617320766F74656420616C72656164790000000000000000 PUSH0 DUP3 ADD MSTORE POP JUMP JUMPDEST PUSH0 PUSH2 0x4254 PUSH1 0x18 DUP4 PUSH2 0x3761 JUMP JUMPDEST SWAP2 POP PUSH2 0x425F DUP3 PUSH2 0x4220 JUMP JUMPDEST PUSH1 0x20 DUP3 ADD SWAP1 POP SWAP2 SWAP1 POP JUMP JUMPDEST PUSH0 PUSH1 0x20 DUP3 ADD SWAP1 POP DUP2 DUP2 SUB PUSH0 DUP4 ADD MSTORE PUSH2 0x4281 DUP2 PUSH2 0x4248 JUMP JUMPDEST SWAP1 POP SWAP2 SWAP1 POP JUMP JUMPDEST PUSH32 0x4E487B7100000000000000000000000000000000000000000000000000000000 PUSH0 MSTORE PUSH1 0x11 PUSH1 0x4 MSTORE PUSH1 0x24 PUSH0 REVERT JUMPDEST PUSH0 PUSH2 0x42BF DUP3 PUSH2 0x3641 JUMP JUMPDEST SWAP2 POP PUSH32 0xFFFFFFFFFFFFFFFFFFFFFFFFFFFFFFFFFFFFFFFFFFFFFFFFFFFFFFFFFFFFFFFF DUP3 SUB PUSH2 0x42F1 JUMPI PUSH2 0x42F0 PUSH2 0x4288 JUMP JUMPDEST JUMPDEST PUSH1 0x1 DUP3 ADD SWAP1 POP SWAP2 SWAP1 POP JUMP JUMPDEST PUSH32 0x4E487B7100000000000000000000000000000000000000000000000000000000 PUSH0 MSTORE PUSH1 0x12 PUSH1 0x4 MSTORE PUSH1 0x24 PUSH0 REVERT JUMPDEST PUSH0 PUSH2 0x4333 DUP3 PUSH2 0x3641 JUMP JUMPDEST SWAP2 POP PUSH2 0x433E DUP4 PUSH2 0x3641 JUMP JUMPDEST SWAP3 POP DUP3 PUSH2 0x434E JUMPI PUSH2 0x434D PUSH2 0x42FC JUMP JUMPDEST JUMPDEST DUP3 DUP3 DIV SWAP1 POP SWAP3 SWAP2 POP POP JUMP JUMPDEST PUSH0 PUSH2 0x4363 DUP3 PUSH2 0x3641 JUMP JUMPDEST SWAP2 POP PUSH2 0x436E DUP4 PUSH2 0x3641 JUMP JUMPDEST SWAP3 POP DUP3 DUP3 ADD SWAP1 POP DUP1 DUP3 GT ISZERO PUSH2 0x4386 JUMPI PUSH2 0x4385 PUSH2 0x4288 JUMP JUMPDEST JUMPDEST SWAP3 SWAP2 POP POP JUMP JUMPDEST PUSH0 PUSH1 0x60 DUP3 ADD SWAP1 POP PUSH2 0x439F PUSH0 DUP4 ADD DUP6 PUSH2 0x3A59 JUMP JUMPDEST PUSH2 0x43AC PUSH1 0x20 DUP4 ADD DUP5 PUSH2 0x3A59 JUMP JUMPDEST DUP2 DUP2 SUB PUSH1 0x40 DUP4 ADD MSTORE PUSH2 0x43BD DUP2 PUSH2 0x3FA1 JUMP JUMPDEST SWAP1 POP SWAP4 SWAP3 POP POP POP JUMP JUMPDEST PUSH0 DUP2 SWAP1 POP SWAP2 SWAP1 POP JUMP JUMPDEST PUSH0 PUSH2 0x43E9 PUSH2 0x43E4 PUSH2 0x43DF DUP5 PUSH2 0x43C6 JUMP JUMPDEST PUSH2 0x3F40 JUMP JUMPDEST PUSH2 0x3641 JUMP JUMPDEST SWAP1 POP SWAP2 SWAP1 POP JUMP JUMPDEST PUSH2 0x43F9 DUP2 PUSH2 0x43CF JUMP JUMPDEST DUP3 MSTORE POP POP JUMP JUMPDEST PUSH0 PUSH1 0x20 DUP3 ADD SWAP1 POP PUSH2 0x4412 PUSH0 DUP4 ADD DUP5 PUSH2 0x43F0 JUMP JUMPDEST SWAP3 SWAP2 POP POP JUMP JUMPDEST PUSH0 PUSH2 0x4424 PUSH1 0x15 DUP4 PUSH2 0x3A68 JUMP JUMPDEST SWAP2 POP PUSH2 0x442F DUP3 PUSH2 0x4150 JUMP JUMPDEST PUSH1 0x20 DUP3 ADD SWAP1 POP SWAP2 SWAP1 POP JUMP JUMPDEST PUSH0 PUSH1 0x60 DUP3 ADD SWAP1 POP DUP2 DUP2 SUB PUSH0 DUP4 ADD MSTORE PUSH2 0x4452 DUP2 DUP5 PUSH2 0x3CC0 JUMP JUMPDEST SWAP1 POP DUP2 DUP2 SUB PUSH1 0x20 DUP4 ADD MSTORE PUSH2 0x4465 DUP2 PUSH2 0x4418 JUMP JUMPDEST SWAP1 POP DUP2 DUP2 SUB PUSH1 0x40 DUP4 ADD MSTORE PUSH2 0x4478 DUP2 PUSH2 0x3D90 JUMP JUMPDEST SWAP1 POP SWAP3 SWAP2 POP POP JUMP JUMPDEST PUSH32 0x4661696C656420756E65787065637465646C7900000000000000000000000000 PUSH0 DUP3 ADD MSTORE POP JUMP JUMPDEST PUSH0 PUSH2 0x44B4 PUSH1 0x13 DUP4 PUSH2 0x3A68 JUMP JUMPDEST SWAP2 POP PUSH2 0x44BF DUP3 PUSH2 0x4480 JUMP JUMPDEST PUSH1 0x20 DUP3 ADD SWAP1 POP SWAP2 SWAP1 POP JUMP JUMPDEST PUSH0 PUSH1 0x40 DUP3 ADD SWAP1 POP PUSH2 0x44DD PUSH0 DUP4 ADD DUP5 PUSH2 0x3A59 JUMP JUMPDEST DUP2 DUP2 SUB PUSH1 0x20 DUP4 ADD MSTORE PUSH2 0x44EE DUP2 PUSH2 0x44A8 JUMP JUMPDEST SWAP1 POP SWAP3 SWAP2 POP POP JUMP JUMPDEST PUSH0 PUSH2 0x4502 PUSH1 0x23 DUP4 PUSH2 0x3761 JUMP JUMPDEST SWAP2 POP PUSH2 0x450D DUP3 PUSH2 0x3CF8 JUMP JUMPDEST PUSH1 0x40 DUP3 ADD SWAP1 POP SWAP2 SWAP1 POP JUMP JUMPDEST PUSH0 PUSH1 0x20 DUP3 ADD SWAP1 POP DUP2 DUP2 SUB PUSH0 DUP4 ADD MSTORE PUSH2 0x452F DUP2 PUSH2 0x44F6 JUMP JUMPDEST SWAP1 POP SWAP2 SWAP1 POP JUMP JUMPDEST PUSH32 0x43616E2061646420667269656E6473206F722072657374617572616E7473206F PUSH0 DUP3 ADD MSTORE PUSH32 0x6E6C79207768656E20766F74696E672069732064697361626C65640000000000 PUSH1 0x20 DUP3 ADD MSTORE POP JUMP JUMPDEST PUSH0 PUSH2 0x4590 PUSH1 0x3B DUP4 PUSH2 0x3761 JUMP JUMPDEST SWAP2 POP PUSH2 0x459B DUP3 PUSH2 0x4536 JUMP JUMPDEST PUSH1 0x40 DUP3 ADD SWAP1 POP SWAP2 SWAP1 POP JUMP JUMPDEST PUSH0 PUSH1 0x20 DUP3 ADD SWAP1 POP DUP2 DUP2 SUB PUSH0 DUP4 ADD MSTORE PUSH2 0x45BD DUP2 PUSH2 0x4584 JUMP JUMPDEST SWAP1 POP SWAP2 SWAP1 POP JUMP JUMPDEST PUSH32 0x54696D656F757420726561636865640000000000000000000000000000000000 PUSH0 DUP3 ADD MSTORE POP JUMP JUMPDEST PUSH0 PUSH2 0x45F8 PUSH1 0xF DUP4 PUSH2 0x3761 JUMP JUMPDEST SWAP2 POP PUSH2 0x4603 DUP3 PUSH2 0x45C4 JUMP JUMPDEST PUSH1 0x20 DUP3 ADD SWAP1 POP SWAP2 SWAP1 POP JUMP JUMPDEST PUSH0 PUSH1 0x20 DUP3 ADD SWAP1 POP DUP2 DUP2 SUB PUSH0 DUP4 ADD MSTORE PUSH2 0x4625 DUP2 PUSH2 0x45EC JUMP JUMPDEST SWAP1 POP SWAP2 SWAP1 POP JUMP JUMPDEST PUSH32 0x467269656E6420616C7265616479206578697374730000000000000000000000 PUSH0 DUP3 ADD MSTORE POP JUMP JUMPDEST PUSH0 PUSH2 0x4660 PUSH1 0x15 DUP4 PUSH2 0x3761 JUMP JUMPDEST SWAP2 POP PUSH2 0x466B DUP3 PUSH2 0x462C JUMP JUMPDEST PUSH1 0x20 DUP3 ADD SWAP1 POP SWAP2 SWAP1 POP JUMP JUMPDEST PUSH0 PUSH1 0x20 DUP3 ADD SWAP1 POP DUP2 DUP2 SUB PUSH0 DUP4 ADD MSTORE PUSH2 0x468D DUP2 PUSH2 0x4654 JUMP JUMPDEST SWAP1 POP SWAP2 SWAP1 POP JUMP JUMPDEST PUSH0 DUP2 SWAP1 POP DUP2 PUSH0 MSTORE PUSH1 0x20 PUSH0 KECCAK256 SWAP1 POP SWAP2 SWAP1 POP JUMP JUMPDEST PUSH0 PUSH1 0x20 PUSH1 0x1F DUP4 ADD DIV SWAP1 POP SWAP2 SWAP1 POP JUMP JUMPDEST PUSH0 DUP3 DUP3 SHL SWAP1 POP SWAP3 SWAP2 POP POP JUMP JUMPDEST PUSH0 PUSH1 0x8 DUP4 MUL PUSH2 0x46F0 PUSH32 0xFFFFFFFFFFFFFFFFFFFFFFFFFFFFFFFFFFFFFFFFFFFFFFFFFFFFFFFFFFFFFFFF DUP3 PUSH2 0x46B5 JUMP JUMPDEST PUSH2 0x46FA DUP7 DUP4 PUSH2 0x46B5 JUMP JUMPDEST SWAP6 POP DUP1 NOT DUP5 AND SWAP4 POP DUP1 DUP7 AND DUP5 OR SWAP3 POP POP POP SWAP4 SWAP3 POP POP POP JUMP JUMPDEST PUSH0 PUSH2 0x472C PUSH2 0x4727 PUSH2 0x4722 DUP5 PUSH2 0x3641 JUMP JUMPDEST PUSH2 0x3F40 JUMP JUMPDEST PUSH2 0x3641 JUMP JUMPDEST SWAP1 POP SWAP2 SWAP1 POP JUMP JUMPDEST PUSH0 DUP2 SWAP1 POP SWAP2 SWAP1 POP JUMP JUMPDEST PUSH2 0x4745 DUP4 PUSH2 0x4712 JUMP JUMPDEST PUSH2 0x4759 PUSH2 0x4751 DUP3 PUSH2 0x4733 JUMP JUMPDEST DUP5 DUP5 SLOAD PUSH2 0x46C1 JUMP JUMPDEST DUP3 SSTORE POP POP POP POP JUMP JUMPDEST PUSH0 SWAP1 JUMP JUMPDEST PUSH2 0x476D PUSH2 0x4761 JUMP JUMPDEST PUSH2 0x4778 DUP2 DUP5 DUP5 PUSH2 0x473C JUMP JUMPDEST POP POP POP JUMP JUMPDEST JUMPDEST DUP2 DUP2 LT ISZERO PUSH2 0x479B JUMPI PUSH2 0x4790 PUSH0 DUP3 PUSH2 0x4765 JUMP JUMPDEST PUSH1 0x1 DUP2 ADD SWAP1 POP PUSH2 0x477E JUMP JUMPDEST POP POP JUMP JUMPDEST PUSH1 0x1F DUP3 GT ISZERO PUSH2 0x47E0 JUMPI PUSH2 0x47B1 DUP2 PUSH2 0x4694 JUMP JUMPDEST PUSH2 0x47BA DUP5 PUSH2 0x46A6 JUMP JUMPDEST DUP2 ADD PUSH1 0x20 DUP6 LT ISZERO PUSH2 0x47C9 JUMPI DUP2 SWAP1 POP JUMPDEST PUSH2 0x47DD PUSH2 0x47D5 DUP6 PUSH2 0x46A6 JUMP JUMPDEST DUP4 ADD DUP3 PUSH2 0x477D JUMP JUMPDEST POP POP JUMPDEST POP POP POP JUMP JUMPDEST PUSH0 DUP3 DUP3 SHR SWAP1 POP SWAP3 SWAP2 POP POP JUMP JUMPDEST PUSH0 PUSH2 0x4800 PUSH0 NOT DUP5 PUSH1 0x8 MUL PUSH2 0x47E5 JUMP JUMPDEST NOT DUP1 DUP4 AND SWAP2 POP POP SWAP3 SWAP2 POP POP JUMP JUMPDEST PUSH0 PUSH2 0x4818 DUP4 DUP4 PUSH2 0x47F1 JUMP JUMPDEST SWAP2 POP DUP3 PUSH1 0x2 MUL DUP3 OR SWAP1 POP SWAP3 SWAP2 POP POP JUMP JUMPDEST PUSH2 0x4831 DUP3 PUSH2 0x3757 JUMP JUMPDEST PUSH8 0xFFFFFFFFFFFFFFFF DUP2 GT ISZERO PUSH2 0x484A JUMPI PUSH2 0x4849 PUSH2 0x37FD JUMP JUMPDEST JUMPDEST PUSH2 0x4854 DUP3 SLOAD PUSH2 0x4120 JUMP JUMPDEST PUSH2 0x485F DUP3 DUP3 DUP6 PUSH2 0x479F JUMP JUMPDEST PUSH0 PUSH1 0x20 SWAP1 POP PUSH1 0x1F DUP4 GT PUSH1 0x1 DUP2 EQ PUSH2 0x4890 JUMPI PUSH0 DUP5 ISZERO PUSH2 0x487E JUMPI DUP3 DUP8 ADD MLOAD SWAP1 POP JUMPDEST PUSH2 0x4888 DUP6 DUP3 PUSH2 0x480D JUMP JUMPDEST DUP7 SSTORE POP PUSH2 0x48EF JUMP JUMPDEST PUSH1 0x1F NOT DUP5 AND PUSH2 0x489E DUP7 PUSH2 0x4694 JUMP JUMPDEST PUSH0 JUMPDEST DUP3 DUP2 LT ISZERO PUSH2 0x48C5 JUMPI DUP5 DUP10 ADD MLOAD DUP3 SSTORE PUSH1 0x1 DUP3 ADD SWAP2 POP PUSH1 0x20 DUP6 ADD SWAP5 POP PUSH1 0x20 DUP2 ADD SWAP1 POP PUSH2 0x48A0 JUMP JUMPDEST DUP7 DUP4 LT ISZERO PUSH2 0x48E2 JUMPI DUP5 DUP10 ADD MLOAD PUSH2 0x48DE PUSH1 0x1F DUP10 AND DUP3 PUSH2 0x47F1 JUMP JUMPDEST DUP4 SSTORE POP JUMPDEST PUSH1 0x1 PUSH1 0x2 DUP9 MUL ADD DUP9 SSTORE POP POP POP JUMPDEST POP POP POP POP POP POP JUMP JUMPDEST PUSH32 0x52657374617572616E7420616C72656164792065786973747300000000000000 PUSH0 DUP3 ADD MSTORE POP JUMP JUMPDEST PUSH0 PUSH2 0x492B PUSH1 0x19 DUP4 PUSH2 0x3761 JUMP JUMPDEST SWAP2 POP PUSH2 0x4936 DUP3 PUSH2 0x48F7 JUMP JUMPDEST PUSH1 0x20 DUP3 ADD SWAP1 POP SWAP2 SWAP1 POP JUMP JUMPDEST PUSH0 PUSH1 0x20 DUP3 ADD SWAP1 POP DUP2 DUP2 SUB PUSH0 DUP4 ADD MSTORE PUSH2 0x4958 DUP2 PUSH2 0x491F JUMP JUMPDEST SWAP1 POP SWAP2 SWAP1 POP JUMP JUMPDEST PUSH32 0x566F74696E6720726573756C742073686F756C64206265207472756500000000 PUSH0 DUP3 ADD MSTORE POP JUMP JUMPDEST PUSH0 PUSH2 0x4993 PUSH1 0x1C DUP4 PUSH2 0x3A68 JUMP JUMPDEST SWAP2 POP PUSH2 0x499E DUP3 PUSH2 0x495F JUMP JUMPDEST PUSH1 0x20 DUP3 ADD SWAP1 POP SWAP2 SWAP1 POP JUMP JUMPDEST PUSH0 PUSH1 0x40 DUP3 ADD SWAP1 POP PUSH2 0x49BC PUSH0 DUP4 ADD DUP5 PUSH2 0x3A59 JUMP JUMPDEST DUP2 DUP2 SUB PUSH1 0x20 DUP4 ADD MSTORE PUSH2 0x49CD DUP2 PUSH2 0x4987 JUMP JUMPDEST SWAP1 POP SWAP3 SWAP2 POP POP JUMP JUMPDEST PUSH2 0x49DE DUP2 PUSH2 0x36F1 JUMP JUMPDEST DUP3 MSTORE POP POP JUMP JUMPDEST PUSH32 0x4D616E616765722073686F756C64206265206163633000000000000000000000 PUSH0 DUP3 ADD MSTORE POP JUMP JUMPDEST PUSH0 PUSH2 0x4A18 PUSH1 0x16 DUP4 PUSH2 0x3A68 JUMP JUMPDEST SWAP2 POP PUSH2 0x4A23 DUP3 PUSH2 0x49E4 JUMP JUMPDEST PUSH1 0x20 DUP3 ADD SWAP1 POP SWAP2 SWAP1 POP JUMP JUMPDEST PUSH0 PUSH1 0x60 DUP3 ADD SWAP1 POP PUSH2 0x4A41 PUSH0 DUP4 ADD DUP6 PUSH2 0x49D5 JUMP JUMPDEST PUSH2 0x4A4E PUSH1 0x20 DUP4 ADD DUP5 PUSH2 0x49D5 JUMP JUMPDEST DUP2 DUP2 SUB PUSH1 0x40 DUP4 ADD MSTORE PUSH2 0x4A5F DUP2 PUSH2 0x4A0C JUMP JUMPDEST SWAP1 POP SWAP4 SWAP3 POP POP POP JUMP JUMPDEST PUSH0 DUP2 SWAP1 POP SWAP2 SWAP1 POP JUMP JUMPDEST PUSH0 PUSH2 0x4A8B PUSH2 0x4A86 PUSH2 0x4A81 DUP5 PUSH2 0x4A68 JUMP JUMPDEST PUSH2 0x3F40 JUMP JUMPDEST PUSH2 0x3641 JUMP JUMPDEST SWAP1 POP SWAP2 SWAP1 POP JUMP JUMPDEST PUSH2 0x4A9B DUP2 PUSH2 0x4A71 JUMP JUMPDEST DUP3 MSTORE POP POP JUMP JUMPDEST PUSH0 PUSH1 0x20 DUP3 ADD SWAP1 POP PUSH2 0x4AB4 PUSH0 DUP4 ADD DUP5 PUSH2 0x4A92 JUMP JUMPDEST SWAP3 SWAP2 POP POP JUMP JUMPDEST PUSH0 DUP2 MLOAD SWAP1 POP PUSH2 0x4AC8 DUP2 PUSH2 0x3702 JUMP JUMPDEST SWAP3 SWAP2 POP POP JUMP JUMPDEST PUSH0 PUSH1 0x20 DUP3 DUP5 SUB SLT ISZERO PUSH2 0x4AE3 JUMPI PUSH2 0x4AE2 PUSH2 0x3639 JUMP JUMPDEST JUMPDEST PUSH0 PUSH2 0x4AF0 DUP5 DUP3 DUP6 ADD PUSH2 0x4ABA JUMP JUMPDEST SWAP2 POP POP SWAP3 SWAP2 POP POP JUMP JUMPDEST PUSH2 0x4B02 DUP2 PUSH2 0x43CF JUMP JUMPDEST DUP3 MSTORE POP POP JUMP JUMPDEST PUSH0 PUSH1 0x20 DUP3 ADD SWAP1 POP PUSH2 0x4B1B PUSH0 DUP4 ADD DUP5 PUSH2 0x4AF9 JUMP JUMPDEST SWAP3 SWAP2 POP POP JUMP JUMPDEST PUSH0 DUP2 SWAP1 POP SWAP2 SWAP1 POP JUMP JUMPDEST PUSH0 PUSH2 0x4B44 PUSH2 0x4B3F PUSH2 0x4B3A DUP5 PUSH2 0x4B21 JUMP JUMPDEST PUSH2 0x3F40 JUMP JUMPDEST PUSH2 0x3641 JUMP JUMPDEST SWAP1 POP SWAP2 SWAP1 POP JUMP JUMPDEST PUSH2 0x4B54 DUP2 PUSH2 0x4B2A JUMP JUMPDEST DUP3 MSTORE POP POP JUMP JUMPDEST PUSH0 PUSH1 0x20 DUP3 ADD SWAP1 POP PUSH2 0x4B6D PUSH0 DUP4 ADD DUP5 PUSH2 0x4B4B JUMP JUMPDEST SWAP3 SWAP2 POP POP JUMP JUMPDEST PUSH0 DUP2 SWAP1 POP SWAP2 SWAP1 POP JUMP JUMPDEST PUSH0 PUSH2 0x4B96 PUSH2 0x4B91 PUSH2 0x4B8C DUP5 PUSH2 0x4B73 JUMP JUMPDEST PUSH2 0x3F40 JUMP JUMPDEST PUSH2 0x3641 JUMP JUMPDEST SWAP1 POP SWAP2 SWAP1 POP JUMP JUMPDEST PUSH2 0x4BA6 DUP2 PUSH2 0x4B7C JUMP JUMPDEST DUP3 MSTORE POP POP JUMP JUMPDEST PUSH0 PUSH1 0x20 DUP3 ADD SWAP1 POP PUSH2 0x4BBF PUSH0 DUP4 ADD DUP5 PUSH2 0x4B9D JUMP JUMPDEST SWAP3 SWAP2 POP POP JUMP JUMPDEST PUSH0 DUP2 SWAP1 POP SWAP2 SWAP1 POP JUMP JUMPDEST PUSH0 PUSH2 0x4BE8 PUSH2 0x4BE3 PUSH2 0x4BDE DUP5 PUSH2 0x4BC5 JUMP JUMPDEST PUSH2 0x3F40 JUMP JUMPDEST PUSH2 0x3641 JUMP JUMPDEST SWAP1 POP SWAP2 SWAP1 POP JUMP JUMPDEST PUSH2 0x4BF8 DUP2 PUSH2 0x4BCE JUMP JUMPDEST DUP3 MSTORE POP POP JUMP JUMPDEST PUSH0 PUSH1 0x20 DUP3 ADD SWAP1 POP PUSH2 0x4C11 PUSH0 DUP4 ADD DUP5 PUSH2 0x4BEF JUMP JUMPDEST SWAP3 SWAP2 POP POP JUMP JUMPDEST PUSH32 0x54696D656F757420626C6F636B206E756D6265722073686F756C642062652073 PUSH0 DUP3 ADD MSTORE PUSH32 0x6574000000000000000000000000000000000000000000000000000000000000 PUSH1 0x20 DUP3 ADD MSTORE POP JUMP JUMPDEST PUSH0 PUSH2 0x4C71 PUSH1 0x22 DUP4 PUSH2 0x3A68 JUMP JUMPDEST SWAP2 POP PUSH2 0x4C7C DUP3 PUSH2 0x4C17 JUMP JUMPDEST PUSH1 0x40 DUP3 ADD SWAP1 POP SWAP2 SWAP1 POP JUMP JUMPDEST PUSH0 PUSH1 0x60 DUP3 ADD SWAP1 POP PUSH2 0x4C9A PUSH0 DUP4 ADD DUP6 PUSH2 0x3F28 JUMP JUMPDEST PUSH2 0x4CA7 PUSH1 0x20 DUP4 ADD DUP5 PUSH2 0x3F28 JUMP JUMPDEST DUP2 DUP2 SUB PUSH1 0x40 DUP4 ADD MSTORE PUSH2 0x4CB8 DUP2 PUSH2 0x4C65 JUMP JUMPDEST SWAP1 POP SWAP4 SWAP3 POP POP POP JUMP JUMPDEST PUSH32 0x566F74696E672073686F756C6420696E697469616C6C7920626520636C6F7365 PUSH0 DUP3 ADD MSTORE PUSH32 0x6400000000000000000000000000000000000000000000000000000000000000 PUSH1 0x20 DUP3 ADD MSTORE POP JUMP JUMPDEST PUSH0 PUSH2 0x4D1B PUSH1 0x21 DUP4 PUSH2 0x3A68 JUMP JUMPDEST SWAP2 POP PUSH2 0x4D26 DUP3 PUSH2 0x4CC1 JUMP JUMPDEST PUSH1 0x40 DUP3 ADD SWAP1 POP SWAP2 SWAP1 POP JUMP JUMPDEST PUSH0 PUSH1 0x60 DUP3 ADD SWAP1 POP PUSH2 0x4D44 PUSH0 DUP4 ADD DUP6 PUSH2 0x3A59 JUMP JUMPDEST PUSH2 0x4D51 PUSH1 0x20 DUP4 ADD DUP5 PUSH2 0x3A59 JUMP JUMPDEST DUP2 DUP2 SUB PUSH1 0x40 DUP4 ADD MSTORE PUSH2 0x4D62 DUP2 PUSH2 0x4D0F JUMP JUMPDEST SWAP1 POP SWAP4 SWAP3 POP POP POP JUMP JUMPDEST PUSH32 0x566F74696E672073686F756C64206265206F70656E0000000000000000000000 PUSH0 DUP3 ADD MSTORE POP JUMP JUMPDEST PUSH0 PUSH2 0x4D9F PUSH1 0x15 DUP4 PUSH2 0x3A68 JUMP JUMPDEST SWAP2 POP PUSH2 0x4DAA DUP3 PUSH2 0x4D6B JUMP JUMPDEST PUSH1 0x20 DUP3 ADD SWAP1 POP SWAP2 SWAP1 POP JUMP JUMPDEST PUSH0 PUSH1 0x60 DUP3 ADD SWAP1 POP PUSH2 0x4DC8 PUSH0 DUP4 ADD DUP6 PUSH2 0x3A59 JUMP JUMPDEST PUSH2 0x4DD5 PUSH1 0x20 DUP4 ADD DUP5 PUSH2 0x3A59 JUMP JUMPDEST DUP2 DUP2 SUB PUSH1 0x40 DUP4 ADD MSTORE PUSH2 0x4DE6 DUP2 PUSH2 0x4D93 JUMP JUMPDEST SWAP1 POP SWAP4 SWAP3 POP POP POP JUMP JUMPDEST PUSH32 0x41746F6D69632043616665000000000000000000000000000000000000000000 PUSH0 DUP3 ADD MSTORE POP JUMP JUMPDEST PUSH0 PUSH2 0x4E23 PUSH1 0xB DUP4 PUSH2 0x3761 JUMP JUMPDEST SWAP2 POP PUSH2 0x4E2E DUP3 PUSH2 0x4DEF JUMP JUMPDEST PUSH1 0x20 DUP3 ADD SWAP1 POP SWAP2 SWAP1 POP JUMP JUMPDEST PUSH0 PUSH1 0x20 DUP3 ADD SWAP1 POP DUP2 DUP2 SUB PUSH0 DUP4 ADD MSTORE PUSH2 0x4E50 DUP2 PUSH2 0x4E17 JUMP JUMPDEST SWAP1 POP SWAP2 SWAP1 POP JUMP JUMPDEST PUSH0 PUSH1 0x60 DUP3 ADD SWAP1 POP PUSH2 0x4E6A PUSH0 DUP4 ADD DUP6 PUSH2 0x3F28 JUMP JUMPDEST PUSH2 0x4E77 PUSH1 0x20 DUP4 ADD DUP5 PUSH2 0x4B9D JUMP JUMPDEST DUP2 DUP2 SUB PUSH1 0x40 DUP4 ADD MSTORE PUSH2 0x4E88 DUP2 PUSH2 0x3FA1 JUMP JUMPDEST SWAP1 POP SWAP4 SWAP3 POP POP POP JUMP JUMPDEST PUSH32 0x53686F756C6420626520657175616C20746F2031000000000000000000000000 PUSH0 DUP3 ADD MSTORE POP JUMP JUMPDEST PUSH0 PUSH2 0x4EC5 PUSH1 0x14 DUP4 PUSH2 0x3A68 JUMP JUMPDEST SWAP2 POP PUSH2 0x4ED0 DUP3 PUSH2 0x4E91 JUMP JUMPDEST PUSH1 0x20 DUP3 ADD SWAP1 POP SWAP2 SWAP1 POP JUMP JUMPDEST PUSH0 PUSH1 0x60 DUP3 ADD SWAP1 POP PUSH2 0x4EEE PUSH0 DUP4 ADD DUP6 PUSH2 0x3F28 JUMP JUMPDEST PUSH2 0x4EFB PUSH1 0x20 DUP4 ADD DUP5 PUSH2 0x4AF9 JUMP JUMPDEST DUP2 DUP2 SUB PUSH1 0x40 DUP4 ADD MSTORE PUSH2 0x4F0C DUP2 PUSH2 0x4EB9 JUMP JUMPDEST SWAP1 POP SWAP4 SWAP3 POP POP POP JUMP JUMPDEST PUSH32 0x53686F756C6420626520657175616C20746F2032000000000000000000000000 PUSH0 DUP3 ADD MSTORE POP JUMP JUMPDEST PUSH0 PUSH2 0x4F49 PUSH1 0x14 DUP4 PUSH2 0x3A68 JUMP JUMPDEST SWAP2 POP PUSH2 0x4F54 DUP3 PUSH2 0x4F15 JUMP JUMPDEST PUSH1 0x20 DUP3 ADD SWAP1 POP SWAP2 SWAP1 POP JUMP JUMPDEST PUSH0 PUSH1 0x60 DUP3 ADD SWAP1 POP PUSH2 0x4F72 PUSH0 DUP4 ADD DUP6 PUSH2 0x3F28 JUMP JUMPDEST PUSH2 0x4F7F PUSH1 0x20 DUP4 ADD DUP5 PUSH2 0x4B4B JUMP JUMPDEST DUP2 DUP2 SUB PUSH1 0x40 DUP4 ADD MSTORE PUSH2 0x4F90 DUP2 PUSH2 0x4F3D JUMP JUMPDEST SWAP1 POP SWAP4 SWAP3 POP POP POP JUMP JUMPDEST PUSH32 0x53686F756C6420626520657175616C20746F2033000000000000000000000000 PUSH0 DUP3 ADD MSTORE POP JUMP JUMPDEST PUSH0 PUSH2 0x4FCD PUSH1 0x14 DUP4 PUSH2 0x3A68 JUMP JUMPDEST SWAP2 POP PUSH2 0x4FD8 DUP3 PUSH2 0x4F99 JUMP JUMPDEST PUSH1 0x20 DUP3 ADD SWAP1 POP SWAP2 SWAP1 POP JUMP JUMPDEST PUSH0 PUSH1 0x60 DUP3 ADD SWAP1 POP PUSH2 0x4FF6 PUSH0 DUP4 ADD DUP6 PUSH2 0x3F28 JUMP JUMPDEST PUSH2 0x5003 PUSH1 0x20 DUP4 ADD DUP5 PUSH2 0x4B9D JUMP JUMPDEST DUP2 DUP2 SUB PUSH1 0x40 DUP4 ADD MSTORE PUSH2 0x5014 DUP2 PUSH2 0x4FC1 JUMP JUMPDEST SWAP1 POP SWAP4 SWAP3 POP POP POP JUMP JUMPDEST PUSH32 0x53686F756C6420626520657175616C20746F2034000000000000000000000000 PUSH0 DUP3 ADD MSTORE POP JUMP JUMPDEST PUSH0 PUSH2 0x5051 PUSH1 0x14 DUP4 PUSH2 0x3A68 JUMP JUMPDEST SWAP2 POP PUSH2 0x505C DUP3 PUSH2 0x501D JUMP JUMPDEST PUSH1 0x20 DUP3 ADD SWAP1 POP SWAP2 SWAP1 POP JUMP JUMPDEST PUSH0 PUSH1 0x60 DUP3 ADD SWAP1 POP PUSH2 0x507A PUSH0 DUP4 ADD DUP6 PUSH2 0x3F28 JUMP JUMPDEST PUSH2 0x5087 PUSH1 0x20 DUP4 ADD DUP5 PUSH2 0x4BEF JUMP JUMPDEST DUP2 DUP2 SUB PUSH1 0x40 DUP4 ADD MSTORE PUSH2 0x5098 DUP2 PUSH2 0x5045 JUMP JUMPDEST SWAP1 POP SWAP4 SWAP3 POP POP POP JUMP JUMPDEST PUSH0 DUP2 SLOAD PUSH2 0x50AD DUP2 PUSH2 0x4120 JUMP JUMPDEST PUSH2 0x50B7 DUP2 DUP7 PUSH2 0x3A68 JUMP JUMPDEST SWAP5 POP PUSH1 0x1 DUP3 AND PUSH0 DUP2 EQ PUSH2 0x50D1 JUMPI PUSH1 0x1 DUP2 EQ PUSH2 0x50E7 JUMPI PUSH2 0x5119 JUMP JUMPDEST PUSH1 0xFF NOT DUP4 AND DUP7 MSTORE DUP2 ISZERO ISZERO PUSH1 0x20 MUL DUP7 ADD SWAP4 POP PUSH2 0x5119 JUMP JUMPDEST PUSH2 0x50F0 DUP6 PUSH2 0x4694 JUMP JUMPDEST PUSH0 JUMPDEST DUP4 DUP2 LT ISZERO PUSH2 0x5111 JUMPI DUP2 SLOAD DUP2 DUP10 ADD MSTORE PUSH1 0x1 DUP3 ADD SWAP2 POP PUSH1 0x20 DUP2 ADD SWAP1 POP PUSH2 0x50F2 JUMP JUMPDEST DUP1 DUP9 ADD SWAP6 POP POP POP JUMPDEST POP POP POP SWAP3 SWAP2 POP POP JUMP JUMPDEST PUSH32 0x556E692043616665000000000000000000000000000000000000000000000000 PUSH0 DUP3 ADD MSTORE POP JUMP JUMPDEST PUSH0 PUSH2 0x5156 PUSH1 0x8 DUP4 PUSH2 0x3A68 JUMP JUMPDEST SWAP2 POP PUSH2 0x5161 DUP3 PUSH2 0x5122 JUMP JUMPDEST PUSH1 0x20 DUP3 ADD SWAP1 POP SWAP2 SWAP1 POP JUMP JUMPDEST PUSH32 0x53656C65637465642072657374617572616E742073686F756C6420626520556E PUSH0 DUP3 ADD MSTORE PUSH32 0x6920436166650000000000000000000000000000000000000000000000000000 PUSH1 0x20 DUP3 ADD MSTORE POP JUMP JUMPDEST PUSH0 PUSH2 0x51C6 PUSH1 0x26 DUP4 PUSH2 0x3A68 JUMP JUMPDEST SWAP2 POP PUSH2 0x51D1 DUP3 PUSH2 0x516C JUMP JUMPDEST PUSH1 0x40 DUP3 ADD SWAP1 POP SWAP2 SWAP1 POP JUMP JUMPDEST PUSH0 PUSH1 0x60 DUP3 ADD SWAP1 POP DUP2 DUP2 SUB PUSH0 DUP4 ADD MSTORE PUSH2 0x51F4 DUP2 DUP5 PUSH2 0x50A1 JUMP JUMPDEST SWAP1 POP DUP2 DUP2 SUB PUSH1 0x20 DUP4 ADD MSTORE PUSH2 0x5207 DUP2 PUSH2 0x514A JUMP JUMPDEST SWAP1 POP DUP2 DUP2 SUB PUSH1 0x40 DUP4 ADD MSTORE PUSH2 0x521A DUP2 PUSH2 0x51BA JUMP JUMPDEST SWAP1 POP SWAP3 SWAP2 POP POP JUMP JUMPDEST PUSH32 0x43616E20766F7465206F6E6C79207768656E2074686572652061726520617420 PUSH0 DUP3 ADD MSTORE PUSH32 0x6C6561737420322072657374617572616E747300000000000000000000000000 PUSH1 0x20 DUP3 ADD MSTORE POP JUMP JUMPDEST PUSH0 PUSH2 0x527C PUSH1 0x33 DUP4 PUSH2 0x3761 JUMP JUMPDEST SWAP2 POP PUSH2 0x5287 DUP3 PUSH2 0x5222 JUMP JUMPDEST PUSH1 0x40 DUP3 ADD SWAP1 POP SWAP2 SWAP1 POP JUMP JUMPDEST PUSH0 PUSH1 0x20 DUP3 ADD SWAP1 POP DUP2 DUP2 SUB PUSH0 DUP4 ADD MSTORE PUSH2 0x52A9 DUP2 PUSH2 0x5270 JUMP JUMPDEST SWAP1 POP SWAP2 SWAP1 POP JUMP JUMPDEST PUSH32 0x43616E20766F7465206F6E6C79207768656E2074686572652061726520617420 PUSH0 DUP3 ADD MSTORE PUSH32 0x6C65617374203220667269656E64730000000000000000000000000000000000 PUSH1 0x20 DUP3 ADD MSTORE POP JUMP JUMPDEST PUSH0 PUSH2 0x530A PUSH1 0x2F DUP4 PUSH2 0x3761 JUMP JUMPDEST SWAP2 POP PUSH2 0x5315 DUP3 PUSH2 0x52B0 JUMP JUMPDEST PUSH1 0x40 DUP3 ADD SWAP1 POP SWAP2 SWAP1 POP JUMP JUMPDEST PUSH0 PUSH1 0x20 DUP3 ADD SWAP1 POP DUP2 DUP2 SUB PUSH0 DUP4 ADD MSTORE PUSH2 0x5337 DUP2 PUSH2 0x52FE JUMP JUMPDEST SWAP1 POP SWAP2 SWAP1 POP JUMP JUMPDEST PUSH32 0x54696D656F7574207265616368656420616E6420766F74696E6720697320636C PUSH0 DUP3 ADD MSTORE PUSH32 0x6F73656400000000000000000000000000000000000000000000000000000000 PUSH1 0x20 DUP3 ADD MSTORE POP JUMP JUMPDEST PUSH0 PUSH2 0x5398 PUSH1 0x24 DUP4 PUSH2 0x3761 JUMP JUMPDEST SWAP2 POP PUSH2 0x53A3 DUP3 PUSH2 0x533E JUMP JUMPDEST PUSH1 0x40 DUP3 ADD SWAP1 POP SWAP2 SWAP1 POP JUMP JUMPDEST PUSH0 PUSH1 0x20 DUP3 ADD SWAP1 POP DUP2 DUP2 SUB PUSH0 DUP4 ADD MSTORE PUSH2 0x53C5 DUP2 PUSH2 0x538C JUMP JUMPDEST SWAP1 POP SWAP2 SWAP1 POP JUMP JUMPDEST PUSH0 PUSH2 0x53D8 PUSH1 0x22 DUP4 PUSH2 0x3A68 JUMP JUMPDEST SWAP2 POP PUSH2 0x53E3 DUP3 PUSH2 0x3FFD JUMP JUMPDEST PUSH1 0x40 DUP3 ADD SWAP1 POP SWAP2 SWAP1 POP JUMP JUMPDEST PUSH0 PUSH1 0x60 DUP3 ADD SWAP1 POP DUP2 DUP2 SUB PUSH0 DUP4 ADD MSTORE PUSH2 0x5406 DUP2 DUP5 PUSH2 0x3CC0 JUMP JUMPDEST SWAP1 POP DUP2 DUP2 SUB PUSH1 0x20 DUP4 ADD MSTORE PUSH2 0x5419 DUP2 PUSH2 0x53CC JUMP JUMPDEST SWAP1 POP DUP2 DUP2 SUB PUSH1 0x40 DUP4 ADD MSTORE PUSH2 0x542C DUP2 PUSH2 0x3D90 JUMP JUMPDEST SWAP1 POP SWAP3 SWAP2 POP POP JUMP JUMPDEST PUSH0 PUSH1 0x60 DUP3 ADD SWAP1 POP PUSH2 0x5447 PUSH0 DUP4 ADD DUP6 PUSH2 0x3A59 JUMP JUMPDEST PUSH2 0x5454 PUSH1 0x20 DUP4 ADD DUP5 PUSH2 0x3A59 JUMP JUMPDEST DUP2 DUP2 SUB PUSH1 0x40 DUP4 ADD MSTORE PUSH2 0x5465 DUP2 PUSH2 0x4EB9 JUMP JUMPDEST SWAP1 POP SWAP4 SWAP3 POP POP POP JUMP JUMPDEST PUSH32 0x4E487B7100000000000000000000000000000000000000000000000000000000 PUSH0 MSTORE PUSH1 0x32 PUSH1 0x4 MSTORE PUSH1 0x24 PUSH0 REVERT JUMPDEST PUSH0 DUP2 SLOAD SWAP1 POP PUSH2 0x54A9 DUP2 PUSH2 0x4120 JUMP JUMPDEST SWAP1 POP SWAP2 SWAP1 POP JUMP JUMPDEST PUSH0 DUP2 SWAP1 POP DUP2 PUSH0 MSTORE PUSH1 0x20 PUSH0 KECCAK256 SWAP1 POP SWAP2 SWAP1 POP JUMP JUMPDEST DUP2 DUP2 SUB PUSH2 0x54D0 JUMPI POP POP PUSH2 0x55A5 JUMP JUMPDEST PUSH2 0x54D9 DUP3 PUSH2 0x549B JUMP JUMPDEST PUSH8 0xFFFFFFFFFFFFFFFF DUP2 GT ISZERO PUSH2 0x54F2 JUMPI PUSH2 0x54F1 PUSH2 0x37FD JUMP JUMPDEST JUMPDEST PUSH2 0x54FC DUP3 SLOAD PUSH2 0x4120 JUMP JUMPDEST PUSH2 0x5507 DUP3 DUP3 DUP6 PUSH2 0x479F JUMP JUMPDEST PUSH0 PUSH1 0x1F DUP4 GT PUSH1 0x1 DUP2 EQ PUSH2 0x5534 JUMPI PUSH0 DUP5 ISZERO PUSH2 0x5522 JUMPI DUP3 DUP8 ADD SLOAD SWAP1 POP JUMPDEST PUSH2 0x552C DUP6 DUP3 PUSH2 0x480D JUMP JUMPDEST DUP7 SSTORE POP PUSH2 0x559E JUMP JUMPDEST PUSH1 0x1F NOT DUP5 AND PUSH2 0x5542 DUP8 PUSH2 0x54B0 JUMP JUMPDEST SWAP7 POP PUSH2 0x554D DUP7 PUSH2 0x4694 JUMP JUMPDEST PUSH0 JUMPDEST DUP3 DUP2 LT ISZERO PUSH2 0x5574 JUMPI DUP5 DUP10 ADD SLOAD DUP3 SSTORE PUSH1 0x1 DUP3 ADD SWAP2 POP PUSH1 0x1 DUP6 ADD SWAP5 POP PUSH1 0x20 DUP2 ADD SWAP1 POP PUSH2 0x554F JUMP JUMPDEST DUP7 DUP4 LT ISZERO PUSH2 0x5591 JUMPI DUP5 DUP10 ADD SLOAD PUSH2 0x558D PUSH1 0x1F DUP10 AND DUP3 PUSH2 0x47F1 JUMP JUMPDEST DUP4 SSTORE POP JUMPDEST PUSH1 0x1 PUSH1 0x2 DUP9 MUL ADD DUP9 SSTORE POP POP POP JUMPDEST POP POP POP POP POP POP JUMPDEST JUMP INVALID LOG2 PUSH5 0x6970667358 0x22 SLT KECCAK256 0xA8 0xDB BLOBBASEFEE PUSH12 0x88A81480B65080A5D6CCE6C7 MSTORE8 0xA9 0xEE 0xA9 0x2A CALLDATASIZE EXTCODEHASH 0xEC EXTCODESIZE CODESIZE SWAP15 LOG2 0xF6 DUP9 XOR 0xE PUSH5 0x736F6C6343 STOP ADDMOD BYTE STOP CALLER "
		},
		"gasEstimates": {
			"creation": {
				"codeDepositCost": "4396200",
				"executionCost": "infinite",
				"totalCost": "infinite"
			},
			"external": {
				"addFriend(address,string)": "infinite",
				"addRestaurant(string)": "infinite",
				"beforeAll()": "infinite",
				"disableContract()": "28859",
				"doVote(uint256)": "infinite",
				"enableVoting()": "35210",
				"friends(address)": "infinite",
				"getManager()": "2581",
				"isActive()": "2534",
				"manager()": "2554",
				"numFriends()": "2559",
				"numRestaurants()": "2514",
				"numVotes()": "2536",
				"restaurants(uint256)": "infinite",
				"sender()": "2604",
				"setTimeoutDuration(uint256)": "infinite",
				"testAddFriend()": "infinite",
				"testAddFriendFailure()": "infinite",
				"testAddRestaurant()": "infinite",
				"testAddRestaurantFailure()": "infinite",
				"testDisableContract()": "infinite",
				"testDisableContractFailure()": "infinite",
				"testDoVote()": "infinite",
				"testDoVote2()": "infinite",
				"testDoVote3()": "infinite",
				"testDoVoteAfterVotingClosedFailure()": "infinite",
				"testDoVoteFailure()": "infinite",
				"testEnableVoting()": "infinite",
				"testEnableVotingFailure()": "infinite",
				"testManager()": "infinite",
				"testTimeoutBlockNumber()": "infinite",
				"testVoteOpen()": "infinite",
				"testVotedRestaurant()": "infinite",
				"timeoutBlockNumber()": "2493",
				"voteOpen()": "2599",
				"votedRestaurant()": "infinite",
				"votes(uint256)": "infinite"
			}
		},
		"methodIdentifiers": {
			"addFriend(address,string)": "3b9f708d",
			"addRestaurant(string)": "6d77bd3e",
			"beforeAll()": "7fea0d4b",
			"disableContract()": "894ba833",
			"doVote(uint256)": "124258c6",
			"enableVoting()": "eb4439fb",
			"friends(address)": "1ddabf7a",
			"getManager()": "d5009584",
			"isActive()": "22f3e2d4",
			"manager()": "481c6a75",
			"numFriends()": "47098f36",
			"numRestaurants()": "b798867f",
			"numVotes()": "a3bef4d7",
			"restaurants(uint256)": "ad5461d8",
			"sender()": "67e404ce",
			"setTimeoutDuration(uint256)": "66063df4",
			"testAddFriend()": "a73fb659",
			"testAddFriendFailure()": "103439cd",
			"testAddRestaurant()": "954ffe97",
			"testAddRestaurantFailure()": "94746c81",
			"testDisableContract()": "fc8d013b",
			"testDisableContractFailure()": "1692cc92",
			"testDoVote()": "84845589",
			"testDoVote2()": "babeb68b",
			"testDoVote3()": "6e17462f",
			"testDoVoteAfterVotingClosedFailure()": "f6d416bc",
			"testDoVoteFailure()": "247bbf18",
			"testEnableVoting()": "91420699",
			"testEnableVotingFailure()": "ca1a555c",
			"testManager()": "76da7648",
			"testTimeoutBlockNumber()": "85629b66",
			"testVoteOpen()": "0c593201",
			"testVotedRestaurant()": "b2897e2e",
			"timeoutBlockNumber()": "5952ccb8",
			"voteOpen()": "788d3851",
			"votedRestaurant()": "c1c16efc",
			"votes(uint256)": "5df81330"
		}
	},
	"abi": [
		{
			"inputs": [
				{
					"internalType": "address",
					"name": "friendAddress",
					"type": "address"
				},
				{
					"internalType": "string",
					"name": "name",
					"type": "string"
				}
			],
			"name": "addFriend",
			"outputs": [
				{
					"internalType": "uint256",
					"name": "",
					"type": "uint256"
				}
			],
			"stateMutability": "nonpayable",
			"type": "function"
		},
		{
			"inputs": [
				{
					"internalType": "string",
					"name": "name",
					"type": "string"
				}
			],
			"name": "addRestaurant",
			"outputs": [
				{
					"internalType": "uint256",
					"name": "",
					"type": "uint256"
				}
			],
			"stateMutability": "nonpayable",
			"type": "function"
		},
		{
			"inputs": [],
			"name": "beforeAll",
			"outputs": [],
			"stateMutability": "nonpayable",
			"type": "function"
		},
		{
			"inputs": [],
			"name": "disableContract",
			"outputs": [],
			"stateMutability": "nonpayable",
			"type": "function"
		},
		{
			"inputs": [
				{
					"internalType": "uint256",
					"name": "restaurant",
					"type": "uint256"
				}
			],
			"name": "doVote",
			"outputs": [
				{
					"internalType": "bool",
					"name": "validVote",
					"type": "bool"
				}
			],
			"stateMutability": "nonpayable",
			"type": "function"
		},
		{
			"inputs": [],
			"name": "enableVoting",
			"outputs": [],
			"stateMutability": "nonpayable",
			"type": "function"
		},
		{
			"inputs": [
				{
					"internalType": "address",
					"name": "",
					"type": "address"
				}
			],
			"name": "friends",
			"outputs": [
				{
					"internalType": "string",
					"name": "name",
					"type": "string"
				},
				{
					"internalType": "bool",
					"name": "voted",
					"type": "bool"
				}
			],
			"stateMutability": "view",
			"type": "function"
		},
		{
			"inputs": [],
			"name": "getManager",
			"outputs": [
				{
					"internalType": "address",
					"name": "",
					"type": "address"
				}
			],
			"stateMutability": "view",
			"type": "function"
		},
		{
			"inputs": [],
			"name": "isActive",
			"outputs": [
				{
					"internalType": "bool",
					"name": "",
					"type": "bool"
				}
			],
			"stateMutability": "view",
			"type": "function"
		},
		{
			"inputs": [],
			"name": "manager",
			"outputs": [
				{
					"internalType": "address",
					"name": "",
					"type": "address"
				}
			],
			"stateMutability": "view",
			"type": "function"
		},
		{
			"inputs": [],
			"name": "numFriends",
			"outputs": [
				{
					"internalType": "uint256",
					"name": "",
					"type": "uint256"
				}
			],
			"stateMutability": "view",
			"type": "function"
		},
		{
			"inputs": [],
			"name": "numRestaurants",
			"outputs": [
				{
					"internalType": "uint256",
					"name": "",
					"type": "uint256"
				}
			],
			"stateMutability": "view",
			"type": "function"
		},
		{
			"inputs": [],
			"name": "numVotes",
			"outputs": [
				{
					"internalType": "uint256",
					"name": "",
					"type": "uint256"
				}
			],
			"stateMutability": "view",
			"type": "function"
		},
		{
			"inputs": [
				{
					"internalType": "uint256",
					"name": "",
					"type": "uint256"
				}
			],
			"name": "restaurants",
			"outputs": [
				{
					"internalType": "string",
					"name": "",
					"type": "string"
				}
			],
			"stateMutability": "view",
			"type": "function"
		},
		{
			"inputs": [],
			"name": "sender",
			"outputs": [
				{
					"internalType": "address",
					"name": "",
					"type": "address"
				}
			],
			"stateMutability": "view",
			"type": "function"
		},
		{
			"inputs": [
				{
					"internalType": "uint256",
					"name": "timeoutDuration",
					"type": "uint256"
				}
			],
			"name": "setTimeoutDuration",
			"outputs": [],
			"stateMutability": "nonpayable",
			"type": "function"
		},
		{
			"inputs": [],
			"name": "testAddFriend",
			"outputs": [],
			"stateMutability": "nonpayable",
			"type": "function"
		},
		{
			"inputs": [],
			"name": "testAddFriendFailure",
			"outputs": [],
			"stateMutability": "nonpayable",
			"type": "function"
		},
		{
			"inputs": [],
			"name": "testAddRestaurant",
			"outputs": [],
			"stateMutability": "nonpayable",
			"type": "function"
		},
		{
			"inputs": [],
			"name": "testAddRestaurantFailure",
			"outputs": [],
			"stateMutability": "nonpayable",
			"type": "function"
		},
		{
			"inputs": [],
			"name": "testDisableContract",
			"outputs": [],
			"stateMutability": "nonpayable",
			"type": "function"
		},
		{
			"inputs": [],
			"name": "testDisableContractFailure",
			"outputs": [],
			"stateMutability": "nonpayable",
			"type": "function"
		},
		{
			"inputs": [],
			"name": "testDoVote",
			"outputs": [],
			"stateMutability": "nonpayable",
			"type": "function"
		},
		{
			"inputs": [],
			"name": "testDoVote2",
			"outputs": [],
			"stateMutability": "nonpayable",
			"type": "function"
		},
		{
			"inputs": [],
			"name": "testDoVote3",
			"outputs": [],
			"stateMutability": "nonpayable",
			"type": "function"
		},
		{
			"inputs": [],
			"name": "testDoVoteAfterVotingClosedFailure",
			"outputs": [],
			"stateMutability": "nonpayable",
			"type": "function"
		},
		{
			"inputs": [],
			"name": "testDoVoteFailure",
			"outputs": [],
			"stateMutability": "nonpayable",
			"type": "function"
		},
		{
			"inputs": [],
			"name": "testEnableVoting",
			"outputs": [],
			"stateMutability": "nonpayable",
			"type": "function"
		},
		{
			"inputs": [],
			"name": "testEnableVotingFailure",
			"outputs": [],
			"stateMutability": "nonpayable",
			"type": "function"
		},
		{
			"inputs": [],
			"name": "testManager",
			"outputs": [],
			"stateMutability": "nonpayable",
			"type": "function"
		},
		{
			"inputs": [],
			"name": "testTimeoutBlockNumber",
			"outputs": [],
			"stateMutability": "nonpayable",
			"type": "function"
		},
		{
			"inputs": [],
			"name": "testVoteOpen",
			"outputs": [],
			"stateMutability": "nonpayable",
			"type": "function"
		},
		{
			"inputs": [],
			"name": "testVotedRestaurant",
			"outputs": [],
			"stateMutability": "nonpayable",
			"type": "function"
		},
		{
			"inputs": [],
			"name": "timeoutBlockNumber",
			"outputs": [
				{
					"internalType": "uint256",
					"name": "",
					"type": "uint256"
				}
			],
			"stateMutability": "view",
			"type": "function"
		},
		{
			"inputs": [],
			"name": "voteOpen",
			"outputs": [
				{
					"internalType": "bool",
					"name": "",
					"type": "bool"
				}
			],
			"stateMutability": "view",
			"type": "function"
		},
		{
			"inputs": [],
			"name": "votedRestaurant",
			"outputs": [
				{
					"internalType": "string",
					"name": "",
					"type": "string"
				}
			],
			"stateMutability": "view",
			"type": "function"
		},
		{
			"inputs": [
				{
					"internalType": "uint256",
					"name": "",
					"type": "uint256"
				}
			],
			"name": "votes",
			"outputs": [
				{
					"internalType": "address",
					"name": "voterAddress",
					"type": "address"
				},
				{
					"internalType": "uint256",
					"name": "restaurant",
					"type": "uint256"
				}
			],
			"stateMutability": "view",
			"type": "function"
		}
	]
}