{
	"data": {
		"bytecode": {
			"linkReferences": {
				"remix_accounts.sol": {
					"TestsAccounts": [
						{
							"length": 20,
							"start": 8152
						},
						{
							"length": 20,
							"start": 8333
						},
						{
							"length": 20,
							"start": 8515
						},
						{
							"length": 20,
							"start": 8697
						},
						{
							"length": 20,
							"start": 8879
						}
					]
				},
				"remix_tests.sol": {
					"Assert": [
						{
							"length": 20,
							"start": 2765
						},
						{
							"length": 20,
							"start": 2919
						},
						{
							"length": 20,
							"start": 3092
						},
						{
							"length": 20,
							"start": 3218
						},
						{
							"length": 20,
							"start": 4399
						},
						{
							"length": 20,
							"start": 4553
						},
						{
							"length": 20,
							"start": 4726
						},
						{
							"length": 20,
							"start": 4852
						},
						{
							"length": 20,
							"start": 5934
						},
						{
							"length": 20,
							"start": 6311
						},
						{
							"length": 20,
							"start": 6465
						},
						{
							"length": 20,
							"start": 6638
						},
						{
							"length": 20,
							"start": 6764
						},
						{
							"length": 20,
							"start": 7815
						},
						{
							"length": 20,
							"start": 7945
						},
						{
							"length": 20,
							"start": 9063
						},
						{
							"length": 20,
							"start": 9193
						},
						{
							"length": 20,
							"start": 9573
						},
						{
							"length": 20,
							"start": 9716
						},
						{
							"length": 20,
							"start": 10011
						},
						{
							"length": 20,
							"start": 10165
						},
						{
							"length": 20,
							"start": 10338
						},
						{
							"length": 20,
							"start": 10464
						},
						{
							"length": 20,
							"start": 10590
						},
						{
							"length": 20,
							"start": 10773
						},
						{
							"length": 20,
							"start": 10958
						},
						{
							"length": 20,
							"start": 11122
						},
						{
							"length": 20,
							"start": 11339
						},
						{
							"length": 20,
							"start": 11556
						},
						{
							"length": 20,
							"start": 11773
						},
						{
							"length": 20,
							"start": 12146
						},
						{
							"length": 20,
							"start": 12434
						},
						{
							"length": 20,
							"start": 12588
						},
						{
							"length": 20,
							"start": 12761
						},
						{
							"length": 20,
							"start": 12887
						},
						{
							"length": 20,
							"start": 13013
						},
						{
							"length": 20,
							"start": 13412
						},
						{
							"length": 20,
							"start": 13566
						},
						{
							"length": 20,
							"start": 13739
						},
						{
							"length": 20,
							"start": 13865
						},
						{
							"length": 20,
							"start": 14666
						},
						{
							"length": 20,
							"start": 14820
						},
						{
							"length": 20,
							"start": 14993
						},
						{
							"length": 20,
							"start": 15119
						},
						{
							"length": 20,
							"start": 15245
						},
						{
							"length": 20,
							"start": 15389
						}
					]
				}
			},
			"object": "60806040525f6002555f6003555f60045560405180602001604052805f8152506006908161002d919061030d565b505f60095f6101000a81548160ff0219169083151502179055506001600c5f6101000a81548160ff02191690831515021790555034801561006c575f80fd5b5060643360055f6101000a81548173ffffffffffffffffffffffffffffffffffffffff021916908373ffffffffffffffffffffffffffffffffffffffff1602179055505f81036100bb57606490505b80436100c79190610409565b600b819055505061043c565b5f81519050919050565b7f4e487b71000000000000000000000000000000000000000000000000000000005f52604160045260245ffd5b7f4e487b71000000000000000000000000000000000000000000000000000000005f52602260045260245ffd5b5f600282049050600182168061014e57607f821691505b6020821081036101615761016061010a565b5b50919050565b5f819050815f5260205f209050919050565b5f6020601f8301049050919050565b5f82821b905092915050565b5f600883026101c37fffffffffffffffffffffffffffffffffffffffffffffffffffffffffffffffff82610188565b6101cd8683610188565b95508019841693508086168417925050509392505050565b5f819050919050565b5f819050919050565b5f61021161020c610207846101e5565b6101ee565b6101e5565b9050919050565b5f819050919050565b61022a836101f7565b61023e61023682610218565b848454610194565b825550505050565b5f90565b610252610246565b61025d818484610221565b505050565b5b81811015610280576102755f8261024a565b600181019050610263565b5050565b601f8211156102c55761029681610167565b61029f84610179565b810160208510156102ae578190505b6102c26102ba85610179565b830182610262565b50505b505050565b5f82821c905092915050565b5f6102e55f19846008026102ca565b1980831691505092915050565b5f6102fd83836102d6565b9150826002028217905092915050565b610316826100d3565b67ffffffffffffffff81111561032f5761032e6100dd565b5b6103398254610137565b610344828285610284565b5f60209050601f831160018114610375575f8415610363578287015190505b61036d85826102f2565b8655506103d4565b601f19841661038386610167565b5f5b828110156103aa57848901518255600182019150602085019450602081019050610385565b868310156103c757848901516103c3601f8916826102d6565b8355505b6001600288020188555050505b505050505050565b7f4e487b71000000000000000000000000000000000000000000000000000000005f52601160045260245ffd5b5f610413826101e5565b915061041e836101e5565b9250828201905080821115610436576104356103dc565b5b92915050565b615ac4806104495f395ff3fe608060405234801561000f575f80fd5b5060043610610246575f3560e01c806385629b6611610139578063b2897e2e116100b6578063ca1a555c1161007a578063ca1a555c1461057c578063d500958414610586578063eb4439fb146105a4578063f6d416bc146105ae578063fc8d013b146105b857610246565b8063b2897e2e14610522578063b798867f1461052c578063b8341dfd1461054a578063babeb68b14610554578063c1c16efc1461055e57610246565b806396400bff116100fd57806396400bff146104a2578063a36146d3146104ac578063a3bef4d7146104ca578063a73fb659146104e8578063ad5461d8146104f257610246565b806385629b6614610470578063894ba8331461047a578063914206991461048457806394746c811461048e578063954ffe971461049857610246565b80635df81330116101c75780636e17462f1161018b5780636e17462f1461042a57806376da764814610434578063788d38511461043e5780637fea0d4b1461045c578063848455891461046657610246565b80635df813301461037157806365985a95146103a257806366063df4146103ac57806367e404ce146103dc5780636d77bd3e146103fa57610246565b80633b9f708d1161020e5780633b9f708d146102dd57806347098f361461030d578063481c6a751461032b5780634a6a149b146103495780635952ccb81461035357610246565b8063103439cd1461024a578063124258c6146102545780631692cc92146102845780631ddabf7a1461028e57806322f3e2d4146102bf575b5f80fd5b6102526105c2565b005b61026e60048036038101906102699190613a85565b6108c5565b60405161027b9190613aca565b60405180910390f35b61028c610c63565b005b6102a860048036038101906102a39190613b3d565b610f33565b6040516102b6929190613bd8565b60405180910390f35b6102c7610fe5565b6040516102d49190613aca565b60405180910390f35b6102f760048036038101906102f29190613d32565b610ff7565b6040516103049190613d9b565b60405180910390f35b6103156112b8565b6040516103229190613d9b565b60405180910390f35b6103336112be565b6040516103409190613dc3565b60405180910390f35b6103516112e3565b005b61035b611368565b6040516103689190613d9b565b60405180910390f35b61038b60048036038101906103869190613a85565b61136e565b604051610399929190613ddc565b60405180910390f35b6103aa6113bc565b005b6103c660048036038101906103c19190613a85565b61169f565b6040516103d39190613aca565b60405180910390f35b6103e46117c5565b6040516103f19190613dc3565b60405180910390f35b610414600480360381019061040f9190613e03565b6117eb565b6040516104219190613d9b565b60405180910390f35b610432611a3c565b005b61043c611abe565b005b610446611b7b565b6040516104539190613aca565b60405180910390f35b610464611b8d565b005b61046e611f1c565b005b610478611f9e565b005b61048261201b565b005b61048c61211a565b005b610496612233565b005b6104a0612513565b005b6104aa612683565b005b6104b461270c565b6040516104c19190613aca565b60405180910390f35b6104d2612721565b6040516104df9190613d9b565b60405180910390f35b6104f0612727565b005b61050c60048036038101906105079190613a85565b612a8d565b6040516105199190613e4a565b60405180910390f35b61052a612b27565b005b610534612ba1565b6040516105419190613d9b565b60405180910390f35b610552612ba7565b005b61055c612e8a565b005b610566612f0c565b6040516105739190613e4a565b60405180910390f35b610584612f98565b005b61058e613268565b60405161059b9190613dc3565b60405180910390f35b6105ac613290565b005b6105b661345f565b005b6105c0613742565b005b3073ffffffffffffffffffffffffffffffffffffffff16633b9f708d60115f9054906101000a900473ffffffffffffffffffffffffffffffffffffffff166040518263ffffffff1660e01b815260040161061c9190613eb4565b6020604051808303815f875af192505050801561065757506040513d601f19601f820116820180604052508101906106549190613ef4565b60015b61084757610663613f2b565b806308c379a0036106ff5750610677613f4a565b806106825750610799565b73__$acbfb1c35000d78352310b16a054a6b106$__63e8c2cb16826040518263ffffffff1660e01b81526004016106b991906140db565b602060405180830381865af41580156106d4573d5f803e3d5ffd5b505050506040513d601f19601f820116820180604052508101906106f8919061414b565b5050610842565b634e487b710361079957610711614176565b9061071c5750610799565b73__$acbfb1c35000d78352310b16a054a6b106$__6339df137f5f6040518263ffffffff1660e01b81526004016107539190614213565b602060405180830381865af415801561076e573d5f803e3d5ffd5b505050506040513d601f19601f82011682018060405250810190610792919061414b565b5050610842565b3d805f81146107c3576040519150601f19603f3d011682016040523d82523d5f602084013e6107c8565b606091505b5073__$acbfb1c35000d78352310b16a054a6b106$__6339df137f5f6040518263ffffffff1660e01b81526004016108009190614289565b602060405180830381865af415801561081b573d5f803e3d5ffd5b505050506040513d601f19601f8201168201806040525081019061083f919061414b565b50505b6108c3565b73__$acbfb1c35000d78352310b16a054a6b106$__63561015e28260056040518363ffffffff1660e01b8152600401610881929190614350565b602060405180830381865af415801561089c573d5f803e3d5ffd5b505050506040513d601f19601f820116820180604052508101906108c0919061414b565b50505b565b5f6001151560095f9054906101000a900460ff1615151461091b576040517f08c379a0000000000000000000000000000000000000000000000000000000008152600401610912906143fa565b60405180910390fd5b60011515600c5f9054906101000a900460ff16151514610970576040517f08c379a000000000000000000000000000000000000000000000000000000000815260040161096790614462565b60405180910390fd5b5f9050600b5443106109855761098461385b565b5b5f60015f3373ffffffffffffffffffffffffffffffffffffffff1673ffffffffffffffffffffffffffffffffffffffff1681526020019081526020015f205f0180546109d0906144ad565b905003610a12576040517f08c379a0000000000000000000000000000000000000000000000000000000008152600401610a0990614527565b60405180910390fd5b5f805f8481526020019081526020015f208054610a2e906144ad565b905003610a70576040517f08c379a0000000000000000000000000000000000000000000000000000000008152600401610a679061458f565b60405180910390fd5b60015f3373ffffffffffffffffffffffffffffffffffffffff1673ffffffffffffffffffffffffffffffffffffffff1681526020019081526020015f206001015f9054906101000a900460ff1615610afd576040517f08c379a0000000000000000000000000000000000000000000000000000000008152600401610af4906145f7565b60405180910390fd5b600190506001805f3373ffffffffffffffffffffffffffffffffffffffff1673ffffffffffffffffffffffffffffffffffffffff1681526020019081526020015f206001015f6101000a81548160ff02191690831515021790555060045f815480929190610b6a90614642565b9190505550610b776139f8565b33815f019073ffffffffffffffffffffffffffffffffffffffff16908173ffffffffffffffffffffffffffffffffffffffff168152505082816020018181525050600781908060018154018082558091505060019003905f5260205f2090600202015f909190919091505f820151815f015f6101000a81548173ffffffffffffffffffffffffffffffffffffffff021916908373ffffffffffffffffffffffffffffffffffffffff16021790555060208201518160010155505060016002600354610c4291906146b6565b610c4c91906146e6565b60045410610c5d57610c5c61385b565b5b50919050565b3073ffffffffffffffffffffffffffffffffffffffff1663894ba8336040518163ffffffff1660e01b81526004015f604051808303815f87803b158015610ca8575f80fd5b505af1925050508015610cb9575060015b610ea957610cc5613f2b565b806308c379a003610d615750610cd9613f4a565b80610ce45750610dfb565b73__$acbfb1c35000d78352310b16a054a6b106$__63e8c2cb16826040518263ffffffff1660e01b8152600401610d1b91906140db565b602060405180830381865af4158015610d36573d5f803e3d5ffd5b505050506040513d601f19601f82011682018060405250810190610d5a919061414b565b5050610ea4565b634e487b7103610dfb57610d73614176565b90610d7e5750610dfb565b73__$acbfb1c35000d78352310b16a054a6b106$__6339df137f5f6040518263ffffffff1660e01b8152600401610db59190614213565b602060405180830381865af4158015610dd0573d5f803e3d5ffd5b505050506040513d601f19601f82011682018060405250810190610df4919061414b565b5050610ea4565b3d805f8114610e25576040519150601f19603f3d011682016040523d82523d5f602084013e610e2a565b606091505b5073__$acbfb1c35000d78352310b16a054a6b106$__6339df137f5f6040518263ffffffff1660e01b8152600401610e629190614289565b602060405180830381865af4158015610e7d573d5f803e3d5ffd5b505050506040513d601f19601f82011682018060405250810190610ea1919061414b565b50505b610f31565b73__$acbfb1c35000d78352310b16a054a6b106$__6344781a00600c5f9054906101000a900460ff165f6040518363ffffffff1660e01b8152600401610ef0929190614719565b602060405180830381865af4158015610f0b573d5f803e3d5ffd5b505050506040513d601f19601f82011682018060405250810190610f2f919061414b565b505b565b6001602052805f5260405f205f91509050805f018054610f52906144ad565b80601f0160208091040260200160405190810160405280929190818152602001828054610f7e906144ad565b8015610fc95780601f10610fa057610100808354040283529160200191610fc9565b820191905f5260205f20905b815481529060010190602001808311610fac57829003601f168201915b505050505090806001015f9054906101000a900460ff16905082565b600c5f9054906101000a900460ff1681565b5f60055f9054906101000a900473ffffffffffffffffffffffffffffffffffffffff1673ffffffffffffffffffffffffffffffffffffffff163373ffffffffffffffffffffffffffffffffffffffff1614611087576040517f08c379a000000000000000000000000000000000000000000000000000000000815260040161107e90614775565b60405180910390fd5b5f151560095f9054906101000a900460ff161515146110db576040517f08c379a00000000000000000000000000000000000000000000000000000000081526004016110d290614803565b60405180910390fd5b600b54431061111f576040517f08c379a00000000000000000000000000000000000000000000000000000000081526004016111169061486b565b60405180910390fd5b60011515600c5f9054906101000a900460ff16151514611174576040517f08c379a000000000000000000000000000000000000000000000000000000000815260040161116b90614462565b60405180910390fd5b5f60015f8573ffffffffffffffffffffffffffffffffffffffff1673ffffffffffffffffffffffffffffffffffffffff1681526020019081526020015f205f0180546111bf906144ad565b905014611201576040517f08c379a00000000000000000000000000000000000000000000000000000000081526004016111f8906148d3565b60405180910390fd5b60035f81548092919061121390614642565b9190505550611220613a26565b82815f01819052505f8160200190151590811515815250508060015f8673ffffffffffffffffffffffffffffffffffffffff1673ffffffffffffffffffffffffffffffffffffffff1681526020019081526020015f205f820151815f0190816112899190614a85565b506020820151816001015f6101000a81548160ff02191690831515021790555090505060035491505092915050565b60035481565b60055f9054906101000a900473ffffffffffffffffffffffffffffffffffffffff1681565b73__$acbfb1c35000d78352310b16a054a6b106$__63767392b3611307606461169f565b60016040518363ffffffff1660e01b8152600401611326929190614b9e565b602060405180830381865af4158015611341573d5f803e3d5ffd5b505050506040513d601f19601f82011682018060405250810190611365919061414b565b50565b600b5481565b6007818154811061137d575f80fd5b905f5260205f2090600202015f91509050805f015f9054906101000a900473ffffffffffffffffffffffffffffffffffffffff16908060010154905082565b3073ffffffffffffffffffffffffffffffffffffffff166366063df460646040518263ffffffff1660e01b81526004016113f69190614c11565b6020604051808303815f875af192505050801561143157506040513d601f19601f8201168201806040525081019061142e919061414b565b60015b6116215761143d613f2b565b806308c379a0036114d95750611451613f4a565b8061145c5750611573565b73__$acbfb1c35000d78352310b16a054a6b106$__63e8c2cb16826040518263ffffffff1660e01b815260040161149391906140db565b602060405180830381865af41580156114ae573d5f803e3d5ffd5b505050506040513d601f19601f820116820180604052508101906114d2919061414b565b505061161c565b634e487b7103611573576114eb614176565b906114f65750611573565b73__$acbfb1c35000d78352310b16a054a6b106$__6339df137f5f6040518263ffffffff1660e01b815260040161152d9190614213565b602060405180830381865af4158015611548573d5f803e3d5ffd5b505050506040513d601f19601f8201168201806040525081019061156c919061414b565b505061161c565b3d805f811461159d576040519150601f19603f3d011682016040523d82523d5f602084013e6115a2565b606091505b5073__$acbfb1c35000d78352310b16a054a6b106$__6339df137f5f6040518263ffffffff1660e01b81526004016115da9190614289565b602060405180830381865af41580156115f5573d5f803e3d5ffd5b505050506040513d601f19601f82011682018060405250810190611619919061414b565b50505b61169d565b73__$acbfb1c35000d78352310b16a054a6b106$__6344781a008260016040518363ffffffff1660e01b815260040161165b929190614719565b602060405180830381865af4158015611676573d5f803e3d5ffd5b505050506040513d601f19601f8201168201806040525081019061169a919061414b565b50505b565b5f60055f9054906101000a900473ffffffffffffffffffffffffffffffffffffffff1673ffffffffffffffffffffffffffffffffffffffff163373ffffffffffffffffffffffffffffffffffffffff161461172f576040517f08c379a000000000000000000000000000000000000000000000000000000000815260040161172690614775565b60405180910390fd5b60011515600c5f9054906101000a900460ff16151514611784576040517f08c379a000000000000000000000000000000000000000000000000000000000815260040161177b90614462565b60405180910390fd5b5f9050814361179391906146e6565b600b81905550600b5443116117bc575f60095f6101000a81548160ff0219169083151502179055505b60019050919050565b600c60019054906101000a900473ffffffffffffffffffffffffffffffffffffffff1681565b5f60055f9054906101000a900473ffffffffffffffffffffffffffffffffffffffff1673ffffffffffffffffffffffffffffffffffffffff163373ffffffffffffffffffffffffffffffffffffffff161461187b576040517f08c379a000000000000000000000000000000000000000000000000000000000815260040161187290614775565b60405180910390fd5b5f151560095f9054906101000a900460ff161515146118cf576040517f08c379a00000000000000000000000000000000000000000000000000000000081526004016118c690614803565b60405180910390fd5b600b544310611913576040517f08c379a000000000000000000000000000000000000000000000000000000000815260040161190a9061486b565b60405180910390fd5b60011515600c5f9054906101000a900460ff16151514611968576040517f08c379a000000000000000000000000000000000000000000000000000000000815260040161195f90614462565b60405180910390fd5b5f82805190602001209050600a5f8281526020019081526020015f205f9054906101000a900460ff16156119d1576040517f08c379a00000000000000000000000000000000000000000000000000000000081526004016119c890614c74565b60405180910390fd5b60025f8154809291906119e390614642565b9190505550825f8060025481526020019081526020015f209081611a079190614a85565b506001600a5f8381526020019081526020015f205f6101000a81548160ff021916908315150217905550600254915050919050565b73__$acbfb1c35000d78352310b16a054a6b106$__6339df137f611a6060026108c5565b6040518263ffffffff1660e01b8152600401611a7c9190614cdc565b602060405180830381865af4158015611a97573d5f803e3d5ffd5b505050506040513d601f19601f82011682018060405250810190611abb919061414b565b50565b73__$acbfb1c35000d78352310b16a054a6b106$__63bfba5dd660055f9054906101000a900473ffffffffffffffffffffffffffffffffffffffff16600d5f9054906101000a900473ffffffffffffffffffffffffffffffffffffffff166040518363ffffffff1660e01b8152600401611b39929190614d61565b602060405180830381865af4158015611b54573d5f803e3d5ffd5b505050506040513d601f19601f82011682018060405250810190611b78919061414b565b50565b60095f9054906101000a900460ff1681565b73__$1068a87eb54ed04c4e435de35b2ebf536f$__63ce88b1455f6040518263ffffffff1660e01b8152600401611bc49190614dd4565b602060405180830381865af4158015611bdf573d5f803e3d5ffd5b505050506040513d601f19601f82011682018060405250810190611c039190614e01565b600d5f6101000a81548173ffffffffffffffffffffffffffffffffffffffff021916908373ffffffffffffffffffffffffffffffffffffffff16021790555073__$1068a87eb54ed04c4e435de35b2ebf536f$__63ce88b14560016040518263ffffffff1660e01b8152600401611c7a9190614e65565b602060405180830381865af4158015611c95573d5f803e3d5ffd5b505050506040513d601f19601f82011682018060405250810190611cb99190614e01565b600e5f6101000a81548173ffffffffffffffffffffffffffffffffffffffff021916908373ffffffffffffffffffffffffffffffffffffffff16021790555073__$1068a87eb54ed04c4e435de35b2ebf536f$__63ce88b14560026040518263ffffffff1660e01b8152600401611d309190614eb7565b602060405180830381865af4158015611d4b573d5f803e3d5ffd5b505050506040513d601f19601f82011682018060405250810190611d6f9190614e01565b600f5f6101000a81548173ffffffffffffffffffffffffffffffffffffffff021916908373ffffffffffffffffffffffffffffffffffffffff16021790555073__$1068a87eb54ed04c4e435de35b2ebf536f$__63ce88b14560036040518263ffffffff1660e01b8152600401611de69190614f09565b602060405180830381865af4158015611e01573d5f803e3d5ffd5b505050506040513d601f19601f82011682018060405250810190611e259190614e01565b60105f6101000a81548173ffffffffffffffffffffffffffffffffffffffff021916908373ffffffffffffffffffffffffffffffffffffffff16021790555073__$1068a87eb54ed04c4e435de35b2ebf536f$__63ce88b14560046040518263ffffffff1660e01b8152600401611e9c9190614f5b565b602060405180830381865af4158015611eb7573d5f803e3d5ffd5b505050506040513d601f19601f82011682018060405250810190611edb9190614e01565b60115f6101000a81548173ffffffffffffffffffffffffffffffffffffffff021916908373ffffffffffffffffffffffffffffffffffffffff160217905550565b73__$acbfb1c35000d78352310b16a054a6b106$__6339df137f611f4060026108c5565b6040518263ffffffff1660e01b8152600401611f5c9190614cdc565b602060405180830381865af4158015611f77573d5f803e3d5ffd5b505050506040513d601f19601f82011682018060405250810190611f9b919061414b565b50565b73__$acbfb1c35000d78352310b16a054a6b106$__63a079f1a3600b54436040518363ffffffff1660e01b8152600401611fd9929190614fe4565b602060405180830381865af4158015611ff4573d5f803e3d5ffd5b505050506040513d601f19601f82011682018060405250810190612018919061414b565b50565b60055f9054906101000a900473ffffffffffffffffffffffffffffffffffffffff1673ffffffffffffffffffffffffffffffffffffffff163373ffffffffffffffffffffffffffffffffffffffff16146120aa576040517f08c379a00000000000000000000000000000000000000000000000000000000081526004016120a190614775565b60405180910390fd5b60011515600c5f9054906101000a900460ff161515146120ff576040517f08c379a00000000000000000000000000000000000000000000000000000000081526004016120f690614462565b60405180910390fd5b5f600c5f6101000a81548160ff021916908315150217905550565b73__$acbfb1c35000d78352310b16a054a6b106$__63767392b360095f9054906101000a900460ff165f6040518363ffffffff1660e01b815260040161216192919061508e565b602060405180830381865af415801561217c573d5f803e3d5ffd5b505050506040513d601f19601f820116820180604052508101906121a0919061414b565b506121a9613290565b73__$acbfb1c35000d78352310b16a054a6b106$__63767392b360095f9054906101000a900460ff1660016040518363ffffffff1660e01b81526004016121f1929190615112565b602060405180830381865af415801561220c573d5f803e3d5ffd5b505050506040513d601f19601f82011682018060405250810190612230919061414b565b50565b3073ffffffffffffffffffffffffffffffffffffffff16636d77bd3e6040518163ffffffff1660e01b815260040161226a90615196565b6020604051808303815f875af19250505080156122a557506040513d601f19601f820116820180604052508101906122a29190613ef4565b60015b612495576122b1613f2b565b806308c379a00361234d57506122c5613f4a565b806122d057506123e7565b73__$acbfb1c35000d78352310b16a054a6b106$__63e8c2cb16826040518263ffffffff1660e01b815260040161230791906140db565b602060405180830381865af4158015612322573d5f803e3d5ffd5b505050506040513d601f19601f82011682018060405250810190612346919061414b565b5050612490565b634e487b71036123e75761235f614176565b9061236a57506123e7565b73__$acbfb1c35000d78352310b16a054a6b106$__6339df137f5f6040518263ffffffff1660e01b81526004016123a19190614213565b602060405180830381865af41580156123bc573d5f803e3d5ffd5b505050506040513d601f19601f820116820180604052508101906123e0919061414b565b5050612490565b3d805f8114612411576040519150601f19603f3d011682016040523d82523d5f602084013e612416565b606091505b5073__$acbfb1c35000d78352310b16a054a6b106$__6339df137f5f6040518263ffffffff1660e01b815260040161244e9190614289565b602060405180830381865af4158015612469573d5f803e3d5ffd5b505050506040513d601f19601f8201168201806040525081019061248d919061414b565b50505b612511565b73__$acbfb1c35000d78352310b16a054a6b106$__63561015e28260036040518363ffffffff1660e01b81526004016124cf9291906151b4565b602060405180830381865af41580156124ea573d5f803e3d5ffd5b505050506040513d601f19601f8201168201806040525081019061250e919061414b565b50505b565b73__$acbfb1c35000d78352310b16a054a6b106$__63abcd796061256b6040518060400160405280600e81526020017f436f7572747961726420436166650000000000000000000000000000000000008152506117eb565b60016040518363ffffffff1660e01b815260040161258a929190615238565b602060405180830381865af41580156125a5573d5f803e3d5ffd5b505050506040513d601f19601f820116820180604052508101906125c9919061414b565b5073__$acbfb1c35000d78352310b16a054a6b106$__63abcd79606126226040518060400160405280600881526020017f556e6920436166650000000000000000000000000000000000000000000000008152506117eb565b60026040518363ffffffff1660e01b81526004016126419291906152bc565b602060405180830381865af415801561265c573d5f803e3d5ffd5b505050506040513d601f19601f82011682018060405250810190612680919061414b565b50565b73__$acbfb1c35000d78352310b16a054a6b106$__63767392b360095f9054906101000a900460ff165f6040518363ffffffff1660e01b81526004016126ca929190615340565b602060405180830381865af41580156126e5573d5f803e3d5ffd5b505050506040513d601f19601f82011682018060405250810190612709919061414b565b50565b5f60095f9054906101000a900460ff16905090565b60045481565b73__$acbfb1c35000d78352310b16a054a6b106$__63abcd79606127a1600d5f9054906101000a900473ffffffffffffffffffffffffffffffffffffffff166040518060400160405280600581526020017f416c696365000000000000000000000000000000000000000000000000000000815250610ff7565b60016040518363ffffffff1660e01b81526004016127c0929190615238565b602060405180830381865af41580156127db573d5f803e3d5ffd5b505050506040513d601f19601f820116820180604052508101906127ff919061414b565b5073__$acbfb1c35000d78352310b16a054a6b106$__63abcd796061287a600e5f9054906101000a900473ffffffffffffffffffffffffffffffffffffffff166040518060400160405280600381526020017f426f620000000000000000000000000000000000000000000000000000000000815250610ff7565b60026040518363ffffffff1660e01b81526004016128999291906152bc565b602060405180830381865af41580156128b4573d5f803e3d5ffd5b505050506040513d601f19601f820116820180604052508101906128d8919061414b565b5073__$acbfb1c35000d78352310b16a054a6b106$__63abcd7960612953600f5f9054906101000a900473ffffffffffffffffffffffffffffffffffffffff166040518060400160405280600781526020017f436861726c696500000000000000000000000000000000000000000000000000815250610ff7565b60036040518363ffffffff1660e01b81526004016129729291906153c4565b602060405180830381865af415801561298d573d5f803e3d5ffd5b505050506040513d601f19601f820116820180604052508101906129b1919061414b565b5073__$acbfb1c35000d78352310b16a054a6b106$__63abcd7960612a2c60105f9054906101000a900473ffffffffffffffffffffffffffffffffffffffff166040518060400160405280600381526020017f4576650000000000000000000000000000000000000000000000000000000000815250610ff7565b60046040518363ffffffff1660e01b8152600401612a4b929190615448565b602060405180830381865af4158015612a66573d5f803e3d5ffd5b505050506040513d601f19601f82011682018060405250810190612a8a919061414b565b50565b5f602052805f5260405f205f915090508054612aa8906144ad565b80601f0160208091040260200160405190810160405280929190818152602001828054612ad4906144ad565b8015612b1f5780601f10612af657610100808354040283529160200191612b1f565b820191905f5260205f20905b815481529060010190602001808311612b0257829003601f168201915b505050505081565b73__$acbfb1c35000d78352310b16a054a6b106$__63e8c2cb1660066040518263ffffffff1660e01b8152600401612b5f91906155bd565b602060405180830381865af4158015612b7a573d5f803e3d5ffd5b505050506040513d601f19601f82011682018060405250810190612b9e919061414b565b50565b60025481565b3073ffffffffffffffffffffffffffffffffffffffff1663124258c660016040518263ffffffff1660e01b8152600401612be19190615612565b6020604051808303815f875af1925050508015612c1c57506040513d601f19601f82011682018060405250810190612c19919061414b565b60015b612e0c57612c28613f2b565b806308c379a003612cc45750612c3c613f4a565b80612c475750612d5e565b73__$acbfb1c35000d78352310b16a054a6b106$__63e8c2cb16826040518263ffffffff1660e01b8152600401612c7e919061564d565b602060405180830381865af4158015612c99573d5f803e3d5ffd5b505050506040513d601f19601f82011682018060405250810190612cbd919061414b565b5050612e07565b634e487b7103612d5e57612cd6614176565b90612ce15750612d5e565b73__$acbfb1c35000d78352310b16a054a6b106$__6339df137f5f6040518263ffffffff1660e01b8152600401612d189190614213565b602060405180830381865af4158015612d33573d5f803e3d5ffd5b505050506040513d601f19601f82011682018060405250810190612d57919061414b565b5050612e07565b3d805f8114612d88576040519150601f19603f3d011682016040523d82523d5f602084013e612d8d565b606091505b5073__$acbfb1c35000d78352310b16a054a6b106$__6339df137f5f6040518263ffffffff1660e01b8152600401612dc591906156dd565b602060405180830381865af4158015612de0573d5f803e3d5ffd5b505050506040513d601f19601f82011682018060405250810190612e04919061414b565b50505b612e88565b73__$acbfb1c35000d78352310b16a054a6b106$__6344781a008260016040518363ffffffff1660e01b8152600401612e46929190614719565b602060405180830381865af4158015612e61573d5f803e3d5ffd5b505050506040513d601f19601f82011682018060405250810190612e85919061414b565b50505b565b73__$acbfb1c35000d78352310b16a054a6b106$__6339df137f612eae60016108c5565b6040518263ffffffff1660e01b8152600401612eca9190614cdc565b602060405180830381865af4158015612ee5573d5f803e3d5ffd5b505050506040513d601f19601f82011682018060405250810190612f09919061414b565b50565b60068054612f19906144ad565b80601f0160208091040260200160405190810160405280929190818152602001828054612f45906144ad565b8015612f905780601f10612f6757610100808354040283529160200191612f90565b820191905f5260205f20905b815481529060010190602001808311612f7357829003601f168201915b505050505081565b3073ffffffffffffffffffffffffffffffffffffffff1663eb4439fb6040518163ffffffff1660e01b81526004015f604051808303815f87803b158015612fdd575f80fd5b505af1925050508015612fee575060015b6131de57612ffa613f2b565b806308c379a003613096575061300e613f4a565b806130195750613130565b73__$acbfb1c35000d78352310b16a054a6b106$__63e8c2cb16826040518263ffffffff1660e01b815260040161305091906140db565b602060405180830381865af415801561306b573d5f803e3d5ffd5b505050506040513d601f19601f8201168201806040525081019061308f919061414b565b50506131d9565b634e487b7103613130576130a8614176565b906130b35750613130565b73__$acbfb1c35000d78352310b16a054a6b106$__6339df137f5f6040518263ffffffff1660e01b81526004016130ea9190614213565b602060405180830381865af4158015613105573d5f803e3d5ffd5b505050506040513d601f19601f82011682018060405250810190613129919061414b565b50506131d9565b3d805f811461315a576040519150601f19603f3d011682016040523d82523d5f602084013e61315f565b606091505b5073__$acbfb1c35000d78352310b16a054a6b106$__6339df137f5f6040518263ffffffff1660e01b815260040161319791906156dd565b602060405180830381865af41580156131b2573d5f803e3d5ffd5b505050506040513d601f19601f820116820180604052508101906131d6919061414b565b50505b613266565b73__$acbfb1c35000d78352310b16a054a6b106$__6344781a0060095f9054906101000a900460ff165f6040518363ffffffff1660e01b8152600401613225929190614719565b602060405180830381865af4158015613240573d5f803e3d5ffd5b505050506040513d601f19601f82011682018060405250810190613264919061414b565b505b565b5f60055f9054906101000a900473ffffffffffffffffffffffffffffffffffffffff16905090565b60055f9054906101000a900473ffffffffffffffffffffffffffffffffffffffff1673ffffffffffffffffffffffffffffffffffffffff163373ffffffffffffffffffffffffffffffffffffffff161461331f576040517f08c379a000000000000000000000000000000000000000000000000000000000815260040161331690614775565b60405180910390fd5b60011515600c5f9054906101000a900460ff16151514613374576040517f08c379a000000000000000000000000000000000000000000000000000000000815260040161336b90614462565b60405180910390fd5b6002805410156133b9576040517f08c379a00000000000000000000000000000000000000000000000000000000081526004016133b090615779565b60405180910390fd5b600260035410156133ff576040517f08c379a00000000000000000000000000000000000000000000000000000000081526004016133f690615807565b60405180910390fd5b600b544310613443576040517f08c379a000000000000000000000000000000000000000000000000000000000815260040161343a90615895565b60405180910390fd5b600160095f6101000a81548160ff021916908315150217905550565b3073ffffffffffffffffffffffffffffffffffffffff1663124258c660016040518263ffffffff1660e01b81526004016134999190615612565b6020604051808303815f875af19250505080156134d457506040513d601f19601f820116820180604052508101906134d1919061414b565b60015b6136c4576134e0613f2b565b806308c379a00361357c57506134f4613f4a565b806134ff5750613616565b73__$acbfb1c35000d78352310b16a054a6b106$__63e8c2cb16826040518263ffffffff1660e01b815260040161353691906158d5565b602060405180830381865af4158015613551573d5f803e3d5ffd5b505050506040513d601f19601f82011682018060405250810190613575919061414b565b50506136bf565b634e487b71036136165761358e614176565b906135995750613616565b73__$acbfb1c35000d78352310b16a054a6b106$__6339df137f5f6040518263ffffffff1660e01b81526004016135d09190614213565b602060405180830381865af41580156135eb573d5f803e3d5ffd5b505050506040513d601f19601f8201168201806040525081019061360f919061414b565b50506136bf565b3d805f8114613640576040519150601f19603f3d011682016040523d82523d5f602084013e613645565b606091505b5073__$acbfb1c35000d78352310b16a054a6b106$__6339df137f5f6040518263ffffffff1660e01b815260040161367d91906156dd565b602060405180830381865af4158015613698573d5f803e3d5ffd5b505050506040513d601f19601f820116820180604052508101906136bc919061414b565b50505b613740565b73__$acbfb1c35000d78352310b16a054a6b106$__6344781a008260016040518363ffffffff1660e01b81526004016136fe929190614719565b602060405180830381865af4158015613719573d5f803e3d5ffd5b505050506040513d601f19601f8201168201806040525081019061373d919061414b565b50505b565b73__$acbfb1c35000d78352310b16a054a6b106$__63767392b3600c5f9054906101000a900460ff1660016040518363ffffffff1660e01b815260040161378a92919061591b565b602060405180830381865af41580156137a5573d5f803e3d5ffd5b505050506040513d601f19601f820116820180604052508101906137c9919061414b565b506137d261201b565b73__$acbfb1c35000d78352310b16a054a6b106$__63767392b3600c5f9054906101000a900460ff165f6040518363ffffffff1660e01b815260040161381992919061591b565b602060405180830381865af4158015613834573d5f803e3d5ffd5b505050506040513d601f19601f82011682018060405250810190613858919061414b565b50565b60011515600c5f9054906101000a900460ff161515146138b0576040517f08c379a00000000000000000000000000000000000000000000000000000000081526004016138a790614462565b60405180910390fd5b5f805f5b6004548110156139bb575f600190505f60085f600785815481106138db576138da615955565b5b905f5260205f2090600202016001015481526020019081526020015f205411156139425760085f6007848154811061391657613915615955565b5b905f5260205f2090600202016001015481526020019081526020015f20548161393f91906146e6565b90505b8060085f6007858154811061395a57613959615955565b5b905f5260205f2090600202016001015481526020019081526020015f2081905550838111156139ad578093506007828154811061399a57613999615955565b5b905f5260205f2090600202016001015492505b5080806001019150506138b4565b505f808281526020019081526020015f20600690816139da91906159a9565b505f60095f6101000a81548160ff0219169083151502179055505050565b60405180604001604052805f73ffffffffffffffffffffffffffffffffffffffff1681526020015f81525090565b6040518060400160405280606081526020015f151581525090565b5f604051905090565b5f80fd5b5f80fd5b5f819050919050565b613a6481613a52565b8114613a6e575f80fd5b50565b5f81359050613a7f81613a5b565b92915050565b5f60208284031215613a9a57613a99613a4a565b5b5f613aa784828501613a71565b91505092915050565b5f8115159050919050565b613ac481613ab0565b82525050565b5f602082019050613add5f830184613abb565b92915050565b5f73ffffffffffffffffffffffffffffffffffffffff82169050919050565b5f613b0c82613ae3565b9050919050565b613b1c81613b02565b8114613b26575f80fd5b50565b5f81359050613b3781613b13565b92915050565b5f60208284031215613b5257613b51613a4a565b5b5f613b5f84828501613b29565b91505092915050565b5f81519050919050565b5f82825260208201905092915050565b8281835e5f83830152505050565b5f601f19601f8301169050919050565b5f613baa82613b68565b613bb48185613b72565b9350613bc4818560208601613b82565b613bcd81613b90565b840191505092915050565b5f6040820190508181035f830152613bf08185613ba0565b9050613bff6020830184613abb565b9392505050565b5f80fd5b5f80fd5b7f4e487b71000000000000000000000000000000000000000000000000000000005f52604160045260245ffd5b613c4482613b90565b810181811067ffffffffffffffff82111715613c6357613c62613c0e565b5b80604052505050565b5f613c75613a41565b9050613c818282613c3b565b919050565b5f67ffffffffffffffff821115613ca057613c9f613c0e565b5b613ca982613b90565b9050602081019050919050565b828183375f83830152505050565b5f613cd6613cd184613c86565b613c6c565b905082815260208101848484011115613cf257613cf1613c0a565b5b613cfd848285613cb6565b509392505050565b5f82601f830112613d1957613d18613c06565b5b8135613d29848260208601613cc4565b91505092915050565b5f8060408385031215613d4857613d47613a4a565b5b5f613d5585828601613b29565b925050602083013567ffffffffffffffff811115613d7657613d75613a4e565b5b613d8285828601613d05565b9150509250929050565b613d9581613a52565b82525050565b5f602082019050613dae5f830184613d8c565b92915050565b613dbd81613b02565b82525050565b5f602082019050613dd65f830184613db4565b92915050565b5f604082019050613def5f830185613db4565b613dfc6020830184613d8c565b9392505050565b5f60208284031215613e1857613e17613a4a565b5b5f82013567ffffffffffffffff811115613e3557613e34613a4e565b5b613e4184828501613d05565b91505092915050565b5f6020820190508181035f830152613e628184613ba0565b905092915050565b7f44616e69656c73000000000000000000000000000000000000000000000000005f82015250565b5f613e9e600783613b72565b9150613ea982613e6a565b602082019050919050565b5f604082019050613ec75f830184613db4565b8181036020830152613ed881613e92565b905092915050565b5f81519050613eee81613a5b565b92915050565b5f60208284031215613f0957613f08613a4a565b5b5f613f1684828501613ee0565b91505092915050565b5f8160e01c9050919050565b5f60033d1115613f475760045f803e613f445f51613f1f565b90505b90565b5f60443d10613fd657613f5b613a41565b60043d036004823e80513d602482011167ffffffffffffffff82111715613f83575050613fd6565b808201805167ffffffffffffffff811115613fa15750505050613fd6565b80602083010160043d038501811115613fbe575050505050613fd6565b613fcd82602001850186613c3b565b82955050505050505b90565b5f82825260208201905092915050565b5f613ff382613b68565b613ffd8185613fd9565b935061400d818560208601613b82565b61401681613b90565b840191505092915050565b7f43616e206f6e6c7920626520657865637574656420627920746865206d616e615f8201527f6765720000000000000000000000000000000000000000000000000000000000602082015250565b5f61407b602383613fd9565b915061408682614021565b604082019050919050565b7f4661696c6564207769746820756e657870656374656420726561736f6e0000005f82015250565b5f6140c5601d83613fd9565b91506140d082614091565b602082019050919050565b5f6060820190508181035f8301526140f38184613fe9565b905081810360208301526141068161406f565b90508181036040830152614119816140b9565b905092915050565b61412a81613ab0565b8114614134575f80fd5b50565b5f8151905061414581614121565b92915050565b5f602082840312156141605761415f613a4a565b5b5f61416d84828501614137565b91505092915050565b5f8060233d111561419057602060045f3e600191505f5190505b9091565b61419d81613ab0565b82525050565b7f4661696c656420756e65787065637465642077697468206572726f7220636f645f8201527f6500000000000000000000000000000000000000000000000000000000000000602082015250565b5f6141fd602183613fd9565b9150614208826141a3565b604082019050919050565b5f6040820190506142265f830184614194565b8181036020830152614237816141f1565b905092915050565b7f4661696c656420756e65787065637465640000000000000000000000000000005f82015250565b5f614273601183613fd9565b915061427e8261423f565b602082019050919050565b5f60408201905061429c5f830184614194565b81810360208301526142ad81614267565b905092915050565b6142be81613a52565b82525050565b5f819050919050565b5f819050919050565b5f6142f06142eb6142e6846142c4565b6142cd565b613a52565b9050919050565b614300816142d6565b82525050565b7f4d6574686f6420657865637574696f6e20646964206e6f74206661696c0000005f82015250565b5f61433a601d83613fd9565b915061434582614306565b602082019050919050565b5f6060820190506143635f8301856142b5565b61437060208301846142f7565b81810360408301526143818161432e565b90509392505050565b7f43616e20766f7465206f6e6c79207768696c6520766f74696e67206973206f705f8201527f656e000000000000000000000000000000000000000000000000000000000000602082015250565b5f6143e4602283613b72565b91506143ef8261438a565b604082019050919050565b5f6020820190508181035f830152614411816143d8565b9050919050565b7f4f6e6c79207768656e20636f6e747261637420697320616374697665000000005f82015250565b5f61444c601c83613b72565b915061445782614418565b602082019050919050565b5f6020820190508181035f83015261447981614440565b9050919050565b7f4e487b71000000000000000000000000000000000000000000000000000000005f52602260045260245ffd5b5f60028204905060018216806144c457607f821691505b6020821081036144d7576144d6614480565b5b50919050565b7f467269656e6420646f6573206e6f7420657869737400000000000000000000005f82015250565b5f614511601583613b72565b915061451c826144dd565b602082019050919050565b5f6020820190508181035f83015261453e81614505565b9050919050565b7f52657374617572616e7420766f74656420646f6573206e6f74206578697374005f82015250565b5f614579601f83613b72565b915061458482614545565b602082019050919050565b5f6020820190508181035f8301526145a68161456d565b9050919050565b7f467269656e642068617320766f74656420616c726561647900000000000000005f82015250565b5f6145e1601883613b72565b91506145ec826145ad565b602082019050919050565b5f6020820190508181035f83015261460e816145d5565b9050919050565b7f4e487b71000000000000000000000000000000000000000000000000000000005f52601160045260245ffd5b5f61464c82613a52565b91507fffffffffffffffffffffffffffffffffffffffffffffffffffffffffffffffff820361467e5761467d614615565b5b600182019050919050565b7f4e487b71000000000000000000000000000000000000000000000000000000005f52601260045260245ffd5b5f6146c082613a52565b91506146cb83613a52565b9250826146db576146da614689565b5b828204905092915050565b5f6146f082613a52565b91506146fb83613a52565b925082820190508082111561471357614712614615565b5b92915050565b5f60608201905061472c5f830185614194565b6147396020830184614194565b818103604083015261474a8161432e565b90509392505050565b5f61475f602383613b72565b915061476a82614021565b604082019050919050565b5f6020820190508181035f83015261478c81614753565b9050919050565b7f43616e2061646420667269656e6473206f722072657374617572616e7473206f5f8201527f6e6c79207768656e20766f74696e672069732064697361626c65640000000000602082015250565b5f6147ed603b83613b72565b91506147f882614793565b604082019050919050565b5f6020820190508181035f83015261481a816147e1565b9050919050565b7f54696d656f7574207265616368656400000000000000000000000000000000005f82015250565b5f614855600f83613b72565b915061486082614821565b602082019050919050565b5f6020820190508181035f83015261488281614849565b9050919050565b7f467269656e6420616c72656164792065786973747300000000000000000000005f82015250565b5f6148bd601583613b72565b91506148c882614889565b602082019050919050565b5f6020820190508181035f8301526148ea816148b1565b9050919050565b5f819050815f5260205f209050919050565b5f6020601f8301049050919050565b5f82821b905092915050565b5f6008830261494d7fffffffffffffffffffffffffffffffffffffffffffffffffffffffffffffffff82614912565b6149578683614912565b95508019841693508086168417925050509392505050565b5f61498961498461497f84613a52565b6142cd565b613a52565b9050919050565b5f819050919050565b6149a28361496f565b6149b66149ae82614990565b84845461491e565b825550505050565b5f90565b6149ca6149be565b6149d5818484614999565b505050565b5b818110156149f8576149ed5f826149c2565b6001810190506149db565b5050565b601f821115614a3d57614a0e816148f1565b614a1784614903565b81016020851015614a26578190505b614a3a614a3285614903565b8301826149da565b50505b505050565b5f82821c905092915050565b5f614a5d5f1984600802614a42565b1980831691505092915050565b5f614a758383614a4e565b9150826002028217905092915050565b614a8e82613b68565b67ffffffffffffffff811115614aa757614aa6613c0e565b5b614ab182546144ad565b614abc8282856149fc565b5f60209050601f831160018114614aed575f8415614adb578287015190505b614ae58582614a6a565b865550614b4c565b601f198416614afb866148f1565b5f5b82811015614b2257848901518255600182019150602085019450602081019050614afd565b86831015614b3f5784890151614b3b601f891682614a4e565b8355505b6001600288020188555050505b505050505050565b7f53686f756c6420626520657175616c20746f20747275650000000000000000005f82015250565b5f614b88601783613fd9565b9150614b9382614b54565b602082019050919050565b5f606082019050614bb15f830185614194565b614bbe6020830184614194565b8181036040830152614bcf81614b7c565b90509392505050565b5f819050919050565b5f614bfb614bf6614bf184614bd8565b6142cd565b613a52565b9050919050565b614c0b81614be1565b82525050565b5f602082019050614c245f830184614c02565b92915050565b7f52657374617572616e7420616c726561647920657869737473000000000000005f82015250565b5f614c5e601983613b72565b9150614c6982614c2a565b602082019050919050565b5f6020820190508181035f830152614c8b81614c52565b9050919050565b7f566f74696e6720726573756c742073686f756c642062652074727565000000005f82015250565b5f614cc6601c83613fd9565b9150614cd182614c92565b602082019050919050565b5f604082019050614cef5f830184614194565b8181036020830152614d0081614cba565b905092915050565b614d1181613b02565b82525050565b7f4d616e616765722073686f756c642062652061636330000000000000000000005f82015250565b5f614d4b601683613fd9565b9150614d5682614d17565b602082019050919050565b5f606082019050614d745f830185614d08565b614d816020830184614d08565b8181036040830152614d9281614d3f565b90509392505050565b5f819050919050565b5f614dbe614db9614db484614d9b565b6142cd565b613a52565b9050919050565b614dce81614da4565b82525050565b5f602082019050614de75f830184614dc5565b92915050565b5f81519050614dfb81613b13565b92915050565b5f60208284031215614e1657614e15613a4a565b5b5f614e2384828501614ded565b91505092915050565b5f819050919050565b5f614e4f614e4a614e4584614e2c565b6142cd565b613a52565b9050919050565b614e5f81614e35565b82525050565b5f602082019050614e785f830184614e56565b92915050565b5f819050919050565b5f614ea1614e9c614e9784614e7e565b6142cd565b613a52565b9050919050565b614eb181614e87565b82525050565b5f602082019050614eca5f830184614ea8565b92915050565b5f819050919050565b5f614ef3614eee614ee984614ed0565b6142cd565b613a52565b9050919050565b614f0381614ed9565b82525050565b5f602082019050614f1c5f830184614efa565b92915050565b5f819050919050565b5f614f45614f40614f3b84614f22565b6142cd565b613a52565b9050919050565b614f5581614f2b565b82525050565b5f602082019050614f6e5f830184614f4c565b92915050565b7f54696d656f757420626c6f636b206e756d6265722073686f756c6420626520735f8201527f6574000000000000000000000000000000000000000000000000000000000000602082015250565b5f614fce602283613fd9565b9150614fd982614f74565b604082019050919050565b5f606082019050614ff75f8301856142b5565b61500460208301846142b5565b818103604083015261501581614fc2565b90509392505050565b7f566f74696e672073686f756c6420696e697469616c6c7920626520636c6f73655f8201527f6400000000000000000000000000000000000000000000000000000000000000602082015250565b5f615078602183613fd9565b91506150838261501e565b604082019050919050565b5f6060820190506150a15f830185614194565b6150ae6020830184614194565b81810360408301526150bf8161506c565b90509392505050565b7f566f74696e672073686f756c64206265206f70656e00000000000000000000005f82015250565b5f6150fc601583613fd9565b9150615107826150c8565b602082019050919050565b5f6060820190506151255f830185614194565b6151326020830184614194565b8181036040830152615143816150f0565b90509392505050565b7f41746f6d696320436166650000000000000000000000000000000000000000005f82015250565b5f615180600b83613b72565b915061518b8261514c565b602082019050919050565b5f6020820190508181035f8301526151ad81615174565b9050919050565b5f6060820190506151c75f8301856142b5565b6151d46020830184614efa565b81810360408301526151e58161432e565b90509392505050565b7f53686f756c6420626520657175616c20746f20310000000000000000000000005f82015250565b5f615222601483613fd9565b915061522d826151ee565b602082019050919050565b5f60608201905061524b5f8301856142b5565b6152586020830184614e56565b818103604083015261526981615216565b90509392505050565b7f53686f756c6420626520657175616c20746f20320000000000000000000000005f82015250565b5f6152a6601483613fd9565b91506152b182615272565b602082019050919050565b5f6060820190506152cf5f8301856142b5565b6152dc6020830184614ea8565b81810360408301526152ed8161529a565b90509392505050565b7f566f74696e672073686f756c6420626520636c6f7365640000000000000000005f82015250565b5f61532a601783613fd9565b9150615335826152f6565b602082019050919050565b5f6060820190506153535f830185614194565b6153606020830184614194565b81810360408301526153718161531e565b90509392505050565b7f53686f756c6420626520657175616c20746f20330000000000000000000000005f82015250565b5f6153ae601483613fd9565b91506153b98261537a565b602082019050919050565b5f6060820190506153d75f8301856142b5565b6153e46020830184614efa565b81810360408301526153f5816153a2565b90509392505050565b7f53686f756c6420626520657175616c20746f20340000000000000000000000005f82015250565b5f615432601483613fd9565b915061543d826153fe565b602082019050919050565b5f60608201905061545b5f8301856142b5565b6154686020830184614f4c565b818103604083015261547981615426565b90509392505050565b5f815461548e816144ad565b6154988186613fd9565b9450600182165f81146154b257600181146154c8576154fa565b60ff1983168652811515602002860193506154fa565b6154d1856148f1565b5f5b838110156154f2578154818901526001820191506020810190506154d3565b808801955050505b50505092915050565b7f556e6920436166650000000000000000000000000000000000000000000000005f82015250565b5f615537600883613fd9565b915061554282615503565b602082019050919050565b7f53656c65637465642072657374617572616e742073686f756c6420626520556e5f8201527f6920436166650000000000000000000000000000000000000000000000000000602082015250565b5f6155a7602683613fd9565b91506155b28261554d565b604082019050919050565b5f6060820190508181035f8301526155d58184615482565b905081810360208301526155e88161552b565b905081810360408301526155fb8161559b565b905092915050565b61560c81614e35565b82525050565b5f6020820190506156255f830184615603565b92915050565b5f615637601583613fd9565b9150615642826144dd565b602082019050919050565b5f6060820190508181035f8301526156658184613fe9565b905081810360208301526156788161562b565b9050818103604083015261568b816140b9565b905092915050565b7f4661696c656420756e65787065637465646c79000000000000000000000000005f82015250565b5f6156c7601383613fd9565b91506156d282615693565b602082019050919050565b5f6040820190506156f05f830184614194565b8181036020830152615701816156bb565b905092915050565b7f43616e20766f7465206f6e6c79207768656e20746865726520617265206174205f8201527f6c6561737420322072657374617572616e747300000000000000000000000000602082015250565b5f615763603383613b72565b915061576e82615709565b604082019050919050565b5f6020820190508181035f83015261579081615757565b9050919050565b7f43616e20766f7465206f6e6c79207768656e20746865726520617265206174205f8201527f6c65617374203220667269656e64730000000000000000000000000000000000602082015250565b5f6157f1602f83613b72565b91506157fc82615797565b604082019050919050565b5f6020820190508181035f83015261581e816157e5565b9050919050565b7f54696d656f7574207265616368656420616e6420766f74696e6720697320636c5f8201527f6f73656400000000000000000000000000000000000000000000000000000000602082015250565b5f61587f602483613b72565b915061588a82615825565b604082019050919050565b5f6020820190508181035f8301526158ac81615873565b9050919050565b5f6158bf602283613fd9565b91506158ca8261438a565b604082019050919050565b5f6060820190508181035f8301526158ed8184613fe9565b90508181036020830152615900816158b3565b90508181036040830152615913816140b9565b905092915050565b5f60608201905061592e5f830185614194565b61593b6020830184614194565b818103604083015261594c81615216565b90509392505050565b7f4e487b71000000000000000000000000000000000000000000000000000000005f52603260045260245ffd5b5f81549050615990816144ad565b9050919050565b5f819050815f5260205f209050919050565b8181036159b7575050615a8c565b6159c082615982565b67ffffffffffffffff8111156159d9576159d8613c0e565b5b6159e382546144ad565b6159ee8282856149fc565b5f601f831160018114615a1b575f8415615a09578287015490505b615a138582614a6a565b865550615a85565b601f198416615a2987615997565b9650615a34866148f1565b5f5b82811015615a5b57848901548255600182019150600185019450602081019050615a36565b86831015615a785784890154615a74601f891682614a4e565b8355505b6001600288020188555050505b5050505050505b56fea2646970667358221220b4186890ab3502e4534bec98bb1980e01400ca056ac74a135e0ded9ef9c5a34764736f6c634300081a0033",
			"opcodes": "PUSH1 0x80 PUSH1 0x40 MSTORE PUSH0 PUSH1 0x2 SSTORE PUSH0 PUSH1 0x3 SSTORE PUSH0 PUSH1 0x4 SSTORE PUSH1 0x40 MLOAD DUP1 PUSH1 0x20 ADD PUSH1 0x40 MSTORE DUP1 PUSH0 DUP2 MSTORE POP PUSH1 0x6 SWAP1 DUP2 PUSH2 0x2D SWAP2 SWAP1 PUSH2 0x30D JUMP JUMPDEST POP PUSH0 PUSH1 0x9 PUSH0 PUSH2 0x100 EXP DUP2 SLOAD DUP2 PUSH1 0xFF MUL NOT AND SWAP1 DUP4 ISZERO ISZERO MUL OR SWAP1 SSTORE POP PUSH1 0x1 PUSH1 0xC PUSH0 PUSH2 0x100 EXP DUP2 SLOAD DUP2 PUSH1 0xFF MUL NOT AND SWAP1 DUP4 ISZERO ISZERO MUL OR SWAP1 SSTORE POP CALLVALUE DUP1 ISZERO PUSH2 0x6C JUMPI PUSH0 DUP1 REVERT JUMPDEST POP PUSH1 0x64 CALLER PUSH1 0x5 PUSH0 PUSH2 0x100 EXP DUP2 SLOAD DUP2 PUSH20 0xFFFFFFFFFFFFFFFFFFFFFFFFFFFFFFFFFFFFFFFF MUL NOT AND SWAP1 DUP4 PUSH20 0xFFFFFFFFFFFFFFFFFFFFFFFFFFFFFFFFFFFFFFFF AND MUL OR SWAP1 SSTORE POP PUSH0 DUP2 SUB PUSH2 0xBB JUMPI PUSH1 0x64 SWAP1 POP JUMPDEST DUP1 NUMBER PUSH2 0xC7 SWAP2 SWAP1 PUSH2 0x409 JUMP JUMPDEST PUSH1 0xB DUP2 SWAP1 SSTORE POP POP PUSH2 0x43C JUMP JUMPDEST PUSH0 DUP2 MLOAD SWAP1 POP SWAP2 SWAP1 POP JUMP JUMPDEST PUSH32 0x4E487B7100000000000000000000000000000000000000000000000000000000 PUSH0 MSTORE PUSH1 0x41 PUSH1 0x4 MSTORE PUSH1 0x24 PUSH0 REVERT JUMPDEST PUSH32 0x4E487B7100000000000000000000000000000000000000000000000000000000 PUSH0 MSTORE PUSH1 0x22 PUSH1 0x4 MSTORE PUSH1 0x24 PUSH0 REVERT JUMPDEST PUSH0 PUSH1 0x2 DUP3 DIV SWAP1 POP PUSH1 0x1 DUP3 AND DUP1 PUSH2 0x14E JUMPI PUSH1 0x7F DUP3 AND SWAP2 POP JUMPDEST PUSH1 0x20 DUP3 LT DUP2 SUB PUSH2 0x161 JUMPI PUSH2 0x160 PUSH2 0x10A JUMP JUMPDEST JUMPDEST POP SWAP2 SWAP1 POP JUMP JUMPDEST PUSH0 DUP2 SWAP1 POP DUP2 PUSH0 MSTORE PUSH1 0x20 PUSH0 KECCAK256 SWAP1 POP SWAP2 SWAP1 POP JUMP JUMPDEST PUSH0 PUSH1 0x20 PUSH1 0x1F DUP4 ADD DIV SWAP1 POP SWAP2 SWAP1 POP JUMP JUMPDEST PUSH0 DUP3 DUP3 SHL SWAP1 POP SWAP3 SWAP2 POP POP JUMP JUMPDEST PUSH0 PUSH1 0x8 DUP4 MUL PUSH2 0x1C3 PUSH32 0xFFFFFFFFFFFFFFFFFFFFFFFFFFFFFFFFFFFFFFFFFFFFFFFFFFFFFFFFFFFFFFFF DUP3 PUSH2 0x188 JUMP JUMPDEST PUSH2 0x1CD DUP7 DUP4 PUSH2 0x188 JUMP JUMPDEST SWAP6 POP DUP1 NOT DUP5 AND SWAP4 POP DUP1 DUP7 AND DUP5 OR SWAP3 POP POP POP SWAP4 SWAP3 POP POP POP JUMP JUMPDEST PUSH0 DUP2 SWAP1 POP SWAP2 SWAP1 POP JUMP JUMPDEST PUSH0 DUP2 SWAP1 POP SWAP2 SWAP1 POP JUMP JUMPDEST PUSH0 PUSH2 0x211 PUSH2 0x20C PUSH2 0x207 DUP5 PUSH2 0x1E5 JUMP JUMPDEST PUSH2 0x1EE JUMP JUMPDEST PUSH2 0x1E5 JUMP JUMPDEST SWAP1 POP SWAP2 SWAP1 POP JUMP JUMPDEST PUSH0 DUP2 SWAP1 POP SWAP2 SWAP1 POP JUMP JUMPDEST PUSH2 0x22A DUP4 PUSH2 0x1F7 JUMP JUMPDEST PUSH2 0x23E PUSH2 0x236 DUP3 PUSH2 0x218 JUMP JUMPDEST DUP5 DUP5 SLOAD PUSH2 0x194 JUMP JUMPDEST DUP3 SSTORE POP POP POP POP JUMP JUMPDEST PUSH0 SWAP1 JUMP JUMPDEST PUSH2 0x252 PUSH2 0x246 JUMP JUMPDEST PUSH2 0x25D DUP2 DUP5 DUP5 PUSH2 0x221 JUMP JUMPDEST POP POP POP JUMP JUMPDEST JUMPDEST DUP2 DUP2 LT ISZERO PUSH2 0x280 JUMPI PUSH2 0x275 PUSH0 DUP3 PUSH2 0x24A JUMP JUMPDEST PUSH1 0x1 DUP2 ADD SWAP1 POP PUSH2 0x263 JUMP JUMPDEST POP POP JUMP JUMPDEST PUSH1 0x1F DUP3 GT ISZERO PUSH2 0x2C5 JUMPI PUSH2 0x296 DUP2 PUSH2 0x167 JUMP JUMPDEST PUSH2 0x29F DUP5 PUSH2 0x179 JUMP JUMPDEST DUP2 ADD PUSH1 0x20 DUP6 LT ISZERO PUSH2 0x2AE JUMPI DUP2 SWAP1 POP JUMPDEST PUSH2 0x2C2 PUSH2 0x2BA DUP6 PUSH2 0x179 JUMP JUMPDEST DUP4 ADD DUP3 PUSH2 0x262 JUMP JUMPDEST POP POP JUMPDEST POP POP POP JUMP JUMPDEST PUSH0 DUP3 DUP3 SHR SWAP1 POP SWAP3 SWAP2 POP POP JUMP JUMPDEST PUSH0 PUSH2 0x2E5 PUSH0 NOT DUP5 PUSH1 0x8 MUL PUSH2 0x2CA JUMP JUMPDEST NOT DUP1 DUP4 AND SWAP2 POP POP SWAP3 SWAP2 POP POP JUMP JUMPDEST PUSH0 PUSH2 0x2FD DUP4 DUP4 PUSH2 0x2D6 JUMP JUMPDEST SWAP2 POP DUP3 PUSH1 0x2 MUL DUP3 OR SWAP1 POP SWAP3 SWAP2 POP POP JUMP JUMPDEST PUSH2 0x316 DUP3 PUSH2 0xD3 JUMP JUMPDEST PUSH8 0xFFFFFFFFFFFFFFFF DUP2 GT ISZERO PUSH2 0x32F JUMPI PUSH2 0x32E PUSH2 0xDD JUMP JUMPDEST JUMPDEST PUSH2 0x339 DUP3 SLOAD PUSH2 0x137 JUMP JUMPDEST PUSH2 0x344 DUP3 DUP3 DUP6 PUSH2 0x284 JUMP JUMPDEST PUSH0 PUSH1 0x20 SWAP1 POP PUSH1 0x1F DUP4 GT PUSH1 0x1 DUP2 EQ PUSH2 0x375 JUMPI PUSH0 DUP5 ISZERO PUSH2 0x363 JUMPI DUP3 DUP8 ADD MLOAD SWAP1 POP JUMPDEST PUSH2 0x36D DUP6 DUP3 PUSH2 0x2F2 JUMP JUMPDEST DUP7 SSTORE POP PUSH2 0x3D4 JUMP JUMPDEST PUSH1 0x1F NOT DUP5 AND PUSH2 0x383 DUP7 PUSH2 0x167 JUMP JUMPDEST PUSH0 JUMPDEST DUP3 DUP2 LT ISZERO PUSH2 0x3AA JUMPI DUP5 DUP10 ADD MLOAD DUP3 SSTORE PUSH1 0x1 DUP3 ADD SWAP2 POP PUSH1 0x20 DUP6 ADD SWAP5 POP PUSH1 0x20 DUP2 ADD SWAP1 POP PUSH2 0x385 JUMP JUMPDEST DUP7 DUP4 LT ISZERO PUSH2 0x3C7 JUMPI DUP5 DUP10 ADD MLOAD PUSH2 0x3C3 PUSH1 0x1F DUP10 AND DUP3 PUSH2 0x2D6 JUMP JUMPDEST DUP4 SSTORE POP JUMPDEST PUSH1 0x1 PUSH1 0x2 DUP9 MUL ADD DUP9 SSTORE POP POP POP JUMPDEST POP POP POP POP POP POP JUMP JUMPDEST PUSH32 0x4E487B7100000000000000000000000000000000000000000000000000000000 PUSH0 MSTORE PUSH1 0x11 PUSH1 0x4 MSTORE PUSH1 0x24 PUSH0 REVERT JUMPDEST PUSH0 PUSH2 0x413 DUP3 PUSH2 0x1E5 JUMP JUMPDEST SWAP2 POP PUSH2 0x41E DUP4 PUSH2 0x1E5 JUMP JUMPDEST SWAP3 POP DUP3 DUP3 ADD SWAP1 POP DUP1 DUP3 GT ISZERO PUSH2 0x436 JUMPI PUSH2 0x435 PUSH2 0x3DC JUMP JUMPDEST JUMPDEST SWAP3 SWAP2 POP POP JUMP JUMPDEST PUSH2 0x5AC4 DUP1 PUSH2 0x449 PUSH0 CODECOPY PUSH0 RETURN INVALID PUSH1 0x80 PUSH1 0x40 MSTORE CALLVALUE DUP1 ISZERO PUSH2 0xF JUMPI PUSH0 DUP1 REVERT JUMPDEST POP PUSH1 0x4 CALLDATASIZE LT PUSH2 0x246 JUMPI PUSH0 CALLDATALOAD PUSH1 0xE0 SHR DUP1 PUSH4 0x85629B66 GT PUSH2 0x139 JUMPI DUP1 PUSH4 0xB2897E2E GT PUSH2 0xB6 JUMPI DUP1 PUSH4 0xCA1A555C GT PUSH2 0x7A JUMPI DUP1 PUSH4 0xCA1A555C EQ PUSH2 0x57C JUMPI DUP1 PUSH4 0xD5009584 EQ PUSH2 0x586 JUMPI DUP1 PUSH4 0xEB4439FB EQ PUSH2 0x5A4 JUMPI DUP1 PUSH4 0xF6D416BC EQ PUSH2 0x5AE JUMPI DUP1 PUSH4 0xFC8D013B EQ PUSH2 0x5B8 JUMPI PUSH2 0x246 JUMP JUMPDEST DUP1 PUSH4 0xB2897E2E EQ PUSH2 0x522 JUMPI DUP1 PUSH4 0xB798867F EQ PUSH2 0x52C JUMPI DUP1 PUSH4 0xB8341DFD EQ PUSH2 0x54A JUMPI DUP1 PUSH4 0xBABEB68B EQ PUSH2 0x554 JUMPI DUP1 PUSH4 0xC1C16EFC EQ PUSH2 0x55E JUMPI PUSH2 0x246 JUMP JUMPDEST DUP1 PUSH4 0x96400BFF GT PUSH2 0xFD JUMPI DUP1 PUSH4 0x96400BFF EQ PUSH2 0x4A2 JUMPI DUP1 PUSH4 0xA36146D3 EQ PUSH2 0x4AC JUMPI DUP1 PUSH4 0xA3BEF4D7 EQ PUSH2 0x4CA JUMPI DUP1 PUSH4 0xA73FB659 EQ PUSH2 0x4E8 JUMPI DUP1 PUSH4 0xAD5461D8 EQ PUSH2 0x4F2 JUMPI PUSH2 0x246 JUMP JUMPDEST DUP1 PUSH4 0x85629B66 EQ PUSH2 0x470 JUMPI DUP1 PUSH4 0x894BA833 EQ PUSH2 0x47A JUMPI DUP1 PUSH4 0x91420699 EQ PUSH2 0x484 JUMPI DUP1 PUSH4 0x94746C81 EQ PUSH2 0x48E JUMPI DUP1 PUSH4 0x954FFE97 EQ PUSH2 0x498 JUMPI PUSH2 0x246 JUMP JUMPDEST DUP1 PUSH4 0x5DF81330 GT PUSH2 0x1C7 JUMPI DUP1 PUSH4 0x6E17462F GT PUSH2 0x18B JUMPI DUP1 PUSH4 0x6E17462F EQ PUSH2 0x42A JUMPI DUP1 PUSH4 0x76DA7648 EQ PUSH2 0x434 JUMPI DUP1 PUSH4 0x788D3851 EQ PUSH2 0x43E JUMPI DUP1 PUSH4 0x7FEA0D4B EQ PUSH2 0x45C JUMPI DUP1 PUSH4 0x84845589 EQ PUSH2 0x466 JUMPI PUSH2 0x246 JUMP JUMPDEST DUP1 PUSH4 0x5DF81330 EQ PUSH2 0x371 JUMPI DUP1 PUSH4 0x65985A95 EQ PUSH2 0x3A2 JUMPI DUP1 PUSH4 0x66063DF4 EQ PUSH2 0x3AC JUMPI DUP1 PUSH4 0x67E404CE EQ PUSH2 0x3DC JUMPI DUP1 PUSH4 0x6D77BD3E EQ PUSH2 0x3FA JUMPI PUSH2 0x246 JUMP JUMPDEST DUP1 PUSH4 0x3B9F708D GT PUSH2 0x20E JUMPI DUP1 PUSH4 0x3B9F708D EQ PUSH2 0x2DD JUMPI DUP1 PUSH4 0x47098F36 EQ PUSH2 0x30D JUMPI DUP1 PUSH4 0x481C6A75 EQ PUSH2 0x32B JUMPI DUP1 PUSH4 0x4A6A149B EQ PUSH2 0x349 JUMPI DUP1 PUSH4 0x5952CCB8 EQ PUSH2 0x353 JUMPI PUSH2 0x246 JUMP JUMPDEST DUP1 PUSH4 0x103439CD EQ PUSH2 0x24A JUMPI DUP1 PUSH4 0x124258C6 EQ PUSH2 0x254 JUMPI DUP1 PUSH4 0x1692CC92 EQ PUSH2 0x284 JUMPI DUP1 PUSH4 0x1DDABF7A EQ PUSH2 0x28E JUMPI DUP1 PUSH4 0x22F3E2D4 EQ PUSH2 0x2BF JUMPI JUMPDEST PUSH0 DUP1 REVERT JUMPDEST PUSH2 0x252 PUSH2 0x5C2 JUMP JUMPDEST STOP JUMPDEST PUSH2 0x26E PUSH1 0x4 DUP1 CALLDATASIZE SUB DUP2 ADD SWAP1 PUSH2 0x269 SWAP2 SWAP1 PUSH2 0x3A85 JUMP JUMPDEST PUSH2 0x8C5 JUMP JUMPDEST PUSH1 0x40 MLOAD PUSH2 0x27B SWAP2 SWAP1 PUSH2 0x3ACA JUMP JUMPDEST PUSH1 0x40 MLOAD DUP1 SWAP2 SUB SWAP1 RETURN JUMPDEST PUSH2 0x28C PUSH2 0xC63 JUMP JUMPDEST STOP JUMPDEST PUSH2 0x2A8 PUSH1 0x4 DUP1 CALLDATASIZE SUB DUP2 ADD SWAP1 PUSH2 0x2A3 SWAP2 SWAP1 PUSH2 0x3B3D JUMP JUMPDEST PUSH2 0xF33 JUMP JUMPDEST PUSH1 0x40 MLOAD PUSH2 0x2B6 SWAP3 SWAP2 SWAP1 PUSH2 0x3BD8 JUMP JUMPDEST PUSH1 0x40 MLOAD DUP1 SWAP2 SUB SWAP1 RETURN JUMPDEST PUSH2 0x2C7 PUSH2 0xFE5 JUMP JUMPDEST PUSH1 0x40 MLOAD PUSH2 0x2D4 SWAP2 SWAP1 PUSH2 0x3ACA JUMP JUMPDEST PUSH1 0x40 MLOAD DUP1 SWAP2 SUB SWAP1 RETURN JUMPDEST PUSH2 0x2F7 PUSH1 0x4 DUP1 CALLDATASIZE SUB DUP2 ADD SWAP1 PUSH2 0x2F2 SWAP2 SWAP1 PUSH2 0x3D32 JUMP JUMPDEST PUSH2 0xFF7 JUMP JUMPDEST PUSH1 0x40 MLOAD PUSH2 0x304 SWAP2 SWAP1 PUSH2 0x3D9B JUMP JUMPDEST PUSH1 0x40 MLOAD DUP1 SWAP2 SUB SWAP1 RETURN JUMPDEST PUSH2 0x315 PUSH2 0x12B8 JUMP JUMPDEST PUSH1 0x40 MLOAD PUSH2 0x322 SWAP2 SWAP1 PUSH2 0x3D9B JUMP JUMPDEST PUSH1 0x40 MLOAD DUP1 SWAP2 SUB SWAP1 RETURN JUMPDEST PUSH2 0x333 PUSH2 0x12BE JUMP JUMPDEST PUSH1 0x40 MLOAD PUSH2 0x340 SWAP2 SWAP1 PUSH2 0x3DC3 JUMP JUMPDEST PUSH1 0x40 MLOAD DUP1 SWAP2 SUB SWAP1 RETURN JUMPDEST PUSH2 0x351 PUSH2 0x12E3 JUMP JUMPDEST STOP JUMPDEST PUSH2 0x35B PUSH2 0x1368 JUMP JUMPDEST PUSH1 0x40 MLOAD PUSH2 0x368 SWAP2 SWAP1 PUSH2 0x3D9B JUMP JUMPDEST PUSH1 0x40 MLOAD DUP1 SWAP2 SUB SWAP1 RETURN JUMPDEST PUSH2 0x38B PUSH1 0x4 DUP1 CALLDATASIZE SUB DUP2 ADD SWAP1 PUSH2 0x386 SWAP2 SWAP1 PUSH2 0x3A85 JUMP JUMPDEST PUSH2 0x136E JUMP JUMPDEST PUSH1 0x40 MLOAD PUSH2 0x399 SWAP3 SWAP2 SWAP1 PUSH2 0x3DDC JUMP JUMPDEST PUSH1 0x40 MLOAD DUP1 SWAP2 SUB SWAP1 RETURN JUMPDEST PUSH2 0x3AA PUSH2 0x13BC JUMP JUMPDEST STOP JUMPDEST PUSH2 0x3C6 PUSH1 0x4 DUP1 CALLDATASIZE SUB DUP2 ADD SWAP1 PUSH2 0x3C1 SWAP2 SWAP1 PUSH2 0x3A85 JUMP JUMPDEST PUSH2 0x169F JUMP JUMPDEST PUSH1 0x40 MLOAD PUSH2 0x3D3 SWAP2 SWAP1 PUSH2 0x3ACA JUMP JUMPDEST PUSH1 0x40 MLOAD DUP1 SWAP2 SUB SWAP1 RETURN JUMPDEST PUSH2 0x3E4 PUSH2 0x17C5 JUMP JUMPDEST PUSH1 0x40 MLOAD PUSH2 0x3F1 SWAP2 SWAP1 PUSH2 0x3DC3 JUMP JUMPDEST PUSH1 0x40 MLOAD DUP1 SWAP2 SUB SWAP1 RETURN JUMPDEST PUSH2 0x414 PUSH1 0x4 DUP1 CALLDATASIZE SUB DUP2 ADD SWAP1 PUSH2 0x40F SWAP2 SWAP1 PUSH2 0x3E03 JUMP JUMPDEST PUSH2 0x17EB JUMP JUMPDEST PUSH1 0x40 MLOAD PUSH2 0x421 SWAP2 SWAP1 PUSH2 0x3D9B JUMP JUMPDEST PUSH1 0x40 MLOAD DUP1 SWAP2 SUB SWAP1 RETURN JUMPDEST PUSH2 0x432 PUSH2 0x1A3C JUMP JUMPDEST STOP JUMPDEST PUSH2 0x43C PUSH2 0x1ABE JUMP JUMPDEST STOP JUMPDEST PUSH2 0x446 PUSH2 0x1B7B JUMP JUMPDEST PUSH1 0x40 MLOAD PUSH2 0x453 SWAP2 SWAP1 PUSH2 0x3ACA JUMP JUMPDEST PUSH1 0x40 MLOAD DUP1 SWAP2 SUB SWAP1 RETURN JUMPDEST PUSH2 0x464 PUSH2 0x1B8D JUMP JUMPDEST STOP JUMPDEST PUSH2 0x46E PUSH2 0x1F1C JUMP JUMPDEST STOP JUMPDEST PUSH2 0x478 PUSH2 0x1F9E JUMP JUMPDEST STOP JUMPDEST PUSH2 0x482 PUSH2 0x201B JUMP JUMPDEST STOP JUMPDEST PUSH2 0x48C PUSH2 0x211A JUMP JUMPDEST STOP JUMPDEST PUSH2 0x496 PUSH2 0x2233 JUMP JUMPDEST STOP JUMPDEST PUSH2 0x4A0 PUSH2 0x2513 JUMP JUMPDEST STOP JUMPDEST PUSH2 0x4AA PUSH2 0x2683 JUMP JUMPDEST STOP JUMPDEST PUSH2 0x4B4 PUSH2 0x270C JUMP JUMPDEST PUSH1 0x40 MLOAD PUSH2 0x4C1 SWAP2 SWAP1 PUSH2 0x3ACA JUMP JUMPDEST PUSH1 0x40 MLOAD DUP1 SWAP2 SUB SWAP1 RETURN JUMPDEST PUSH2 0x4D2 PUSH2 0x2721 JUMP JUMPDEST PUSH1 0x40 MLOAD PUSH2 0x4DF SWAP2 SWAP1 PUSH2 0x3D9B JUMP JUMPDEST PUSH1 0x40 MLOAD DUP1 SWAP2 SUB SWAP1 RETURN JUMPDEST PUSH2 0x4F0 PUSH2 0x2727 JUMP JUMPDEST STOP JUMPDEST PUSH2 0x50C PUSH1 0x4 DUP1 CALLDATASIZE SUB DUP2 ADD SWAP1 PUSH2 0x507 SWAP2 SWAP1 PUSH2 0x3A85 JUMP JUMPDEST PUSH2 0x2A8D JUMP JUMPDEST PUSH1 0x40 MLOAD PUSH2 0x519 SWAP2 SWAP1 PUSH2 0x3E4A JUMP JUMPDEST PUSH1 0x40 MLOAD DUP1 SWAP2 SUB SWAP1 RETURN JUMPDEST PUSH2 0x52A PUSH2 0x2B27 JUMP JUMPDEST STOP JUMPDEST PUSH2 0x534 PUSH2 0x2BA1 JUMP JUMPDEST PUSH1 0x40 MLOAD PUSH2 0x541 SWAP2 SWAP1 PUSH2 0x3D9B JUMP JUMPDEST PUSH1 0x40 MLOAD DUP1 SWAP2 SUB SWAP1 RETURN JUMPDEST PUSH2 0x552 PUSH2 0x2BA7 JUMP JUMPDEST STOP JUMPDEST PUSH2 0x55C PUSH2 0x2E8A JUMP JUMPDEST STOP JUMPDEST PUSH2 0x566 PUSH2 0x2F0C JUMP JUMPDEST PUSH1 0x40 MLOAD PUSH2 0x573 SWAP2 SWAP1 PUSH2 0x3E4A JUMP JUMPDEST PUSH1 0x40 MLOAD DUP1 SWAP2 SUB SWAP1 RETURN JUMPDEST PUSH2 0x584 PUSH2 0x2F98 JUMP JUMPDEST STOP JUMPDEST PUSH2 0x58E PUSH2 0x3268 JUMP JUMPDEST PUSH1 0x40 MLOAD PUSH2 0x59B SWAP2 SWAP1 PUSH2 0x3DC3 JUMP JUMPDEST PUSH1 0x40 MLOAD DUP1 SWAP2 SUB SWAP1 RETURN JUMPDEST PUSH2 0x5AC PUSH2 0x3290 JUMP JUMPDEST STOP JUMPDEST PUSH2 0x5B6 PUSH2 0x345F JUMP JUMPDEST STOP JUMPDEST PUSH2 0x5C0 PUSH2 0x3742 JUMP JUMPDEST STOP JUMPDEST ADDRESS PUSH20 0xFFFFFFFFFFFFFFFFFFFFFFFFFFFFFFFFFFFFFFFF AND PUSH4 0x3B9F708D PUSH1 0x11 PUSH0 SWAP1 SLOAD SWAP1 PUSH2 0x100 EXP SWAP1 DIV PUSH20 0xFFFFFFFFFFFFFFFFFFFFFFFFFFFFFFFFFFFFFFFF AND PUSH1 0x40 MLOAD DUP3 PUSH4 0xFFFFFFFF AND PUSH1 0xE0 SHL DUP2 MSTORE PUSH1 0x4 ADD PUSH2 0x61C SWAP2 SWAP1 PUSH2 0x3EB4 JUMP JUMPDEST PUSH1 0x20 PUSH1 0x40 MLOAD DUP1 DUP4 SUB DUP2 PUSH0 DUP8 GAS CALL SWAP3 POP POP POP DUP1 ISZERO PUSH2 0x657 JUMPI POP PUSH1 0x40 MLOAD RETURNDATASIZE PUSH1 0x1F NOT PUSH1 0x1F DUP3 ADD AND DUP3 ADD DUP1 PUSH1 0x40 MSTORE POP DUP2 ADD SWAP1 PUSH2 0x654 SWAP2 SWAP1 PUSH2 0x3EF4 JUMP JUMPDEST PUSH1 0x1 JUMPDEST PUSH2 0x847 JUMPI PUSH2 0x663 PUSH2 0x3F2B JUMP JUMPDEST DUP1 PUSH4 0x8C379A0 SUB PUSH2 0x6FF JUMPI POP PUSH2 0x677 PUSH2 0x3F4A JUMP JUMPDEST DUP1 PUSH2 0x682 JUMPI POP PUSH2 0x799 JUMP JUMPDEST PUSH20 0x0 PUSH4 0xE8C2CB16 DUP3 PUSH1 0x40 MLOAD DUP3 PUSH4 0xFFFFFFFF AND PUSH1 0xE0 SHL DUP2 MSTORE PUSH1 0x4 ADD PUSH2 0x6B9 SWAP2 SWAP1 PUSH2 0x40DB JUMP JUMPDEST PUSH1 0x20 PUSH1 0x40 MLOAD DUP1 DUP4 SUB DUP2 DUP7 GAS DELEGATECALL ISZERO DUP1 ISZERO PUSH2 0x6D4 JUMPI RETURNDATASIZE PUSH0 DUP1 RETURNDATACOPY RETURNDATASIZE PUSH0 REVERT JUMPDEST POP POP POP POP PUSH1 0x40 MLOAD RETURNDATASIZE PUSH1 0x1F NOT PUSH1 0x1F DUP3 ADD AND DUP3 ADD DUP1 PUSH1 0x40 MSTORE POP DUP2 ADD SWAP1 PUSH2 0x6F8 SWAP2 SWAP1 PUSH2 0x414B JUMP JUMPDEST POP POP PUSH2 0x842 JUMP JUMPDEST PUSH4 0x4E487B71 SUB PUSH2 0x799 JUMPI PUSH2 0x711 PUSH2 0x4176 JUMP JUMPDEST SWAP1 PUSH2 0x71C JUMPI POP PUSH2 0x799 JUMP JUMPDEST PUSH20 0x0 PUSH4 0x39DF137F PUSH0 PUSH1 0x40 MLOAD DUP3 PUSH4 0xFFFFFFFF AND PUSH1 0xE0 SHL DUP2 MSTORE PUSH1 0x4 ADD PUSH2 0x753 SWAP2 SWAP1 PUSH2 0x4213 JUMP JUMPDEST PUSH1 0x20 PUSH1 0x40 MLOAD DUP1 DUP4 SUB DUP2 DUP7 GAS DELEGATECALL ISZERO DUP1 ISZERO PUSH2 0x76E JUMPI RETURNDATASIZE PUSH0 DUP1 RETURNDATACOPY RETURNDATASIZE PUSH0 REVERT JUMPDEST POP POP POP POP PUSH1 0x40 MLOAD RETURNDATASIZE PUSH1 0x1F NOT PUSH1 0x1F DUP3 ADD AND DUP3 ADD DUP1 PUSH1 0x40 MSTORE POP DUP2 ADD SWAP1 PUSH2 0x792 SWAP2 SWAP1 PUSH2 0x414B JUMP JUMPDEST POP POP PUSH2 0x842 JUMP JUMPDEST RETURNDATASIZE DUP1 PUSH0 DUP2 EQ PUSH2 0x7C3 JUMPI PUSH1 0x40 MLOAD SWAP2 POP PUSH1 0x1F NOT PUSH1 0x3F RETURNDATASIZE ADD AND DUP3 ADD PUSH1 0x40 MSTORE RETURNDATASIZE DUP3 MSTORE RETURNDATASIZE PUSH0 PUSH1 0x20 DUP5 ADD RETURNDATACOPY PUSH2 0x7C8 JUMP JUMPDEST PUSH1 0x60 SWAP2 POP JUMPDEST POP PUSH20 0x0 PUSH4 0x39DF137F PUSH0 PUSH1 0x40 MLOAD DUP3 PUSH4 0xFFFFFFFF AND PUSH1 0xE0 SHL DUP2 MSTORE PUSH1 0x4 ADD PUSH2 0x800 SWAP2 SWAP1 PUSH2 0x4289 JUMP JUMPDEST PUSH1 0x20 PUSH1 0x40 MLOAD DUP1 DUP4 SUB DUP2 DUP7 GAS DELEGATECALL ISZERO DUP1 ISZERO PUSH2 0x81B JUMPI RETURNDATASIZE PUSH0 DUP1 RETURNDATACOPY RETURNDATASIZE PUSH0 REVERT JUMPDEST POP POP POP POP PUSH1 0x40 MLOAD RETURNDATASIZE PUSH1 0x1F NOT PUSH1 0x1F DUP3 ADD AND DUP3 ADD DUP1 PUSH1 0x40 MSTORE POP DUP2 ADD SWAP1 PUSH2 0x83F SWAP2 SWAP1 PUSH2 0x414B JUMP JUMPDEST POP POP JUMPDEST PUSH2 0x8C3 JUMP JUMPDEST PUSH20 0x0 PUSH4 0x561015E2 DUP3 PUSH1 0x5 PUSH1 0x40 MLOAD DUP4 PUSH4 0xFFFFFFFF AND PUSH1 0xE0 SHL DUP2 MSTORE PUSH1 0x4 ADD PUSH2 0x881 SWAP3 SWAP2 SWAP1 PUSH2 0x4350 JUMP JUMPDEST PUSH1 0x20 PUSH1 0x40 MLOAD DUP1 DUP4 SUB DUP2 DUP7 GAS DELEGATECALL ISZERO DUP1 ISZERO PUSH2 0x89C JUMPI RETURNDATASIZE PUSH0 DUP1 RETURNDATACOPY RETURNDATASIZE PUSH0 REVERT JUMPDEST POP POP POP POP PUSH1 0x40 MLOAD RETURNDATASIZE PUSH1 0x1F NOT PUSH1 0x1F DUP3 ADD AND DUP3 ADD DUP1 PUSH1 0x40 MSTORE POP DUP2 ADD SWAP1 PUSH2 0x8C0 SWAP2 SWAP1 PUSH2 0x414B JUMP JUMPDEST POP POP JUMPDEST JUMP JUMPDEST PUSH0 PUSH1 0x1 ISZERO ISZERO PUSH1 0x9 PUSH0 SWAP1 SLOAD SWAP1 PUSH2 0x100 EXP SWAP1 DIV PUSH1 0xFF AND ISZERO ISZERO EQ PUSH2 0x91B JUMPI PUSH1 0x40 MLOAD PUSH32 0x8C379A000000000000000000000000000000000000000000000000000000000 DUP2 MSTORE PUSH1 0x4 ADD PUSH2 0x912 SWAP1 PUSH2 0x43FA JUMP JUMPDEST PUSH1 0x40 MLOAD DUP1 SWAP2 SUB SWAP1 REVERT JUMPDEST PUSH1 0x1 ISZERO ISZERO PUSH1 0xC PUSH0 SWAP1 SLOAD SWAP1 PUSH2 0x100 EXP SWAP1 DIV PUSH1 0xFF AND ISZERO ISZERO EQ PUSH2 0x970 JUMPI PUSH1 0x40 MLOAD PUSH32 0x8C379A000000000000000000000000000000000000000000000000000000000 DUP2 MSTORE PUSH1 0x4 ADD PUSH2 0x967 SWAP1 PUSH2 0x4462 JUMP JUMPDEST PUSH1 0x40 MLOAD DUP1 SWAP2 SUB SWAP1 REVERT JUMPDEST PUSH0 SWAP1 POP PUSH1 0xB SLOAD NUMBER LT PUSH2 0x985 JUMPI PUSH2 0x984 PUSH2 0x385B JUMP JUMPDEST JUMPDEST PUSH0 PUSH1 0x1 PUSH0 CALLER PUSH20 0xFFFFFFFFFFFFFFFFFFFFFFFFFFFFFFFFFFFFFFFF AND PUSH20 0xFFFFFFFFFFFFFFFFFFFFFFFFFFFFFFFFFFFFFFFF AND DUP2 MSTORE PUSH1 0x20 ADD SWAP1 DUP2 MSTORE PUSH1 0x20 ADD PUSH0 KECCAK256 PUSH0 ADD DUP1 SLOAD PUSH2 0x9D0 SWAP1 PUSH2 0x44AD JUMP JUMPDEST SWAP1 POP SUB PUSH2 0xA12 JUMPI PUSH1 0x40 MLOAD PUSH32 0x8C379A000000000000000000000000000000000000000000000000000000000 DUP2 MSTORE PUSH1 0x4 ADD PUSH2 0xA09 SWAP1 PUSH2 0x4527 JUMP JUMPDEST PUSH1 0x40 MLOAD DUP1 SWAP2 SUB SWAP1 REVERT JUMPDEST PUSH0 DUP1 PUSH0 DUP5 DUP2 MSTORE PUSH1 0x20 ADD SWAP1 DUP2 MSTORE PUSH1 0x20 ADD PUSH0 KECCAK256 DUP1 SLOAD PUSH2 0xA2E SWAP1 PUSH2 0x44AD JUMP JUMPDEST SWAP1 POP SUB PUSH2 0xA70 JUMPI PUSH1 0x40 MLOAD PUSH32 0x8C379A000000000000000000000000000000000000000000000000000000000 DUP2 MSTORE PUSH1 0x4 ADD PUSH2 0xA67 SWAP1 PUSH2 0x458F JUMP JUMPDEST PUSH1 0x40 MLOAD DUP1 SWAP2 SUB SWAP1 REVERT JUMPDEST PUSH1 0x1 PUSH0 CALLER PUSH20 0xFFFFFFFFFFFFFFFFFFFFFFFFFFFFFFFFFFFFFFFF AND PUSH20 0xFFFFFFFFFFFFFFFFFFFFFFFFFFFFFFFFFFFFFFFF AND DUP2 MSTORE PUSH1 0x20 ADD SWAP1 DUP2 MSTORE PUSH1 0x20 ADD PUSH0 KECCAK256 PUSH1 0x1 ADD PUSH0 SWAP1 SLOAD SWAP1 PUSH2 0x100 EXP SWAP1 DIV PUSH1 0xFF AND ISZERO PUSH2 0xAFD JUMPI PUSH1 0x40 MLOAD PUSH32 0x8C379A000000000000000000000000000000000000000000000000000000000 DUP2 MSTORE PUSH1 0x4 ADD PUSH2 0xAF4 SWAP1 PUSH2 0x45F7 JUMP JUMPDEST PUSH1 0x40 MLOAD DUP1 SWAP2 SUB SWAP1 REVERT JUMPDEST PUSH1 0x1 SWAP1 POP PUSH1 0x1 DUP1 PUSH0 CALLER PUSH20 0xFFFFFFFFFFFFFFFFFFFFFFFFFFFFFFFFFFFFFFFF AND PUSH20 0xFFFFFFFFFFFFFFFFFFFFFFFFFFFFFFFFFFFFFFFF AND DUP2 MSTORE PUSH1 0x20 ADD SWAP1 DUP2 MSTORE PUSH1 0x20 ADD PUSH0 KECCAK256 PUSH1 0x1 ADD PUSH0 PUSH2 0x100 EXP DUP2 SLOAD DUP2 PUSH1 0xFF MUL NOT AND SWAP1 DUP4 ISZERO ISZERO MUL OR SWAP1 SSTORE POP PUSH1 0x4 PUSH0 DUP2 SLOAD DUP1 SWAP3 SWAP2 SWAP1 PUSH2 0xB6A SWAP1 PUSH2 0x4642 JUMP JUMPDEST SWAP2 SWAP1 POP SSTORE POP PUSH2 0xB77 PUSH2 0x39F8 JUMP JUMPDEST CALLER DUP2 PUSH0 ADD SWAP1 PUSH20 0xFFFFFFFFFFFFFFFFFFFFFFFFFFFFFFFFFFFFFFFF AND SWAP1 DUP2 PUSH20 0xFFFFFFFFFFFFFFFFFFFFFFFFFFFFFFFFFFFFFFFF AND DUP2 MSTORE POP POP DUP3 DUP2 PUSH1 0x20 ADD DUP2 DUP2 MSTORE POP POP PUSH1 0x7 DUP2 SWAP1 DUP1 PUSH1 0x1 DUP2 SLOAD ADD DUP1 DUP3 SSTORE DUP1 SWAP2 POP POP PUSH1 0x1 SWAP1 SUB SWAP1 PUSH0 MSTORE PUSH1 0x20 PUSH0 KECCAK256 SWAP1 PUSH1 0x2 MUL ADD PUSH0 SWAP1 SWAP2 SWAP1 SWAP2 SWAP1 SWAP2 POP PUSH0 DUP3 ADD MLOAD DUP2 PUSH0 ADD PUSH0 PUSH2 0x100 EXP DUP2 SLOAD DUP2 PUSH20 0xFFFFFFFFFFFFFFFFFFFFFFFFFFFFFFFFFFFFFFFF MUL NOT AND SWAP1 DUP4 PUSH20 0xFFFFFFFFFFFFFFFFFFFFFFFFFFFFFFFFFFFFFFFF AND MUL OR SWAP1 SSTORE POP PUSH1 0x20 DUP3 ADD MLOAD DUP2 PUSH1 0x1 ADD SSTORE POP POP PUSH1 0x1 PUSH1 0x2 PUSH1 0x3 SLOAD PUSH2 0xC42 SWAP2 SWAP1 PUSH2 0x46B6 JUMP JUMPDEST PUSH2 0xC4C SWAP2 SWAP1 PUSH2 0x46E6 JUMP JUMPDEST PUSH1 0x4 SLOAD LT PUSH2 0xC5D JUMPI PUSH2 0xC5C PUSH2 0x385B JUMP JUMPDEST JUMPDEST POP SWAP2 SWAP1 POP JUMP JUMPDEST ADDRESS PUSH20 0xFFFFFFFFFFFFFFFFFFFFFFFFFFFFFFFFFFFFFFFF AND PUSH4 0x894BA833 PUSH1 0x40 MLOAD DUP2 PUSH4 0xFFFFFFFF AND PUSH1 0xE0 SHL DUP2 MSTORE PUSH1 0x4 ADD PUSH0 PUSH1 0x40 MLOAD DUP1 DUP4 SUB DUP2 PUSH0 DUP8 DUP1 EXTCODESIZE ISZERO DUP1 ISZERO PUSH2 0xCA8 JUMPI PUSH0 DUP1 REVERT JUMPDEST POP GAS CALL SWAP3 POP POP POP DUP1 ISZERO PUSH2 0xCB9 JUMPI POP PUSH1 0x1 JUMPDEST PUSH2 0xEA9 JUMPI PUSH2 0xCC5 PUSH2 0x3F2B JUMP JUMPDEST DUP1 PUSH4 0x8C379A0 SUB PUSH2 0xD61 JUMPI POP PUSH2 0xCD9 PUSH2 0x3F4A JUMP JUMPDEST DUP1 PUSH2 0xCE4 JUMPI POP PUSH2 0xDFB JUMP JUMPDEST PUSH20 0x0 PUSH4 0xE8C2CB16 DUP3 PUSH1 0x40 MLOAD DUP3 PUSH4 0xFFFFFFFF AND PUSH1 0xE0 SHL DUP2 MSTORE PUSH1 0x4 ADD PUSH2 0xD1B SWAP2 SWAP1 PUSH2 0x40DB JUMP JUMPDEST PUSH1 0x20 PUSH1 0x40 MLOAD DUP1 DUP4 SUB DUP2 DUP7 GAS DELEGATECALL ISZERO DUP1 ISZERO PUSH2 0xD36 JUMPI RETURNDATASIZE PUSH0 DUP1 RETURNDATACOPY RETURNDATASIZE PUSH0 REVERT JUMPDEST POP POP POP POP PUSH1 0x40 MLOAD RETURNDATASIZE PUSH1 0x1F NOT PUSH1 0x1F DUP3 ADD AND DUP3 ADD DUP1 PUSH1 0x40 MSTORE POP DUP2 ADD SWAP1 PUSH2 0xD5A SWAP2 SWAP1 PUSH2 0x414B JUMP JUMPDEST POP POP PUSH2 0xEA4 JUMP JUMPDEST PUSH4 0x4E487B71 SUB PUSH2 0xDFB JUMPI PUSH2 0xD73 PUSH2 0x4176 JUMP JUMPDEST SWAP1 PUSH2 0xD7E JUMPI POP PUSH2 0xDFB JUMP JUMPDEST PUSH20 0x0 PUSH4 0x39DF137F PUSH0 PUSH1 0x40 MLOAD DUP3 PUSH4 0xFFFFFFFF AND PUSH1 0xE0 SHL DUP2 MSTORE PUSH1 0x4 ADD PUSH2 0xDB5 SWAP2 SWAP1 PUSH2 0x4213 JUMP JUMPDEST PUSH1 0x20 PUSH1 0x40 MLOAD DUP1 DUP4 SUB DUP2 DUP7 GAS DELEGATECALL ISZERO DUP1 ISZERO PUSH2 0xDD0 JUMPI RETURNDATASIZE PUSH0 DUP1 RETURNDATACOPY RETURNDATASIZE PUSH0 REVERT JUMPDEST POP POP POP POP PUSH1 0x40 MLOAD RETURNDATASIZE PUSH1 0x1F NOT PUSH1 0x1F DUP3 ADD AND DUP3 ADD DUP1 PUSH1 0x40 MSTORE POP DUP2 ADD SWAP1 PUSH2 0xDF4 SWAP2 SWAP1 PUSH2 0x414B JUMP JUMPDEST POP POP PUSH2 0xEA4 JUMP JUMPDEST RETURNDATASIZE DUP1 PUSH0 DUP2 EQ PUSH2 0xE25 JUMPI PUSH1 0x40 MLOAD SWAP2 POP PUSH1 0x1F NOT PUSH1 0x3F RETURNDATASIZE ADD AND DUP3 ADD PUSH1 0x40 MSTORE RETURNDATASIZE DUP3 MSTORE RETURNDATASIZE PUSH0 PUSH1 0x20 DUP5 ADD RETURNDATACOPY PUSH2 0xE2A JUMP JUMPDEST PUSH1 0x60 SWAP2 POP JUMPDEST POP PUSH20 0x0 PUSH4 0x39DF137F PUSH0 PUSH1 0x40 MLOAD DUP3 PUSH4 0xFFFFFFFF AND PUSH1 0xE0 SHL DUP2 MSTORE PUSH1 0x4 ADD PUSH2 0xE62 SWAP2 SWAP1 PUSH2 0x4289 JUMP JUMPDEST PUSH1 0x20 PUSH1 0x40 MLOAD DUP1 DUP4 SUB DUP2 DUP7 GAS DELEGATECALL ISZERO DUP1 ISZERO PUSH2 0xE7D JUMPI RETURNDATASIZE PUSH0 DUP1 RETURNDATACOPY RETURNDATASIZE PUSH0 REVERT JUMPDEST POP POP POP POP PUSH1 0x40 MLOAD RETURNDATASIZE PUSH1 0x1F NOT PUSH1 0x1F DUP3 ADD AND DUP3 ADD DUP1 PUSH1 0x40 MSTORE POP DUP2 ADD SWAP1 PUSH2 0xEA1 SWAP2 SWAP1 PUSH2 0x414B JUMP JUMPDEST POP POP JUMPDEST PUSH2 0xF31 JUMP JUMPDEST PUSH20 0x0 PUSH4 0x44781A00 PUSH1 0xC PUSH0 SWAP1 SLOAD SWAP1 PUSH2 0x100 EXP SWAP1 DIV PUSH1 0xFF AND PUSH0 PUSH1 0x40 MLOAD DUP4 PUSH4 0xFFFFFFFF AND PUSH1 0xE0 SHL DUP2 MSTORE PUSH1 0x4 ADD PUSH2 0xEF0 SWAP3 SWAP2 SWAP1 PUSH2 0x4719 JUMP JUMPDEST PUSH1 0x20 PUSH1 0x40 MLOAD DUP1 DUP4 SUB DUP2 DUP7 GAS DELEGATECALL ISZERO DUP1 ISZERO PUSH2 0xF0B JUMPI RETURNDATASIZE PUSH0 DUP1 RETURNDATACOPY RETURNDATASIZE PUSH0 REVERT JUMPDEST POP POP POP POP PUSH1 0x40 MLOAD RETURNDATASIZE PUSH1 0x1F NOT PUSH1 0x1F DUP3 ADD AND DUP3 ADD DUP1 PUSH1 0x40 MSTORE POP DUP2 ADD SWAP1 PUSH2 0xF2F SWAP2 SWAP1 PUSH2 0x414B JUMP JUMPDEST POP JUMPDEST JUMP JUMPDEST PUSH1 0x1 PUSH1 0x20 MSTORE DUP1 PUSH0 MSTORE PUSH1 0x40 PUSH0 KECCAK256 PUSH0 SWAP2 POP SWAP1 POP DUP1 PUSH0 ADD DUP1 SLOAD PUSH2 0xF52 SWAP1 PUSH2 0x44AD JUMP JUMPDEST DUP1 PUSH1 0x1F ADD PUSH1 0x20 DUP1 SWAP2 DIV MUL PUSH1 0x20 ADD PUSH1 0x40 MLOAD SWAP1 DUP2 ADD PUSH1 0x40 MSTORE DUP1 SWAP3 SWAP2 SWAP1 DUP2 DUP2 MSTORE PUSH1 0x20 ADD DUP3 DUP1 SLOAD PUSH2 0xF7E SWAP1 PUSH2 0x44AD JUMP JUMPDEST DUP1 ISZERO PUSH2 0xFC9 JUMPI DUP1 PUSH1 0x1F LT PUSH2 0xFA0 JUMPI PUSH2 0x100 DUP1 DUP4 SLOAD DIV MUL DUP4 MSTORE SWAP2 PUSH1 0x20 ADD SWAP2 PUSH2 0xFC9 JUMP JUMPDEST DUP3 ADD SWAP2 SWAP1 PUSH0 MSTORE PUSH1 0x20 PUSH0 KECCAK256 SWAP1 JUMPDEST DUP2 SLOAD DUP2 MSTORE SWAP1 PUSH1 0x1 ADD SWAP1 PUSH1 0x20 ADD DUP1 DUP4 GT PUSH2 0xFAC JUMPI DUP3 SWAP1 SUB PUSH1 0x1F AND DUP3 ADD SWAP2 JUMPDEST POP POP POP POP POP SWAP1 DUP1 PUSH1 0x1 ADD PUSH0 SWAP1 SLOAD SWAP1 PUSH2 0x100 EXP SWAP1 DIV PUSH1 0xFF AND SWAP1 POP DUP3 JUMP JUMPDEST PUSH1 0xC PUSH0 SWAP1 SLOAD SWAP1 PUSH2 0x100 EXP SWAP1 DIV PUSH1 0xFF AND DUP2 JUMP JUMPDEST PUSH0 PUSH1 0x5 PUSH0 SWAP1 SLOAD SWAP1 PUSH2 0x100 EXP SWAP1 DIV PUSH20 0xFFFFFFFFFFFFFFFFFFFFFFFFFFFFFFFFFFFFFFFF AND PUSH20 0xFFFFFFFFFFFFFFFFFFFFFFFFFFFFFFFFFFFFFFFF AND CALLER PUSH20 0xFFFFFFFFFFFFFFFFFFFFFFFFFFFFFFFFFFFFFFFF AND EQ PUSH2 0x1087 JUMPI PUSH1 0x40 MLOAD PUSH32 0x8C379A000000000000000000000000000000000000000000000000000000000 DUP2 MSTORE PUSH1 0x4 ADD PUSH2 0x107E SWAP1 PUSH2 0x4775 JUMP JUMPDEST PUSH1 0x40 MLOAD DUP1 SWAP2 SUB SWAP1 REVERT JUMPDEST PUSH0 ISZERO ISZERO PUSH1 0x9 PUSH0 SWAP1 SLOAD SWAP1 PUSH2 0x100 EXP SWAP1 DIV PUSH1 0xFF AND ISZERO ISZERO EQ PUSH2 0x10DB JUMPI PUSH1 0x40 MLOAD PUSH32 0x8C379A000000000000000000000000000000000000000000000000000000000 DUP2 MSTORE PUSH1 0x4 ADD PUSH2 0x10D2 SWAP1 PUSH2 0x4803 JUMP JUMPDEST PUSH1 0x40 MLOAD DUP1 SWAP2 SUB SWAP1 REVERT JUMPDEST PUSH1 0xB SLOAD NUMBER LT PUSH2 0x111F JUMPI PUSH1 0x40 MLOAD PUSH32 0x8C379A000000000000000000000000000000000000000000000000000000000 DUP2 MSTORE PUSH1 0x4 ADD PUSH2 0x1116 SWAP1 PUSH2 0x486B JUMP JUMPDEST PUSH1 0x40 MLOAD DUP1 SWAP2 SUB SWAP1 REVERT JUMPDEST PUSH1 0x1 ISZERO ISZERO PUSH1 0xC PUSH0 SWAP1 SLOAD SWAP1 PUSH2 0x100 EXP SWAP1 DIV PUSH1 0xFF AND ISZERO ISZERO EQ PUSH2 0x1174 JUMPI PUSH1 0x40 MLOAD PUSH32 0x8C379A000000000000000000000000000000000000000000000000000000000 DUP2 MSTORE PUSH1 0x4 ADD PUSH2 0x116B SWAP1 PUSH2 0x4462 JUMP JUMPDEST PUSH1 0x40 MLOAD DUP1 SWAP2 SUB SWAP1 REVERT JUMPDEST PUSH0 PUSH1 0x1 PUSH0 DUP6 PUSH20 0xFFFFFFFFFFFFFFFFFFFFFFFFFFFFFFFFFFFFFFFF AND PUSH20 0xFFFFFFFFFFFFFFFFFFFFFFFFFFFFFFFFFFFFFFFF AND DUP2 MSTORE PUSH1 0x20 ADD SWAP1 DUP2 MSTORE PUSH1 0x20 ADD PUSH0 KECCAK256 PUSH0 ADD DUP1 SLOAD PUSH2 0x11BF SWAP1 PUSH2 0x44AD JUMP JUMPDEST SWAP1 POP EQ PUSH2 0x1201 JUMPI PUSH1 0x40 MLOAD PUSH32 0x8C379A000000000000000000000000000000000000000000000000000000000 DUP2 MSTORE PUSH1 0x4 ADD PUSH2 0x11F8 SWAP1 PUSH2 0x48D3 JUMP JUMPDEST PUSH1 0x40 MLOAD DUP1 SWAP2 SUB SWAP1 REVERT JUMPDEST PUSH1 0x3 PUSH0 DUP2 SLOAD DUP1 SWAP3 SWAP2 SWAP1 PUSH2 0x1213 SWAP1 PUSH2 0x4642 JUMP JUMPDEST SWAP2 SWAP1 POP SSTORE POP PUSH2 0x1220 PUSH2 0x3A26 JUMP JUMPDEST DUP3 DUP2 PUSH0 ADD DUP2 SWAP1 MSTORE POP PUSH0 DUP2 PUSH1 0x20 ADD SWAP1 ISZERO ISZERO SWAP1 DUP2 ISZERO ISZERO DUP2 MSTORE POP POP DUP1 PUSH1 0x1 PUSH0 DUP7 PUSH20 0xFFFFFFFFFFFFFFFFFFFFFFFFFFFFFFFFFFFFFFFF AND PUSH20 0xFFFFFFFFFFFFFFFFFFFFFFFFFFFFFFFFFFFFFFFF AND DUP2 MSTORE PUSH1 0x20 ADD SWAP1 DUP2 MSTORE PUSH1 0x20 ADD PUSH0 KECCAK256 PUSH0 DUP3 ADD MLOAD DUP2 PUSH0 ADD SWAP1 DUP2 PUSH2 0x1289 SWAP2 SWAP1 PUSH2 0x4A85 JUMP JUMPDEST POP PUSH1 0x20 DUP3 ADD MLOAD DUP2 PUSH1 0x1 ADD PUSH0 PUSH2 0x100 EXP DUP2 SLOAD DUP2 PUSH1 0xFF MUL NOT AND SWAP1 DUP4 ISZERO ISZERO MUL OR SWAP1 SSTORE POP SWAP1 POP POP PUSH1 0x3 SLOAD SWAP2 POP POP SWAP3 SWAP2 POP POP JUMP JUMPDEST PUSH1 0x3 SLOAD DUP2 JUMP JUMPDEST PUSH1 0x5 PUSH0 SWAP1 SLOAD SWAP1 PUSH2 0x100 EXP SWAP1 DIV PUSH20 0xFFFFFFFFFFFFFFFFFFFFFFFFFFFFFFFFFFFFFFFF AND DUP2 JUMP JUMPDEST PUSH20 0x0 PUSH4 0x767392B3 PUSH2 0x1307 PUSH1 0x64 PUSH2 0x169F JUMP JUMPDEST PUSH1 0x1 PUSH1 0x40 MLOAD DUP4 PUSH4 0xFFFFFFFF AND PUSH1 0xE0 SHL DUP2 MSTORE PUSH1 0x4 ADD PUSH2 0x1326 SWAP3 SWAP2 SWAP1 PUSH2 0x4B9E JUMP JUMPDEST PUSH1 0x20 PUSH1 0x40 MLOAD DUP1 DUP4 SUB DUP2 DUP7 GAS DELEGATECALL ISZERO DUP1 ISZERO PUSH2 0x1341 JUMPI RETURNDATASIZE PUSH0 DUP1 RETURNDATACOPY RETURNDATASIZE PUSH0 REVERT JUMPDEST POP POP POP POP PUSH1 0x40 MLOAD RETURNDATASIZE PUSH1 0x1F NOT PUSH1 0x1F DUP3 ADD AND DUP3 ADD DUP1 PUSH1 0x40 MSTORE POP DUP2 ADD SWAP1 PUSH2 0x1365 SWAP2 SWAP1 PUSH2 0x414B JUMP JUMPDEST POP JUMP JUMPDEST PUSH1 0xB SLOAD DUP2 JUMP JUMPDEST PUSH1 0x7 DUP2 DUP2 SLOAD DUP2 LT PUSH2 0x137D JUMPI PUSH0 DUP1 REVERT JUMPDEST SWAP1 PUSH0 MSTORE PUSH1 0x20 PUSH0 KECCAK256 SWAP1 PUSH1 0x2 MUL ADD PUSH0 SWAP2 POP SWAP1 POP DUP1 PUSH0 ADD PUSH0 SWAP1 SLOAD SWAP1 PUSH2 0x100 EXP SWAP1 DIV PUSH20 0xFFFFFFFFFFFFFFFFFFFFFFFFFFFFFFFFFFFFFFFF AND SWAP1 DUP1 PUSH1 0x1 ADD SLOAD SWAP1 POP DUP3 JUMP JUMPDEST ADDRESS PUSH20 0xFFFFFFFFFFFFFFFFFFFFFFFFFFFFFFFFFFFFFFFF AND PUSH4 0x66063DF4 PUSH1 0x64 PUSH1 0x40 MLOAD DUP3 PUSH4 0xFFFFFFFF AND PUSH1 0xE0 SHL DUP2 MSTORE PUSH1 0x4 ADD PUSH2 0x13F6 SWAP2 SWAP1 PUSH2 0x4C11 JUMP JUMPDEST PUSH1 0x20 PUSH1 0x40 MLOAD DUP1 DUP4 SUB DUP2 PUSH0 DUP8 GAS CALL SWAP3 POP POP POP DUP1 ISZERO PUSH2 0x1431 JUMPI POP PUSH1 0x40 MLOAD RETURNDATASIZE PUSH1 0x1F NOT PUSH1 0x1F DUP3 ADD AND DUP3 ADD DUP1 PUSH1 0x40 MSTORE POP DUP2 ADD SWAP1 PUSH2 0x142E SWAP2 SWAP1 PUSH2 0x414B JUMP JUMPDEST PUSH1 0x1 JUMPDEST PUSH2 0x1621 JUMPI PUSH2 0x143D PUSH2 0x3F2B JUMP JUMPDEST DUP1 PUSH4 0x8C379A0 SUB PUSH2 0x14D9 JUMPI POP PUSH2 0x1451 PUSH2 0x3F4A JUMP JUMPDEST DUP1 PUSH2 0x145C JUMPI POP PUSH2 0x1573 JUMP JUMPDEST PUSH20 0x0 PUSH4 0xE8C2CB16 DUP3 PUSH1 0x40 MLOAD DUP3 PUSH4 0xFFFFFFFF AND PUSH1 0xE0 SHL DUP2 MSTORE PUSH1 0x4 ADD PUSH2 0x1493 SWAP2 SWAP1 PUSH2 0x40DB JUMP JUMPDEST PUSH1 0x20 PUSH1 0x40 MLOAD DUP1 DUP4 SUB DUP2 DUP7 GAS DELEGATECALL ISZERO DUP1 ISZERO PUSH2 0x14AE JUMPI RETURNDATASIZE PUSH0 DUP1 RETURNDATACOPY RETURNDATASIZE PUSH0 REVERT JUMPDEST POP POP POP POP PUSH1 0x40 MLOAD RETURNDATASIZE PUSH1 0x1F NOT PUSH1 0x1F DUP3 ADD AND DUP3 ADD DUP1 PUSH1 0x40 MSTORE POP DUP2 ADD SWAP1 PUSH2 0x14D2 SWAP2 SWAP1 PUSH2 0x414B JUMP JUMPDEST POP POP PUSH2 0x161C JUMP JUMPDEST PUSH4 0x4E487B71 SUB PUSH2 0x1573 JUMPI PUSH2 0x14EB PUSH2 0x4176 JUMP JUMPDEST SWAP1 PUSH2 0x14F6 JUMPI POP PUSH2 0x1573 JUMP JUMPDEST PUSH20 0x0 PUSH4 0x39DF137F PUSH0 PUSH1 0x40 MLOAD DUP3 PUSH4 0xFFFFFFFF AND PUSH1 0xE0 SHL DUP2 MSTORE PUSH1 0x4 ADD PUSH2 0x152D SWAP2 SWAP1 PUSH2 0x4213 JUMP JUMPDEST PUSH1 0x20 PUSH1 0x40 MLOAD DUP1 DUP4 SUB DUP2 DUP7 GAS DELEGATECALL ISZERO DUP1 ISZERO PUSH2 0x1548 JUMPI RETURNDATASIZE PUSH0 DUP1 RETURNDATACOPY RETURNDATASIZE PUSH0 REVERT JUMPDEST POP POP POP POP PUSH1 0x40 MLOAD RETURNDATASIZE PUSH1 0x1F NOT PUSH1 0x1F DUP3 ADD AND DUP3 ADD DUP1 PUSH1 0x40 MSTORE POP DUP2 ADD SWAP1 PUSH2 0x156C SWAP2 SWAP1 PUSH2 0x414B JUMP JUMPDEST POP POP PUSH2 0x161C JUMP JUMPDEST RETURNDATASIZE DUP1 PUSH0 DUP2 EQ PUSH2 0x159D JUMPI PUSH1 0x40 MLOAD SWAP2 POP PUSH1 0x1F NOT PUSH1 0x3F RETURNDATASIZE ADD AND DUP3 ADD PUSH1 0x40 MSTORE RETURNDATASIZE DUP3 MSTORE RETURNDATASIZE PUSH0 PUSH1 0x20 DUP5 ADD RETURNDATACOPY PUSH2 0x15A2 JUMP JUMPDEST PUSH1 0x60 SWAP2 POP JUMPDEST POP PUSH20 0x0 PUSH4 0x39DF137F PUSH0 PUSH1 0x40 MLOAD DUP3 PUSH4 0xFFFFFFFF AND PUSH1 0xE0 SHL DUP2 MSTORE PUSH1 0x4 ADD PUSH2 0x15DA SWAP2 SWAP1 PUSH2 0x4289 JUMP JUMPDEST PUSH1 0x20 PUSH1 0x40 MLOAD DUP1 DUP4 SUB DUP2 DUP7 GAS DELEGATECALL ISZERO DUP1 ISZERO PUSH2 0x15F5 JUMPI RETURNDATASIZE PUSH0 DUP1 RETURNDATACOPY RETURNDATASIZE PUSH0 REVERT JUMPDEST POP POP POP POP PUSH1 0x40 MLOAD RETURNDATASIZE PUSH1 0x1F NOT PUSH1 0x1F DUP3 ADD AND DUP3 ADD DUP1 PUSH1 0x40 MSTORE POP DUP2 ADD SWAP1 PUSH2 0x1619 SWAP2 SWAP1 PUSH2 0x414B JUMP JUMPDEST POP POP JUMPDEST PUSH2 0x169D JUMP JUMPDEST PUSH20 0x0 PUSH4 0x44781A00 DUP3 PUSH1 0x1 PUSH1 0x40 MLOAD DUP4 PUSH4 0xFFFFFFFF AND PUSH1 0xE0 SHL DUP2 MSTORE PUSH1 0x4 ADD PUSH2 0x165B SWAP3 SWAP2 SWAP1 PUSH2 0x4719 JUMP JUMPDEST PUSH1 0x20 PUSH1 0x40 MLOAD DUP1 DUP4 SUB DUP2 DUP7 GAS DELEGATECALL ISZERO DUP1 ISZERO PUSH2 0x1676 JUMPI RETURNDATASIZE PUSH0 DUP1 RETURNDATACOPY RETURNDATASIZE PUSH0 REVERT JUMPDEST POP POP POP POP PUSH1 0x40 MLOAD RETURNDATASIZE PUSH1 0x1F NOT PUSH1 0x1F DUP3 ADD AND DUP3 ADD DUP1 PUSH1 0x40 MSTORE POP DUP2 ADD SWAP1 PUSH2 0x169A SWAP2 SWAP1 PUSH2 0x414B JUMP JUMPDEST POP POP JUMPDEST JUMP JUMPDEST PUSH0 PUSH1 0x5 PUSH0 SWAP1 SLOAD SWAP1 PUSH2 0x100 EXP SWAP1 DIV PUSH20 0xFFFFFFFFFFFFFFFFFFFFFFFFFFFFFFFFFFFFFFFF AND PUSH20 0xFFFFFFFFFFFFFFFFFFFFFFFFFFFFFFFFFFFFFFFF AND CALLER PUSH20 0xFFFFFFFFFFFFFFFFFFFFFFFFFFFFFFFFFFFFFFFF AND EQ PUSH2 0x172F JUMPI PUSH1 0x40 MLOAD PUSH32 0x8C379A000000000000000000000000000000000000000000000000000000000 DUP2 MSTORE PUSH1 0x4 ADD PUSH2 0x1726 SWAP1 PUSH2 0x4775 JUMP JUMPDEST PUSH1 0x40 MLOAD DUP1 SWAP2 SUB SWAP1 REVERT JUMPDEST PUSH1 0x1 ISZERO ISZERO PUSH1 0xC PUSH0 SWAP1 SLOAD SWAP1 PUSH2 0x100 EXP SWAP1 DIV PUSH1 0xFF AND ISZERO ISZERO EQ PUSH2 0x1784 JUMPI PUSH1 0x40 MLOAD PUSH32 0x8C379A000000000000000000000000000000000000000000000000000000000 DUP2 MSTORE PUSH1 0x4 ADD PUSH2 0x177B SWAP1 PUSH2 0x4462 JUMP JUMPDEST PUSH1 0x40 MLOAD DUP1 SWAP2 SUB SWAP1 REVERT JUMPDEST PUSH0 SWAP1 POP DUP2 NUMBER PUSH2 0x1793 SWAP2 SWAP1 PUSH2 0x46E6 JUMP JUMPDEST PUSH1 0xB DUP2 SWAP1 SSTORE POP PUSH1 0xB SLOAD NUMBER GT PUSH2 0x17BC JUMPI PUSH0 PUSH1 0x9 PUSH0 PUSH2 0x100 EXP DUP2 SLOAD DUP2 PUSH1 0xFF MUL NOT AND SWAP1 DUP4 ISZERO ISZERO MUL OR SWAP1 SSTORE POP JUMPDEST PUSH1 0x1 SWAP1 POP SWAP2 SWAP1 POP JUMP JUMPDEST PUSH1 0xC PUSH1 0x1 SWAP1 SLOAD SWAP1 PUSH2 0x100 EXP SWAP1 DIV PUSH20 0xFFFFFFFFFFFFFFFFFFFFFFFFFFFFFFFFFFFFFFFF AND DUP2 JUMP JUMPDEST PUSH0 PUSH1 0x5 PUSH0 SWAP1 SLOAD SWAP1 PUSH2 0x100 EXP SWAP1 DIV PUSH20 0xFFFFFFFFFFFFFFFFFFFFFFFFFFFFFFFFFFFFFFFF AND PUSH20 0xFFFFFFFFFFFFFFFFFFFFFFFFFFFFFFFFFFFFFFFF AND CALLER PUSH20 0xFFFFFFFFFFFFFFFFFFFFFFFFFFFFFFFFFFFFFFFF AND EQ PUSH2 0x187B JUMPI PUSH1 0x40 MLOAD PUSH32 0x8C379A000000000000000000000000000000000000000000000000000000000 DUP2 MSTORE PUSH1 0x4 ADD PUSH2 0x1872 SWAP1 PUSH2 0x4775 JUMP JUMPDEST PUSH1 0x40 MLOAD DUP1 SWAP2 SUB SWAP1 REVERT JUMPDEST PUSH0 ISZERO ISZERO PUSH1 0x9 PUSH0 SWAP1 SLOAD SWAP1 PUSH2 0x100 EXP SWAP1 DIV PUSH1 0xFF AND ISZERO ISZERO EQ PUSH2 0x18CF JUMPI PUSH1 0x40 MLOAD PUSH32 0x8C379A000000000000000000000000000000000000000000000000000000000 DUP2 MSTORE PUSH1 0x4 ADD PUSH2 0x18C6 SWAP1 PUSH2 0x4803 JUMP JUMPDEST PUSH1 0x40 MLOAD DUP1 SWAP2 SUB SWAP1 REVERT JUMPDEST PUSH1 0xB SLOAD NUMBER LT PUSH2 0x1913 JUMPI PUSH1 0x40 MLOAD PUSH32 0x8C379A000000000000000000000000000000000000000000000000000000000 DUP2 MSTORE PUSH1 0x4 ADD PUSH2 0x190A SWAP1 PUSH2 0x486B JUMP JUMPDEST PUSH1 0x40 MLOAD DUP1 SWAP2 SUB SWAP1 REVERT JUMPDEST PUSH1 0x1 ISZERO ISZERO PUSH1 0xC PUSH0 SWAP1 SLOAD SWAP1 PUSH2 0x100 EXP SWAP1 DIV PUSH1 0xFF AND ISZERO ISZERO EQ PUSH2 0x1968 JUMPI PUSH1 0x40 MLOAD PUSH32 0x8C379A000000000000000000000000000000000000000000000000000000000 DUP2 MSTORE PUSH1 0x4 ADD PUSH2 0x195F SWAP1 PUSH2 0x4462 JUMP JUMPDEST PUSH1 0x40 MLOAD DUP1 SWAP2 SUB SWAP1 REVERT JUMPDEST PUSH0 DUP3 DUP1 MLOAD SWAP1 PUSH1 0x20 ADD KECCAK256 SWAP1 POP PUSH1 0xA PUSH0 DUP3 DUP2 MSTORE PUSH1 0x20 ADD SWAP1 DUP2 MSTORE PUSH1 0x20 ADD PUSH0 KECCAK256 PUSH0 SWAP1 SLOAD SWAP1 PUSH2 0x100 EXP SWAP1 DIV PUSH1 0xFF AND ISZERO PUSH2 0x19D1 JUMPI PUSH1 0x40 MLOAD PUSH32 0x8C379A000000000000000000000000000000000000000000000000000000000 DUP2 MSTORE PUSH1 0x4 ADD PUSH2 0x19C8 SWAP1 PUSH2 0x4C74 JUMP JUMPDEST PUSH1 0x40 MLOAD DUP1 SWAP2 SUB SWAP1 REVERT JUMPDEST PUSH1 0x2 PUSH0 DUP2 SLOAD DUP1 SWAP3 SWAP2 SWAP1 PUSH2 0x19E3 SWAP1 PUSH2 0x4642 JUMP JUMPDEST SWAP2 SWAP1 POP SSTORE POP DUP3 PUSH0 DUP1 PUSH1 0x2 SLOAD DUP2 MSTORE PUSH1 0x20 ADD SWAP1 DUP2 MSTORE PUSH1 0x20 ADD PUSH0 KECCAK256 SWAP1 DUP2 PUSH2 0x1A07 SWAP2 SWAP1 PUSH2 0x4A85 JUMP JUMPDEST POP PUSH1 0x1 PUSH1 0xA PUSH0 DUP4 DUP2 MSTORE PUSH1 0x20 ADD SWAP1 DUP2 MSTORE PUSH1 0x20 ADD PUSH0 KECCAK256 PUSH0 PUSH2 0x100 EXP DUP2 SLOAD DUP2 PUSH1 0xFF MUL NOT AND SWAP1 DUP4 ISZERO ISZERO MUL OR SWAP1 SSTORE POP PUSH1 0x2 SLOAD SWAP2 POP POP SWAP2 SWAP1 POP JUMP JUMPDEST PUSH20 0x0 PUSH4 0x39DF137F PUSH2 0x1A60 PUSH1 0x2 PUSH2 0x8C5 JUMP JUMPDEST PUSH1 0x40 MLOAD DUP3 PUSH4 0xFFFFFFFF AND PUSH1 0xE0 SHL DUP2 MSTORE PUSH1 0x4 ADD PUSH2 0x1A7C SWAP2 SWAP1 PUSH2 0x4CDC JUMP JUMPDEST PUSH1 0x20 PUSH1 0x40 MLOAD DUP1 DUP4 SUB DUP2 DUP7 GAS DELEGATECALL ISZERO DUP1 ISZERO PUSH2 0x1A97 JUMPI RETURNDATASIZE PUSH0 DUP1 RETURNDATACOPY RETURNDATASIZE PUSH0 REVERT JUMPDEST POP POP POP POP PUSH1 0x40 MLOAD RETURNDATASIZE PUSH1 0x1F NOT PUSH1 0x1F DUP3 ADD AND DUP3 ADD DUP1 PUSH1 0x40 MSTORE POP DUP2 ADD SWAP1 PUSH2 0x1ABB SWAP2 SWAP1 PUSH2 0x414B JUMP JUMPDEST POP JUMP JUMPDEST PUSH20 0x0 PUSH4 0xBFBA5DD6 PUSH1 0x5 PUSH0 SWAP1 SLOAD SWAP1 PUSH2 0x100 EXP SWAP1 DIV PUSH20 0xFFFFFFFFFFFFFFFFFFFFFFFFFFFFFFFFFFFFFFFF AND PUSH1 0xD PUSH0 SWAP1 SLOAD SWAP1 PUSH2 0x100 EXP SWAP1 DIV PUSH20 0xFFFFFFFFFFFFFFFFFFFFFFFFFFFFFFFFFFFFFFFF AND PUSH1 0x40 MLOAD DUP4 PUSH4 0xFFFFFFFF AND PUSH1 0xE0 SHL DUP2 MSTORE PUSH1 0x4 ADD PUSH2 0x1B39 SWAP3 SWAP2 SWAP1 PUSH2 0x4D61 JUMP JUMPDEST PUSH1 0x20 PUSH1 0x40 MLOAD DUP1 DUP4 SUB DUP2 DUP7 GAS DELEGATECALL ISZERO DUP1 ISZERO PUSH2 0x1B54 JUMPI RETURNDATASIZE PUSH0 DUP1 RETURNDATACOPY RETURNDATASIZE PUSH0 REVERT JUMPDEST POP POP POP POP PUSH1 0x40 MLOAD RETURNDATASIZE PUSH1 0x1F NOT PUSH1 0x1F DUP3 ADD AND DUP3 ADD DUP1 PUSH1 0x40 MSTORE POP DUP2 ADD SWAP1 PUSH2 0x1B78 SWAP2 SWAP1 PUSH2 0x414B JUMP JUMPDEST POP JUMP JUMPDEST PUSH1 0x9 PUSH0 SWAP1 SLOAD SWAP1 PUSH2 0x100 EXP SWAP1 DIV PUSH1 0xFF AND DUP2 JUMP JUMPDEST PUSH20 0x0 PUSH4 0xCE88B145 PUSH0 PUSH1 0x40 MLOAD DUP3 PUSH4 0xFFFFFFFF AND PUSH1 0xE0 SHL DUP2 MSTORE PUSH1 0x4 ADD PUSH2 0x1BC4 SWAP2 SWAP1 PUSH2 0x4DD4 JUMP JUMPDEST PUSH1 0x20 PUSH1 0x40 MLOAD DUP1 DUP4 SUB DUP2 DUP7 GAS DELEGATECALL ISZERO DUP1 ISZERO PUSH2 0x1BDF JUMPI RETURNDATASIZE PUSH0 DUP1 RETURNDATACOPY RETURNDATASIZE PUSH0 REVERT JUMPDEST POP POP POP POP PUSH1 0x40 MLOAD RETURNDATASIZE PUSH1 0x1F NOT PUSH1 0x1F DUP3 ADD AND DUP3 ADD DUP1 PUSH1 0x40 MSTORE POP DUP2 ADD SWAP1 PUSH2 0x1C03 SWAP2 SWAP1 PUSH2 0x4E01 JUMP JUMPDEST PUSH1 0xD PUSH0 PUSH2 0x100 EXP DUP2 SLOAD DUP2 PUSH20 0xFFFFFFFFFFFFFFFFFFFFFFFFFFFFFFFFFFFFFFFF MUL NOT AND SWAP1 DUP4 PUSH20 0xFFFFFFFFFFFFFFFFFFFFFFFFFFFFFFFFFFFFFFFF AND MUL OR SWAP1 SSTORE POP PUSH20 0x0 PUSH4 0xCE88B145 PUSH1 0x1 PUSH1 0x40 MLOAD DUP3 PUSH4 0xFFFFFFFF AND PUSH1 0xE0 SHL DUP2 MSTORE PUSH1 0x4 ADD PUSH2 0x1C7A SWAP2 SWAP1 PUSH2 0x4E65 JUMP JUMPDEST PUSH1 0x20 PUSH1 0x40 MLOAD DUP1 DUP4 SUB DUP2 DUP7 GAS DELEGATECALL ISZERO DUP1 ISZERO PUSH2 0x1C95 JUMPI RETURNDATASIZE PUSH0 DUP1 RETURNDATACOPY RETURNDATASIZE PUSH0 REVERT JUMPDEST POP POP POP POP PUSH1 0x40 MLOAD RETURNDATASIZE PUSH1 0x1F NOT PUSH1 0x1F DUP3 ADD AND DUP3 ADD DUP1 PUSH1 0x40 MSTORE POP DUP2 ADD SWAP1 PUSH2 0x1CB9 SWAP2 SWAP1 PUSH2 0x4E01 JUMP JUMPDEST PUSH1 0xE PUSH0 PUSH2 0x100 EXP DUP2 SLOAD DUP2 PUSH20 0xFFFFFFFFFFFFFFFFFFFFFFFFFFFFFFFFFFFFFFFF MUL NOT AND SWAP1 DUP4 PUSH20 0xFFFFFFFFFFFFFFFFFFFFFFFFFFFFFFFFFFFFFFFF AND MUL OR SWAP1 SSTORE POP PUSH20 0x0 PUSH4 0xCE88B145 PUSH1 0x2 PUSH1 0x40 MLOAD DUP3 PUSH4 0xFFFFFFFF AND PUSH1 0xE0 SHL DUP2 MSTORE PUSH1 0x4 ADD PUSH2 0x1D30 SWAP2 SWAP1 PUSH2 0x4EB7 JUMP JUMPDEST PUSH1 0x20 PUSH1 0x40 MLOAD DUP1 DUP4 SUB DUP2 DUP7 GAS DELEGATECALL ISZERO DUP1 ISZERO PUSH2 0x1D4B JUMPI RETURNDATASIZE PUSH0 DUP1 RETURNDATACOPY RETURNDATASIZE PUSH0 REVERT JUMPDEST POP POP POP POP PUSH1 0x40 MLOAD RETURNDATASIZE PUSH1 0x1F NOT PUSH1 0x1F DUP3 ADD AND DUP3 ADD DUP1 PUSH1 0x40 MSTORE POP DUP2 ADD SWAP1 PUSH2 0x1D6F SWAP2 SWAP1 PUSH2 0x4E01 JUMP JUMPDEST PUSH1 0xF PUSH0 PUSH2 0x100 EXP DUP2 SLOAD DUP2 PUSH20 0xFFFFFFFFFFFFFFFFFFFFFFFFFFFFFFFFFFFFFFFF MUL NOT AND SWAP1 DUP4 PUSH20 0xFFFFFFFFFFFFFFFFFFFFFFFFFFFFFFFFFFFFFFFF AND MUL OR SWAP1 SSTORE POP PUSH20 0x0 PUSH4 0xCE88B145 PUSH1 0x3 PUSH1 0x40 MLOAD DUP3 PUSH4 0xFFFFFFFF AND PUSH1 0xE0 SHL DUP2 MSTORE PUSH1 0x4 ADD PUSH2 0x1DE6 SWAP2 SWAP1 PUSH2 0x4F09 JUMP JUMPDEST PUSH1 0x20 PUSH1 0x40 MLOAD DUP1 DUP4 SUB DUP2 DUP7 GAS DELEGATECALL ISZERO DUP1 ISZERO PUSH2 0x1E01 JUMPI RETURNDATASIZE PUSH0 DUP1 RETURNDATACOPY RETURNDATASIZE PUSH0 REVERT JUMPDEST POP POP POP POP PUSH1 0x40 MLOAD RETURNDATASIZE PUSH1 0x1F NOT PUSH1 0x1F DUP3 ADD AND DUP3 ADD DUP1 PUSH1 0x40 MSTORE POP DUP2 ADD SWAP1 PUSH2 0x1E25 SWAP2 SWAP1 PUSH2 0x4E01 JUMP JUMPDEST PUSH1 0x10 PUSH0 PUSH2 0x100 EXP DUP2 SLOAD DUP2 PUSH20 0xFFFFFFFFFFFFFFFFFFFFFFFFFFFFFFFFFFFFFFFF MUL NOT AND SWAP1 DUP4 PUSH20 0xFFFFFFFFFFFFFFFFFFFFFFFFFFFFFFFFFFFFFFFF AND MUL OR SWAP1 SSTORE POP PUSH20 0x0 PUSH4 0xCE88B145 PUSH1 0x4 PUSH1 0x40 MLOAD DUP3 PUSH4 0xFFFFFFFF AND PUSH1 0xE0 SHL DUP2 MSTORE PUSH1 0x4 ADD PUSH2 0x1E9C SWAP2 SWAP1 PUSH2 0x4F5B JUMP JUMPDEST PUSH1 0x20 PUSH1 0x40 MLOAD DUP1 DUP4 SUB DUP2 DUP7 GAS DELEGATECALL ISZERO DUP1 ISZERO PUSH2 0x1EB7 JUMPI RETURNDATASIZE PUSH0 DUP1 RETURNDATACOPY RETURNDATASIZE PUSH0 REVERT JUMPDEST POP POP POP POP PUSH1 0x40 MLOAD RETURNDATASIZE PUSH1 0x1F NOT PUSH1 0x1F DUP3 ADD AND DUP3 ADD DUP1 PUSH1 0x40 MSTORE POP DUP2 ADD SWAP1 PUSH2 0x1EDB SWAP2 SWAP1 PUSH2 0x4E01 JUMP JUMPDEST PUSH1 0x11 PUSH0 PUSH2 0x100 EXP DUP2 SLOAD DUP2 PUSH20 0xFFFFFFFFFFFFFFFFFFFFFFFFFFFFFFFFFFFFFFFF MUL NOT AND SWAP1 DUP4 PUSH20 0xFFFFFFFFFFFFFFFFFFFFFFFFFFFFFFFFFFFFFFFF AND MUL OR SWAP1 SSTORE POP JUMP JUMPDEST PUSH20 0x0 PUSH4 0x39DF137F PUSH2 0x1F40 PUSH1 0x2 PUSH2 0x8C5 JUMP JUMPDEST PUSH1 0x40 MLOAD DUP3 PUSH4 0xFFFFFFFF AND PUSH1 0xE0 SHL DUP2 MSTORE PUSH1 0x4 ADD PUSH2 0x1F5C SWAP2 SWAP1 PUSH2 0x4CDC JUMP JUMPDEST PUSH1 0x20 PUSH1 0x40 MLOAD DUP1 DUP4 SUB DUP2 DUP7 GAS DELEGATECALL ISZERO DUP1 ISZERO PUSH2 0x1F77 JUMPI RETURNDATASIZE PUSH0 DUP1 RETURNDATACOPY RETURNDATASIZE PUSH0 REVERT JUMPDEST POP POP POP POP PUSH1 0x40 MLOAD RETURNDATASIZE PUSH1 0x1F NOT PUSH1 0x1F DUP3 ADD AND DUP3 ADD DUP1 PUSH1 0x40 MSTORE POP DUP2 ADD SWAP1 PUSH2 0x1F9B SWAP2 SWAP1 PUSH2 0x414B JUMP JUMPDEST POP JUMP JUMPDEST PUSH20 0x0 PUSH4 0xA079F1A3 PUSH1 0xB SLOAD NUMBER PUSH1 0x40 MLOAD DUP4 PUSH4 0xFFFFFFFF AND PUSH1 0xE0 SHL DUP2 MSTORE PUSH1 0x4 ADD PUSH2 0x1FD9 SWAP3 SWAP2 SWAP1 PUSH2 0x4FE4 JUMP JUMPDEST PUSH1 0x20 PUSH1 0x40 MLOAD DUP1 DUP4 SUB DUP2 DUP7 GAS DELEGATECALL ISZERO DUP1 ISZERO PUSH2 0x1FF4 JUMPI RETURNDATASIZE PUSH0 DUP1 RETURNDATACOPY RETURNDATASIZE PUSH0 REVERT JUMPDEST POP POP POP POP PUSH1 0x40 MLOAD RETURNDATASIZE PUSH1 0x1F NOT PUSH1 0x1F DUP3 ADD AND DUP3 ADD DUP1 PUSH1 0x40 MSTORE POP DUP2 ADD SWAP1 PUSH2 0x2018 SWAP2 SWAP1 PUSH2 0x414B JUMP JUMPDEST POP JUMP JUMPDEST PUSH1 0x5 PUSH0 SWAP1 SLOAD SWAP1 PUSH2 0x100 EXP SWAP1 DIV PUSH20 0xFFFFFFFFFFFFFFFFFFFFFFFFFFFFFFFFFFFFFFFF AND PUSH20 0xFFFFFFFFFFFFFFFFFFFFFFFFFFFFFFFFFFFFFFFF AND CALLER PUSH20 0xFFFFFFFFFFFFFFFFFFFFFFFFFFFFFFFFFFFFFFFF AND EQ PUSH2 0x20AA JUMPI PUSH1 0x40 MLOAD PUSH32 0x8C379A000000000000000000000000000000000000000000000000000000000 DUP2 MSTORE PUSH1 0x4 ADD PUSH2 0x20A1 SWAP1 PUSH2 0x4775 JUMP JUMPDEST PUSH1 0x40 MLOAD DUP1 SWAP2 SUB SWAP1 REVERT JUMPDEST PUSH1 0x1 ISZERO ISZERO PUSH1 0xC PUSH0 SWAP1 SLOAD SWAP1 PUSH2 0x100 EXP SWAP1 DIV PUSH1 0xFF AND ISZERO ISZERO EQ PUSH2 0x20FF JUMPI PUSH1 0x40 MLOAD PUSH32 0x8C379A000000000000000000000000000000000000000000000000000000000 DUP2 MSTORE PUSH1 0x4 ADD PUSH2 0x20F6 SWAP1 PUSH2 0x4462 JUMP JUMPDEST PUSH1 0x40 MLOAD DUP1 SWAP2 SUB SWAP1 REVERT JUMPDEST PUSH0 PUSH1 0xC PUSH0 PUSH2 0x100 EXP DUP2 SLOAD DUP2 PUSH1 0xFF MUL NOT AND SWAP1 DUP4 ISZERO ISZERO MUL OR SWAP1 SSTORE POP JUMP JUMPDEST PUSH20 0x0 PUSH4 0x767392B3 PUSH1 0x9 PUSH0 SWAP1 SLOAD SWAP1 PUSH2 0x100 EXP SWAP1 DIV PUSH1 0xFF AND PUSH0 PUSH1 0x40 MLOAD DUP4 PUSH4 0xFFFFFFFF AND PUSH1 0xE0 SHL DUP2 MSTORE PUSH1 0x4 ADD PUSH2 0x2161 SWAP3 SWAP2 SWAP1 PUSH2 0x508E JUMP JUMPDEST PUSH1 0x20 PUSH1 0x40 MLOAD DUP1 DUP4 SUB DUP2 DUP7 GAS DELEGATECALL ISZERO DUP1 ISZERO PUSH2 0x217C JUMPI RETURNDATASIZE PUSH0 DUP1 RETURNDATACOPY RETURNDATASIZE PUSH0 REVERT JUMPDEST POP POP POP POP PUSH1 0x40 MLOAD RETURNDATASIZE PUSH1 0x1F NOT PUSH1 0x1F DUP3 ADD AND DUP3 ADD DUP1 PUSH1 0x40 MSTORE POP DUP2 ADD SWAP1 PUSH2 0x21A0 SWAP2 SWAP1 PUSH2 0x414B JUMP JUMPDEST POP PUSH2 0x21A9 PUSH2 0x3290 JUMP JUMPDEST PUSH20 0x0 PUSH4 0x767392B3 PUSH1 0x9 PUSH0 SWAP1 SLOAD SWAP1 PUSH2 0x100 EXP SWAP1 DIV PUSH1 0xFF AND PUSH1 0x1 PUSH1 0x40 MLOAD DUP4 PUSH4 0xFFFFFFFF AND PUSH1 0xE0 SHL DUP2 MSTORE PUSH1 0x4 ADD PUSH2 0x21F1 SWAP3 SWAP2 SWAP1 PUSH2 0x5112 JUMP JUMPDEST PUSH1 0x20 PUSH1 0x40 MLOAD DUP1 DUP4 SUB DUP2 DUP7 GAS DELEGATECALL ISZERO DUP1 ISZERO PUSH2 0x220C JUMPI RETURNDATASIZE PUSH0 DUP1 RETURNDATACOPY RETURNDATASIZE PUSH0 REVERT JUMPDEST POP POP POP POP PUSH1 0x40 MLOAD RETURNDATASIZE PUSH1 0x1F NOT PUSH1 0x1F DUP3 ADD AND DUP3 ADD DUP1 PUSH1 0x40 MSTORE POP DUP2 ADD SWAP1 PUSH2 0x2230 SWAP2 SWAP1 PUSH2 0x414B JUMP JUMPDEST POP JUMP JUMPDEST ADDRESS PUSH20 0xFFFFFFFFFFFFFFFFFFFFFFFFFFFFFFFFFFFFFFFF AND PUSH4 0x6D77BD3E PUSH1 0x40 MLOAD DUP2 PUSH4 0xFFFFFFFF AND PUSH1 0xE0 SHL DUP2 MSTORE PUSH1 0x4 ADD PUSH2 0x226A SWAP1 PUSH2 0x5196 JUMP JUMPDEST PUSH1 0x20 PUSH1 0x40 MLOAD DUP1 DUP4 SUB DUP2 PUSH0 DUP8 GAS CALL SWAP3 POP POP POP DUP1 ISZERO PUSH2 0x22A5 JUMPI POP PUSH1 0x40 MLOAD RETURNDATASIZE PUSH1 0x1F NOT PUSH1 0x1F DUP3 ADD AND DUP3 ADD DUP1 PUSH1 0x40 MSTORE POP DUP2 ADD SWAP1 PUSH2 0x22A2 SWAP2 SWAP1 PUSH2 0x3EF4 JUMP JUMPDEST PUSH1 0x1 JUMPDEST PUSH2 0x2495 JUMPI PUSH2 0x22B1 PUSH2 0x3F2B JUMP JUMPDEST DUP1 PUSH4 0x8C379A0 SUB PUSH2 0x234D JUMPI POP PUSH2 0x22C5 PUSH2 0x3F4A JUMP JUMPDEST DUP1 PUSH2 0x22D0 JUMPI POP PUSH2 0x23E7 JUMP JUMPDEST PUSH20 0x0 PUSH4 0xE8C2CB16 DUP3 PUSH1 0x40 MLOAD DUP3 PUSH4 0xFFFFFFFF AND PUSH1 0xE0 SHL DUP2 MSTORE PUSH1 0x4 ADD PUSH2 0x2307 SWAP2 SWAP1 PUSH2 0x40DB JUMP JUMPDEST PUSH1 0x20 PUSH1 0x40 MLOAD DUP1 DUP4 SUB DUP2 DUP7 GAS DELEGATECALL ISZERO DUP1 ISZERO PUSH2 0x2322 JUMPI RETURNDATASIZE PUSH0 DUP1 RETURNDATACOPY RETURNDATASIZE PUSH0 REVERT JUMPDEST POP POP POP POP PUSH1 0x40 MLOAD RETURNDATASIZE PUSH1 0x1F NOT PUSH1 0x1F DUP3 ADD AND DUP3 ADD DUP1 PUSH1 0x40 MSTORE POP DUP2 ADD SWAP1 PUSH2 0x2346 SWAP2 SWAP1 PUSH2 0x414B JUMP JUMPDEST POP POP PUSH2 0x2490 JUMP JUMPDEST PUSH4 0x4E487B71 SUB PUSH2 0x23E7 JUMPI PUSH2 0x235F PUSH2 0x4176 JUMP JUMPDEST SWAP1 PUSH2 0x236A JUMPI POP PUSH2 0x23E7 JUMP JUMPDEST PUSH20 0x0 PUSH4 0x39DF137F PUSH0 PUSH1 0x40 MLOAD DUP3 PUSH4 0xFFFFFFFF AND PUSH1 0xE0 SHL DUP2 MSTORE PUSH1 0x4 ADD PUSH2 0x23A1 SWAP2 SWAP1 PUSH2 0x4213 JUMP JUMPDEST PUSH1 0x20 PUSH1 0x40 MLOAD DUP1 DUP4 SUB DUP2 DUP7 GAS DELEGATECALL ISZERO DUP1 ISZERO PUSH2 0x23BC JUMPI RETURNDATASIZE PUSH0 DUP1 RETURNDATACOPY RETURNDATASIZE PUSH0 REVERT JUMPDEST POP POP POP POP PUSH1 0x40 MLOAD RETURNDATASIZE PUSH1 0x1F NOT PUSH1 0x1F DUP3 ADD AND DUP3 ADD DUP1 PUSH1 0x40 MSTORE POP DUP2 ADD SWAP1 PUSH2 0x23E0 SWAP2 SWAP1 PUSH2 0x414B JUMP JUMPDEST POP POP PUSH2 0x2490 JUMP JUMPDEST RETURNDATASIZE DUP1 PUSH0 DUP2 EQ PUSH2 0x2411 JUMPI PUSH1 0x40 MLOAD SWAP2 POP PUSH1 0x1F NOT PUSH1 0x3F RETURNDATASIZE ADD AND DUP3 ADD PUSH1 0x40 MSTORE RETURNDATASIZE DUP3 MSTORE RETURNDATASIZE PUSH0 PUSH1 0x20 DUP5 ADD RETURNDATACOPY PUSH2 0x2416 JUMP JUMPDEST PUSH1 0x60 SWAP2 POP JUMPDEST POP PUSH20 0x0 PUSH4 0x39DF137F PUSH0 PUSH1 0x40 MLOAD DUP3 PUSH4 0xFFFFFFFF AND PUSH1 0xE0 SHL DUP2 MSTORE PUSH1 0x4 ADD PUSH2 0x244E SWAP2 SWAP1 PUSH2 0x4289 JUMP JUMPDEST PUSH1 0x20 PUSH1 0x40 MLOAD DUP1 DUP4 SUB DUP2 DUP7 GAS DELEGATECALL ISZERO DUP1 ISZERO PUSH2 0x2469 JUMPI RETURNDATASIZE PUSH0 DUP1 RETURNDATACOPY RETURNDATASIZE PUSH0 REVERT JUMPDEST POP POP POP POP PUSH1 0x40 MLOAD RETURNDATASIZE PUSH1 0x1F NOT PUSH1 0x1F DUP3 ADD AND DUP3 ADD DUP1 PUSH1 0x40 MSTORE POP DUP2 ADD SWAP1 PUSH2 0x248D SWAP2 SWAP1 PUSH2 0x414B JUMP JUMPDEST POP POP JUMPDEST PUSH2 0x2511 JUMP JUMPDEST PUSH20 0x0 PUSH4 0x561015E2 DUP3 PUSH1 0x3 PUSH1 0x40 MLOAD DUP4 PUSH4 0xFFFFFFFF AND PUSH1 0xE0 SHL DUP2 MSTORE PUSH1 0x4 ADD PUSH2 0x24CF SWAP3 SWAP2 SWAP1 PUSH2 0x51B4 JUMP JUMPDEST PUSH1 0x20 PUSH1 0x40 MLOAD DUP1 DUP4 SUB DUP2 DUP7 GAS DELEGATECALL ISZERO DUP1 ISZERO PUSH2 0x24EA JUMPI RETURNDATASIZE PUSH0 DUP1 RETURNDATACOPY RETURNDATASIZE PUSH0 REVERT JUMPDEST POP POP POP POP PUSH1 0x40 MLOAD RETURNDATASIZE PUSH1 0x1F NOT PUSH1 0x1F DUP3 ADD AND DUP3 ADD DUP1 PUSH1 0x40 MSTORE POP DUP2 ADD SWAP1 PUSH2 0x250E SWAP2 SWAP1 PUSH2 0x414B JUMP JUMPDEST POP POP JUMPDEST JUMP JUMPDEST PUSH20 0x0 PUSH4 0xABCD7960 PUSH2 0x256B PUSH1 0x40 MLOAD DUP1 PUSH1 0x40 ADD PUSH1 0x40 MSTORE DUP1 PUSH1 0xE DUP2 MSTORE PUSH1 0x20 ADD PUSH32 0x436F757274796172642043616665000000000000000000000000000000000000 DUP2 MSTORE POP PUSH2 0x17EB JUMP JUMPDEST PUSH1 0x1 PUSH1 0x40 MLOAD DUP4 PUSH4 0xFFFFFFFF AND PUSH1 0xE0 SHL DUP2 MSTORE PUSH1 0x4 ADD PUSH2 0x258A SWAP3 SWAP2 SWAP1 PUSH2 0x5238 JUMP JUMPDEST PUSH1 0x20 PUSH1 0x40 MLOAD DUP1 DUP4 SUB DUP2 DUP7 GAS DELEGATECALL ISZERO DUP1 ISZERO PUSH2 0x25A5 JUMPI RETURNDATASIZE PUSH0 DUP1 RETURNDATACOPY RETURNDATASIZE PUSH0 REVERT JUMPDEST POP POP POP POP PUSH1 0x40 MLOAD RETURNDATASIZE PUSH1 0x1F NOT PUSH1 0x1F DUP3 ADD AND DUP3 ADD DUP1 PUSH1 0x40 MSTORE POP DUP2 ADD SWAP1 PUSH2 0x25C9 SWAP2 SWAP1 PUSH2 0x414B JUMP JUMPDEST POP PUSH20 0x0 PUSH4 0xABCD7960 PUSH2 0x2622 PUSH1 0x40 MLOAD DUP1 PUSH1 0x40 ADD PUSH1 0x40 MSTORE DUP1 PUSH1 0x8 DUP2 MSTORE PUSH1 0x20 ADD PUSH32 0x556E692043616665000000000000000000000000000000000000000000000000 DUP2 MSTORE POP PUSH2 0x17EB JUMP JUMPDEST PUSH1 0x2 PUSH1 0x40 MLOAD DUP4 PUSH4 0xFFFFFFFF AND PUSH1 0xE0 SHL DUP2 MSTORE PUSH1 0x4 ADD PUSH2 0x2641 SWAP3 SWAP2 SWAP1 PUSH2 0x52BC JUMP JUMPDEST PUSH1 0x20 PUSH1 0x40 MLOAD DUP1 DUP4 SUB DUP2 DUP7 GAS DELEGATECALL ISZERO DUP1 ISZERO PUSH2 0x265C JUMPI RETURNDATASIZE PUSH0 DUP1 RETURNDATACOPY RETURNDATASIZE PUSH0 REVERT JUMPDEST POP POP POP POP PUSH1 0x40 MLOAD RETURNDATASIZE PUSH1 0x1F NOT PUSH1 0x1F DUP3 ADD AND DUP3 ADD DUP1 PUSH1 0x40 MSTORE POP DUP2 ADD SWAP1 PUSH2 0x2680 SWAP2 SWAP1 PUSH2 0x414B JUMP JUMPDEST POP JUMP JUMPDEST PUSH20 0x0 PUSH4 0x767392B3 PUSH1 0x9 PUSH0 SWAP1 SLOAD SWAP1 PUSH2 0x100 EXP SWAP1 DIV PUSH1 0xFF AND PUSH0 PUSH1 0x40 MLOAD DUP4 PUSH4 0xFFFFFFFF AND PUSH1 0xE0 SHL DUP2 MSTORE PUSH1 0x4 ADD PUSH2 0x26CA SWAP3 SWAP2 SWAP1 PUSH2 0x5340 JUMP JUMPDEST PUSH1 0x20 PUSH1 0x40 MLOAD DUP1 DUP4 SUB DUP2 DUP7 GAS DELEGATECALL ISZERO DUP1 ISZERO PUSH2 0x26E5 JUMPI RETURNDATASIZE PUSH0 DUP1 RETURNDATACOPY RETURNDATASIZE PUSH0 REVERT JUMPDEST POP POP POP POP PUSH1 0x40 MLOAD RETURNDATASIZE PUSH1 0x1F NOT PUSH1 0x1F DUP3 ADD AND DUP3 ADD DUP1 PUSH1 0x40 MSTORE POP DUP2 ADD SWAP1 PUSH2 0x2709 SWAP2 SWAP1 PUSH2 0x414B JUMP JUMPDEST POP JUMP JUMPDEST PUSH0 PUSH1 0x9 PUSH0 SWAP1 SLOAD SWAP1 PUSH2 0x100 EXP SWAP1 DIV PUSH1 0xFF AND SWAP1 POP SWAP1 JUMP JUMPDEST PUSH1 0x4 SLOAD DUP2 JUMP JUMPDEST PUSH20 0x0 PUSH4 0xABCD7960 PUSH2 0x27A1 PUSH1 0xD PUSH0 SWAP1 SLOAD SWAP1 PUSH2 0x100 EXP SWAP1 DIV PUSH20 0xFFFFFFFFFFFFFFFFFFFFFFFFFFFFFFFFFFFFFFFF AND PUSH1 0x40 MLOAD DUP1 PUSH1 0x40 ADD PUSH1 0x40 MSTORE DUP1 PUSH1 0x5 DUP2 MSTORE PUSH1 0x20 ADD PUSH32 0x416C696365000000000000000000000000000000000000000000000000000000 DUP2 MSTORE POP PUSH2 0xFF7 JUMP JUMPDEST PUSH1 0x1 PUSH1 0x40 MLOAD DUP4 PUSH4 0xFFFFFFFF AND PUSH1 0xE0 SHL DUP2 MSTORE PUSH1 0x4 ADD PUSH2 0x27C0 SWAP3 SWAP2 SWAP1 PUSH2 0x5238 JUMP JUMPDEST PUSH1 0x20 PUSH1 0x40 MLOAD DUP1 DUP4 SUB DUP2 DUP7 GAS DELEGATECALL ISZERO DUP1 ISZERO PUSH2 0x27DB JUMPI RETURNDATASIZE PUSH0 DUP1 RETURNDATACOPY RETURNDATASIZE PUSH0 REVERT JUMPDEST POP POP POP POP PUSH1 0x40 MLOAD RETURNDATASIZE PUSH1 0x1F NOT PUSH1 0x1F DUP3 ADD AND DUP3 ADD DUP1 PUSH1 0x40 MSTORE POP DUP2 ADD SWAP1 PUSH2 0x27FF SWAP2 SWAP1 PUSH2 0x414B JUMP JUMPDEST POP PUSH20 0x0 PUSH4 0xABCD7960 PUSH2 0x287A PUSH1 0xE PUSH0 SWAP1 SLOAD SWAP1 PUSH2 0x100 EXP SWAP1 DIV PUSH20 0xFFFFFFFFFFFFFFFFFFFFFFFFFFFFFFFFFFFFFFFF AND PUSH1 0x40 MLOAD DUP1 PUSH1 0x40 ADD PUSH1 0x40 MSTORE DUP1 PUSH1 0x3 DUP2 MSTORE PUSH1 0x20 ADD PUSH32 0x426F620000000000000000000000000000000000000000000000000000000000 DUP2 MSTORE POP PUSH2 0xFF7 JUMP JUMPDEST PUSH1 0x2 PUSH1 0x40 MLOAD DUP4 PUSH4 0xFFFFFFFF AND PUSH1 0xE0 SHL DUP2 MSTORE PUSH1 0x4 ADD PUSH2 0x2899 SWAP3 SWAP2 SWAP1 PUSH2 0x52BC JUMP JUMPDEST PUSH1 0x20 PUSH1 0x40 MLOAD DUP1 DUP4 SUB DUP2 DUP7 GAS DELEGATECALL ISZERO DUP1 ISZERO PUSH2 0x28B4 JUMPI RETURNDATASIZE PUSH0 DUP1 RETURNDATACOPY RETURNDATASIZE PUSH0 REVERT JUMPDEST POP POP POP POP PUSH1 0x40 MLOAD RETURNDATASIZE PUSH1 0x1F NOT PUSH1 0x1F DUP3 ADD AND DUP3 ADD DUP1 PUSH1 0x40 MSTORE POP DUP2 ADD SWAP1 PUSH2 0x28D8 SWAP2 SWAP1 PUSH2 0x414B JUMP JUMPDEST POP PUSH20 0x0 PUSH4 0xABCD7960 PUSH2 0x2953 PUSH1 0xF PUSH0 SWAP1 SLOAD SWAP1 PUSH2 0x100 EXP SWAP1 DIV PUSH20 0xFFFFFFFFFFFFFFFFFFFFFFFFFFFFFFFFFFFFFFFF AND PUSH1 0x40 MLOAD DUP1 PUSH1 0x40 ADD PUSH1 0x40 MSTORE DUP1 PUSH1 0x7 DUP2 MSTORE PUSH1 0x20 ADD PUSH32 0x436861726C696500000000000000000000000000000000000000000000000000 DUP2 MSTORE POP PUSH2 0xFF7 JUMP JUMPDEST PUSH1 0x3 PUSH1 0x40 MLOAD DUP4 PUSH4 0xFFFFFFFF AND PUSH1 0xE0 SHL DUP2 MSTORE PUSH1 0x4 ADD PUSH2 0x2972 SWAP3 SWAP2 SWAP1 PUSH2 0x53C4 JUMP JUMPDEST PUSH1 0x20 PUSH1 0x40 MLOAD DUP1 DUP4 SUB DUP2 DUP7 GAS DELEGATECALL ISZERO DUP1 ISZERO PUSH2 0x298D JUMPI RETURNDATASIZE PUSH0 DUP1 RETURNDATACOPY RETURNDATASIZE PUSH0 REVERT JUMPDEST POP POP POP POP PUSH1 0x40 MLOAD RETURNDATASIZE PUSH1 0x1F NOT PUSH1 0x1F DUP3 ADD AND DUP3 ADD DUP1 PUSH1 0x40 MSTORE POP DUP2 ADD SWAP1 PUSH2 0x29B1 SWAP2 SWAP1 PUSH2 0x414B JUMP JUMPDEST POP PUSH20 0x0 PUSH4 0xABCD7960 PUSH2 0x2A2C PUSH1 0x10 PUSH0 SWAP1 SLOAD SWAP1 PUSH2 0x100 EXP SWAP1 DIV PUSH20 0xFFFFFFFFFFFFFFFFFFFFFFFFFFFFFFFFFFFFFFFF AND PUSH1 0x40 MLOAD DUP1 PUSH1 0x40 ADD PUSH1 0x40 MSTORE DUP1 PUSH1 0x3 DUP2 MSTORE PUSH1 0x20 ADD PUSH32 0x4576650000000000000000000000000000000000000000000000000000000000 DUP2 MSTORE POP PUSH2 0xFF7 JUMP JUMPDEST PUSH1 0x4 PUSH1 0x40 MLOAD DUP4 PUSH4 0xFFFFFFFF AND PUSH1 0xE0 SHL DUP2 MSTORE PUSH1 0x4 ADD PUSH2 0x2A4B SWAP3 SWAP2 SWAP1 PUSH2 0x5448 JUMP JUMPDEST PUSH1 0x20 PUSH1 0x40 MLOAD DUP1 DUP4 SUB DUP2 DUP7 GAS DELEGATECALL ISZERO DUP1 ISZERO PUSH2 0x2A66 JUMPI RETURNDATASIZE PUSH0 DUP1 RETURNDATACOPY RETURNDATASIZE PUSH0 REVERT JUMPDEST POP POP POP POP PUSH1 0x40 MLOAD RETURNDATASIZE PUSH1 0x1F NOT PUSH1 0x1F DUP3 ADD AND DUP3 ADD DUP1 PUSH1 0x40 MSTORE POP DUP2 ADD SWAP1 PUSH2 0x2A8A SWAP2 SWAP1 PUSH2 0x414B JUMP JUMPDEST POP JUMP JUMPDEST PUSH0 PUSH1 0x20 MSTORE DUP1 PUSH0 MSTORE PUSH1 0x40 PUSH0 KECCAK256 PUSH0 SWAP2 POP SWAP1 POP DUP1 SLOAD PUSH2 0x2AA8 SWAP1 PUSH2 0x44AD JUMP JUMPDEST DUP1 PUSH1 0x1F ADD PUSH1 0x20 DUP1 SWAP2 DIV MUL PUSH1 0x20 ADD PUSH1 0x40 MLOAD SWAP1 DUP2 ADD PUSH1 0x40 MSTORE DUP1 SWAP3 SWAP2 SWAP1 DUP2 DUP2 MSTORE PUSH1 0x20 ADD DUP3 DUP1 SLOAD PUSH2 0x2AD4 SWAP1 PUSH2 0x44AD JUMP JUMPDEST DUP1 ISZERO PUSH2 0x2B1F JUMPI DUP1 PUSH1 0x1F LT PUSH2 0x2AF6 JUMPI PUSH2 0x100 DUP1 DUP4 SLOAD DIV MUL DUP4 MSTORE SWAP2 PUSH1 0x20 ADD SWAP2 PUSH2 0x2B1F JUMP JUMPDEST DUP3 ADD SWAP2 SWAP1 PUSH0 MSTORE PUSH1 0x20 PUSH0 KECCAK256 SWAP1 JUMPDEST DUP2 SLOAD DUP2 MSTORE SWAP1 PUSH1 0x1 ADD SWAP1 PUSH1 0x20 ADD DUP1 DUP4 GT PUSH2 0x2B02 JUMPI DUP3 SWAP1 SUB PUSH1 0x1F AND DUP3 ADD SWAP2 JUMPDEST POP POP POP POP POP DUP2 JUMP JUMPDEST PUSH20 0x0 PUSH4 0xE8C2CB16 PUSH1 0x6 PUSH1 0x40 MLOAD DUP3 PUSH4 0xFFFFFFFF AND PUSH1 0xE0 SHL DUP2 MSTORE PUSH1 0x4 ADD PUSH2 0x2B5F SWAP2 SWAP1 PUSH2 0x55BD JUMP JUMPDEST PUSH1 0x20 PUSH1 0x40 MLOAD DUP1 DUP4 SUB DUP2 DUP7 GAS DELEGATECALL ISZERO DUP1 ISZERO PUSH2 0x2B7A JUMPI RETURNDATASIZE PUSH0 DUP1 RETURNDATACOPY RETURNDATASIZE PUSH0 REVERT JUMPDEST POP POP POP POP PUSH1 0x40 MLOAD RETURNDATASIZE PUSH1 0x1F NOT PUSH1 0x1F DUP3 ADD AND DUP3 ADD DUP1 PUSH1 0x40 MSTORE POP DUP2 ADD SWAP1 PUSH2 0x2B9E SWAP2 SWAP1 PUSH2 0x414B JUMP JUMPDEST POP JUMP JUMPDEST PUSH1 0x2 SLOAD DUP2 JUMP JUMPDEST ADDRESS PUSH20 0xFFFFFFFFFFFFFFFFFFFFFFFFFFFFFFFFFFFFFFFF AND PUSH4 0x124258C6 PUSH1 0x1 PUSH1 0x40 MLOAD DUP3 PUSH4 0xFFFFFFFF AND PUSH1 0xE0 SHL DUP2 MSTORE PUSH1 0x4 ADD PUSH2 0x2BE1 SWAP2 SWAP1 PUSH2 0x5612 JUMP JUMPDEST PUSH1 0x20 PUSH1 0x40 MLOAD DUP1 DUP4 SUB DUP2 PUSH0 DUP8 GAS CALL SWAP3 POP POP POP DUP1 ISZERO PUSH2 0x2C1C JUMPI POP PUSH1 0x40 MLOAD RETURNDATASIZE PUSH1 0x1F NOT PUSH1 0x1F DUP3 ADD AND DUP3 ADD DUP1 PUSH1 0x40 MSTORE POP DUP2 ADD SWAP1 PUSH2 0x2C19 SWAP2 SWAP1 PUSH2 0x414B JUMP JUMPDEST PUSH1 0x1 JUMPDEST PUSH2 0x2E0C JUMPI PUSH2 0x2C28 PUSH2 0x3F2B JUMP JUMPDEST DUP1 PUSH4 0x8C379A0 SUB PUSH2 0x2CC4 JUMPI POP PUSH2 0x2C3C PUSH2 0x3F4A JUMP JUMPDEST DUP1 PUSH2 0x2C47 JUMPI POP PUSH2 0x2D5E JUMP JUMPDEST PUSH20 0x0 PUSH4 0xE8C2CB16 DUP3 PUSH1 0x40 MLOAD DUP3 PUSH4 0xFFFFFFFF AND PUSH1 0xE0 SHL DUP2 MSTORE PUSH1 0x4 ADD PUSH2 0x2C7E SWAP2 SWAP1 PUSH2 0x564D JUMP JUMPDEST PUSH1 0x20 PUSH1 0x40 MLOAD DUP1 DUP4 SUB DUP2 DUP7 GAS DELEGATECALL ISZERO DUP1 ISZERO PUSH2 0x2C99 JUMPI RETURNDATASIZE PUSH0 DUP1 RETURNDATACOPY RETURNDATASIZE PUSH0 REVERT JUMPDEST POP POP POP POP PUSH1 0x40 MLOAD RETURNDATASIZE PUSH1 0x1F NOT PUSH1 0x1F DUP3 ADD AND DUP3 ADD DUP1 PUSH1 0x40 MSTORE POP DUP2 ADD SWAP1 PUSH2 0x2CBD SWAP2 SWAP1 PUSH2 0x414B JUMP JUMPDEST POP POP PUSH2 0x2E07 JUMP JUMPDEST PUSH4 0x4E487B71 SUB PUSH2 0x2D5E JUMPI PUSH2 0x2CD6 PUSH2 0x4176 JUMP JUMPDEST SWAP1 PUSH2 0x2CE1 JUMPI POP PUSH2 0x2D5E JUMP JUMPDEST PUSH20 0x0 PUSH4 0x39DF137F PUSH0 PUSH1 0x40 MLOAD DUP3 PUSH4 0xFFFFFFFF AND PUSH1 0xE0 SHL DUP2 MSTORE PUSH1 0x4 ADD PUSH2 0x2D18 SWAP2 SWAP1 PUSH2 0x4213 JUMP JUMPDEST PUSH1 0x20 PUSH1 0x40 MLOAD DUP1 DUP4 SUB DUP2 DUP7 GAS DELEGATECALL ISZERO DUP1 ISZERO PUSH2 0x2D33 JUMPI RETURNDATASIZE PUSH0 DUP1 RETURNDATACOPY RETURNDATASIZE PUSH0 REVERT JUMPDEST POP POP POP POP PUSH1 0x40 MLOAD RETURNDATASIZE PUSH1 0x1F NOT PUSH1 0x1F DUP3 ADD AND DUP3 ADD DUP1 PUSH1 0x40 MSTORE POP DUP2 ADD SWAP1 PUSH2 0x2D57 SWAP2 SWAP1 PUSH2 0x414B JUMP JUMPDEST POP POP PUSH2 0x2E07 JUMP JUMPDEST RETURNDATASIZE DUP1 PUSH0 DUP2 EQ PUSH2 0x2D88 JUMPI PUSH1 0x40 MLOAD SWAP2 POP PUSH1 0x1F NOT PUSH1 0x3F RETURNDATASIZE ADD AND DUP3 ADD PUSH1 0x40 MSTORE RETURNDATASIZE DUP3 MSTORE RETURNDATASIZE PUSH0 PUSH1 0x20 DUP5 ADD RETURNDATACOPY PUSH2 0x2D8D JUMP JUMPDEST PUSH1 0x60 SWAP2 POP JUMPDEST POP PUSH20 0x0 PUSH4 0x39DF137F PUSH0 PUSH1 0x40 MLOAD DUP3 PUSH4 0xFFFFFFFF AND PUSH1 0xE0 SHL DUP2 MSTORE PUSH1 0x4 ADD PUSH2 0x2DC5 SWAP2 SWAP1 PUSH2 0x56DD JUMP JUMPDEST PUSH1 0x20 PUSH1 0x40 MLOAD DUP1 DUP4 SUB DUP2 DUP7 GAS DELEGATECALL ISZERO DUP1 ISZERO PUSH2 0x2DE0 JUMPI RETURNDATASIZE PUSH0 DUP1 RETURNDATACOPY RETURNDATASIZE PUSH0 REVERT JUMPDEST POP POP POP POP PUSH1 0x40 MLOAD RETURNDATASIZE PUSH1 0x1F NOT PUSH1 0x1F DUP3 ADD AND DUP3 ADD DUP1 PUSH1 0x40 MSTORE POP DUP2 ADD SWAP1 PUSH2 0x2E04 SWAP2 SWAP1 PUSH2 0x414B JUMP JUMPDEST POP POP JUMPDEST PUSH2 0x2E88 JUMP JUMPDEST PUSH20 0x0 PUSH4 0x44781A00 DUP3 PUSH1 0x1 PUSH1 0x40 MLOAD DUP4 PUSH4 0xFFFFFFFF AND PUSH1 0xE0 SHL DUP2 MSTORE PUSH1 0x4 ADD PUSH2 0x2E46 SWAP3 SWAP2 SWAP1 PUSH2 0x4719 JUMP JUMPDEST PUSH1 0x20 PUSH1 0x40 MLOAD DUP1 DUP4 SUB DUP2 DUP7 GAS DELEGATECALL ISZERO DUP1 ISZERO PUSH2 0x2E61 JUMPI RETURNDATASIZE PUSH0 DUP1 RETURNDATACOPY RETURNDATASIZE PUSH0 REVERT JUMPDEST POP POP POP POP PUSH1 0x40 MLOAD RETURNDATASIZE PUSH1 0x1F NOT PUSH1 0x1F DUP3 ADD AND DUP3 ADD DUP1 PUSH1 0x40 MSTORE POP DUP2 ADD SWAP1 PUSH2 0x2E85 SWAP2 SWAP1 PUSH2 0x414B JUMP JUMPDEST POP POP JUMPDEST JUMP JUMPDEST PUSH20 0x0 PUSH4 0x39DF137F PUSH2 0x2EAE PUSH1 0x1 PUSH2 0x8C5 JUMP JUMPDEST PUSH1 0x40 MLOAD DUP3 PUSH4 0xFFFFFFFF AND PUSH1 0xE0 SHL DUP2 MSTORE PUSH1 0x4 ADD PUSH2 0x2ECA SWAP2 SWAP1 PUSH2 0x4CDC JUMP JUMPDEST PUSH1 0x20 PUSH1 0x40 MLOAD DUP1 DUP4 SUB DUP2 DUP7 GAS DELEGATECALL ISZERO DUP1 ISZERO PUSH2 0x2EE5 JUMPI RETURNDATASIZE PUSH0 DUP1 RETURNDATACOPY RETURNDATASIZE PUSH0 REVERT JUMPDEST POP POP POP POP PUSH1 0x40 MLOAD RETURNDATASIZE PUSH1 0x1F NOT PUSH1 0x1F DUP3 ADD AND DUP3 ADD DUP1 PUSH1 0x40 MSTORE POP DUP2 ADD SWAP1 PUSH2 0x2F09 SWAP2 SWAP1 PUSH2 0x414B JUMP JUMPDEST POP JUMP JUMPDEST PUSH1 0x6 DUP1 SLOAD PUSH2 0x2F19 SWAP1 PUSH2 0x44AD JUMP JUMPDEST DUP1 PUSH1 0x1F ADD PUSH1 0x20 DUP1 SWAP2 DIV MUL PUSH1 0x20 ADD PUSH1 0x40 MLOAD SWAP1 DUP2 ADD PUSH1 0x40 MSTORE DUP1 SWAP3 SWAP2 SWAP1 DUP2 DUP2 MSTORE PUSH1 0x20 ADD DUP3 DUP1 SLOAD PUSH2 0x2F45 SWAP1 PUSH2 0x44AD JUMP JUMPDEST DUP1 ISZERO PUSH2 0x2F90 JUMPI DUP1 PUSH1 0x1F LT PUSH2 0x2F67 JUMPI PUSH2 0x100 DUP1 DUP4 SLOAD DIV MUL DUP4 MSTORE SWAP2 PUSH1 0x20 ADD SWAP2 PUSH2 0x2F90 JUMP JUMPDEST DUP3 ADD SWAP2 SWAP1 PUSH0 MSTORE PUSH1 0x20 PUSH0 KECCAK256 SWAP1 JUMPDEST DUP2 SLOAD DUP2 MSTORE SWAP1 PUSH1 0x1 ADD SWAP1 PUSH1 0x20 ADD DUP1 DUP4 GT PUSH2 0x2F73 JUMPI DUP3 SWAP1 SUB PUSH1 0x1F AND DUP3 ADD SWAP2 JUMPDEST POP POP POP POP POP DUP2 JUMP JUMPDEST ADDRESS PUSH20 0xFFFFFFFFFFFFFFFFFFFFFFFFFFFFFFFFFFFFFFFF AND PUSH4 0xEB4439FB PUSH1 0x40 MLOAD DUP2 PUSH4 0xFFFFFFFF AND PUSH1 0xE0 SHL DUP2 MSTORE PUSH1 0x4 ADD PUSH0 PUSH1 0x40 MLOAD DUP1 DUP4 SUB DUP2 PUSH0 DUP8 DUP1 EXTCODESIZE ISZERO DUP1 ISZERO PUSH2 0x2FDD JUMPI PUSH0 DUP1 REVERT JUMPDEST POP GAS CALL SWAP3 POP POP POP DUP1 ISZERO PUSH2 0x2FEE JUMPI POP PUSH1 0x1 JUMPDEST PUSH2 0x31DE JUMPI PUSH2 0x2FFA PUSH2 0x3F2B JUMP JUMPDEST DUP1 PUSH4 0x8C379A0 SUB PUSH2 0x3096 JUMPI POP PUSH2 0x300E PUSH2 0x3F4A JUMP JUMPDEST DUP1 PUSH2 0x3019 JUMPI POP PUSH2 0x3130 JUMP JUMPDEST PUSH20 0x0 PUSH4 0xE8C2CB16 DUP3 PUSH1 0x40 MLOAD DUP3 PUSH4 0xFFFFFFFF AND PUSH1 0xE0 SHL DUP2 MSTORE PUSH1 0x4 ADD PUSH2 0x3050 SWAP2 SWAP1 PUSH2 0x40DB JUMP JUMPDEST PUSH1 0x20 PUSH1 0x40 MLOAD DUP1 DUP4 SUB DUP2 DUP7 GAS DELEGATECALL ISZERO DUP1 ISZERO PUSH2 0x306B JUMPI RETURNDATASIZE PUSH0 DUP1 RETURNDATACOPY RETURNDATASIZE PUSH0 REVERT JUMPDEST POP POP POP POP PUSH1 0x40 MLOAD RETURNDATASIZE PUSH1 0x1F NOT PUSH1 0x1F DUP3 ADD AND DUP3 ADD DUP1 PUSH1 0x40 MSTORE POP DUP2 ADD SWAP1 PUSH2 0x308F SWAP2 SWAP1 PUSH2 0x414B JUMP JUMPDEST POP POP PUSH2 0x31D9 JUMP JUMPDEST PUSH4 0x4E487B71 SUB PUSH2 0x3130 JUMPI PUSH2 0x30A8 PUSH2 0x4176 JUMP JUMPDEST SWAP1 PUSH2 0x30B3 JUMPI POP PUSH2 0x3130 JUMP JUMPDEST PUSH20 0x0 PUSH4 0x39DF137F PUSH0 PUSH1 0x40 MLOAD DUP3 PUSH4 0xFFFFFFFF AND PUSH1 0xE0 SHL DUP2 MSTORE PUSH1 0x4 ADD PUSH2 0x30EA SWAP2 SWAP1 PUSH2 0x4213 JUMP JUMPDEST PUSH1 0x20 PUSH1 0x40 MLOAD DUP1 DUP4 SUB DUP2 DUP7 GAS DELEGATECALL ISZERO DUP1 ISZERO PUSH2 0x3105 JUMPI RETURNDATASIZE PUSH0 DUP1 RETURNDATACOPY RETURNDATASIZE PUSH0 REVERT JUMPDEST POP POP POP POP PUSH1 0x40 MLOAD RETURNDATASIZE PUSH1 0x1F NOT PUSH1 0x1F DUP3 ADD AND DUP3 ADD DUP1 PUSH1 0x40 MSTORE POP DUP2 ADD SWAP1 PUSH2 0x3129 SWAP2 SWAP1 PUSH2 0x414B JUMP JUMPDEST POP POP PUSH2 0x31D9 JUMP JUMPDEST RETURNDATASIZE DUP1 PUSH0 DUP2 EQ PUSH2 0x315A JUMPI PUSH1 0x40 MLOAD SWAP2 POP PUSH1 0x1F NOT PUSH1 0x3F RETURNDATASIZE ADD AND DUP3 ADD PUSH1 0x40 MSTORE RETURNDATASIZE DUP3 MSTORE RETURNDATASIZE PUSH0 PUSH1 0x20 DUP5 ADD RETURNDATACOPY PUSH2 0x315F JUMP JUMPDEST PUSH1 0x60 SWAP2 POP JUMPDEST POP PUSH20 0x0 PUSH4 0x39DF137F PUSH0 PUSH1 0x40 MLOAD DUP3 PUSH4 0xFFFFFFFF AND PUSH1 0xE0 SHL DUP2 MSTORE PUSH1 0x4 ADD PUSH2 0x3197 SWAP2 SWAP1 PUSH2 0x56DD JUMP JUMPDEST PUSH1 0x20 PUSH1 0x40 MLOAD DUP1 DUP4 SUB DUP2 DUP7 GAS DELEGATECALL ISZERO DUP1 ISZERO PUSH2 0x31B2 JUMPI RETURNDATASIZE PUSH0 DUP1 RETURNDATACOPY RETURNDATASIZE PUSH0 REVERT JUMPDEST POP POP POP POP PUSH1 0x40 MLOAD RETURNDATASIZE PUSH1 0x1F NOT PUSH1 0x1F DUP3 ADD AND DUP3 ADD DUP1 PUSH1 0x40 MSTORE POP DUP2 ADD SWAP1 PUSH2 0x31D6 SWAP2 SWAP1 PUSH2 0x414B JUMP JUMPDEST POP POP JUMPDEST PUSH2 0x3266 JUMP JUMPDEST PUSH20 0x0 PUSH4 0x44781A00 PUSH1 0x9 PUSH0 SWAP1 SLOAD SWAP1 PUSH2 0x100 EXP SWAP1 DIV PUSH1 0xFF AND PUSH0 PUSH1 0x40 MLOAD DUP4 PUSH4 0xFFFFFFFF AND PUSH1 0xE0 SHL DUP2 MSTORE PUSH1 0x4 ADD PUSH2 0x3225 SWAP3 SWAP2 SWAP1 PUSH2 0x4719 JUMP JUMPDEST PUSH1 0x20 PUSH1 0x40 MLOAD DUP1 DUP4 SUB DUP2 DUP7 GAS DELEGATECALL ISZERO DUP1 ISZERO PUSH2 0x3240 JUMPI RETURNDATASIZE PUSH0 DUP1 RETURNDATACOPY RETURNDATASIZE PUSH0 REVERT JUMPDEST POP POP POP POP PUSH1 0x40 MLOAD RETURNDATASIZE PUSH1 0x1F NOT PUSH1 0x1F DUP3 ADD AND DUP3 ADD DUP1 PUSH1 0x40 MSTORE POP DUP2 ADD SWAP1 PUSH2 0x3264 SWAP2 SWAP1 PUSH2 0x414B JUMP JUMPDEST POP JUMPDEST JUMP JUMPDEST PUSH0 PUSH1 0x5 PUSH0 SWAP1 SLOAD SWAP1 PUSH2 0x100 EXP SWAP1 DIV PUSH20 0xFFFFFFFFFFFFFFFFFFFFFFFFFFFFFFFFFFFFFFFF AND SWAP1 POP SWAP1 JUMP JUMPDEST PUSH1 0x5 PUSH0 SWAP1 SLOAD SWAP1 PUSH2 0x100 EXP SWAP1 DIV PUSH20 0xFFFFFFFFFFFFFFFFFFFFFFFFFFFFFFFFFFFFFFFF AND PUSH20 0xFFFFFFFFFFFFFFFFFFFFFFFFFFFFFFFFFFFFFFFF AND CALLER PUSH20 0xFFFFFFFFFFFFFFFFFFFFFFFFFFFFFFFFFFFFFFFF AND EQ PUSH2 0x331F JUMPI PUSH1 0x40 MLOAD PUSH32 0x8C379A000000000000000000000000000000000000000000000000000000000 DUP2 MSTORE PUSH1 0x4 ADD PUSH2 0x3316 SWAP1 PUSH2 0x4775 JUMP JUMPDEST PUSH1 0x40 MLOAD DUP1 SWAP2 SUB SWAP1 REVERT JUMPDEST PUSH1 0x1 ISZERO ISZERO PUSH1 0xC PUSH0 SWAP1 SLOAD SWAP1 PUSH2 0x100 EXP SWAP1 DIV PUSH1 0xFF AND ISZERO ISZERO EQ PUSH2 0x3374 JUMPI PUSH1 0x40 MLOAD PUSH32 0x8C379A000000000000000000000000000000000000000000000000000000000 DUP2 MSTORE PUSH1 0x4 ADD PUSH2 0x336B SWAP1 PUSH2 0x4462 JUMP JUMPDEST PUSH1 0x40 MLOAD DUP1 SWAP2 SUB SWAP1 REVERT JUMPDEST PUSH1 0x2 DUP1 SLOAD LT ISZERO PUSH2 0x33B9 JUMPI PUSH1 0x40 MLOAD PUSH32 0x8C379A000000000000000000000000000000000000000000000000000000000 DUP2 MSTORE PUSH1 0x4 ADD PUSH2 0x33B0 SWAP1 PUSH2 0x5779 JUMP JUMPDEST PUSH1 0x40 MLOAD DUP1 SWAP2 SUB SWAP1 REVERT JUMPDEST PUSH1 0x2 PUSH1 0x3 SLOAD LT ISZERO PUSH2 0x33FF JUMPI PUSH1 0x40 MLOAD PUSH32 0x8C379A000000000000000000000000000000000000000000000000000000000 DUP2 MSTORE PUSH1 0x4 ADD PUSH2 0x33F6 SWAP1 PUSH2 0x5807 JUMP JUMPDEST PUSH1 0x40 MLOAD DUP1 SWAP2 SUB SWAP1 REVERT JUMPDEST PUSH1 0xB SLOAD NUMBER LT PUSH2 0x3443 JUMPI PUSH1 0x40 MLOAD PUSH32 0x8C379A000000000000000000000000000000000000000000000000000000000 DUP2 MSTORE PUSH1 0x4 ADD PUSH2 0x343A SWAP1 PUSH2 0x5895 JUMP JUMPDEST PUSH1 0x40 MLOAD DUP1 SWAP2 SUB SWAP1 REVERT JUMPDEST PUSH1 0x1 PUSH1 0x9 PUSH0 PUSH2 0x100 EXP DUP2 SLOAD DUP2 PUSH1 0xFF MUL NOT AND SWAP1 DUP4 ISZERO ISZERO MUL OR SWAP1 SSTORE POP JUMP JUMPDEST ADDRESS PUSH20 0xFFFFFFFFFFFFFFFFFFFFFFFFFFFFFFFFFFFFFFFF AND PUSH4 0x124258C6 PUSH1 0x1 PUSH1 0x40 MLOAD DUP3 PUSH4 0xFFFFFFFF AND PUSH1 0xE0 SHL DUP2 MSTORE PUSH1 0x4 ADD PUSH2 0x3499 SWAP2 SWAP1 PUSH2 0x5612 JUMP JUMPDEST PUSH1 0x20 PUSH1 0x40 MLOAD DUP1 DUP4 SUB DUP2 PUSH0 DUP8 GAS CALL SWAP3 POP POP POP DUP1 ISZERO PUSH2 0x34D4 JUMPI POP PUSH1 0x40 MLOAD RETURNDATASIZE PUSH1 0x1F NOT PUSH1 0x1F DUP3 ADD AND DUP3 ADD DUP1 PUSH1 0x40 MSTORE POP DUP2 ADD SWAP1 PUSH2 0x34D1 SWAP2 SWAP1 PUSH2 0x414B JUMP JUMPDEST PUSH1 0x1 JUMPDEST PUSH2 0x36C4 JUMPI PUSH2 0x34E0 PUSH2 0x3F2B JUMP JUMPDEST DUP1 PUSH4 0x8C379A0 SUB PUSH2 0x357C JUMPI POP PUSH2 0x34F4 PUSH2 0x3F4A JUMP JUMPDEST DUP1 PUSH2 0x34FF JUMPI POP PUSH2 0x3616 JUMP JUMPDEST PUSH20 0x0 PUSH4 0xE8C2CB16 DUP3 PUSH1 0x40 MLOAD DUP3 PUSH4 0xFFFFFFFF AND PUSH1 0xE0 SHL DUP2 MSTORE PUSH1 0x4 ADD PUSH2 0x3536 SWAP2 SWAP1 PUSH2 0x58D5 JUMP JUMPDEST PUSH1 0x20 PUSH1 0x40 MLOAD DUP1 DUP4 SUB DUP2 DUP7 GAS DELEGATECALL ISZERO DUP1 ISZERO PUSH2 0x3551 JUMPI RETURNDATASIZE PUSH0 DUP1 RETURNDATACOPY RETURNDATASIZE PUSH0 REVERT JUMPDEST POP POP POP POP PUSH1 0x40 MLOAD RETURNDATASIZE PUSH1 0x1F NOT PUSH1 0x1F DUP3 ADD AND DUP3 ADD DUP1 PUSH1 0x40 MSTORE POP DUP2 ADD SWAP1 PUSH2 0x3575 SWAP2 SWAP1 PUSH2 0x414B JUMP JUMPDEST POP POP PUSH2 0x36BF JUMP JUMPDEST PUSH4 0x4E487B71 SUB PUSH2 0x3616 JUMPI PUSH2 0x358E PUSH2 0x4176 JUMP JUMPDEST SWAP1 PUSH2 0x3599 JUMPI POP PUSH2 0x3616 JUMP JUMPDEST PUSH20 0x0 PUSH4 0x39DF137F PUSH0 PUSH1 0x40 MLOAD DUP3 PUSH4 0xFFFFFFFF AND PUSH1 0xE0 SHL DUP2 MSTORE PUSH1 0x4 ADD PUSH2 0x35D0 SWAP2 SWAP1 PUSH2 0x4213 JUMP JUMPDEST PUSH1 0x20 PUSH1 0x40 MLOAD DUP1 DUP4 SUB DUP2 DUP7 GAS DELEGATECALL ISZERO DUP1 ISZERO PUSH2 0x35EB JUMPI RETURNDATASIZE PUSH0 DUP1 RETURNDATACOPY RETURNDATASIZE PUSH0 REVERT JUMPDEST POP POP POP POP PUSH1 0x40 MLOAD RETURNDATASIZE PUSH1 0x1F NOT PUSH1 0x1F DUP3 ADD AND DUP3 ADD DUP1 PUSH1 0x40 MSTORE POP DUP2 ADD SWAP1 PUSH2 0x360F SWAP2 SWAP1 PUSH2 0x414B JUMP JUMPDEST POP POP PUSH2 0x36BF JUMP JUMPDEST RETURNDATASIZE DUP1 PUSH0 DUP2 EQ PUSH2 0x3640 JUMPI PUSH1 0x40 MLOAD SWAP2 POP PUSH1 0x1F NOT PUSH1 0x3F RETURNDATASIZE ADD AND DUP3 ADD PUSH1 0x40 MSTORE RETURNDATASIZE DUP3 MSTORE RETURNDATASIZE PUSH0 PUSH1 0x20 DUP5 ADD RETURNDATACOPY PUSH2 0x3645 JUMP JUMPDEST PUSH1 0x60 SWAP2 POP JUMPDEST POP PUSH20 0x0 PUSH4 0x39DF137F PUSH0 PUSH1 0x40 MLOAD DUP3 PUSH4 0xFFFFFFFF AND PUSH1 0xE0 SHL DUP2 MSTORE PUSH1 0x4 ADD PUSH2 0x367D SWAP2 SWAP1 PUSH2 0x56DD JUMP JUMPDEST PUSH1 0x20 PUSH1 0x40 MLOAD DUP1 DUP4 SUB DUP2 DUP7 GAS DELEGATECALL ISZERO DUP1 ISZERO PUSH2 0x3698 JUMPI RETURNDATASIZE PUSH0 DUP1 RETURNDATACOPY RETURNDATASIZE PUSH0 REVERT JUMPDEST POP POP POP POP PUSH1 0x40 MLOAD RETURNDATASIZE PUSH1 0x1F NOT PUSH1 0x1F DUP3 ADD AND DUP3 ADD DUP1 PUSH1 0x40 MSTORE POP DUP2 ADD SWAP1 PUSH2 0x36BC SWAP2 SWAP1 PUSH2 0x414B JUMP JUMPDEST POP POP JUMPDEST PUSH2 0x3740 JUMP JUMPDEST PUSH20 0x0 PUSH4 0x44781A00 DUP3 PUSH1 0x1 PUSH1 0x40 MLOAD DUP4 PUSH4 0xFFFFFFFF AND PUSH1 0xE0 SHL DUP2 MSTORE PUSH1 0x4 ADD PUSH2 0x36FE SWAP3 SWAP2 SWAP1 PUSH2 0x4719 JUMP JUMPDEST PUSH1 0x20 PUSH1 0x40 MLOAD DUP1 DUP4 SUB DUP2 DUP7 GAS DELEGATECALL ISZERO DUP1 ISZERO PUSH2 0x3719 JUMPI RETURNDATASIZE PUSH0 DUP1 RETURNDATACOPY RETURNDATASIZE PUSH0 REVERT JUMPDEST POP POP POP POP PUSH1 0x40 MLOAD RETURNDATASIZE PUSH1 0x1F NOT PUSH1 0x1F DUP3 ADD AND DUP3 ADD DUP1 PUSH1 0x40 MSTORE POP DUP2 ADD SWAP1 PUSH2 0x373D SWAP2 SWAP1 PUSH2 0x414B JUMP JUMPDEST POP POP JUMPDEST JUMP JUMPDEST PUSH20 0x0 PUSH4 0x767392B3 PUSH1 0xC PUSH0 SWAP1 SLOAD SWAP1 PUSH2 0x100 EXP SWAP1 DIV PUSH1 0xFF AND PUSH1 0x1 PUSH1 0x40 MLOAD DUP4 PUSH4 0xFFFFFFFF AND PUSH1 0xE0 SHL DUP2 MSTORE PUSH1 0x4 ADD PUSH2 0x378A SWAP3 SWAP2 SWAP1 PUSH2 0x591B JUMP JUMPDEST PUSH1 0x20 PUSH1 0x40 MLOAD DUP1 DUP4 SUB DUP2 DUP7 GAS DELEGATECALL ISZERO DUP1 ISZERO PUSH2 0x37A5 JUMPI RETURNDATASIZE PUSH0 DUP1 RETURNDATACOPY RETURNDATASIZE PUSH0 REVERT JUMPDEST POP POP POP POP PUSH1 0x40 MLOAD RETURNDATASIZE PUSH1 0x1F NOT PUSH1 0x1F DUP3 ADD AND DUP3 ADD DUP1 PUSH1 0x40 MSTORE POP DUP2 ADD SWAP1 PUSH2 0x37C9 SWAP2 SWAP1 PUSH2 0x414B JUMP JUMPDEST POP PUSH2 0x37D2 PUSH2 0x201B JUMP JUMPDEST PUSH20 0x0 PUSH4 0x767392B3 PUSH1 0xC PUSH0 SWAP1 SLOAD SWAP1 PUSH2 0x100 EXP SWAP1 DIV PUSH1 0xFF AND PUSH0 PUSH1 0x40 MLOAD DUP4 PUSH4 0xFFFFFFFF AND PUSH1 0xE0 SHL DUP2 MSTORE PUSH1 0x4 ADD PUSH2 0x3819 SWAP3 SWAP2 SWAP1 PUSH2 0x591B JUMP JUMPDEST PUSH1 0x20 PUSH1 0x40 MLOAD DUP1 DUP4 SUB DUP2 DUP7 GAS DELEGATECALL ISZERO DUP1 ISZERO PUSH2 0x3834 JUMPI RETURNDATASIZE PUSH0 DUP1 RETURNDATACOPY RETURNDATASIZE PUSH0 REVERT JUMPDEST POP POP POP POP PUSH1 0x40 MLOAD RETURNDATASIZE PUSH1 0x1F NOT PUSH1 0x1F DUP3 ADD AND DUP3 ADD DUP1 PUSH1 0x40 MSTORE POP DUP2 ADD SWAP1 PUSH2 0x3858 SWAP2 SWAP1 PUSH2 0x414B JUMP JUMPDEST POP JUMP JUMPDEST PUSH1 0x1 ISZERO ISZERO PUSH1 0xC PUSH0 SWAP1 SLOAD SWAP1 PUSH2 0x100 EXP SWAP1 DIV PUSH1 0xFF AND ISZERO ISZERO EQ PUSH2 0x38B0 JUMPI PUSH1 0x40 MLOAD PUSH32 0x8C379A000000000000000000000000000000000000000000000000000000000 DUP2 MSTORE PUSH1 0x4 ADD PUSH2 0x38A7 SWAP1 PUSH2 0x4462 JUMP JUMPDEST PUSH1 0x40 MLOAD DUP1 SWAP2 SUB SWAP1 REVERT JUMPDEST PUSH0 DUP1 PUSH0 JUMPDEST PUSH1 0x4 SLOAD DUP2 LT ISZERO PUSH2 0x39BB JUMPI PUSH0 PUSH1 0x1 SWAP1 POP PUSH0 PUSH1 0x8 PUSH0 PUSH1 0x7 DUP6 DUP2 SLOAD DUP2 LT PUSH2 0x38DB JUMPI PUSH2 0x38DA PUSH2 0x5955 JUMP JUMPDEST JUMPDEST SWAP1 PUSH0 MSTORE PUSH1 0x20 PUSH0 KECCAK256 SWAP1 PUSH1 0x2 MUL ADD PUSH1 0x1 ADD SLOAD DUP2 MSTORE PUSH1 0x20 ADD SWAP1 DUP2 MSTORE PUSH1 0x20 ADD PUSH0 KECCAK256 SLOAD GT ISZERO PUSH2 0x3942 JUMPI PUSH1 0x8 PUSH0 PUSH1 0x7 DUP5 DUP2 SLOAD DUP2 LT PUSH2 0x3916 JUMPI PUSH2 0x3915 PUSH2 0x5955 JUMP JUMPDEST JUMPDEST SWAP1 PUSH0 MSTORE PUSH1 0x20 PUSH0 KECCAK256 SWAP1 PUSH1 0x2 MUL ADD PUSH1 0x1 ADD SLOAD DUP2 MSTORE PUSH1 0x20 ADD SWAP1 DUP2 MSTORE PUSH1 0x20 ADD PUSH0 KECCAK256 SLOAD DUP2 PUSH2 0x393F SWAP2 SWAP1 PUSH2 0x46E6 JUMP JUMPDEST SWAP1 POP JUMPDEST DUP1 PUSH1 0x8 PUSH0 PUSH1 0x7 DUP6 DUP2 SLOAD DUP2 LT PUSH2 0x395A JUMPI PUSH2 0x3959 PUSH2 0x5955 JUMP JUMPDEST JUMPDEST SWAP1 PUSH0 MSTORE PUSH1 0x20 PUSH0 KECCAK256 SWAP1 PUSH1 0x2 MUL ADD PUSH1 0x1 ADD SLOAD DUP2 MSTORE PUSH1 0x20 ADD SWAP1 DUP2 MSTORE PUSH1 0x20 ADD PUSH0 KECCAK256 DUP2 SWAP1 SSTORE POP DUP4 DUP2 GT ISZERO PUSH2 0x39AD JUMPI DUP1 SWAP4 POP PUSH1 0x7 DUP3 DUP2 SLOAD DUP2 LT PUSH2 0x399A JUMPI PUSH2 0x3999 PUSH2 0x5955 JUMP JUMPDEST JUMPDEST SWAP1 PUSH0 MSTORE PUSH1 0x20 PUSH0 KECCAK256 SWAP1 PUSH1 0x2 MUL ADD PUSH1 0x1 ADD SLOAD SWAP3 POP JUMPDEST POP DUP1 DUP1 PUSH1 0x1 ADD SWAP2 POP POP PUSH2 0x38B4 JUMP JUMPDEST POP PUSH0 DUP1 DUP3 DUP2 MSTORE PUSH1 0x20 ADD SWAP1 DUP2 MSTORE PUSH1 0x20 ADD PUSH0 KECCAK256 PUSH1 0x6 SWAP1 DUP2 PUSH2 0x39DA SWAP2 SWAP1 PUSH2 0x59A9 JUMP JUMPDEST POP PUSH0 PUSH1 0x9 PUSH0 PUSH2 0x100 EXP DUP2 SLOAD DUP2 PUSH1 0xFF MUL NOT AND SWAP1 DUP4 ISZERO ISZERO MUL OR SWAP1 SSTORE POP POP POP JUMP JUMPDEST PUSH1 0x40 MLOAD DUP1 PUSH1 0x40 ADD PUSH1 0x40 MSTORE DUP1 PUSH0 PUSH20 0xFFFFFFFFFFFFFFFFFFFFFFFFFFFFFFFFFFFFFFFF AND DUP2 MSTORE PUSH1 0x20 ADD PUSH0 DUP2 MSTORE POP SWAP1 JUMP JUMPDEST PUSH1 0x40 MLOAD DUP1 PUSH1 0x40 ADD PUSH1 0x40 MSTORE DUP1 PUSH1 0x60 DUP2 MSTORE PUSH1 0x20 ADD PUSH0 ISZERO ISZERO DUP2 MSTORE POP SWAP1 JUMP JUMPDEST PUSH0 PUSH1 0x40 MLOAD SWAP1 POP SWAP1 JUMP JUMPDEST PUSH0 DUP1 REVERT JUMPDEST PUSH0 DUP1 REVERT JUMPDEST PUSH0 DUP2 SWAP1 POP SWAP2 SWAP1 POP JUMP JUMPDEST PUSH2 0x3A64 DUP2 PUSH2 0x3A52 JUMP JUMPDEST DUP2 EQ PUSH2 0x3A6E JUMPI PUSH0 DUP1 REVERT JUMPDEST POP JUMP JUMPDEST PUSH0 DUP2 CALLDATALOAD SWAP1 POP PUSH2 0x3A7F DUP2 PUSH2 0x3A5B JUMP JUMPDEST SWAP3 SWAP2 POP POP JUMP JUMPDEST PUSH0 PUSH1 0x20 DUP3 DUP5 SUB SLT ISZERO PUSH2 0x3A9A JUMPI PUSH2 0x3A99 PUSH2 0x3A4A JUMP JUMPDEST JUMPDEST PUSH0 PUSH2 0x3AA7 DUP5 DUP3 DUP6 ADD PUSH2 0x3A71 JUMP JUMPDEST SWAP2 POP POP SWAP3 SWAP2 POP POP JUMP JUMPDEST PUSH0 DUP2 ISZERO ISZERO SWAP1 POP SWAP2 SWAP1 POP JUMP JUMPDEST PUSH2 0x3AC4 DUP2 PUSH2 0x3AB0 JUMP JUMPDEST DUP3 MSTORE POP POP JUMP JUMPDEST PUSH0 PUSH1 0x20 DUP3 ADD SWAP1 POP PUSH2 0x3ADD PUSH0 DUP4 ADD DUP5 PUSH2 0x3ABB JUMP JUMPDEST SWAP3 SWAP2 POP POP JUMP JUMPDEST PUSH0 PUSH20 0xFFFFFFFFFFFFFFFFFFFFFFFFFFFFFFFFFFFFFFFF DUP3 AND SWAP1 POP SWAP2 SWAP1 POP JUMP JUMPDEST PUSH0 PUSH2 0x3B0C DUP3 PUSH2 0x3AE3 JUMP JUMPDEST SWAP1 POP SWAP2 SWAP1 POP JUMP JUMPDEST PUSH2 0x3B1C DUP2 PUSH2 0x3B02 JUMP JUMPDEST DUP2 EQ PUSH2 0x3B26 JUMPI PUSH0 DUP1 REVERT JUMPDEST POP JUMP JUMPDEST PUSH0 DUP2 CALLDATALOAD SWAP1 POP PUSH2 0x3B37 DUP2 PUSH2 0x3B13 JUMP JUMPDEST SWAP3 SWAP2 POP POP JUMP JUMPDEST PUSH0 PUSH1 0x20 DUP3 DUP5 SUB SLT ISZERO PUSH2 0x3B52 JUMPI PUSH2 0x3B51 PUSH2 0x3A4A JUMP JUMPDEST JUMPDEST PUSH0 PUSH2 0x3B5F DUP5 DUP3 DUP6 ADD PUSH2 0x3B29 JUMP JUMPDEST SWAP2 POP POP SWAP3 SWAP2 POP POP JUMP JUMPDEST PUSH0 DUP2 MLOAD SWAP1 POP SWAP2 SWAP1 POP JUMP JUMPDEST PUSH0 DUP3 DUP3 MSTORE PUSH1 0x20 DUP3 ADD SWAP1 POP SWAP3 SWAP2 POP POP JUMP JUMPDEST DUP3 DUP2 DUP4 MCOPY PUSH0 DUP4 DUP4 ADD MSTORE POP POP POP JUMP JUMPDEST PUSH0 PUSH1 0x1F NOT PUSH1 0x1F DUP4 ADD AND SWAP1 POP SWAP2 SWAP1 POP JUMP JUMPDEST PUSH0 PUSH2 0x3BAA DUP3 PUSH2 0x3B68 JUMP JUMPDEST PUSH2 0x3BB4 DUP2 DUP6 PUSH2 0x3B72 JUMP JUMPDEST SWAP4 POP PUSH2 0x3BC4 DUP2 DUP6 PUSH1 0x20 DUP7 ADD PUSH2 0x3B82 JUMP JUMPDEST PUSH2 0x3BCD DUP2 PUSH2 0x3B90 JUMP JUMPDEST DUP5 ADD SWAP2 POP POP SWAP3 SWAP2 POP POP JUMP JUMPDEST PUSH0 PUSH1 0x40 DUP3 ADD SWAP1 POP DUP2 DUP2 SUB PUSH0 DUP4 ADD MSTORE PUSH2 0x3BF0 DUP2 DUP6 PUSH2 0x3BA0 JUMP JUMPDEST SWAP1 POP PUSH2 0x3BFF PUSH1 0x20 DUP4 ADD DUP5 PUSH2 0x3ABB JUMP JUMPDEST SWAP4 SWAP3 POP POP POP JUMP JUMPDEST PUSH0 DUP1 REVERT JUMPDEST PUSH0 DUP1 REVERT JUMPDEST PUSH32 0x4E487B7100000000000000000000000000000000000000000000000000000000 PUSH0 MSTORE PUSH1 0x41 PUSH1 0x4 MSTORE PUSH1 0x24 PUSH0 REVERT JUMPDEST PUSH2 0x3C44 DUP3 PUSH2 0x3B90 JUMP JUMPDEST DUP2 ADD DUP2 DUP2 LT PUSH8 0xFFFFFFFFFFFFFFFF DUP3 GT OR ISZERO PUSH2 0x3C63 JUMPI PUSH2 0x3C62 PUSH2 0x3C0E JUMP JUMPDEST JUMPDEST DUP1 PUSH1 0x40 MSTORE POP POP POP JUMP JUMPDEST PUSH0 PUSH2 0x3C75 PUSH2 0x3A41 JUMP JUMPDEST SWAP1 POP PUSH2 0x3C81 DUP3 DUP3 PUSH2 0x3C3B JUMP JUMPDEST SWAP2 SWAP1 POP JUMP JUMPDEST PUSH0 PUSH8 0xFFFFFFFFFFFFFFFF DUP3 GT ISZERO PUSH2 0x3CA0 JUMPI PUSH2 0x3C9F PUSH2 0x3C0E JUMP JUMPDEST JUMPDEST PUSH2 0x3CA9 DUP3 PUSH2 0x3B90 JUMP JUMPDEST SWAP1 POP PUSH1 0x20 DUP2 ADD SWAP1 POP SWAP2 SWAP1 POP JUMP JUMPDEST DUP3 DUP2 DUP4 CALLDATACOPY PUSH0 DUP4 DUP4 ADD MSTORE POP POP POP JUMP JUMPDEST PUSH0 PUSH2 0x3CD6 PUSH2 0x3CD1 DUP5 PUSH2 0x3C86 JUMP JUMPDEST PUSH2 0x3C6C JUMP JUMPDEST SWAP1 POP DUP3 DUP2 MSTORE PUSH1 0x20 DUP2 ADD DUP5 DUP5 DUP5 ADD GT ISZERO PUSH2 0x3CF2 JUMPI PUSH2 0x3CF1 PUSH2 0x3C0A JUMP JUMPDEST JUMPDEST PUSH2 0x3CFD DUP5 DUP3 DUP6 PUSH2 0x3CB6 JUMP JUMPDEST POP SWAP4 SWAP3 POP POP POP JUMP JUMPDEST PUSH0 DUP3 PUSH1 0x1F DUP4 ADD SLT PUSH2 0x3D19 JUMPI PUSH2 0x3D18 PUSH2 0x3C06 JUMP JUMPDEST JUMPDEST DUP2 CALLDATALOAD PUSH2 0x3D29 DUP5 DUP3 PUSH1 0x20 DUP7 ADD PUSH2 0x3CC4 JUMP JUMPDEST SWAP2 POP POP SWAP3 SWAP2 POP POP JUMP JUMPDEST PUSH0 DUP1 PUSH1 0x40 DUP4 DUP6 SUB SLT ISZERO PUSH2 0x3D48 JUMPI PUSH2 0x3D47 PUSH2 0x3A4A JUMP JUMPDEST JUMPDEST PUSH0 PUSH2 0x3D55 DUP6 DUP3 DUP7 ADD PUSH2 0x3B29 JUMP JUMPDEST SWAP3 POP POP PUSH1 0x20 DUP4 ADD CALLDATALOAD PUSH8 0xFFFFFFFFFFFFFFFF DUP2 GT ISZERO PUSH2 0x3D76 JUMPI PUSH2 0x3D75 PUSH2 0x3A4E JUMP JUMPDEST JUMPDEST PUSH2 0x3D82 DUP6 DUP3 DUP7 ADD PUSH2 0x3D05 JUMP JUMPDEST SWAP2 POP POP SWAP3 POP SWAP3 SWAP1 POP JUMP JUMPDEST PUSH2 0x3D95 DUP2 PUSH2 0x3A52 JUMP JUMPDEST DUP3 MSTORE POP POP JUMP JUMPDEST PUSH0 PUSH1 0x20 DUP3 ADD SWAP1 POP PUSH2 0x3DAE PUSH0 DUP4 ADD DUP5 PUSH2 0x3D8C JUMP JUMPDEST SWAP3 SWAP2 POP POP JUMP JUMPDEST PUSH2 0x3DBD DUP2 PUSH2 0x3B02 JUMP JUMPDEST DUP3 MSTORE POP POP JUMP JUMPDEST PUSH0 PUSH1 0x20 DUP3 ADD SWAP1 POP PUSH2 0x3DD6 PUSH0 DUP4 ADD DUP5 PUSH2 0x3DB4 JUMP JUMPDEST SWAP3 SWAP2 POP POP JUMP JUMPDEST PUSH0 PUSH1 0x40 DUP3 ADD SWAP1 POP PUSH2 0x3DEF PUSH0 DUP4 ADD DUP6 PUSH2 0x3DB4 JUMP JUMPDEST PUSH2 0x3DFC PUSH1 0x20 DUP4 ADD DUP5 PUSH2 0x3D8C JUMP JUMPDEST SWAP4 SWAP3 POP POP POP JUMP JUMPDEST PUSH0 PUSH1 0x20 DUP3 DUP5 SUB SLT ISZERO PUSH2 0x3E18 JUMPI PUSH2 0x3E17 PUSH2 0x3A4A JUMP JUMPDEST JUMPDEST PUSH0 DUP3 ADD CALLDATALOAD PUSH8 0xFFFFFFFFFFFFFFFF DUP2 GT ISZERO PUSH2 0x3E35 JUMPI PUSH2 0x3E34 PUSH2 0x3A4E JUMP JUMPDEST JUMPDEST PUSH2 0x3E41 DUP5 DUP3 DUP6 ADD PUSH2 0x3D05 JUMP JUMPDEST SWAP2 POP POP SWAP3 SWAP2 POP POP JUMP JUMPDEST PUSH0 PUSH1 0x20 DUP3 ADD SWAP1 POP DUP2 DUP2 SUB PUSH0 DUP4 ADD MSTORE PUSH2 0x3E62 DUP2 DUP5 PUSH2 0x3BA0 JUMP JUMPDEST SWAP1 POP SWAP3 SWAP2 POP POP JUMP JUMPDEST PUSH32 0x44616E69656C7300000000000000000000000000000000000000000000000000 PUSH0 DUP3 ADD MSTORE POP JUMP JUMPDEST PUSH0 PUSH2 0x3E9E PUSH1 0x7 DUP4 PUSH2 0x3B72 JUMP JUMPDEST SWAP2 POP PUSH2 0x3EA9 DUP3 PUSH2 0x3E6A JUMP JUMPDEST PUSH1 0x20 DUP3 ADD SWAP1 POP SWAP2 SWAP1 POP JUMP JUMPDEST PUSH0 PUSH1 0x40 DUP3 ADD SWAP1 POP PUSH2 0x3EC7 PUSH0 DUP4 ADD DUP5 PUSH2 0x3DB4 JUMP JUMPDEST DUP2 DUP2 SUB PUSH1 0x20 DUP4 ADD MSTORE PUSH2 0x3ED8 DUP2 PUSH2 0x3E92 JUMP JUMPDEST SWAP1 POP SWAP3 SWAP2 POP POP JUMP JUMPDEST PUSH0 DUP2 MLOAD SWAP1 POP PUSH2 0x3EEE DUP2 PUSH2 0x3A5B JUMP JUMPDEST SWAP3 SWAP2 POP POP JUMP JUMPDEST PUSH0 PUSH1 0x20 DUP3 DUP5 SUB SLT ISZERO PUSH2 0x3F09 JUMPI PUSH2 0x3F08 PUSH2 0x3A4A JUMP JUMPDEST JUMPDEST PUSH0 PUSH2 0x3F16 DUP5 DUP3 DUP6 ADD PUSH2 0x3EE0 JUMP JUMPDEST SWAP2 POP POP SWAP3 SWAP2 POP POP JUMP JUMPDEST PUSH0 DUP2 PUSH1 0xE0 SHR SWAP1 POP SWAP2 SWAP1 POP JUMP JUMPDEST PUSH0 PUSH1 0x3 RETURNDATASIZE GT ISZERO PUSH2 0x3F47 JUMPI PUSH1 0x4 PUSH0 DUP1 RETURNDATACOPY PUSH2 0x3F44 PUSH0 MLOAD PUSH2 0x3F1F JUMP JUMPDEST SWAP1 POP JUMPDEST SWAP1 JUMP JUMPDEST PUSH0 PUSH1 0x44 RETURNDATASIZE LT PUSH2 0x3FD6 JUMPI PUSH2 0x3F5B PUSH2 0x3A41 JUMP JUMPDEST PUSH1 0x4 RETURNDATASIZE SUB PUSH1 0x4 DUP3 RETURNDATACOPY DUP1 MLOAD RETURNDATASIZE PUSH1 0x24 DUP3 ADD GT PUSH8 0xFFFFFFFFFFFFFFFF DUP3 GT OR ISZERO PUSH2 0x3F83 JUMPI POP POP PUSH2 0x3FD6 JUMP JUMPDEST DUP1 DUP3 ADD DUP1 MLOAD PUSH8 0xFFFFFFFFFFFFFFFF DUP2 GT ISZERO PUSH2 0x3FA1 JUMPI POP POP POP POP PUSH2 0x3FD6 JUMP JUMPDEST DUP1 PUSH1 0x20 DUP4 ADD ADD PUSH1 0x4 RETURNDATASIZE SUB DUP6 ADD DUP2 GT ISZERO PUSH2 0x3FBE JUMPI POP POP POP POP POP PUSH2 0x3FD6 JUMP JUMPDEST PUSH2 0x3FCD DUP3 PUSH1 0x20 ADD DUP6 ADD DUP7 PUSH2 0x3C3B JUMP JUMPDEST DUP3 SWAP6 POP POP POP POP POP POP JUMPDEST SWAP1 JUMP JUMPDEST PUSH0 DUP3 DUP3 MSTORE PUSH1 0x20 DUP3 ADD SWAP1 POP SWAP3 SWAP2 POP POP JUMP JUMPDEST PUSH0 PUSH2 0x3FF3 DUP3 PUSH2 0x3B68 JUMP JUMPDEST PUSH2 0x3FFD DUP2 DUP6 PUSH2 0x3FD9 JUMP JUMPDEST SWAP4 POP PUSH2 0x400D DUP2 DUP6 PUSH1 0x20 DUP7 ADD PUSH2 0x3B82 JUMP JUMPDEST PUSH2 0x4016 DUP2 PUSH2 0x3B90 JUMP JUMPDEST DUP5 ADD SWAP2 POP POP SWAP3 SWAP2 POP POP JUMP JUMPDEST PUSH32 0x43616E206F6E6C7920626520657865637574656420627920746865206D616E61 PUSH0 DUP3 ADD MSTORE PUSH32 0x6765720000000000000000000000000000000000000000000000000000000000 PUSH1 0x20 DUP3 ADD MSTORE POP JUMP JUMPDEST PUSH0 PUSH2 0x407B PUSH1 0x23 DUP4 PUSH2 0x3FD9 JUMP JUMPDEST SWAP2 POP PUSH2 0x4086 DUP3 PUSH2 0x4021 JUMP JUMPDEST PUSH1 0x40 DUP3 ADD SWAP1 POP SWAP2 SWAP1 POP JUMP JUMPDEST PUSH32 0x4661696C6564207769746820756E657870656374656420726561736F6E000000 PUSH0 DUP3 ADD MSTORE POP JUMP JUMPDEST PUSH0 PUSH2 0x40C5 PUSH1 0x1D DUP4 PUSH2 0x3FD9 JUMP JUMPDEST SWAP2 POP PUSH2 0x40D0 DUP3 PUSH2 0x4091 JUMP JUMPDEST PUSH1 0x20 DUP3 ADD SWAP1 POP SWAP2 SWAP1 POP JUMP JUMPDEST PUSH0 PUSH1 0x60 DUP3 ADD SWAP1 POP DUP2 DUP2 SUB PUSH0 DUP4 ADD MSTORE PUSH2 0x40F3 DUP2 DUP5 PUSH2 0x3FE9 JUMP JUMPDEST SWAP1 POP DUP2 DUP2 SUB PUSH1 0x20 DUP4 ADD MSTORE PUSH2 0x4106 DUP2 PUSH2 0x406F JUMP JUMPDEST SWAP1 POP DUP2 DUP2 SUB PUSH1 0x40 DUP4 ADD MSTORE PUSH2 0x4119 DUP2 PUSH2 0x40B9 JUMP JUMPDEST SWAP1 POP SWAP3 SWAP2 POP POP JUMP JUMPDEST PUSH2 0x412A DUP2 PUSH2 0x3AB0 JUMP JUMPDEST DUP2 EQ PUSH2 0x4134 JUMPI PUSH0 DUP1 REVERT JUMPDEST POP JUMP JUMPDEST PUSH0 DUP2 MLOAD SWAP1 POP PUSH2 0x4145 DUP2 PUSH2 0x4121 JUMP JUMPDEST SWAP3 SWAP2 POP POP JUMP JUMPDEST PUSH0 PUSH1 0x20 DUP3 DUP5 SUB SLT ISZERO PUSH2 0x4160 JUMPI PUSH2 0x415F PUSH2 0x3A4A JUMP JUMPDEST JUMPDEST PUSH0 PUSH2 0x416D DUP5 DUP3 DUP6 ADD PUSH2 0x4137 JUMP JUMPDEST SWAP2 POP POP SWAP3 SWAP2 POP POP JUMP JUMPDEST PUSH0 DUP1 PUSH1 0x23 RETURNDATASIZE GT ISZERO PUSH2 0x4190 JUMPI PUSH1 0x20 PUSH1 0x4 PUSH0 RETURNDATACOPY PUSH1 0x1 SWAP2 POP PUSH0 MLOAD SWAP1 POP JUMPDEST SWAP1 SWAP2 JUMP JUMPDEST PUSH2 0x419D DUP2 PUSH2 0x3AB0 JUMP JUMPDEST DUP3 MSTORE POP POP JUMP JUMPDEST PUSH32 0x4661696C656420756E65787065637465642077697468206572726F7220636F64 PUSH0 DUP3 ADD MSTORE PUSH32 0x6500000000000000000000000000000000000000000000000000000000000000 PUSH1 0x20 DUP3 ADD MSTORE POP JUMP JUMPDEST PUSH0 PUSH2 0x41FD PUSH1 0x21 DUP4 PUSH2 0x3FD9 JUMP JUMPDEST SWAP2 POP PUSH2 0x4208 DUP3 PUSH2 0x41A3 JUMP JUMPDEST PUSH1 0x40 DUP3 ADD SWAP1 POP SWAP2 SWAP1 POP JUMP JUMPDEST PUSH0 PUSH1 0x40 DUP3 ADD SWAP1 POP PUSH2 0x4226 PUSH0 DUP4 ADD DUP5 PUSH2 0x4194 JUMP JUMPDEST DUP2 DUP2 SUB PUSH1 0x20 DUP4 ADD MSTORE PUSH2 0x4237 DUP2 PUSH2 0x41F1 JUMP JUMPDEST SWAP1 POP SWAP3 SWAP2 POP POP JUMP JUMPDEST PUSH32 0x4661696C656420756E6578706563746564000000000000000000000000000000 PUSH0 DUP3 ADD MSTORE POP JUMP JUMPDEST PUSH0 PUSH2 0x4273 PUSH1 0x11 DUP4 PUSH2 0x3FD9 JUMP JUMPDEST SWAP2 POP PUSH2 0x427E DUP3 PUSH2 0x423F JUMP JUMPDEST PUSH1 0x20 DUP3 ADD SWAP1 POP SWAP2 SWAP1 POP JUMP JUMPDEST PUSH0 PUSH1 0x40 DUP3 ADD SWAP1 POP PUSH2 0x429C PUSH0 DUP4 ADD DUP5 PUSH2 0x4194 JUMP JUMPDEST DUP2 DUP2 SUB PUSH1 0x20 DUP4 ADD MSTORE PUSH2 0x42AD DUP2 PUSH2 0x4267 JUMP JUMPDEST SWAP1 POP SWAP3 SWAP2 POP POP JUMP JUMPDEST PUSH2 0x42BE DUP2 PUSH2 0x3A52 JUMP JUMPDEST DUP3 MSTORE POP POP JUMP JUMPDEST PUSH0 DUP2 SWAP1 POP SWAP2 SWAP1 POP JUMP JUMPDEST PUSH0 DUP2 SWAP1 POP SWAP2 SWAP1 POP JUMP JUMPDEST PUSH0 PUSH2 0x42F0 PUSH2 0x42EB PUSH2 0x42E6 DUP5 PUSH2 0x42C4 JUMP JUMPDEST PUSH2 0x42CD JUMP JUMPDEST PUSH2 0x3A52 JUMP JUMPDEST SWAP1 POP SWAP2 SWAP1 POP JUMP JUMPDEST PUSH2 0x4300 DUP2 PUSH2 0x42D6 JUMP JUMPDEST DUP3 MSTORE POP POP JUMP JUMPDEST PUSH32 0x4D6574686F6420657865637574696F6E20646964206E6F74206661696C000000 PUSH0 DUP3 ADD MSTORE POP JUMP JUMPDEST PUSH0 PUSH2 0x433A PUSH1 0x1D DUP4 PUSH2 0x3FD9 JUMP JUMPDEST SWAP2 POP PUSH2 0x4345 DUP3 PUSH2 0x4306 JUMP JUMPDEST PUSH1 0x20 DUP3 ADD SWAP1 POP SWAP2 SWAP1 POP JUMP JUMPDEST PUSH0 PUSH1 0x60 DUP3 ADD SWAP1 POP PUSH2 0x4363 PUSH0 DUP4 ADD DUP6 PUSH2 0x42B5 JUMP JUMPDEST PUSH2 0x4370 PUSH1 0x20 DUP4 ADD DUP5 PUSH2 0x42F7 JUMP JUMPDEST DUP2 DUP2 SUB PUSH1 0x40 DUP4 ADD MSTORE PUSH2 0x4381 DUP2 PUSH2 0x432E JUMP JUMPDEST SWAP1 POP SWAP4 SWAP3 POP POP POP JUMP JUMPDEST PUSH32 0x43616E20766F7465206F6E6C79207768696C6520766F74696E67206973206F70 PUSH0 DUP3 ADD MSTORE PUSH32 0x656E000000000000000000000000000000000000000000000000000000000000 PUSH1 0x20 DUP3 ADD MSTORE POP JUMP JUMPDEST PUSH0 PUSH2 0x43E4 PUSH1 0x22 DUP4 PUSH2 0x3B72 JUMP JUMPDEST SWAP2 POP PUSH2 0x43EF DUP3 PUSH2 0x438A JUMP JUMPDEST PUSH1 0x40 DUP3 ADD SWAP1 POP SWAP2 SWAP1 POP JUMP JUMPDEST PUSH0 PUSH1 0x20 DUP3 ADD SWAP1 POP DUP2 DUP2 SUB PUSH0 DUP4 ADD MSTORE PUSH2 0x4411 DUP2 PUSH2 0x43D8 JUMP JUMPDEST SWAP1 POP SWAP2 SWAP1 POP JUMP JUMPDEST PUSH32 0x4F6E6C79207768656E20636F6E74726163742069732061637469766500000000 PUSH0 DUP3 ADD MSTORE POP JUMP JUMPDEST PUSH0 PUSH2 0x444C PUSH1 0x1C DUP4 PUSH2 0x3B72 JUMP JUMPDEST SWAP2 POP PUSH2 0x4457 DUP3 PUSH2 0x4418 JUMP JUMPDEST PUSH1 0x20 DUP3 ADD SWAP1 POP SWAP2 SWAP1 POP JUMP JUMPDEST PUSH0 PUSH1 0x20 DUP3 ADD SWAP1 POP DUP2 DUP2 SUB PUSH0 DUP4 ADD MSTORE PUSH2 0x4479 DUP2 PUSH2 0x4440 JUMP JUMPDEST SWAP1 POP SWAP2 SWAP1 POP JUMP JUMPDEST PUSH32 0x4E487B7100000000000000000000000000000000000000000000000000000000 PUSH0 MSTORE PUSH1 0x22 PUSH1 0x4 MSTORE PUSH1 0x24 PUSH0 REVERT JUMPDEST PUSH0 PUSH1 0x2 DUP3 DIV SWAP1 POP PUSH1 0x1 DUP3 AND DUP1 PUSH2 0x44C4 JUMPI PUSH1 0x7F DUP3 AND SWAP2 POP JUMPDEST PUSH1 0x20 DUP3 LT DUP2 SUB PUSH2 0x44D7 JUMPI PUSH2 0x44D6 PUSH2 0x4480 JUMP JUMPDEST JUMPDEST POP SWAP2 SWAP1 POP JUMP JUMPDEST PUSH32 0x467269656E6420646F6573206E6F742065786973740000000000000000000000 PUSH0 DUP3 ADD MSTORE POP JUMP JUMPDEST PUSH0 PUSH2 0x4511 PUSH1 0x15 DUP4 PUSH2 0x3B72 JUMP JUMPDEST SWAP2 POP PUSH2 0x451C DUP3 PUSH2 0x44DD JUMP JUMPDEST PUSH1 0x20 DUP3 ADD SWAP1 POP SWAP2 SWAP1 POP JUMP JUMPDEST PUSH0 PUSH1 0x20 DUP3 ADD SWAP1 POP DUP2 DUP2 SUB PUSH0 DUP4 ADD MSTORE PUSH2 0x453E DUP2 PUSH2 0x4505 JUMP JUMPDEST SWAP1 POP SWAP2 SWAP1 POP JUMP JUMPDEST PUSH32 0x52657374617572616E7420766F74656420646F6573206E6F7420657869737400 PUSH0 DUP3 ADD MSTORE POP JUMP JUMPDEST PUSH0 PUSH2 0x4579 PUSH1 0x1F DUP4 PUSH2 0x3B72 JUMP JUMPDEST SWAP2 POP PUSH2 0x4584 DUP3 PUSH2 0x4545 JUMP JUMPDEST PUSH1 0x20 DUP3 ADD SWAP1 POP SWAP2 SWAP1 POP JUMP JUMPDEST PUSH0 PUSH1 0x20 DUP3 ADD SWAP1 POP DUP2 DUP2 SUB PUSH0 DUP4 ADD MSTORE PUSH2 0x45A6 DUP2 PUSH2 0x456D JUMP JUMPDEST SWAP1 POP SWAP2 SWAP1 POP JUMP JUMPDEST PUSH32 0x467269656E642068617320766F74656420616C72656164790000000000000000 PUSH0 DUP3 ADD MSTORE POP JUMP JUMPDEST PUSH0 PUSH2 0x45E1 PUSH1 0x18 DUP4 PUSH2 0x3B72 JUMP JUMPDEST SWAP2 POP PUSH2 0x45EC DUP3 PUSH2 0x45AD JUMP JUMPDEST PUSH1 0x20 DUP3 ADD SWAP1 POP SWAP2 SWAP1 POP JUMP JUMPDEST PUSH0 PUSH1 0x20 DUP3 ADD SWAP1 POP DUP2 DUP2 SUB PUSH0 DUP4 ADD MSTORE PUSH2 0x460E DUP2 PUSH2 0x45D5 JUMP JUMPDEST SWAP1 POP SWAP2 SWAP1 POP JUMP JUMPDEST PUSH32 0x4E487B7100000000000000000000000000000000000000000000000000000000 PUSH0 MSTORE PUSH1 0x11 PUSH1 0x4 MSTORE PUSH1 0x24 PUSH0 REVERT JUMPDEST PUSH0 PUSH2 0x464C DUP3 PUSH2 0x3A52 JUMP JUMPDEST SWAP2 POP PUSH32 0xFFFFFFFFFFFFFFFFFFFFFFFFFFFFFFFFFFFFFFFFFFFFFFFFFFFFFFFFFFFFFFFF DUP3 SUB PUSH2 0x467E JUMPI PUSH2 0x467D PUSH2 0x4615 JUMP JUMPDEST JUMPDEST PUSH1 0x1 DUP3 ADD SWAP1 POP SWAP2 SWAP1 POP JUMP JUMPDEST PUSH32 0x4E487B7100000000000000000000000000000000000000000000000000000000 PUSH0 MSTORE PUSH1 0x12 PUSH1 0x4 MSTORE PUSH1 0x24 PUSH0 REVERT JUMPDEST PUSH0 PUSH2 0x46C0 DUP3 PUSH2 0x3A52 JUMP JUMPDEST SWAP2 POP PUSH2 0x46CB DUP4 PUSH2 0x3A52 JUMP JUMPDEST SWAP3 POP DUP3 PUSH2 0x46DB JUMPI PUSH2 0x46DA PUSH2 0x4689 JUMP JUMPDEST JUMPDEST DUP3 DUP3 DIV SWAP1 POP SWAP3 SWAP2 POP POP JUMP JUMPDEST PUSH0 PUSH2 0x46F0 DUP3 PUSH2 0x3A52 JUMP JUMPDEST SWAP2 POP PUSH2 0x46FB DUP4 PUSH2 0x3A52 JUMP JUMPDEST SWAP3 POP DUP3 DUP3 ADD SWAP1 POP DUP1 DUP3 GT ISZERO PUSH2 0x4713 JUMPI PUSH2 0x4712 PUSH2 0x4615 JUMP JUMPDEST JUMPDEST SWAP3 SWAP2 POP POP JUMP JUMPDEST PUSH0 PUSH1 0x60 DUP3 ADD SWAP1 POP PUSH2 0x472C PUSH0 DUP4 ADD DUP6 PUSH2 0x4194 JUMP JUMPDEST PUSH2 0x4739 PUSH1 0x20 DUP4 ADD DUP5 PUSH2 0x4194 JUMP JUMPDEST DUP2 DUP2 SUB PUSH1 0x40 DUP4 ADD MSTORE PUSH2 0x474A DUP2 PUSH2 0x432E JUMP JUMPDEST SWAP1 POP SWAP4 SWAP3 POP POP POP JUMP JUMPDEST PUSH0 PUSH2 0x475F PUSH1 0x23 DUP4 PUSH2 0x3B72 JUMP JUMPDEST SWAP2 POP PUSH2 0x476A DUP3 PUSH2 0x4021 JUMP JUMPDEST PUSH1 0x40 DUP3 ADD SWAP1 POP SWAP2 SWAP1 POP JUMP JUMPDEST PUSH0 PUSH1 0x20 DUP3 ADD SWAP1 POP DUP2 DUP2 SUB PUSH0 DUP4 ADD MSTORE PUSH2 0x478C DUP2 PUSH2 0x4753 JUMP JUMPDEST SWAP1 POP SWAP2 SWAP1 POP JUMP JUMPDEST PUSH32 0x43616E2061646420667269656E6473206F722072657374617572616E7473206F PUSH0 DUP3 ADD MSTORE PUSH32 0x6E6C79207768656E20766F74696E672069732064697361626C65640000000000 PUSH1 0x20 DUP3 ADD MSTORE POP JUMP JUMPDEST PUSH0 PUSH2 0x47ED PUSH1 0x3B DUP4 PUSH2 0x3B72 JUMP JUMPDEST SWAP2 POP PUSH2 0x47F8 DUP3 PUSH2 0x4793 JUMP JUMPDEST PUSH1 0x40 DUP3 ADD SWAP1 POP SWAP2 SWAP1 POP JUMP JUMPDEST PUSH0 PUSH1 0x20 DUP3 ADD SWAP1 POP DUP2 DUP2 SUB PUSH0 DUP4 ADD MSTORE PUSH2 0x481A DUP2 PUSH2 0x47E1 JUMP JUMPDEST SWAP1 POP SWAP2 SWAP1 POP JUMP JUMPDEST PUSH32 0x54696D656F757420726561636865640000000000000000000000000000000000 PUSH0 DUP3 ADD MSTORE POP JUMP JUMPDEST PUSH0 PUSH2 0x4855 PUSH1 0xF DUP4 PUSH2 0x3B72 JUMP JUMPDEST SWAP2 POP PUSH2 0x4860 DUP3 PUSH2 0x4821 JUMP JUMPDEST PUSH1 0x20 DUP3 ADD SWAP1 POP SWAP2 SWAP1 POP JUMP JUMPDEST PUSH0 PUSH1 0x20 DUP3 ADD SWAP1 POP DUP2 DUP2 SUB PUSH0 DUP4 ADD MSTORE PUSH2 0x4882 DUP2 PUSH2 0x4849 JUMP JUMPDEST SWAP1 POP SWAP2 SWAP1 POP JUMP JUMPDEST PUSH32 0x467269656E6420616C7265616479206578697374730000000000000000000000 PUSH0 DUP3 ADD MSTORE POP JUMP JUMPDEST PUSH0 PUSH2 0x48BD PUSH1 0x15 DUP4 PUSH2 0x3B72 JUMP JUMPDEST SWAP2 POP PUSH2 0x48C8 DUP3 PUSH2 0x4889 JUMP JUMPDEST PUSH1 0x20 DUP3 ADD SWAP1 POP SWAP2 SWAP1 POP JUMP JUMPDEST PUSH0 PUSH1 0x20 DUP3 ADD SWAP1 POP DUP2 DUP2 SUB PUSH0 DUP4 ADD MSTORE PUSH2 0x48EA DUP2 PUSH2 0x48B1 JUMP JUMPDEST SWAP1 POP SWAP2 SWAP1 POP JUMP JUMPDEST PUSH0 DUP2 SWAP1 POP DUP2 PUSH0 MSTORE PUSH1 0x20 PUSH0 KECCAK256 SWAP1 POP SWAP2 SWAP1 POP JUMP JUMPDEST PUSH0 PUSH1 0x20 PUSH1 0x1F DUP4 ADD DIV SWAP1 POP SWAP2 SWAP1 POP JUMP JUMPDEST PUSH0 DUP3 DUP3 SHL SWAP1 POP SWAP3 SWAP2 POP POP JUMP JUMPDEST PUSH0 PUSH1 0x8 DUP4 MUL PUSH2 0x494D PUSH32 0xFFFFFFFFFFFFFFFFFFFFFFFFFFFFFFFFFFFFFFFFFFFFFFFFFFFFFFFFFFFFFFFF DUP3 PUSH2 0x4912 JUMP JUMPDEST PUSH2 0x4957 DUP7 DUP4 PUSH2 0x4912 JUMP JUMPDEST SWAP6 POP DUP1 NOT DUP5 AND SWAP4 POP DUP1 DUP7 AND DUP5 OR SWAP3 POP POP POP SWAP4 SWAP3 POP POP POP JUMP JUMPDEST PUSH0 PUSH2 0x4989 PUSH2 0x4984 PUSH2 0x497F DUP5 PUSH2 0x3A52 JUMP JUMPDEST PUSH2 0x42CD JUMP JUMPDEST PUSH2 0x3A52 JUMP JUMPDEST SWAP1 POP SWAP2 SWAP1 POP JUMP JUMPDEST PUSH0 DUP2 SWAP1 POP SWAP2 SWAP1 POP JUMP JUMPDEST PUSH2 0x49A2 DUP4 PUSH2 0x496F JUMP JUMPDEST PUSH2 0x49B6 PUSH2 0x49AE DUP3 PUSH2 0x4990 JUMP JUMPDEST DUP5 DUP5 SLOAD PUSH2 0x491E JUMP JUMPDEST DUP3 SSTORE POP POP POP POP JUMP JUMPDEST PUSH0 SWAP1 JUMP JUMPDEST PUSH2 0x49CA PUSH2 0x49BE JUMP JUMPDEST PUSH2 0x49D5 DUP2 DUP5 DUP5 PUSH2 0x4999 JUMP JUMPDEST POP POP POP JUMP JUMPDEST JUMPDEST DUP2 DUP2 LT ISZERO PUSH2 0x49F8 JUMPI PUSH2 0x49ED PUSH0 DUP3 PUSH2 0x49C2 JUMP JUMPDEST PUSH1 0x1 DUP2 ADD SWAP1 POP PUSH2 0x49DB JUMP JUMPDEST POP POP JUMP JUMPDEST PUSH1 0x1F DUP3 GT ISZERO PUSH2 0x4A3D JUMPI PUSH2 0x4A0E DUP2 PUSH2 0x48F1 JUMP JUMPDEST PUSH2 0x4A17 DUP5 PUSH2 0x4903 JUMP JUMPDEST DUP2 ADD PUSH1 0x20 DUP6 LT ISZERO PUSH2 0x4A26 JUMPI DUP2 SWAP1 POP JUMPDEST PUSH2 0x4A3A PUSH2 0x4A32 DUP6 PUSH2 0x4903 JUMP JUMPDEST DUP4 ADD DUP3 PUSH2 0x49DA JUMP JUMPDEST POP POP JUMPDEST POP POP POP JUMP JUMPDEST PUSH0 DUP3 DUP3 SHR SWAP1 POP SWAP3 SWAP2 POP POP JUMP JUMPDEST PUSH0 PUSH2 0x4A5D PUSH0 NOT DUP5 PUSH1 0x8 MUL PUSH2 0x4A42 JUMP JUMPDEST NOT DUP1 DUP4 AND SWAP2 POP POP SWAP3 SWAP2 POP POP JUMP JUMPDEST PUSH0 PUSH2 0x4A75 DUP4 DUP4 PUSH2 0x4A4E JUMP JUMPDEST SWAP2 POP DUP3 PUSH1 0x2 MUL DUP3 OR SWAP1 POP SWAP3 SWAP2 POP POP JUMP JUMPDEST PUSH2 0x4A8E DUP3 PUSH2 0x3B68 JUMP JUMPDEST PUSH8 0xFFFFFFFFFFFFFFFF DUP2 GT ISZERO PUSH2 0x4AA7 JUMPI PUSH2 0x4AA6 PUSH2 0x3C0E JUMP JUMPDEST JUMPDEST PUSH2 0x4AB1 DUP3 SLOAD PUSH2 0x44AD JUMP JUMPDEST PUSH2 0x4ABC DUP3 DUP3 DUP6 PUSH2 0x49FC JUMP JUMPDEST PUSH0 PUSH1 0x20 SWAP1 POP PUSH1 0x1F DUP4 GT PUSH1 0x1 DUP2 EQ PUSH2 0x4AED JUMPI PUSH0 DUP5 ISZERO PUSH2 0x4ADB JUMPI DUP3 DUP8 ADD MLOAD SWAP1 POP JUMPDEST PUSH2 0x4AE5 DUP6 DUP3 PUSH2 0x4A6A JUMP JUMPDEST DUP7 SSTORE POP PUSH2 0x4B4C JUMP JUMPDEST PUSH1 0x1F NOT DUP5 AND PUSH2 0x4AFB DUP7 PUSH2 0x48F1 JUMP JUMPDEST PUSH0 JUMPDEST DUP3 DUP2 LT ISZERO PUSH2 0x4B22 JUMPI DUP5 DUP10 ADD MLOAD DUP3 SSTORE PUSH1 0x1 DUP3 ADD SWAP2 POP PUSH1 0x20 DUP6 ADD SWAP5 POP PUSH1 0x20 DUP2 ADD SWAP1 POP PUSH2 0x4AFD JUMP JUMPDEST DUP7 DUP4 LT ISZERO PUSH2 0x4B3F JUMPI DUP5 DUP10 ADD MLOAD PUSH2 0x4B3B PUSH1 0x1F DUP10 AND DUP3 PUSH2 0x4A4E JUMP JUMPDEST DUP4 SSTORE POP JUMPDEST PUSH1 0x1 PUSH1 0x2 DUP9 MUL ADD DUP9 SSTORE POP POP POP JUMPDEST POP POP POP POP POP POP JUMP JUMPDEST PUSH32 0x53686F756C6420626520657175616C20746F2074727565000000000000000000 PUSH0 DUP3 ADD MSTORE POP JUMP JUMPDEST PUSH0 PUSH2 0x4B88 PUSH1 0x17 DUP4 PUSH2 0x3FD9 JUMP JUMPDEST SWAP2 POP PUSH2 0x4B93 DUP3 PUSH2 0x4B54 JUMP JUMPDEST PUSH1 0x20 DUP3 ADD SWAP1 POP SWAP2 SWAP1 POP JUMP JUMPDEST PUSH0 PUSH1 0x60 DUP3 ADD SWAP1 POP PUSH2 0x4BB1 PUSH0 DUP4 ADD DUP6 PUSH2 0x4194 JUMP JUMPDEST PUSH2 0x4BBE PUSH1 0x20 DUP4 ADD DUP5 PUSH2 0x4194 JUMP JUMPDEST DUP2 DUP2 SUB PUSH1 0x40 DUP4 ADD MSTORE PUSH2 0x4BCF DUP2 PUSH2 0x4B7C JUMP JUMPDEST SWAP1 POP SWAP4 SWAP3 POP POP POP JUMP JUMPDEST PUSH0 DUP2 SWAP1 POP SWAP2 SWAP1 POP JUMP JUMPDEST PUSH0 PUSH2 0x4BFB PUSH2 0x4BF6 PUSH2 0x4BF1 DUP5 PUSH2 0x4BD8 JUMP JUMPDEST PUSH2 0x42CD JUMP JUMPDEST PUSH2 0x3A52 JUMP JUMPDEST SWAP1 POP SWAP2 SWAP1 POP JUMP JUMPDEST PUSH2 0x4C0B DUP2 PUSH2 0x4BE1 JUMP JUMPDEST DUP3 MSTORE POP POP JUMP JUMPDEST PUSH0 PUSH1 0x20 DUP3 ADD SWAP1 POP PUSH2 0x4C24 PUSH0 DUP4 ADD DUP5 PUSH2 0x4C02 JUMP JUMPDEST SWAP3 SWAP2 POP POP JUMP JUMPDEST PUSH32 0x52657374617572616E7420616C72656164792065786973747300000000000000 PUSH0 DUP3 ADD MSTORE POP JUMP JUMPDEST PUSH0 PUSH2 0x4C5E PUSH1 0x19 DUP4 PUSH2 0x3B72 JUMP JUMPDEST SWAP2 POP PUSH2 0x4C69 DUP3 PUSH2 0x4C2A JUMP JUMPDEST PUSH1 0x20 DUP3 ADD SWAP1 POP SWAP2 SWAP1 POP JUMP JUMPDEST PUSH0 PUSH1 0x20 DUP3 ADD SWAP1 POP DUP2 DUP2 SUB PUSH0 DUP4 ADD MSTORE PUSH2 0x4C8B DUP2 PUSH2 0x4C52 JUMP JUMPDEST SWAP1 POP SWAP2 SWAP1 POP JUMP JUMPDEST PUSH32 0x566F74696E6720726573756C742073686F756C64206265207472756500000000 PUSH0 DUP3 ADD MSTORE POP JUMP JUMPDEST PUSH0 PUSH2 0x4CC6 PUSH1 0x1C DUP4 PUSH2 0x3FD9 JUMP JUMPDEST SWAP2 POP PUSH2 0x4CD1 DUP3 PUSH2 0x4C92 JUMP JUMPDEST PUSH1 0x20 DUP3 ADD SWAP1 POP SWAP2 SWAP1 POP JUMP JUMPDEST PUSH0 PUSH1 0x40 DUP3 ADD SWAP1 POP PUSH2 0x4CEF PUSH0 DUP4 ADD DUP5 PUSH2 0x4194 JUMP JUMPDEST DUP2 DUP2 SUB PUSH1 0x20 DUP4 ADD MSTORE PUSH2 0x4D00 DUP2 PUSH2 0x4CBA JUMP JUMPDEST SWAP1 POP SWAP3 SWAP2 POP POP JUMP JUMPDEST PUSH2 0x4D11 DUP2 PUSH2 0x3B02 JUMP JUMPDEST DUP3 MSTORE POP POP JUMP JUMPDEST PUSH32 0x4D616E616765722073686F756C64206265206163633000000000000000000000 PUSH0 DUP3 ADD MSTORE POP JUMP JUMPDEST PUSH0 PUSH2 0x4D4B PUSH1 0x16 DUP4 PUSH2 0x3FD9 JUMP JUMPDEST SWAP2 POP PUSH2 0x4D56 DUP3 PUSH2 0x4D17 JUMP JUMPDEST PUSH1 0x20 DUP3 ADD SWAP1 POP SWAP2 SWAP1 POP JUMP JUMPDEST PUSH0 PUSH1 0x60 DUP3 ADD SWAP1 POP PUSH2 0x4D74 PUSH0 DUP4 ADD DUP6 PUSH2 0x4D08 JUMP JUMPDEST PUSH2 0x4D81 PUSH1 0x20 DUP4 ADD DUP5 PUSH2 0x4D08 JUMP JUMPDEST DUP2 DUP2 SUB PUSH1 0x40 DUP4 ADD MSTORE PUSH2 0x4D92 DUP2 PUSH2 0x4D3F JUMP JUMPDEST SWAP1 POP SWAP4 SWAP3 POP POP POP JUMP JUMPDEST PUSH0 DUP2 SWAP1 POP SWAP2 SWAP1 POP JUMP JUMPDEST PUSH0 PUSH2 0x4DBE PUSH2 0x4DB9 PUSH2 0x4DB4 DUP5 PUSH2 0x4D9B JUMP JUMPDEST PUSH2 0x42CD JUMP JUMPDEST PUSH2 0x3A52 JUMP JUMPDEST SWAP1 POP SWAP2 SWAP1 POP JUMP JUMPDEST PUSH2 0x4DCE DUP2 PUSH2 0x4DA4 JUMP JUMPDEST DUP3 MSTORE POP POP JUMP JUMPDEST PUSH0 PUSH1 0x20 DUP3 ADD SWAP1 POP PUSH2 0x4DE7 PUSH0 DUP4 ADD DUP5 PUSH2 0x4DC5 JUMP JUMPDEST SWAP3 SWAP2 POP POP JUMP JUMPDEST PUSH0 DUP2 MLOAD SWAP1 POP PUSH2 0x4DFB DUP2 PUSH2 0x3B13 JUMP JUMPDEST SWAP3 SWAP2 POP POP JUMP JUMPDEST PUSH0 PUSH1 0x20 DUP3 DUP5 SUB SLT ISZERO PUSH2 0x4E16 JUMPI PUSH2 0x4E15 PUSH2 0x3A4A JUMP JUMPDEST JUMPDEST PUSH0 PUSH2 0x4E23 DUP5 DUP3 DUP6 ADD PUSH2 0x4DED JUMP JUMPDEST SWAP2 POP POP SWAP3 SWAP2 POP POP JUMP JUMPDEST PUSH0 DUP2 SWAP1 POP SWAP2 SWAP1 POP JUMP JUMPDEST PUSH0 PUSH2 0x4E4F PUSH2 0x4E4A PUSH2 0x4E45 DUP5 PUSH2 0x4E2C JUMP JUMPDEST PUSH2 0x42CD JUMP JUMPDEST PUSH2 0x3A52 JUMP JUMPDEST SWAP1 POP SWAP2 SWAP1 POP JUMP JUMPDEST PUSH2 0x4E5F DUP2 PUSH2 0x4E35 JUMP JUMPDEST DUP3 MSTORE POP POP JUMP JUMPDEST PUSH0 PUSH1 0x20 DUP3 ADD SWAP1 POP PUSH2 0x4E78 PUSH0 DUP4 ADD DUP5 PUSH2 0x4E56 JUMP JUMPDEST SWAP3 SWAP2 POP POP JUMP JUMPDEST PUSH0 DUP2 SWAP1 POP SWAP2 SWAP1 POP JUMP JUMPDEST PUSH0 PUSH2 0x4EA1 PUSH2 0x4E9C PUSH2 0x4E97 DUP5 PUSH2 0x4E7E JUMP JUMPDEST PUSH2 0x42CD JUMP JUMPDEST PUSH2 0x3A52 JUMP JUMPDEST SWAP1 POP SWAP2 SWAP1 POP JUMP JUMPDEST PUSH2 0x4EB1 DUP2 PUSH2 0x4E87 JUMP JUMPDEST DUP3 MSTORE POP POP JUMP JUMPDEST PUSH0 PUSH1 0x20 DUP3 ADD SWAP1 POP PUSH2 0x4ECA PUSH0 DUP4 ADD DUP5 PUSH2 0x4EA8 JUMP JUMPDEST SWAP3 SWAP2 POP POP JUMP JUMPDEST PUSH0 DUP2 SWAP1 POP SWAP2 SWAP1 POP JUMP JUMPDEST PUSH0 PUSH2 0x4EF3 PUSH2 0x4EEE PUSH2 0x4EE9 DUP5 PUSH2 0x4ED0 JUMP JUMPDEST PUSH2 0x42CD JUMP JUMPDEST PUSH2 0x3A52 JUMP JUMPDEST SWAP1 POP SWAP2 SWAP1 POP JUMP JUMPDEST PUSH2 0x4F03 DUP2 PUSH2 0x4ED9 JUMP JUMPDEST DUP3 MSTORE POP POP JUMP JUMPDEST PUSH0 PUSH1 0x20 DUP3 ADD SWAP1 POP PUSH2 0x4F1C PUSH0 DUP4 ADD DUP5 PUSH2 0x4EFA JUMP JUMPDEST SWAP3 SWAP2 POP POP JUMP JUMPDEST PUSH0 DUP2 SWAP1 POP SWAP2 SWAP1 POP JUMP JUMPDEST PUSH0 PUSH2 0x4F45 PUSH2 0x4F40 PUSH2 0x4F3B DUP5 PUSH2 0x4F22 JUMP JUMPDEST PUSH2 0x42CD JUMP JUMPDEST PUSH2 0x3A52 JUMP JUMPDEST SWAP1 POP SWAP2 SWAP1 POP JUMP JUMPDEST PUSH2 0x4F55 DUP2 PUSH2 0x4F2B JUMP JUMPDEST DUP3 MSTORE POP POP JUMP JUMPDEST PUSH0 PUSH1 0x20 DUP3 ADD SWAP1 POP PUSH2 0x4F6E PUSH0 DUP4 ADD DUP5 PUSH2 0x4F4C JUMP JUMPDEST SWAP3 SWAP2 POP POP JUMP JUMPDEST PUSH32 0x54696D656F757420626C6F636B206E756D6265722073686F756C642062652073 PUSH0 DUP3 ADD MSTORE PUSH32 0x6574000000000000000000000000000000000000000000000000000000000000 PUSH1 0x20 DUP3 ADD MSTORE POP JUMP JUMPDEST PUSH0 PUSH2 0x4FCE PUSH1 0x22 DUP4 PUSH2 0x3FD9 JUMP JUMPDEST SWAP2 POP PUSH2 0x4FD9 DUP3 PUSH2 0x4F74 JUMP JUMPDEST PUSH1 0x40 DUP3 ADD SWAP1 POP SWAP2 SWAP1 POP JUMP JUMPDEST PUSH0 PUSH1 0x60 DUP3 ADD SWAP1 POP PUSH2 0x4FF7 PUSH0 DUP4 ADD DUP6 PUSH2 0x42B5 JUMP JUMPDEST PUSH2 0x5004 PUSH1 0x20 DUP4 ADD DUP5 PUSH2 0x42B5 JUMP JUMPDEST DUP2 DUP2 SUB PUSH1 0x40 DUP4 ADD MSTORE PUSH2 0x5015 DUP2 PUSH2 0x4FC2 JUMP JUMPDEST SWAP1 POP SWAP4 SWAP3 POP POP POP JUMP JUMPDEST PUSH32 0x566F74696E672073686F756C6420696E697469616C6C7920626520636C6F7365 PUSH0 DUP3 ADD MSTORE PUSH32 0x6400000000000000000000000000000000000000000000000000000000000000 PUSH1 0x20 DUP3 ADD MSTORE POP JUMP JUMPDEST PUSH0 PUSH2 0x5078 PUSH1 0x21 DUP4 PUSH2 0x3FD9 JUMP JUMPDEST SWAP2 POP PUSH2 0x5083 DUP3 PUSH2 0x501E JUMP JUMPDEST PUSH1 0x40 DUP3 ADD SWAP1 POP SWAP2 SWAP1 POP JUMP JUMPDEST PUSH0 PUSH1 0x60 DUP3 ADD SWAP1 POP PUSH2 0x50A1 PUSH0 DUP4 ADD DUP6 PUSH2 0x4194 JUMP JUMPDEST PUSH2 0x50AE PUSH1 0x20 DUP4 ADD DUP5 PUSH2 0x4194 JUMP JUMPDEST DUP2 DUP2 SUB PUSH1 0x40 DUP4 ADD MSTORE PUSH2 0x50BF DUP2 PUSH2 0x506C JUMP JUMPDEST SWAP1 POP SWAP4 SWAP3 POP POP POP JUMP JUMPDEST PUSH32 0x566F74696E672073686F756C64206265206F70656E0000000000000000000000 PUSH0 DUP3 ADD MSTORE POP JUMP JUMPDEST PUSH0 PUSH2 0x50FC PUSH1 0x15 DUP4 PUSH2 0x3FD9 JUMP JUMPDEST SWAP2 POP PUSH2 0x5107 DUP3 PUSH2 0x50C8 JUMP JUMPDEST PUSH1 0x20 DUP3 ADD SWAP1 POP SWAP2 SWAP1 POP JUMP JUMPDEST PUSH0 PUSH1 0x60 DUP3 ADD SWAP1 POP PUSH2 0x5125 PUSH0 DUP4 ADD DUP6 PUSH2 0x4194 JUMP JUMPDEST PUSH2 0x5132 PUSH1 0x20 DUP4 ADD DUP5 PUSH2 0x4194 JUMP JUMPDEST DUP2 DUP2 SUB PUSH1 0x40 DUP4 ADD MSTORE PUSH2 0x5143 DUP2 PUSH2 0x50F0 JUMP JUMPDEST SWAP1 POP SWAP4 SWAP3 POP POP POP JUMP JUMPDEST PUSH32 0x41746F6D69632043616665000000000000000000000000000000000000000000 PUSH0 DUP3 ADD MSTORE POP JUMP JUMPDEST PUSH0 PUSH2 0x5180 PUSH1 0xB DUP4 PUSH2 0x3B72 JUMP JUMPDEST SWAP2 POP PUSH2 0x518B DUP3 PUSH2 0x514C JUMP JUMPDEST PUSH1 0x20 DUP3 ADD SWAP1 POP SWAP2 SWAP1 POP JUMP JUMPDEST PUSH0 PUSH1 0x20 DUP3 ADD SWAP1 POP DUP2 DUP2 SUB PUSH0 DUP4 ADD MSTORE PUSH2 0x51AD DUP2 PUSH2 0x5174 JUMP JUMPDEST SWAP1 POP SWAP2 SWAP1 POP JUMP JUMPDEST PUSH0 PUSH1 0x60 DUP3 ADD SWAP1 POP PUSH2 0x51C7 PUSH0 DUP4 ADD DUP6 PUSH2 0x42B5 JUMP JUMPDEST PUSH2 0x51D4 PUSH1 0x20 DUP4 ADD DUP5 PUSH2 0x4EFA JUMP JUMPDEST DUP2 DUP2 SUB PUSH1 0x40 DUP4 ADD MSTORE PUSH2 0x51E5 DUP2 PUSH2 0x432E JUMP JUMPDEST SWAP1 POP SWAP4 SWAP3 POP POP POP JUMP JUMPDEST PUSH32 0x53686F756C6420626520657175616C20746F2031000000000000000000000000 PUSH0 DUP3 ADD MSTORE POP JUMP JUMPDEST PUSH0 PUSH2 0x5222 PUSH1 0x14 DUP4 PUSH2 0x3FD9 JUMP JUMPDEST SWAP2 POP PUSH2 0x522D DUP3 PUSH2 0x51EE JUMP JUMPDEST PUSH1 0x20 DUP3 ADD SWAP1 POP SWAP2 SWAP1 POP JUMP JUMPDEST PUSH0 PUSH1 0x60 DUP3 ADD SWAP1 POP PUSH2 0x524B PUSH0 DUP4 ADD DUP6 PUSH2 0x42B5 JUMP JUMPDEST PUSH2 0x5258 PUSH1 0x20 DUP4 ADD DUP5 PUSH2 0x4E56 JUMP JUMPDEST DUP2 DUP2 SUB PUSH1 0x40 DUP4 ADD MSTORE PUSH2 0x5269 DUP2 PUSH2 0x5216 JUMP JUMPDEST SWAP1 POP SWAP4 SWAP3 POP POP POP JUMP JUMPDEST PUSH32 0x53686F756C6420626520657175616C20746F2032000000000000000000000000 PUSH0 DUP3 ADD MSTORE POP JUMP JUMPDEST PUSH0 PUSH2 0x52A6 PUSH1 0x14 DUP4 PUSH2 0x3FD9 JUMP JUMPDEST SWAP2 POP PUSH2 0x52B1 DUP3 PUSH2 0x5272 JUMP JUMPDEST PUSH1 0x20 DUP3 ADD SWAP1 POP SWAP2 SWAP1 POP JUMP JUMPDEST PUSH0 PUSH1 0x60 DUP3 ADD SWAP1 POP PUSH2 0x52CF PUSH0 DUP4 ADD DUP6 PUSH2 0x42B5 JUMP JUMPDEST PUSH2 0x52DC PUSH1 0x20 DUP4 ADD DUP5 PUSH2 0x4EA8 JUMP JUMPDEST DUP2 DUP2 SUB PUSH1 0x40 DUP4 ADD MSTORE PUSH2 0x52ED DUP2 PUSH2 0x529A JUMP JUMPDEST SWAP1 POP SWAP4 SWAP3 POP POP POP JUMP JUMPDEST PUSH32 0x566F74696E672073686F756C6420626520636C6F736564000000000000000000 PUSH0 DUP3 ADD MSTORE POP JUMP JUMPDEST PUSH0 PUSH2 0x532A PUSH1 0x17 DUP4 PUSH2 0x3FD9 JUMP JUMPDEST SWAP2 POP PUSH2 0x5335 DUP3 PUSH2 0x52F6 JUMP JUMPDEST PUSH1 0x20 DUP3 ADD SWAP1 POP SWAP2 SWAP1 POP JUMP JUMPDEST PUSH0 PUSH1 0x60 DUP3 ADD SWAP1 POP PUSH2 0x5353 PUSH0 DUP4 ADD DUP6 PUSH2 0x4194 JUMP JUMPDEST PUSH2 0x5360 PUSH1 0x20 DUP4 ADD DUP5 PUSH2 0x4194 JUMP JUMPDEST DUP2 DUP2 SUB PUSH1 0x40 DUP4 ADD MSTORE PUSH2 0x5371 DUP2 PUSH2 0x531E JUMP JUMPDEST SWAP1 POP SWAP4 SWAP3 POP POP POP JUMP JUMPDEST PUSH32 0x53686F756C6420626520657175616C20746F2033000000000000000000000000 PUSH0 DUP3 ADD MSTORE POP JUMP JUMPDEST PUSH0 PUSH2 0x53AE PUSH1 0x14 DUP4 PUSH2 0x3FD9 JUMP JUMPDEST SWAP2 POP PUSH2 0x53B9 DUP3 PUSH2 0x537A JUMP JUMPDEST PUSH1 0x20 DUP3 ADD SWAP1 POP SWAP2 SWAP1 POP JUMP JUMPDEST PUSH0 PUSH1 0x60 DUP3 ADD SWAP1 POP PUSH2 0x53D7 PUSH0 DUP4 ADD DUP6 PUSH2 0x42B5 JUMP JUMPDEST PUSH2 0x53E4 PUSH1 0x20 DUP4 ADD DUP5 PUSH2 0x4EFA JUMP JUMPDEST DUP2 DUP2 SUB PUSH1 0x40 DUP4 ADD MSTORE PUSH2 0x53F5 DUP2 PUSH2 0x53A2 JUMP JUMPDEST SWAP1 POP SWAP4 SWAP3 POP POP POP JUMP JUMPDEST PUSH32 0x53686F756C6420626520657175616C20746F2034000000000000000000000000 PUSH0 DUP3 ADD MSTORE POP JUMP JUMPDEST PUSH0 PUSH2 0x5432 PUSH1 0x14 DUP4 PUSH2 0x3FD9 JUMP JUMPDEST SWAP2 POP PUSH2 0x543D DUP3 PUSH2 0x53FE JUMP JUMPDEST PUSH1 0x20 DUP3 ADD SWAP1 POP SWAP2 SWAP1 POP JUMP JUMPDEST PUSH0 PUSH1 0x60 DUP3 ADD SWAP1 POP PUSH2 0x545B PUSH0 DUP4 ADD DUP6 PUSH2 0x42B5 JUMP JUMPDEST PUSH2 0x5468 PUSH1 0x20 DUP4 ADD DUP5 PUSH2 0x4F4C JUMP JUMPDEST DUP2 DUP2 SUB PUSH1 0x40 DUP4 ADD MSTORE PUSH2 0x5479 DUP2 PUSH2 0x5426 JUMP JUMPDEST SWAP1 POP SWAP4 SWAP3 POP POP POP JUMP JUMPDEST PUSH0 DUP2 SLOAD PUSH2 0x548E DUP2 PUSH2 0x44AD JUMP JUMPDEST PUSH2 0x5498 DUP2 DUP7 PUSH2 0x3FD9 JUMP JUMPDEST SWAP5 POP PUSH1 0x1 DUP3 AND PUSH0 DUP2 EQ PUSH2 0x54B2 JUMPI PUSH1 0x1 DUP2 EQ PUSH2 0x54C8 JUMPI PUSH2 0x54FA JUMP JUMPDEST PUSH1 0xFF NOT DUP4 AND DUP7 MSTORE DUP2 ISZERO ISZERO PUSH1 0x20 MUL DUP7 ADD SWAP4 POP PUSH2 0x54FA JUMP JUMPDEST PUSH2 0x54D1 DUP6 PUSH2 0x48F1 JUMP JUMPDEST PUSH0 JUMPDEST DUP4 DUP2 LT ISZERO PUSH2 0x54F2 JUMPI DUP2 SLOAD DUP2 DUP10 ADD MSTORE PUSH1 0x1 DUP3 ADD SWAP2 POP PUSH1 0x20 DUP2 ADD SWAP1 POP PUSH2 0x54D3 JUMP JUMPDEST DUP1 DUP9 ADD SWAP6 POP POP POP JUMPDEST POP POP POP SWAP3 SWAP2 POP POP JUMP JUMPDEST PUSH32 0x556E692043616665000000000000000000000000000000000000000000000000 PUSH0 DUP3 ADD MSTORE POP JUMP JUMPDEST PUSH0 PUSH2 0x5537 PUSH1 0x8 DUP4 PUSH2 0x3FD9 JUMP JUMPDEST SWAP2 POP PUSH2 0x5542 DUP3 PUSH2 0x5503 JUMP JUMPDEST PUSH1 0x20 DUP3 ADD SWAP1 POP SWAP2 SWAP1 POP JUMP JUMPDEST PUSH32 0x53656C65637465642072657374617572616E742073686F756C6420626520556E PUSH0 DUP3 ADD MSTORE PUSH32 0x6920436166650000000000000000000000000000000000000000000000000000 PUSH1 0x20 DUP3 ADD MSTORE POP JUMP JUMPDEST PUSH0 PUSH2 0x55A7 PUSH1 0x26 DUP4 PUSH2 0x3FD9 JUMP JUMPDEST SWAP2 POP PUSH2 0x55B2 DUP3 PUSH2 0x554D JUMP JUMPDEST PUSH1 0x40 DUP3 ADD SWAP1 POP SWAP2 SWAP1 POP JUMP JUMPDEST PUSH0 PUSH1 0x60 DUP3 ADD SWAP1 POP DUP2 DUP2 SUB PUSH0 DUP4 ADD MSTORE PUSH2 0x55D5 DUP2 DUP5 PUSH2 0x5482 JUMP JUMPDEST SWAP1 POP DUP2 DUP2 SUB PUSH1 0x20 DUP4 ADD MSTORE PUSH2 0x55E8 DUP2 PUSH2 0x552B JUMP JUMPDEST SWAP1 POP DUP2 DUP2 SUB PUSH1 0x40 DUP4 ADD MSTORE PUSH2 0x55FB DUP2 PUSH2 0x559B JUMP JUMPDEST SWAP1 POP SWAP3 SWAP2 POP POP JUMP JUMPDEST PUSH2 0x560C DUP2 PUSH2 0x4E35 JUMP JUMPDEST DUP3 MSTORE POP POP JUMP JUMPDEST PUSH0 PUSH1 0x20 DUP3 ADD SWAP1 POP PUSH2 0x5625 PUSH0 DUP4 ADD DUP5 PUSH2 0x5603 JUMP JUMPDEST SWAP3 SWAP2 POP POP JUMP JUMPDEST PUSH0 PUSH2 0x5637 PUSH1 0x15 DUP4 PUSH2 0x3FD9 JUMP JUMPDEST SWAP2 POP PUSH2 0x5642 DUP3 PUSH2 0x44DD JUMP JUMPDEST PUSH1 0x20 DUP3 ADD SWAP1 POP SWAP2 SWAP1 POP JUMP JUMPDEST PUSH0 PUSH1 0x60 DUP3 ADD SWAP1 POP DUP2 DUP2 SUB PUSH0 DUP4 ADD MSTORE PUSH2 0x5665 DUP2 DUP5 PUSH2 0x3FE9 JUMP JUMPDEST SWAP1 POP DUP2 DUP2 SUB PUSH1 0x20 DUP4 ADD MSTORE PUSH2 0x5678 DUP2 PUSH2 0x562B JUMP JUMPDEST SWAP1 POP DUP2 DUP2 SUB PUSH1 0x40 DUP4 ADD MSTORE PUSH2 0x568B DUP2 PUSH2 0x40B9 JUMP JUMPDEST SWAP1 POP SWAP3 SWAP2 POP POP JUMP JUMPDEST PUSH32 0x4661696C656420756E65787065637465646C7900000000000000000000000000 PUSH0 DUP3 ADD MSTORE POP JUMP JUMPDEST PUSH0 PUSH2 0x56C7 PUSH1 0x13 DUP4 PUSH2 0x3FD9 JUMP JUMPDEST SWAP2 POP PUSH2 0x56D2 DUP3 PUSH2 0x5693 JUMP JUMPDEST PUSH1 0x20 DUP3 ADD SWAP1 POP SWAP2 SWAP1 POP JUMP JUMPDEST PUSH0 PUSH1 0x40 DUP3 ADD SWAP1 POP PUSH2 0x56F0 PUSH0 DUP4 ADD DUP5 PUSH2 0x4194 JUMP JUMPDEST DUP2 DUP2 SUB PUSH1 0x20 DUP4 ADD MSTORE PUSH2 0x5701 DUP2 PUSH2 0x56BB JUMP JUMPDEST SWAP1 POP SWAP3 SWAP2 POP POP JUMP JUMPDEST PUSH32 0x43616E20766F7465206F6E6C79207768656E2074686572652061726520617420 PUSH0 DUP3 ADD MSTORE PUSH32 0x6C6561737420322072657374617572616E747300000000000000000000000000 PUSH1 0x20 DUP3 ADD MSTORE POP JUMP JUMPDEST PUSH0 PUSH2 0x5763 PUSH1 0x33 DUP4 PUSH2 0x3B72 JUMP JUMPDEST SWAP2 POP PUSH2 0x576E DUP3 PUSH2 0x5709 JUMP JUMPDEST PUSH1 0x40 DUP3 ADD SWAP1 POP SWAP2 SWAP1 POP JUMP JUMPDEST PUSH0 PUSH1 0x20 DUP3 ADD SWAP1 POP DUP2 DUP2 SUB PUSH0 DUP4 ADD MSTORE PUSH2 0x5790 DUP2 PUSH2 0x5757 JUMP JUMPDEST SWAP1 POP SWAP2 SWAP1 POP JUMP JUMPDEST PUSH32 0x43616E20766F7465206F6E6C79207768656E2074686572652061726520617420 PUSH0 DUP3 ADD MSTORE PUSH32 0x6C65617374203220667269656E64730000000000000000000000000000000000 PUSH1 0x20 DUP3 ADD MSTORE POP JUMP JUMPDEST PUSH0 PUSH2 0x57F1 PUSH1 0x2F DUP4 PUSH2 0x3B72 JUMP JUMPDEST SWAP2 POP PUSH2 0x57FC DUP3 PUSH2 0x5797 JUMP JUMPDEST PUSH1 0x40 DUP3 ADD SWAP1 POP SWAP2 SWAP1 POP JUMP JUMPDEST PUSH0 PUSH1 0x20 DUP3 ADD SWAP1 POP DUP2 DUP2 SUB PUSH0 DUP4 ADD MSTORE PUSH2 0x581E DUP2 PUSH2 0x57E5 JUMP JUMPDEST SWAP1 POP SWAP2 SWAP1 POP JUMP JUMPDEST PUSH32 0x54696D656F7574207265616368656420616E6420766F74696E6720697320636C PUSH0 DUP3 ADD MSTORE PUSH32 0x6F73656400000000000000000000000000000000000000000000000000000000 PUSH1 0x20 DUP3 ADD MSTORE POP JUMP JUMPDEST PUSH0 PUSH2 0x587F PUSH1 0x24 DUP4 PUSH2 0x3B72 JUMP JUMPDEST SWAP2 POP PUSH2 0x588A DUP3 PUSH2 0x5825 JUMP JUMPDEST PUSH1 0x40 DUP3 ADD SWAP1 POP SWAP2 SWAP1 POP JUMP JUMPDEST PUSH0 PUSH1 0x20 DUP3 ADD SWAP1 POP DUP2 DUP2 SUB PUSH0 DUP4 ADD MSTORE PUSH2 0x58AC DUP2 PUSH2 0x5873 JUMP JUMPDEST SWAP1 POP SWAP2 SWAP1 POP JUMP JUMPDEST PUSH0 PUSH2 0x58BF PUSH1 0x22 DUP4 PUSH2 0x3FD9 JUMP JUMPDEST SWAP2 POP PUSH2 0x58CA DUP3 PUSH2 0x438A JUMP JUMPDEST PUSH1 0x40 DUP3 ADD SWAP1 POP SWAP2 SWAP1 POP JUMP JUMPDEST PUSH0 PUSH1 0x60 DUP3 ADD SWAP1 POP DUP2 DUP2 SUB PUSH0 DUP4 ADD MSTORE PUSH2 0x58ED DUP2 DUP5 PUSH2 0x3FE9 JUMP JUMPDEST SWAP1 POP DUP2 DUP2 SUB PUSH1 0x20 DUP4 ADD MSTORE PUSH2 0x5900 DUP2 PUSH2 0x58B3 JUMP JUMPDEST SWAP1 POP DUP2 DUP2 SUB PUSH1 0x40 DUP4 ADD MSTORE PUSH2 0x5913 DUP2 PUSH2 0x40B9 JUMP JUMPDEST SWAP1 POP SWAP3 SWAP2 POP POP JUMP JUMPDEST PUSH0 PUSH1 0x60 DUP3 ADD SWAP1 POP PUSH2 0x592E PUSH0 DUP4 ADD DUP6 PUSH2 0x4194 JUMP JUMPDEST PUSH2 0x593B PUSH1 0x20 DUP4 ADD DUP5 PUSH2 0x4194 JUMP JUMPDEST DUP2 DUP2 SUB PUSH1 0x40 DUP4 ADD MSTORE PUSH2 0x594C DUP2 PUSH2 0x5216 JUMP JUMPDEST SWAP1 POP SWAP4 SWAP3 POP POP POP JUMP JUMPDEST PUSH32 0x4E487B7100000000000000000000000000000000000000000000000000000000 PUSH0 MSTORE PUSH1 0x32 PUSH1 0x4 MSTORE PUSH1 0x24 PUSH0 REVERT JUMPDEST PUSH0 DUP2 SLOAD SWAP1 POP PUSH2 0x5990 DUP2 PUSH2 0x44AD JUMP JUMPDEST SWAP1 POP SWAP2 SWAP1 POP JUMP JUMPDEST PUSH0 DUP2 SWAP1 POP DUP2 PUSH0 MSTORE PUSH1 0x20 PUSH0 KECCAK256 SWAP1 POP SWAP2 SWAP1 POP JUMP JUMPDEST DUP2 DUP2 SUB PUSH2 0x59B7 JUMPI POP POP PUSH2 0x5A8C JUMP JUMPDEST PUSH2 0x59C0 DUP3 PUSH2 0x5982 JUMP JUMPDEST PUSH8 0xFFFFFFFFFFFFFFFF DUP2 GT ISZERO PUSH2 0x59D9 JUMPI PUSH2 0x59D8 PUSH2 0x3C0E JUMP JUMPDEST JUMPDEST PUSH2 0x59E3 DUP3 SLOAD PUSH2 0x44AD JUMP JUMPDEST PUSH2 0x59EE DUP3 DUP3 DUP6 PUSH2 0x49FC JUMP JUMPDEST PUSH0 PUSH1 0x1F DUP4 GT PUSH1 0x1 DUP2 EQ PUSH2 0x5A1B JUMPI PUSH0 DUP5 ISZERO PUSH2 0x5A09 JUMPI DUP3 DUP8 ADD SLOAD SWAP1 POP JUMPDEST PUSH2 0x5A13 DUP6 DUP3 PUSH2 0x4A6A JUMP JUMPDEST DUP7 SSTORE POP PUSH2 0x5A85 JUMP JUMPDEST PUSH1 0x1F NOT DUP5 AND PUSH2 0x5A29 DUP8 PUSH2 0x5997 JUMP JUMPDEST SWAP7 POP PUSH2 0x5A34 DUP7 PUSH2 0x48F1 JUMP JUMPDEST PUSH0 JUMPDEST DUP3 DUP2 LT ISZERO PUSH2 0x5A5B JUMPI DUP5 DUP10 ADD SLOAD DUP3 SSTORE PUSH1 0x1 DUP3 ADD SWAP2 POP PUSH1 0x1 DUP6 ADD SWAP5 POP PUSH1 0x20 DUP2 ADD SWAP1 POP PUSH2 0x5A36 JUMP JUMPDEST DUP7 DUP4 LT ISZERO PUSH2 0x5A78 JUMPI DUP5 DUP10 ADD SLOAD PUSH2 0x5A74 PUSH1 0x1F DUP10 AND DUP3 PUSH2 0x4A4E JUMP JUMPDEST DUP4 SSTORE POP JUMPDEST PUSH1 0x1 PUSH1 0x2 DUP9 MUL ADD DUP9 SSTORE POP POP POP JUMPDEST POP POP POP POP POP POP JUMPDEST JUMP INVALID LOG2 PUSH5 0x6970667358 0x22 SLT KECCAK256 0xB4 XOR PUSH9 0x90AB3502E4534BEC98 0xBB NOT DUP1 0xE0 EQ STOP 0xCA SDIV PUSH11 0xC74A135E0DED9EF9C5A347 PUSH5 0x736F6C6343 STOP ADDMOD BYTE STOP CALLER "
		},
		"gasEstimates": {
			"creation": {
				"codeDepositCost": "4647200",
				"executionCost": "infinite",
				"totalCost": "infinite"
			},
			"external": {
				"addFriend(address,string)": "infinite",
				"addRestaurant(string)": "infinite",
				"beforeAll()": "infinite",
				"disableContract()": "28815",
				"doVote(uint256)": "infinite",
				"enableVoting()": "35210",
				"friends(address)": "infinite",
				"getManager()": "2581",
				"getVoteOpen()": "2540",
				"isActive()": "2601",
				"manager()": "2598",
				"numFriends()": "2493",
				"numRestaurants()": "2492",
				"numVotes()": "2514",
				"restaurants(uint256)": "infinite",
				"sender()": "2671",
				"setTimeoutDuration(uint256)": "infinite",
				"testAddFriend()": "infinite",
				"testAddFriendFailure()": "infinite",
				"testAddRestaurant()": "infinite",
				"testAddRestaurantFailure()": "infinite",
				"testDisableContract()": "infinite",
				"testDisableContractFailure()": "infinite",
				"testDoVote()": "infinite",
				"testDoVote2()": "infinite",
				"testDoVote3()": "infinite",
				"testDoVoteAfterVotingClosedFailure()": "infinite",
				"testDoVoteAsUnexistedFriendFailure()": "infinite",
				"testEnableVoting()": "infinite",
				"testEnableVotingFailure()": "infinite",
				"testManager()": "infinite",
				"testSetTimeoutDurationFailure()": "infinite",
				"testTimeoutBlockNumber()": "infinite",
				"testVoteOpenAfterVotingClosed()": "infinite",
				"testVotedRestaurant()": "infinite",
				"testsetTimeoutDuration()": "infinite",
				"timeoutBlockNumber()": "2559",
				"voteOpen()": "2555",
				"votedRestaurant()": "infinite",
				"votes(uint256)": "infinite"
			}
		},
		"methodIdentifiers": {
			"addFriend(address,string)": "3b9f708d",
			"addRestaurant(string)": "6d77bd3e",
			"beforeAll()": "7fea0d4b",
			"disableContract()": "894ba833",
			"doVote(uint256)": "124258c6",
			"enableVoting()": "eb4439fb",
			"friends(address)": "1ddabf7a",
			"getManager()": "d5009584",
			"getVoteOpen()": "a36146d3",
			"isActive()": "22f3e2d4",
			"manager()": "481c6a75",
			"numFriends()": "47098f36",
			"numRestaurants()": "b798867f",
			"numVotes()": "a3bef4d7",
			"restaurants(uint256)": "ad5461d8",
			"sender()": "67e404ce",
			"setTimeoutDuration(uint256)": "66063df4",
			"testAddFriend()": "a73fb659",
			"testAddFriendFailure()": "103439cd",
			"testAddRestaurant()": "954ffe97",
			"testAddRestaurantFailure()": "94746c81",
			"testDisableContract()": "fc8d013b",
			"testDisableContractFailure()": "1692cc92",
			"testDoVote()": "84845589",
			"testDoVote2()": "babeb68b",
			"testDoVote3()": "6e17462f",
			"testDoVoteAfterVotingClosedFailure()": "f6d416bc",
			"testDoVoteAsUnexistedFriendFailure()": "b8341dfd",
			"testEnableVoting()": "91420699",
			"testEnableVotingFailure()": "ca1a555c",
			"testManager()": "76da7648",
			"testSetTimeoutDurationFailure()": "65985a95",
			"testTimeoutBlockNumber()": "85629b66",
			"testVoteOpenAfterVotingClosed()": "96400bff",
			"testVotedRestaurant()": "b2897e2e",
			"testsetTimeoutDuration()": "4a6a149b",
			"timeoutBlockNumber()": "5952ccb8",
			"voteOpen()": "788d3851",
			"votedRestaurant()": "c1c16efc",
			"votes(uint256)": "5df81330"
		}
	},
	"abi": [
		{
			"inputs": [
				{
					"internalType": "address",
					"name": "friendAddress",
					"type": "address"
				},
				{
					"internalType": "string",
					"name": "name",
					"type": "string"
				}
			],
			"name": "addFriend",
			"outputs": [
				{
					"internalType": "uint256",
					"name": "",
					"type": "uint256"
				}
			],
			"stateMutability": "nonpayable",
			"type": "function"
		},
		{
			"inputs": [
				{
					"internalType": "string",
					"name": "name",
					"type": "string"
				}
			],
			"name": "addRestaurant",
			"outputs": [
				{
					"internalType": "uint256",
					"name": "",
					"type": "uint256"
				}
			],
			"stateMutability": "nonpayable",
			"type": "function"
		},
		{
			"inputs": [],
			"name": "beforeAll",
			"outputs": [],
			"stateMutability": "nonpayable",
			"type": "function"
		},
		{
			"inputs": [],
			"name": "disableContract",
			"outputs": [],
			"stateMutability": "nonpayable",
			"type": "function"
		},
		{
			"inputs": [
				{
					"internalType": "uint256",
					"name": "restaurant",
					"type": "uint256"
				}
			],
			"name": "doVote",
			"outputs": [
				{
					"internalType": "bool",
					"name": "validVote",
					"type": "bool"
				}
			],
			"stateMutability": "nonpayable",
			"type": "function"
		},
		{
			"inputs": [],
			"name": "enableVoting",
			"outputs": [],
			"stateMutability": "nonpayable",
			"type": "function"
		},
		{
			"inputs": [
				{
					"internalType": "address",
					"name": "",
					"type": "address"
				}
			],
			"name": "friends",
			"outputs": [
				{
					"internalType": "string",
					"name": "name",
					"type": "string"
				},
				{
					"internalType": "bool",
					"name": "voted",
					"type": "bool"
				}
			],
			"stateMutability": "view",
			"type": "function"
		},
		{
			"inputs": [],
			"name": "getManager",
			"outputs": [
				{
					"internalType": "address",
					"name": "",
					"type": "address"
				}
			],
			"stateMutability": "view",
			"type": "function"
		},
		{
			"inputs": [],
			"name": "getVoteOpen",
			"outputs": [
				{
					"internalType": "bool",
					"name": "",
					"type": "bool"
				}
			],
			"stateMutability": "view",
			"type": "function"
		},
		{
			"inputs": [],
			"name": "isActive",
			"outputs": [
				{
					"internalType": "bool",
					"name": "",
					"type": "bool"
				}
			],
			"stateMutability": "view",
			"type": "function"
		},
		{
			"inputs": [],
			"name": "manager",
			"outputs": [
				{
					"internalType": "address",
					"name": "",
					"type": "address"
				}
			],
			"stateMutability": "view",
			"type": "function"
		},
		{
			"inputs": [],
			"name": "numFriends",
			"outputs": [
				{
					"internalType": "uint256",
					"name": "",
					"type": "uint256"
				}
			],
			"stateMutability": "view",
			"type": "function"
		},
		{
			"inputs": [],
			"name": "numRestaurants",
			"outputs": [
				{
					"internalType": "uint256",
					"name": "",
					"type": "uint256"
				}
			],
			"stateMutability": "view",
			"type": "function"
		},
		{
			"inputs": [],
			"name": "numVotes",
			"outputs": [
				{
					"internalType": "uint256",
					"name": "",
					"type": "uint256"
				}
			],
			"stateMutability": "view",
			"type": "function"
		},
		{
			"inputs": [
				{
					"internalType": "uint256",
					"name": "",
					"type": "uint256"
				}
			],
			"name": "restaurants",
			"outputs": [
				{
					"internalType": "string",
					"name": "",
					"type": "string"
				}
			],
			"stateMutability": "view",
			"type": "function"
		},
		{
			"inputs": [],
			"name": "sender",
			"outputs": [
				{
					"internalType": "address",
					"name": "",
					"type": "address"
				}
			],
			"stateMutability": "view",
			"type": "function"
		},
		{
			"inputs": [
				{
					"internalType": "uint256",
					"name": "timeoutDuration",
					"type": "uint256"
				}
			],
			"name": "setTimeoutDuration",
			"outputs": [
				{
					"internalType": "bool",
					"name": "status",
					"type": "bool"
				}
			],
			"stateMutability": "nonpayable",
			"type": "function"
		},
		{
			"inputs": [],
			"name": "testAddFriend",
			"outputs": [],
			"stateMutability": "nonpayable",
			"type": "function"
		},
		{
			"inputs": [],
			"name": "testAddFriendFailure",
			"outputs": [],
			"stateMutability": "nonpayable",
			"type": "function"
		},
		{
			"inputs": [],
			"name": "testAddRestaurant",
			"outputs": [],
			"stateMutability": "nonpayable",
			"type": "function"
		},
		{
			"inputs": [],
			"name": "testAddRestaurantFailure",
			"outputs": [],
			"stateMutability": "nonpayable",
			"type": "function"
		},
		{
			"inputs": [],
			"name": "testDisableContract",
			"outputs": [],
			"stateMutability": "nonpayable",
			"type": "function"
		},
		{
			"inputs": [],
			"name": "testDisableContractFailure",
			"outputs": [],
			"stateMutability": "nonpayable",
			"type": "function"
		},
		{
			"inputs": [],
			"name": "testDoVote",
			"outputs": [],
			"stateMutability": "nonpayable",
			"type": "function"
		},
		{
			"inputs": [],
			"name": "testDoVote2",
			"outputs": [],
			"stateMutability": "nonpayable",
			"type": "function"
		},
		{
			"inputs": [],
			"name": "testDoVote3",
			"outputs": [],
			"stateMutability": "nonpayable",
			"type": "function"
		},
		{
			"inputs": [],
			"name": "testDoVoteAfterVotingClosedFailure",
			"outputs": [],
			"stateMutability": "nonpayable",
			"type": "function"
		},
		{
			"inputs": [],
			"name": "testDoVoteAsUnexistedFriendFailure",
			"outputs": [],
			"stateMutability": "nonpayable",
			"type": "function"
		},
		{
			"inputs": [],
			"name": "testEnableVoting",
			"outputs": [],
			"stateMutability": "nonpayable",
			"type": "function"
		},
		{
			"inputs": [],
			"name": "testEnableVotingFailure",
			"outputs": [],
			"stateMutability": "nonpayable",
			"type": "function"
		},
		{
			"inputs": [],
			"name": "testManager",
			"outputs": [],
			"stateMutability": "nonpayable",
			"type": "function"
		},
		{
			"inputs": [],
			"name": "testSetTimeoutDurationFailure",
			"outputs": [],
			"stateMutability": "nonpayable",
			"type": "function"
		},
		{
			"inputs": [],
			"name": "testTimeoutBlockNumber",
			"outputs": [],
			"stateMutability": "nonpayable",
			"type": "function"
		},
		{
			"inputs": [],
			"name": "testVoteOpenAfterVotingClosed",
			"outputs": [],
			"stateMutability": "nonpayable",
			"type": "function"
		},
		{
			"inputs": [],
			"name": "testVotedRestaurant",
			"outputs": [],
			"stateMutability": "nonpayable",
			"type": "function"
		},
		{
			"inputs": [],
			"name": "testsetTimeoutDuration",
			"outputs": [],
			"stateMutability": "nonpayable",
			"type": "function"
		},
		{
			"inputs": [],
			"name": "timeoutBlockNumber",
			"outputs": [
				{
					"internalType": "uint256",
					"name": "",
					"type": "uint256"
				}
			],
			"stateMutability": "view",
			"type": "function"
		},
		{
			"inputs": [],
			"name": "voteOpen",
			"outputs": [
				{
					"internalType": "bool",
					"name": "",
					"type": "bool"
				}
			],
			"stateMutability": "view",
			"type": "function"
		},
		{
			"inputs": [],
			"name": "votedRestaurant",
			"outputs": [
				{
					"internalType": "string",
					"name": "",
					"type": "string"
				}
			],
			"stateMutability": "view",
			"type": "function"
		},
		{
			"inputs": [
				{
					"internalType": "uint256",
					"name": "",
					"type": "uint256"
				}
			],
			"name": "votes",
			"outputs": [
				{
					"internalType": "address",
					"name": "voterAddress",
					"type": "address"
				},
				{
					"internalType": "uint256",
					"name": "restaurant",
					"type": "uint256"
				}
			],
			"stateMutability": "view",
			"type": "function"
		}
	]
}