{
	"data": {
		"bytecode": {
			"linkReferences": {
				"remix_accounts.sol": {
					"TestsAccounts": [
						{
							"length": 20,
							"start": 218
						},
						{
							"length": 20,
							"start": 399
						},
						{
							"length": 20,
							"start": 581
						},
						{
							"length": 20,
							"start": 763
						},
						{
							"length": 20,
							"start": 945
						}
					]
				},
				"remix_tests.sol": {
					"Assert": [
						{
							"length": 20,
							"start": 1129
						}
					]
				}
			},
			"object": "6080604052348015600e575f80fd5b506132648061001c5f395ff3fe608060405234801561000f575f80fd5b5060043610610034575f3560e01c80637fea0d4b14610038578063947aea8614610042575b5f80fd5b61004061004c565b005b61004a61044b565b005b606460405161005a90610572565b61006491906105ca565b604051809103905ff08015801561007d573d5f803e3d5ffd5b505f806101000a81548173ffffffffffffffffffffffffffffffffffffffff021916908373ffffffffffffffffffffffffffffffffffffffff16021790555073__$1068a87eb54ed04c4e435de35b2ebf536f$__63ce88b1455f6040518263ffffffff1660e01b81526004016100f3919061061c565b602060405180830381865af415801561010e573d5f803e3d5ffd5b505050506040513d601f19601f820116820180604052508101906101329190610693565b60015f6101000a81548173ffffffffffffffffffffffffffffffffffffffff021916908373ffffffffffffffffffffffffffffffffffffffff16021790555073__$1068a87eb54ed04c4e435de35b2ebf536f$__63ce88b14560016040518263ffffffff1660e01b81526004016101a991906106f7565b602060405180830381865af41580156101c4573d5f803e3d5ffd5b505050506040513d601f19601f820116820180604052508101906101e89190610693565b60025f6101000a81548173ffffffffffffffffffffffffffffffffffffffff021916908373ffffffffffffffffffffffffffffffffffffffff16021790555073__$1068a87eb54ed04c4e435de35b2ebf536f$__63ce88b14560026040518263ffffffff1660e01b815260040161025f9190610749565b602060405180830381865af415801561027a573d5f803e3d5ffd5b505050506040513d601f19601f8201168201806040525081019061029e9190610693565b60035f6101000a81548173ffffffffffffffffffffffffffffffffffffffff021916908373ffffffffffffffffffffffffffffffffffffffff16021790555073__$1068a87eb54ed04c4e435de35b2ebf536f$__63ce88b14560036040518263ffffffff1660e01b8152600401610315919061079b565b602060405180830381865af4158015610330573d5f803e3d5ffd5b505050506040513d601f19601f820116820180604052508101906103549190610693565b60045f6101000a81548173ffffffffffffffffffffffffffffffffffffffff021916908373ffffffffffffffffffffffffffffffffffffffff16021790555073__$1068a87eb54ed04c4e435de35b2ebf536f$__63ce88b14560046040518263ffffffff1660e01b81526004016103cb91906107ed565b602060405180830381865af41580156103e6573d5f803e3d5ffd5b505050506040513d601f19601f8201168201806040525081019061040a9190610693565b60055f6101000a81548173ffffffffffffffffffffffffffffffffffffffff021916908373ffffffffffffffffffffffffffffffffffffffff160217905550565b73__$acbfb1c35000d78352310b16a054a6b106$__63bfba5dd65f8054906101000a900473ffffffffffffffffffffffffffffffffffffffff1673ffffffffffffffffffffffffffffffffffffffff1663d50095846040518163ffffffff1660e01b8152600401602060405180830381865afa1580156104cd573d5f803e3d5ffd5b505050506040513d601f19601f820116820180604052508101906104f19190610693565b60015f9054906101000a900473ffffffffffffffffffffffffffffffffffffffff166040518363ffffffff1660e01b815260040161053092919061086f565b602060405180830381865af415801561054b573d5f803e3d5ffd5b505050506040513d601f19601f8201168201806040525081019061056f91906108de565b50565b6129258061090a83390190565b5f819050919050565b5f819050919050565b5f819050919050565b5f6105b46105af6105aa8461057f565b610591565b610588565b9050919050565b6105c48161059a565b82525050565b5f6020820190506105dd5f8301846105bb565b92915050565b5f819050919050565b5f6106066106016105fc846105e3565b610591565b610588565b9050919050565b610616816105ec565b82525050565b5f60208201905061062f5f83018461060d565b92915050565b5f80fd5b5f73ffffffffffffffffffffffffffffffffffffffff82169050919050565b5f61066282610639565b9050919050565b61067281610658565b811461067c575f80fd5b50565b5f8151905061068d81610669565b92915050565b5f602082840312156106a8576106a7610635565b5b5f6106b58482850161067f565b91505092915050565b5f819050919050565b5f6106e16106dc6106d7846106be565b610591565b610588565b9050919050565b6106f1816106c7565b82525050565b5f60208201905061070a5f8301846106e8565b92915050565b5f819050919050565b5f61073361072e61072984610710565b610591565b610588565b9050919050565b61074381610719565b82525050565b5f60208201905061075c5f83018461073a565b92915050565b5f819050919050565b5f61078561078061077b84610762565b610591565b610588565b9050919050565b6107958161076b565b82525050565b5f6020820190506107ae5f83018461078c565b92915050565b5f819050919050565b5f6107d76107d26107cd846107b4565b610591565b610588565b9050919050565b6107e7816107bd565b82525050565b5f6020820190506108005f8301846107de565b92915050565b61080f81610658565b82525050565b5f82825260208201905092915050565b7f4d616e616765722073686f756c642062652061636330000000000000000000005f82015250565b5f610859601683610815565b915061086482610825565b602082019050919050565b5f6060820190506108825f830185610806565b61088f6020830184610806565b81810360408301526108a08161084d565b90509392505050565b5f8115159050919050565b6108bd816108a9565b81146108c7575f80fd5b50565b5f815190506108d8816108b4565b92915050565b5f602082840312156108f3576108f2610635565b5b5f610900848285016108ca565b9150509291505056fe60806040525f6002555f6003555f60045560405180602001604052805f8152506006908161002d919061032c565b505f60095f6101000a81548160ff0219169083151502179055506001600c5f6101000a81548160ff02191690831515021790555034801561006c575f80fd5b50604051612925380380612925833981810160405281019061008e9190610429565b3360055f6101000a81548173ffffffffffffffffffffffffffffffffffffffff021916908373ffffffffffffffffffffffffffffffffffffffff1602179055505f81036100da57600a90505b80436100e69190610481565b600b81905550506104b4565b5f81519050919050565b7f4e487b71000000000000000000000000000000000000000000000000000000005f52604160045260245ffd5b7f4e487b71000000000000000000000000000000000000000000000000000000005f52602260045260245ffd5b5f600282049050600182168061016d57607f821691505b6020821081036101805761017f610129565b5b50919050565b5f819050815f5260205f209050919050565b5f6020601f8301049050919050565b5f82821b905092915050565b5f600883026101e27fffffffffffffffffffffffffffffffffffffffffffffffffffffffffffffffff826101a7565b6101ec86836101a7565b95508019841693508086168417925050509392505050565b5f819050919050565b5f819050919050565b5f61023061022b61022684610204565b61020d565b610204565b9050919050565b5f819050919050565b61024983610216565b61025d61025582610237565b8484546101b3565b825550505050565b5f90565b610271610265565b61027c818484610240565b505050565b5b8181101561029f576102945f82610269565b600181019050610282565b5050565b601f8211156102e4576102b581610186565b6102be84610198565b810160208510156102cd578190505b6102e16102d985610198565b830182610281565b50505b505050565b5f82821c905092915050565b5f6103045f19846008026102e9565b1980831691505092915050565b5f61031c83836102f5565b9150826002028217905092915050565b610335826100f2565b67ffffffffffffffff81111561034e5761034d6100fc565b5b6103588254610156565b6103638282856102a3565b5f60209050601f831160018114610394575f8415610382578287015190505b61038c8582610311565b8655506103f3565b601f1984166103a286610186565b5f5b828110156103c9578489015182556001820191506020850194506020810190506103a4565b868310156103e657848901516103e2601f8916826102f5565b8355505b6001600288020188555050505b505050505050565b5f80fd5b61040881610204565b8114610412575f80fd5b50565b5f81519050610423816103ff565b92915050565b5f6020828403121561043e5761043d6103fb565b5b5f61044b84828501610415565b91505092915050565b7f4e487b71000000000000000000000000000000000000000000000000000000005f52601160045260245ffd5b5f61048b82610204565b915061049683610204565b92508282019050808211156104ae576104ad610454565b5b92915050565b612464806104c15f395ff3fe608060405234801561000f575f80fd5b506004361061011f575f3560e01c806367e404ce116100ab578063ad5461d81161006f578063ad5461d81461030d578063b798867f1461033d578063c1c16efc1461035b578063d500958414610379578063eb4439fb146103975761011f565b806367e404ce146102795780636d77bd3e14610297578063788d3851146102c7578063894ba833146102e5578063a3bef4d7146102ef5761011f565b806347098f36116100f257806347098f36146101d2578063481c6a75146101f05780635952ccb81461020e5780635df813301461022c57806366063df41461025d5761011f565b8063124258c6146101235780631ddabf7a1461015357806322f3e2d4146101845780633b9f708d146101a2575b5f80fd5b61013d60048036038101906101389190611517565b6103a1565b60405161014a919061155c565b60405180910390f35b61016d600480360381019061016891906115cf565b61073f565b60405161017b92919061166a565b60405180910390f35b61018c6107f1565b604051610199919061155c565b60405180910390f35b6101bc60048036038101906101b791906117c4565b610803565b6040516101c9919061182d565b60405180910390f35b6101da610ac4565b6040516101e7919061182d565b60405180910390f35b6101f8610aca565b6040516102059190611855565b60405180910390f35b610216610aef565b604051610223919061182d565b60405180910390f35b61024660048036038101906102419190611517565b610af5565b60405161025492919061186e565b60405180910390f35b61027760048036038101906102729190611517565b610b43565b005b610281610c3c565b60405161028e9190611855565b60405180910390f35b6102b160048036038101906102ac9190611895565b610c62565b6040516102be919061182d565b60405180910390f35b6102cf610eb3565b6040516102dc919061155c565b60405180910390f35b6102ed610ec5565b005b6102f7610fc4565b604051610304919061182d565b60405180910390f35b61032760048036038101906103229190611517565b610fca565b60405161033491906118dc565b60405180910390f35b610345611064565b604051610352919061182d565b60405180910390f35b61036361106a565b60405161037091906118dc565b60405180910390f35b6103816110f6565b60405161038e9190611855565b60405180910390f35b61039f61111e565b005b5f6001151560095f9054906101000a900460ff161515146103f7576040517f08c379a00000000000000000000000000000000000000000000000000000000081526004016103ee9061196c565b60405180910390fd5b60011515600c5f9054906101000a900460ff1615151461044c576040517f08c379a0000000000000000000000000000000000000000000000000000000008152600401610443906119d4565b60405180910390fd5b5f90505f60015f3373ffffffffffffffffffffffffffffffffffffffff1673ffffffffffffffffffffffffffffffffffffffff1681526020019081526020015f205f01805461049a90611a1f565b9050036104dc576040517f08c379a00000000000000000000000000000000000000000000000000000000081526004016104d390611a99565b60405180910390fd5b5f805f8481526020019081526020015f2080546104f890611a1f565b90500361053a576040517f08c379a000000000000000000000000000000000000000000000000000000000815260040161053190611b01565b60405180910390fd5b60015f3373ffffffffffffffffffffffffffffffffffffffff1673ffffffffffffffffffffffffffffffffffffffff1681526020019081526020015f206001015f9054906101000a900460ff16156105c7576040517f08c379a00000000000000000000000000000000000000000000000000000000081526004016105be90611b69565b60405180910390fd5b600b5443106105d9576105d86112ed565b5b600190506001805f3373ffffffffffffffffffffffffffffffffffffffff1673ffffffffffffffffffffffffffffffffffffffff1681526020019081526020015f206001015f6101000a81548160ff02191690831515021790555060045f81548092919061064690611bb4565b919050555061065361148a565b33815f019073ffffffffffffffffffffffffffffffffffffffff16908173ffffffffffffffffffffffffffffffffffffffff168152505082816020018181525050600781908060018154018082558091505060019003905f5260205f2090600202015f909190919091505f820151815f015f6101000a81548173ffffffffffffffffffffffffffffffffffffffff021916908373ffffffffffffffffffffffffffffffffffffffff1602179055506020820151816001015550506001600260035461071e9190611c28565b6107289190611c58565b60045410610739576107386112ed565b5b50919050565b6001602052805f5260405f205f91509050805f01805461075e90611a1f565b80601f016020809104026020016040519081016040528092919081815260200182805461078a90611a1f565b80156107d55780601f106107ac576101008083540402835291602001916107d5565b820191905f5260205f20905b8154815290600101906020018083116107b857829003601f168201915b505050505090806001015f9054906101000a900460ff16905082565b600c5f9054906101000a900460ff1681565b5f60055f9054906101000a900473ffffffffffffffffffffffffffffffffffffffff1673ffffffffffffffffffffffffffffffffffffffff163373ffffffffffffffffffffffffffffffffffffffff1614610893576040517f08c379a000000000000000000000000000000000000000000000000000000000815260040161088a90611cfb565b60405180910390fd5b5f151560095f9054906101000a900460ff161515146108e7576040517f08c379a00000000000000000000000000000000000000000000000000000000081526004016108de90611d89565b60405180910390fd5b600b54431061092b576040517f08c379a000000000000000000000000000000000000000000000000000000000815260040161092290611df1565b60405180910390fd5b60011515600c5f9054906101000a900460ff16151514610980576040517f08c379a0000000000000000000000000000000000000000000000000000000008152600401610977906119d4565b60405180910390fd5b5f60015f8573ffffffffffffffffffffffffffffffffffffffff1673ffffffffffffffffffffffffffffffffffffffff1681526020019081526020015f205f0180546109cb90611a1f565b905014610a0d576040517f08c379a0000000000000000000000000000000000000000000000000000000008152600401610a0490611e59565b60405180910390fd5b60035f815480929190610a1f90611bb4565b9190505550610a2c6114b8565b82815f01819052505f8160200190151590811515815250508060015f8673ffffffffffffffffffffffffffffffffffffffff1673ffffffffffffffffffffffffffffffffffffffff1681526020019081526020015f205f820151815f019081610a959190612014565b506020820151816001015f6101000a81548160ff02191690831515021790555090505060035491505092915050565b60035481565b60055f9054906101000a900473ffffffffffffffffffffffffffffffffffffffff1681565b600b5481565b60078181548110610b04575f80fd5b905f5260205f2090600202015f91509050805f015f9054906101000a900473ffffffffffffffffffffffffffffffffffffffff16908060010154905082565b60055f9054906101000a900473ffffffffffffffffffffffffffffffffffffffff1673ffffffffffffffffffffffffffffffffffffffff163373ffffffffffffffffffffffffffffffffffffffff1614610bd2576040517f08c379a0000000000000000000000000000000000000000000000000000000008152600401610bc990611cfb565b60405180910390fd5b60011515600c5f9054906101000a900460ff16151514610c27576040517f08c379a0000000000000000000000000000000000000000000000000000000008152600401610c1e906119d4565b60405180910390fd5b8043610c339190611c58565b600b8190555050565b600c60019054906101000a900473ffffffffffffffffffffffffffffffffffffffff1681565b5f60055f9054906101000a900473ffffffffffffffffffffffffffffffffffffffff1673ffffffffffffffffffffffffffffffffffffffff163373ffffffffffffffffffffffffffffffffffffffff1614610cf2576040517f08c379a0000000000000000000000000000000000000000000000000000000008152600401610ce990611cfb565b60405180910390fd5b5f151560095f9054906101000a900460ff16151514610d46576040517f08c379a0000000000000000000000000000000000000000000000000000000008152600401610d3d90611d89565b60405180910390fd5b600b544310610d8a576040517f08c379a0000000000000000000000000000000000000000000000000000000008152600401610d8190611df1565b60405180910390fd5b60011515600c5f9054906101000a900460ff16151514610ddf576040517f08c379a0000000000000000000000000000000000000000000000000000000008152600401610dd6906119d4565b60405180910390fd5b5f82805190602001209050600a5f8281526020019081526020015f205f9054906101000a900460ff1615610e48576040517f08c379a0000000000000000000000000000000000000000000000000000000008152600401610e3f9061212d565b60405180910390fd5b60025f815480929190610e5a90611bb4565b9190505550825f8060025481526020019081526020015f209081610e7e9190612014565b506001600a5f8381526020019081526020015f205f6101000a81548160ff021916908315150217905550600254915050919050565b60095f9054906101000a900460ff1681565b60055f9054906101000a900473ffffffffffffffffffffffffffffffffffffffff1673ffffffffffffffffffffffffffffffffffffffff163373ffffffffffffffffffffffffffffffffffffffff1614610f54576040517f08c379a0000000000000000000000000000000000000000000000000000000008152600401610f4b90611cfb565b60405180910390fd5b60011515600c5f9054906101000a900460ff16151514610fa9576040517f08c379a0000000000000000000000000000000000000000000000000000000008152600401610fa0906119d4565b60405180910390fd5b5f600c5f6101000a81548160ff021916908315150217905550565b60045481565b5f602052805f5260405f205f915090508054610fe590611a1f565b80601f016020809104026020016040519081016040528092919081815260200182805461101190611a1f565b801561105c5780601f106110335761010080835404028352916020019161105c565b820191905f5260205f20905b81548152906001019060200180831161103f57829003601f168201915b505050505081565b60025481565b6006805461107790611a1f565b80601f01602080910402602001604051908101604052809291908181526020018280546110a390611a1f565b80156110ee5780601f106110c5576101008083540402835291602001916110ee565b820191905f5260205f20905b8154815290600101906020018083116110d157829003601f168201915b505050505081565b5f60055f9054906101000a900473ffffffffffffffffffffffffffffffffffffffff16905090565b60055f9054906101000a900473ffffffffffffffffffffffffffffffffffffffff1673ffffffffffffffffffffffffffffffffffffffff163373ffffffffffffffffffffffffffffffffffffffff16146111ad576040517f08c379a00000000000000000000000000000000000000000000000000000000081526004016111a490611cfb565b60405180910390fd5b60011515600c5f9054906101000a900460ff16151514611202576040517f08c379a00000000000000000000000000000000000000000000000000000000081526004016111f9906119d4565b60405180910390fd5b600280541015611247576040517f08c379a000000000000000000000000000000000000000000000000000000000815260040161123e906121bb565b60405180910390fd5b6002600354101561128d576040517f08c379a000000000000000000000000000000000000000000000000000000000815260040161128490612249565b60405180910390fd5b600b5443106112d1576040517f08c379a00000000000000000000000000000000000000000000000000000000081526004016112c8906122d7565b60405180910390fd5b600160095f6101000a81548160ff021916908315150217905550565b60011515600c5f9054906101000a900460ff16151514611342576040517f08c379a0000000000000000000000000000000000000000000000000000000008152600401611339906119d4565b60405180910390fd5b5f805f5b60045481101561144d575f600190505f60085f6007858154811061136d5761136c6122f5565b5b905f5260205f2090600202016001015481526020019081526020015f205411156113d45760085f600784815481106113a8576113a76122f5565b5b905f5260205f2090600202016001015481526020019081526020015f2054816113d19190611c58565b90505b8060085f600785815481106113ec576113eb6122f5565b5b905f5260205f2090600202016001015481526020019081526020015f20819055508381111561143f578093506007828154811061142c5761142b6122f5565b5b905f5260205f2090600202016001015492505b508080600101915050611346565b505f808281526020019081526020015f206006908161146c9190612349565b505f60095f6101000a81548160ff0219169083151502179055505050565b60405180604001604052805f73ffffffffffffffffffffffffffffffffffffffff1681526020015f81525090565b6040518060400160405280606081526020015f151581525090565b5f604051905090565b5f80fd5b5f80fd5b5f819050919050565b6114f6816114e4565b8114611500575f80fd5b50565b5f81359050611511816114ed565b92915050565b5f6020828403121561152c5761152b6114dc565b5b5f61153984828501611503565b91505092915050565b5f8115159050919050565b61155681611542565b82525050565b5f60208201905061156f5f83018461154d565b92915050565b5f73ffffffffffffffffffffffffffffffffffffffff82169050919050565b5f61159e82611575565b9050919050565b6115ae81611594565b81146115b8575f80fd5b50565b5f813590506115c9816115a5565b92915050565b5f602082840312156115e4576115e36114dc565b5b5f6115f1848285016115bb565b91505092915050565b5f81519050919050565b5f82825260208201905092915050565b8281835e5f83830152505050565b5f601f19601f8301169050919050565b5f61163c826115fa565b6116468185611604565b9350611656818560208601611614565b61165f81611622565b840191505092915050565b5f6040820190508181035f8301526116828185611632565b9050611691602083018461154d565b9392505050565b5f80fd5b5f80fd5b7f4e487b71000000000000000000000000000000000000000000000000000000005f52604160045260245ffd5b6116d682611622565b810181811067ffffffffffffffff821117156116f5576116f46116a0565b5b80604052505050565b5f6117076114d3565b905061171382826116cd565b919050565b5f67ffffffffffffffff821115611732576117316116a0565b5b61173b82611622565b9050602081019050919050565b828183375f83830152505050565b5f61176861176384611718565b6116fe565b9050828152602081018484840111156117845761178361169c565b5b61178f848285611748565b509392505050565b5f82601f8301126117ab576117aa611698565b5b81356117bb848260208601611756565b91505092915050565b5f80604083850312156117da576117d96114dc565b5b5f6117e7858286016115bb565b925050602083013567ffffffffffffffff811115611808576118076114e0565b5b61181485828601611797565b9150509250929050565b611827816114e4565b82525050565b5f6020820190506118405f83018461181e565b92915050565b61184f81611594565b82525050565b5f6020820190506118685f830184611846565b92915050565b5f6040820190506118815f830185611846565b61188e602083018461181e565b9392505050565b5f602082840312156118aa576118a96114dc565b5b5f82013567ffffffffffffffff8111156118c7576118c66114e0565b5b6118d384828501611797565b91505092915050565b5f6020820190508181035f8301526118f48184611632565b905092915050565b7f43616e20766f7465206f6e6c79207768696c6520766f74696e67206973206f705f8201527f656e000000000000000000000000000000000000000000000000000000000000602082015250565b5f611956602283611604565b9150611961826118fc565b604082019050919050565b5f6020820190508181035f8301526119838161194a565b9050919050565b7f4f6e6c79207768656e20636f6e747261637420697320616374697665000000005f82015250565b5f6119be601c83611604565b91506119c98261198a565b602082019050919050565b5f6020820190508181035f8301526119eb816119b2565b9050919050565b7f4e487b71000000000000000000000000000000000000000000000000000000005f52602260045260245ffd5b5f6002820490506001821680611a3657607f821691505b602082108103611a4957611a486119f2565b5b50919050565b7f467269656e6420646f6573206e6f7420657869737400000000000000000000005f82015250565b5f611a83601583611604565b9150611a8e82611a4f565b602082019050919050565b5f6020820190508181035f830152611ab081611a77565b9050919050565b7f52657374617572616e7420766f74656420646f6573206e6f74206578697374005f82015250565b5f611aeb601f83611604565b9150611af682611ab7565b602082019050919050565b5f6020820190508181035f830152611b1881611adf565b9050919050565b7f467269656e642068617320766f74656420616c726561647900000000000000005f82015250565b5f611b53601883611604565b9150611b5e82611b1f565b602082019050919050565b5f6020820190508181035f830152611b8081611b47565b9050919050565b7f4e487b71000000000000000000000000000000000000000000000000000000005f52601160045260245ffd5b5f611bbe826114e4565b91507fffffffffffffffffffffffffffffffffffffffffffffffffffffffffffffffff8203611bf057611bef611b87565b5b600182019050919050565b7f4e487b71000000000000000000000000000000000000000000000000000000005f52601260045260245ffd5b5f611c32826114e4565b9150611c3d836114e4565b925082611c4d57611c4c611bfb565b5b828204905092915050565b5f611c62826114e4565b9150611c6d836114e4565b9250828201905080821115611c8557611c84611b87565b5b92915050565b7f43616e206f6e6c7920626520657865637574656420627920746865206d616e615f8201527f6765720000000000000000000000000000000000000000000000000000000000602082015250565b5f611ce5602383611604565b9150611cf082611c8b565b604082019050919050565b5f6020820190508181035f830152611d1281611cd9565b9050919050565b7f43616e2061646420667269656e6473206f722072657374617572616e7473206f5f8201527f6e6c79207768656e20766f74696e672069732064697361626c65640000000000602082015250565b5f611d73603b83611604565b9150611d7e82611d19565b604082019050919050565b5f6020820190508181035f830152611da081611d67565b9050919050565b7f54696d656f7574207265616368656400000000000000000000000000000000005f82015250565b5f611ddb600f83611604565b9150611de682611da7565b602082019050919050565b5f6020820190508181035f830152611e0881611dcf565b9050919050565b7f467269656e6420616c72656164792065786973747300000000000000000000005f82015250565b5f611e43601583611604565b9150611e4e82611e0f565b602082019050919050565b5f6020820190508181035f830152611e7081611e37565b9050919050565b5f819050815f5260205f209050919050565b5f6020601f8301049050919050565b5f82821b905092915050565b5f60088302611ed37fffffffffffffffffffffffffffffffffffffffffffffffffffffffffffffffff82611e98565b611edd8683611e98565b95508019841693508086168417925050509392505050565b5f819050919050565b5f611f18611f13611f0e846114e4565b611ef5565b6114e4565b9050919050565b5f819050919050565b611f3183611efe565b611f45611f3d82611f1f565b848454611ea4565b825550505050565b5f90565b611f59611f4d565b611f64818484611f28565b505050565b5b81811015611f8757611f7c5f82611f51565b600181019050611f6a565b5050565b601f821115611fcc57611f9d81611e77565b611fa684611e89565b81016020851015611fb5578190505b611fc9611fc185611e89565b830182611f69565b50505b505050565b5f82821c905092915050565b5f611fec5f1984600802611fd1565b1980831691505092915050565b5f6120048383611fdd565b9150826002028217905092915050565b61201d826115fa565b67ffffffffffffffff811115612036576120356116a0565b5b6120408254611a1f565b61204b828285611f8b565b5f60209050601f83116001811461207c575f841561206a578287015190505b6120748582611ff9565b8655506120db565b601f19841661208a86611e77565b5f5b828110156120b15784890151825560018201915060208501945060208101905061208c565b868310156120ce57848901516120ca601f891682611fdd565b8355505b6001600288020188555050505b505050505050565b7f52657374617572616e7420616c726561647920657869737473000000000000005f82015250565b5f612117601983611604565b9150612122826120e3565b602082019050919050565b5f6020820190508181035f8301526121448161210b565b9050919050565b7f43616e20766f7465206f6e6c79207768656e20746865726520617265206174205f8201527f6c6561737420322072657374617572616e747300000000000000000000000000602082015250565b5f6121a5603383611604565b91506121b08261214b565b604082019050919050565b5f6020820190508181035f8301526121d281612199565b9050919050565b7f43616e20766f7465206f6e6c79207768656e20746865726520617265206174205f8201527f6c65617374203220667269656e64730000000000000000000000000000000000602082015250565b5f612233602f83611604565b915061223e826121d9565b604082019050919050565b5f6020820190508181035f83015261226081612227565b9050919050565b7f54696d656f7574207265616368656420616e6420766f74696e6720697320636c5f8201527f6f73656400000000000000000000000000000000000000000000000000000000602082015250565b5f6122c1602483611604565b91506122cc82612267565b604082019050919050565b5f6020820190508181035f8301526122ee816122b5565b9050919050565b7f4e487b71000000000000000000000000000000000000000000000000000000005f52603260045260245ffd5b5f8154905061233081611a1f565b9050919050565b5f819050815f5260205f209050919050565b81810361235757505061242c565b61236082612322565b67ffffffffffffffff811115612379576123786116a0565b5b6123838254611a1f565b61238e828285611f8b565b5f601f8311600181146123bb575f84156123a9578287015490505b6123b38582611ff9565b865550612425565b601f1984166123c987612337565b96506123d486611e77565b5f5b828110156123fb578489015482556001820191506001850194506020810190506123d6565b868310156124185784890154612414601f891682611fdd565b8355505b6001600288020188555050505b5050505050505b56fea2646970667358221220da6fae1c252ba7153f9398fc8061e03f83c354f2ee28398df9d2a5b1f233792a64736f6c634300081a0033a264697066735822122075639ab852a5e02d9286c553c440bcc2d6de133facb305db9d578af7a1f26bf564736f6c634300081a0033",
			"opcodes": "PUSH1 0x80 PUSH1 0x40 MSTORE CALLVALUE DUP1 ISZERO PUSH1 0xE JUMPI PUSH0 DUP1 REVERT JUMPDEST POP PUSH2 0x3264 DUP1 PUSH2 0x1C PUSH0 CODECOPY PUSH0 RETURN INVALID PUSH1 0x80 PUSH1 0x40 MSTORE CALLVALUE DUP1 ISZERO PUSH2 0xF JUMPI PUSH0 DUP1 REVERT JUMPDEST POP PUSH1 0x4 CALLDATASIZE LT PUSH2 0x34 JUMPI PUSH0 CALLDATALOAD PUSH1 0xE0 SHR DUP1 PUSH4 0x7FEA0D4B EQ PUSH2 0x38 JUMPI DUP1 PUSH4 0x947AEA86 EQ PUSH2 0x42 JUMPI JUMPDEST PUSH0 DUP1 REVERT JUMPDEST PUSH2 0x40 PUSH2 0x4C JUMP JUMPDEST STOP JUMPDEST PUSH2 0x4A PUSH2 0x44B JUMP JUMPDEST STOP JUMPDEST PUSH1 0x64 PUSH1 0x40 MLOAD PUSH2 0x5A SWAP1 PUSH2 0x572 JUMP JUMPDEST PUSH2 0x64 SWAP2 SWAP1 PUSH2 0x5CA JUMP JUMPDEST PUSH1 0x40 MLOAD DUP1 SWAP2 SUB SWAP1 PUSH0 CREATE DUP1 ISZERO DUP1 ISZERO PUSH2 0x7D JUMPI RETURNDATASIZE PUSH0 DUP1 RETURNDATACOPY RETURNDATASIZE PUSH0 REVERT JUMPDEST POP PUSH0 DUP1 PUSH2 0x100 EXP DUP2 SLOAD DUP2 PUSH20 0xFFFFFFFFFFFFFFFFFFFFFFFFFFFFFFFFFFFFFFFF MUL NOT AND SWAP1 DUP4 PUSH20 0xFFFFFFFFFFFFFFFFFFFFFFFFFFFFFFFFFFFFFFFF AND MUL OR SWAP1 SSTORE POP PUSH20 0x0 PUSH4 0xCE88B145 PUSH0 PUSH1 0x40 MLOAD DUP3 PUSH4 0xFFFFFFFF AND PUSH1 0xE0 SHL DUP2 MSTORE PUSH1 0x4 ADD PUSH2 0xF3 SWAP2 SWAP1 PUSH2 0x61C JUMP JUMPDEST PUSH1 0x20 PUSH1 0x40 MLOAD DUP1 DUP4 SUB DUP2 DUP7 GAS DELEGATECALL ISZERO DUP1 ISZERO PUSH2 0x10E JUMPI RETURNDATASIZE PUSH0 DUP1 RETURNDATACOPY RETURNDATASIZE PUSH0 REVERT JUMPDEST POP POP POP POP PUSH1 0x40 MLOAD RETURNDATASIZE PUSH1 0x1F NOT PUSH1 0x1F DUP3 ADD AND DUP3 ADD DUP1 PUSH1 0x40 MSTORE POP DUP2 ADD SWAP1 PUSH2 0x132 SWAP2 SWAP1 PUSH2 0x693 JUMP JUMPDEST PUSH1 0x1 PUSH0 PUSH2 0x100 EXP DUP2 SLOAD DUP2 PUSH20 0xFFFFFFFFFFFFFFFFFFFFFFFFFFFFFFFFFFFFFFFF MUL NOT AND SWAP1 DUP4 PUSH20 0xFFFFFFFFFFFFFFFFFFFFFFFFFFFFFFFFFFFFFFFF AND MUL OR SWAP1 SSTORE POP PUSH20 0x0 PUSH4 0xCE88B145 PUSH1 0x1 PUSH1 0x40 MLOAD DUP3 PUSH4 0xFFFFFFFF AND PUSH1 0xE0 SHL DUP2 MSTORE PUSH1 0x4 ADD PUSH2 0x1A9 SWAP2 SWAP1 PUSH2 0x6F7 JUMP JUMPDEST PUSH1 0x20 PUSH1 0x40 MLOAD DUP1 DUP4 SUB DUP2 DUP7 GAS DELEGATECALL ISZERO DUP1 ISZERO PUSH2 0x1C4 JUMPI RETURNDATASIZE PUSH0 DUP1 RETURNDATACOPY RETURNDATASIZE PUSH0 REVERT JUMPDEST POP POP POP POP PUSH1 0x40 MLOAD RETURNDATASIZE PUSH1 0x1F NOT PUSH1 0x1F DUP3 ADD AND DUP3 ADD DUP1 PUSH1 0x40 MSTORE POP DUP2 ADD SWAP1 PUSH2 0x1E8 SWAP2 SWAP1 PUSH2 0x693 JUMP JUMPDEST PUSH1 0x2 PUSH0 PUSH2 0x100 EXP DUP2 SLOAD DUP2 PUSH20 0xFFFFFFFFFFFFFFFFFFFFFFFFFFFFFFFFFFFFFFFF MUL NOT AND SWAP1 DUP4 PUSH20 0xFFFFFFFFFFFFFFFFFFFFFFFFFFFFFFFFFFFFFFFF AND MUL OR SWAP1 SSTORE POP PUSH20 0x0 PUSH4 0xCE88B145 PUSH1 0x2 PUSH1 0x40 MLOAD DUP3 PUSH4 0xFFFFFFFF AND PUSH1 0xE0 SHL DUP2 MSTORE PUSH1 0x4 ADD PUSH2 0x25F SWAP2 SWAP1 PUSH2 0x749 JUMP JUMPDEST PUSH1 0x20 PUSH1 0x40 MLOAD DUP1 DUP4 SUB DUP2 DUP7 GAS DELEGATECALL ISZERO DUP1 ISZERO PUSH2 0x27A JUMPI RETURNDATASIZE PUSH0 DUP1 RETURNDATACOPY RETURNDATASIZE PUSH0 REVERT JUMPDEST POP POP POP POP PUSH1 0x40 MLOAD RETURNDATASIZE PUSH1 0x1F NOT PUSH1 0x1F DUP3 ADD AND DUP3 ADD DUP1 PUSH1 0x40 MSTORE POP DUP2 ADD SWAP1 PUSH2 0x29E SWAP2 SWAP1 PUSH2 0x693 JUMP JUMPDEST PUSH1 0x3 PUSH0 PUSH2 0x100 EXP DUP2 SLOAD DUP2 PUSH20 0xFFFFFFFFFFFFFFFFFFFFFFFFFFFFFFFFFFFFFFFF MUL NOT AND SWAP1 DUP4 PUSH20 0xFFFFFFFFFFFFFFFFFFFFFFFFFFFFFFFFFFFFFFFF AND MUL OR SWAP1 SSTORE POP PUSH20 0x0 PUSH4 0xCE88B145 PUSH1 0x3 PUSH1 0x40 MLOAD DUP3 PUSH4 0xFFFFFFFF AND PUSH1 0xE0 SHL DUP2 MSTORE PUSH1 0x4 ADD PUSH2 0x315 SWAP2 SWAP1 PUSH2 0x79B JUMP JUMPDEST PUSH1 0x20 PUSH1 0x40 MLOAD DUP1 DUP4 SUB DUP2 DUP7 GAS DELEGATECALL ISZERO DUP1 ISZERO PUSH2 0x330 JUMPI RETURNDATASIZE PUSH0 DUP1 RETURNDATACOPY RETURNDATASIZE PUSH0 REVERT JUMPDEST POP POP POP POP PUSH1 0x40 MLOAD RETURNDATASIZE PUSH1 0x1F NOT PUSH1 0x1F DUP3 ADD AND DUP3 ADD DUP1 PUSH1 0x40 MSTORE POP DUP2 ADD SWAP1 PUSH2 0x354 SWAP2 SWAP1 PUSH2 0x693 JUMP JUMPDEST PUSH1 0x4 PUSH0 PUSH2 0x100 EXP DUP2 SLOAD DUP2 PUSH20 0xFFFFFFFFFFFFFFFFFFFFFFFFFFFFFFFFFFFFFFFF MUL NOT AND SWAP1 DUP4 PUSH20 0xFFFFFFFFFFFFFFFFFFFFFFFFFFFFFFFFFFFFFFFF AND MUL OR SWAP1 SSTORE POP PUSH20 0x0 PUSH4 0xCE88B145 PUSH1 0x4 PUSH1 0x40 MLOAD DUP3 PUSH4 0xFFFFFFFF AND PUSH1 0xE0 SHL DUP2 MSTORE PUSH1 0x4 ADD PUSH2 0x3CB SWAP2 SWAP1 PUSH2 0x7ED JUMP JUMPDEST PUSH1 0x20 PUSH1 0x40 MLOAD DUP1 DUP4 SUB DUP2 DUP7 GAS DELEGATECALL ISZERO DUP1 ISZERO PUSH2 0x3E6 JUMPI RETURNDATASIZE PUSH0 DUP1 RETURNDATACOPY RETURNDATASIZE PUSH0 REVERT JUMPDEST POP POP POP POP PUSH1 0x40 MLOAD RETURNDATASIZE PUSH1 0x1F NOT PUSH1 0x1F DUP3 ADD AND DUP3 ADD DUP1 PUSH1 0x40 MSTORE POP DUP2 ADD SWAP1 PUSH2 0x40A SWAP2 SWAP1 PUSH2 0x693 JUMP JUMPDEST PUSH1 0x5 PUSH0 PUSH2 0x100 EXP DUP2 SLOAD DUP2 PUSH20 0xFFFFFFFFFFFFFFFFFFFFFFFFFFFFFFFFFFFFFFFF MUL NOT AND SWAP1 DUP4 PUSH20 0xFFFFFFFFFFFFFFFFFFFFFFFFFFFFFFFFFFFFFFFF AND MUL OR SWAP1 SSTORE POP JUMP JUMPDEST PUSH20 0x0 PUSH4 0xBFBA5DD6 PUSH0 DUP1 SLOAD SWAP1 PUSH2 0x100 EXP SWAP1 DIV PUSH20 0xFFFFFFFFFFFFFFFFFFFFFFFFFFFFFFFFFFFFFFFF AND PUSH20 0xFFFFFFFFFFFFFFFFFFFFFFFFFFFFFFFFFFFFFFFF AND PUSH4 0xD5009584 PUSH1 0x40 MLOAD DUP2 PUSH4 0xFFFFFFFF AND PUSH1 0xE0 SHL DUP2 MSTORE PUSH1 0x4 ADD PUSH1 0x20 PUSH1 0x40 MLOAD DUP1 DUP4 SUB DUP2 DUP7 GAS STATICCALL ISZERO DUP1 ISZERO PUSH2 0x4CD JUMPI RETURNDATASIZE PUSH0 DUP1 RETURNDATACOPY RETURNDATASIZE PUSH0 REVERT JUMPDEST POP POP POP POP PUSH1 0x40 MLOAD RETURNDATASIZE PUSH1 0x1F NOT PUSH1 0x1F DUP3 ADD AND DUP3 ADD DUP1 PUSH1 0x40 MSTORE POP DUP2 ADD SWAP1 PUSH2 0x4F1 SWAP2 SWAP1 PUSH2 0x693 JUMP JUMPDEST PUSH1 0x1 PUSH0 SWAP1 SLOAD SWAP1 PUSH2 0x100 EXP SWAP1 DIV PUSH20 0xFFFFFFFFFFFFFFFFFFFFFFFFFFFFFFFFFFFFFFFF AND PUSH1 0x40 MLOAD DUP4 PUSH4 0xFFFFFFFF AND PUSH1 0xE0 SHL DUP2 MSTORE PUSH1 0x4 ADD PUSH2 0x530 SWAP3 SWAP2 SWAP1 PUSH2 0x86F JUMP JUMPDEST PUSH1 0x20 PUSH1 0x40 MLOAD DUP1 DUP4 SUB DUP2 DUP7 GAS DELEGATECALL ISZERO DUP1 ISZERO PUSH2 0x54B JUMPI RETURNDATASIZE PUSH0 DUP1 RETURNDATACOPY RETURNDATASIZE PUSH0 REVERT JUMPDEST POP POP POP POP PUSH1 0x40 MLOAD RETURNDATASIZE PUSH1 0x1F NOT PUSH1 0x1F DUP3 ADD AND DUP3 ADD DUP1 PUSH1 0x40 MSTORE POP DUP2 ADD SWAP1 PUSH2 0x56F SWAP2 SWAP1 PUSH2 0x8DE JUMP JUMPDEST POP JUMP JUMPDEST PUSH2 0x2925 DUP1 PUSH2 0x90A DUP4 CODECOPY ADD SWAP1 JUMP JUMPDEST PUSH0 DUP2 SWAP1 POP SWAP2 SWAP1 POP JUMP JUMPDEST PUSH0 DUP2 SWAP1 POP SWAP2 SWAP1 POP JUMP JUMPDEST PUSH0 DUP2 SWAP1 POP SWAP2 SWAP1 POP JUMP JUMPDEST PUSH0 PUSH2 0x5B4 PUSH2 0x5AF PUSH2 0x5AA DUP5 PUSH2 0x57F JUMP JUMPDEST PUSH2 0x591 JUMP JUMPDEST PUSH2 0x588 JUMP JUMPDEST SWAP1 POP SWAP2 SWAP1 POP JUMP JUMPDEST PUSH2 0x5C4 DUP2 PUSH2 0x59A JUMP JUMPDEST DUP3 MSTORE POP POP JUMP JUMPDEST PUSH0 PUSH1 0x20 DUP3 ADD SWAP1 POP PUSH2 0x5DD PUSH0 DUP4 ADD DUP5 PUSH2 0x5BB JUMP JUMPDEST SWAP3 SWAP2 POP POP JUMP JUMPDEST PUSH0 DUP2 SWAP1 POP SWAP2 SWAP1 POP JUMP JUMPDEST PUSH0 PUSH2 0x606 PUSH2 0x601 PUSH2 0x5FC DUP5 PUSH2 0x5E3 JUMP JUMPDEST PUSH2 0x591 JUMP JUMPDEST PUSH2 0x588 JUMP JUMPDEST SWAP1 POP SWAP2 SWAP1 POP JUMP JUMPDEST PUSH2 0x616 DUP2 PUSH2 0x5EC JUMP JUMPDEST DUP3 MSTORE POP POP JUMP JUMPDEST PUSH0 PUSH1 0x20 DUP3 ADD SWAP1 POP PUSH2 0x62F PUSH0 DUP4 ADD DUP5 PUSH2 0x60D JUMP JUMPDEST SWAP3 SWAP2 POP POP JUMP JUMPDEST PUSH0 DUP1 REVERT JUMPDEST PUSH0 PUSH20 0xFFFFFFFFFFFFFFFFFFFFFFFFFFFFFFFFFFFFFFFF DUP3 AND SWAP1 POP SWAP2 SWAP1 POP JUMP JUMPDEST PUSH0 PUSH2 0x662 DUP3 PUSH2 0x639 JUMP JUMPDEST SWAP1 POP SWAP2 SWAP1 POP JUMP JUMPDEST PUSH2 0x672 DUP2 PUSH2 0x658 JUMP JUMPDEST DUP2 EQ PUSH2 0x67C JUMPI PUSH0 DUP1 REVERT JUMPDEST POP JUMP JUMPDEST PUSH0 DUP2 MLOAD SWAP1 POP PUSH2 0x68D DUP2 PUSH2 0x669 JUMP JUMPDEST SWAP3 SWAP2 POP POP JUMP JUMPDEST PUSH0 PUSH1 0x20 DUP3 DUP5 SUB SLT ISZERO PUSH2 0x6A8 JUMPI PUSH2 0x6A7 PUSH2 0x635 JUMP JUMPDEST JUMPDEST PUSH0 PUSH2 0x6B5 DUP5 DUP3 DUP6 ADD PUSH2 0x67F JUMP JUMPDEST SWAP2 POP POP SWAP3 SWAP2 POP POP JUMP JUMPDEST PUSH0 DUP2 SWAP1 POP SWAP2 SWAP1 POP JUMP JUMPDEST PUSH0 PUSH2 0x6E1 PUSH2 0x6DC PUSH2 0x6D7 DUP5 PUSH2 0x6BE JUMP JUMPDEST PUSH2 0x591 JUMP JUMPDEST PUSH2 0x588 JUMP JUMPDEST SWAP1 POP SWAP2 SWAP1 POP JUMP JUMPDEST PUSH2 0x6F1 DUP2 PUSH2 0x6C7 JUMP JUMPDEST DUP3 MSTORE POP POP JUMP JUMPDEST PUSH0 PUSH1 0x20 DUP3 ADD SWAP1 POP PUSH2 0x70A PUSH0 DUP4 ADD DUP5 PUSH2 0x6E8 JUMP JUMPDEST SWAP3 SWAP2 POP POP JUMP JUMPDEST PUSH0 DUP2 SWAP1 POP SWAP2 SWAP1 POP JUMP JUMPDEST PUSH0 PUSH2 0x733 PUSH2 0x72E PUSH2 0x729 DUP5 PUSH2 0x710 JUMP JUMPDEST PUSH2 0x591 JUMP JUMPDEST PUSH2 0x588 JUMP JUMPDEST SWAP1 POP SWAP2 SWAP1 POP JUMP JUMPDEST PUSH2 0x743 DUP2 PUSH2 0x719 JUMP JUMPDEST DUP3 MSTORE POP POP JUMP JUMPDEST PUSH0 PUSH1 0x20 DUP3 ADD SWAP1 POP PUSH2 0x75C PUSH0 DUP4 ADD DUP5 PUSH2 0x73A JUMP JUMPDEST SWAP3 SWAP2 POP POP JUMP JUMPDEST PUSH0 DUP2 SWAP1 POP SWAP2 SWAP1 POP JUMP JUMPDEST PUSH0 PUSH2 0x785 PUSH2 0x780 PUSH2 0x77B DUP5 PUSH2 0x762 JUMP JUMPDEST PUSH2 0x591 JUMP JUMPDEST PUSH2 0x588 JUMP JUMPDEST SWAP1 POP SWAP2 SWAP1 POP JUMP JUMPDEST PUSH2 0x795 DUP2 PUSH2 0x76B JUMP JUMPDEST DUP3 MSTORE POP POP JUMP JUMPDEST PUSH0 PUSH1 0x20 DUP3 ADD SWAP1 POP PUSH2 0x7AE PUSH0 DUP4 ADD DUP5 PUSH2 0x78C JUMP JUMPDEST SWAP3 SWAP2 POP POP JUMP JUMPDEST PUSH0 DUP2 SWAP1 POP SWAP2 SWAP1 POP JUMP JUMPDEST PUSH0 PUSH2 0x7D7 PUSH2 0x7D2 PUSH2 0x7CD DUP5 PUSH2 0x7B4 JUMP JUMPDEST PUSH2 0x591 JUMP JUMPDEST PUSH2 0x588 JUMP JUMPDEST SWAP1 POP SWAP2 SWAP1 POP JUMP JUMPDEST PUSH2 0x7E7 DUP2 PUSH2 0x7BD JUMP JUMPDEST DUP3 MSTORE POP POP JUMP JUMPDEST PUSH0 PUSH1 0x20 DUP3 ADD SWAP1 POP PUSH2 0x800 PUSH0 DUP4 ADD DUP5 PUSH2 0x7DE JUMP JUMPDEST SWAP3 SWAP2 POP POP JUMP JUMPDEST PUSH2 0x80F DUP2 PUSH2 0x658 JUMP JUMPDEST DUP3 MSTORE POP POP JUMP JUMPDEST PUSH0 DUP3 DUP3 MSTORE PUSH1 0x20 DUP3 ADD SWAP1 POP SWAP3 SWAP2 POP POP JUMP JUMPDEST PUSH32 0x4D616E616765722073686F756C64206265206163633000000000000000000000 PUSH0 DUP3 ADD MSTORE POP JUMP JUMPDEST PUSH0 PUSH2 0x859 PUSH1 0x16 DUP4 PUSH2 0x815 JUMP JUMPDEST SWAP2 POP PUSH2 0x864 DUP3 PUSH2 0x825 JUMP JUMPDEST PUSH1 0x20 DUP3 ADD SWAP1 POP SWAP2 SWAP1 POP JUMP JUMPDEST PUSH0 PUSH1 0x60 DUP3 ADD SWAP1 POP PUSH2 0x882 PUSH0 DUP4 ADD DUP6 PUSH2 0x806 JUMP JUMPDEST PUSH2 0x88F PUSH1 0x20 DUP4 ADD DUP5 PUSH2 0x806 JUMP JUMPDEST DUP2 DUP2 SUB PUSH1 0x40 DUP4 ADD MSTORE PUSH2 0x8A0 DUP2 PUSH2 0x84D JUMP JUMPDEST SWAP1 POP SWAP4 SWAP3 POP POP POP JUMP JUMPDEST PUSH0 DUP2 ISZERO ISZERO SWAP1 POP SWAP2 SWAP1 POP JUMP JUMPDEST PUSH2 0x8BD DUP2 PUSH2 0x8A9 JUMP JUMPDEST DUP2 EQ PUSH2 0x8C7 JUMPI PUSH0 DUP1 REVERT JUMPDEST POP JUMP JUMPDEST PUSH0 DUP2 MLOAD SWAP1 POP PUSH2 0x8D8 DUP2 PUSH2 0x8B4 JUMP JUMPDEST SWAP3 SWAP2 POP POP JUMP JUMPDEST PUSH0 PUSH1 0x20 DUP3 DUP5 SUB SLT ISZERO PUSH2 0x8F3 JUMPI PUSH2 0x8F2 PUSH2 0x635 JUMP JUMPDEST JUMPDEST PUSH0 PUSH2 0x900 DUP5 DUP3 DUP6 ADD PUSH2 0x8CA JUMP JUMPDEST SWAP2 POP POP SWAP3 SWAP2 POP POP JUMP INVALID PUSH1 0x80 PUSH1 0x40 MSTORE PUSH0 PUSH1 0x2 SSTORE PUSH0 PUSH1 0x3 SSTORE PUSH0 PUSH1 0x4 SSTORE PUSH1 0x40 MLOAD DUP1 PUSH1 0x20 ADD PUSH1 0x40 MSTORE DUP1 PUSH0 DUP2 MSTORE POP PUSH1 0x6 SWAP1 DUP2 PUSH2 0x2D SWAP2 SWAP1 PUSH2 0x32C JUMP JUMPDEST POP PUSH0 PUSH1 0x9 PUSH0 PUSH2 0x100 EXP DUP2 SLOAD DUP2 PUSH1 0xFF MUL NOT AND SWAP1 DUP4 ISZERO ISZERO MUL OR SWAP1 SSTORE POP PUSH1 0x1 PUSH1 0xC PUSH0 PUSH2 0x100 EXP DUP2 SLOAD DUP2 PUSH1 0xFF MUL NOT AND SWAP1 DUP4 ISZERO ISZERO MUL OR SWAP1 SSTORE POP CALLVALUE DUP1 ISZERO PUSH2 0x6C JUMPI PUSH0 DUP1 REVERT JUMPDEST POP PUSH1 0x40 MLOAD PUSH2 0x2925 CODESIZE SUB DUP1 PUSH2 0x2925 DUP4 CODECOPY DUP2 DUP2 ADD PUSH1 0x40 MSTORE DUP2 ADD SWAP1 PUSH2 0x8E SWAP2 SWAP1 PUSH2 0x429 JUMP JUMPDEST CALLER PUSH1 0x5 PUSH0 PUSH2 0x100 EXP DUP2 SLOAD DUP2 PUSH20 0xFFFFFFFFFFFFFFFFFFFFFFFFFFFFFFFFFFFFFFFF MUL NOT AND SWAP1 DUP4 PUSH20 0xFFFFFFFFFFFFFFFFFFFFFFFFFFFFFFFFFFFFFFFF AND MUL OR SWAP1 SSTORE POP PUSH0 DUP2 SUB PUSH2 0xDA JUMPI PUSH1 0xA SWAP1 POP JUMPDEST DUP1 NUMBER PUSH2 0xE6 SWAP2 SWAP1 PUSH2 0x481 JUMP JUMPDEST PUSH1 0xB DUP2 SWAP1 SSTORE POP POP PUSH2 0x4B4 JUMP JUMPDEST PUSH0 DUP2 MLOAD SWAP1 POP SWAP2 SWAP1 POP JUMP JUMPDEST PUSH32 0x4E487B7100000000000000000000000000000000000000000000000000000000 PUSH0 MSTORE PUSH1 0x41 PUSH1 0x4 MSTORE PUSH1 0x24 PUSH0 REVERT JUMPDEST PUSH32 0x4E487B7100000000000000000000000000000000000000000000000000000000 PUSH0 MSTORE PUSH1 0x22 PUSH1 0x4 MSTORE PUSH1 0x24 PUSH0 REVERT JUMPDEST PUSH0 PUSH1 0x2 DUP3 DIV SWAP1 POP PUSH1 0x1 DUP3 AND DUP1 PUSH2 0x16D JUMPI PUSH1 0x7F DUP3 AND SWAP2 POP JUMPDEST PUSH1 0x20 DUP3 LT DUP2 SUB PUSH2 0x180 JUMPI PUSH2 0x17F PUSH2 0x129 JUMP JUMPDEST JUMPDEST POP SWAP2 SWAP1 POP JUMP JUMPDEST PUSH0 DUP2 SWAP1 POP DUP2 PUSH0 MSTORE PUSH1 0x20 PUSH0 KECCAK256 SWAP1 POP SWAP2 SWAP1 POP JUMP JUMPDEST PUSH0 PUSH1 0x20 PUSH1 0x1F DUP4 ADD DIV SWAP1 POP SWAP2 SWAP1 POP JUMP JUMPDEST PUSH0 DUP3 DUP3 SHL SWAP1 POP SWAP3 SWAP2 POP POP JUMP JUMPDEST PUSH0 PUSH1 0x8 DUP4 MUL PUSH2 0x1E2 PUSH32 0xFFFFFFFFFFFFFFFFFFFFFFFFFFFFFFFFFFFFFFFFFFFFFFFFFFFFFFFFFFFFFFFF DUP3 PUSH2 0x1A7 JUMP JUMPDEST PUSH2 0x1EC DUP7 DUP4 PUSH2 0x1A7 JUMP JUMPDEST SWAP6 POP DUP1 NOT DUP5 AND SWAP4 POP DUP1 DUP7 AND DUP5 OR SWAP3 POP POP POP SWAP4 SWAP3 POP POP POP JUMP JUMPDEST PUSH0 DUP2 SWAP1 POP SWAP2 SWAP1 POP JUMP JUMPDEST PUSH0 DUP2 SWAP1 POP SWAP2 SWAP1 POP JUMP JUMPDEST PUSH0 PUSH2 0x230 PUSH2 0x22B PUSH2 0x226 DUP5 PUSH2 0x204 JUMP JUMPDEST PUSH2 0x20D JUMP JUMPDEST PUSH2 0x204 JUMP JUMPDEST SWAP1 POP SWAP2 SWAP1 POP JUMP JUMPDEST PUSH0 DUP2 SWAP1 POP SWAP2 SWAP1 POP JUMP JUMPDEST PUSH2 0x249 DUP4 PUSH2 0x216 JUMP JUMPDEST PUSH2 0x25D PUSH2 0x255 DUP3 PUSH2 0x237 JUMP JUMPDEST DUP5 DUP5 SLOAD PUSH2 0x1B3 JUMP JUMPDEST DUP3 SSTORE POP POP POP POP JUMP JUMPDEST PUSH0 SWAP1 JUMP JUMPDEST PUSH2 0x271 PUSH2 0x265 JUMP JUMPDEST PUSH2 0x27C DUP2 DUP5 DUP5 PUSH2 0x240 JUMP JUMPDEST POP POP POP JUMP JUMPDEST JUMPDEST DUP2 DUP2 LT ISZERO PUSH2 0x29F JUMPI PUSH2 0x294 PUSH0 DUP3 PUSH2 0x269 JUMP JUMPDEST PUSH1 0x1 DUP2 ADD SWAP1 POP PUSH2 0x282 JUMP JUMPDEST POP POP JUMP JUMPDEST PUSH1 0x1F DUP3 GT ISZERO PUSH2 0x2E4 JUMPI PUSH2 0x2B5 DUP2 PUSH2 0x186 JUMP JUMPDEST PUSH2 0x2BE DUP5 PUSH2 0x198 JUMP JUMPDEST DUP2 ADD PUSH1 0x20 DUP6 LT ISZERO PUSH2 0x2CD JUMPI DUP2 SWAP1 POP JUMPDEST PUSH2 0x2E1 PUSH2 0x2D9 DUP6 PUSH2 0x198 JUMP JUMPDEST DUP4 ADD DUP3 PUSH2 0x281 JUMP JUMPDEST POP POP JUMPDEST POP POP POP JUMP JUMPDEST PUSH0 DUP3 DUP3 SHR SWAP1 POP SWAP3 SWAP2 POP POP JUMP JUMPDEST PUSH0 PUSH2 0x304 PUSH0 NOT DUP5 PUSH1 0x8 MUL PUSH2 0x2E9 JUMP JUMPDEST NOT DUP1 DUP4 AND SWAP2 POP POP SWAP3 SWAP2 POP POP JUMP JUMPDEST PUSH0 PUSH2 0x31C DUP4 DUP4 PUSH2 0x2F5 JUMP JUMPDEST SWAP2 POP DUP3 PUSH1 0x2 MUL DUP3 OR SWAP1 POP SWAP3 SWAP2 POP POP JUMP JUMPDEST PUSH2 0x335 DUP3 PUSH2 0xF2 JUMP JUMPDEST PUSH8 0xFFFFFFFFFFFFFFFF DUP2 GT ISZERO PUSH2 0x34E JUMPI PUSH2 0x34D PUSH2 0xFC JUMP JUMPDEST JUMPDEST PUSH2 0x358 DUP3 SLOAD PUSH2 0x156 JUMP JUMPDEST PUSH2 0x363 DUP3 DUP3 DUP6 PUSH2 0x2A3 JUMP JUMPDEST PUSH0 PUSH1 0x20 SWAP1 POP PUSH1 0x1F DUP4 GT PUSH1 0x1 DUP2 EQ PUSH2 0x394 JUMPI PUSH0 DUP5 ISZERO PUSH2 0x382 JUMPI DUP3 DUP8 ADD MLOAD SWAP1 POP JUMPDEST PUSH2 0x38C DUP6 DUP3 PUSH2 0x311 JUMP JUMPDEST DUP7 SSTORE POP PUSH2 0x3F3 JUMP JUMPDEST PUSH1 0x1F NOT DUP5 AND PUSH2 0x3A2 DUP7 PUSH2 0x186 JUMP JUMPDEST PUSH0 JUMPDEST DUP3 DUP2 LT ISZERO PUSH2 0x3C9 JUMPI DUP5 DUP10 ADD MLOAD DUP3 SSTORE PUSH1 0x1 DUP3 ADD SWAP2 POP PUSH1 0x20 DUP6 ADD SWAP5 POP PUSH1 0x20 DUP2 ADD SWAP1 POP PUSH2 0x3A4 JUMP JUMPDEST DUP7 DUP4 LT ISZERO PUSH2 0x3E6 JUMPI DUP5 DUP10 ADD MLOAD PUSH2 0x3E2 PUSH1 0x1F DUP10 AND DUP3 PUSH2 0x2F5 JUMP JUMPDEST DUP4 SSTORE POP JUMPDEST PUSH1 0x1 PUSH1 0x2 DUP9 MUL ADD DUP9 SSTORE POP POP POP JUMPDEST POP POP POP POP POP POP JUMP JUMPDEST PUSH0 DUP1 REVERT JUMPDEST PUSH2 0x408 DUP2 PUSH2 0x204 JUMP JUMPDEST DUP2 EQ PUSH2 0x412 JUMPI PUSH0 DUP1 REVERT JUMPDEST POP JUMP JUMPDEST PUSH0 DUP2 MLOAD SWAP1 POP PUSH2 0x423 DUP2 PUSH2 0x3FF JUMP JUMPDEST SWAP3 SWAP2 POP POP JUMP JUMPDEST PUSH0 PUSH1 0x20 DUP3 DUP5 SUB SLT ISZERO PUSH2 0x43E JUMPI PUSH2 0x43D PUSH2 0x3FB JUMP JUMPDEST JUMPDEST PUSH0 PUSH2 0x44B DUP5 DUP3 DUP6 ADD PUSH2 0x415 JUMP JUMPDEST SWAP2 POP POP SWAP3 SWAP2 POP POP JUMP JUMPDEST PUSH32 0x4E487B7100000000000000000000000000000000000000000000000000000000 PUSH0 MSTORE PUSH1 0x11 PUSH1 0x4 MSTORE PUSH1 0x24 PUSH0 REVERT JUMPDEST PUSH0 PUSH2 0x48B DUP3 PUSH2 0x204 JUMP JUMPDEST SWAP2 POP PUSH2 0x496 DUP4 PUSH2 0x204 JUMP JUMPDEST SWAP3 POP DUP3 DUP3 ADD SWAP1 POP DUP1 DUP3 GT ISZERO PUSH2 0x4AE JUMPI PUSH2 0x4AD PUSH2 0x454 JUMP JUMPDEST JUMPDEST SWAP3 SWAP2 POP POP JUMP JUMPDEST PUSH2 0x2464 DUP1 PUSH2 0x4C1 PUSH0 CODECOPY PUSH0 RETURN INVALID PUSH1 0x80 PUSH1 0x40 MSTORE CALLVALUE DUP1 ISZERO PUSH2 0xF JUMPI PUSH0 DUP1 REVERT JUMPDEST POP PUSH1 0x4 CALLDATASIZE LT PUSH2 0x11F JUMPI PUSH0 CALLDATALOAD PUSH1 0xE0 SHR DUP1 PUSH4 0x67E404CE GT PUSH2 0xAB JUMPI DUP1 PUSH4 0xAD5461D8 GT PUSH2 0x6F JUMPI DUP1 PUSH4 0xAD5461D8 EQ PUSH2 0x30D JUMPI DUP1 PUSH4 0xB798867F EQ PUSH2 0x33D JUMPI DUP1 PUSH4 0xC1C16EFC EQ PUSH2 0x35B JUMPI DUP1 PUSH4 0xD5009584 EQ PUSH2 0x379 JUMPI DUP1 PUSH4 0xEB4439FB EQ PUSH2 0x397 JUMPI PUSH2 0x11F JUMP JUMPDEST DUP1 PUSH4 0x67E404CE EQ PUSH2 0x279 JUMPI DUP1 PUSH4 0x6D77BD3E EQ PUSH2 0x297 JUMPI DUP1 PUSH4 0x788D3851 EQ PUSH2 0x2C7 JUMPI DUP1 PUSH4 0x894BA833 EQ PUSH2 0x2E5 JUMPI DUP1 PUSH4 0xA3BEF4D7 EQ PUSH2 0x2EF JUMPI PUSH2 0x11F JUMP JUMPDEST DUP1 PUSH4 0x47098F36 GT PUSH2 0xF2 JUMPI DUP1 PUSH4 0x47098F36 EQ PUSH2 0x1D2 JUMPI DUP1 PUSH4 0x481C6A75 EQ PUSH2 0x1F0 JUMPI DUP1 PUSH4 0x5952CCB8 EQ PUSH2 0x20E JUMPI DUP1 PUSH4 0x5DF81330 EQ PUSH2 0x22C JUMPI DUP1 PUSH4 0x66063DF4 EQ PUSH2 0x25D JUMPI PUSH2 0x11F JUMP JUMPDEST DUP1 PUSH4 0x124258C6 EQ PUSH2 0x123 JUMPI DUP1 PUSH4 0x1DDABF7A EQ PUSH2 0x153 JUMPI DUP1 PUSH4 0x22F3E2D4 EQ PUSH2 0x184 JUMPI DUP1 PUSH4 0x3B9F708D EQ PUSH2 0x1A2 JUMPI JUMPDEST PUSH0 DUP1 REVERT JUMPDEST PUSH2 0x13D PUSH1 0x4 DUP1 CALLDATASIZE SUB DUP2 ADD SWAP1 PUSH2 0x138 SWAP2 SWAP1 PUSH2 0x1517 JUMP JUMPDEST PUSH2 0x3A1 JUMP JUMPDEST PUSH1 0x40 MLOAD PUSH2 0x14A SWAP2 SWAP1 PUSH2 0x155C JUMP JUMPDEST PUSH1 0x40 MLOAD DUP1 SWAP2 SUB SWAP1 RETURN JUMPDEST PUSH2 0x16D PUSH1 0x4 DUP1 CALLDATASIZE SUB DUP2 ADD SWAP1 PUSH2 0x168 SWAP2 SWAP1 PUSH2 0x15CF JUMP JUMPDEST PUSH2 0x73F JUMP JUMPDEST PUSH1 0x40 MLOAD PUSH2 0x17B SWAP3 SWAP2 SWAP1 PUSH2 0x166A JUMP JUMPDEST PUSH1 0x40 MLOAD DUP1 SWAP2 SUB SWAP1 RETURN JUMPDEST PUSH2 0x18C PUSH2 0x7F1 JUMP JUMPDEST PUSH1 0x40 MLOAD PUSH2 0x199 SWAP2 SWAP1 PUSH2 0x155C JUMP JUMPDEST PUSH1 0x40 MLOAD DUP1 SWAP2 SUB SWAP1 RETURN JUMPDEST PUSH2 0x1BC PUSH1 0x4 DUP1 CALLDATASIZE SUB DUP2 ADD SWAP1 PUSH2 0x1B7 SWAP2 SWAP1 PUSH2 0x17C4 JUMP JUMPDEST PUSH2 0x803 JUMP JUMPDEST PUSH1 0x40 MLOAD PUSH2 0x1C9 SWAP2 SWAP1 PUSH2 0x182D JUMP JUMPDEST PUSH1 0x40 MLOAD DUP1 SWAP2 SUB SWAP1 RETURN JUMPDEST PUSH2 0x1DA PUSH2 0xAC4 JUMP JUMPDEST PUSH1 0x40 MLOAD PUSH2 0x1E7 SWAP2 SWAP1 PUSH2 0x182D JUMP JUMPDEST PUSH1 0x40 MLOAD DUP1 SWAP2 SUB SWAP1 RETURN JUMPDEST PUSH2 0x1F8 PUSH2 0xACA JUMP JUMPDEST PUSH1 0x40 MLOAD PUSH2 0x205 SWAP2 SWAP1 PUSH2 0x1855 JUMP JUMPDEST PUSH1 0x40 MLOAD DUP1 SWAP2 SUB SWAP1 RETURN JUMPDEST PUSH2 0x216 PUSH2 0xAEF JUMP JUMPDEST PUSH1 0x40 MLOAD PUSH2 0x223 SWAP2 SWAP1 PUSH2 0x182D JUMP JUMPDEST PUSH1 0x40 MLOAD DUP1 SWAP2 SUB SWAP1 RETURN JUMPDEST PUSH2 0x246 PUSH1 0x4 DUP1 CALLDATASIZE SUB DUP2 ADD SWAP1 PUSH2 0x241 SWAP2 SWAP1 PUSH2 0x1517 JUMP JUMPDEST PUSH2 0xAF5 JUMP JUMPDEST PUSH1 0x40 MLOAD PUSH2 0x254 SWAP3 SWAP2 SWAP1 PUSH2 0x186E JUMP JUMPDEST PUSH1 0x40 MLOAD DUP1 SWAP2 SUB SWAP1 RETURN JUMPDEST PUSH2 0x277 PUSH1 0x4 DUP1 CALLDATASIZE SUB DUP2 ADD SWAP1 PUSH2 0x272 SWAP2 SWAP1 PUSH2 0x1517 JUMP JUMPDEST PUSH2 0xB43 JUMP JUMPDEST STOP JUMPDEST PUSH2 0x281 PUSH2 0xC3C JUMP JUMPDEST PUSH1 0x40 MLOAD PUSH2 0x28E SWAP2 SWAP1 PUSH2 0x1855 JUMP JUMPDEST PUSH1 0x40 MLOAD DUP1 SWAP2 SUB SWAP1 RETURN JUMPDEST PUSH2 0x2B1 PUSH1 0x4 DUP1 CALLDATASIZE SUB DUP2 ADD SWAP1 PUSH2 0x2AC SWAP2 SWAP1 PUSH2 0x1895 JUMP JUMPDEST PUSH2 0xC62 JUMP JUMPDEST PUSH1 0x40 MLOAD PUSH2 0x2BE SWAP2 SWAP1 PUSH2 0x182D JUMP JUMPDEST PUSH1 0x40 MLOAD DUP1 SWAP2 SUB SWAP1 RETURN JUMPDEST PUSH2 0x2CF PUSH2 0xEB3 JUMP JUMPDEST PUSH1 0x40 MLOAD PUSH2 0x2DC SWAP2 SWAP1 PUSH2 0x155C JUMP JUMPDEST PUSH1 0x40 MLOAD DUP1 SWAP2 SUB SWAP1 RETURN JUMPDEST PUSH2 0x2ED PUSH2 0xEC5 JUMP JUMPDEST STOP JUMPDEST PUSH2 0x2F7 PUSH2 0xFC4 JUMP JUMPDEST PUSH1 0x40 MLOAD PUSH2 0x304 SWAP2 SWAP1 PUSH2 0x182D JUMP JUMPDEST PUSH1 0x40 MLOAD DUP1 SWAP2 SUB SWAP1 RETURN JUMPDEST PUSH2 0x327 PUSH1 0x4 DUP1 CALLDATASIZE SUB DUP2 ADD SWAP1 PUSH2 0x322 SWAP2 SWAP1 PUSH2 0x1517 JUMP JUMPDEST PUSH2 0xFCA JUMP JUMPDEST PUSH1 0x40 MLOAD PUSH2 0x334 SWAP2 SWAP1 PUSH2 0x18DC JUMP JUMPDEST PUSH1 0x40 MLOAD DUP1 SWAP2 SUB SWAP1 RETURN JUMPDEST PUSH2 0x345 PUSH2 0x1064 JUMP JUMPDEST PUSH1 0x40 MLOAD PUSH2 0x352 SWAP2 SWAP1 PUSH2 0x182D JUMP JUMPDEST PUSH1 0x40 MLOAD DUP1 SWAP2 SUB SWAP1 RETURN JUMPDEST PUSH2 0x363 PUSH2 0x106A JUMP JUMPDEST PUSH1 0x40 MLOAD PUSH2 0x370 SWAP2 SWAP1 PUSH2 0x18DC JUMP JUMPDEST PUSH1 0x40 MLOAD DUP1 SWAP2 SUB SWAP1 RETURN JUMPDEST PUSH2 0x381 PUSH2 0x10F6 JUMP JUMPDEST PUSH1 0x40 MLOAD PUSH2 0x38E SWAP2 SWAP1 PUSH2 0x1855 JUMP JUMPDEST PUSH1 0x40 MLOAD DUP1 SWAP2 SUB SWAP1 RETURN JUMPDEST PUSH2 0x39F PUSH2 0x111E JUMP JUMPDEST STOP JUMPDEST PUSH0 PUSH1 0x1 ISZERO ISZERO PUSH1 0x9 PUSH0 SWAP1 SLOAD SWAP1 PUSH2 0x100 EXP SWAP1 DIV PUSH1 0xFF AND ISZERO ISZERO EQ PUSH2 0x3F7 JUMPI PUSH1 0x40 MLOAD PUSH32 0x8C379A000000000000000000000000000000000000000000000000000000000 DUP2 MSTORE PUSH1 0x4 ADD PUSH2 0x3EE SWAP1 PUSH2 0x196C JUMP JUMPDEST PUSH1 0x40 MLOAD DUP1 SWAP2 SUB SWAP1 REVERT JUMPDEST PUSH1 0x1 ISZERO ISZERO PUSH1 0xC PUSH0 SWAP1 SLOAD SWAP1 PUSH2 0x100 EXP SWAP1 DIV PUSH1 0xFF AND ISZERO ISZERO EQ PUSH2 0x44C JUMPI PUSH1 0x40 MLOAD PUSH32 0x8C379A000000000000000000000000000000000000000000000000000000000 DUP2 MSTORE PUSH1 0x4 ADD PUSH2 0x443 SWAP1 PUSH2 0x19D4 JUMP JUMPDEST PUSH1 0x40 MLOAD DUP1 SWAP2 SUB SWAP1 REVERT JUMPDEST PUSH0 SWAP1 POP PUSH0 PUSH1 0x1 PUSH0 CALLER PUSH20 0xFFFFFFFFFFFFFFFFFFFFFFFFFFFFFFFFFFFFFFFF AND PUSH20 0xFFFFFFFFFFFFFFFFFFFFFFFFFFFFFFFFFFFFFFFF AND DUP2 MSTORE PUSH1 0x20 ADD SWAP1 DUP2 MSTORE PUSH1 0x20 ADD PUSH0 KECCAK256 PUSH0 ADD DUP1 SLOAD PUSH2 0x49A SWAP1 PUSH2 0x1A1F JUMP JUMPDEST SWAP1 POP SUB PUSH2 0x4DC JUMPI PUSH1 0x40 MLOAD PUSH32 0x8C379A000000000000000000000000000000000000000000000000000000000 DUP2 MSTORE PUSH1 0x4 ADD PUSH2 0x4D3 SWAP1 PUSH2 0x1A99 JUMP JUMPDEST PUSH1 0x40 MLOAD DUP1 SWAP2 SUB SWAP1 REVERT JUMPDEST PUSH0 DUP1 PUSH0 DUP5 DUP2 MSTORE PUSH1 0x20 ADD SWAP1 DUP2 MSTORE PUSH1 0x20 ADD PUSH0 KECCAK256 DUP1 SLOAD PUSH2 0x4F8 SWAP1 PUSH2 0x1A1F JUMP JUMPDEST SWAP1 POP SUB PUSH2 0x53A JUMPI PUSH1 0x40 MLOAD PUSH32 0x8C379A000000000000000000000000000000000000000000000000000000000 DUP2 MSTORE PUSH1 0x4 ADD PUSH2 0x531 SWAP1 PUSH2 0x1B01 JUMP JUMPDEST PUSH1 0x40 MLOAD DUP1 SWAP2 SUB SWAP1 REVERT JUMPDEST PUSH1 0x1 PUSH0 CALLER PUSH20 0xFFFFFFFFFFFFFFFFFFFFFFFFFFFFFFFFFFFFFFFF AND PUSH20 0xFFFFFFFFFFFFFFFFFFFFFFFFFFFFFFFFFFFFFFFF AND DUP2 MSTORE PUSH1 0x20 ADD SWAP1 DUP2 MSTORE PUSH1 0x20 ADD PUSH0 KECCAK256 PUSH1 0x1 ADD PUSH0 SWAP1 SLOAD SWAP1 PUSH2 0x100 EXP SWAP1 DIV PUSH1 0xFF AND ISZERO PUSH2 0x5C7 JUMPI PUSH1 0x40 MLOAD PUSH32 0x8C379A000000000000000000000000000000000000000000000000000000000 DUP2 MSTORE PUSH1 0x4 ADD PUSH2 0x5BE SWAP1 PUSH2 0x1B69 JUMP JUMPDEST PUSH1 0x40 MLOAD DUP1 SWAP2 SUB SWAP1 REVERT JUMPDEST PUSH1 0xB SLOAD NUMBER LT PUSH2 0x5D9 JUMPI PUSH2 0x5D8 PUSH2 0x12ED JUMP JUMPDEST JUMPDEST PUSH1 0x1 SWAP1 POP PUSH1 0x1 DUP1 PUSH0 CALLER PUSH20 0xFFFFFFFFFFFFFFFFFFFFFFFFFFFFFFFFFFFFFFFF AND PUSH20 0xFFFFFFFFFFFFFFFFFFFFFFFFFFFFFFFFFFFFFFFF AND DUP2 MSTORE PUSH1 0x20 ADD SWAP1 DUP2 MSTORE PUSH1 0x20 ADD PUSH0 KECCAK256 PUSH1 0x1 ADD PUSH0 PUSH2 0x100 EXP DUP2 SLOAD DUP2 PUSH1 0xFF MUL NOT AND SWAP1 DUP4 ISZERO ISZERO MUL OR SWAP1 SSTORE POP PUSH1 0x4 PUSH0 DUP2 SLOAD DUP1 SWAP3 SWAP2 SWAP1 PUSH2 0x646 SWAP1 PUSH2 0x1BB4 JUMP JUMPDEST SWAP2 SWAP1 POP SSTORE POP PUSH2 0x653 PUSH2 0x148A JUMP JUMPDEST CALLER DUP2 PUSH0 ADD SWAP1 PUSH20 0xFFFFFFFFFFFFFFFFFFFFFFFFFFFFFFFFFFFFFFFF AND SWAP1 DUP2 PUSH20 0xFFFFFFFFFFFFFFFFFFFFFFFFFFFFFFFFFFFFFFFF AND DUP2 MSTORE POP POP DUP3 DUP2 PUSH1 0x20 ADD DUP2 DUP2 MSTORE POP POP PUSH1 0x7 DUP2 SWAP1 DUP1 PUSH1 0x1 DUP2 SLOAD ADD DUP1 DUP3 SSTORE DUP1 SWAP2 POP POP PUSH1 0x1 SWAP1 SUB SWAP1 PUSH0 MSTORE PUSH1 0x20 PUSH0 KECCAK256 SWAP1 PUSH1 0x2 MUL ADD PUSH0 SWAP1 SWAP2 SWAP1 SWAP2 SWAP1 SWAP2 POP PUSH0 DUP3 ADD MLOAD DUP2 PUSH0 ADD PUSH0 PUSH2 0x100 EXP DUP2 SLOAD DUP2 PUSH20 0xFFFFFFFFFFFFFFFFFFFFFFFFFFFFFFFFFFFFFFFF MUL NOT AND SWAP1 DUP4 PUSH20 0xFFFFFFFFFFFFFFFFFFFFFFFFFFFFFFFFFFFFFFFF AND MUL OR SWAP1 SSTORE POP PUSH1 0x20 DUP3 ADD MLOAD DUP2 PUSH1 0x1 ADD SSTORE POP POP PUSH1 0x1 PUSH1 0x2 PUSH1 0x3 SLOAD PUSH2 0x71E SWAP2 SWAP1 PUSH2 0x1C28 JUMP JUMPDEST PUSH2 0x728 SWAP2 SWAP1 PUSH2 0x1C58 JUMP JUMPDEST PUSH1 0x4 SLOAD LT PUSH2 0x739 JUMPI PUSH2 0x738 PUSH2 0x12ED JUMP JUMPDEST JUMPDEST POP SWAP2 SWAP1 POP JUMP JUMPDEST PUSH1 0x1 PUSH1 0x20 MSTORE DUP1 PUSH0 MSTORE PUSH1 0x40 PUSH0 KECCAK256 PUSH0 SWAP2 POP SWAP1 POP DUP1 PUSH0 ADD DUP1 SLOAD PUSH2 0x75E SWAP1 PUSH2 0x1A1F JUMP JUMPDEST DUP1 PUSH1 0x1F ADD PUSH1 0x20 DUP1 SWAP2 DIV MUL PUSH1 0x20 ADD PUSH1 0x40 MLOAD SWAP1 DUP2 ADD PUSH1 0x40 MSTORE DUP1 SWAP3 SWAP2 SWAP1 DUP2 DUP2 MSTORE PUSH1 0x20 ADD DUP3 DUP1 SLOAD PUSH2 0x78A SWAP1 PUSH2 0x1A1F JUMP JUMPDEST DUP1 ISZERO PUSH2 0x7D5 JUMPI DUP1 PUSH1 0x1F LT PUSH2 0x7AC JUMPI PUSH2 0x100 DUP1 DUP4 SLOAD DIV MUL DUP4 MSTORE SWAP2 PUSH1 0x20 ADD SWAP2 PUSH2 0x7D5 JUMP JUMPDEST DUP3 ADD SWAP2 SWAP1 PUSH0 MSTORE PUSH1 0x20 PUSH0 KECCAK256 SWAP1 JUMPDEST DUP2 SLOAD DUP2 MSTORE SWAP1 PUSH1 0x1 ADD SWAP1 PUSH1 0x20 ADD DUP1 DUP4 GT PUSH2 0x7B8 JUMPI DUP3 SWAP1 SUB PUSH1 0x1F AND DUP3 ADD SWAP2 JUMPDEST POP POP POP POP POP SWAP1 DUP1 PUSH1 0x1 ADD PUSH0 SWAP1 SLOAD SWAP1 PUSH2 0x100 EXP SWAP1 DIV PUSH1 0xFF AND SWAP1 POP DUP3 JUMP JUMPDEST PUSH1 0xC PUSH0 SWAP1 SLOAD SWAP1 PUSH2 0x100 EXP SWAP1 DIV PUSH1 0xFF AND DUP2 JUMP JUMPDEST PUSH0 PUSH1 0x5 PUSH0 SWAP1 SLOAD SWAP1 PUSH2 0x100 EXP SWAP1 DIV PUSH20 0xFFFFFFFFFFFFFFFFFFFFFFFFFFFFFFFFFFFFFFFF AND PUSH20 0xFFFFFFFFFFFFFFFFFFFFFFFFFFFFFFFFFFFFFFFF AND CALLER PUSH20 0xFFFFFFFFFFFFFFFFFFFFFFFFFFFFFFFFFFFFFFFF AND EQ PUSH2 0x893 JUMPI PUSH1 0x40 MLOAD PUSH32 0x8C379A000000000000000000000000000000000000000000000000000000000 DUP2 MSTORE PUSH1 0x4 ADD PUSH2 0x88A SWAP1 PUSH2 0x1CFB JUMP JUMPDEST PUSH1 0x40 MLOAD DUP1 SWAP2 SUB SWAP1 REVERT JUMPDEST PUSH0 ISZERO ISZERO PUSH1 0x9 PUSH0 SWAP1 SLOAD SWAP1 PUSH2 0x100 EXP SWAP1 DIV PUSH1 0xFF AND ISZERO ISZERO EQ PUSH2 0x8E7 JUMPI PUSH1 0x40 MLOAD PUSH32 0x8C379A000000000000000000000000000000000000000000000000000000000 DUP2 MSTORE PUSH1 0x4 ADD PUSH2 0x8DE SWAP1 PUSH2 0x1D89 JUMP JUMPDEST PUSH1 0x40 MLOAD DUP1 SWAP2 SUB SWAP1 REVERT JUMPDEST PUSH1 0xB SLOAD NUMBER LT PUSH2 0x92B JUMPI PUSH1 0x40 MLOAD PUSH32 0x8C379A000000000000000000000000000000000000000000000000000000000 DUP2 MSTORE PUSH1 0x4 ADD PUSH2 0x922 SWAP1 PUSH2 0x1DF1 JUMP JUMPDEST PUSH1 0x40 MLOAD DUP1 SWAP2 SUB SWAP1 REVERT JUMPDEST PUSH1 0x1 ISZERO ISZERO PUSH1 0xC PUSH0 SWAP1 SLOAD SWAP1 PUSH2 0x100 EXP SWAP1 DIV PUSH1 0xFF AND ISZERO ISZERO EQ PUSH2 0x980 JUMPI PUSH1 0x40 MLOAD PUSH32 0x8C379A000000000000000000000000000000000000000000000000000000000 DUP2 MSTORE PUSH1 0x4 ADD PUSH2 0x977 SWAP1 PUSH2 0x19D4 JUMP JUMPDEST PUSH1 0x40 MLOAD DUP1 SWAP2 SUB SWAP1 REVERT JUMPDEST PUSH0 PUSH1 0x1 PUSH0 DUP6 PUSH20 0xFFFFFFFFFFFFFFFFFFFFFFFFFFFFFFFFFFFFFFFF AND PUSH20 0xFFFFFFFFFFFFFFFFFFFFFFFFFFFFFFFFFFFFFFFF AND DUP2 MSTORE PUSH1 0x20 ADD SWAP1 DUP2 MSTORE PUSH1 0x20 ADD PUSH0 KECCAK256 PUSH0 ADD DUP1 SLOAD PUSH2 0x9CB SWAP1 PUSH2 0x1A1F JUMP JUMPDEST SWAP1 POP EQ PUSH2 0xA0D JUMPI PUSH1 0x40 MLOAD PUSH32 0x8C379A000000000000000000000000000000000000000000000000000000000 DUP2 MSTORE PUSH1 0x4 ADD PUSH2 0xA04 SWAP1 PUSH2 0x1E59 JUMP JUMPDEST PUSH1 0x40 MLOAD DUP1 SWAP2 SUB SWAP1 REVERT JUMPDEST PUSH1 0x3 PUSH0 DUP2 SLOAD DUP1 SWAP3 SWAP2 SWAP1 PUSH2 0xA1F SWAP1 PUSH2 0x1BB4 JUMP JUMPDEST SWAP2 SWAP1 POP SSTORE POP PUSH2 0xA2C PUSH2 0x14B8 JUMP JUMPDEST DUP3 DUP2 PUSH0 ADD DUP2 SWAP1 MSTORE POP PUSH0 DUP2 PUSH1 0x20 ADD SWAP1 ISZERO ISZERO SWAP1 DUP2 ISZERO ISZERO DUP2 MSTORE POP POP DUP1 PUSH1 0x1 PUSH0 DUP7 PUSH20 0xFFFFFFFFFFFFFFFFFFFFFFFFFFFFFFFFFFFFFFFF AND PUSH20 0xFFFFFFFFFFFFFFFFFFFFFFFFFFFFFFFFFFFFFFFF AND DUP2 MSTORE PUSH1 0x20 ADD SWAP1 DUP2 MSTORE PUSH1 0x20 ADD PUSH0 KECCAK256 PUSH0 DUP3 ADD MLOAD DUP2 PUSH0 ADD SWAP1 DUP2 PUSH2 0xA95 SWAP2 SWAP1 PUSH2 0x2014 JUMP JUMPDEST POP PUSH1 0x20 DUP3 ADD MLOAD DUP2 PUSH1 0x1 ADD PUSH0 PUSH2 0x100 EXP DUP2 SLOAD DUP2 PUSH1 0xFF MUL NOT AND SWAP1 DUP4 ISZERO ISZERO MUL OR SWAP1 SSTORE POP SWAP1 POP POP PUSH1 0x3 SLOAD SWAP2 POP POP SWAP3 SWAP2 POP POP JUMP JUMPDEST PUSH1 0x3 SLOAD DUP2 JUMP JUMPDEST PUSH1 0x5 PUSH0 SWAP1 SLOAD SWAP1 PUSH2 0x100 EXP SWAP1 DIV PUSH20 0xFFFFFFFFFFFFFFFFFFFFFFFFFFFFFFFFFFFFFFFF AND DUP2 JUMP JUMPDEST PUSH1 0xB SLOAD DUP2 JUMP JUMPDEST PUSH1 0x7 DUP2 DUP2 SLOAD DUP2 LT PUSH2 0xB04 JUMPI PUSH0 DUP1 REVERT JUMPDEST SWAP1 PUSH0 MSTORE PUSH1 0x20 PUSH0 KECCAK256 SWAP1 PUSH1 0x2 MUL ADD PUSH0 SWAP2 POP SWAP1 POP DUP1 PUSH0 ADD PUSH0 SWAP1 SLOAD SWAP1 PUSH2 0x100 EXP SWAP1 DIV PUSH20 0xFFFFFFFFFFFFFFFFFFFFFFFFFFFFFFFFFFFFFFFF AND SWAP1 DUP1 PUSH1 0x1 ADD SLOAD SWAP1 POP DUP3 JUMP JUMPDEST PUSH1 0x5 PUSH0 SWAP1 SLOAD SWAP1 PUSH2 0x100 EXP SWAP1 DIV PUSH20 0xFFFFFFFFFFFFFFFFFFFFFFFFFFFFFFFFFFFFFFFF AND PUSH20 0xFFFFFFFFFFFFFFFFFFFFFFFFFFFFFFFFFFFFFFFF AND CALLER PUSH20 0xFFFFFFFFFFFFFFFFFFFFFFFFFFFFFFFFFFFFFFFF AND EQ PUSH2 0xBD2 JUMPI PUSH1 0x40 MLOAD PUSH32 0x8C379A000000000000000000000000000000000000000000000000000000000 DUP2 MSTORE PUSH1 0x4 ADD PUSH2 0xBC9 SWAP1 PUSH2 0x1CFB JUMP JUMPDEST PUSH1 0x40 MLOAD DUP1 SWAP2 SUB SWAP1 REVERT JUMPDEST PUSH1 0x1 ISZERO ISZERO PUSH1 0xC PUSH0 SWAP1 SLOAD SWAP1 PUSH2 0x100 EXP SWAP1 DIV PUSH1 0xFF AND ISZERO ISZERO EQ PUSH2 0xC27 JUMPI PUSH1 0x40 MLOAD PUSH32 0x8C379A000000000000000000000000000000000000000000000000000000000 DUP2 MSTORE PUSH1 0x4 ADD PUSH2 0xC1E SWAP1 PUSH2 0x19D4 JUMP JUMPDEST PUSH1 0x40 MLOAD DUP1 SWAP2 SUB SWAP1 REVERT JUMPDEST DUP1 NUMBER PUSH2 0xC33 SWAP2 SWAP1 PUSH2 0x1C58 JUMP JUMPDEST PUSH1 0xB DUP2 SWAP1 SSTORE POP POP JUMP JUMPDEST PUSH1 0xC PUSH1 0x1 SWAP1 SLOAD SWAP1 PUSH2 0x100 EXP SWAP1 DIV PUSH20 0xFFFFFFFFFFFFFFFFFFFFFFFFFFFFFFFFFFFFFFFF AND DUP2 JUMP JUMPDEST PUSH0 PUSH1 0x5 PUSH0 SWAP1 SLOAD SWAP1 PUSH2 0x100 EXP SWAP1 DIV PUSH20 0xFFFFFFFFFFFFFFFFFFFFFFFFFFFFFFFFFFFFFFFF AND PUSH20 0xFFFFFFFFFFFFFFFFFFFFFFFFFFFFFFFFFFFFFFFF AND CALLER PUSH20 0xFFFFFFFFFFFFFFFFFFFFFFFFFFFFFFFFFFFFFFFF AND EQ PUSH2 0xCF2 JUMPI PUSH1 0x40 MLOAD PUSH32 0x8C379A000000000000000000000000000000000000000000000000000000000 DUP2 MSTORE PUSH1 0x4 ADD PUSH2 0xCE9 SWAP1 PUSH2 0x1CFB JUMP JUMPDEST PUSH1 0x40 MLOAD DUP1 SWAP2 SUB SWAP1 REVERT JUMPDEST PUSH0 ISZERO ISZERO PUSH1 0x9 PUSH0 SWAP1 SLOAD SWAP1 PUSH2 0x100 EXP SWAP1 DIV PUSH1 0xFF AND ISZERO ISZERO EQ PUSH2 0xD46 JUMPI PUSH1 0x40 MLOAD PUSH32 0x8C379A000000000000000000000000000000000000000000000000000000000 DUP2 MSTORE PUSH1 0x4 ADD PUSH2 0xD3D SWAP1 PUSH2 0x1D89 JUMP JUMPDEST PUSH1 0x40 MLOAD DUP1 SWAP2 SUB SWAP1 REVERT JUMPDEST PUSH1 0xB SLOAD NUMBER LT PUSH2 0xD8A JUMPI PUSH1 0x40 MLOAD PUSH32 0x8C379A000000000000000000000000000000000000000000000000000000000 DUP2 MSTORE PUSH1 0x4 ADD PUSH2 0xD81 SWAP1 PUSH2 0x1DF1 JUMP JUMPDEST PUSH1 0x40 MLOAD DUP1 SWAP2 SUB SWAP1 REVERT JUMPDEST PUSH1 0x1 ISZERO ISZERO PUSH1 0xC PUSH0 SWAP1 SLOAD SWAP1 PUSH2 0x100 EXP SWAP1 DIV PUSH1 0xFF AND ISZERO ISZERO EQ PUSH2 0xDDF JUMPI PUSH1 0x40 MLOAD PUSH32 0x8C379A000000000000000000000000000000000000000000000000000000000 DUP2 MSTORE PUSH1 0x4 ADD PUSH2 0xDD6 SWAP1 PUSH2 0x19D4 JUMP JUMPDEST PUSH1 0x40 MLOAD DUP1 SWAP2 SUB SWAP1 REVERT JUMPDEST PUSH0 DUP3 DUP1 MLOAD SWAP1 PUSH1 0x20 ADD KECCAK256 SWAP1 POP PUSH1 0xA PUSH0 DUP3 DUP2 MSTORE PUSH1 0x20 ADD SWAP1 DUP2 MSTORE PUSH1 0x20 ADD PUSH0 KECCAK256 PUSH0 SWAP1 SLOAD SWAP1 PUSH2 0x100 EXP SWAP1 DIV PUSH1 0xFF AND ISZERO PUSH2 0xE48 JUMPI PUSH1 0x40 MLOAD PUSH32 0x8C379A000000000000000000000000000000000000000000000000000000000 DUP2 MSTORE PUSH1 0x4 ADD PUSH2 0xE3F SWAP1 PUSH2 0x212D JUMP JUMPDEST PUSH1 0x40 MLOAD DUP1 SWAP2 SUB SWAP1 REVERT JUMPDEST PUSH1 0x2 PUSH0 DUP2 SLOAD DUP1 SWAP3 SWAP2 SWAP1 PUSH2 0xE5A SWAP1 PUSH2 0x1BB4 JUMP JUMPDEST SWAP2 SWAP1 POP SSTORE POP DUP3 PUSH0 DUP1 PUSH1 0x2 SLOAD DUP2 MSTORE PUSH1 0x20 ADD SWAP1 DUP2 MSTORE PUSH1 0x20 ADD PUSH0 KECCAK256 SWAP1 DUP2 PUSH2 0xE7E SWAP2 SWAP1 PUSH2 0x2014 JUMP JUMPDEST POP PUSH1 0x1 PUSH1 0xA PUSH0 DUP4 DUP2 MSTORE PUSH1 0x20 ADD SWAP1 DUP2 MSTORE PUSH1 0x20 ADD PUSH0 KECCAK256 PUSH0 PUSH2 0x100 EXP DUP2 SLOAD DUP2 PUSH1 0xFF MUL NOT AND SWAP1 DUP4 ISZERO ISZERO MUL OR SWAP1 SSTORE POP PUSH1 0x2 SLOAD SWAP2 POP POP SWAP2 SWAP1 POP JUMP JUMPDEST PUSH1 0x9 PUSH0 SWAP1 SLOAD SWAP1 PUSH2 0x100 EXP SWAP1 DIV PUSH1 0xFF AND DUP2 JUMP JUMPDEST PUSH1 0x5 PUSH0 SWAP1 SLOAD SWAP1 PUSH2 0x100 EXP SWAP1 DIV PUSH20 0xFFFFFFFFFFFFFFFFFFFFFFFFFFFFFFFFFFFFFFFF AND PUSH20 0xFFFFFFFFFFFFFFFFFFFFFFFFFFFFFFFFFFFFFFFF AND CALLER PUSH20 0xFFFFFFFFFFFFFFFFFFFFFFFFFFFFFFFFFFFFFFFF AND EQ PUSH2 0xF54 JUMPI PUSH1 0x40 MLOAD PUSH32 0x8C379A000000000000000000000000000000000000000000000000000000000 DUP2 MSTORE PUSH1 0x4 ADD PUSH2 0xF4B SWAP1 PUSH2 0x1CFB JUMP JUMPDEST PUSH1 0x40 MLOAD DUP1 SWAP2 SUB SWAP1 REVERT JUMPDEST PUSH1 0x1 ISZERO ISZERO PUSH1 0xC PUSH0 SWAP1 SLOAD SWAP1 PUSH2 0x100 EXP SWAP1 DIV PUSH1 0xFF AND ISZERO ISZERO EQ PUSH2 0xFA9 JUMPI PUSH1 0x40 MLOAD PUSH32 0x8C379A000000000000000000000000000000000000000000000000000000000 DUP2 MSTORE PUSH1 0x4 ADD PUSH2 0xFA0 SWAP1 PUSH2 0x19D4 JUMP JUMPDEST PUSH1 0x40 MLOAD DUP1 SWAP2 SUB SWAP1 REVERT JUMPDEST PUSH0 PUSH1 0xC PUSH0 PUSH2 0x100 EXP DUP2 SLOAD DUP2 PUSH1 0xFF MUL NOT AND SWAP1 DUP4 ISZERO ISZERO MUL OR SWAP1 SSTORE POP JUMP JUMPDEST PUSH1 0x4 SLOAD DUP2 JUMP JUMPDEST PUSH0 PUSH1 0x20 MSTORE DUP1 PUSH0 MSTORE PUSH1 0x40 PUSH0 KECCAK256 PUSH0 SWAP2 POP SWAP1 POP DUP1 SLOAD PUSH2 0xFE5 SWAP1 PUSH2 0x1A1F JUMP JUMPDEST DUP1 PUSH1 0x1F ADD PUSH1 0x20 DUP1 SWAP2 DIV MUL PUSH1 0x20 ADD PUSH1 0x40 MLOAD SWAP1 DUP2 ADD PUSH1 0x40 MSTORE DUP1 SWAP3 SWAP2 SWAP1 DUP2 DUP2 MSTORE PUSH1 0x20 ADD DUP3 DUP1 SLOAD PUSH2 0x1011 SWAP1 PUSH2 0x1A1F JUMP JUMPDEST DUP1 ISZERO PUSH2 0x105C JUMPI DUP1 PUSH1 0x1F LT PUSH2 0x1033 JUMPI PUSH2 0x100 DUP1 DUP4 SLOAD DIV MUL DUP4 MSTORE SWAP2 PUSH1 0x20 ADD SWAP2 PUSH2 0x105C JUMP JUMPDEST DUP3 ADD SWAP2 SWAP1 PUSH0 MSTORE PUSH1 0x20 PUSH0 KECCAK256 SWAP1 JUMPDEST DUP2 SLOAD DUP2 MSTORE SWAP1 PUSH1 0x1 ADD SWAP1 PUSH1 0x20 ADD DUP1 DUP4 GT PUSH2 0x103F JUMPI DUP3 SWAP1 SUB PUSH1 0x1F AND DUP3 ADD SWAP2 JUMPDEST POP POP POP POP POP DUP2 JUMP JUMPDEST PUSH1 0x2 SLOAD DUP2 JUMP JUMPDEST PUSH1 0x6 DUP1 SLOAD PUSH2 0x1077 SWAP1 PUSH2 0x1A1F JUMP JUMPDEST DUP1 PUSH1 0x1F ADD PUSH1 0x20 DUP1 SWAP2 DIV MUL PUSH1 0x20 ADD PUSH1 0x40 MLOAD SWAP1 DUP2 ADD PUSH1 0x40 MSTORE DUP1 SWAP3 SWAP2 SWAP1 DUP2 DUP2 MSTORE PUSH1 0x20 ADD DUP3 DUP1 SLOAD PUSH2 0x10A3 SWAP1 PUSH2 0x1A1F JUMP JUMPDEST DUP1 ISZERO PUSH2 0x10EE JUMPI DUP1 PUSH1 0x1F LT PUSH2 0x10C5 JUMPI PUSH2 0x100 DUP1 DUP4 SLOAD DIV MUL DUP4 MSTORE SWAP2 PUSH1 0x20 ADD SWAP2 PUSH2 0x10EE JUMP JUMPDEST DUP3 ADD SWAP2 SWAP1 PUSH0 MSTORE PUSH1 0x20 PUSH0 KECCAK256 SWAP1 JUMPDEST DUP2 SLOAD DUP2 MSTORE SWAP1 PUSH1 0x1 ADD SWAP1 PUSH1 0x20 ADD DUP1 DUP4 GT PUSH2 0x10D1 JUMPI DUP3 SWAP1 SUB PUSH1 0x1F AND DUP3 ADD SWAP2 JUMPDEST POP POP POP POP POP DUP2 JUMP JUMPDEST PUSH0 PUSH1 0x5 PUSH0 SWAP1 SLOAD SWAP1 PUSH2 0x100 EXP SWAP1 DIV PUSH20 0xFFFFFFFFFFFFFFFFFFFFFFFFFFFFFFFFFFFFFFFF AND SWAP1 POP SWAP1 JUMP JUMPDEST PUSH1 0x5 PUSH0 SWAP1 SLOAD SWAP1 PUSH2 0x100 EXP SWAP1 DIV PUSH20 0xFFFFFFFFFFFFFFFFFFFFFFFFFFFFFFFFFFFFFFFF AND PUSH20 0xFFFFFFFFFFFFFFFFFFFFFFFFFFFFFFFFFFFFFFFF AND CALLER PUSH20 0xFFFFFFFFFFFFFFFFFFFFFFFFFFFFFFFFFFFFFFFF AND EQ PUSH2 0x11AD JUMPI PUSH1 0x40 MLOAD PUSH32 0x8C379A000000000000000000000000000000000000000000000000000000000 DUP2 MSTORE PUSH1 0x4 ADD PUSH2 0x11A4 SWAP1 PUSH2 0x1CFB JUMP JUMPDEST PUSH1 0x40 MLOAD DUP1 SWAP2 SUB SWAP1 REVERT JUMPDEST PUSH1 0x1 ISZERO ISZERO PUSH1 0xC PUSH0 SWAP1 SLOAD SWAP1 PUSH2 0x100 EXP SWAP1 DIV PUSH1 0xFF AND ISZERO ISZERO EQ PUSH2 0x1202 JUMPI PUSH1 0x40 MLOAD PUSH32 0x8C379A000000000000000000000000000000000000000000000000000000000 DUP2 MSTORE PUSH1 0x4 ADD PUSH2 0x11F9 SWAP1 PUSH2 0x19D4 JUMP JUMPDEST PUSH1 0x40 MLOAD DUP1 SWAP2 SUB SWAP1 REVERT JUMPDEST PUSH1 0x2 DUP1 SLOAD LT ISZERO PUSH2 0x1247 JUMPI PUSH1 0x40 MLOAD PUSH32 0x8C379A000000000000000000000000000000000000000000000000000000000 DUP2 MSTORE PUSH1 0x4 ADD PUSH2 0x123E SWAP1 PUSH2 0x21BB JUMP JUMPDEST PUSH1 0x40 MLOAD DUP1 SWAP2 SUB SWAP1 REVERT JUMPDEST PUSH1 0x2 PUSH1 0x3 SLOAD LT ISZERO PUSH2 0x128D JUMPI PUSH1 0x40 MLOAD PUSH32 0x8C379A000000000000000000000000000000000000000000000000000000000 DUP2 MSTORE PUSH1 0x4 ADD PUSH2 0x1284 SWAP1 PUSH2 0x2249 JUMP JUMPDEST PUSH1 0x40 MLOAD DUP1 SWAP2 SUB SWAP1 REVERT JUMPDEST PUSH1 0xB SLOAD NUMBER LT PUSH2 0x12D1 JUMPI PUSH1 0x40 MLOAD PUSH32 0x8C379A000000000000000000000000000000000000000000000000000000000 DUP2 MSTORE PUSH1 0x4 ADD PUSH2 0x12C8 SWAP1 PUSH2 0x22D7 JUMP JUMPDEST PUSH1 0x40 MLOAD DUP1 SWAP2 SUB SWAP1 REVERT JUMPDEST PUSH1 0x1 PUSH1 0x9 PUSH0 PUSH2 0x100 EXP DUP2 SLOAD DUP2 PUSH1 0xFF MUL NOT AND SWAP1 DUP4 ISZERO ISZERO MUL OR SWAP1 SSTORE POP JUMP JUMPDEST PUSH1 0x1 ISZERO ISZERO PUSH1 0xC PUSH0 SWAP1 SLOAD SWAP1 PUSH2 0x100 EXP SWAP1 DIV PUSH1 0xFF AND ISZERO ISZERO EQ PUSH2 0x1342 JUMPI PUSH1 0x40 MLOAD PUSH32 0x8C379A000000000000000000000000000000000000000000000000000000000 DUP2 MSTORE PUSH1 0x4 ADD PUSH2 0x1339 SWAP1 PUSH2 0x19D4 JUMP JUMPDEST PUSH1 0x40 MLOAD DUP1 SWAP2 SUB SWAP1 REVERT JUMPDEST PUSH0 DUP1 PUSH0 JUMPDEST PUSH1 0x4 SLOAD DUP2 LT ISZERO PUSH2 0x144D JUMPI PUSH0 PUSH1 0x1 SWAP1 POP PUSH0 PUSH1 0x8 PUSH0 PUSH1 0x7 DUP6 DUP2 SLOAD DUP2 LT PUSH2 0x136D JUMPI PUSH2 0x136C PUSH2 0x22F5 JUMP JUMPDEST JUMPDEST SWAP1 PUSH0 MSTORE PUSH1 0x20 PUSH0 KECCAK256 SWAP1 PUSH1 0x2 MUL ADD PUSH1 0x1 ADD SLOAD DUP2 MSTORE PUSH1 0x20 ADD SWAP1 DUP2 MSTORE PUSH1 0x20 ADD PUSH0 KECCAK256 SLOAD GT ISZERO PUSH2 0x13D4 JUMPI PUSH1 0x8 PUSH0 PUSH1 0x7 DUP5 DUP2 SLOAD DUP2 LT PUSH2 0x13A8 JUMPI PUSH2 0x13A7 PUSH2 0x22F5 JUMP JUMPDEST JUMPDEST SWAP1 PUSH0 MSTORE PUSH1 0x20 PUSH0 KECCAK256 SWAP1 PUSH1 0x2 MUL ADD PUSH1 0x1 ADD SLOAD DUP2 MSTORE PUSH1 0x20 ADD SWAP1 DUP2 MSTORE PUSH1 0x20 ADD PUSH0 KECCAK256 SLOAD DUP2 PUSH2 0x13D1 SWAP2 SWAP1 PUSH2 0x1C58 JUMP JUMPDEST SWAP1 POP JUMPDEST DUP1 PUSH1 0x8 PUSH0 PUSH1 0x7 DUP6 DUP2 SLOAD DUP2 LT PUSH2 0x13EC JUMPI PUSH2 0x13EB PUSH2 0x22F5 JUMP JUMPDEST JUMPDEST SWAP1 PUSH0 MSTORE PUSH1 0x20 PUSH0 KECCAK256 SWAP1 PUSH1 0x2 MUL ADD PUSH1 0x1 ADD SLOAD DUP2 MSTORE PUSH1 0x20 ADD SWAP1 DUP2 MSTORE PUSH1 0x20 ADD PUSH0 KECCAK256 DUP2 SWAP1 SSTORE POP DUP4 DUP2 GT ISZERO PUSH2 0x143F JUMPI DUP1 SWAP4 POP PUSH1 0x7 DUP3 DUP2 SLOAD DUP2 LT PUSH2 0x142C JUMPI PUSH2 0x142B PUSH2 0x22F5 JUMP JUMPDEST JUMPDEST SWAP1 PUSH0 MSTORE PUSH1 0x20 PUSH0 KECCAK256 SWAP1 PUSH1 0x2 MUL ADD PUSH1 0x1 ADD SLOAD SWAP3 POP JUMPDEST POP DUP1 DUP1 PUSH1 0x1 ADD SWAP2 POP POP PUSH2 0x1346 JUMP JUMPDEST POP PUSH0 DUP1 DUP3 DUP2 MSTORE PUSH1 0x20 ADD SWAP1 DUP2 MSTORE PUSH1 0x20 ADD PUSH0 KECCAK256 PUSH1 0x6 SWAP1 DUP2 PUSH2 0x146C SWAP2 SWAP1 PUSH2 0x2349 JUMP JUMPDEST POP PUSH0 PUSH1 0x9 PUSH0 PUSH2 0x100 EXP DUP2 SLOAD DUP2 PUSH1 0xFF MUL NOT AND SWAP1 DUP4 ISZERO ISZERO MUL OR SWAP1 SSTORE POP POP POP JUMP JUMPDEST PUSH1 0x40 MLOAD DUP1 PUSH1 0x40 ADD PUSH1 0x40 MSTORE DUP1 PUSH0 PUSH20 0xFFFFFFFFFFFFFFFFFFFFFFFFFFFFFFFFFFFFFFFF AND DUP2 MSTORE PUSH1 0x20 ADD PUSH0 DUP2 MSTORE POP SWAP1 JUMP JUMPDEST PUSH1 0x40 MLOAD DUP1 PUSH1 0x40 ADD PUSH1 0x40 MSTORE DUP1 PUSH1 0x60 DUP2 MSTORE PUSH1 0x20 ADD PUSH0 ISZERO ISZERO DUP2 MSTORE POP SWAP1 JUMP JUMPDEST PUSH0 PUSH1 0x40 MLOAD SWAP1 POP SWAP1 JUMP JUMPDEST PUSH0 DUP1 REVERT JUMPDEST PUSH0 DUP1 REVERT JUMPDEST PUSH0 DUP2 SWAP1 POP SWAP2 SWAP1 POP JUMP JUMPDEST PUSH2 0x14F6 DUP2 PUSH2 0x14E4 JUMP JUMPDEST DUP2 EQ PUSH2 0x1500 JUMPI PUSH0 DUP1 REVERT JUMPDEST POP JUMP JUMPDEST PUSH0 DUP2 CALLDATALOAD SWAP1 POP PUSH2 0x1511 DUP2 PUSH2 0x14ED JUMP JUMPDEST SWAP3 SWAP2 POP POP JUMP JUMPDEST PUSH0 PUSH1 0x20 DUP3 DUP5 SUB SLT ISZERO PUSH2 0x152C JUMPI PUSH2 0x152B PUSH2 0x14DC JUMP JUMPDEST JUMPDEST PUSH0 PUSH2 0x1539 DUP5 DUP3 DUP6 ADD PUSH2 0x1503 JUMP JUMPDEST SWAP2 POP POP SWAP3 SWAP2 POP POP JUMP JUMPDEST PUSH0 DUP2 ISZERO ISZERO SWAP1 POP SWAP2 SWAP1 POP JUMP JUMPDEST PUSH2 0x1556 DUP2 PUSH2 0x1542 JUMP JUMPDEST DUP3 MSTORE POP POP JUMP JUMPDEST PUSH0 PUSH1 0x20 DUP3 ADD SWAP1 POP PUSH2 0x156F PUSH0 DUP4 ADD DUP5 PUSH2 0x154D JUMP JUMPDEST SWAP3 SWAP2 POP POP JUMP JUMPDEST PUSH0 PUSH20 0xFFFFFFFFFFFFFFFFFFFFFFFFFFFFFFFFFFFFFFFF DUP3 AND SWAP1 POP SWAP2 SWAP1 POP JUMP JUMPDEST PUSH0 PUSH2 0x159E DUP3 PUSH2 0x1575 JUMP JUMPDEST SWAP1 POP SWAP2 SWAP1 POP JUMP JUMPDEST PUSH2 0x15AE DUP2 PUSH2 0x1594 JUMP JUMPDEST DUP2 EQ PUSH2 0x15B8 JUMPI PUSH0 DUP1 REVERT JUMPDEST POP JUMP JUMPDEST PUSH0 DUP2 CALLDATALOAD SWAP1 POP PUSH2 0x15C9 DUP2 PUSH2 0x15A5 JUMP JUMPDEST SWAP3 SWAP2 POP POP JUMP JUMPDEST PUSH0 PUSH1 0x20 DUP3 DUP5 SUB SLT ISZERO PUSH2 0x15E4 JUMPI PUSH2 0x15E3 PUSH2 0x14DC JUMP JUMPDEST JUMPDEST PUSH0 PUSH2 0x15F1 DUP5 DUP3 DUP6 ADD PUSH2 0x15BB JUMP JUMPDEST SWAP2 POP POP SWAP3 SWAP2 POP POP JUMP JUMPDEST PUSH0 DUP2 MLOAD SWAP1 POP SWAP2 SWAP1 POP JUMP JUMPDEST PUSH0 DUP3 DUP3 MSTORE PUSH1 0x20 DUP3 ADD SWAP1 POP SWAP3 SWAP2 POP POP JUMP JUMPDEST DUP3 DUP2 DUP4 MCOPY PUSH0 DUP4 DUP4 ADD MSTORE POP POP POP JUMP JUMPDEST PUSH0 PUSH1 0x1F NOT PUSH1 0x1F DUP4 ADD AND SWAP1 POP SWAP2 SWAP1 POP JUMP JUMPDEST PUSH0 PUSH2 0x163C DUP3 PUSH2 0x15FA JUMP JUMPDEST PUSH2 0x1646 DUP2 DUP6 PUSH2 0x1604 JUMP JUMPDEST SWAP4 POP PUSH2 0x1656 DUP2 DUP6 PUSH1 0x20 DUP7 ADD PUSH2 0x1614 JUMP JUMPDEST PUSH2 0x165F DUP2 PUSH2 0x1622 JUMP JUMPDEST DUP5 ADD SWAP2 POP POP SWAP3 SWAP2 POP POP JUMP JUMPDEST PUSH0 PUSH1 0x40 DUP3 ADD SWAP1 POP DUP2 DUP2 SUB PUSH0 DUP4 ADD MSTORE PUSH2 0x1682 DUP2 DUP6 PUSH2 0x1632 JUMP JUMPDEST SWAP1 POP PUSH2 0x1691 PUSH1 0x20 DUP4 ADD DUP5 PUSH2 0x154D JUMP JUMPDEST SWAP4 SWAP3 POP POP POP JUMP JUMPDEST PUSH0 DUP1 REVERT JUMPDEST PUSH0 DUP1 REVERT JUMPDEST PUSH32 0x4E487B7100000000000000000000000000000000000000000000000000000000 PUSH0 MSTORE PUSH1 0x41 PUSH1 0x4 MSTORE PUSH1 0x24 PUSH0 REVERT JUMPDEST PUSH2 0x16D6 DUP3 PUSH2 0x1622 JUMP JUMPDEST DUP2 ADD DUP2 DUP2 LT PUSH8 0xFFFFFFFFFFFFFFFF DUP3 GT OR ISZERO PUSH2 0x16F5 JUMPI PUSH2 0x16F4 PUSH2 0x16A0 JUMP JUMPDEST JUMPDEST DUP1 PUSH1 0x40 MSTORE POP POP POP JUMP JUMPDEST PUSH0 PUSH2 0x1707 PUSH2 0x14D3 JUMP JUMPDEST SWAP1 POP PUSH2 0x1713 DUP3 DUP3 PUSH2 0x16CD JUMP JUMPDEST SWAP2 SWAP1 POP JUMP JUMPDEST PUSH0 PUSH8 0xFFFFFFFFFFFFFFFF DUP3 GT ISZERO PUSH2 0x1732 JUMPI PUSH2 0x1731 PUSH2 0x16A0 JUMP JUMPDEST JUMPDEST PUSH2 0x173B DUP3 PUSH2 0x1622 JUMP JUMPDEST SWAP1 POP PUSH1 0x20 DUP2 ADD SWAP1 POP SWAP2 SWAP1 POP JUMP JUMPDEST DUP3 DUP2 DUP4 CALLDATACOPY PUSH0 DUP4 DUP4 ADD MSTORE POP POP POP JUMP JUMPDEST PUSH0 PUSH2 0x1768 PUSH2 0x1763 DUP5 PUSH2 0x1718 JUMP JUMPDEST PUSH2 0x16FE JUMP JUMPDEST SWAP1 POP DUP3 DUP2 MSTORE PUSH1 0x20 DUP2 ADD DUP5 DUP5 DUP5 ADD GT ISZERO PUSH2 0x1784 JUMPI PUSH2 0x1783 PUSH2 0x169C JUMP JUMPDEST JUMPDEST PUSH2 0x178F DUP5 DUP3 DUP6 PUSH2 0x1748 JUMP JUMPDEST POP SWAP4 SWAP3 POP POP POP JUMP JUMPDEST PUSH0 DUP3 PUSH1 0x1F DUP4 ADD SLT PUSH2 0x17AB JUMPI PUSH2 0x17AA PUSH2 0x1698 JUMP JUMPDEST JUMPDEST DUP2 CALLDATALOAD PUSH2 0x17BB DUP5 DUP3 PUSH1 0x20 DUP7 ADD PUSH2 0x1756 JUMP JUMPDEST SWAP2 POP POP SWAP3 SWAP2 POP POP JUMP JUMPDEST PUSH0 DUP1 PUSH1 0x40 DUP4 DUP6 SUB SLT ISZERO PUSH2 0x17DA JUMPI PUSH2 0x17D9 PUSH2 0x14DC JUMP JUMPDEST JUMPDEST PUSH0 PUSH2 0x17E7 DUP6 DUP3 DUP7 ADD PUSH2 0x15BB JUMP JUMPDEST SWAP3 POP POP PUSH1 0x20 DUP4 ADD CALLDATALOAD PUSH8 0xFFFFFFFFFFFFFFFF DUP2 GT ISZERO PUSH2 0x1808 JUMPI PUSH2 0x1807 PUSH2 0x14E0 JUMP JUMPDEST JUMPDEST PUSH2 0x1814 DUP6 DUP3 DUP7 ADD PUSH2 0x1797 JUMP JUMPDEST SWAP2 POP POP SWAP3 POP SWAP3 SWAP1 POP JUMP JUMPDEST PUSH2 0x1827 DUP2 PUSH2 0x14E4 JUMP JUMPDEST DUP3 MSTORE POP POP JUMP JUMPDEST PUSH0 PUSH1 0x20 DUP3 ADD SWAP1 POP PUSH2 0x1840 PUSH0 DUP4 ADD DUP5 PUSH2 0x181E JUMP JUMPDEST SWAP3 SWAP2 POP POP JUMP JUMPDEST PUSH2 0x184F DUP2 PUSH2 0x1594 JUMP JUMPDEST DUP3 MSTORE POP POP JUMP JUMPDEST PUSH0 PUSH1 0x20 DUP3 ADD SWAP1 POP PUSH2 0x1868 PUSH0 DUP4 ADD DUP5 PUSH2 0x1846 JUMP JUMPDEST SWAP3 SWAP2 POP POP JUMP JUMPDEST PUSH0 PUSH1 0x40 DUP3 ADD SWAP1 POP PUSH2 0x1881 PUSH0 DUP4 ADD DUP6 PUSH2 0x1846 JUMP JUMPDEST PUSH2 0x188E PUSH1 0x20 DUP4 ADD DUP5 PUSH2 0x181E JUMP JUMPDEST SWAP4 SWAP3 POP POP POP JUMP JUMPDEST PUSH0 PUSH1 0x20 DUP3 DUP5 SUB SLT ISZERO PUSH2 0x18AA JUMPI PUSH2 0x18A9 PUSH2 0x14DC JUMP JUMPDEST JUMPDEST PUSH0 DUP3 ADD CALLDATALOAD PUSH8 0xFFFFFFFFFFFFFFFF DUP2 GT ISZERO PUSH2 0x18C7 JUMPI PUSH2 0x18C6 PUSH2 0x14E0 JUMP JUMPDEST JUMPDEST PUSH2 0x18D3 DUP5 DUP3 DUP6 ADD PUSH2 0x1797 JUMP JUMPDEST SWAP2 POP POP SWAP3 SWAP2 POP POP JUMP JUMPDEST PUSH0 PUSH1 0x20 DUP3 ADD SWAP1 POP DUP2 DUP2 SUB PUSH0 DUP4 ADD MSTORE PUSH2 0x18F4 DUP2 DUP5 PUSH2 0x1632 JUMP JUMPDEST SWAP1 POP SWAP3 SWAP2 POP POP JUMP JUMPDEST PUSH32 0x43616E20766F7465206F6E6C79207768696C6520766F74696E67206973206F70 PUSH0 DUP3 ADD MSTORE PUSH32 0x656E000000000000000000000000000000000000000000000000000000000000 PUSH1 0x20 DUP3 ADD MSTORE POP JUMP JUMPDEST PUSH0 PUSH2 0x1956 PUSH1 0x22 DUP4 PUSH2 0x1604 JUMP JUMPDEST SWAP2 POP PUSH2 0x1961 DUP3 PUSH2 0x18FC JUMP JUMPDEST PUSH1 0x40 DUP3 ADD SWAP1 POP SWAP2 SWAP1 POP JUMP JUMPDEST PUSH0 PUSH1 0x20 DUP3 ADD SWAP1 POP DUP2 DUP2 SUB PUSH0 DUP4 ADD MSTORE PUSH2 0x1983 DUP2 PUSH2 0x194A JUMP JUMPDEST SWAP1 POP SWAP2 SWAP1 POP JUMP JUMPDEST PUSH32 0x4F6E6C79207768656E20636F6E74726163742069732061637469766500000000 PUSH0 DUP3 ADD MSTORE POP JUMP JUMPDEST PUSH0 PUSH2 0x19BE PUSH1 0x1C DUP4 PUSH2 0x1604 JUMP JUMPDEST SWAP2 POP PUSH2 0x19C9 DUP3 PUSH2 0x198A JUMP JUMPDEST PUSH1 0x20 DUP3 ADD SWAP1 POP SWAP2 SWAP1 POP JUMP JUMPDEST PUSH0 PUSH1 0x20 DUP3 ADD SWAP1 POP DUP2 DUP2 SUB PUSH0 DUP4 ADD MSTORE PUSH2 0x19EB DUP2 PUSH2 0x19B2 JUMP JUMPDEST SWAP1 POP SWAP2 SWAP1 POP JUMP JUMPDEST PUSH32 0x4E487B7100000000000000000000000000000000000000000000000000000000 PUSH0 MSTORE PUSH1 0x22 PUSH1 0x4 MSTORE PUSH1 0x24 PUSH0 REVERT JUMPDEST PUSH0 PUSH1 0x2 DUP3 DIV SWAP1 POP PUSH1 0x1 DUP3 AND DUP1 PUSH2 0x1A36 JUMPI PUSH1 0x7F DUP3 AND SWAP2 POP JUMPDEST PUSH1 0x20 DUP3 LT DUP2 SUB PUSH2 0x1A49 JUMPI PUSH2 0x1A48 PUSH2 0x19F2 JUMP JUMPDEST JUMPDEST POP SWAP2 SWAP1 POP JUMP JUMPDEST PUSH32 0x467269656E6420646F6573206E6F742065786973740000000000000000000000 PUSH0 DUP3 ADD MSTORE POP JUMP JUMPDEST PUSH0 PUSH2 0x1A83 PUSH1 0x15 DUP4 PUSH2 0x1604 JUMP JUMPDEST SWAP2 POP PUSH2 0x1A8E DUP3 PUSH2 0x1A4F JUMP JUMPDEST PUSH1 0x20 DUP3 ADD SWAP1 POP SWAP2 SWAP1 POP JUMP JUMPDEST PUSH0 PUSH1 0x20 DUP3 ADD SWAP1 POP DUP2 DUP2 SUB PUSH0 DUP4 ADD MSTORE PUSH2 0x1AB0 DUP2 PUSH2 0x1A77 JUMP JUMPDEST SWAP1 POP SWAP2 SWAP1 POP JUMP JUMPDEST PUSH32 0x52657374617572616E7420766F74656420646F6573206E6F7420657869737400 PUSH0 DUP3 ADD MSTORE POP JUMP JUMPDEST PUSH0 PUSH2 0x1AEB PUSH1 0x1F DUP4 PUSH2 0x1604 JUMP JUMPDEST SWAP2 POP PUSH2 0x1AF6 DUP3 PUSH2 0x1AB7 JUMP JUMPDEST PUSH1 0x20 DUP3 ADD SWAP1 POP SWAP2 SWAP1 POP JUMP JUMPDEST PUSH0 PUSH1 0x20 DUP3 ADD SWAP1 POP DUP2 DUP2 SUB PUSH0 DUP4 ADD MSTORE PUSH2 0x1B18 DUP2 PUSH2 0x1ADF JUMP JUMPDEST SWAP1 POP SWAP2 SWAP1 POP JUMP JUMPDEST PUSH32 0x467269656E642068617320766F74656420616C72656164790000000000000000 PUSH0 DUP3 ADD MSTORE POP JUMP JUMPDEST PUSH0 PUSH2 0x1B53 PUSH1 0x18 DUP4 PUSH2 0x1604 JUMP JUMPDEST SWAP2 POP PUSH2 0x1B5E DUP3 PUSH2 0x1B1F JUMP JUMPDEST PUSH1 0x20 DUP3 ADD SWAP1 POP SWAP2 SWAP1 POP JUMP JUMPDEST PUSH0 PUSH1 0x20 DUP3 ADD SWAP1 POP DUP2 DUP2 SUB PUSH0 DUP4 ADD MSTORE PUSH2 0x1B80 DUP2 PUSH2 0x1B47 JUMP JUMPDEST SWAP1 POP SWAP2 SWAP1 POP JUMP JUMPDEST PUSH32 0x4E487B7100000000000000000000000000000000000000000000000000000000 PUSH0 MSTORE PUSH1 0x11 PUSH1 0x4 MSTORE PUSH1 0x24 PUSH0 REVERT JUMPDEST PUSH0 PUSH2 0x1BBE DUP3 PUSH2 0x14E4 JUMP JUMPDEST SWAP2 POP PUSH32 0xFFFFFFFFFFFFFFFFFFFFFFFFFFFFFFFFFFFFFFFFFFFFFFFFFFFFFFFFFFFFFFFF DUP3 SUB PUSH2 0x1BF0 JUMPI PUSH2 0x1BEF PUSH2 0x1B87 JUMP JUMPDEST JUMPDEST PUSH1 0x1 DUP3 ADD SWAP1 POP SWAP2 SWAP1 POP JUMP JUMPDEST PUSH32 0x4E487B7100000000000000000000000000000000000000000000000000000000 PUSH0 MSTORE PUSH1 0x12 PUSH1 0x4 MSTORE PUSH1 0x24 PUSH0 REVERT JUMPDEST PUSH0 PUSH2 0x1C32 DUP3 PUSH2 0x14E4 JUMP JUMPDEST SWAP2 POP PUSH2 0x1C3D DUP4 PUSH2 0x14E4 JUMP JUMPDEST SWAP3 POP DUP3 PUSH2 0x1C4D JUMPI PUSH2 0x1C4C PUSH2 0x1BFB JUMP JUMPDEST JUMPDEST DUP3 DUP3 DIV SWAP1 POP SWAP3 SWAP2 POP POP JUMP JUMPDEST PUSH0 PUSH2 0x1C62 DUP3 PUSH2 0x14E4 JUMP JUMPDEST SWAP2 POP PUSH2 0x1C6D DUP4 PUSH2 0x14E4 JUMP JUMPDEST SWAP3 POP DUP3 DUP3 ADD SWAP1 POP DUP1 DUP3 GT ISZERO PUSH2 0x1C85 JUMPI PUSH2 0x1C84 PUSH2 0x1B87 JUMP JUMPDEST JUMPDEST SWAP3 SWAP2 POP POP JUMP JUMPDEST PUSH32 0x43616E206F6E6C7920626520657865637574656420627920746865206D616E61 PUSH0 DUP3 ADD MSTORE PUSH32 0x6765720000000000000000000000000000000000000000000000000000000000 PUSH1 0x20 DUP3 ADD MSTORE POP JUMP JUMPDEST PUSH0 PUSH2 0x1CE5 PUSH1 0x23 DUP4 PUSH2 0x1604 JUMP JUMPDEST SWAP2 POP PUSH2 0x1CF0 DUP3 PUSH2 0x1C8B JUMP JUMPDEST PUSH1 0x40 DUP3 ADD SWAP1 POP SWAP2 SWAP1 POP JUMP JUMPDEST PUSH0 PUSH1 0x20 DUP3 ADD SWAP1 POP DUP2 DUP2 SUB PUSH0 DUP4 ADD MSTORE PUSH2 0x1D12 DUP2 PUSH2 0x1CD9 JUMP JUMPDEST SWAP1 POP SWAP2 SWAP1 POP JUMP JUMPDEST PUSH32 0x43616E2061646420667269656E6473206F722072657374617572616E7473206F PUSH0 DUP3 ADD MSTORE PUSH32 0x6E6C79207768656E20766F74696E672069732064697361626C65640000000000 PUSH1 0x20 DUP3 ADD MSTORE POP JUMP JUMPDEST PUSH0 PUSH2 0x1D73 PUSH1 0x3B DUP4 PUSH2 0x1604 JUMP JUMPDEST SWAP2 POP PUSH2 0x1D7E DUP3 PUSH2 0x1D19 JUMP JUMPDEST PUSH1 0x40 DUP3 ADD SWAP1 POP SWAP2 SWAP1 POP JUMP JUMPDEST PUSH0 PUSH1 0x20 DUP3 ADD SWAP1 POP DUP2 DUP2 SUB PUSH0 DUP4 ADD MSTORE PUSH2 0x1DA0 DUP2 PUSH2 0x1D67 JUMP JUMPDEST SWAP1 POP SWAP2 SWAP1 POP JUMP JUMPDEST PUSH32 0x54696D656F757420726561636865640000000000000000000000000000000000 PUSH0 DUP3 ADD MSTORE POP JUMP JUMPDEST PUSH0 PUSH2 0x1DDB PUSH1 0xF DUP4 PUSH2 0x1604 JUMP JUMPDEST SWAP2 POP PUSH2 0x1DE6 DUP3 PUSH2 0x1DA7 JUMP JUMPDEST PUSH1 0x20 DUP3 ADD SWAP1 POP SWAP2 SWAP1 POP JUMP JUMPDEST PUSH0 PUSH1 0x20 DUP3 ADD SWAP1 POP DUP2 DUP2 SUB PUSH0 DUP4 ADD MSTORE PUSH2 0x1E08 DUP2 PUSH2 0x1DCF JUMP JUMPDEST SWAP1 POP SWAP2 SWAP1 POP JUMP JUMPDEST PUSH32 0x467269656E6420616C7265616479206578697374730000000000000000000000 PUSH0 DUP3 ADD MSTORE POP JUMP JUMPDEST PUSH0 PUSH2 0x1E43 PUSH1 0x15 DUP4 PUSH2 0x1604 JUMP JUMPDEST SWAP2 POP PUSH2 0x1E4E DUP3 PUSH2 0x1E0F JUMP JUMPDEST PUSH1 0x20 DUP3 ADD SWAP1 POP SWAP2 SWAP1 POP JUMP JUMPDEST PUSH0 PUSH1 0x20 DUP3 ADD SWAP1 POP DUP2 DUP2 SUB PUSH0 DUP4 ADD MSTORE PUSH2 0x1E70 DUP2 PUSH2 0x1E37 JUMP JUMPDEST SWAP1 POP SWAP2 SWAP1 POP JUMP JUMPDEST PUSH0 DUP2 SWAP1 POP DUP2 PUSH0 MSTORE PUSH1 0x20 PUSH0 KECCAK256 SWAP1 POP SWAP2 SWAP1 POP JUMP JUMPDEST PUSH0 PUSH1 0x20 PUSH1 0x1F DUP4 ADD DIV SWAP1 POP SWAP2 SWAP1 POP JUMP JUMPDEST PUSH0 DUP3 DUP3 SHL SWAP1 POP SWAP3 SWAP2 POP POP JUMP JUMPDEST PUSH0 PUSH1 0x8 DUP4 MUL PUSH2 0x1ED3 PUSH32 0xFFFFFFFFFFFFFFFFFFFFFFFFFFFFFFFFFFFFFFFFFFFFFFFFFFFFFFFFFFFFFFFF DUP3 PUSH2 0x1E98 JUMP JUMPDEST PUSH2 0x1EDD DUP7 DUP4 PUSH2 0x1E98 JUMP JUMPDEST SWAP6 POP DUP1 NOT DUP5 AND SWAP4 POP DUP1 DUP7 AND DUP5 OR SWAP3 POP POP POP SWAP4 SWAP3 POP POP POP JUMP JUMPDEST PUSH0 DUP2 SWAP1 POP SWAP2 SWAP1 POP JUMP JUMPDEST PUSH0 PUSH2 0x1F18 PUSH2 0x1F13 PUSH2 0x1F0E DUP5 PUSH2 0x14E4 JUMP JUMPDEST PUSH2 0x1EF5 JUMP JUMPDEST PUSH2 0x14E4 JUMP JUMPDEST SWAP1 POP SWAP2 SWAP1 POP JUMP JUMPDEST PUSH0 DUP2 SWAP1 POP SWAP2 SWAP1 POP JUMP JUMPDEST PUSH2 0x1F31 DUP4 PUSH2 0x1EFE JUMP JUMPDEST PUSH2 0x1F45 PUSH2 0x1F3D DUP3 PUSH2 0x1F1F JUMP JUMPDEST DUP5 DUP5 SLOAD PUSH2 0x1EA4 JUMP JUMPDEST DUP3 SSTORE POP POP POP POP JUMP JUMPDEST PUSH0 SWAP1 JUMP JUMPDEST PUSH2 0x1F59 PUSH2 0x1F4D JUMP JUMPDEST PUSH2 0x1F64 DUP2 DUP5 DUP5 PUSH2 0x1F28 JUMP JUMPDEST POP POP POP JUMP JUMPDEST JUMPDEST DUP2 DUP2 LT ISZERO PUSH2 0x1F87 JUMPI PUSH2 0x1F7C PUSH0 DUP3 PUSH2 0x1F51 JUMP JUMPDEST PUSH1 0x1 DUP2 ADD SWAP1 POP PUSH2 0x1F6A JUMP JUMPDEST POP POP JUMP JUMPDEST PUSH1 0x1F DUP3 GT ISZERO PUSH2 0x1FCC JUMPI PUSH2 0x1F9D DUP2 PUSH2 0x1E77 JUMP JUMPDEST PUSH2 0x1FA6 DUP5 PUSH2 0x1E89 JUMP JUMPDEST DUP2 ADD PUSH1 0x20 DUP6 LT ISZERO PUSH2 0x1FB5 JUMPI DUP2 SWAP1 POP JUMPDEST PUSH2 0x1FC9 PUSH2 0x1FC1 DUP6 PUSH2 0x1E89 JUMP JUMPDEST DUP4 ADD DUP3 PUSH2 0x1F69 JUMP JUMPDEST POP POP JUMPDEST POP POP POP JUMP JUMPDEST PUSH0 DUP3 DUP3 SHR SWAP1 POP SWAP3 SWAP2 POP POP JUMP JUMPDEST PUSH0 PUSH2 0x1FEC PUSH0 NOT DUP5 PUSH1 0x8 MUL PUSH2 0x1FD1 JUMP JUMPDEST NOT DUP1 DUP4 AND SWAP2 POP POP SWAP3 SWAP2 POP POP JUMP JUMPDEST PUSH0 PUSH2 0x2004 DUP4 DUP4 PUSH2 0x1FDD JUMP JUMPDEST SWAP2 POP DUP3 PUSH1 0x2 MUL DUP3 OR SWAP1 POP SWAP3 SWAP2 POP POP JUMP JUMPDEST PUSH2 0x201D DUP3 PUSH2 0x15FA JUMP JUMPDEST PUSH8 0xFFFFFFFFFFFFFFFF DUP2 GT ISZERO PUSH2 0x2036 JUMPI PUSH2 0x2035 PUSH2 0x16A0 JUMP JUMPDEST JUMPDEST PUSH2 0x2040 DUP3 SLOAD PUSH2 0x1A1F JUMP JUMPDEST PUSH2 0x204B DUP3 DUP3 DUP6 PUSH2 0x1F8B JUMP JUMPDEST PUSH0 PUSH1 0x20 SWAP1 POP PUSH1 0x1F DUP4 GT PUSH1 0x1 DUP2 EQ PUSH2 0x207C JUMPI PUSH0 DUP5 ISZERO PUSH2 0x206A JUMPI DUP3 DUP8 ADD MLOAD SWAP1 POP JUMPDEST PUSH2 0x2074 DUP6 DUP3 PUSH2 0x1FF9 JUMP JUMPDEST DUP7 SSTORE POP PUSH2 0x20DB JUMP JUMPDEST PUSH1 0x1F NOT DUP5 AND PUSH2 0x208A DUP7 PUSH2 0x1E77 JUMP JUMPDEST PUSH0 JUMPDEST DUP3 DUP2 LT ISZERO PUSH2 0x20B1 JUMPI DUP5 DUP10 ADD MLOAD DUP3 SSTORE PUSH1 0x1 DUP3 ADD SWAP2 POP PUSH1 0x20 DUP6 ADD SWAP5 POP PUSH1 0x20 DUP2 ADD SWAP1 POP PUSH2 0x208C JUMP JUMPDEST DUP7 DUP4 LT ISZERO PUSH2 0x20CE JUMPI DUP5 DUP10 ADD MLOAD PUSH2 0x20CA PUSH1 0x1F DUP10 AND DUP3 PUSH2 0x1FDD JUMP JUMPDEST DUP4 SSTORE POP JUMPDEST PUSH1 0x1 PUSH1 0x2 DUP9 MUL ADD DUP9 SSTORE POP POP POP JUMPDEST POP POP POP POP POP POP JUMP JUMPDEST PUSH32 0x52657374617572616E7420616C72656164792065786973747300000000000000 PUSH0 DUP3 ADD MSTORE POP JUMP JUMPDEST PUSH0 PUSH2 0x2117 PUSH1 0x19 DUP4 PUSH2 0x1604 JUMP JUMPDEST SWAP2 POP PUSH2 0x2122 DUP3 PUSH2 0x20E3 JUMP JUMPDEST PUSH1 0x20 DUP3 ADD SWAP1 POP SWAP2 SWAP1 POP JUMP JUMPDEST PUSH0 PUSH1 0x20 DUP3 ADD SWAP1 POP DUP2 DUP2 SUB PUSH0 DUP4 ADD MSTORE PUSH2 0x2144 DUP2 PUSH2 0x210B JUMP JUMPDEST SWAP1 POP SWAP2 SWAP1 POP JUMP JUMPDEST PUSH32 0x43616E20766F7465206F6E6C79207768656E2074686572652061726520617420 PUSH0 DUP3 ADD MSTORE PUSH32 0x6C6561737420322072657374617572616E747300000000000000000000000000 PUSH1 0x20 DUP3 ADD MSTORE POP JUMP JUMPDEST PUSH0 PUSH2 0x21A5 PUSH1 0x33 DUP4 PUSH2 0x1604 JUMP JUMPDEST SWAP2 POP PUSH2 0x21B0 DUP3 PUSH2 0x214B JUMP JUMPDEST PUSH1 0x40 DUP3 ADD SWAP1 POP SWAP2 SWAP1 POP JUMP JUMPDEST PUSH0 PUSH1 0x20 DUP3 ADD SWAP1 POP DUP2 DUP2 SUB PUSH0 DUP4 ADD MSTORE PUSH2 0x21D2 DUP2 PUSH2 0x2199 JUMP JUMPDEST SWAP1 POP SWAP2 SWAP1 POP JUMP JUMPDEST PUSH32 0x43616E20766F7465206F6E6C79207768656E2074686572652061726520617420 PUSH0 DUP3 ADD MSTORE PUSH32 0x6C65617374203220667269656E64730000000000000000000000000000000000 PUSH1 0x20 DUP3 ADD MSTORE POP JUMP JUMPDEST PUSH0 PUSH2 0x2233 PUSH1 0x2F DUP4 PUSH2 0x1604 JUMP JUMPDEST SWAP2 POP PUSH2 0x223E DUP3 PUSH2 0x21D9 JUMP JUMPDEST PUSH1 0x40 DUP3 ADD SWAP1 POP SWAP2 SWAP1 POP JUMP JUMPDEST PUSH0 PUSH1 0x20 DUP3 ADD SWAP1 POP DUP2 DUP2 SUB PUSH0 DUP4 ADD MSTORE PUSH2 0x2260 DUP2 PUSH2 0x2227 JUMP JUMPDEST SWAP1 POP SWAP2 SWAP1 POP JUMP JUMPDEST PUSH32 0x54696D656F7574207265616368656420616E6420766F74696E6720697320636C PUSH0 DUP3 ADD MSTORE PUSH32 0x6F73656400000000000000000000000000000000000000000000000000000000 PUSH1 0x20 DUP3 ADD MSTORE POP JUMP JUMPDEST PUSH0 PUSH2 0x22C1 PUSH1 0x24 DUP4 PUSH2 0x1604 JUMP JUMPDEST SWAP2 POP PUSH2 0x22CC DUP3 PUSH2 0x2267 JUMP JUMPDEST PUSH1 0x40 DUP3 ADD SWAP1 POP SWAP2 SWAP1 POP JUMP JUMPDEST PUSH0 PUSH1 0x20 DUP3 ADD SWAP1 POP DUP2 DUP2 SUB PUSH0 DUP4 ADD MSTORE PUSH2 0x22EE DUP2 PUSH2 0x22B5 JUMP JUMPDEST SWAP1 POP SWAP2 SWAP1 POP JUMP JUMPDEST PUSH32 0x4E487B7100000000000000000000000000000000000000000000000000000000 PUSH0 MSTORE PUSH1 0x32 PUSH1 0x4 MSTORE PUSH1 0x24 PUSH0 REVERT JUMPDEST PUSH0 DUP2 SLOAD SWAP1 POP PUSH2 0x2330 DUP2 PUSH2 0x1A1F JUMP JUMPDEST SWAP1 POP SWAP2 SWAP1 POP JUMP JUMPDEST PUSH0 DUP2 SWAP1 POP DUP2 PUSH0 MSTORE PUSH1 0x20 PUSH0 KECCAK256 SWAP1 POP SWAP2 SWAP1 POP JUMP JUMPDEST DUP2 DUP2 SUB PUSH2 0x2357 JUMPI POP POP PUSH2 0x242C JUMP JUMPDEST PUSH2 0x2360 DUP3 PUSH2 0x2322 JUMP JUMPDEST PUSH8 0xFFFFFFFFFFFFFFFF DUP2 GT ISZERO PUSH2 0x2379 JUMPI PUSH2 0x2378 PUSH2 0x16A0 JUMP JUMPDEST JUMPDEST PUSH2 0x2383 DUP3 SLOAD PUSH2 0x1A1F JUMP JUMPDEST PUSH2 0x238E DUP3 DUP3 DUP6 PUSH2 0x1F8B JUMP JUMPDEST PUSH0 PUSH1 0x1F DUP4 GT PUSH1 0x1 DUP2 EQ PUSH2 0x23BB JUMPI PUSH0 DUP5 ISZERO PUSH2 0x23A9 JUMPI DUP3 DUP8 ADD SLOAD SWAP1 POP JUMPDEST PUSH2 0x23B3 DUP6 DUP3 PUSH2 0x1FF9 JUMP JUMPDEST DUP7 SSTORE POP PUSH2 0x2425 JUMP JUMPDEST PUSH1 0x1F NOT DUP5 AND PUSH2 0x23C9 DUP8 PUSH2 0x2337 JUMP JUMPDEST SWAP7 POP PUSH2 0x23D4 DUP7 PUSH2 0x1E77 JUMP JUMPDEST PUSH0 JUMPDEST DUP3 DUP2 LT ISZERO PUSH2 0x23FB JUMPI DUP5 DUP10 ADD SLOAD DUP3 SSTORE PUSH1 0x1 DUP3 ADD SWAP2 POP PUSH1 0x1 DUP6 ADD SWAP5 POP PUSH1 0x20 DUP2 ADD SWAP1 POP PUSH2 0x23D6 JUMP JUMPDEST DUP7 DUP4 LT ISZERO PUSH2 0x2418 JUMPI DUP5 DUP10 ADD SLOAD PUSH2 0x2414 PUSH1 0x1F DUP10 AND DUP3 PUSH2 0x1FDD JUMP JUMPDEST DUP4 SSTORE POP JUMPDEST PUSH1 0x1 PUSH1 0x2 DUP9 MUL ADD DUP9 SSTORE POP POP POP JUMPDEST POP POP POP POP POP POP JUMPDEST JUMP INVALID LOG2 PUSH5 0x6970667358 0x22 SLT KECCAK256 0xDA PUSH16 0xAE1C252BA7153F9398FC8061E03F83C3 SLOAD CALLCODE 0xEE 0x28 CODECOPY DUP14 0xF9 0xD2 0xA5 0xB1 CALLCODE CALLER PUSH26 0x2A64736F6C634300081A0033A264697066735822122075639AB8 MSTORE 0xA5 0xE0 0x2D SWAP3 DUP7 0xC5 MSTORE8 0xC4 BLOCKHASH 0xBC 0xC2 0xD6 0xDE SGT EXTCODEHASH 0xAC 0xB3 SDIV 0xDB SWAP14 JUMPI DUP11 0xF7 LOG1 CALLCODE PUSH12 0xF564736F6C634300081A0033 "
		},
		"gasEstimates": {
			"creation": {
				"codeDepositCost": "2580000",
				"executionCost": "2791",
				"totalCost": "2582791"
			},
			"external": {
				"beforeAll()": "infinite",
				"managerTest()": "infinite"
			}
		},
		"methodIdentifiers": {
			"beforeAll()": "7fea0d4b",
			"managerTest()": "947aea86"
		}
	},
	"abi": [
		{
			"inputs": [],
			"name": "beforeAll",
			"outputs": [],
			"stateMutability": "nonpayable",
			"type": "function"
		},
		{
			"inputs": [],
			"name": "managerTest",
			"outputs": [],
			"stateMutability": "nonpayable",
			"type": "function"
		}
	]
}